{
	"poll.sol": {
		"PollContract": {
			"abi": [
				{
					"inputs": [
						{
							"internalType": "string",
							"name": "_question",
							"type": "string"
						},
						{
							"internalType": "string",
							"name": "_thumb",
							"type": "string"
						},
						{
							"internalType": "bytes32[]",
							"name": "_options",
							"type": "bytes32[]"
						}
					],
					"name": "createPoll",
					"outputs": [],
					"stateMutability": "view",
					"type": "function"
				}
			],
			"devdoc": {
				"kind": "dev",
				"methods": {},
				"version": 1
			},
			"evm": {
				"assembly": "    /* \"poll.sol\":26:650  contract PollContract {... */\n  mstore(0x40, 0x80)\n  callvalue\n  dup1\n  iszero\n  tag_1\n  jumpi\n  0x00\n  dup1\n  revert\ntag_1:\n  pop\n  dataSize(sub_0)\n  dup1\n  dataOffset(sub_0)\n  0x00\n  codecopy\n  0x00\n  return\nstop\n\nsub_0: assembly {\n        /* \"poll.sol\":26:650  contract PollContract {... */\n      mstore(0x40, 0x80)\n      callvalue\n      dup1\n      iszero\n      tag_1\n      jumpi\n      0x00\n      dup1\n      revert\n    tag_1:\n      pop\n      jumpi(tag_2, lt(calldatasize, 0x04))\n      shr(0xe0, calldataload(0x00))\n      dup1\n      0x7ba91041\n      eq\n      tag_3\n      jumpi\n    tag_2:\n      0x00\n      dup1\n      revert\n        /* \"poll.sol\":393:648  function createPoll(string memory _question, string memory _thumb, bytes32[] memory _options) public view {... */\n    tag_3:\n      tag_4\n      0x04\n      dup1\n      calldatasize\n      sub\n      dup2\n      add\n      swap1\n      tag_5\n      swap2\n      swap1\n      tag_6\n      jump\t// in\n    tag_5:\n      tag_7\n      jump\t// in\n    tag_4:\n      stop\n    tag_7:\n        /* \"poll.sol\":543:544  0 */\n      0x00\n        /* \"poll.sol\":523:532  _question */\n      dup4\n        /* \"poll.sol\":517:540  bytes(_question).length */\n      mload\n        /* \"poll.sol\":517:544  bytes(_question).length > 0 */\n      gt\n        /* \"poll.sol\":509:563  require(bytes(_question).length > 0, \"Empty question\") */\n      tag_9\n      jumpi\n      mload(0x40)\n      0x08c379a000000000000000000000000000000000000000000000000000000000\n      dup2\n      mstore\n      0x04\n      add\n      tag_10\n      swap1\n      tag_11\n      jump\t// in\n    tag_10:\n      mload(0x40)\n      dup1\n      swap2\n      sub\n      swap1\n      revert\n    tag_9:\n        /* \"poll.sol\":599:600  1 */\n      0x01\n        /* \"poll.sol\":581:589  _options */\n      dup2\n        /* \"poll.sol\":581:596  _options.length */\n      mload\n        /* \"poll.sol\":581:600  _options.length > 1 */\n      gt\n        /* \"poll.sol\":573:632  require(_options.length > 1, \"At least 2 options required\") */\n      tag_12\n      jumpi\n      mload(0x40)\n      0x08c379a000000000000000000000000000000000000000000000000000000000\n      dup2\n      mstore\n      0x04\n      add\n      tag_13\n      swap1\n      tag_14\n      jump\t// in\n    tag_13:\n      mload(0x40)\n      dup1\n      swap2\n      sub\n      swap1\n      revert\n    tag_12:\n        /* \"poll.sol\":393:648  function createPoll(string memory _question, string memory _thumb, bytes32[] memory _options) public view {... */\n      pop\n      pop\n      pop\n      jump\t// out\n        /* \"#utility.yul\":7:82   */\n    tag_15:\n        /* \"#utility.yul\":40:46   */\n      0x00\n        /* \"#utility.yul\":73:75   */\n      0x40\n        /* \"#utility.yul\":67:76   */\n      mload\n        /* \"#utility.yul\":57:76   */\n      swap1\n      pop\n        /* \"#utility.yul\":7:82   */\n      swap1\n      jump\t// out\n        /* \"#utility.yul\":88:205   */\n    tag_16:\n        /* \"#utility.yul\":197:198   */\n      0x00\n        /* \"#utility.yul\":194:195   */\n      dup1\n        /* \"#utility.yul\":187:199   */\n      revert\n        /* \"#utility.yul\":211:328   */\n    tag_17:\n        /* \"#utility.yul\":320:321   */\n      0x00\n        /* \"#utility.yul\":317:318   */\n      dup1\n        /* \"#utility.yul\":310:322   */\n      revert\n        /* \"#utility.yul\":334:451   */\n    tag_18:\n        /* \"#utility.yul\":443:444   */\n      0x00\n        /* \"#utility.yul\":440:441   */\n      dup1\n        /* \"#utility.yul\":433:445   */\n      revert\n        /* \"#utility.yul\":457:574   */\n    tag_19:\n        /* \"#utility.yul\":566:567   */\n      0x00\n        /* \"#utility.yul\":563:564   */\n      dup1\n        /* \"#utility.yul\":556:568   */\n      revert\n        /* \"#utility.yul\":580:682   */\n    tag_20:\n        /* \"#utility.yul\":621:627   */\n      0x00\n        /* \"#utility.yul\":672:674   */\n      0x1f\n        /* \"#utility.yul\":668:675   */\n      not\n        /* \"#utility.yul\":663:665   */\n      0x1f\n        /* \"#utility.yul\":656:661   */\n      dup4\n        /* \"#utility.yul\":652:666   */\n      add\n        /* \"#utility.yul\":648:676   */\n      and\n        /* \"#utility.yul\":638:676   */\n      swap1\n      pop\n        /* \"#utility.yul\":580:682   */\n      swap2\n      swap1\n      pop\n      jump\t// out\n        /* \"#utility.yul\":688:868   */\n    tag_21:\n        /* \"#utility.yul\":736:813   */\n      0x4e487b7100000000000000000000000000000000000000000000000000000000\n        /* \"#utility.yul\":733:734   */\n      0x00\n        /* \"#utility.yul\":726:814   */\n      mstore\n        /* \"#utility.yul\":833:837   */\n      0x41\n        /* \"#utility.yul\":830:831   */\n      0x04\n        /* \"#utility.yul\":823:838   */\n      mstore\n        /* \"#utility.yul\":857:861   */\n      0x24\n        /* \"#utility.yul\":854:855   */\n      0x00\n        /* \"#utility.yul\":847:862   */\n      revert\n        /* \"#utility.yul\":874:1155   */\n    tag_22:\n        /* \"#utility.yul\":957:984   */\n      tag_49\n        /* \"#utility.yul\":979:983   */\n      dup3\n        /* \"#utility.yul\":957:984   */\n      tag_20\n      jump\t// in\n    tag_49:\n        /* \"#utility.yul\":949:955   */\n      dup2\n        /* \"#utility.yul\":945:985   */\n      add\n        /* \"#utility.yul\":1087:1093   */\n      dup2\n        /* \"#utility.yul\":1075:1085   */\n      dup2\n        /* \"#utility.yul\":1072:1094   */\n      lt\n        /* \"#utility.yul\":1051:1069   */\n      0xffffffffffffffff\n        /* \"#utility.yul\":1039:1049   */\n      dup3\n        /* \"#utility.yul\":1036:1070   */\n      gt\n        /* \"#utility.yul\":1033:1095   */\n      or\n        /* \"#utility.yul\":1030:1118   */\n      iszero\n      tag_50\n      jumpi\n        /* \"#utility.yul\":1098:1116   */\n      tag_51\n      tag_21\n      jump\t// in\n    tag_51:\n        /* \"#utility.yul\":1030:1118   */\n    tag_50:\n        /* \"#utility.yul\":1138:1148   */\n      dup1\n        /* \"#utility.yul\":1134:1136   */\n      0x40\n        /* \"#utility.yul\":1127:1149   */\n      mstore\n        /* \"#utility.yul\":917:1155   */\n      pop\n        /* \"#utility.yul\":874:1155   */\n      pop\n      pop\n      jump\t// out\n        /* \"#utility.yul\":1161:1290   */\n    tag_23:\n        /* \"#utility.yul\":1195:1201   */\n      0x00\n        /* \"#utility.yul\":1222:1242   */\n      tag_53\n      tag_15\n      jump\t// in\n    tag_53:\n        /* \"#utility.yul\":1212:1242   */\n      swap1\n      pop\n        /* \"#utility.yul\":1251:1284   */\n      tag_54\n        /* \"#utility.yul\":1279:1283   */\n      dup3\n        /* \"#utility.yul\":1271:1277   */\n      dup3\n        /* \"#utility.yul\":1251:1284   */\n      tag_22\n      jump\t// in\n    tag_54:\n        /* \"#utility.yul\":1161:1290   */\n      swap2\n      swap1\n      pop\n      jump\t// out\n        /* \"#utility.yul\":1296:1604   */\n    tag_24:\n        /* \"#utility.yul\":1358:1362   */\n      0x00\n        /* \"#utility.yul\":1448:1466   */\n      0xffffffffffffffff\n        /* \"#utility.yul\":1440:1446   */\n      dup3\n        /* \"#utility.yul\":1437:1467   */\n      gt\n        /* \"#utility.yul\":1434:1490   */\n      iszero\n      tag_56\n      jumpi\n        /* \"#utility.yul\":1470:1488   */\n      tag_57\n      tag_21\n      jump\t// in\n    tag_57:\n        /* \"#utility.yul\":1434:1490   */\n    tag_56:\n        /* \"#utility.yul\":1508:1537   */\n      tag_58\n        /* \"#utility.yul\":1530:1536   */\n      dup3\n        /* \"#utility.yul\":1508:1537   */\n      tag_20\n      jump\t// in\n    tag_58:\n        /* \"#utility.yul\":1500:1537   */\n      swap1\n      pop\n        /* \"#utility.yul\":1592:1596   */\n      0x20\n        /* \"#utility.yul\":1586:1590   */\n      dup2\n        /* \"#utility.yul\":1582:1597   */\n      add\n        /* \"#utility.yul\":1574:1597   */\n      swap1\n      pop\n        /* \"#utility.yul\":1296:1604   */\n      swap2\n      swap1\n      pop\n      jump\t// out\n        /* \"#utility.yul\":1610:1756   */\n    tag_25:\n        /* \"#utility.yul\":1707:1713   */\n      dup3\n        /* \"#utility.yul\":1702:1705   */\n      dup2\n        /* \"#utility.yul\":1697:1700   */\n      dup4\n        /* \"#utility.yul\":1684:1714   */\n      calldatacopy\n        /* \"#utility.yul\":1748:1749   */\n      0x00\n        /* \"#utility.yul\":1739:1745   */\n      dup4\n        /* \"#utility.yul\":1734:1737   */\n      dup4\n        /* \"#utility.yul\":1730:1746   */\n      add\n        /* \"#utility.yul\":1723:1750   */\n      mstore\n        /* \"#utility.yul\":1610:1756   */\n      pop\n      pop\n      pop\n      jump\t// out\n        /* \"#utility.yul\":1762:2187   */\n    tag_26:\n        /* \"#utility.yul\":1840:1845   */\n      0x00\n        /* \"#utility.yul\":1865:1931   */\n      tag_61\n        /* \"#utility.yul\":1881:1930   */\n      tag_62\n        /* \"#utility.yul\":1923:1929   */\n      dup5\n        /* \"#utility.yul\":1881:1930   */\n      tag_24\n      jump\t// in\n    tag_62:\n        /* \"#utility.yul\":1865:1931   */\n      tag_23\n      jump\t// in\n    tag_61:\n        /* \"#utility.yul\":1856:1931   */\n      swap1\n      pop\n        /* \"#utility.yul\":1954:1960   */\n      dup3\n        /* \"#utility.yul\":1947:1952   */\n      dup2\n        /* \"#utility.yul\":1940:1961   */\n      mstore\n        /* \"#utility.yul\":1992:1996   */\n      0x20\n        /* \"#utility.yul\":1985:1990   */\n      dup2\n        /* \"#utility.yul\":1981:1997   */\n      add\n        /* \"#utility.yul\":2030:2033   */\n      dup5\n        /* \"#utility.yul\":2021:2027   */\n      dup5\n        /* \"#utility.yul\":2016:2019   */\n      dup5\n        /* \"#utility.yul\":2012:2028   */\n      add\n        /* \"#utility.yul\":2009:2034   */\n      gt\n        /* \"#utility.yul\":2006:2118   */\n      iszero\n      tag_63\n      jumpi\n        /* \"#utility.yul\":2037:2116   */\n      tag_64\n      tag_19\n      jump\t// in\n    tag_64:\n        /* \"#utility.yul\":2006:2118   */\n    tag_63:\n        /* \"#utility.yul\":2127:2181   */\n      tag_65\n        /* \"#utility.yul\":2174:2180   */\n      dup5\n        /* \"#utility.yul\":2169:2172   */\n      dup3\n        /* \"#utility.yul\":2164:2167   */\n      dup6\n        /* \"#utility.yul\":2127:2181   */\n      tag_25\n      jump\t// in\n    tag_65:\n        /* \"#utility.yul\":1846:2187   */\n      pop\n        /* \"#utility.yul\":1762:2187   */\n      swap4\n      swap3\n      pop\n      pop\n      pop\n      jump\t// out\n        /* \"#utility.yul\":2207:2547   */\n    tag_27:\n        /* \"#utility.yul\":2263:2268   */\n      0x00\n        /* \"#utility.yul\":2312:2315   */\n      dup3\n        /* \"#utility.yul\":2305:2309   */\n      0x1f\n        /* \"#utility.yul\":2297:2303   */\n      dup4\n        /* \"#utility.yul\":2293:2310   */\n      add\n        /* \"#utility.yul\":2289:2316   */\n      slt\n        /* \"#utility.yul\":2279:2401   */\n      tag_67\n      jumpi\n        /* \"#utility.yul\":2320:2399   */\n      tag_68\n      tag_18\n      jump\t// in\n    tag_68:\n        /* \"#utility.yul\":2279:2401   */\n    tag_67:\n        /* \"#utility.yul\":2437:2443   */\n      dup2\n        /* \"#utility.yul\":2424:2444   */\n      calldataload\n        /* \"#utility.yul\":2462:2541   */\n      tag_69\n        /* \"#utility.yul\":2537:2540   */\n      dup5\n        /* \"#utility.yul\":2529:2535   */\n      dup3\n        /* \"#utility.yul\":2522:2526   */\n      0x20\n        /* \"#utility.yul\":2514:2520   */\n      dup7\n        /* \"#utility.yul\":2510:2527   */\n      add\n        /* \"#utility.yul\":2462:2541   */\n      tag_26\n      jump\t// in\n    tag_69:\n        /* \"#utility.yul\":2453:2541   */\n      swap2\n      pop\n        /* \"#utility.yul\":2269:2547   */\n      pop\n        /* \"#utility.yul\":2207:2547   */\n      swap3\n      swap2\n      pop\n      pop\n      jump\t// out\n        /* \"#utility.yul\":2553:2864   */\n    tag_28:\n        /* \"#utility.yul\":2630:2634   */\n      0x00\n        /* \"#utility.yul\":2720:2738   */\n      0xffffffffffffffff\n        /* \"#utility.yul\":2712:2718   */\n      dup3\n        /* \"#utility.yul\":2709:2739   */\n      gt\n        /* \"#utility.yul\":2706:2762   */\n      iszero\n      tag_71\n      jumpi\n        /* \"#utility.yul\":2742:2760   */\n      tag_72\n      tag_21\n      jump\t// in\n    tag_72:\n        /* \"#utility.yul\":2706:2762   */\n    tag_71:\n        /* \"#utility.yul\":2792:2796   */\n      0x20\n        /* \"#utility.yul\":2784:2790   */\n      dup3\n        /* \"#utility.yul\":2780:2797   */\n      mul\n        /* \"#utility.yul\":2772:2797   */\n      swap1\n      pop\n        /* \"#utility.yul\":2852:2856   */\n      0x20\n        /* \"#utility.yul\":2846:2850   */\n      dup2\n        /* \"#utility.yul\":2842:2857   */\n      add\n        /* \"#utility.yul\":2834:2857   */\n      swap1\n      pop\n        /* \"#utility.yul\":2553:2864   */\n      swap2\n      swap1\n      pop\n      jump\t// out\n        /* \"#utility.yul\":2870:2987   */\n    tag_29:\n        /* \"#utility.yul\":2979:2980   */\n      0x00\n        /* \"#utility.yul\":2976:2977   */\n      dup1\n        /* \"#utility.yul\":2969:2981   */\n      revert\n        /* \"#utility.yul\":2993:3070   */\n    tag_30:\n        /* \"#utility.yul\":3030:3037   */\n      0x00\n        /* \"#utility.yul\":3059:3064   */\n      dup2\n        /* \"#utility.yul\":3048:3064   */\n      swap1\n      pop\n        /* \"#utility.yul\":2993:3070   */\n      swap2\n      swap1\n      pop\n      jump\t// out\n        /* \"#utility.yul\":3076:3198   */\n    tag_31:\n        /* \"#utility.yul\":3149:3173   */\n      tag_76\n        /* \"#utility.yul\":3167:3172   */\n      dup2\n        /* \"#utility.yul\":3149:3173   */\n      tag_30\n      jump\t// in\n    tag_76:\n        /* \"#utility.yul\":3142:3147   */\n      dup2\n        /* \"#utility.yul\":3139:3174   */\n      eq\n        /* \"#utility.yul\":3129:3192   */\n      tag_77\n      jumpi\n        /* \"#utility.yul\":3188:3189   */\n      0x00\n        /* \"#utility.yul\":3185:3186   */\n      dup1\n        /* \"#utility.yul\":3178:3190   */\n      revert\n        /* \"#utility.yul\":3129:3192   */\n    tag_77:\n        /* \"#utility.yul\":3076:3198   */\n      pop\n      jump\t// out\n        /* \"#utility.yul\":3204:3343   */\n    tag_32:\n        /* \"#utility.yul\":3250:3255   */\n      0x00\n        /* \"#utility.yul\":3288:3294   */\n      dup2\n        /* \"#utility.yul\":3275:3295   */\n      calldataload\n        /* \"#utility.yul\":3266:3295   */\n      swap1\n      pop\n        /* \"#utility.yul\":3304:3337   */\n      tag_79\n        /* \"#utility.yul\":3331:3336   */\n      dup2\n        /* \"#utility.yul\":3304:3337   */\n      tag_31\n      jump\t// in\n    tag_79:\n        /* \"#utility.yul\":3204:3343   */\n      swap3\n      swap2\n      pop\n      pop\n      jump\t// out\n        /* \"#utility.yul\":3366:4076   */\n    tag_33:\n        /* \"#utility.yul\":3462:3467   */\n      0x00\n        /* \"#utility.yul\":3487:3568   */\n      tag_81\n        /* \"#utility.yul\":3503:3567   */\n      tag_82\n        /* \"#utility.yul\":3560:3566   */\n      dup5\n        /* \"#utility.yul\":3503:3567   */\n      tag_28\n      jump\t// in\n    tag_82:\n        /* \"#utility.yul\":3487:3568   */\n      tag_23\n      jump\t// in\n    tag_81:\n        /* \"#utility.yul\":3478:3568   */\n      swap1\n      pop\n        /* \"#utility.yul\":3588:3593   */\n      dup1\n        /* \"#utility.yul\":3617:3623   */\n      dup4\n        /* \"#utility.yul\":3610:3615   */\n      dup3\n        /* \"#utility.yul\":3603:3624   */\n      mstore\n        /* \"#utility.yul\":3651:3655   */\n      0x20\n        /* \"#utility.yul\":3644:3649   */\n      dup3\n        /* \"#utility.yul\":3640:3656   */\n      add\n        /* \"#utility.yul\":3633:3656   */\n      swap1\n      pop\n        /* \"#utility.yul\":3704:3708   */\n      0x20\n        /* \"#utility.yul\":3696:3702   */\n      dup5\n        /* \"#utility.yul\":3692:3709   */\n      mul\n        /* \"#utility.yul\":3684:3690   */\n      dup4\n        /* \"#utility.yul\":3680:3710   */\n      add\n        /* \"#utility.yul\":3733:3736   */\n      dup6\n        /* \"#utility.yul\":3725:3731   */\n      dup2\n        /* \"#utility.yul\":3722:3737   */\n      gt\n        /* \"#utility.yul\":3719:3841   */\n      iszero\n      tag_83\n      jumpi\n        /* \"#utility.yul\":3752:3831   */\n      tag_84\n      tag_29\n      jump\t// in\n    tag_84:\n        /* \"#utility.yul\":3719:3841   */\n    tag_83:\n        /* \"#utility.yul\":3867:3873   */\n      dup4\n        /* \"#utility.yul\":3850:4070   */\n    tag_85:\n        /* \"#utility.yul\":3884:3890   */\n      dup2\n        /* \"#utility.yul\":3879:3882   */\n      dup2\n        /* \"#utility.yul\":3876:3891   */\n      lt\n        /* \"#utility.yul\":3850:4070   */\n      iszero\n      tag_87\n      jumpi\n        /* \"#utility.yul\":3959:3962   */\n      dup1\n        /* \"#utility.yul\":3988:4025   */\n      tag_88\n        /* \"#utility.yul\":4021:4024   */\n      dup9\n        /* \"#utility.yul\":4009:4019   */\n      dup3\n        /* \"#utility.yul\":3988:4025   */\n      tag_32\n      jump\t// in\n    tag_88:\n        /* \"#utility.yul\":3983:3986   */\n      dup5\n        /* \"#utility.yul\":3976:4026   */\n      mstore\n        /* \"#utility.yul\":4055:4059   */\n      0x20\n        /* \"#utility.yul\":4050:4053   */\n      dup5\n        /* \"#utility.yul\":4046:4060   */\n      add\n        /* \"#utility.yul\":4039:4060   */\n      swap4\n      pop\n        /* \"#utility.yul\":3926:4070   */\n      pop\n        /* \"#utility.yul\":3910:3914   */\n      0x20\n        /* \"#utility.yul\":3905:3908   */\n      dup2\n        /* \"#utility.yul\":3901:3915   */\n      add\n        /* \"#utility.yul\":3894:3915   */\n      swap1\n      pop\n        /* \"#utility.yul\":3850:4070   */\n      jump(tag_85)\n    tag_87:\n        /* \"#utility.yul\":3854:3875   */\n      pop\n        /* \"#utility.yul\":3468:4076   */\n      pop\n      pop\n        /* \"#utility.yul\":3366:4076   */\n      swap4\n      swap3\n      pop\n      pop\n      pop\n      jump\t// out\n        /* \"#utility.yul\":4099:4469   */\n    tag_34:\n        /* \"#utility.yul\":4170:4175   */\n      0x00\n        /* \"#utility.yul\":4219:4222   */\n      dup3\n        /* \"#utility.yul\":4212:4216   */\n      0x1f\n        /* \"#utility.yul\":4204:4210   */\n      dup4\n        /* \"#utility.yul\":4200:4217   */\n      add\n        /* \"#utility.yul\":4196:4223   */\n      slt\n        /* \"#utility.yul\":4186:4308   */\n      tag_90\n      jumpi\n        /* \"#utility.yul\":4227:4306   */\n      tag_91\n      tag_18\n      jump\t// in\n    tag_91:\n        /* \"#utility.yul\":4186:4308   */\n    tag_90:\n        /* \"#utility.yul\":4344:4350   */\n      dup2\n        /* \"#utility.yul\":4331:4351   */\n      calldataload\n        /* \"#utility.yul\":4369:4463   */\n      tag_92\n        /* \"#utility.yul\":4459:4462   */\n      dup5\n        /* \"#utility.yul\":4451:4457   */\n      dup3\n        /* \"#utility.yul\":4444:4448   */\n      0x20\n        /* \"#utility.yul\":4436:4442   */\n      dup7\n        /* \"#utility.yul\":4432:4449   */\n      add\n        /* \"#utility.yul\":4369:4463   */\n      tag_33\n      jump\t// in\n    tag_92:\n        /* \"#utility.yul\":4360:4463   */\n      swap2\n      pop\n        /* \"#utility.yul\":4176:4469   */\n      pop\n        /* \"#utility.yul\":4099:4469   */\n      swap3\n      swap2\n      pop\n      pop\n      jump\t// out\n        /* \"#utility.yul\":4475:5664   */\n    tag_6:\n        /* \"#utility.yul\":4597:4603   */\n      0x00\n        /* \"#utility.yul\":4605:4611   */\n      dup1\n        /* \"#utility.yul\":4613:4619   */\n      0x00\n        /* \"#utility.yul\":4662:4664   */\n      0x60\n        /* \"#utility.yul\":4650:4659   */\n      dup5\n        /* \"#utility.yul\":4641:4648   */\n      dup7\n        /* \"#utility.yul\":4637:4660   */\n      sub\n        /* \"#utility.yul\":4633:4665   */\n      slt\n        /* \"#utility.yul\":4630:4749   */\n      iszero\n      tag_94\n      jumpi\n        /* \"#utility.yul\":4668:4747   */\n      tag_95\n      tag_16\n      jump\t// in\n    tag_95:\n        /* \"#utility.yul\":4630:4749   */\n    tag_94:\n        /* \"#utility.yul\":4816:4817   */\n      0x00\n        /* \"#utility.yul\":4805:4814   */\n      dup5\n        /* \"#utility.yul\":4801:4818   */\n      add\n        /* \"#utility.yul\":4788:4819   */\n      calldataload\n        /* \"#utility.yul\":4846:4864   */\n      0xffffffffffffffff\n        /* \"#utility.yul\":4838:4844   */\n      dup2\n        /* \"#utility.yul\":4835:4865   */\n      gt\n        /* \"#utility.yul\":4832:4949   */\n      iszero\n      tag_96\n      jumpi\n        /* \"#utility.yul\":4868:4947   */\n      tag_97\n      tag_17\n      jump\t// in\n    tag_97:\n        /* \"#utility.yul\":4832:4949   */\n    tag_96:\n        /* \"#utility.yul\":4973:5036   */\n      tag_98\n        /* \"#utility.yul\":5028:5035   */\n      dup7\n        /* \"#utility.yul\":5019:5025   */\n      dup3\n        /* \"#utility.yul\":5008:5017   */\n      dup8\n        /* \"#utility.yul\":5004:5026   */\n      add\n        /* \"#utility.yul\":4973:5036   */\n      tag_27\n      jump\t// in\n    tag_98:\n        /* \"#utility.yul\":4963:5036   */\n      swap4\n      pop\n        /* \"#utility.yul\":4759:5046   */\n      pop\n        /* \"#utility.yul\":5113:5115   */\n      0x20\n        /* \"#utility.yul\":5102:5111   */\n      dup5\n        /* \"#utility.yul\":5098:5116   */\n      add\n        /* \"#utility.yul\":5085:5117   */\n      calldataload\n        /* \"#utility.yul\":5144:5162   */\n      0xffffffffffffffff\n        /* \"#utility.yul\":5136:5142   */\n      dup2\n        /* \"#utility.yul\":5133:5163   */\n      gt\n        /* \"#utility.yul\":5130:5247   */\n      iszero\n      tag_99\n      jumpi\n        /* \"#utility.yul\":5166:5245   */\n      tag_100\n      tag_17\n      jump\t// in\n    tag_100:\n        /* \"#utility.yul\":5130:5247   */\n    tag_99:\n        /* \"#utility.yul\":5271:5334   */\n      tag_101\n        /* \"#utility.yul\":5326:5333   */\n      dup7\n        /* \"#utility.yul\":5317:5323   */\n      dup3\n        /* \"#utility.yul\":5306:5315   */\n      dup8\n        /* \"#utility.yul\":5302:5324   */\n      add\n        /* \"#utility.yul\":5271:5334   */\n      tag_27\n      jump\t// in\n    tag_101:\n        /* \"#utility.yul\":5261:5334   */\n      swap3\n      pop\n        /* \"#utility.yul\":5056:5344   */\n      pop\n        /* \"#utility.yul\":5411:5413   */\n      0x40\n        /* \"#utility.yul\":5400:5409   */\n      dup5\n        /* \"#utility.yul\":5396:5414   */\n      add\n        /* \"#utility.yul\":5383:5415   */\n      calldataload\n        /* \"#utility.yul\":5442:5460   */\n      0xffffffffffffffff\n        /* \"#utility.yul\":5434:5440   */\n      dup2\n        /* \"#utility.yul\":5431:5461   */\n      gt\n        /* \"#utility.yul\":5428:5545   */\n      iszero\n      tag_102\n      jumpi\n        /* \"#utility.yul\":5464:5543   */\n      tag_103\n      tag_17\n      jump\t// in\n    tag_103:\n        /* \"#utility.yul\":5428:5545   */\n    tag_102:\n        /* \"#utility.yul\":5569:5647   */\n      tag_104\n        /* \"#utility.yul\":5639:5646   */\n      dup7\n        /* \"#utility.yul\":5630:5636   */\n      dup3\n        /* \"#utility.yul\":5619:5628   */\n      dup8\n        /* \"#utility.yul\":5615:5637   */\n      add\n        /* \"#utility.yul\":5569:5647   */\n      tag_34\n      jump\t// in\n    tag_104:\n        /* \"#utility.yul\":5559:5647   */\n      swap2\n      pop\n        /* \"#utility.yul\":5354:5657   */\n      pop\n        /* \"#utility.yul\":4475:5664   */\n      swap3\n      pop\n      swap3\n      pop\n      swap3\n      jump\t// out\n        /* \"#utility.yul\":5670:5839   */\n    tag_35:\n        /* \"#utility.yul\":5754:5765   */\n      0x00\n        /* \"#utility.yul\":5788:5794   */\n      dup3\n        /* \"#utility.yul\":5783:5786   */\n      dup3\n        /* \"#utility.yul\":5776:5795   */\n      mstore\n        /* \"#utility.yul\":5828:5832   */\n      0x20\n        /* \"#utility.yul\":5823:5826   */\n      dup3\n        /* \"#utility.yul\":5819:5833   */\n      add\n        /* \"#utility.yul\":5804:5833   */\n      swap1\n      pop\n        /* \"#utility.yul\":5670:5839   */\n      swap3\n      swap2\n      pop\n      pop\n      jump\t// out\n        /* \"#utility.yul\":5845:6009   */\n    tag_36:\n        /* \"#utility.yul\":5985:6001   */\n      0x456d707479207175657374696f6e000000000000000000000000000000000000\n        /* \"#utility.yul\":5981:5982   */\n      0x00\n        /* \"#utility.yul\":5973:5979   */\n      dup3\n        /* \"#utility.yul\":5969:5983   */\n      add\n        /* \"#utility.yul\":5962:6002   */\n      mstore\n        /* \"#utility.yul\":5845:6009   */\n      pop\n      jump\t// out\n        /* \"#utility.yul\":6015:6381   */\n    tag_37:\n        /* \"#utility.yul\":6157:6160   */\n      0x00\n        /* \"#utility.yul\":6178:6245   */\n      tag_108\n        /* \"#utility.yul\":6242:6244   */\n      0x0e\n        /* \"#utility.yul\":6237:6240   */\n      dup4\n        /* \"#utility.yul\":6178:6245   */\n      tag_35\n      jump\t// in\n    tag_108:\n        /* \"#utility.yul\":6171:6245   */\n      swap2\n      pop\n        /* \"#utility.yul\":6254:6347   */\n      tag_109\n        /* \"#utility.yul\":6343:6346   */\n      dup3\n        /* \"#utility.yul\":6254:6347   */\n      tag_36\n      jump\t// in\n    tag_109:\n        /* \"#utility.yul\":6372:6374   */\n      0x20\n        /* \"#utility.yul\":6367:6370   */\n      dup3\n        /* \"#utility.yul\":6363:6375   */\n      add\n        /* \"#utility.yul\":6356:6375   */\n      swap1\n      pop\n        /* \"#utility.yul\":6015:6381   */\n      swap2\n      swap1\n      pop\n      jump\t// out\n        /* \"#utility.yul\":6387:6806   */\n    tag_11:\n        /* \"#utility.yul\":6553:6557   */\n      0x00\n        /* \"#utility.yul\":6591:6593   */\n      0x20\n        /* \"#utility.yul\":6580:6589   */\n      dup3\n        /* \"#utility.yul\":6576:6594   */\n      add\n        /* \"#utility.yul\":6568:6594   */\n      swap1\n      pop\n        /* \"#utility.yul\":6640:6649   */\n      dup2\n        /* \"#utility.yul\":6634:6638   */\n      dup2\n        /* \"#utility.yul\":6630:6650   */\n      sub\n        /* \"#utility.yul\":6626:6627   */\n      0x00\n        /* \"#utility.yul\":6615:6624   */\n      dup4\n        /* \"#utility.yul\":6611:6628   */\n      add\n        /* \"#utility.yul\":6604:6651   */\n      mstore\n        /* \"#utility.yul\":6668:6799   */\n      tag_111\n        /* \"#utility.yul\":6794:6798   */\n      dup2\n        /* \"#utility.yul\":6668:6799   */\n      tag_37\n      jump\t// in\n    tag_111:\n        /* \"#utility.yul\":6660:6799   */\n      swap1\n      pop\n        /* \"#utility.yul\":6387:6806   */\n      swap2\n      swap1\n      pop\n      jump\t// out\n        /* \"#utility.yul\":6812:6989   */\n    tag_38:\n        /* \"#utility.yul\":6952:6981   */\n      0x4174206c656173742032206f7074696f6e732072657175697265640000000000\n        /* \"#utility.yul\":6948:6949   */\n      0x00\n        /* \"#utility.yul\":6940:6946   */\n      dup3\n        /* \"#utility.yul\":6936:6950   */\n      add\n        /* \"#utility.yul\":6929:6982   */\n      mstore\n        /* \"#utility.yul\":6812:6989   */\n      pop\n      jump\t// out\n        /* \"#utility.yul\":6995:7361   */\n    tag_39:\n        /* \"#utility.yul\":7137:7140   */\n      0x00\n        /* \"#utility.yul\":7158:7225   */\n      tag_114\n        /* \"#utility.yul\":7222:7224   */\n      0x1b\n        /* \"#utility.yul\":7217:7220   */\n      dup4\n        /* \"#utility.yul\":7158:7225   */\n      tag_35\n      jump\t// in\n    tag_114:\n        /* \"#utility.yul\":7151:7225   */\n      swap2\n      pop\n        /* \"#utility.yul\":7234:7327   */\n      tag_115\n        /* \"#utility.yul\":7323:7326   */\n      dup3\n        /* \"#utility.yul\":7234:7327   */\n      tag_38\n      jump\t// in\n    tag_115:\n        /* \"#utility.yul\":7352:7354   */\n      0x20\n        /* \"#utility.yul\":7347:7350   */\n      dup3\n        /* \"#utility.yul\":7343:7355   */\n      add\n        /* \"#utility.yul\":7336:7355   */\n      swap1\n      pop\n        /* \"#utility.yul\":6995:7361   */\n      swap2\n      swap1\n      pop\n      jump\t// out\n        /* \"#utility.yul\":7367:7786   */\n    tag_14:\n        /* \"#utility.yul\":7533:7537   */\n      0x00\n        /* \"#utility.yul\":7571:7573   */\n      0x20\n        /* \"#utility.yul\":7560:7569   */\n      dup3\n        /* \"#utility.yul\":7556:7574   */\n      add\n        /* \"#utility.yul\":7548:7574   */\n      swap1\n      pop\n        /* \"#utility.yul\":7620:7629   */\n      dup2\n        /* \"#utility.yul\":7614:7618   */\n      dup2\n        /* \"#utility.yul\":7610:7630   */\n      sub\n        /* \"#utility.yul\":7606:7607   */\n      0x00\n        /* \"#utility.yul\":7595:7604   */\n      dup4\n        /* \"#utility.yul\":7591:7608   */\n      add\n        /* \"#utility.yul\":7584:7631   */\n      mstore\n        /* \"#utility.yul\":7648:7779   */\n      tag_117\n        /* \"#utility.yul\":7774:7778   */\n      dup2\n        /* \"#utility.yul\":7648:7779   */\n      tag_39\n      jump\t// in\n    tag_117:\n        /* \"#utility.yul\":7640:7779   */\n      swap1\n      pop\n        /* \"#utility.yul\":7367:7786   */\n      swap2\n      swap1\n      pop\n      jump\t// out\n\n    auxdata: 0xa2646970667358221220ec4f7c35ae93c1c161a4bb4208c39c15d539cf971759527cb5b54b14b023b2cf64736f6c63430008100033\n}\n",
				"bytecode": {
					"linkReferences": {},
					"object": "608060405234801561001057600080fd5b506104f7806100206000396000f3fe608060405234801561001057600080fd5b506004361061002b5760003560e01c80637ba9104114610030575b600080fd5b61004a60048036038101906100459190610331565b61004c565b005b6000835111610090576040517f08c379a000000000000000000000000000000000000000000000000000000000815260040161008790610435565b60405180910390fd5b60018151116100d4576040517f08c379a00000000000000000000000000000000000000000000000000000000081526004016100cb906104a1565b60405180910390fd5b505050565b6000604051905090565b600080fd5b600080fd5b600080fd5b600080fd5b6000601f19601f8301169050919050565b7f4e487b7100000000000000000000000000000000000000000000000000000000600052604160045260246000fd5b610140826100f7565b810181811067ffffffffffffffff8211171561015f5761015e610108565b5b80604052505050565b60006101726100d9565b905061017e8282610137565b919050565b600067ffffffffffffffff82111561019e5761019d610108565b5b6101a7826100f7565b9050602081019050919050565b82818337600083830152505050565b60006101d66101d184610183565b610168565b9050828152602081018484840111156101f2576101f16100f2565b5b6101fd8482856101b4565b509392505050565b600082601f83011261021a576102196100ed565b5b813561022a8482602086016101c3565b91505092915050565b600067ffffffffffffffff82111561024e5761024d610108565b5b602082029050602081019050919050565b600080fd5b6000819050919050565b61027781610264565b811461028257600080fd5b50565b6000813590506102948161026e565b92915050565b60006102ad6102a884610233565b610168565b905080838252602082019050602084028301858111156102d0576102cf61025f565b5b835b818110156102f957806102e58882610285565b8452602084019350506020810190506102d2565b5050509392505050565b600082601f830112610318576103176100ed565b5b813561032884826020860161029a565b91505092915050565b60008060006060848603121561034a576103496100e3565b5b600084013567ffffffffffffffff811115610368576103676100e8565b5b61037486828701610205565b935050602084013567ffffffffffffffff811115610395576103946100e8565b5b6103a186828701610205565b925050604084013567ffffffffffffffff8111156103c2576103c16100e8565b5b6103ce86828701610303565b9150509250925092565b600082825260208201905092915050565b7f456d707479207175657374696f6e000000000000000000000000000000000000600082015250565b600061041f600e836103d8565b915061042a826103e9565b602082019050919050565b6000602082019050818103600083015261044e81610412565b9050919050565b7f4174206c656173742032206f7074696f6e732072657175697265640000000000600082015250565b600061048b601b836103d8565b915061049682610455565b602082019050919050565b600060208201905081810360008301526104ba8161047e565b905091905056fea2646970667358221220ec4f7c35ae93c1c161a4bb4208c39c15d539cf971759527cb5b54b14b023b2cf64736f6c63430008100033",
					"opcodes": "PUSH1 0x80 PUSH1 0x40 MSTORE CALLVALUE DUP1 ISZERO PUSH2 0x10 JUMPI PUSH1 0x0 DUP1 REVERT JUMPDEST POP PUSH2 0x4F7 DUP1 PUSH2 0x20 PUSH1 0x0 CODECOPY PUSH1 0x0 RETURN INVALID PUSH1 0x80 PUSH1 0x40 MSTORE CALLVALUE DUP1 ISZERO PUSH2 0x10 JUMPI PUSH1 0x0 DUP1 REVERT JUMPDEST POP PUSH1 0x4 CALLDATASIZE LT PUSH2 0x2B JUMPI PUSH1 0x0 CALLDATALOAD PUSH1 0xE0 SHR DUP1 PUSH4 0x7BA91041 EQ PUSH2 0x30 JUMPI JUMPDEST PUSH1 0x0 DUP1 REVERT JUMPDEST PUSH2 0x4A PUSH1 0x4 DUP1 CALLDATASIZE SUB DUP2 ADD SWAP1 PUSH2 0x45 SWAP2 SWAP1 PUSH2 0x331 JUMP JUMPDEST PUSH2 0x4C JUMP JUMPDEST STOP JUMPDEST PUSH1 0x0 DUP4 MLOAD GT PUSH2 0x90 JUMPI PUSH1 0x40 MLOAD PUSH32 0x8C379A000000000000000000000000000000000000000000000000000000000 DUP2 MSTORE PUSH1 0x4 ADD PUSH2 0x87 SWAP1 PUSH2 0x435 JUMP JUMPDEST PUSH1 0x40 MLOAD DUP1 SWAP2 SUB SWAP1 REVERT JUMPDEST PUSH1 0x1 DUP2 MLOAD GT PUSH2 0xD4 JUMPI PUSH1 0x40 MLOAD PUSH32 0x8C379A000000000000000000000000000000000000000000000000000000000 DUP2 MSTORE PUSH1 0x4 ADD PUSH2 0xCB SWAP1 PUSH2 0x4A1 JUMP JUMPDEST PUSH1 0x40 MLOAD DUP1 SWAP2 SUB SWAP1 REVERT JUMPDEST POP POP POP JUMP JUMPDEST PUSH1 0x0 PUSH1 0x40 MLOAD SWAP1 POP SWAP1 JUMP JUMPDEST PUSH1 0x0 DUP1 REVERT JUMPDEST PUSH1 0x0 DUP1 REVERT JUMPDEST PUSH1 0x0 DUP1 REVERT JUMPDEST PUSH1 0x0 DUP1 REVERT JUMPDEST PUSH1 0x0 PUSH1 0x1F NOT PUSH1 0x1F DUP4 ADD AND SWAP1 POP SWAP2 SWAP1 POP JUMP JUMPDEST PUSH32 0x4E487B7100000000000000000000000000000000000000000000000000000000 PUSH1 0x0 MSTORE PUSH1 0x41 PUSH1 0x4 MSTORE PUSH1 0x24 PUSH1 0x0 REVERT JUMPDEST PUSH2 0x140 DUP3 PUSH2 0xF7 JUMP JUMPDEST DUP2 ADD DUP2 DUP2 LT PUSH8 0xFFFFFFFFFFFFFFFF DUP3 GT OR ISZERO PUSH2 0x15F JUMPI PUSH2 0x15E PUSH2 0x108 JUMP JUMPDEST JUMPDEST DUP1 PUSH1 0x40 MSTORE POP POP POP JUMP JUMPDEST PUSH1 0x0 PUSH2 0x172 PUSH2 0xD9 JUMP JUMPDEST SWAP1 POP PUSH2 0x17E DUP3 DUP3 PUSH2 0x137 JUMP JUMPDEST SWAP2 SWAP1 POP JUMP JUMPDEST PUSH1 0x0 PUSH8 0xFFFFFFFFFFFFFFFF DUP3 GT ISZERO PUSH2 0x19E JUMPI PUSH2 0x19D PUSH2 0x108 JUMP JUMPDEST JUMPDEST PUSH2 0x1A7 DUP3 PUSH2 0xF7 JUMP JUMPDEST SWAP1 POP PUSH1 0x20 DUP2 ADD SWAP1 POP SWAP2 SWAP1 POP JUMP JUMPDEST DUP3 DUP2 DUP4 CALLDATACOPY PUSH1 0x0 DUP4 DUP4 ADD MSTORE POP POP POP JUMP JUMPDEST PUSH1 0x0 PUSH2 0x1D6 PUSH2 0x1D1 DUP5 PUSH2 0x183 JUMP JUMPDEST PUSH2 0x168 JUMP JUMPDEST SWAP1 POP DUP3 DUP2 MSTORE PUSH1 0x20 DUP2 ADD DUP5 DUP5 DUP5 ADD GT ISZERO PUSH2 0x1F2 JUMPI PUSH2 0x1F1 PUSH2 0xF2 JUMP JUMPDEST JUMPDEST PUSH2 0x1FD DUP5 DUP3 DUP6 PUSH2 0x1B4 JUMP JUMPDEST POP SWAP4 SWAP3 POP POP POP JUMP JUMPDEST PUSH1 0x0 DUP3 PUSH1 0x1F DUP4 ADD SLT PUSH2 0x21A JUMPI PUSH2 0x219 PUSH2 0xED JUMP JUMPDEST JUMPDEST DUP2 CALLDATALOAD PUSH2 0x22A DUP5 DUP3 PUSH1 0x20 DUP7 ADD PUSH2 0x1C3 JUMP JUMPDEST SWAP2 POP POP SWAP3 SWAP2 POP POP JUMP JUMPDEST PUSH1 0x0 PUSH8 0xFFFFFFFFFFFFFFFF DUP3 GT ISZERO PUSH2 0x24E JUMPI PUSH2 0x24D PUSH2 0x108 JUMP JUMPDEST JUMPDEST PUSH1 0x20 DUP3 MUL SWAP1 POP PUSH1 0x20 DUP2 ADD SWAP1 POP SWAP2 SWAP1 POP JUMP JUMPDEST PUSH1 0x0 DUP1 REVERT JUMPDEST PUSH1 0x0 DUP2 SWAP1 POP SWAP2 SWAP1 POP JUMP JUMPDEST PUSH2 0x277 DUP2 PUSH2 0x264 JUMP JUMPDEST DUP2 EQ PUSH2 0x282 JUMPI PUSH1 0x0 DUP1 REVERT JUMPDEST POP JUMP JUMPDEST PUSH1 0x0 DUP2 CALLDATALOAD SWAP1 POP PUSH2 0x294 DUP2 PUSH2 0x26E JUMP JUMPDEST SWAP3 SWAP2 POP POP JUMP JUMPDEST PUSH1 0x0 PUSH2 0x2AD PUSH2 0x2A8 DUP5 PUSH2 0x233 JUMP JUMPDEST PUSH2 0x168 JUMP JUMPDEST SWAP1 POP DUP1 DUP4 DUP3 MSTORE PUSH1 0x20 DUP3 ADD SWAP1 POP PUSH1 0x20 DUP5 MUL DUP4 ADD DUP6 DUP2 GT ISZERO PUSH2 0x2D0 JUMPI PUSH2 0x2CF PUSH2 0x25F JUMP JUMPDEST JUMPDEST DUP4 JUMPDEST DUP2 DUP2 LT ISZERO PUSH2 0x2F9 JUMPI DUP1 PUSH2 0x2E5 DUP9 DUP3 PUSH2 0x285 JUMP JUMPDEST DUP5 MSTORE PUSH1 0x20 DUP5 ADD SWAP4 POP POP PUSH1 0x20 DUP2 ADD SWAP1 POP PUSH2 0x2D2 JUMP JUMPDEST POP POP POP SWAP4 SWAP3 POP POP POP JUMP JUMPDEST PUSH1 0x0 DUP3 PUSH1 0x1F DUP4 ADD SLT PUSH2 0x318 JUMPI PUSH2 0x317 PUSH2 0xED JUMP JUMPDEST JUMPDEST DUP2 CALLDATALOAD PUSH2 0x328 DUP5 DUP3 PUSH1 0x20 DUP7 ADD PUSH2 0x29A JUMP JUMPDEST SWAP2 POP POP SWAP3 SWAP2 POP POP JUMP JUMPDEST PUSH1 0x0 DUP1 PUSH1 0x0 PUSH1 0x60 DUP5 DUP7 SUB SLT ISZERO PUSH2 0x34A JUMPI PUSH2 0x349 PUSH2 0xE3 JUMP JUMPDEST JUMPDEST PUSH1 0x0 DUP5 ADD CALLDATALOAD PUSH8 0xFFFFFFFFFFFFFFFF DUP2 GT ISZERO PUSH2 0x368 JUMPI PUSH2 0x367 PUSH2 0xE8 JUMP JUMPDEST JUMPDEST PUSH2 0x374 DUP7 DUP3 DUP8 ADD PUSH2 0x205 JUMP JUMPDEST SWAP4 POP POP PUSH1 0x20 DUP5 ADD CALLDATALOAD PUSH8 0xFFFFFFFFFFFFFFFF DUP2 GT ISZERO PUSH2 0x395 JUMPI PUSH2 0x394 PUSH2 0xE8 JUMP JUMPDEST JUMPDEST PUSH2 0x3A1 DUP7 DUP3 DUP8 ADD PUSH2 0x205 JUMP JUMPDEST SWAP3 POP POP PUSH1 0x40 DUP5 ADD CALLDATALOAD PUSH8 0xFFFFFFFFFFFFFFFF DUP2 GT ISZERO PUSH2 0x3C2 JUMPI PUSH2 0x3C1 PUSH2 0xE8 JUMP JUMPDEST JUMPDEST PUSH2 0x3CE DUP7 DUP3 DUP8 ADD PUSH2 0x303 JUMP JUMPDEST SWAP2 POP POP SWAP3 POP SWAP3 POP SWAP3 JUMP JUMPDEST PUSH1 0x0 DUP3 DUP3 MSTORE PUSH1 0x20 DUP3 ADD SWAP1 POP SWAP3 SWAP2 POP POP JUMP JUMPDEST PUSH32 0x456D707479207175657374696F6E000000000000000000000000000000000000 PUSH1 0x0 DUP3 ADD MSTORE POP JUMP JUMPDEST PUSH1 0x0 PUSH2 0x41F PUSH1 0xE DUP4 PUSH2 0x3D8 JUMP JUMPDEST SWAP2 POP PUSH2 0x42A DUP3 PUSH2 0x3E9 JUMP JUMPDEST PUSH1 0x20 DUP3 ADD SWAP1 POP SWAP2 SWAP1 POP JUMP JUMPDEST PUSH1 0x0 PUSH1 0x20 DUP3 ADD SWAP1 POP DUP2 DUP2 SUB PUSH1 0x0 DUP4 ADD MSTORE PUSH2 0x44E DUP2 PUSH2 0x412 JUMP JUMPDEST SWAP1 POP SWAP2 SWAP1 POP JUMP JUMPDEST PUSH32 0x4174206C656173742032206F7074696F6E732072657175697265640000000000 PUSH1 0x0 DUP3 ADD MSTORE POP JUMP JUMPDEST PUSH1 0x0 PUSH2 0x48B PUSH1 0x1B DUP4 PUSH2 0x3D8 JUMP JUMPDEST SWAP2 POP PUSH2 0x496 DUP3 PUSH2 0x455 JUMP JUMPDEST PUSH1 0x20 DUP3 ADD SWAP1 POP SWAP2 SWAP1 POP JUMP JUMPDEST PUSH1 0x0 PUSH1 0x20 DUP3 ADD SWAP1 POP DUP2 DUP2 SUB PUSH1 0x0 DUP4 ADD MSTORE PUSH2 0x4BA DUP2 PUSH2 0x47E JUMP JUMPDEST SWAP1 POP SWAP2 SWAP1 POP JUMP INVALID LOG2 PUSH5 0x6970667358 0x22 SLT KECCAK256 0xEC 0x4F PUSH29 0x35AE93C1C161A4BB4208C39C15D539CF971759527CB5B54B14B023B2CF PUSH5 0x736F6C6343 STOP ADDMOD LT STOP CALLER "
				},
				"gasEstimates": {
					"creation": {
						"codeDepositCost": "254200",
						"executionCost": "294",
						"totalCost": "254494"
					},
					"external": {
						"createPoll(string,string,bytes32[])": "infinite"
					}
				},
				"methodIdentifiers": {
					"createPoll(string,string,bytes32[])": "7ba91041"
				}
			},
			"storageLayout": {
				"storage": [
					{
						"astId": 28,
						"contract": "poll.sol:PollContract",
						"label": "polls",
						"offset": 0,
						"slot": "0",
						"type": "t_array(t_struct(Poll)14_storage)dyn_storage"
					},
					{
						"astId": 33,
						"contract": "poll.sol:PollContract",
						"label": "voters",
						"offset": 0,
						"slot": "1",
						"type": "t_mapping(t_address,t_struct(Voter)24_storage)"
					}
				],
				"types": {
					"t_address": {
						"encoding": "inplace",
						"label": "address",
						"numberOfBytes": "20"
					},
					"t_array(t_bytes32)dyn_storage": {
						"base": "t_bytes32",
						"encoding": "dynamic_array",
						"label": "bytes32[]",
						"numberOfBytes": "32"
					},
					"t_array(t_struct(Poll)14_storage)dyn_storage": {
						"base": "t_struct(Poll)14_storage",
						"encoding": "dynamic_array",
						"label": "struct PollContract.Poll[]",
						"numberOfBytes": "32"
					},
					"t_array(t_uint256)dyn_storage": {
						"base": "t_uint256",
						"encoding": "dynamic_array",
						"label": "uint256[]",
						"numberOfBytes": "32"
					},
					"t_array(t_uint64)dyn_storage": {
						"base": "t_uint64",
						"encoding": "dynamic_array",
						"label": "uint64[]",
						"numberOfBytes": "32"
					},
					"t_bool": {
						"encoding": "inplace",
						"label": "bool",
						"numberOfBytes": "1"
					},
					"t_bytes32": {
						"encoding": "inplace",
						"label": "bytes32",
						"numberOfBytes": "32"
					},
					"t_mapping(t_address,t_struct(Voter)24_storage)": {
						"encoding": "mapping",
						"key": "t_address",
						"label": "mapping(address => struct PollContract.Voter)",
						"numberOfBytes": "32",
						"value": "t_struct(Voter)24_storage"
					},
					"t_mapping(t_uint256,t_bool)": {
						"encoding": "mapping",
						"key": "t_uint256",
						"label": "mapping(uint256 => bool)",
						"numberOfBytes": "32",
						"value": "t_bool"
					},
					"t_string_storage": {
						"encoding": "bytes",
						"label": "string",
						"numberOfBytes": "32"
					},
					"t_struct(Poll)14_storage": {
						"encoding": "inplace",
						"label": "struct PollContract.Poll",
						"members": [
							{
								"astId": 3,
								"contract": "poll.sol:PollContract",
								"label": "id",
								"offset": 0,
								"slot": "0",
								"type": "t_uint256"
							},
							{
								"astId": 5,
								"contract": "poll.sol:PollContract",
								"label": "question",
								"offset": 0,
								"slot": "1",
								"type": "t_string_storage"
							},
							{
								"astId": 7,
								"contract": "poll.sol:PollContract",
								"label": "thumbnail",
								"offset": 0,
								"slot": "2",
								"type": "t_string_storage"
							},
							{
								"astId": 10,
								"contract": "poll.sol:PollContract",
								"label": "votes",
								"offset": 0,
								"slot": "3",
								"type": "t_array(t_uint64)dyn_storage"
							},
							{
								"astId": 13,
								"contract": "poll.sol:PollContract",
								"label": "options",
								"offset": 0,
								"slot": "4",
								"type": "t_array(t_bytes32)dyn_storage"
							}
						],
						"numberOfBytes": "160"
					},
					"t_struct(Voter)24_storage": {
						"encoding": "inplace",
						"label": "struct PollContract.Voter",
						"members": [
							{
								"astId": 16,
								"contract": "poll.sol:PollContract",
								"label": "id",
								"offset": 0,
								"slot": "0",
								"type": "t_address"
							},
							{
								"astId": 19,
								"contract": "poll.sol:PollContract",
								"label": "votedIds",
								"offset": 0,
								"slot": "1",
								"type": "t_array(t_uint256)dyn_storage"
							},
							{
								"astId": 23,
								"contract": "poll.sol:PollContract",
								"label": "votedMap",
								"offset": 0,
								"slot": "2",
								"type": "t_mapping(t_uint256,t_bool)"
							}
						],
						"numberOfBytes": "96"
					},
					"t_uint256": {
						"encoding": "inplace",
						"label": "uint256",
						"numberOfBytes": "32"
					},
					"t_uint64": {
						"encoding": "inplace",
						"label": "uint64",
						"numberOfBytes": "8"
					}
				}
			},
			"userdoc": {
				"kind": "user",
				"methods": {},
				"version": 1
			}
		}
	}
}