{
	"poll.sol": {
		"PollContract": {
			"abi": [
				{
					"inputs": [
						{
							"internalType": "string",
							"name": "_question",
							"type": "string"
						},
						{
							"internalType": "string",
							"name": "_thumb",
							"type": "string"
						},
						{
							"internalType": "bytes32[]",
							"name": "_options",
							"type": "bytes32[]"
						}
					],
					"name": "createPoll",
					"outputs": [],
					"stateMutability": "nonpayable",
					"type": "function"
				},
				{
					"inputs": [
						{
							"internalType": "uint64",
							"name": "_pollId",
							"type": "uint64"
						}
					],
					"name": "getPoll",
					"outputs": [
						{
							"internalType": "uint256",
							"name": "",
							"type": "uint256"
						},
						{
							"internalType": "string",
							"name": "",
							"type": "string"
						},
						{
							"internalType": "string",
							"name": "",
							"type": "string"
						},
						{
							"internalType": "uint64[]",
							"name": "",
							"type": "uint64[]"
						},
						{
							"internalType": "bytes32[]",
							"name": "",
							"type": "bytes32[]"
						}
					],
					"stateMutability": "view",
					"type": "function"
				},
				{
					"inputs": [
						{
							"internalType": "address",
							"name": "_id",
							"type": "address"
						}
					],
					"name": "getVoter",
					"outputs": [
						{
							"internalType": "address",
							"name": "",
							"type": "address"
						},
						{
							"internalType": "uint256[]",
							"name": "",
							"type": "uint256[]"
						}
					],
					"stateMutability": "view",
					"type": "function"
				},
				{
					"inputs": [
						{
							"internalType": "uint64",
							"name": "_pollId",
							"type": "uint64"
						},
						{
							"internalType": "uint64",
							"name": "_vote",
							"type": "uint64"
						}
					],
					"name": "vote",
					"outputs": [],
					"stateMutability": "nonpayable",
					"type": "function"
				}
			],
			"devdoc": {
				"kind": "dev",
				"methods": {},
				"version": 1
			},
			"evm": {
				"assembly": "    /* \"poll.sol\":26:2000  contract PollContract {... */\n  mstore(0x40, 0x80)\n  callvalue\n  dup1\n  iszero\n  tag_1\n  jumpi\n  0x00\n  dup1\n  revert\ntag_1:\n  pop\n  dataSize(sub_0)\n  dup1\n  dataOffset(sub_0)\n  0x00\n  codecopy\n  0x00\n  return\nstop\n\nsub_0: assembly {\n        /* \"poll.sol\":26:2000  contract PollContract {... */\n      mstore(0x40, 0x80)\n      callvalue\n      dup1\n      iszero\n      tag_1\n      jumpi\n      0x00\n      dup1\n      revert\n    tag_1:\n      pop\n      jumpi(tag_2, lt(calldatasize, 0x04))\n      shr(0xe0, calldataload(0x00))\n      dup1\n      0x157bd75d\n      eq\n      tag_3\n      jumpi\n      dup1\n      0x3d51e9d9\n      eq\n      tag_4\n      jumpi\n      dup1\n      0x7ba91041\n      eq\n      tag_5\n      jumpi\n      dup1\n      0xd4f50f98\n      eq\n      tag_6\n      jumpi\n    tag_2:\n      0x00\n      dup1\n      revert\n        /* \"poll.sol\":1063:1423  function getPoll(uint64 _pollId) external view  pollExists(_pollId) returns(uint256, string memory, string memory, uint64[] memory, bytes32[] memory) {... */\n    tag_3:\n      tag_7\n      0x04\n      dup1\n      calldatasize\n      sub\n      dup2\n      add\n      swap1\n      tag_8\n      swap2\n      swap1\n      tag_9\n      jump\t// in\n    tag_8:\n      tag_10\n      jump\t// in\n    tag_7:\n      mload(0x40)\n      tag_11\n      swap6\n      swap5\n      swap4\n      swap3\n      swap2\n      swap1\n      tag_12\n      jump\t// in\n    tag_11:\n      mload(0x40)\n      dup1\n      swap2\n      sub\n      swap1\n      return\n        /* \"poll.sol\":1429:1815  function vote(uint64 _pollId, uint64 _vote) external pollExists(_pollId) {... */\n    tag_4:\n      tag_13\n      0x04\n      dup1\n      calldatasize\n      sub\n      dup2\n      add\n      swap1\n      tag_14\n      swap2\n      swap1\n      tag_15\n      jump\t// in\n    tag_14:\n      tag_16\n      jump\t// in\n    tag_13:\n      stop\n        /* \"poll.sol\":527:1057  function createPoll(string memory _question, string memory _thumb, bytes32[] memory _options) public  {... */\n    tag_5:\n      tag_17\n      0x04\n      dup1\n      calldatasize\n      sub\n      dup2\n      add\n      swap1\n      tag_18\n      swap2\n      swap1\n      tag_19\n      jump\t// in\n    tag_18:\n      tag_20\n      jump\t// in\n    tag_17:\n      stop\n        /* \"poll.sol\":1821:1997  function getVoter(address _id) external view returns(address, uint256[] memory) {... */\n    tag_6:\n      tag_21\n      0x04\n      dup1\n      calldatasize\n      sub\n      dup2\n      add\n      swap1\n      tag_22\n      swap2\n      swap1\n      tag_23\n      jump\t// in\n    tag_22:\n      tag_24\n      jump\t// in\n    tag_21:\n      mload(0x40)\n      tag_25\n      swap3\n      swap2\n      swap1\n      tag_26\n      jump\t// in\n    tag_25:\n      mload(0x40)\n      dup1\n      swap2\n      sub\n      swap1\n      return\n        /* \"poll.sol\":1063:1423  function getPoll(uint64 _pollId) external view  pollExists(_pollId) returns(uint256, string memory, string memory, uint64[] memory, bytes32[] memory) {... */\n    tag_10:\n        /* \"poll.sol\":1139:1146  uint256 */\n      0x00\n        /* \"poll.sol\":1148:1161  string memory */\n      0x60\n        /* \"poll.sol\":1163:1176  string memory */\n      dup1\n        /* \"poll.sol\":1178:1193  uint64[] memory */\n      0x60\n        /* \"poll.sol\":1195:1211  bytes32[] memory */\n      dup1\n        /* \"poll.sol\":1122:1129  _pollId */\n      dup6\n        /* \"poll.sol\":457:462  polls */\n      0x00\n        /* \"poll.sol\":457:469  polls.length */\n      dup1\n      sload\n      swap1\n      pop\n        /* \"poll.sol\":447:454  _pollId */\n      dup2\n        /* \"poll.sol\":447:469  _pollId < polls.length */\n      0xffffffffffffffff\n      and\n      lt\n        /* \"poll.sol\":447:485  _pollId < polls.length && _pollId >= 0 */\n      dup1\n      iszero\n      tag_28\n      jumpi\n      pop\n        /* \"poll.sol\":484:485  0 */\n      0x00\n        /* \"poll.sol\":473:480  _pollId */\n      dup2\n        /* \"poll.sol\":473:485  _pollId >= 0 */\n      0xffffffffffffffff\n      and\n      lt\n      iszero\n        /* \"poll.sol\":447:485  _pollId < polls.length && _pollId >= 0 */\n    tag_28:\n        /* \"poll.sol\":439:503  require(_pollId < polls.length && _pollId >= 0, \"No poll found\") */\n      tag_29\n      jumpi\n      mload(0x40)\n      0x08c379a000000000000000000000000000000000000000000000000000000000\n      dup2\n      mstore\n      0x04\n      add\n      tag_30\n      swap1\n      tag_31\n      jump\t// in\n    tag_30:\n      mload(0x40)\n      dup1\n      swap2\n      sub\n      swap1\n      revert\n    tag_29:\n        /* \"poll.sol\":1244:1249  polls */\n      0x00\n        /* \"poll.sol\":1250:1257  _pollId */\n      dup8\n        /* \"poll.sol\":1244:1258  polls[_pollId] */\n      0xffffffffffffffff\n      and\n      dup2\n      sload\n      dup2\n      lt\n      tag_33\n      jumpi\n      tag_34\n      tag_35\n      jump\t// in\n    tag_34:\n    tag_33:\n      swap1\n      0x00\n      mstore\n      keccak256(0x00, 0x20)\n      swap1\n      0x05\n      mul\n      add\n        /* \"poll.sol\":1244:1261  polls[_pollId].id */\n      0x00\n      add\n      sload\n        /* \"poll.sol\":1275:1280  polls */\n      0x00\n        /* \"poll.sol\":1281:1288  _pollId */\n      dup9\n        /* \"poll.sol\":1275:1289  polls[_pollId] */\n      0xffffffffffffffff\n      and\n      dup2\n      sload\n      dup2\n      lt\n      tag_37\n      jumpi\n      tag_38\n      tag_35\n      jump\t// in\n    tag_38:\n    tag_37:\n      swap1\n      0x00\n      mstore\n      keccak256(0x00, 0x20)\n      swap1\n      0x05\n      mul\n      add\n        /* \"poll.sol\":1275:1298  polls[_pollId].question */\n      0x01\n      add\n        /* \"poll.sol\":1312:1317  polls */\n      0x00\n        /* \"poll.sol\":1318:1325  _pollId */\n      dup10\n        /* \"poll.sol\":1312:1326  polls[_pollId] */\n      0xffffffffffffffff\n      and\n      dup2\n      sload\n      dup2\n      lt\n      tag_40\n      jumpi\n      tag_41\n      tag_35\n      jump\t// in\n    tag_41:\n    tag_40:\n      swap1\n      0x00\n      mstore\n      keccak256(0x00, 0x20)\n      swap1\n      0x05\n      mul\n      add\n        /* \"poll.sol\":1312:1336  polls[_pollId].thumbnail */\n      0x02\n      add\n        /* \"poll.sol\":1350:1355  polls */\n      0x00\n        /* \"poll.sol\":1356:1363  _pollId */\n      dup11\n        /* \"poll.sol\":1350:1364  polls[_pollId] */\n      0xffffffffffffffff\n      and\n      dup2\n      sload\n      dup2\n      lt\n      tag_43\n      jumpi\n      tag_44\n      tag_35\n      jump\t// in\n    tag_44:\n    tag_43:\n      swap1\n      0x00\n      mstore\n      keccak256(0x00, 0x20)\n      swap1\n      0x05\n      mul\n      add\n        /* \"poll.sol\":1350:1370  polls[_pollId].votes */\n      0x03\n      add\n        /* \"poll.sol\":1384:1389  polls */\n      0x00\n        /* \"poll.sol\":1390:1397  _pollId */\n      dup12\n        /* \"poll.sol\":1384:1398  polls[_pollId] */\n      0xffffffffffffffff\n      and\n      dup2\n      sload\n      dup2\n      lt\n      tag_46\n      jumpi\n      tag_47\n      tag_35\n      jump\t// in\n    tag_47:\n    tag_46:\n      swap1\n      0x00\n      mstore\n      keccak256(0x00, 0x20)\n      swap1\n      0x05\n      mul\n      add\n        /* \"poll.sol\":1384:1406  polls[_pollId].options */\n      0x04\n      add\n        /* \"poll.sol\":1223:1416  return (... */\n      dup4\n      dup1\n      sload\n      tag_49\n      swap1\n      tag_50\n      jump\t// in\n    tag_49:\n      dup1\n      0x1f\n      add\n      0x20\n      dup1\n      swap2\n      div\n      mul\n      0x20\n      add\n      mload(0x40)\n      swap1\n      dup2\n      add\n      0x40\n      mstore\n      dup1\n      swap3\n      swap2\n      swap1\n      dup2\n      dup2\n      mstore\n      0x20\n      add\n      dup3\n      dup1\n      sload\n      tag_51\n      swap1\n      tag_50\n      jump\t// in\n    tag_51:\n      dup1\n      iszero\n      tag_52\n      jumpi\n      dup1\n      0x1f\n      lt\n      tag_53\n      jumpi\n      0x0100\n      dup1\n      dup4\n      sload\n      div\n      mul\n      dup4\n      mstore\n      swap2\n      0x20\n      add\n      swap2\n      jump(tag_52)\n    tag_53:\n      dup3\n      add\n      swap2\n      swap1\n      0x00\n      mstore\n      keccak256(0x00, 0x20)\n      swap1\n    tag_54:\n      dup2\n      sload\n      dup2\n      mstore\n      swap1\n      0x01\n      add\n      swap1\n      0x20\n      add\n      dup1\n      dup4\n      gt\n      tag_54\n      jumpi\n      dup3\n      swap1\n      sub\n      0x1f\n      and\n      dup3\n      add\n      swap2\n    tag_52:\n      pop\n      pop\n      pop\n      pop\n      pop\n      swap4\n      pop\n      dup3\n      dup1\n      sload\n      tag_55\n      swap1\n      tag_50\n      jump\t// in\n    tag_55:\n      dup1\n      0x1f\n      add\n      0x20\n      dup1\n      swap2\n      div\n      mul\n      0x20\n      add\n      mload(0x40)\n      swap1\n      dup2\n      add\n      0x40\n      mstore\n      dup1\n      swap3\n      swap2\n      swap1\n      dup2\n      dup2\n      mstore\n      0x20\n      add\n      dup3\n      dup1\n      sload\n      tag_56\n      swap1\n      tag_50\n      jump\t// in\n    tag_56:\n      dup1\n      iszero\n      tag_57\n      jumpi\n      dup1\n      0x1f\n      lt\n      tag_58\n      jumpi\n      0x0100\n      dup1\n      dup4\n      sload\n      div\n      mul\n      dup4\n      mstore\n      swap2\n      0x20\n      add\n      swap2\n      jump(tag_57)\n    tag_58:\n      dup3\n      add\n      swap2\n      swap1\n      0x00\n      mstore\n      keccak256(0x00, 0x20)\n      swap1\n    tag_59:\n      dup2\n      sload\n      dup2\n      mstore\n      swap1\n      0x01\n      add\n      swap1\n      0x20\n      add\n      dup1\n      dup4\n      gt\n      tag_59\n      jumpi\n      dup3\n      swap1\n      sub\n      0x1f\n      and\n      dup3\n      add\n      swap2\n    tag_57:\n      pop\n      pop\n      pop\n      pop\n      pop\n      swap3\n      pop\n      dup2\n      dup1\n      sload\n      dup1\n      0x20\n      mul\n      0x20\n      add\n      mload(0x40)\n      swap1\n      dup2\n      add\n      0x40\n      mstore\n      dup1\n      swap3\n      swap2\n      swap1\n      dup2\n      dup2\n      mstore\n      0x20\n      add\n      dup3\n      dup1\n      sload\n      dup1\n      iszero\n      tag_60\n      jumpi\n      0x20\n      mul\n      dup3\n      add\n      swap2\n      swap1\n      0x00\n      mstore\n      keccak256(0x00, 0x20)\n      swap1\n      0x00\n      swap1\n    tag_61:\n      dup3\n      dup3\n      swap1\n      sload\n      swap1\n      0x0100\n      exp\n      swap1\n      div\n      0xffffffffffffffff\n      and\n      0xffffffffffffffff\n      and\n      dup2\n      mstore\n      0x20\n      add\n      swap1\n      0x08\n      add\n      swap1\n      0x20\n      dup3\n      0x07\n      add\n      div\n      swap3\n      dup4\n      add\n      swap3\n      0x01\n      sub\n      dup3\n      mul\n      swap2\n      pop\n      dup1\n      dup5\n      gt\n      tag_61\n      jumpi\n      swap1\n      pop\n    tag_60:\n      pop\n      pop\n      pop\n      pop\n      pop\n      swap2\n      pop\n      dup1\n      dup1\n      sload\n      dup1\n      0x20\n      mul\n      0x20\n      add\n      mload(0x40)\n      swap1\n      dup2\n      add\n      0x40\n      mstore\n      dup1\n      swap3\n      swap2\n      swap1\n      dup2\n      dup2\n      mstore\n      0x20\n      add\n      dup3\n      dup1\n      sload\n      dup1\n      iszero\n      tag_62\n      jumpi\n      0x20\n      mul\n      dup3\n      add\n      swap2\n      swap1\n      0x00\n      mstore\n      keccak256(0x00, 0x20)\n      swap1\n    tag_63:\n      dup2\n      sload\n      dup2\n      mstore\n      0x20\n      add\n      swap1\n      0x01\n      add\n      swap1\n      dup1\n      dup4\n      gt\n      tag_63\n      jumpi\n    tag_62:\n      pop\n      pop\n      pop\n      pop\n      pop\n      swap1\n      pop\n      swap6\n      pop\n      swap6\n      pop\n      swap6\n      pop\n      swap6\n      pop\n      swap6\n      pop\n        /* \"poll.sol\":1063:1423  function getPoll(uint64 _pollId) external view  pollExists(_pollId) returns(uint256, string memory, string memory, uint64[] memory, bytes32[] memory) {... */\n      pop\n      swap2\n      swap4\n      swap6\n      swap1\n      swap3\n      swap5\n      pop\n      jump\t// out\n        /* \"poll.sol\":1429:1815  function vote(uint64 _pollId, uint64 _vote) external pollExists(_pollId) {... */\n    tag_16:\n        /* \"poll.sol\":1493:1500  _pollId */\n      dup2\n        /* \"poll.sol\":457:462  polls */\n      0x00\n        /* \"poll.sol\":457:469  polls.length */\n      dup1\n      sload\n      swap1\n      pop\n        /* \"poll.sol\":447:454  _pollId */\n      dup2\n        /* \"poll.sol\":447:469  _pollId < polls.length */\n      0xffffffffffffffff\n      and\n      lt\n        /* \"poll.sol\":447:485  _pollId < polls.length && _pollId >= 0 */\n      dup1\n      iszero\n      tag_65\n      jumpi\n      pop\n        /* \"poll.sol\":484:485  0 */\n      0x00\n        /* \"poll.sol\":473:480  _pollId */\n      dup2\n        /* \"poll.sol\":473:485  _pollId >= 0 */\n      0xffffffffffffffff\n      and\n      lt\n      iszero\n        /* \"poll.sol\":447:485  _pollId < polls.length && _pollId >= 0 */\n    tag_65:\n        /* \"poll.sol\":439:503  require(_pollId < polls.length && _pollId >= 0, \"No poll found\") */\n      tag_66\n      jumpi\n      mload(0x40)\n      0x08c379a000000000000000000000000000000000000000000000000000000000\n      dup2\n      mstore\n      0x04\n      add\n      tag_67\n      swap1\n      tag_31\n      jump\t// in\n    tag_67:\n      mload(0x40)\n      dup1\n      swap2\n      sub\n      swap1\n      revert\n    tag_66:\n        /* \"poll.sol\":1528:1533  polls */\n      0x00\n        /* \"poll.sol\":1534:1541  _pollId */\n      dup4\n        /* \"poll.sol\":1528:1542  polls[_pollId] */\n      0xffffffffffffffff\n      and\n      dup2\n      sload\n      dup2\n      lt\n      tag_69\n      jumpi\n      tag_70\n      tag_35\n      jump\t// in\n    tag_70:\n    tag_69:\n      swap1\n      0x00\n      mstore\n      keccak256(0x00, 0x20)\n      swap1\n      0x05\n      mul\n      add\n        /* \"poll.sol\":1528:1550  polls[_pollId].options */\n      0x04\n      add\n        /* \"poll.sol\":1528:1557  polls[_pollId].options.length */\n      dup1\n      sload\n      swap1\n      pop\n        /* \"poll.sol\":1520:1525  _vote */\n      dup3\n        /* \"poll.sol\":1520:1557  _vote < polls[_pollId].options.length */\n      0xffffffffffffffff\n      and\n      lt\n        /* \"poll.sol\":1512:1574  require(_vote < polls[_pollId].options.length, \"Invalid vote\") */\n      tag_72\n      jumpi\n      mload(0x40)\n      0x08c379a000000000000000000000000000000000000000000000000000000000\n      dup2\n      mstore\n      0x04\n      add\n      tag_73\n      swap1\n      tag_74\n      jump\t// in\n    tag_73:\n      mload(0x40)\n      dup1\n      swap2\n      sub\n      swap1\n      revert\n    tag_72:\n        /* \"poll.sol\":1632:1637  false */\n      0x00\n        /* \"poll.sol\":1592:1637  voters[msg.sender].votedMap[_pollId] == false */\n      iszero\n      iszero\n        /* \"poll.sol\":1592:1598  voters */\n      0x01\n        /* \"poll.sol\":1592:1610  voters[msg.sender] */\n      0x00\n        /* \"poll.sol\":1599:1609  msg.sender */\n      caller\n        /* \"poll.sol\":1592:1610  voters[msg.sender] */\n      0xffffffffffffffffffffffffffffffffffffffff\n      and\n      0xffffffffffffffffffffffffffffffffffffffff\n      and\n      dup2\n      mstore\n      0x20\n      add\n      swap1\n      dup2\n      mstore\n      0x20\n      add\n      0x00\n      keccak256\n        /* \"poll.sol\":1592:1619  voters[msg.sender].votedMap */\n      0x02\n      add\n        /* \"poll.sol\":1592:1628  voters[msg.sender].votedMap[_pollId] */\n      0x00\n        /* \"poll.sol\":1620:1627  _pollId */\n      dup6\n        /* \"poll.sol\":1592:1628  voters[msg.sender].votedMap[_pollId] */\n      0xffffffffffffffff\n      and\n      dup2\n      mstore\n      0x20\n      add\n      swap1\n      dup2\n      mstore\n      0x20\n      add\n      0x00\n      keccak256\n      0x00\n      swap1\n      sload\n      swap1\n      0x0100\n      exp\n      swap1\n      div\n      0xff\n      and\n        /* \"poll.sol\":1592:1637  voters[msg.sender].votedMap[_pollId] == false */\n      iszero\n      iszero\n      eq\n        /* \"poll.sol\":1584:1659  require(voters[msg.sender].votedMap[_pollId] == false, \"You already voted\") */\n      tag_75\n      jumpi\n      mload(0x40)\n      0x08c379a000000000000000000000000000000000000000000000000000000000\n      dup2\n      mstore\n      0x04\n      add\n      tag_76\n      swap1\n      tag_77\n      jump\t// in\n    tag_76:\n      mload(0x40)\n      dup1\n      swap2\n      sub\n      swap1\n      revert\n    tag_75:\n        /* \"poll.sol\":1701:1702  1 */\n      0x01\n        /* \"poll.sol\":1670:1675  polls */\n      0x00\n        /* \"poll.sol\":1676:1683  _pollId */\n      dup5\n        /* \"poll.sol\":1670:1684  polls[_pollId] */\n      0xffffffffffffffff\n      and\n      dup2\n      sload\n      dup2\n      lt\n      tag_78\n      jumpi\n      tag_79\n      tag_35\n      jump\t// in\n    tag_79:\n    tag_78:\n      swap1\n      0x00\n      mstore\n      keccak256(0x00, 0x20)\n      swap1\n      0x05\n      mul\n      add\n        /* \"poll.sol\":1670:1690  polls[_pollId].votes */\n      0x03\n      add\n        /* \"poll.sol\":1691:1696  _vote */\n      dup4\n        /* \"poll.sol\":1670:1697  polls[_pollId].votes[_vote] */\n      0xffffffffffffffff\n      and\n      dup2\n      sload\n      dup2\n      lt\n      tag_81\n      jumpi\n      tag_82\n      tag_35\n      jump\t// in\n    tag_82:\n    tag_81:\n      swap1\n      0x00\n      mstore\n      keccak256(0x00, 0x20)\n      swap1\n      0x04\n      swap2\n      dup3\n      dup3\n      div\n      add\n      swap2\n      swap1\n      mod\n      0x08\n      mul\n        /* \"poll.sol\":1670:1702  polls[_pollId].votes[_vote] += 1 */\n      dup3\n      dup3\n      dup3\n      swap1\n      sload\n      swap1\n      0x0100\n      exp\n      swap1\n      div\n      0xffffffffffffffff\n      and\n      tag_84\n      swap2\n      swap1\n      tag_85\n      jump\t// in\n    tag_84:\n      swap3\n      pop\n      0x0100\n      exp\n      dup2\n      sload\n      dup2\n      0xffffffffffffffff\n      mul\n      not\n      and\n      swap1\n      dup4\n      0xffffffffffffffff\n      and\n      mul\n      or\n      swap1\n      sstore\n      pop\n        /* \"poll.sol\":1714:1720  voters */\n      0x01\n        /* \"poll.sol\":1714:1732  voters[msg.sender] */\n      0x00\n        /* \"poll.sol\":1721:1731  msg.sender */\n      caller\n        /* \"poll.sol\":1714:1732  voters[msg.sender] */\n      0xffffffffffffffffffffffffffffffffffffffff\n      and\n      0xffffffffffffffffffffffffffffffffffffffff\n      and\n      dup2\n      mstore\n      0x20\n      add\n      swap1\n      dup2\n      mstore\n      0x20\n      add\n      0x00\n      keccak256\n        /* \"poll.sol\":1714:1741  voters[msg.sender].votedIds */\n      0x01\n      add\n        /* \"poll.sol\":1747:1754  _pollId */\n      dup4\n        /* \"poll.sol\":1714:1755  voters[msg.sender].votedIds.push(_pollId) */\n      swap1\n      dup1\n      0x01\n      dup2\n      sload\n      add\n      dup1\n      dup3\n      sstore\n      dup1\n      swap2\n      pop\n      pop\n      0x01\n      swap1\n      sub\n      swap1\n      0x00\n      mstore\n      keccak256(0x00, 0x20)\n      add\n      0x00\n      swap1\n      swap2\n      0xffffffffffffffff\n      and\n      swap1\n      swap2\n      swap1\n      swap2\n      pop\n      sstore\n        /* \"poll.sol\":1804:1808  true */\n      0x01\n        /* \"poll.sol\":1765:1771  voters */\n      dup1\n        /* \"poll.sol\":1765:1783  voters[msg.sender] */\n      0x00\n        /* \"poll.sol\":1772:1782  msg.sender */\n      caller\n        /* \"poll.sol\":1765:1783  voters[msg.sender] */\n      0xffffffffffffffffffffffffffffffffffffffff\n      and\n      0xffffffffffffffffffffffffffffffffffffffff\n      and\n      dup2\n      mstore\n      0x20\n      add\n      swap1\n      dup2\n      mstore\n      0x20\n      add\n      0x00\n      keccak256\n        /* \"poll.sol\":1765:1792  voters[msg.sender].votedMap */\n      0x02\n      add\n        /* \"poll.sol\":1765:1801  voters[msg.sender].votedMap[_pollId] */\n      0x00\n        /* \"poll.sol\":1793:1800  _pollId */\n      dup6\n        /* \"poll.sol\":1765:1801  voters[msg.sender].votedMap[_pollId] */\n      0xffffffffffffffff\n      and\n      dup2\n      mstore\n      0x20\n      add\n      swap1\n      dup2\n      mstore\n      0x20\n      add\n      0x00\n      keccak256\n      0x00\n        /* \"poll.sol\":1765:1808  voters[msg.sender].votedMap[_pollId] = true */\n      0x0100\n      exp\n      dup2\n      sload\n      dup2\n      0xff\n      mul\n      not\n      and\n      swap1\n      dup4\n      iszero\n      iszero\n      mul\n      or\n      swap1\n      sstore\n      pop\n        /* \"poll.sol\":1429:1815  function vote(uint64 _pollId, uint64 _vote) external pollExists(_pollId) {... */\n      pop\n      pop\n      pop\n      jump\t// out\n        /* \"poll.sol\":527:1057  function createPoll(string memory _question, string memory _thumb, bytes32[] memory _options) public  {... */\n    tag_20:\n        /* \"poll.sol\":673:674  0 */\n      0x00\n        /* \"poll.sol\":653:662  _question */\n      dup4\n        /* \"poll.sol\":647:670  bytes(_question).length */\n      mload\n        /* \"poll.sol\":647:674  bytes(_question).length > 0 */\n      gt\n        /* \"poll.sol\":639:693  require(bytes(_question).length > 0, \"Empty question\") */\n      tag_88\n      jumpi\n      mload(0x40)\n      0x08c379a000000000000000000000000000000000000000000000000000000000\n      dup2\n      mstore\n      0x04\n      add\n      tag_89\n      swap1\n      tag_90\n      jump\t// in\n    tag_89:\n      mload(0x40)\n      dup1\n      swap2\n      sub\n      swap1\n      revert\n    tag_88:\n        /* \"poll.sol\":729:730  1 */\n      0x01\n        /* \"poll.sol\":711:719  _options */\n      dup2\n        /* \"poll.sol\":711:726  _options.length */\n      mload\n        /* \"poll.sol\":711:730  _options.length > 1 */\n      gt\n        /* \"poll.sol\":703:762  require(_options.length > 1, \"At least 2 options required\") */\n      tag_91\n      jumpi\n      mload(0x40)\n      0x08c379a000000000000000000000000000000000000000000000000000000000\n      dup2\n      mstore\n      0x04\n      add\n      tag_92\n      swap1\n      tag_93\n      jump\t// in\n    tag_92:\n      mload(0x40)\n      dup1\n      swap2\n      sub\n      swap1\n      revert\n    tag_91:\n        /* \"poll.sol\":773:787  uint256 pollId */\n      0x00\n        /* \"poll.sol\":790:795  polls */\n      dup1\n        /* \"poll.sol\":790:802  polls.length */\n      dup1\n      sload\n      swap1\n      pop\n        /* \"poll.sol\":773:802  uint256 pollId = polls.length */\n      swap1\n      pop\n        /* \"poll.sol\":813:832  Poll memory newPoll */\n      0x00\n        /* \"poll.sol\":835:1020  Poll({... */\n      mload(0x40)\n      dup1\n      0xa0\n      add\n      0x40\n      mstore\n      dup1\n        /* \"poll.sol\":858:864  pollId */\n      dup4\n        /* \"poll.sol\":835:1020  Poll({... */\n      dup2\n      mstore\n      0x20\n      add\n        /* \"poll.sol\":888:897  _question */\n      dup7\n        /* \"poll.sol\":835:1020  Poll({... */\n      dup2\n      mstore\n      0x20\n      add\n        /* \"poll.sol\":922:928  _thumb */\n      dup6\n        /* \"poll.sol\":835:1020  Poll({... */\n      dup2\n      mstore\n      0x20\n      add\n        /* \"poll.sol\":993:1001  _options */\n      dup5\n        /* \"poll.sol\":993:1008  _options.length */\n      mload\n        /* \"poll.sol\":980:1009  new uint64[](_options.length) */\n      0xffffffffffffffff\n      dup2\n      gt\n      iszero\n      tag_94\n      jumpi\n      tag_95\n      tag_96\n      jump\t// in\n    tag_95:\n    tag_94:\n      mload(0x40)\n      swap1\n      dup1\n      dup3\n      mstore\n      dup1\n      0x20\n      mul\n      0x20\n      add\n      dup3\n      add\n      0x40\n      mstore\n      dup1\n      iszero\n      tag_97\n      jumpi\n      dup2\n      0x20\n      add\n      0x20\n      dup3\n      mul\n      dup1\n      calldatasize\n      dup4\n      calldatacopy\n      dup1\n      dup3\n      add\n      swap2\n      pop\n      pop\n      swap1\n      pop\n    tag_97:\n      pop\n        /* \"poll.sol\":835:1020  Poll({... */\n      dup2\n      mstore\n      0x20\n      add\n        /* \"poll.sol\":951:959  _options */\n      dup5\n        /* \"poll.sol\":835:1020  Poll({... */\n      dup2\n      mstore\n      pop\n        /* \"poll.sol\":813:1020  Poll memory newPoll = Poll({... */\n      swap1\n      pop\n        /* \"poll.sol\":1031:1036  polls */\n      0x00\n        /* \"poll.sol\":1042:1049  newPoll */\n      dup2\n        /* \"poll.sol\":1031:1050  polls.push(newPoll) */\n      swap1\n      dup1\n      0x01\n      dup2\n      sload\n      add\n      dup1\n      dup3\n      sstore\n      dup1\n      swap2\n      pop\n      pop\n      0x01\n      swap1\n      sub\n      swap1\n      0x00\n      mstore\n      keccak256(0x00, 0x20)\n      swap1\n      0x05\n      mul\n      add\n      0x00\n      swap1\n      swap2\n      swap1\n      swap2\n      swap1\n      swap2\n      pop\n      0x00\n      dup3\n      add\n      mload\n      dup2\n      0x00\n      add\n      sstore\n      0x20\n      dup3\n      add\n      mload\n      dup2\n      0x01\n      add\n      swap1\n      dup2\n      tag_99\n      swap2\n      swap1\n      tag_100\n      jump\t// in\n    tag_99:\n      pop\n      0x40\n      dup3\n      add\n      mload\n      dup2\n      0x02\n      add\n      swap1\n      dup2\n      tag_101\n      swap2\n      swap1\n      tag_100\n      jump\t// in\n    tag_101:\n      pop\n      0x60\n      dup3\n      add\n      mload\n      dup2\n      0x03\n      add\n      swap1\n      dup1\n      mload\n      swap1\n      0x20\n      add\n      swap1\n      tag_102\n      swap3\n      swap2\n      swap1\n      tag_103\n      jump\t// in\n    tag_102:\n      pop\n      0x80\n      dup3\n      add\n      mload\n      dup2\n      0x04\n      add\n      swap1\n      dup1\n      mload\n      swap1\n      0x20\n      add\n      swap1\n      tag_104\n      swap3\n      swap2\n      swap1\n      tag_105\n      jump\t// in\n    tag_104:\n      pop\n      pop\n      pop\n        /* \"poll.sol\":629:1057  {... */\n      pop\n      pop\n        /* \"poll.sol\":527:1057  function createPoll(string memory _question, string memory _thumb, bytes32[] memory _options) public  {... */\n      pop\n      pop\n      pop\n      jump\t// out\n        /* \"poll.sol\":1821:1997  function getVoter(address _id) external view returns(address, uint256[] memory) {... */\n    tag_24:\n        /* \"poll.sol\":1874:1881  address */\n      0x00\n        /* \"poll.sol\":1883:1899  uint256[] memory */\n      0x60\n        /* \"poll.sol\":1932:1938  voters */\n      0x01\n        /* \"poll.sol\":1932:1943  voters[_id] */\n      0x00\n        /* \"poll.sol\":1939:1942  _id */\n      dup5\n        /* \"poll.sol\":1932:1943  voters[_id] */\n      0xffffffffffffffffffffffffffffffffffffffff\n      and\n      0xffffffffffffffffffffffffffffffffffffffff\n      and\n      dup2\n      mstore\n      0x20\n      add\n      swap1\n      dup2\n      mstore\n      0x20\n      add\n      0x00\n      keccak256\n        /* \"poll.sol\":1932:1946  voters[_id].id */\n      0x00\n      add\n      0x00\n      swap1\n      sload\n      swap1\n      0x0100\n      exp\n      swap1\n      div\n      0xffffffffffffffffffffffffffffffffffffffff\n      and\n        /* \"poll.sol\":1960:1966  voters */\n      0x01\n        /* \"poll.sol\":1960:1971  voters[_id] */\n      0x00\n        /* \"poll.sol\":1967:1970  _id */\n      dup6\n        /* \"poll.sol\":1960:1971  voters[_id] */\n      0xffffffffffffffffffffffffffffffffffffffff\n      and\n      0xffffffffffffffffffffffffffffffffffffffff\n      and\n      dup2\n      mstore\n      0x20\n      add\n      swap1\n      dup2\n      mstore\n      0x20\n      add\n      0x00\n      keccak256\n        /* \"poll.sol\":1960:1980  voters[_id].votedIds */\n      0x01\n      add\n        /* \"poll.sol\":1911:1990  return (... */\n      dup1\n      dup1\n      sload\n      dup1\n      0x20\n      mul\n      0x20\n      add\n      mload(0x40)\n      swap1\n      dup2\n      add\n      0x40\n      mstore\n      dup1\n      swap3\n      swap2\n      swap1\n      dup2\n      dup2\n      mstore\n      0x20\n      add\n      dup3\n      dup1\n      sload\n      dup1\n      iszero\n      tag_107\n      jumpi\n      0x20\n      mul\n      dup3\n      add\n      swap2\n      swap1\n      0x00\n      mstore\n      keccak256(0x00, 0x20)\n      swap1\n    tag_108:\n      dup2\n      sload\n      dup2\n      mstore\n      0x20\n      add\n      swap1\n      0x01\n      add\n      swap1\n      dup1\n      dup4\n      gt\n      tag_108\n      jumpi\n    tag_107:\n      pop\n      pop\n      pop\n      pop\n      pop\n      swap1\n      pop\n      swap2\n      pop\n      swap2\n      pop\n        /* \"poll.sol\":1821:1997  function getVoter(address _id) external view returns(address, uint256[] memory) {... */\n      swap2\n      pop\n      swap2\n      jump\t// out\n    tag_103:\n      dup3\n      dup1\n      sload\n      dup3\n      dup3\n      sstore\n      swap1\n      0x00\n      mstore\n      keccak256(0x00, 0x20)\n      swap1\n      0x03\n      add\n      0x04\n      swap1\n      div\n      dup2\n      add\n      swap3\n      dup3\n      iszero\n      tag_109\n      jumpi\n      swap2\n      0x20\n      mul\n      dup3\n      add\n      0x00\n    tag_110:\n      dup4\n      dup3\n      gt\n      iszero\n      tag_111\n      jumpi\n      dup4\n      mload\n      dup4\n      dup3\n      0x0100\n      exp\n      dup2\n      sload\n      dup2\n      0xffffffffffffffff\n      mul\n      not\n      and\n      swap1\n      dup4\n      0xffffffffffffffff\n      and\n      mul\n      or\n      swap1\n      sstore\n      pop\n      swap3\n      0x20\n      add\n      swap3\n      0x08\n      add\n      0x20\n      dup2\n      0x07\n      add\n      div\n      swap3\n      dup4\n      add\n      swap3\n      0x01\n      sub\n      mul\n      jump(tag_110)\n    tag_111:\n      dup1\n      iszero\n      tag_112\n      jumpi\n      dup3\n      dup2\n      0x0100\n      exp\n      dup2\n      sload\n      swap1\n      0xffffffffffffffff\n      mul\n      not\n      and\n      swap1\n      sstore\n      0x08\n      add\n      0x20\n      dup2\n      0x07\n      add\n      div\n      swap3\n      dup4\n      add\n      swap3\n      0x01\n      sub\n      mul\n      jump(tag_111)\n    tag_112:\n      pop\n    tag_109:\n      pop\n      swap1\n      pop\n      tag_113\n      swap2\n      swap1\n      tag_114\n      jump\t// in\n    tag_113:\n      pop\n      swap1\n      jump\t// out\n    tag_105:\n      dup3\n      dup1\n      sload\n      dup3\n      dup3\n      sstore\n      swap1\n      0x00\n      mstore\n      keccak256(0x00, 0x20)\n      swap1\n      dup2\n      add\n      swap3\n      dup3\n      iszero\n      tag_115\n      jumpi\n      swap2\n      0x20\n      mul\n      dup3\n      add\n    tag_116:\n      dup3\n      dup2\n      gt\n      iszero\n      tag_117\n      jumpi\n      dup3\n      mload\n      dup3\n      sstore\n      swap2\n      0x20\n      add\n      swap2\n      swap1\n      0x01\n      add\n      swap1\n      jump(tag_116)\n    tag_117:\n    tag_115:\n      pop\n      swap1\n      pop\n      tag_118\n      swap2\n      swap1\n      tag_119\n      jump\t// in\n    tag_118:\n      pop\n      swap1\n      jump\t// out\n    tag_114:\n    tag_120:\n      dup1\n      dup3\n      gt\n      iszero\n      tag_121\n      jumpi\n      0x00\n      dup2\n      0x00\n      swap1\n      sstore\n      pop\n      0x01\n      add\n      jump(tag_120)\n    tag_121:\n      pop\n      swap1\n      jump\t// out\n    tag_119:\n    tag_122:\n      dup1\n      dup3\n      gt\n      iszero\n      tag_123\n      jumpi\n      0x00\n      dup2\n      0x00\n      swap1\n      sstore\n      pop\n      0x01\n      add\n      jump(tag_122)\n    tag_123:\n      pop\n      swap1\n      jump\t// out\n        /* \"#utility.yul\":7:82   */\n    tag_124:\n        /* \"#utility.yul\":40:46   */\n      0x00\n        /* \"#utility.yul\":73:75   */\n      0x40\n        /* \"#utility.yul\":67:76   */\n      mload\n        /* \"#utility.yul\":57:76   */\n      swap1\n      pop\n        /* \"#utility.yul\":7:82   */\n      swap1\n      jump\t// out\n        /* \"#utility.yul\":88:205   */\n    tag_125:\n        /* \"#utility.yul\":197:198   */\n      0x00\n        /* \"#utility.yul\":194:195   */\n      dup1\n        /* \"#utility.yul\":187:199   */\n      revert\n        /* \"#utility.yul\":211:328   */\n    tag_126:\n        /* \"#utility.yul\":320:321   */\n      0x00\n        /* \"#utility.yul\":317:318   */\n      dup1\n        /* \"#utility.yul\":310:322   */\n      revert\n        /* \"#utility.yul\":334:435   */\n    tag_127:\n        /* \"#utility.yul\":370:377   */\n      0x00\n        /* \"#utility.yul\":410:428   */\n      0xffffffffffffffff\n        /* \"#utility.yul\":403:408   */\n      dup3\n        /* \"#utility.yul\":399:429   */\n      and\n        /* \"#utility.yul\":388:429   */\n      swap1\n      pop\n        /* \"#utility.yul\":334:435   */\n      swap2\n      swap1\n      pop\n      jump\t// out\n        /* \"#utility.yul\":441:561   */\n    tag_128:\n        /* \"#utility.yul\":513:536   */\n      tag_211\n        /* \"#utility.yul\":530:535   */\n      dup2\n        /* \"#utility.yul\":513:536   */\n      tag_127\n      jump\t// in\n    tag_211:\n        /* \"#utility.yul\":506:511   */\n      dup2\n        /* \"#utility.yul\":503:537   */\n      eq\n        /* \"#utility.yul\":493:555   */\n      tag_212\n      jumpi\n        /* \"#utility.yul\":551:552   */\n      0x00\n        /* \"#utility.yul\":548:549   */\n      dup1\n        /* \"#utility.yul\":541:553   */\n      revert\n        /* \"#utility.yul\":493:555   */\n    tag_212:\n        /* \"#utility.yul\":441:561   */\n      pop\n      jump\t// out\n        /* \"#utility.yul\":567:704   */\n    tag_129:\n        /* \"#utility.yul\":612:617   */\n      0x00\n        /* \"#utility.yul\":650:656   */\n      dup2\n        /* \"#utility.yul\":637:657   */\n      calldataload\n        /* \"#utility.yul\":628:657   */\n      swap1\n      pop\n        /* \"#utility.yul\":666:698   */\n      tag_214\n        /* \"#utility.yul\":692:697   */\n      dup2\n        /* \"#utility.yul\":666:698   */\n      tag_128\n      jump\t// in\n    tag_214:\n        /* \"#utility.yul\":567:704   */\n      swap3\n      swap2\n      pop\n      pop\n      jump\t// out\n        /* \"#utility.yul\":710:1037   */\n    tag_9:\n        /* \"#utility.yul\":768:774   */\n      0x00\n        /* \"#utility.yul\":817:819   */\n      0x20\n        /* \"#utility.yul\":805:814   */\n      dup3\n        /* \"#utility.yul\":796:803   */\n      dup5\n        /* \"#utility.yul\":792:815   */\n      sub\n        /* \"#utility.yul\":788:820   */\n      slt\n        /* \"#utility.yul\":785:904   */\n      iszero\n      tag_216\n      jumpi\n        /* \"#utility.yul\":823:902   */\n      tag_217\n      tag_125\n      jump\t// in\n    tag_217:\n        /* \"#utility.yul\":785:904   */\n    tag_216:\n        /* \"#utility.yul\":943:944   */\n      0x00\n        /* \"#utility.yul\":968:1020   */\n      tag_218\n        /* \"#utility.yul\":1012:1019   */\n      dup5\n        /* \"#utility.yul\":1003:1009   */\n      dup3\n        /* \"#utility.yul\":992:1001   */\n      dup6\n        /* \"#utility.yul\":988:1010   */\n      add\n        /* \"#utility.yul\":968:1020   */\n      tag_129\n      jump\t// in\n    tag_218:\n        /* \"#utility.yul\":958:1020   */\n      swap2\n      pop\n        /* \"#utility.yul\":914:1030   */\n      pop\n        /* \"#utility.yul\":710:1037   */\n      swap3\n      swap2\n      pop\n      pop\n      jump\t// out\n        /* \"#utility.yul\":1043:1120   */\n    tag_130:\n        /* \"#utility.yul\":1080:1087   */\n      0x00\n        /* \"#utility.yul\":1109:1114   */\n      dup2\n        /* \"#utility.yul\":1098:1114   */\n      swap1\n      pop\n        /* \"#utility.yul\":1043:1120   */\n      swap2\n      swap1\n      pop\n      jump\t// out\n        /* \"#utility.yul\":1126:1244   */\n    tag_131:\n        /* \"#utility.yul\":1213:1237   */\n      tag_221\n        /* \"#utility.yul\":1231:1236   */\n      dup2\n        /* \"#utility.yul\":1213:1237   */\n      tag_130\n      jump\t// in\n    tag_221:\n        /* \"#utility.yul\":1208:1211   */\n      dup3\n        /* \"#utility.yul\":1201:1238   */\n      mstore\n        /* \"#utility.yul\":1126:1244   */\n      pop\n      pop\n      jump\t// out\n        /* \"#utility.yul\":1250:1349   */\n    tag_132:\n        /* \"#utility.yul\":1302:1308   */\n      0x00\n        /* \"#utility.yul\":1336:1341   */\n      dup2\n        /* \"#utility.yul\":1330:1342   */\n      mload\n        /* \"#utility.yul\":1320:1342   */\n      swap1\n      pop\n        /* \"#utility.yul\":1250:1349   */\n      swap2\n      swap1\n      pop\n      jump\t// out\n        /* \"#utility.yul\":1355:1524   */\n    tag_133:\n        /* \"#utility.yul\":1439:1450   */\n      0x00\n        /* \"#utility.yul\":1473:1479   */\n      dup3\n        /* \"#utility.yul\":1468:1471   */\n      dup3\n        /* \"#utility.yul\":1461:1480   */\n      mstore\n        /* \"#utility.yul\":1513:1517   */\n      0x20\n        /* \"#utility.yul\":1508:1511   */\n      dup3\n        /* \"#utility.yul\":1504:1518   */\n      add\n        /* \"#utility.yul\":1489:1518   */\n      swap1\n      pop\n        /* \"#utility.yul\":1355:1524   */\n      swap3\n      swap2\n      pop\n      pop\n      jump\t// out\n        /* \"#utility.yul\":1530:1776   */\n    tag_134:\n        /* \"#utility.yul\":1611:1612   */\n      0x00\n        /* \"#utility.yul\":1621:1734   */\n    tag_225:\n        /* \"#utility.yul\":1635:1641   */\n      dup4\n        /* \"#utility.yul\":1632:1633   */\n      dup2\n        /* \"#utility.yul\":1629:1642   */\n      lt\n        /* \"#utility.yul\":1621:1734   */\n      iszero\n      tag_227\n      jumpi\n        /* \"#utility.yul\":1720:1721   */\n      dup1\n        /* \"#utility.yul\":1715:1718   */\n      dup3\n        /* \"#utility.yul\":1711:1722   */\n      add\n        /* \"#utility.yul\":1705:1723   */\n      mload\n        /* \"#utility.yul\":1701:1702   */\n      dup2\n        /* \"#utility.yul\":1696:1699   */\n      dup5\n        /* \"#utility.yul\":1692:1703   */\n      add\n        /* \"#utility.yul\":1685:1724   */\n      mstore\n        /* \"#utility.yul\":1657:1659   */\n      0x20\n        /* \"#utility.yul\":1654:1655   */\n      dup2\n        /* \"#utility.yul\":1650:1660   */\n      add\n        /* \"#utility.yul\":1645:1660   */\n      swap1\n      pop\n        /* \"#utility.yul\":1621:1734   */\n      jump(tag_225)\n    tag_227:\n        /* \"#utility.yul\":1768:1769   */\n      0x00\n        /* \"#utility.yul\":1759:1765   */\n      dup5\n        /* \"#utility.yul\":1754:1757   */\n      dup5\n        /* \"#utility.yul\":1750:1766   */\n      add\n        /* \"#utility.yul\":1743:1770   */\n      mstore\n        /* \"#utility.yul\":1592:1776   */\n      pop\n        /* \"#utility.yul\":1530:1776   */\n      pop\n      pop\n      pop\n      jump\t// out\n        /* \"#utility.yul\":1782:1884   */\n    tag_135:\n        /* \"#utility.yul\":1823:1829   */\n      0x00\n        /* \"#utility.yul\":1874:1876   */\n      0x1f\n        /* \"#utility.yul\":1870:1877   */\n      not\n        /* \"#utility.yul\":1865:1867   */\n      0x1f\n        /* \"#utility.yul\":1858:1863   */\n      dup4\n        /* \"#utility.yul\":1854:1868   */\n      add\n        /* \"#utility.yul\":1850:1878   */\n      and\n        /* \"#utility.yul\":1840:1878   */\n      swap1\n      pop\n        /* \"#utility.yul\":1782:1884   */\n      swap2\n      swap1\n      pop\n      jump\t// out\n        /* \"#utility.yul\":1890:2267   */\n    tag_136:\n        /* \"#utility.yul\":1978:1981   */\n      0x00\n        /* \"#utility.yul\":2006:2045   */\n      tag_230\n        /* \"#utility.yul\":2039:2044   */\n      dup3\n        /* \"#utility.yul\":2006:2045   */\n      tag_132\n      jump\t// in\n    tag_230:\n        /* \"#utility.yul\":2061:2132   */\n      tag_231\n        /* \"#utility.yul\":2125:2131   */\n      dup2\n        /* \"#utility.yul\":2120:2123   */\n      dup6\n        /* \"#utility.yul\":2061:2132   */\n      tag_133\n      jump\t// in\n    tag_231:\n        /* \"#utility.yul\":2054:2132   */\n      swap4\n      pop\n        /* \"#utility.yul\":2141:2206   */\n      tag_232\n        /* \"#utility.yul\":2199:2205   */\n      dup2\n        /* \"#utility.yul\":2194:2197   */\n      dup6\n        /* \"#utility.yul\":2187:2191   */\n      0x20\n        /* \"#utility.yul\":2180:2185   */\n      dup7\n        /* \"#utility.yul\":2176:2192   */\n      add\n        /* \"#utility.yul\":2141:2206   */\n      tag_134\n      jump\t// in\n    tag_232:\n        /* \"#utility.yul\":2231:2260   */\n      tag_233\n        /* \"#utility.yul\":2253:2259   */\n      dup2\n        /* \"#utility.yul\":2231:2260   */\n      tag_135\n      jump\t// in\n    tag_233:\n        /* \"#utility.yul\":2226:2229   */\n      dup5\n        /* \"#utility.yul\":2222:2261   */\n      add\n        /* \"#utility.yul\":2215:2261   */\n      swap2\n      pop\n        /* \"#utility.yul\":1982:2267   */\n      pop\n        /* \"#utility.yul\":1890:2267   */\n      swap3\n      swap2\n      pop\n      pop\n      jump\t// out\n        /* \"#utility.yul\":2273:2386   */\n    tag_137:\n        /* \"#utility.yul\":2339:2345   */\n      0x00\n        /* \"#utility.yul\":2373:2378   */\n      dup2\n        /* \"#utility.yul\":2367:2379   */\n      mload\n        /* \"#utility.yul\":2357:2379   */\n      swap1\n      pop\n        /* \"#utility.yul\":2273:2386   */\n      swap2\n      swap1\n      pop\n      jump\t// out\n        /* \"#utility.yul\":2392:2575   */\n    tag_138:\n        /* \"#utility.yul\":2490:2501   */\n      0x00\n        /* \"#utility.yul\":2524:2530   */\n      dup3\n        /* \"#utility.yul\":2519:2522   */\n      dup3\n        /* \"#utility.yul\":2512:2531   */\n      mstore\n        /* \"#utility.yul\":2564:2568   */\n      0x20\n        /* \"#utility.yul\":2559:2562   */\n      dup3\n        /* \"#utility.yul\":2555:2569   */\n      add\n        /* \"#utility.yul\":2540:2569   */\n      swap1\n      pop\n        /* \"#utility.yul\":2392:2575   */\n      swap3\n      swap2\n      pop\n      pop\n      jump\t// out\n        /* \"#utility.yul\":2581:2712   */\n    tag_139:\n        /* \"#utility.yul\":2647:2651   */\n      0x00\n        /* \"#utility.yul\":2670:2673   */\n      dup2\n        /* \"#utility.yul\":2662:2673   */\n      swap1\n      pop\n        /* \"#utility.yul\":2700:2704   */\n      0x20\n        /* \"#utility.yul\":2695:2698   */\n      dup3\n        /* \"#utility.yul\":2691:2705   */\n      add\n        /* \"#utility.yul\":2683:2705   */\n      swap1\n      pop\n        /* \"#utility.yul\":2581:2712   */\n      swap2\n      swap1\n      pop\n      jump\t// out\n        /* \"#utility.yul\":2718:2823   */\n    tag_140:\n        /* \"#utility.yul\":2793:2816   */\n      tag_238\n        /* \"#utility.yul\":2810:2815   */\n      dup2\n        /* \"#utility.yul\":2793:2816   */\n      tag_127\n      jump\t// in\n    tag_238:\n        /* \"#utility.yul\":2788:2791   */\n      dup3\n        /* \"#utility.yul\":2781:2817   */\n      mstore\n        /* \"#utility.yul\":2718:2823   */\n      pop\n      pop\n      jump\t// out\n        /* \"#utility.yul\":2829:3004   */\n    tag_141:\n        /* \"#utility.yul\":2896:2906   */\n      0x00\n        /* \"#utility.yul\":2917:2961   */\n      tag_240\n        /* \"#utility.yul\":2957:2960   */\n      dup4\n        /* \"#utility.yul\":2949:2955   */\n      dup4\n        /* \"#utility.yul\":2917:2961   */\n      tag_140\n      jump\t// in\n    tag_240:\n        /* \"#utility.yul\":2993:2997   */\n      0x20\n        /* \"#utility.yul\":2988:2991   */\n      dup4\n        /* \"#utility.yul\":2984:2998   */\n      add\n        /* \"#utility.yul\":2970:2998   */\n      swap1\n      pop\n        /* \"#utility.yul\":2829:3004   */\n      swap3\n      swap2\n      pop\n      pop\n      jump\t// out\n        /* \"#utility.yul\":3010:3122   */\n    tag_142:\n        /* \"#utility.yul\":3079:3083   */\n      0x00\n        /* \"#utility.yul\":3111:3115   */\n      0x20\n        /* \"#utility.yul\":3106:3109   */\n      dup3\n        /* \"#utility.yul\":3102:3116   */\n      add\n        /* \"#utility.yul\":3094:3116   */\n      swap1\n      pop\n        /* \"#utility.yul\":3010:3122   */\n      swap2\n      swap1\n      pop\n      jump\t// out\n        /* \"#utility.yul\":3156:3880   */\n    tag_143:\n        /* \"#utility.yul\":3273:3276   */\n      0x00\n        /* \"#utility.yul\":3302:3355   */\n      tag_243\n        /* \"#utility.yul\":3349:3354   */\n      dup3\n        /* \"#utility.yul\":3302:3355   */\n      tag_137\n      jump\t// in\n    tag_243:\n        /* \"#utility.yul\":3371:3456   */\n      tag_244\n        /* \"#utility.yul\":3449:3455   */\n      dup2\n        /* \"#utility.yul\":3444:3447   */\n      dup6\n        /* \"#utility.yul\":3371:3456   */\n      tag_138\n      jump\t// in\n    tag_244:\n        /* \"#utility.yul\":3364:3456   */\n      swap4\n      pop\n        /* \"#utility.yul\":3480:3535   */\n      tag_245\n        /* \"#utility.yul\":3529:3534   */\n      dup4\n        /* \"#utility.yul\":3480:3535   */\n      tag_139\n      jump\t// in\n    tag_245:\n        /* \"#utility.yul\":3558:3565   */\n      dup1\n        /* \"#utility.yul\":3589:3590   */\n      0x00\n        /* \"#utility.yul\":3574:3855   */\n    tag_246:\n        /* \"#utility.yul\":3599:3605   */\n      dup4\n        /* \"#utility.yul\":3596:3597   */\n      dup2\n        /* \"#utility.yul\":3593:3606   */\n      lt\n        /* \"#utility.yul\":3574:3855   */\n      iszero\n      tag_248\n      jumpi\n        /* \"#utility.yul\":3675:3681   */\n      dup2\n        /* \"#utility.yul\":3669:3682   */\n      mload\n        /* \"#utility.yul\":3702:3763   */\n      tag_249\n        /* \"#utility.yul\":3759:3762   */\n      dup9\n        /* \"#utility.yul\":3744:3757   */\n      dup3\n        /* \"#utility.yul\":3702:3763   */\n      tag_141\n      jump\t// in\n    tag_249:\n        /* \"#utility.yul\":3695:3763   */\n      swap8\n      pop\n        /* \"#utility.yul\":3786:3845   */\n      tag_250\n        /* \"#utility.yul\":3838:3844   */\n      dup4\n        /* \"#utility.yul\":3786:3845   */\n      tag_142\n      jump\t// in\n    tag_250:\n        /* \"#utility.yul\":3776:3845   */\n      swap3\n      pop\n        /* \"#utility.yul\":3634:3855   */\n      pop\n        /* \"#utility.yul\":3621:3622   */\n      0x01\n        /* \"#utility.yul\":3618:3619   */\n      dup2\n        /* \"#utility.yul\":3614:3623   */\n      add\n        /* \"#utility.yul\":3609:3623   */\n      swap1\n      pop\n        /* \"#utility.yul\":3574:3855   */\n      jump(tag_246)\n    tag_248:\n        /* \"#utility.yul\":3578:3592   */\n      pop\n        /* \"#utility.yul\":3871:3874   */\n      dup6\n        /* \"#utility.yul\":3864:3874   */\n      swap4\n      pop\n        /* \"#utility.yul\":3278:3880   */\n      pop\n      pop\n      pop\n        /* \"#utility.yul\":3156:3880   */\n      swap3\n      swap2\n      pop\n      pop\n      jump\t// out\n        /* \"#utility.yul\":3886:4000   */\n    tag_144:\n        /* \"#utility.yul\":3953:3959   */\n      0x00\n        /* \"#utility.yul\":3987:3992   */\n      dup2\n        /* \"#utility.yul\":3981:3993   */\n      mload\n        /* \"#utility.yul\":3971:3993   */\n      swap1\n      pop\n        /* \"#utility.yul\":3886:4000   */\n      swap2\n      swap1\n      pop\n      jump\t// out\n        /* \"#utility.yul\":4006:4190   */\n    tag_145:\n        /* \"#utility.yul\":4105:4116   */\n      0x00\n        /* \"#utility.yul\":4139:4145   */\n      dup3\n        /* \"#utility.yul\":4134:4137   */\n      dup3\n        /* \"#utility.yul\":4127:4146   */\n      mstore\n        /* \"#utility.yul\":4179:4183   */\n      0x20\n        /* \"#utility.yul\":4174:4177   */\n      dup3\n        /* \"#utility.yul\":4170:4184   */\n      add\n        /* \"#utility.yul\":4155:4184   */\n      swap1\n      pop\n        /* \"#utility.yul\":4006:4190   */\n      swap3\n      swap2\n      pop\n      pop\n      jump\t// out\n        /* \"#utility.yul\":4196:4328   */\n    tag_146:\n        /* \"#utility.yul\":4263:4267   */\n      0x00\n        /* \"#utility.yul\":4286:4289   */\n      dup2\n        /* \"#utility.yul\":4278:4289   */\n      swap1\n      pop\n        /* \"#utility.yul\":4316:4320   */\n      0x20\n        /* \"#utility.yul\":4311:4314   */\n      dup3\n        /* \"#utility.yul\":4307:4321   */\n      add\n        /* \"#utility.yul\":4299:4321   */\n      swap1\n      pop\n        /* \"#utility.yul\":4196:4328   */\n      swap2\n      swap1\n      pop\n      jump\t// out\n        /* \"#utility.yul\":4334:4411   */\n    tag_147:\n        /* \"#utility.yul\":4371:4378   */\n      0x00\n        /* \"#utility.yul\":4400:4405   */\n      dup2\n        /* \"#utility.yul\":4389:4405   */\n      swap1\n      pop\n        /* \"#utility.yul\":4334:4411   */\n      swap2\n      swap1\n      pop\n      jump\t// out\n        /* \"#utility.yul\":4417:4525   */\n    tag_148:\n        /* \"#utility.yul\":4494:4518   */\n      tag_256\n        /* \"#utility.yul\":4512:4517   */\n      dup2\n        /* \"#utility.yul\":4494:4518   */\n      tag_147\n      jump\t// in\n    tag_256:\n        /* \"#utility.yul\":4489:4492   */\n      dup3\n        /* \"#utility.yul\":4482:4519   */\n      mstore\n        /* \"#utility.yul\":4417:4525   */\n      pop\n      pop\n      jump\t// out\n        /* \"#utility.yul\":4531:4710   */\n    tag_149:\n        /* \"#utility.yul\":4600:4610   */\n      0x00\n        /* \"#utility.yul\":4621:4667   */\n      tag_258\n        /* \"#utility.yul\":4663:4666   */\n      dup4\n        /* \"#utility.yul\":4655:4661   */\n      dup4\n        /* \"#utility.yul\":4621:4667   */\n      tag_148\n      jump\t// in\n    tag_258:\n        /* \"#utility.yul\":4699:4703   */\n      0x20\n        /* \"#utility.yul\":4694:4697   */\n      dup4\n        /* \"#utility.yul\":4690:4704   */\n      add\n        /* \"#utility.yul\":4676:4704   */\n      swap1\n      pop\n        /* \"#utility.yul\":4531:4710   */\n      swap3\n      swap2\n      pop\n      pop\n      jump\t// out\n        /* \"#utility.yul\":4716:4829   */\n    tag_150:\n        /* \"#utility.yul\":4786:4790   */\n      0x00\n        /* \"#utility.yul\":4818:4822   */\n      0x20\n        /* \"#utility.yul\":4813:4816   */\n      dup3\n        /* \"#utility.yul\":4809:4823   */\n      add\n        /* \"#utility.yul\":4801:4823   */\n      swap1\n      pop\n        /* \"#utility.yul\":4716:4829   */\n      swap2\n      swap1\n      pop\n      jump\t// out\n        /* \"#utility.yul\":4865:5597   */\n    tag_151:\n        /* \"#utility.yul\":4984:4987   */\n      0x00\n        /* \"#utility.yul\":5013:5067   */\n      tag_261\n        /* \"#utility.yul\":5061:5066   */\n      dup3\n        /* \"#utility.yul\":5013:5067   */\n      tag_144\n      jump\t// in\n    tag_261:\n        /* \"#utility.yul\":5083:5169   */\n      tag_262\n        /* \"#utility.yul\":5162:5168   */\n      dup2\n        /* \"#utility.yul\":5157:5160   */\n      dup6\n        /* \"#utility.yul\":5083:5169   */\n      tag_145\n      jump\t// in\n    tag_262:\n        /* \"#utility.yul\":5076:5169   */\n      swap4\n      pop\n        /* \"#utility.yul\":5193:5249   */\n      tag_263\n        /* \"#utility.yul\":5243:5248   */\n      dup4\n        /* \"#utility.yul\":5193:5249   */\n      tag_146\n      jump\t// in\n    tag_263:\n        /* \"#utility.yul\":5272:5279   */\n      dup1\n        /* \"#utility.yul\":5303:5304   */\n      0x00\n        /* \"#utility.yul\":5288:5572   */\n    tag_264:\n        /* \"#utility.yul\":5313:5319   */\n      dup4\n        /* \"#utility.yul\":5310:5311   */\n      dup2\n        /* \"#utility.yul\":5307:5320   */\n      lt\n        /* \"#utility.yul\":5288:5572   */\n      iszero\n      tag_266\n      jumpi\n        /* \"#utility.yul\":5389:5395   */\n      dup2\n        /* \"#utility.yul\":5383:5396   */\n      mload\n        /* \"#utility.yul\":5416:5479   */\n      tag_267\n        /* \"#utility.yul\":5475:5478   */\n      dup9\n        /* \"#utility.yul\":5460:5473   */\n      dup3\n        /* \"#utility.yul\":5416:5479   */\n      tag_149\n      jump\t// in\n    tag_267:\n        /* \"#utility.yul\":5409:5479   */\n      swap8\n      pop\n        /* \"#utility.yul\":5502:5562   */\n      tag_268\n        /* \"#utility.yul\":5555:5561   */\n      dup4\n        /* \"#utility.yul\":5502:5562   */\n      tag_150\n      jump\t// in\n    tag_268:\n        /* \"#utility.yul\":5492:5562   */\n      swap3\n      pop\n        /* \"#utility.yul\":5348:5572   */\n      pop\n        /* \"#utility.yul\":5335:5336   */\n      0x01\n        /* \"#utility.yul\":5332:5333   */\n      dup2\n        /* \"#utility.yul\":5328:5337   */\n      add\n        /* \"#utility.yul\":5323:5337   */\n      swap1\n      pop\n        /* \"#utility.yul\":5288:5572   */\n      jump(tag_264)\n    tag_266:\n        /* \"#utility.yul\":5292:5306   */\n      pop\n        /* \"#utility.yul\":5588:5591   */\n      dup6\n        /* \"#utility.yul\":5581:5591   */\n      swap4\n      pop\n        /* \"#utility.yul\":4989:5597   */\n      pop\n      pop\n      pop\n        /* \"#utility.yul\":4865:5597   */\n      swap3\n      swap2\n      pop\n      pop\n      jump\t// out\n        /* \"#utility.yul\":5603:6747   */\n    tag_12:\n        /* \"#utility.yul\":5946:5950   */\n      0x00\n        /* \"#utility.yul\":5984:5987   */\n      0xa0\n        /* \"#utility.yul\":5973:5982   */\n      dup3\n        /* \"#utility.yul\":5969:5988   */\n      add\n        /* \"#utility.yul\":5961:5988   */\n      swap1\n      pop\n        /* \"#utility.yul\":5998:6069   */\n      tag_270\n        /* \"#utility.yul\":6066:6067   */\n      0x00\n        /* \"#utility.yul\":6055:6064   */\n      dup4\n        /* \"#utility.yul\":6051:6068   */\n      add\n        /* \"#utility.yul\":6042:6048   */\n      dup9\n        /* \"#utility.yul\":5998:6069   */\n      tag_131\n      jump\t// in\n    tag_270:\n        /* \"#utility.yul\":6116:6125   */\n      dup2\n        /* \"#utility.yul\":6110:6114   */\n      dup2\n        /* \"#utility.yul\":6106:6126   */\n      sub\n        /* \"#utility.yul\":6101:6103   */\n      0x20\n        /* \"#utility.yul\":6090:6099   */\n      dup4\n        /* \"#utility.yul\":6086:6104   */\n      add\n        /* \"#utility.yul\":6079:6127   */\n      mstore\n        /* \"#utility.yul\":6144:6222   */\n      tag_271\n        /* \"#utility.yul\":6217:6221   */\n      dup2\n        /* \"#utility.yul\":6208:6214   */\n      dup8\n        /* \"#utility.yul\":6144:6222   */\n      tag_136\n      jump\t// in\n    tag_271:\n        /* \"#utility.yul\":6136:6222   */\n      swap1\n      pop\n        /* \"#utility.yul\":6269:6278   */\n      dup2\n        /* \"#utility.yul\":6263:6267   */\n      dup2\n        /* \"#utility.yul\":6259:6279   */\n      sub\n        /* \"#utility.yul\":6254:6256   */\n      0x40\n        /* \"#utility.yul\":6243:6252   */\n      dup4\n        /* \"#utility.yul\":6239:6257   */\n      add\n        /* \"#utility.yul\":6232:6280   */\n      mstore\n        /* \"#utility.yul\":6297:6375   */\n      tag_272\n        /* \"#utility.yul\":6370:6374   */\n      dup2\n        /* \"#utility.yul\":6361:6367   */\n      dup7\n        /* \"#utility.yul\":6297:6375   */\n      tag_136\n      jump\t// in\n    tag_272:\n        /* \"#utility.yul\":6289:6375   */\n      swap1\n      pop\n        /* \"#utility.yul\":6422:6431   */\n      dup2\n        /* \"#utility.yul\":6416:6420   */\n      dup2\n        /* \"#utility.yul\":6412:6432   */\n      sub\n        /* \"#utility.yul\":6407:6409   */\n      0x60\n        /* \"#utility.yul\":6396:6405   */\n      dup4\n        /* \"#utility.yul\":6392:6410   */\n      add\n        /* \"#utility.yul\":6385:6433   */\n      mstore\n        /* \"#utility.yul\":6450:6556   */\n      tag_273\n        /* \"#utility.yul\":6551:6555   */\n      dup2\n        /* \"#utility.yul\":6542:6548   */\n      dup6\n        /* \"#utility.yul\":6450:6556   */\n      tag_143\n      jump\t// in\n    tag_273:\n        /* \"#utility.yul\":6442:6556   */\n      swap1\n      pop\n        /* \"#utility.yul\":6604:6613   */\n      dup2\n        /* \"#utility.yul\":6598:6602   */\n      dup2\n        /* \"#utility.yul\":6594:6614   */\n      sub\n        /* \"#utility.yul\":6588:6591   */\n      0x80\n        /* \"#utility.yul\":6577:6586   */\n      dup4\n        /* \"#utility.yul\":6573:6592   */\n      add\n        /* \"#utility.yul\":6566:6615   */\n      mstore\n        /* \"#utility.yul\":6632:6740   */\n      tag_274\n        /* \"#utility.yul\":6735:6739   */\n      dup2\n        /* \"#utility.yul\":6726:6732   */\n      dup5\n        /* \"#utility.yul\":6632:6740   */\n      tag_151\n      jump\t// in\n    tag_274:\n        /* \"#utility.yul\":6624:6740   */\n      swap1\n      pop\n        /* \"#utility.yul\":5603:6747   */\n      swap7\n      swap6\n      pop\n      pop\n      pop\n      pop\n      pop\n      pop\n      jump\t// out\n        /* \"#utility.yul\":6753:7223   */\n    tag_15:\n        /* \"#utility.yul\":6819:6825   */\n      0x00\n        /* \"#utility.yul\":6827:6833   */\n      dup1\n        /* \"#utility.yul\":6876:6878   */\n      0x40\n        /* \"#utility.yul\":6864:6873   */\n      dup4\n        /* \"#utility.yul\":6855:6862   */\n      dup6\n        /* \"#utility.yul\":6851:6874   */\n      sub\n        /* \"#utility.yul\":6847:6879   */\n      slt\n        /* \"#utility.yul\":6844:6963   */\n      iszero\n      tag_276\n      jumpi\n        /* \"#utility.yul\":6882:6961   */\n      tag_277\n      tag_125\n      jump\t// in\n    tag_277:\n        /* \"#utility.yul\":6844:6963   */\n    tag_276:\n        /* \"#utility.yul\":7002:7003   */\n      0x00\n        /* \"#utility.yul\":7027:7079   */\n      tag_278\n        /* \"#utility.yul\":7071:7078   */\n      dup6\n        /* \"#utility.yul\":7062:7068   */\n      dup3\n        /* \"#utility.yul\":7051:7060   */\n      dup7\n        /* \"#utility.yul\":7047:7069   */\n      add\n        /* \"#utility.yul\":7027:7079   */\n      tag_129\n      jump\t// in\n    tag_278:\n        /* \"#utility.yul\":7017:7079   */\n      swap3\n      pop\n        /* \"#utility.yul\":6973:7089   */\n      pop\n        /* \"#utility.yul\":7128:7130   */\n      0x20\n        /* \"#utility.yul\":7154:7206   */\n      tag_279\n        /* \"#utility.yul\":7198:7205   */\n      dup6\n        /* \"#utility.yul\":7189:7195   */\n      dup3\n        /* \"#utility.yul\":7178:7187   */\n      dup7\n        /* \"#utility.yul\":7174:7196   */\n      add\n        /* \"#utility.yul\":7154:7206   */\n      tag_129\n      jump\t// in\n    tag_279:\n        /* \"#utility.yul\":7144:7206   */\n      swap2\n      pop\n        /* \"#utility.yul\":7099:7216   */\n      pop\n        /* \"#utility.yul\":6753:7223   */\n      swap3\n      pop\n      swap3\n      swap1\n      pop\n      jump\t// out\n        /* \"#utility.yul\":7229:7346   */\n    tag_152:\n        /* \"#utility.yul\":7338:7339   */\n      0x00\n        /* \"#utility.yul\":7335:7336   */\n      dup1\n        /* \"#utility.yul\":7328:7340   */\n      revert\n        /* \"#utility.yul\":7352:7469   */\n    tag_153:\n        /* \"#utility.yul\":7461:7462   */\n      0x00\n        /* \"#utility.yul\":7458:7459   */\n      dup1\n        /* \"#utility.yul\":7451:7463   */\n      revert\n        /* \"#utility.yul\":7475:7655   */\n    tag_96:\n        /* \"#utility.yul\":7523:7600   */\n      0x4e487b7100000000000000000000000000000000000000000000000000000000\n        /* \"#utility.yul\":7520:7521   */\n      0x00\n        /* \"#utility.yul\":7513:7601   */\n      mstore\n        /* \"#utility.yul\":7620:7624   */\n      0x41\n        /* \"#utility.yul\":7617:7618   */\n      0x04\n        /* \"#utility.yul\":7610:7625   */\n      mstore\n        /* \"#utility.yul\":7644:7648   */\n      0x24\n        /* \"#utility.yul\":7641:7642   */\n      0x00\n        /* \"#utility.yul\":7634:7649   */\n      revert\n        /* \"#utility.yul\":7661:7942   */\n    tag_154:\n        /* \"#utility.yul\":7744:7771   */\n      tag_284\n        /* \"#utility.yul\":7766:7770   */\n      dup3\n        /* \"#utility.yul\":7744:7771   */\n      tag_135\n      jump\t// in\n    tag_284:\n        /* \"#utility.yul\":7736:7742   */\n      dup2\n        /* \"#utility.yul\":7732:7772   */\n      add\n        /* \"#utility.yul\":7874:7880   */\n      dup2\n        /* \"#utility.yul\":7862:7872   */\n      dup2\n        /* \"#utility.yul\":7859:7881   */\n      lt\n        /* \"#utility.yul\":7838:7856   */\n      0xffffffffffffffff\n        /* \"#utility.yul\":7826:7836   */\n      dup3\n        /* \"#utility.yul\":7823:7857   */\n      gt\n        /* \"#utility.yul\":7820:7882   */\n      or\n        /* \"#utility.yul\":7817:7905   */\n      iszero\n      tag_285\n      jumpi\n        /* \"#utility.yul\":7885:7903   */\n      tag_286\n      tag_96\n      jump\t// in\n    tag_286:\n        /* \"#utility.yul\":7817:7905   */\n    tag_285:\n        /* \"#utility.yul\":7925:7935   */\n      dup1\n        /* \"#utility.yul\":7921:7923   */\n      0x40\n        /* \"#utility.yul\":7914:7936   */\n      mstore\n        /* \"#utility.yul\":7704:7942   */\n      pop\n        /* \"#utility.yul\":7661:7942   */\n      pop\n      pop\n      jump\t// out\n        /* \"#utility.yul\":7948:8077   */\n    tag_155:\n        /* \"#utility.yul\":7982:7988   */\n      0x00\n        /* \"#utility.yul\":8009:8029   */\n      tag_288\n      tag_124\n      jump\t// in\n    tag_288:\n        /* \"#utility.yul\":7999:8029   */\n      swap1\n      pop\n        /* \"#utility.yul\":8038:8071   */\n      tag_289\n        /* \"#utility.yul\":8066:8070   */\n      dup3\n        /* \"#utility.yul\":8058:8064   */\n      dup3\n        /* \"#utility.yul\":8038:8071   */\n      tag_154\n      jump\t// in\n    tag_289:\n        /* \"#utility.yul\":7948:8077   */\n      swap2\n      swap1\n      pop\n      jump\t// out\n        /* \"#utility.yul\":8083:8391   */\n    tag_156:\n        /* \"#utility.yul\":8145:8149   */\n      0x00\n        /* \"#utility.yul\":8235:8253   */\n      0xffffffffffffffff\n        /* \"#utility.yul\":8227:8233   */\n      dup3\n        /* \"#utility.yul\":8224:8254   */\n      gt\n        /* \"#utility.yul\":8221:8277   */\n      iszero\n      tag_291\n      jumpi\n        /* \"#utility.yul\":8257:8275   */\n      tag_292\n      tag_96\n      jump\t// in\n    tag_292:\n        /* \"#utility.yul\":8221:8277   */\n    tag_291:\n        /* \"#utility.yul\":8295:8324   */\n      tag_293\n        /* \"#utility.yul\":8317:8323   */\n      dup3\n        /* \"#utility.yul\":8295:8324   */\n      tag_135\n      jump\t// in\n    tag_293:\n        /* \"#utility.yul\":8287:8324   */\n      swap1\n      pop\n        /* \"#utility.yul\":8379:8383   */\n      0x20\n        /* \"#utility.yul\":8373:8377   */\n      dup2\n        /* \"#utility.yul\":8369:8384   */\n      add\n        /* \"#utility.yul\":8361:8384   */\n      swap1\n      pop\n        /* \"#utility.yul\":8083:8391   */\n      swap2\n      swap1\n      pop\n      jump\t// out\n        /* \"#utility.yul\":8397:8543   */\n    tag_157:\n        /* \"#utility.yul\":8494:8500   */\n      dup3\n        /* \"#utility.yul\":8489:8492   */\n      dup2\n        /* \"#utility.yul\":8484:8487   */\n      dup4\n        /* \"#utility.yul\":8471:8501   */\n      calldatacopy\n        /* \"#utility.yul\":8535:8536   */\n      0x00\n        /* \"#utility.yul\":8526:8532   */\n      dup4\n        /* \"#utility.yul\":8521:8524   */\n      dup4\n        /* \"#utility.yul\":8517:8533   */\n      add\n        /* \"#utility.yul\":8510:8537   */\n      mstore\n        /* \"#utility.yul\":8397:8543   */\n      pop\n      pop\n      pop\n      jump\t// out\n        /* \"#utility.yul\":8549:8974   */\n    tag_158:\n        /* \"#utility.yul\":8627:8632   */\n      0x00\n        /* \"#utility.yul\":8652:8718   */\n      tag_296\n        /* \"#utility.yul\":8668:8717   */\n      tag_297\n        /* \"#utility.yul\":8710:8716   */\n      dup5\n        /* \"#utility.yul\":8668:8717   */\n      tag_156\n      jump\t// in\n    tag_297:\n        /* \"#utility.yul\":8652:8718   */\n      tag_155\n      jump\t// in\n    tag_296:\n        /* \"#utility.yul\":8643:8718   */\n      swap1\n      pop\n        /* \"#utility.yul\":8741:8747   */\n      dup3\n        /* \"#utility.yul\":8734:8739   */\n      dup2\n        /* \"#utility.yul\":8727:8748   */\n      mstore\n        /* \"#utility.yul\":8779:8783   */\n      0x20\n        /* \"#utility.yul\":8772:8777   */\n      dup2\n        /* \"#utility.yul\":8768:8784   */\n      add\n        /* \"#utility.yul\":8817:8820   */\n      dup5\n        /* \"#utility.yul\":8808:8814   */\n      dup5\n        /* \"#utility.yul\":8803:8806   */\n      dup5\n        /* \"#utility.yul\":8799:8815   */\n      add\n        /* \"#utility.yul\":8796:8821   */\n      gt\n        /* \"#utility.yul\":8793:8905   */\n      iszero\n      tag_298\n      jumpi\n        /* \"#utility.yul\":8824:8903   */\n      tag_299\n      tag_153\n      jump\t// in\n    tag_299:\n        /* \"#utility.yul\":8793:8905   */\n    tag_298:\n        /* \"#utility.yul\":8914:8968   */\n      tag_300\n        /* \"#utility.yul\":8961:8967   */\n      dup5\n        /* \"#utility.yul\":8956:8959   */\n      dup3\n        /* \"#utility.yul\":8951:8954   */\n      dup6\n        /* \"#utility.yul\":8914:8968   */\n      tag_157\n      jump\t// in\n    tag_300:\n        /* \"#utility.yul\":8633:8974   */\n      pop\n        /* \"#utility.yul\":8549:8974   */\n      swap4\n      swap3\n      pop\n      pop\n      pop\n      jump\t// out\n        /* \"#utility.yul\":8994:9334   */\n    tag_159:\n        /* \"#utility.yul\":9050:9055   */\n      0x00\n        /* \"#utility.yul\":9099:9102   */\n      dup3\n        /* \"#utility.yul\":9092:9096   */\n      0x1f\n        /* \"#utility.yul\":9084:9090   */\n      dup4\n        /* \"#utility.yul\":9080:9097   */\n      add\n        /* \"#utility.yul\":9076:9103   */\n      slt\n        /* \"#utility.yul\":9066:9188   */\n      tag_302\n      jumpi\n        /* \"#utility.yul\":9107:9186   */\n      tag_303\n      tag_152\n      jump\t// in\n    tag_303:\n        /* \"#utility.yul\":9066:9188   */\n    tag_302:\n        /* \"#utility.yul\":9224:9230   */\n      dup2\n        /* \"#utility.yul\":9211:9231   */\n      calldataload\n        /* \"#utility.yul\":9249:9328   */\n      tag_304\n        /* \"#utility.yul\":9324:9327   */\n      dup5\n        /* \"#utility.yul\":9316:9322   */\n      dup3\n        /* \"#utility.yul\":9309:9313   */\n      0x20\n        /* \"#utility.yul\":9301:9307   */\n      dup7\n        /* \"#utility.yul\":9297:9314   */\n      add\n        /* \"#utility.yul\":9249:9328   */\n      tag_158\n      jump\t// in\n    tag_304:\n        /* \"#utility.yul\":9240:9328   */\n      swap2\n      pop\n        /* \"#utility.yul\":9056:9334   */\n      pop\n        /* \"#utility.yul\":8994:9334   */\n      swap3\n      swap2\n      pop\n      pop\n      jump\t// out\n        /* \"#utility.yul\":9340:9651   */\n    tag_160:\n        /* \"#utility.yul\":9417:9421   */\n      0x00\n        /* \"#utility.yul\":9507:9525   */\n      0xffffffffffffffff\n        /* \"#utility.yul\":9499:9505   */\n      dup3\n        /* \"#utility.yul\":9496:9526   */\n      gt\n        /* \"#utility.yul\":9493:9549   */\n      iszero\n      tag_306\n      jumpi\n        /* \"#utility.yul\":9529:9547   */\n      tag_307\n      tag_96\n      jump\t// in\n    tag_307:\n        /* \"#utility.yul\":9493:9549   */\n    tag_306:\n        /* \"#utility.yul\":9579:9583   */\n      0x20\n        /* \"#utility.yul\":9571:9577   */\n      dup3\n        /* \"#utility.yul\":9567:9584   */\n      mul\n        /* \"#utility.yul\":9559:9584   */\n      swap1\n      pop\n        /* \"#utility.yul\":9639:9643   */\n      0x20\n        /* \"#utility.yul\":9633:9637   */\n      dup2\n        /* \"#utility.yul\":9629:9644   */\n      add\n        /* \"#utility.yul\":9621:9644   */\n      swap1\n      pop\n        /* \"#utility.yul\":9340:9651   */\n      swap2\n      swap1\n      pop\n      jump\t// out\n        /* \"#utility.yul\":9657:9774   */\n    tag_161:\n        /* \"#utility.yul\":9766:9767   */\n      0x00\n        /* \"#utility.yul\":9763:9764   */\n      dup1\n        /* \"#utility.yul\":9756:9768   */\n      revert\n        /* \"#utility.yul\":9780:9902   */\n    tag_162:\n        /* \"#utility.yul\":9853:9877   */\n      tag_310\n        /* \"#utility.yul\":9871:9876   */\n      dup2\n        /* \"#utility.yul\":9853:9877   */\n      tag_147\n      jump\t// in\n    tag_310:\n        /* \"#utility.yul\":9846:9851   */\n      dup2\n        /* \"#utility.yul\":9843:9878   */\n      eq\n        /* \"#utility.yul\":9833:9896   */\n      tag_311\n      jumpi\n        /* \"#utility.yul\":9892:9893   */\n      0x00\n        /* \"#utility.yul\":9889:9890   */\n      dup1\n        /* \"#utility.yul\":9882:9894   */\n      revert\n        /* \"#utility.yul\":9833:9896   */\n    tag_311:\n        /* \"#utility.yul\":9780:9902   */\n      pop\n      jump\t// out\n        /* \"#utility.yul\":9908:10047   */\n    tag_163:\n        /* \"#utility.yul\":9954:9959   */\n      0x00\n        /* \"#utility.yul\":9992:9998   */\n      dup2\n        /* \"#utility.yul\":9979:9999   */\n      calldataload\n        /* \"#utility.yul\":9970:9999   */\n      swap1\n      pop\n        /* \"#utility.yul\":10008:10041   */\n      tag_313\n        /* \"#utility.yul\":10035:10040   */\n      dup2\n        /* \"#utility.yul\":10008:10041   */\n      tag_162\n      jump\t// in\n    tag_313:\n        /* \"#utility.yul\":9908:10047   */\n      swap3\n      swap2\n      pop\n      pop\n      jump\t// out\n        /* \"#utility.yul\":10070:10780   */\n    tag_164:\n        /* \"#utility.yul\":10166:10171   */\n      0x00\n        /* \"#utility.yul\":10191:10272   */\n      tag_315\n        /* \"#utility.yul\":10207:10271   */\n      tag_316\n        /* \"#utility.yul\":10264:10270   */\n      dup5\n        /* \"#utility.yul\":10207:10271   */\n      tag_160\n      jump\t// in\n    tag_316:\n        /* \"#utility.yul\":10191:10272   */\n      tag_155\n      jump\t// in\n    tag_315:\n        /* \"#utility.yul\":10182:10272   */\n      swap1\n      pop\n        /* \"#utility.yul\":10292:10297   */\n      dup1\n        /* \"#utility.yul\":10321:10327   */\n      dup4\n        /* \"#utility.yul\":10314:10319   */\n      dup3\n        /* \"#utility.yul\":10307:10328   */\n      mstore\n        /* \"#utility.yul\":10355:10359   */\n      0x20\n        /* \"#utility.yul\":10348:10353   */\n      dup3\n        /* \"#utility.yul\":10344:10360   */\n      add\n        /* \"#utility.yul\":10337:10360   */\n      swap1\n      pop\n        /* \"#utility.yul\":10408:10412   */\n      0x20\n        /* \"#utility.yul\":10400:10406   */\n      dup5\n        /* \"#utility.yul\":10396:10413   */\n      mul\n        /* \"#utility.yul\":10388:10394   */\n      dup4\n        /* \"#utility.yul\":10384:10414   */\n      add\n        /* \"#utility.yul\":10437:10440   */\n      dup6\n        /* \"#utility.yul\":10429:10435   */\n      dup2\n        /* \"#utility.yul\":10426:10441   */\n      gt\n        /* \"#utility.yul\":10423:10545   */\n      iszero\n      tag_317\n      jumpi\n        /* \"#utility.yul\":10456:10535   */\n      tag_318\n      tag_161\n      jump\t// in\n    tag_318:\n        /* \"#utility.yul\":10423:10545   */\n    tag_317:\n        /* \"#utility.yul\":10571:10577   */\n      dup4\n        /* \"#utility.yul\":10554:10774   */\n    tag_319:\n        /* \"#utility.yul\":10588:10594   */\n      dup2\n        /* \"#utility.yul\":10583:10586   */\n      dup2\n        /* \"#utility.yul\":10580:10595   */\n      lt\n        /* \"#utility.yul\":10554:10774   */\n      iszero\n      tag_321\n      jumpi\n        /* \"#utility.yul\":10663:10666   */\n      dup1\n        /* \"#utility.yul\":10692:10729   */\n      tag_322\n        /* \"#utility.yul\":10725:10728   */\n      dup9\n        /* \"#utility.yul\":10713:10723   */\n      dup3\n        /* \"#utility.yul\":10692:10729   */\n      tag_163\n      jump\t// in\n    tag_322:\n        /* \"#utility.yul\":10687:10690   */\n      dup5\n        /* \"#utility.yul\":10680:10730   */\n      mstore\n        /* \"#utility.yul\":10759:10763   */\n      0x20\n        /* \"#utility.yul\":10754:10757   */\n      dup5\n        /* \"#utility.yul\":10750:10764   */\n      add\n        /* \"#utility.yul\":10743:10764   */\n      swap4\n      pop\n        /* \"#utility.yul\":10630:10774   */\n      pop\n        /* \"#utility.yul\":10614:10618   */\n      0x20\n        /* \"#utility.yul\":10609:10612   */\n      dup2\n        /* \"#utility.yul\":10605:10619   */\n      add\n        /* \"#utility.yul\":10598:10619   */\n      swap1\n      pop\n        /* \"#utility.yul\":10554:10774   */\n      jump(tag_319)\n    tag_321:\n        /* \"#utility.yul\":10558:10579   */\n      pop\n        /* \"#utility.yul\":10172:10780   */\n      pop\n      pop\n        /* \"#utility.yul\":10070:10780   */\n      swap4\n      swap3\n      pop\n      pop\n      pop\n      jump\t// out\n        /* \"#utility.yul\":10803:11173   */\n    tag_165:\n        /* \"#utility.yul\":10874:10879   */\n      0x00\n        /* \"#utility.yul\":10923:10926   */\n      dup3\n        /* \"#utility.yul\":10916:10920   */\n      0x1f\n        /* \"#utility.yul\":10908:10914   */\n      dup4\n        /* \"#utility.yul\":10904:10921   */\n      add\n        /* \"#utility.yul\":10900:10927   */\n      slt\n        /* \"#utility.yul\":10890:11012   */\n      tag_324\n      jumpi\n        /* \"#utility.yul\":10931:11010   */\n      tag_325\n      tag_152\n      jump\t// in\n    tag_325:\n        /* \"#utility.yul\":10890:11012   */\n    tag_324:\n        /* \"#utility.yul\":11048:11054   */\n      dup2\n        /* \"#utility.yul\":11035:11055   */\n      calldataload\n        /* \"#utility.yul\":11073:11167   */\n      tag_326\n        /* \"#utility.yul\":11163:11166   */\n      dup5\n        /* \"#utility.yul\":11155:11161   */\n      dup3\n        /* \"#utility.yul\":11148:11152   */\n      0x20\n        /* \"#utility.yul\":11140:11146   */\n      dup7\n        /* \"#utility.yul\":11136:11153   */\n      add\n        /* \"#utility.yul\":11073:11167   */\n      tag_164\n      jump\t// in\n    tag_326:\n        /* \"#utility.yul\":11064:11167   */\n      swap2\n      pop\n        /* \"#utility.yul\":10880:11173   */\n      pop\n        /* \"#utility.yul\":10803:11173   */\n      swap3\n      swap2\n      pop\n      pop\n      jump\t// out\n        /* \"#utility.yul\":11179:12368   */\n    tag_19:\n        /* \"#utility.yul\":11301:11307   */\n      0x00\n        /* \"#utility.yul\":11309:11315   */\n      dup1\n        /* \"#utility.yul\":11317:11323   */\n      0x00\n        /* \"#utility.yul\":11366:11368   */\n      0x60\n        /* \"#utility.yul\":11354:11363   */\n      dup5\n        /* \"#utility.yul\":11345:11352   */\n      dup7\n        /* \"#utility.yul\":11341:11364   */\n      sub\n        /* \"#utility.yul\":11337:11369   */\n      slt\n        /* \"#utility.yul\":11334:11453   */\n      iszero\n      tag_328\n      jumpi\n        /* \"#utility.yul\":11372:11451   */\n      tag_329\n      tag_125\n      jump\t// in\n    tag_329:\n        /* \"#utility.yul\":11334:11453   */\n    tag_328:\n        /* \"#utility.yul\":11520:11521   */\n      0x00\n        /* \"#utility.yul\":11509:11518   */\n      dup5\n        /* \"#utility.yul\":11505:11522   */\n      add\n        /* \"#utility.yul\":11492:11523   */\n      calldataload\n        /* \"#utility.yul\":11550:11568   */\n      0xffffffffffffffff\n        /* \"#utility.yul\":11542:11548   */\n      dup2\n        /* \"#utility.yul\":11539:11569   */\n      gt\n        /* \"#utility.yul\":11536:11653   */\n      iszero\n      tag_330\n      jumpi\n        /* \"#utility.yul\":11572:11651   */\n      tag_331\n      tag_126\n      jump\t// in\n    tag_331:\n        /* \"#utility.yul\":11536:11653   */\n    tag_330:\n        /* \"#utility.yul\":11677:11740   */\n      tag_332\n        /* \"#utility.yul\":11732:11739   */\n      dup7\n        /* \"#utility.yul\":11723:11729   */\n      dup3\n        /* \"#utility.yul\":11712:11721   */\n      dup8\n        /* \"#utility.yul\":11708:11730   */\n      add\n        /* \"#utility.yul\":11677:11740   */\n      tag_159\n      jump\t// in\n    tag_332:\n        /* \"#utility.yul\":11667:11740   */\n      swap4\n      pop\n        /* \"#utility.yul\":11463:11750   */\n      pop\n        /* \"#utility.yul\":11817:11819   */\n      0x20\n        /* \"#utility.yul\":11806:11815   */\n      dup5\n        /* \"#utility.yul\":11802:11820   */\n      add\n        /* \"#utility.yul\":11789:11821   */\n      calldataload\n        /* \"#utility.yul\":11848:11866   */\n      0xffffffffffffffff\n        /* \"#utility.yul\":11840:11846   */\n      dup2\n        /* \"#utility.yul\":11837:11867   */\n      gt\n        /* \"#utility.yul\":11834:11951   */\n      iszero\n      tag_333\n      jumpi\n        /* \"#utility.yul\":11870:11949   */\n      tag_334\n      tag_126\n      jump\t// in\n    tag_334:\n        /* \"#utility.yul\":11834:11951   */\n    tag_333:\n        /* \"#utility.yul\":11975:12038   */\n      tag_335\n        /* \"#utility.yul\":12030:12037   */\n      dup7\n        /* \"#utility.yul\":12021:12027   */\n      dup3\n        /* \"#utility.yul\":12010:12019   */\n      dup8\n        /* \"#utility.yul\":12006:12028   */\n      add\n        /* \"#utility.yul\":11975:12038   */\n      tag_159\n      jump\t// in\n    tag_335:\n        /* \"#utility.yul\":11965:12038   */\n      swap3\n      pop\n        /* \"#utility.yul\":11760:12048   */\n      pop\n        /* \"#utility.yul\":12115:12117   */\n      0x40\n        /* \"#utility.yul\":12104:12113   */\n      dup5\n        /* \"#utility.yul\":12100:12118   */\n      add\n        /* \"#utility.yul\":12087:12119   */\n      calldataload\n        /* \"#utility.yul\":12146:12164   */\n      0xffffffffffffffff\n        /* \"#utility.yul\":12138:12144   */\n      dup2\n        /* \"#utility.yul\":12135:12165   */\n      gt\n        /* \"#utility.yul\":12132:12249   */\n      iszero\n      tag_336\n      jumpi\n        /* \"#utility.yul\":12168:12247   */\n      tag_337\n      tag_126\n      jump\t// in\n    tag_337:\n        /* \"#utility.yul\":12132:12249   */\n    tag_336:\n        /* \"#utility.yul\":12273:12351   */\n      tag_338\n        /* \"#utility.yul\":12343:12350   */\n      dup7\n        /* \"#utility.yul\":12334:12340   */\n      dup3\n        /* \"#utility.yul\":12323:12332   */\n      dup8\n        /* \"#utility.yul\":12319:12341   */\n      add\n        /* \"#utility.yul\":12273:12351   */\n      tag_165\n      jump\t// in\n    tag_338:\n        /* \"#utility.yul\":12263:12351   */\n      swap2\n      pop\n        /* \"#utility.yul\":12058:12361   */\n      pop\n        /* \"#utility.yul\":11179:12368   */\n      swap3\n      pop\n      swap3\n      pop\n      swap3\n      jump\t// out\n        /* \"#utility.yul\":12374:12500   */\n    tag_166:\n        /* \"#utility.yul\":12411:12418   */\n      0x00\n        /* \"#utility.yul\":12451:12493   */\n      0xffffffffffffffffffffffffffffffffffffffff\n        /* \"#utility.yul\":12444:12449   */\n      dup3\n        /* \"#utility.yul\":12440:12494   */\n      and\n        /* \"#utility.yul\":12429:12494   */\n      swap1\n      pop\n        /* \"#utility.yul\":12374:12500   */\n      swap2\n      swap1\n      pop\n      jump\t// out\n        /* \"#utility.yul\":12506:12602   */\n    tag_167:\n        /* \"#utility.yul\":12543:12550   */\n      0x00\n        /* \"#utility.yul\":12572:12596   */\n      tag_341\n        /* \"#utility.yul\":12590:12595   */\n      dup3\n        /* \"#utility.yul\":12572:12596   */\n      tag_166\n      jump\t// in\n    tag_341:\n        /* \"#utility.yul\":12561:12596   */\n      swap1\n      pop\n        /* \"#utility.yul\":12506:12602   */\n      swap2\n      swap1\n      pop\n      jump\t// out\n        /* \"#utility.yul\":12608:12730   */\n    tag_168:\n        /* \"#utility.yul\":12681:12705   */\n      tag_343\n        /* \"#utility.yul\":12699:12704   */\n      dup2\n        /* \"#utility.yul\":12681:12705   */\n      tag_167\n      jump\t// in\n    tag_343:\n        /* \"#utility.yul\":12674:12679   */\n      dup2\n        /* \"#utility.yul\":12671:12706   */\n      eq\n        /* \"#utility.yul\":12661:12724   */\n      tag_344\n      jumpi\n        /* \"#utility.yul\":12720:12721   */\n      0x00\n        /* \"#utility.yul\":12717:12718   */\n      dup1\n        /* \"#utility.yul\":12710:12722   */\n      revert\n        /* \"#utility.yul\":12661:12724   */\n    tag_344:\n        /* \"#utility.yul\":12608:12730   */\n      pop\n      jump\t// out\n        /* \"#utility.yul\":12736:12875   */\n    tag_169:\n        /* \"#utility.yul\":12782:12787   */\n      0x00\n        /* \"#utility.yul\":12820:12826   */\n      dup2\n        /* \"#utility.yul\":12807:12827   */\n      calldataload\n        /* \"#utility.yul\":12798:12827   */\n      swap1\n      pop\n        /* \"#utility.yul\":12836:12869   */\n      tag_346\n        /* \"#utility.yul\":12863:12868   */\n      dup2\n        /* \"#utility.yul\":12836:12869   */\n      tag_168\n      jump\t// in\n    tag_346:\n        /* \"#utility.yul\":12736:12875   */\n      swap3\n      swap2\n      pop\n      pop\n      jump\t// out\n        /* \"#utility.yul\":12881:13210   */\n    tag_23:\n        /* \"#utility.yul\":12940:12946   */\n      0x00\n        /* \"#utility.yul\":12989:12991   */\n      0x20\n        /* \"#utility.yul\":12977:12986   */\n      dup3\n        /* \"#utility.yul\":12968:12975   */\n      dup5\n        /* \"#utility.yul\":12964:12987   */\n      sub\n        /* \"#utility.yul\":12960:12992   */\n      slt\n        /* \"#utility.yul\":12957:13076   */\n      iszero\n      tag_348\n      jumpi\n        /* \"#utility.yul\":12995:13074   */\n      tag_349\n      tag_125\n      jump\t// in\n    tag_349:\n        /* \"#utility.yul\":12957:13076   */\n    tag_348:\n        /* \"#utility.yul\":13115:13116   */\n      0x00\n        /* \"#utility.yul\":13140:13193   */\n      tag_350\n        /* \"#utility.yul\":13185:13192   */\n      dup5\n        /* \"#utility.yul\":13176:13182   */\n      dup3\n        /* \"#utility.yul\":13165:13174   */\n      dup6\n        /* \"#utility.yul\":13161:13183   */\n      add\n        /* \"#utility.yul\":13140:13193   */\n      tag_169\n      jump\t// in\n    tag_350:\n        /* \"#utility.yul\":13130:13193   */\n      swap2\n      pop\n        /* \"#utility.yul\":13086:13203   */\n      pop\n        /* \"#utility.yul\":12881:13210   */\n      swap3\n      swap2\n      pop\n      pop\n      jump\t// out\n        /* \"#utility.yul\":13216:13334   */\n    tag_170:\n        /* \"#utility.yul\":13303:13327   */\n      tag_352\n        /* \"#utility.yul\":13321:13326   */\n      dup2\n        /* \"#utility.yul\":13303:13327   */\n      tag_167\n      jump\t// in\n    tag_352:\n        /* \"#utility.yul\":13298:13301   */\n      dup3\n        /* \"#utility.yul\":13291:13328   */\n      mstore\n        /* \"#utility.yul\":13216:13334   */\n      pop\n      pop\n      jump\t// out\n        /* \"#utility.yul\":13340:13454   */\n    tag_171:\n        /* \"#utility.yul\":13407:13413   */\n      0x00\n        /* \"#utility.yul\":13441:13446   */\n      dup2\n        /* \"#utility.yul\":13435:13447   */\n      mload\n        /* \"#utility.yul\":13425:13447   */\n      swap1\n      pop\n        /* \"#utility.yul\":13340:13454   */\n      swap2\n      swap1\n      pop\n      jump\t// out\n        /* \"#utility.yul\":13460:13644   */\n    tag_172:\n        /* \"#utility.yul\":13559:13570   */\n      0x00\n        /* \"#utility.yul\":13593:13599   */\n      dup3\n        /* \"#utility.yul\":13588:13591   */\n      dup3\n        /* \"#utility.yul\":13581:13600   */\n      mstore\n        /* \"#utility.yul\":13633:13637   */\n      0x20\n        /* \"#utility.yul\":13628:13631   */\n      dup3\n        /* \"#utility.yul\":13624:13638   */\n      add\n        /* \"#utility.yul\":13609:13638   */\n      swap1\n      pop\n        /* \"#utility.yul\":13460:13644   */\n      swap3\n      swap2\n      pop\n      pop\n      jump\t// out\n        /* \"#utility.yul\":13650:13782   */\n    tag_173:\n        /* \"#utility.yul\":13717:13721   */\n      0x00\n        /* \"#utility.yul\":13740:13743   */\n      dup2\n        /* \"#utility.yul\":13732:13743   */\n      swap1\n      pop\n        /* \"#utility.yul\":13770:13774   */\n      0x20\n        /* \"#utility.yul\":13765:13768   */\n      dup3\n        /* \"#utility.yul\":13761:13775   */\n      add\n        /* \"#utility.yul\":13753:13775   */\n      swap1\n      pop\n        /* \"#utility.yul\":13650:13782   */\n      swap2\n      swap1\n      pop\n      jump\t// out\n        /* \"#utility.yul\":13788:13896   */\n    tag_174:\n        /* \"#utility.yul\":13865:13889   */\n      tag_357\n        /* \"#utility.yul\":13883:13888   */\n      dup2\n        /* \"#utility.yul\":13865:13889   */\n      tag_130\n      jump\t// in\n    tag_357:\n        /* \"#utility.yul\":13860:13863   */\n      dup3\n        /* \"#utility.yul\":13853:13890   */\n      mstore\n        /* \"#utility.yul\":13788:13896   */\n      pop\n      pop\n      jump\t// out\n        /* \"#utility.yul\":13902:14081   */\n    tag_175:\n        /* \"#utility.yul\":13971:13981   */\n      0x00\n        /* \"#utility.yul\":13992:14038   */\n      tag_359\n        /* \"#utility.yul\":14034:14037   */\n      dup4\n        /* \"#utility.yul\":14026:14032   */\n      dup4\n        /* \"#utility.yul\":13992:14038   */\n      tag_174\n      jump\t// in\n    tag_359:\n        /* \"#utility.yul\":14070:14074   */\n      0x20\n        /* \"#utility.yul\":14065:14068   */\n      dup4\n        /* \"#utility.yul\":14061:14075   */\n      add\n        /* \"#utility.yul\":14047:14075   */\n      swap1\n      pop\n        /* \"#utility.yul\":13902:14081   */\n      swap3\n      swap2\n      pop\n      pop\n      jump\t// out\n        /* \"#utility.yul\":14087:14200   */\n    tag_176:\n        /* \"#utility.yul\":14157:14161   */\n      0x00\n        /* \"#utility.yul\":14189:14193   */\n      0x20\n        /* \"#utility.yul\":14184:14187   */\n      dup3\n        /* \"#utility.yul\":14180:14194   */\n      add\n        /* \"#utility.yul\":14172:14194   */\n      swap1\n      pop\n        /* \"#utility.yul\":14087:14200   */\n      swap2\n      swap1\n      pop\n      jump\t// out\n        /* \"#utility.yul\":14236:14968   */\n    tag_177:\n        /* \"#utility.yul\":14355:14358   */\n      0x00\n        /* \"#utility.yul\":14384:14438   */\n      tag_362\n        /* \"#utility.yul\":14432:14437   */\n      dup3\n        /* \"#utility.yul\":14384:14438   */\n      tag_171\n      jump\t// in\n    tag_362:\n        /* \"#utility.yul\":14454:14540   */\n      tag_363\n        /* \"#utility.yul\":14533:14539   */\n      dup2\n        /* \"#utility.yul\":14528:14531   */\n      dup6\n        /* \"#utility.yul\":14454:14540   */\n      tag_172\n      jump\t// in\n    tag_363:\n        /* \"#utility.yul\":14447:14540   */\n      swap4\n      pop\n        /* \"#utility.yul\":14564:14620   */\n      tag_364\n        /* \"#utility.yul\":14614:14619   */\n      dup4\n        /* \"#utility.yul\":14564:14620   */\n      tag_173\n      jump\t// in\n    tag_364:\n        /* \"#utility.yul\":14643:14650   */\n      dup1\n        /* \"#utility.yul\":14674:14675   */\n      0x00\n        /* \"#utility.yul\":14659:14943   */\n    tag_365:\n        /* \"#utility.yul\":14684:14690   */\n      dup4\n        /* \"#utility.yul\":14681:14682   */\n      dup2\n        /* \"#utility.yul\":14678:14691   */\n      lt\n        /* \"#utility.yul\":14659:14943   */\n      iszero\n      tag_367\n      jumpi\n        /* \"#utility.yul\":14760:14766   */\n      dup2\n        /* \"#utility.yul\":14754:14767   */\n      mload\n        /* \"#utility.yul\":14787:14850   */\n      tag_368\n        /* \"#utility.yul\":14846:14849   */\n      dup9\n        /* \"#utility.yul\":14831:14844   */\n      dup3\n        /* \"#utility.yul\":14787:14850   */\n      tag_175\n      jump\t// in\n    tag_368:\n        /* \"#utility.yul\":14780:14850   */\n      swap8\n      pop\n        /* \"#utility.yul\":14873:14933   */\n      tag_369\n        /* \"#utility.yul\":14926:14932   */\n      dup4\n        /* \"#utility.yul\":14873:14933   */\n      tag_176\n      jump\t// in\n    tag_369:\n        /* \"#utility.yul\":14863:14933   */\n      swap3\n      pop\n        /* \"#utility.yul\":14719:14943   */\n      pop\n        /* \"#utility.yul\":14706:14707   */\n      0x01\n        /* \"#utility.yul\":14703:14704   */\n      dup2\n        /* \"#utility.yul\":14699:14708   */\n      add\n        /* \"#utility.yul\":14694:14708   */\n      swap1\n      pop\n        /* \"#utility.yul\":14659:14943   */\n      jump(tag_365)\n    tag_367:\n        /* \"#utility.yul\":14663:14677   */\n      pop\n        /* \"#utility.yul\":14959:14962   */\n      dup6\n        /* \"#utility.yul\":14952:14962   */\n      swap4\n      pop\n        /* \"#utility.yul\":14360:14968   */\n      pop\n      pop\n      pop\n        /* \"#utility.yul\":14236:14968   */\n      swap3\n      swap2\n      pop\n      pop\n      jump\t// out\n        /* \"#utility.yul\":14974:15457   */\n    tag_26:\n        /* \"#utility.yul\":15145:15149   */\n      0x00\n        /* \"#utility.yul\":15183:15185   */\n      0x40\n        /* \"#utility.yul\":15172:15181   */\n      dup3\n        /* \"#utility.yul\":15168:15186   */\n      add\n        /* \"#utility.yul\":15160:15186   */\n      swap1\n      pop\n        /* \"#utility.yul\":15196:15267   */\n      tag_371\n        /* \"#utility.yul\":15264:15265   */\n      0x00\n        /* \"#utility.yul\":15253:15262   */\n      dup4\n        /* \"#utility.yul\":15249:15266   */\n      add\n        /* \"#utility.yul\":15240:15246   */\n      dup6\n        /* \"#utility.yul\":15196:15267   */\n      tag_170\n      jump\t// in\n    tag_371:\n        /* \"#utility.yul\":15314:15323   */\n      dup2\n        /* \"#utility.yul\":15308:15312   */\n      dup2\n        /* \"#utility.yul\":15304:15324   */\n      sub\n        /* \"#utility.yul\":15299:15301   */\n      0x20\n        /* \"#utility.yul\":15288:15297   */\n      dup4\n        /* \"#utility.yul\":15284:15302   */\n      add\n        /* \"#utility.yul\":15277:15325   */\n      mstore\n        /* \"#utility.yul\":15342:15450   */\n      tag_372\n        /* \"#utility.yul\":15445:15449   */\n      dup2\n        /* \"#utility.yul\":15436:15442   */\n      dup5\n        /* \"#utility.yul\":15342:15450   */\n      tag_177\n      jump\t// in\n    tag_372:\n        /* \"#utility.yul\":15334:15450   */\n      swap1\n      pop\n        /* \"#utility.yul\":14974:15457   */\n      swap4\n      swap3\n      pop\n      pop\n      pop\n      jump\t// out\n        /* \"#utility.yul\":15463:15626   */\n    tag_178:\n        /* \"#utility.yul\":15603:15618   */\n      0x4e6f20706f6c6c20666f756e6400000000000000000000000000000000000000\n        /* \"#utility.yul\":15599:15600   */\n      0x00\n        /* \"#utility.yul\":15591:15597   */\n      dup3\n        /* \"#utility.yul\":15587:15601   */\n      add\n        /* \"#utility.yul\":15580:15619   */\n      mstore\n        /* \"#utility.yul\":15463:15626   */\n      pop\n      jump\t// out\n        /* \"#utility.yul\":15632:15998   */\n    tag_179:\n        /* \"#utility.yul\":15774:15777   */\n      0x00\n        /* \"#utility.yul\":15795:15862   */\n      tag_375\n        /* \"#utility.yul\":15859:15861   */\n      0x0d\n        /* \"#utility.yul\":15854:15857   */\n      dup4\n        /* \"#utility.yul\":15795:15862   */\n      tag_133\n      jump\t// in\n    tag_375:\n        /* \"#utility.yul\":15788:15862   */\n      swap2\n      pop\n        /* \"#utility.yul\":15871:15964   */\n      tag_376\n        /* \"#utility.yul\":15960:15963   */\n      dup3\n        /* \"#utility.yul\":15871:15964   */\n      tag_178\n      jump\t// in\n    tag_376:\n        /* \"#utility.yul\":15989:15991   */\n      0x20\n        /* \"#utility.yul\":15984:15987   */\n      dup3\n        /* \"#utility.yul\":15980:15992   */\n      add\n        /* \"#utility.yul\":15973:15992   */\n      swap1\n      pop\n        /* \"#utility.yul\":15632:15998   */\n      swap2\n      swap1\n      pop\n      jump\t// out\n        /* \"#utility.yul\":16004:16423   */\n    tag_31:\n        /* \"#utility.yul\":16170:16174   */\n      0x00\n        /* \"#utility.yul\":16208:16210   */\n      0x20\n        /* \"#utility.yul\":16197:16206   */\n      dup3\n        /* \"#utility.yul\":16193:16211   */\n      add\n        /* \"#utility.yul\":16185:16211   */\n      swap1\n      pop\n        /* \"#utility.yul\":16257:16266   */\n      dup2\n        /* \"#utility.yul\":16251:16255   */\n      dup2\n        /* \"#utility.yul\":16247:16267   */\n      sub\n        /* \"#utility.yul\":16243:16244   */\n      0x00\n        /* \"#utility.yul\":16232:16241   */\n      dup4\n        /* \"#utility.yul\":16228:16245   */\n      add\n        /* \"#utility.yul\":16221:16268   */\n      mstore\n        /* \"#utility.yul\":16285:16416   */\n      tag_378\n        /* \"#utility.yul\":16411:16415   */\n      dup2\n        /* \"#utility.yul\":16285:16416   */\n      tag_179\n      jump\t// in\n    tag_378:\n        /* \"#utility.yul\":16277:16416   */\n      swap1\n      pop\n        /* \"#utility.yul\":16004:16423   */\n      swap2\n      swap1\n      pop\n      jump\t// out\n        /* \"#utility.yul\":16429:16609   */\n    tag_35:\n        /* \"#utility.yul\":16477:16554   */\n      0x4e487b7100000000000000000000000000000000000000000000000000000000\n        /* \"#utility.yul\":16474:16475   */\n      0x00\n        /* \"#utility.yul\":16467:16555   */\n      mstore\n        /* \"#utility.yul\":16574:16578   */\n      0x32\n        /* \"#utility.yul\":16571:16572   */\n      0x04\n        /* \"#utility.yul\":16564:16579   */\n      mstore\n        /* \"#utility.yul\":16598:16602   */\n      0x24\n        /* \"#utility.yul\":16595:16596   */\n      0x00\n        /* \"#utility.yul\":16588:16603   */\n      revert\n        /* \"#utility.yul\":16615:16795   */\n    tag_180:\n        /* \"#utility.yul\":16663:16740   */\n      0x4e487b7100000000000000000000000000000000000000000000000000000000\n        /* \"#utility.yul\":16660:16661   */\n      0x00\n        /* \"#utility.yul\":16653:16741   */\n      mstore\n        /* \"#utility.yul\":16760:16764   */\n      0x22\n        /* \"#utility.yul\":16757:16758   */\n      0x04\n        /* \"#utility.yul\":16750:16765   */\n      mstore\n        /* \"#utility.yul\":16784:16788   */\n      0x24\n        /* \"#utility.yul\":16781:16782   */\n      0x00\n        /* \"#utility.yul\":16774:16789   */\n      revert\n        /* \"#utility.yul\":16801:17121   */\n    tag_50:\n        /* \"#utility.yul\":16845:16851   */\n      0x00\n        /* \"#utility.yul\":16882:16883   */\n      0x02\n        /* \"#utility.yul\":16876:16880   */\n      dup3\n        /* \"#utility.yul\":16872:16884   */\n      div\n        /* \"#utility.yul\":16862:16884   */\n      swap1\n      pop\n        /* \"#utility.yul\":16929:16930   */\n      0x01\n        /* \"#utility.yul\":16923:16927   */\n      dup3\n        /* \"#utility.yul\":16919:16931   */\n      and\n        /* \"#utility.yul\":16950:16968   */\n      dup1\n        /* \"#utility.yul\":16940:17021   */\n      tag_382\n      jumpi\n        /* \"#utility.yul\":17006:17010   */\n      0x7f\n        /* \"#utility.yul\":16998:17004   */\n      dup3\n        /* \"#utility.yul\":16994:17011   */\n      and\n        /* \"#utility.yul\":16984:17011   */\n      swap2\n      pop\n        /* \"#utility.yul\":16940:17021   */\n    tag_382:\n        /* \"#utility.yul\":17068:17070   */\n      0x20\n        /* \"#utility.yul\":17060:17066   */\n      dup3\n        /* \"#utility.yul\":17057:17071   */\n      lt\n        /* \"#utility.yul\":17037:17055   */\n      dup2\n        /* \"#utility.yul\":17034:17072   */\n      sub\n        /* \"#utility.yul\":17031:17115   */\n      tag_383\n      jumpi\n        /* \"#utility.yul\":17087:17105   */\n      tag_384\n      tag_180\n      jump\t// in\n    tag_384:\n        /* \"#utility.yul\":17031:17115   */\n    tag_383:\n        /* \"#utility.yul\":16852:17121   */\n      pop\n        /* \"#utility.yul\":16801:17121   */\n      swap2\n      swap1\n      pop\n      jump\t// out\n        /* \"#utility.yul\":17127:17289   */\n    tag_181:\n        /* \"#utility.yul\":17267:17281   */\n      0x496e76616c696420766f74650000000000000000000000000000000000000000\n        /* \"#utility.yul\":17263:17264   */\n      0x00\n        /* \"#utility.yul\":17255:17261   */\n      dup3\n        /* \"#utility.yul\":17251:17265   */\n      add\n        /* \"#utility.yul\":17244:17282   */\n      mstore\n        /* \"#utility.yul\":17127:17289   */\n      pop\n      jump\t// out\n        /* \"#utility.yul\":17295:17661   */\n    tag_182:\n        /* \"#utility.yul\":17437:17440   */\n      0x00\n        /* \"#utility.yul\":17458:17525   */\n      tag_387\n        /* \"#utility.yul\":17522:17524   */\n      0x0c\n        /* \"#utility.yul\":17517:17520   */\n      dup4\n        /* \"#utility.yul\":17458:17525   */\n      tag_133\n      jump\t// in\n    tag_387:\n        /* \"#utility.yul\":17451:17525   */\n      swap2\n      pop\n        /* \"#utility.yul\":17534:17627   */\n      tag_388\n        /* \"#utility.yul\":17623:17626   */\n      dup3\n        /* \"#utility.yul\":17534:17627   */\n      tag_181\n      jump\t// in\n    tag_388:\n        /* \"#utility.yul\":17652:17654   */\n      0x20\n        /* \"#utility.yul\":17647:17650   */\n      dup3\n        /* \"#utility.yul\":17643:17655   */\n      add\n        /* \"#utility.yul\":17636:17655   */\n      swap1\n      pop\n        /* \"#utility.yul\":17295:17661   */\n      swap2\n      swap1\n      pop\n      jump\t// out\n        /* \"#utility.yul\":17667:18086   */\n    tag_74:\n        /* \"#utility.yul\":17833:17837   */\n      0x00\n        /* \"#utility.yul\":17871:17873   */\n      0x20\n        /* \"#utility.yul\":17860:17869   */\n      dup3\n        /* \"#utility.yul\":17856:17874   */\n      add\n        /* \"#utility.yul\":17848:17874   */\n      swap1\n      pop\n        /* \"#utility.yul\":17920:17929   */\n      dup2\n        /* \"#utility.yul\":17914:17918   */\n      dup2\n        /* \"#utility.yul\":17910:17930   */\n      sub\n        /* \"#utility.yul\":17906:17907   */\n      0x00\n        /* \"#utility.yul\":17895:17904   */\n      dup4\n        /* \"#utility.yul\":17891:17908   */\n      add\n        /* \"#utility.yul\":17884:17931   */\n      mstore\n        /* \"#utility.yul\":17948:18079   */\n      tag_390\n        /* \"#utility.yul\":18074:18078   */\n      dup2\n        /* \"#utility.yul\":17948:18079   */\n      tag_182\n      jump\t// in\n    tag_390:\n        /* \"#utility.yul\":17940:18079   */\n      swap1\n      pop\n        /* \"#utility.yul\":17667:18086   */\n      swap2\n      swap1\n      pop\n      jump\t// out\n        /* \"#utility.yul\":18092:18259   */\n    tag_183:\n        /* \"#utility.yul\":18232:18251   */\n      0x596f7520616c726561647920766f746564000000000000000000000000000000\n        /* \"#utility.yul\":18228:18229   */\n      0x00\n        /* \"#utility.yul\":18220:18226   */\n      dup3\n        /* \"#utility.yul\":18216:18230   */\n      add\n        /* \"#utility.yul\":18209:18252   */\n      mstore\n        /* \"#utility.yul\":18092:18259   */\n      pop\n      jump\t// out\n        /* \"#utility.yul\":18265:18631   */\n    tag_184:\n        /* \"#utility.yul\":18407:18410   */\n      0x00\n        /* \"#utility.yul\":18428:18495   */\n      tag_393\n        /* \"#utility.yul\":18492:18494   */\n      0x11\n        /* \"#utility.yul\":18487:18490   */\n      dup4\n        /* \"#utility.yul\":18428:18495   */\n      tag_133\n      jump\t// in\n    tag_393:\n        /* \"#utility.yul\":18421:18495   */\n      swap2\n      pop\n        /* \"#utility.yul\":18504:18597   */\n      tag_394\n        /* \"#utility.yul\":18593:18596   */\n      dup3\n        /* \"#utility.yul\":18504:18597   */\n      tag_183\n      jump\t// in\n    tag_394:\n        /* \"#utility.yul\":18622:18624   */\n      0x20\n        /* \"#utility.yul\":18617:18620   */\n      dup3\n        /* \"#utility.yul\":18613:18625   */\n      add\n        /* \"#utility.yul\":18606:18625   */\n      swap1\n      pop\n        /* \"#utility.yul\":18265:18631   */\n      swap2\n      swap1\n      pop\n      jump\t// out\n        /* \"#utility.yul\":18637:19056   */\n    tag_77:\n        /* \"#utility.yul\":18803:18807   */\n      0x00\n        /* \"#utility.yul\":18841:18843   */\n      0x20\n        /* \"#utility.yul\":18830:18839   */\n      dup3\n        /* \"#utility.yul\":18826:18844   */\n      add\n        /* \"#utility.yul\":18818:18844   */\n      swap1\n      pop\n        /* \"#utility.yul\":18890:18899   */\n      dup2\n        /* \"#utility.yul\":18884:18888   */\n      dup2\n        /* \"#utility.yul\":18880:18900   */\n      sub\n        /* \"#utility.yul\":18876:18877   */\n      0x00\n        /* \"#utility.yul\":18865:18874   */\n      dup4\n        /* \"#utility.yul\":18861:18878   */\n      add\n        /* \"#utility.yul\":18854:18901   */\n      mstore\n        /* \"#utility.yul\":18918:19049   */\n      tag_396\n        /* \"#utility.yul\":19044:19048   */\n      dup2\n        /* \"#utility.yul\":18918:19049   */\n      tag_184\n      jump\t// in\n    tag_396:\n        /* \"#utility.yul\":18910:19049   */\n      swap1\n      pop\n        /* \"#utility.yul\":18637:19056   */\n      swap2\n      swap1\n      pop\n      jump\t// out\n        /* \"#utility.yul\":19062:19242   */\n    tag_185:\n        /* \"#utility.yul\":19110:19187   */\n      0x4e487b7100000000000000000000000000000000000000000000000000000000\n        /* \"#utility.yul\":19107:19108   */\n      0x00\n        /* \"#utility.yul\":19100:19188   */\n      mstore\n        /* \"#utility.yul\":19207:19211   */\n      0x11\n        /* \"#utility.yul\":19204:19205   */\n      0x04\n        /* \"#utility.yul\":19197:19212   */\n      mstore\n        /* \"#utility.yul\":19231:19235   */\n      0x24\n        /* \"#utility.yul\":19228:19229   */\n      0x00\n        /* \"#utility.yul\":19221:19236   */\n      revert\n        /* \"#utility.yul\":19248:19453   */\n    tag_85:\n        /* \"#utility.yul\":19287:19290   */\n      0x00\n        /* \"#utility.yul\":19306:19325   */\n      tag_399\n        /* \"#utility.yul\":19323:19324   */\n      dup3\n        /* \"#utility.yul\":19306:19325   */\n      tag_127\n      jump\t// in\n    tag_399:\n        /* \"#utility.yul\":19301:19325   */\n      swap2\n      pop\n        /* \"#utility.yul\":19339:19358   */\n      tag_400\n        /* \"#utility.yul\":19356:19357   */\n      dup4\n        /* \"#utility.yul\":19339:19358   */\n      tag_127\n      jump\t// in\n    tag_400:\n        /* \"#utility.yul\":19334:19358   */\n      swap3\n      pop\n        /* \"#utility.yul\":19381:19382   */\n      dup3\n        /* \"#utility.yul\":19378:19379   */\n      dup3\n        /* \"#utility.yul\":19374:19383   */\n      add\n        /* \"#utility.yul\":19367:19383   */\n      swap1\n      pop\n        /* \"#utility.yul\":19404:19422   */\n      0xffffffffffffffff\n        /* \"#utility.yul\":19399:19402   */\n      dup2\n        /* \"#utility.yul\":19396:19423   */\n      gt\n        /* \"#utility.yul\":19393:19446   */\n      iszero\n      tag_401\n      jumpi\n        /* \"#utility.yul\":19426:19444   */\n      tag_402\n      tag_185\n      jump\t// in\n    tag_402:\n        /* \"#utility.yul\":19393:19446   */\n    tag_401:\n        /* \"#utility.yul\":19248:19453   */\n      swap3\n      swap2\n      pop\n      pop\n      jump\t// out\n        /* \"#utility.yul\":19459:19623   */\n    tag_186:\n        /* \"#utility.yul\":19599:19615   */\n      0x456d707479207175657374696f6e000000000000000000000000000000000000\n        /* \"#utility.yul\":19595:19596   */\n      0x00\n        /* \"#utility.yul\":19587:19593   */\n      dup3\n        /* \"#utility.yul\":19583:19597   */\n      add\n        /* \"#utility.yul\":19576:19616   */\n      mstore\n        /* \"#utility.yul\":19459:19623   */\n      pop\n      jump\t// out\n        /* \"#utility.yul\":19629:19995   */\n    tag_187:\n        /* \"#utility.yul\":19771:19774   */\n      0x00\n        /* \"#utility.yul\":19792:19859   */\n      tag_405\n        /* \"#utility.yul\":19856:19858   */\n      0x0e\n        /* \"#utility.yul\":19851:19854   */\n      dup4\n        /* \"#utility.yul\":19792:19859   */\n      tag_133\n      jump\t// in\n    tag_405:\n        /* \"#utility.yul\":19785:19859   */\n      swap2\n      pop\n        /* \"#utility.yul\":19868:19961   */\n      tag_406\n        /* \"#utility.yul\":19957:19960   */\n      dup3\n        /* \"#utility.yul\":19868:19961   */\n      tag_186\n      jump\t// in\n    tag_406:\n        /* \"#utility.yul\":19986:19988   */\n      0x20\n        /* \"#utility.yul\":19981:19984   */\n      dup3\n        /* \"#utility.yul\":19977:19989   */\n      add\n        /* \"#utility.yul\":19970:19989   */\n      swap1\n      pop\n        /* \"#utility.yul\":19629:19995   */\n      swap2\n      swap1\n      pop\n      jump\t// out\n        /* \"#utility.yul\":20001:20420   */\n    tag_90:\n        /* \"#utility.yul\":20167:20171   */\n      0x00\n        /* \"#utility.yul\":20205:20207   */\n      0x20\n        /* \"#utility.yul\":20194:20203   */\n      dup3\n        /* \"#utility.yul\":20190:20208   */\n      add\n        /* \"#utility.yul\":20182:20208   */\n      swap1\n      pop\n        /* \"#utility.yul\":20254:20263   */\n      dup2\n        /* \"#utility.yul\":20248:20252   */\n      dup2\n        /* \"#utility.yul\":20244:20264   */\n      sub\n        /* \"#utility.yul\":20240:20241   */\n      0x00\n        /* \"#utility.yul\":20229:20238   */\n      dup4\n        /* \"#utility.yul\":20225:20242   */\n      add\n        /* \"#utility.yul\":20218:20265   */\n      mstore\n        /* \"#utility.yul\":20282:20413   */\n      tag_408\n        /* \"#utility.yul\":20408:20412   */\n      dup2\n        /* \"#utility.yul\":20282:20413   */\n      tag_187\n      jump\t// in\n    tag_408:\n        /* \"#utility.yul\":20274:20413   */\n      swap1\n      pop\n        /* \"#utility.yul\":20001:20420   */\n      swap2\n      swap1\n      pop\n      jump\t// out\n        /* \"#utility.yul\":20426:20603   */\n    tag_188:\n        /* \"#utility.yul\":20566:20595   */\n      0x4174206c656173742032206f7074696f6e732072657175697265640000000000\n        /* \"#utility.yul\":20562:20563   */\n      0x00\n        /* \"#utility.yul\":20554:20560   */\n      dup3\n        /* \"#utility.yul\":20550:20564   */\n      add\n        /* \"#utility.yul\":20543:20596   */\n      mstore\n        /* \"#utility.yul\":20426:20603   */\n      pop\n      jump\t// out\n        /* \"#utility.yul\":20609:20975   */\n    tag_189:\n        /* \"#utility.yul\":20751:20754   */\n      0x00\n        /* \"#utility.yul\":20772:20839   */\n      tag_411\n        /* \"#utility.yul\":20836:20838   */\n      0x1b\n        /* \"#utility.yul\":20831:20834   */\n      dup4\n        /* \"#utility.yul\":20772:20839   */\n      tag_133\n      jump\t// in\n    tag_411:\n        /* \"#utility.yul\":20765:20839   */\n      swap2\n      pop\n        /* \"#utility.yul\":20848:20941   */\n      tag_412\n        /* \"#utility.yul\":20937:20940   */\n      dup3\n        /* \"#utility.yul\":20848:20941   */\n      tag_188\n      jump\t// in\n    tag_412:\n        /* \"#utility.yul\":20966:20968   */\n      0x20\n        /* \"#utility.yul\":20961:20964   */\n      dup3\n        /* \"#utility.yul\":20957:20969   */\n      add\n        /* \"#utility.yul\":20950:20969   */\n      swap1\n      pop\n        /* \"#utility.yul\":20609:20975   */\n      swap2\n      swap1\n      pop\n      jump\t// out\n        /* \"#utility.yul\":20981:21400   */\n    tag_93:\n        /* \"#utility.yul\":21147:21151   */\n      0x00\n        /* \"#utility.yul\":21185:21187   */\n      0x20\n        /* \"#utility.yul\":21174:21183   */\n      dup3\n        /* \"#utility.yul\":21170:21188   */\n      add\n        /* \"#utility.yul\":21162:21188   */\n      swap1\n      pop\n        /* \"#utility.yul\":21234:21243   */\n      dup2\n        /* \"#utility.yul\":21228:21232   */\n      dup2\n        /* \"#utility.yul\":21224:21244   */\n      sub\n        /* \"#utility.yul\":21220:21221   */\n      0x00\n        /* \"#utility.yul\":21209:21218   */\n      dup4\n        /* \"#utility.yul\":21205:21222   */\n      add\n        /* \"#utility.yul\":21198:21245   */\n      mstore\n        /* \"#utility.yul\":21262:21393   */\n      tag_414\n        /* \"#utility.yul\":21388:21392   */\n      dup2\n        /* \"#utility.yul\":21262:21393   */\n      tag_189\n      jump\t// in\n    tag_414:\n        /* \"#utility.yul\":21254:21393   */\n      swap1\n      pop\n        /* \"#utility.yul\":20981:21400   */\n      swap2\n      swap1\n      pop\n      jump\t// out\n        /* \"#utility.yul\":21406:21547   */\n    tag_190:\n        /* \"#utility.yul\":21455:21459   */\n      0x00\n        /* \"#utility.yul\":21478:21481   */\n      dup2\n        /* \"#utility.yul\":21470:21481   */\n      swap1\n      pop\n        /* \"#utility.yul\":21501:21504   */\n      dup2\n        /* \"#utility.yul\":21498:21499   */\n      0x00\n        /* \"#utility.yul\":21491:21505   */\n      mstore\n        /* \"#utility.yul\":21535:21539   */\n      0x20\n        /* \"#utility.yul\":21532:21533   */\n      0x00\n        /* \"#utility.yul\":21522:21540   */\n      keccak256\n        /* \"#utility.yul\":21514:21540   */\n      swap1\n      pop\n        /* \"#utility.yul\":21406:21547   */\n      swap2\n      swap1\n      pop\n      jump\t// out\n        /* \"#utility.yul\":21553:21646   */\n    tag_191:\n        /* \"#utility.yul\":21590:21596   */\n      0x00\n        /* \"#utility.yul\":21637:21639   */\n      0x20\n        /* \"#utility.yul\":21632:21634   */\n      0x1f\n        /* \"#utility.yul\":21625:21630   */\n      dup4\n        /* \"#utility.yul\":21621:21635   */\n      add\n        /* \"#utility.yul\":21617:21640   */\n      div\n        /* \"#utility.yul\":21607:21640   */\n      swap1\n      pop\n        /* \"#utility.yul\":21553:21646   */\n      swap2\n      swap1\n      pop\n      jump\t// out\n        /* \"#utility.yul\":21652:21759   */\n    tag_192:\n        /* \"#utility.yul\":21696:21704   */\n      0x00\n        /* \"#utility.yul\":21746:21751   */\n      dup3\n        /* \"#utility.yul\":21740:21744   */\n      dup3\n        /* \"#utility.yul\":21736:21752   */\n      shl\n        /* \"#utility.yul\":21715:21752   */\n      swap1\n      pop\n        /* \"#utility.yul\":21652:21759   */\n      swap3\n      swap2\n      pop\n      pop\n      jump\t// out\n        /* \"#utility.yul\":21765:22158   */\n    tag_193:\n        /* \"#utility.yul\":21834:21840   */\n      0x00\n        /* \"#utility.yul\":21884:21885   */\n      0x08\n        /* \"#utility.yul\":21872:21882   */\n      dup4\n        /* \"#utility.yul\":21868:21886   */\n      mul\n        /* \"#utility.yul\":21907:22004   */\n      tag_419\n        /* \"#utility.yul\":21937:22003   */\n      0xffffffffffffffffffffffffffffffffffffffffffffffffffffffffffffffff\n        /* \"#utility.yul\":21926:21935   */\n      dup3\n        /* \"#utility.yul\":21907:22004   */\n      tag_192\n      jump\t// in\n    tag_419:\n        /* \"#utility.yul\":22025:22064   */\n      tag_420\n        /* \"#utility.yul\":22055:22063   */\n      dup7\n        /* \"#utility.yul\":22044:22053   */\n      dup4\n        /* \"#utility.yul\":22025:22064   */\n      tag_192\n      jump\t// in\n    tag_420:\n        /* \"#utility.yul\":22013:22064   */\n      swap6\n      pop\n        /* \"#utility.yul\":22097:22101   */\n      dup1\n        /* \"#utility.yul\":22093:22102   */\n      not\n        /* \"#utility.yul\":22086:22091   */\n      dup5\n        /* \"#utility.yul\":22082:22103   */\n      and\n        /* \"#utility.yul\":22073:22103   */\n      swap4\n      pop\n        /* \"#utility.yul\":22146:22150   */\n      dup1\n        /* \"#utility.yul\":22136:22144   */\n      dup7\n        /* \"#utility.yul\":22132:22151   */\n      and\n        /* \"#utility.yul\":22125:22130   */\n      dup5\n        /* \"#utility.yul\":22122:22152   */\n      or\n        /* \"#utility.yul\":22112:22152   */\n      swap3\n      pop\n        /* \"#utility.yul\":21841:22158   */\n      pop\n      pop\n        /* \"#utility.yul\":21765:22158   */\n      swap4\n      swap3\n      pop\n      pop\n      pop\n      jump\t// out\n        /* \"#utility.yul\":22164:22224   */\n    tag_194:\n        /* \"#utility.yul\":22192:22195   */\n      0x00\n        /* \"#utility.yul\":22213:22218   */\n      dup2\n        /* \"#utility.yul\":22206:22218   */\n      swap1\n      pop\n        /* \"#utility.yul\":22164:22224   */\n      swap2\n      swap1\n      pop\n      jump\t// out\n        /* \"#utility.yul\":22230:22372   */\n    tag_195:\n        /* \"#utility.yul\":22280:22289   */\n      0x00\n        /* \"#utility.yul\":22313:22366   */\n      tag_423\n        /* \"#utility.yul\":22331:22365   */\n      tag_424\n        /* \"#utility.yul\":22340:22364   */\n      tag_425\n        /* \"#utility.yul\":22358:22363   */\n      dup5\n        /* \"#utility.yul\":22340:22364   */\n      tag_130\n      jump\t// in\n    tag_425:\n        /* \"#utility.yul\":22331:22365   */\n      tag_194\n      jump\t// in\n    tag_424:\n        /* \"#utility.yul\":22313:22366   */\n      tag_130\n      jump\t// in\n    tag_423:\n        /* \"#utility.yul\":22300:22366   */\n      swap1\n      pop\n        /* \"#utility.yul\":22230:22372   */\n      swap2\n      swap1\n      pop\n      jump\t// out\n        /* \"#utility.yul\":22378:22453   */\n    tag_196:\n        /* \"#utility.yul\":22421:22424   */\n      0x00\n        /* \"#utility.yul\":22442:22447   */\n      dup2\n        /* \"#utility.yul\":22435:22447   */\n      swap1\n      pop\n        /* \"#utility.yul\":22378:22453   */\n      swap2\n      swap1\n      pop\n      jump\t// out\n        /* \"#utility.yul\":22459:22728   */\n    tag_197:\n        /* \"#utility.yul\":22569:22608   */\n      tag_428\n        /* \"#utility.yul\":22600:22607   */\n      dup4\n        /* \"#utility.yul\":22569:22608   */\n      tag_195\n      jump\t// in\n    tag_428:\n        /* \"#utility.yul\":22630:22721   */\n      tag_429\n        /* \"#utility.yul\":22679:22720   */\n      tag_430\n        /* \"#utility.yul\":22703:22719   */\n      dup3\n        /* \"#utility.yul\":22679:22720   */\n      tag_196\n      jump\t// in\n    tag_430:\n        /* \"#utility.yul\":22671:22677   */\n      dup5\n        /* \"#utility.yul\":22664:22668   */\n      dup5\n        /* \"#utility.yul\":22658:22669   */\n      sload\n        /* \"#utility.yul\":22630:22721   */\n      tag_193\n      jump\t// in\n    tag_429:\n        /* \"#utility.yul\":22624:22628   */\n      dup3\n        /* \"#utility.yul\":22617:22722   */\n      sstore\n        /* \"#utility.yul\":22535:22728   */\n      pop\n        /* \"#utility.yul\":22459:22728   */\n      pop\n      pop\n      pop\n      jump\t// out\n        /* \"#utility.yul\":22734:22807   */\n    tag_198:\n        /* \"#utility.yul\":22779:22782   */\n      0x00\n        /* \"#utility.yul\":22734:22807   */\n      swap1\n      jump\t// out\n        /* \"#utility.yul\":22813:23002   */\n    tag_199:\n        /* \"#utility.yul\":22890:22922   */\n      tag_433\n      tag_198\n      jump\t// in\n    tag_433:\n        /* \"#utility.yul\":22931:22996   */\n      tag_434\n        /* \"#utility.yul\":22989:22995   */\n      dup2\n        /* \"#utility.yul\":22981:22987   */\n      dup5\n        /* \"#utility.yul\":22975:22979   */\n      dup5\n        /* \"#utility.yul\":22931:22996   */\n      tag_197\n      jump\t// in\n    tag_434:\n        /* \"#utility.yul\":22866:23002   */\n      pop\n        /* \"#utility.yul\":22813:23002   */\n      pop\n      pop\n      jump\t// out\n        /* \"#utility.yul\":23008:23194   */\n    tag_200:\n        /* \"#utility.yul\":23068:23188   */\n    tag_436:\n        /* \"#utility.yul\":23085:23088   */\n      dup2\n        /* \"#utility.yul\":23078:23083   */\n      dup2\n        /* \"#utility.yul\":23075:23089   */\n      lt\n        /* \"#utility.yul\":23068:23188   */\n      iszero\n      tag_438\n      jumpi\n        /* \"#utility.yul\":23139:23178   */\n      tag_439\n        /* \"#utility.yul\":23176:23177   */\n      0x00\n        /* \"#utility.yul\":23169:23174   */\n      dup3\n        /* \"#utility.yul\":23139:23178   */\n      tag_199\n      jump\t// in\n    tag_439:\n        /* \"#utility.yul\":23112:23113   */\n      0x01\n        /* \"#utility.yul\":23105:23110   */\n      dup2\n        /* \"#utility.yul\":23101:23114   */\n      add\n        /* \"#utility.yul\":23092:23114   */\n      swap1\n      pop\n        /* \"#utility.yul\":23068:23188   */\n      jump(tag_436)\n    tag_438:\n        /* \"#utility.yul\":23008:23194   */\n      pop\n      pop\n      jump\t// out\n        /* \"#utility.yul\":23200:23743   */\n    tag_201:\n        /* \"#utility.yul\":23301:23303   */\n      0x1f\n        /* \"#utility.yul\":23296:23299   */\n      dup3\n        /* \"#utility.yul\":23293:23304   */\n      gt\n        /* \"#utility.yul\":23290:23736   */\n      iszero\n      tag_441\n      jumpi\n        /* \"#utility.yul\":23335:23373   */\n      tag_442\n        /* \"#utility.yul\":23367:23372   */\n      dup2\n        /* \"#utility.yul\":23335:23373   */\n      tag_190\n      jump\t// in\n    tag_442:\n        /* \"#utility.yul\":23419:23448   */\n      tag_443\n        /* \"#utility.yul\":23437:23447   */\n      dup5\n        /* \"#utility.yul\":23419:23448   */\n      tag_191\n      jump\t// in\n    tag_443:\n        /* \"#utility.yul\":23409:23417   */\n      dup2\n        /* \"#utility.yul\":23405:23449   */\n      add\n        /* \"#utility.yul\":23602:23604   */\n      0x20\n        /* \"#utility.yul\":23590:23600   */\n      dup6\n        /* \"#utility.yul\":23587:23605   */\n      lt\n        /* \"#utility.yul\":23584:23633   */\n      iszero\n      tag_444\n      jumpi\n        /* \"#utility.yul\":23623:23631   */\n      dup2\n        /* \"#utility.yul\":23608:23631   */\n      swap1\n      pop\n        /* \"#utility.yul\":23584:23633   */\n    tag_444:\n        /* \"#utility.yul\":23646:23726   */\n      tag_445\n        /* \"#utility.yul\":23702:23724   */\n      tag_446\n        /* \"#utility.yul\":23720:23723   */\n      dup6\n        /* \"#utility.yul\":23702:23724   */\n      tag_191\n      jump\t// in\n    tag_446:\n        /* \"#utility.yul\":23692:23700   */\n      dup4\n        /* \"#utility.yul\":23688:23725   */\n      add\n        /* \"#utility.yul\":23675:23686   */\n      dup3\n        /* \"#utility.yul\":23646:23726   */\n      tag_200\n      jump\t// in\n    tag_445:\n        /* \"#utility.yul\":23305:23736   */\n      pop\n      pop\n        /* \"#utility.yul\":23290:23736   */\n    tag_441:\n        /* \"#utility.yul\":23200:23743   */\n      pop\n      pop\n      pop\n      jump\t// out\n        /* \"#utility.yul\":23749:23866   */\n    tag_202:\n        /* \"#utility.yul\":23803:23811   */\n      0x00\n        /* \"#utility.yul\":23853:23858   */\n      dup3\n        /* \"#utility.yul\":23847:23851   */\n      dup3\n        /* \"#utility.yul\":23843:23859   */\n      shr\n        /* \"#utility.yul\":23822:23859   */\n      swap1\n      pop\n        /* \"#utility.yul\":23749:23866   */\n      swap3\n      swap2\n      pop\n      pop\n      jump\t// out\n        /* \"#utility.yul\":23872:24041   */\n    tag_203:\n        /* \"#utility.yul\":23916:23922   */\n      0x00\n        /* \"#utility.yul\":23949:24000   */\n      tag_449\n        /* \"#utility.yul\":23997:23998   */\n      0x00\n        /* \"#utility.yul\":23993:23999   */\n      not\n        /* \"#utility.yul\":23985:23990   */\n      dup5\n        /* \"#utility.yul\":23982:23983   */\n      0x08\n        /* \"#utility.yul\":23978:23991   */\n      mul\n        /* \"#utility.yul\":23949:24000   */\n      tag_202\n      jump\t// in\n    tag_449:\n        /* \"#utility.yul\":23945:24001   */\n      not\n        /* \"#utility.yul\":24030:24034   */\n      dup1\n        /* \"#utility.yul\":24024:24028   */\n      dup4\n        /* \"#utility.yul\":24020:24035   */\n      and\n        /* \"#utility.yul\":24010:24035   */\n      swap2\n      pop\n        /* \"#utility.yul\":23923:24041   */\n      pop\n        /* \"#utility.yul\":23872:24041   */\n      swap3\n      swap2\n      pop\n      pop\n      jump\t// out\n        /* \"#utility.yul\":24046:24341   */\n    tag_204:\n        /* \"#utility.yul\":24122:24126   */\n      0x00\n        /* \"#utility.yul\":24268:24297   */\n      tag_451\n        /* \"#utility.yul\":24293:24296   */\n      dup4\n        /* \"#utility.yul\":24287:24291   */\n      dup4\n        /* \"#utility.yul\":24268:24297   */\n      tag_203\n      jump\t// in\n    tag_451:\n        /* \"#utility.yul\":24260:24297   */\n      swap2\n      pop\n        /* \"#utility.yul\":24330:24333   */\n      dup3\n        /* \"#utility.yul\":24327:24328   */\n      0x02\n        /* \"#utility.yul\":24323:24334   */\n      mul\n        /* \"#utility.yul\":24317:24321   */\n      dup3\n        /* \"#utility.yul\":24314:24335   */\n      or\n        /* \"#utility.yul\":24306:24335   */\n      swap1\n      pop\n        /* \"#utility.yul\":24046:24341   */\n      swap3\n      swap2\n      pop\n      pop\n      jump\t// out\n        /* \"#utility.yul\":24346:25741   */\n    tag_100:\n        /* \"#utility.yul\":24463:24500   */\n      tag_453\n        /* \"#utility.yul\":24496:24499   */\n      dup3\n        /* \"#utility.yul\":24463:24500   */\n      tag_132\n      jump\t// in\n    tag_453:\n        /* \"#utility.yul\":24565:24583   */\n      0xffffffffffffffff\n        /* \"#utility.yul\":24557:24563   */\n      dup2\n        /* \"#utility.yul\":24554:24584   */\n      gt\n        /* \"#utility.yul\":24551:24607   */\n      iszero\n      tag_454\n      jumpi\n        /* \"#utility.yul\":24587:24605   */\n      tag_455\n      tag_96\n      jump\t// in\n    tag_455:\n        /* \"#utility.yul\":24551:24607   */\n    tag_454:\n        /* \"#utility.yul\":24631:24669   */\n      tag_456\n        /* \"#utility.yul\":24663:24667   */\n      dup3\n        /* \"#utility.yul\":24657:24668   */\n      sload\n        /* \"#utility.yul\":24631:24669   */\n      tag_50\n      jump\t// in\n    tag_456:\n        /* \"#utility.yul\":24716:24783   */\n      tag_457\n        /* \"#utility.yul\":24776:24782   */\n      dup3\n        /* \"#utility.yul\":24768:24774   */\n      dup3\n        /* \"#utility.yul\":24762:24766   */\n      dup6\n        /* \"#utility.yul\":24716:24783   */\n      tag_201\n      jump\t// in\n    tag_457:\n        /* \"#utility.yul\":24810:24811   */\n      0x00\n        /* \"#utility.yul\":24834:24838   */\n      0x20\n        /* \"#utility.yul\":24821:24838   */\n      swap1\n      pop\n        /* \"#utility.yul\":24866:24868   */\n      0x1f\n        /* \"#utility.yul\":24858:24864   */\n      dup4\n        /* \"#utility.yul\":24855:24869   */\n      gt\n        /* \"#utility.yul\":24883:24884   */\n      0x01\n        /* \"#utility.yul\":24878:25496   */\n      dup2\n      eq\n      tag_459\n      jumpi\n        /* \"#utility.yul\":25540:25541   */\n      0x00\n        /* \"#utility.yul\":25557:25563   */\n      dup5\n        /* \"#utility.yul\":25554:25631   */\n      iszero\n      tag_460\n      jumpi\n        /* \"#utility.yul\":25606:25615   */\n      dup3\n        /* \"#utility.yul\":25601:25604   */\n      dup8\n        /* \"#utility.yul\":25597:25616   */\n      add\n        /* \"#utility.yul\":25591:25617   */\n      mload\n        /* \"#utility.yul\":25582:25617   */\n      swap1\n      pop\n        /* \"#utility.yul\":25554:25631   */\n    tag_460:\n        /* \"#utility.yul\":25657:25724   */\n      tag_461\n        /* \"#utility.yul\":25717:25723   */\n      dup6\n        /* \"#utility.yul\":25710:25715   */\n      dup3\n        /* \"#utility.yul\":25657:25724   */\n      tag_204\n      jump\t// in\n    tag_461:\n        /* \"#utility.yul\":25651:25655   */\n      dup7\n        /* \"#utility.yul\":25644:25725   */\n      sstore\n        /* \"#utility.yul\":25513:25735   */\n      pop\n        /* \"#utility.yul\":24848:25735   */\n      jump(tag_458)\n        /* \"#utility.yul\":24878:25496   */\n    tag_459:\n        /* \"#utility.yul\":24930:24934   */\n      0x1f\n        /* \"#utility.yul\":24926:24935   */\n      not\n        /* \"#utility.yul\":24918:24924   */\n      dup5\n        /* \"#utility.yul\":24914:24936   */\n      and\n        /* \"#utility.yul\":24964:25001   */\n      tag_462\n        /* \"#utility.yul\":24996:25000   */\n      dup7\n        /* \"#utility.yul\":24964:25001   */\n      tag_190\n      jump\t// in\n    tag_462:\n        /* \"#utility.yul\":25023:25024   */\n      0x00\n        /* \"#utility.yul\":25037:25245   */\n    tag_463:\n        /* \"#utility.yul\":25051:25058   */\n      dup3\n        /* \"#utility.yul\":25048:25049   */\n      dup2\n        /* \"#utility.yul\":25045:25059   */\n      lt\n        /* \"#utility.yul\":25037:25245   */\n      iszero\n      tag_465\n      jumpi\n        /* \"#utility.yul\":25130:25139   */\n      dup5\n        /* \"#utility.yul\":25125:25128   */\n      dup10\n        /* \"#utility.yul\":25121:25140   */\n      add\n        /* \"#utility.yul\":25115:25141   */\n      mload\n        /* \"#utility.yul\":25107:25113   */\n      dup3\n        /* \"#utility.yul\":25100:25142   */\n      sstore\n        /* \"#utility.yul\":25181:25182   */\n      0x01\n        /* \"#utility.yul\":25173:25179   */\n      dup3\n        /* \"#utility.yul\":25169:25183   */\n      add\n        /* \"#utility.yul\":25159:25183   */\n      swap2\n      pop\n        /* \"#utility.yul\":25228:25230   */\n      0x20\n        /* \"#utility.yul\":25217:25226   */\n      dup6\n        /* \"#utility.yul\":25213:25231   */\n      add\n        /* \"#utility.yul\":25200:25231   */\n      swap5\n      pop\n        /* \"#utility.yul\":25074:25078   */\n      0x20\n        /* \"#utility.yul\":25071:25072   */\n      dup2\n        /* \"#utility.yul\":25067:25079   */\n      add\n        /* \"#utility.yul\":25062:25079   */\n      swap1\n      pop\n        /* \"#utility.yul\":25037:25245   */\n      jump(tag_463)\n    tag_465:\n        /* \"#utility.yul\":25273:25279   */\n      dup7\n        /* \"#utility.yul\":25264:25271   */\n      dup4\n        /* \"#utility.yul\":25261:25280   */\n      lt\n        /* \"#utility.yul\":25258:25437   */\n      iszero\n      tag_466\n      jumpi\n        /* \"#utility.yul\":25331:25340   */\n      dup5\n        /* \"#utility.yul\":25326:25329   */\n      dup10\n        /* \"#utility.yul\":25322:25341   */\n      add\n        /* \"#utility.yul\":25316:25342   */\n      mload\n        /* \"#utility.yul\":25374:25422   */\n      tag_467\n        /* \"#utility.yul\":25416:25420   */\n      0x1f\n        /* \"#utility.yul\":25408:25414   */\n      dup10\n        /* \"#utility.yul\":25404:25421   */\n      and\n        /* \"#utility.yul\":25393:25402   */\n      dup3\n        /* \"#utility.yul\":25374:25422   */\n      tag_203\n      jump\t// in\n    tag_467:\n        /* \"#utility.yul\":25366:25372   */\n      dup4\n        /* \"#utility.yul\":25359:25423   */\n      sstore\n        /* \"#utility.yul\":25281:25437   */\n      pop\n        /* \"#utility.yul\":25258:25437   */\n    tag_466:\n        /* \"#utility.yul\":25483:25484   */\n      0x01\n        /* \"#utility.yul\":25479:25480   */\n      0x02\n        /* \"#utility.yul\":25471:25477   */\n      dup9\n        /* \"#utility.yul\":25467:25481   */\n      mul\n        /* \"#utility.yul\":25463:25485   */\n      add\n        /* \"#utility.yul\":25457:25461   */\n      dup9\n        /* \"#utility.yul\":25450:25486   */\n      sstore\n        /* \"#utility.yul\":24885:25496   */\n      pop\n      pop\n      pop\n        /* \"#utility.yul\":24848:25735   */\n    tag_458:\n      pop\n        /* \"#utility.yul\":24438:25741   */\n      pop\n      pop\n      pop\n        /* \"#utility.yul\":24346:25741   */\n      pop\n      pop\n      jump\t// out\n\n    auxdata: 0xa264697066735822122098ff98862245d859f9b5f41a66ddf08f4247b1a409e7a1bfeb2e1a9caf03396c64736f6c63430008100033\n}\n",
				"bytecode": {
					"linkReferences": {},
					"object": "608060405234801561001057600080fd5b506118f0806100206000396000f3fe608060405234801561001057600080fd5b506004361061004c5760003560e01c8063157bd75d146100515780633d51e9d9146100855780637ba91041146100a1578063d4f50f98146100bd575b600080fd5b61006b60048036038101906100669190610bc3565b6100ee565b60405161007c959493929190610e1f565b60405180910390f35b61009f600480360381019061009a9190610e8e565b61044f565b005b6100bb60048036038101906100b691906110f7565b61077e565b005b6100d760048036038101906100d291906111fc565b610928565b6040516100e59291906112f6565b60405180910390f35b6000606080606080856000805490508167ffffffffffffffff16108015610120575060008167ffffffffffffffff1610155b61015f576040517f08c379a000000000000000000000000000000000000000000000000000000000815260040161015690611372565b60405180910390fd5b60008767ffffffffffffffff168154811061017d5761017c611392565b5b90600052602060002090600502016000015460008867ffffffffffffffff16815481106101ad576101ac611392565b5b906000526020600020906005020160010160008967ffffffffffffffff16815481106101dc576101db611392565b5b906000526020600020906005020160020160008a67ffffffffffffffff168154811061020b5761020a611392565b5b906000526020600020906005020160030160008b67ffffffffffffffff168154811061023a57610239611392565b5b9060005260206000209060050201600401838054610257906113f0565b80601f0160208091040260200160405190810160405280929190818152602001828054610283906113f0565b80156102d05780601f106102a5576101008083540402835291602001916102d0565b820191906000526020600020905b8154815290600101906020018083116102b357829003601f168201915b505050505093508280546102e3906113f0565b80601f016020809104026020016040519081016040528092919081815260200182805461030f906113f0565b801561035c5780601f106103315761010080835404028352916020019161035c565b820191906000526020600020905b81548152906001019060200180831161033f57829003601f168201915b50505050509250818054806020026020016040519081016040528092919081815260200182805480156103e257602002820191906000526020600020906000905b82829054906101000a900467ffffffffffffffff1667ffffffffffffffff168152602001906008019060208260070104928301926001038202915080841161039d5790505b505050505091508080548060200260200160405190810160405280929190818152602001828054801561043457602002820191906000526020600020905b815481526020019060010190808311610420575b50505050509050955095509550955095505091939590929450565b816000805490508167ffffffffffffffff16108015610479575060008167ffffffffffffffff1610155b6104b8576040517f08c379a00000000000000000000000000000000000000000000000000000000081526004016104af90611372565b60405180910390fd5b60008367ffffffffffffffff16815481106104d6576104d5611392565b5b9060005260206000209060050201600401805490508267ffffffffffffffff1610610536576040517f08c379a000000000000000000000000000000000000000000000000000000000815260040161052d9061146d565b60405180910390fd5b60001515600160003373ffffffffffffffffffffffffffffffffffffffff1673ffffffffffffffffffffffffffffffffffffffff16815260200190815260200160002060020160008567ffffffffffffffff16815260200190815260200160002060009054906101000a900460ff161515146105e7576040517f08c379a00000000000000000000000000000000000000000000000000000000081526004016105de906114d9565b60405180910390fd5b600160008467ffffffffffffffff168154811061060757610606611392565b5b90600052602060002090600502016003018367ffffffffffffffff168154811061063457610633611392565b5b90600052602060002090600491828204019190066008028282829054906101000a900467ffffffffffffffff1661066b9190611528565b92506101000a81548167ffffffffffffffff021916908367ffffffffffffffff160217905550600160003373ffffffffffffffffffffffffffffffffffffffff1673ffffffffffffffffffffffffffffffffffffffff16815260200190815260200160002060010183908060018154018082558091505060019003906000526020600020016000909167ffffffffffffffff1690919091505560018060003373ffffffffffffffffffffffffffffffffffffffff1673ffffffffffffffffffffffffffffffffffffffff16815260200190815260200160002060020160008567ffffffffffffffff16815260200190815260200160002060006101000a81548160ff021916908315150217905550505050565b60008351116107c2576040517f08c379a00000000000000000000000000000000000000000000000000000000081526004016107b9906115b0565b60405180910390fd5b6001815111610806576040517f08c379a00000000000000000000000000000000000000000000000000000000081526004016107fd9061161c565b60405180910390fd5b60008080549050905060006040518060a00160405280838152602001868152602001858152602001845167ffffffffffffffff81111561084957610848610ed8565b5b6040519080825280602002602001820160405280156108775781602001602082028036833780820191505090505b50815260200184815250905060008190806001815401808255809150506001900390600052602060002090600502016000909190919091506000820151816000015560208201518160010190816108ce91906117e8565b5060408201518160020190816108e491906117e8565b506060820151816003019080519060200190610901929190610a2c565b50608082015181600401908051906020019061091e929190610ae8565b5050505050505050565b60006060600160008473ffffffffffffffffffffffffffffffffffffffff1673ffffffffffffffffffffffffffffffffffffffff16815260200190815260200160002060000160009054906101000a900473ffffffffffffffffffffffffffffffffffffffff16600160008573ffffffffffffffffffffffffffffffffffffffff1673ffffffffffffffffffffffffffffffffffffffff16815260200190815260200160002060010180805480602002602001604051908101604052809291908181526020018280548015610a1c57602002820191906000526020600020905b815481526020019060010190808311610a08575b5050505050905091509150915091565b82805482825590600052602060002090600301600490048101928215610ad75791602002820160005b83821115610aa157835183826101000a81548167ffffffffffffffff021916908367ffffffffffffffff1602179055509260200192600801602081600701049283019260010302610a55565b8015610ad55782816101000a81549067ffffffffffffffff0219169055600801602081600701049283019260010302610aa1565b505b509050610ae49190610b35565b5090565b828054828255906000526020600020908101928215610b24579160200282015b82811115610b23578251825591602001919060010190610b08565b5b509050610b319190610b52565b5090565b5b80821115610b4e576000816000905550600101610b36565b5090565b5b80821115610b6b576000816000905550600101610b53565b5090565b6000604051905090565b600080fd5b600080fd5b600067ffffffffffffffff82169050919050565b610ba081610b83565b8114610bab57600080fd5b50565b600081359050610bbd81610b97565b92915050565b600060208284031215610bd957610bd8610b79565b5b6000610be784828501610bae565b91505092915050565b6000819050919050565b610c0381610bf0565b82525050565b600081519050919050565b600082825260208201905092915050565b60005b83811015610c43578082015181840152602081019050610c28565b60008484015250505050565b6000601f19601f8301169050919050565b6000610c6b82610c09565b610c758185610c14565b9350610c85818560208601610c25565b610c8e81610c4f565b840191505092915050565b600081519050919050565b600082825260208201905092915050565b6000819050602082019050919050565b610cce81610b83565b82525050565b6000610ce08383610cc5565b60208301905092915050565b6000602082019050919050565b6000610d0482610c99565b610d0e8185610ca4565b9350610d1983610cb5565b8060005b83811015610d4a578151610d318882610cd4565b9750610d3c83610cec565b925050600181019050610d1d565b5085935050505092915050565b600081519050919050565b600082825260208201905092915050565b6000819050602082019050919050565b6000819050919050565b610d9681610d83565b82525050565b6000610da88383610d8d565b60208301905092915050565b6000602082019050919050565b6000610dcc82610d57565b610dd68185610d62565b9350610de183610d73565b8060005b83811015610e12578151610df98882610d9c565b9750610e0483610db4565b925050600181019050610de5565b5085935050505092915050565b600060a082019050610e346000830188610bfa565b8181036020830152610e468187610c60565b90508181036040830152610e5a8186610c60565b90508181036060830152610e6e8185610cf9565b90508181036080830152610e828184610dc1565b90509695505050505050565b60008060408385031215610ea557610ea4610b79565b5b6000610eb385828601610bae565b9250506020610ec485828601610bae565b9150509250929050565b600080fd5b600080fd5b7f4e487b7100000000000000000000000000000000000000000000000000000000600052604160045260246000fd5b610f1082610c4f565b810181811067ffffffffffffffff82111715610f2f57610f2e610ed8565b5b80604052505050565b6000610f42610b6f565b9050610f4e8282610f07565b919050565b600067ffffffffffffffff821115610f6e57610f6d610ed8565b5b610f7782610c4f565b9050602081019050919050565b82818337600083830152505050565b6000610fa6610fa184610f53565b610f38565b905082815260208101848484011115610fc257610fc1610ed3565b5b610fcd848285610f84565b509392505050565b600082601f830112610fea57610fe9610ece565b5b8135610ffa848260208601610f93565b91505092915050565b600067ffffffffffffffff82111561101e5761101d610ed8565b5b602082029050602081019050919050565b600080fd5b61103d81610d83565b811461104857600080fd5b50565b60008135905061105a81611034565b92915050565b600061107361106e84611003565b610f38565b905080838252602082019050602084028301858111156110965761109561102f565b5b835b818110156110bf57806110ab888261104b565b845260208401935050602081019050611098565b5050509392505050565b600082601f8301126110de576110dd610ece565b5b81356110ee848260208601611060565b91505092915050565b6000806000606084860312156111105761110f610b79565b5b600084013567ffffffffffffffff81111561112e5761112d610b7e565b5b61113a86828701610fd5565b935050602084013567ffffffffffffffff81111561115b5761115a610b7e565b5b61116786828701610fd5565b925050604084013567ffffffffffffffff81111561118857611187610b7e565b5b611194868287016110c9565b9150509250925092565b600073ffffffffffffffffffffffffffffffffffffffff82169050919050565b60006111c98261119e565b9050919050565b6111d9816111be565b81146111e457600080fd5b50565b6000813590506111f6816111d0565b92915050565b60006020828403121561121257611211610b79565b5b6000611220848285016111e7565b91505092915050565b611232816111be565b82525050565b600081519050919050565b600082825260208201905092915050565b6000819050602082019050919050565b61126d81610bf0565b82525050565b600061127f8383611264565b60208301905092915050565b6000602082019050919050565b60006112a382611238565b6112ad8185611243565b93506112b883611254565b8060005b838110156112e95781516112d08882611273565b97506112db8361128b565b9250506001810190506112bc565b5085935050505092915050565b600060408201905061130b6000830185611229565b818103602083015261131d8184611298565b90509392505050565b7f4e6f20706f6c6c20666f756e6400000000000000000000000000000000000000600082015250565b600061135c600d83610c14565b915061136782611326565b602082019050919050565b6000602082019050818103600083015261138b8161134f565b9050919050565b7f4e487b7100000000000000000000000000000000000000000000000000000000600052603260045260246000fd5b7f4e487b7100000000000000000000000000000000000000000000000000000000600052602260045260246000fd5b6000600282049050600182168061140857607f821691505b60208210810361141b5761141a6113c1565b5b50919050565b7f496e76616c696420766f74650000000000000000000000000000000000000000600082015250565b6000611457600c83610c14565b915061146282611421565b602082019050919050565b600060208201905081810360008301526114868161144a565b9050919050565b7f596f7520616c726561647920766f746564000000000000000000000000000000600082015250565b60006114c3601183610c14565b91506114ce8261148d565b602082019050919050565b600060208201905081810360008301526114f2816114b6565b9050919050565b7f4e487b7100000000000000000000000000000000000000000000000000000000600052601160045260246000fd5b600061153382610b83565b915061153e83610b83565b9250828201905067ffffffffffffffff81111561155e5761155d6114f9565b5b92915050565b7f456d707479207175657374696f6e000000000000000000000000000000000000600082015250565b600061159a600e83610c14565b91506115a582611564565b602082019050919050565b600060208201905081810360008301526115c98161158d565b9050919050565b7f4174206c656173742032206f7074696f6e732072657175697265640000000000600082015250565b6000611606601b83610c14565b9150611611826115d0565b602082019050919050565b60006020820190508181036000830152611635816115f9565b9050919050565b60008190508160005260206000209050919050565b60006020601f8301049050919050565b600082821b905092915050565b60006008830261169e7fffffffffffffffffffffffffffffffffffffffffffffffffffffffffffffffff82611661565b6116a88683611661565b95508019841693508086168417925050509392505050565b6000819050919050565b60006116e56116e06116db84610bf0565b6116c0565b610bf0565b9050919050565b6000819050919050565b6116ff836116ca565b61171361170b826116ec565b84845461166e565b825550505050565b600090565b61172861171b565b6117338184846116f6565b505050565b5b818110156117575761174c600082611720565b600181019050611739565b5050565b601f82111561179c5761176d8161163c565b61177684611651565b81016020851015611785578190505b61179961179185611651565b830182611738565b50505b505050565b600082821c905092915050565b60006117bf600019846008026117a1565b1980831691505092915050565b60006117d883836117ae565b9150826002028217905092915050565b6117f182610c09565b67ffffffffffffffff81111561180a57611809610ed8565b5b61181482546113f0565b61181f82828561175b565b600060209050601f8311600181146118525760008415611840578287015190505b61184a85826117cc565b8655506118b2565b601f1984166118608661163c565b60005b8281101561188857848901518255600182019150602085019450602081019050611863565b868310156118a557848901516118a1601f8916826117ae565b8355505b6001600288020188555050505b50505050505056fea264697066735822122098ff98862245d859f9b5f41a66ddf08f4247b1a409e7a1bfeb2e1a9caf03396c64736f6c63430008100033",
					"opcodes": "PUSH1 0x80 PUSH1 0x40 MSTORE CALLVALUE DUP1 ISZERO PUSH2 0x10 JUMPI PUSH1 0x0 DUP1 REVERT JUMPDEST POP PUSH2 0x18F0 DUP1 PUSH2 0x20 PUSH1 0x0 CODECOPY PUSH1 0x0 RETURN INVALID PUSH1 0x80 PUSH1 0x40 MSTORE CALLVALUE DUP1 ISZERO PUSH2 0x10 JUMPI PUSH1 0x0 DUP1 REVERT JUMPDEST POP PUSH1 0x4 CALLDATASIZE LT PUSH2 0x4C JUMPI PUSH1 0x0 CALLDATALOAD PUSH1 0xE0 SHR DUP1 PUSH4 0x157BD75D EQ PUSH2 0x51 JUMPI DUP1 PUSH4 0x3D51E9D9 EQ PUSH2 0x85 JUMPI DUP1 PUSH4 0x7BA91041 EQ PUSH2 0xA1 JUMPI DUP1 PUSH4 0xD4F50F98 EQ PUSH2 0xBD JUMPI JUMPDEST PUSH1 0x0 DUP1 REVERT JUMPDEST PUSH2 0x6B PUSH1 0x4 DUP1 CALLDATASIZE SUB DUP2 ADD SWAP1 PUSH2 0x66 SWAP2 SWAP1 PUSH2 0xBC3 JUMP JUMPDEST PUSH2 0xEE JUMP JUMPDEST PUSH1 0x40 MLOAD PUSH2 0x7C SWAP6 SWAP5 SWAP4 SWAP3 SWAP2 SWAP1 PUSH2 0xE1F JUMP JUMPDEST PUSH1 0x40 MLOAD DUP1 SWAP2 SUB SWAP1 RETURN JUMPDEST PUSH2 0x9F PUSH1 0x4 DUP1 CALLDATASIZE SUB DUP2 ADD SWAP1 PUSH2 0x9A SWAP2 SWAP1 PUSH2 0xE8E JUMP JUMPDEST PUSH2 0x44F JUMP JUMPDEST STOP JUMPDEST PUSH2 0xBB PUSH1 0x4 DUP1 CALLDATASIZE SUB DUP2 ADD SWAP1 PUSH2 0xB6 SWAP2 SWAP1 PUSH2 0x10F7 JUMP JUMPDEST PUSH2 0x77E JUMP JUMPDEST STOP JUMPDEST PUSH2 0xD7 PUSH1 0x4 DUP1 CALLDATASIZE SUB DUP2 ADD SWAP1 PUSH2 0xD2 SWAP2 SWAP1 PUSH2 0x11FC JUMP JUMPDEST PUSH2 0x928 JUMP JUMPDEST PUSH1 0x40 MLOAD PUSH2 0xE5 SWAP3 SWAP2 SWAP1 PUSH2 0x12F6 JUMP JUMPDEST PUSH1 0x40 MLOAD DUP1 SWAP2 SUB SWAP1 RETURN JUMPDEST PUSH1 0x0 PUSH1 0x60 DUP1 PUSH1 0x60 DUP1 DUP6 PUSH1 0x0 DUP1 SLOAD SWAP1 POP DUP2 PUSH8 0xFFFFFFFFFFFFFFFF AND LT DUP1 ISZERO PUSH2 0x120 JUMPI POP PUSH1 0x0 DUP2 PUSH8 0xFFFFFFFFFFFFFFFF AND LT ISZERO JUMPDEST PUSH2 0x15F JUMPI PUSH1 0x40 MLOAD PUSH32 0x8C379A000000000000000000000000000000000000000000000000000000000 DUP2 MSTORE PUSH1 0x4 ADD PUSH2 0x156 SWAP1 PUSH2 0x1372 JUMP JUMPDEST PUSH1 0x40 MLOAD DUP1 SWAP2 SUB SWAP1 REVERT JUMPDEST PUSH1 0x0 DUP8 PUSH8 0xFFFFFFFFFFFFFFFF AND DUP2 SLOAD DUP2 LT PUSH2 0x17D JUMPI PUSH2 0x17C PUSH2 0x1392 JUMP JUMPDEST JUMPDEST SWAP1 PUSH1 0x0 MSTORE PUSH1 0x20 PUSH1 0x0 KECCAK256 SWAP1 PUSH1 0x5 MUL ADD PUSH1 0x0 ADD SLOAD PUSH1 0x0 DUP9 PUSH8 0xFFFFFFFFFFFFFFFF AND DUP2 SLOAD DUP2 LT PUSH2 0x1AD JUMPI PUSH2 0x1AC PUSH2 0x1392 JUMP JUMPDEST JUMPDEST SWAP1 PUSH1 0x0 MSTORE PUSH1 0x20 PUSH1 0x0 KECCAK256 SWAP1 PUSH1 0x5 MUL ADD PUSH1 0x1 ADD PUSH1 0x0 DUP10 PUSH8 0xFFFFFFFFFFFFFFFF AND DUP2 SLOAD DUP2 LT PUSH2 0x1DC JUMPI PUSH2 0x1DB PUSH2 0x1392 JUMP JUMPDEST JUMPDEST SWAP1 PUSH1 0x0 MSTORE PUSH1 0x20 PUSH1 0x0 KECCAK256 SWAP1 PUSH1 0x5 MUL ADD PUSH1 0x2 ADD PUSH1 0x0 DUP11 PUSH8 0xFFFFFFFFFFFFFFFF AND DUP2 SLOAD DUP2 LT PUSH2 0x20B JUMPI PUSH2 0x20A PUSH2 0x1392 JUMP JUMPDEST JUMPDEST SWAP1 PUSH1 0x0 MSTORE PUSH1 0x20 PUSH1 0x0 KECCAK256 SWAP1 PUSH1 0x5 MUL ADD PUSH1 0x3 ADD PUSH1 0x0 DUP12 PUSH8 0xFFFFFFFFFFFFFFFF AND DUP2 SLOAD DUP2 LT PUSH2 0x23A JUMPI PUSH2 0x239 PUSH2 0x1392 JUMP JUMPDEST JUMPDEST SWAP1 PUSH1 0x0 MSTORE PUSH1 0x20 PUSH1 0x0 KECCAK256 SWAP1 PUSH1 0x5 MUL ADD PUSH1 0x4 ADD DUP4 DUP1 SLOAD PUSH2 0x257 SWAP1 PUSH2 0x13F0 JUMP JUMPDEST DUP1 PUSH1 0x1F ADD PUSH1 0x20 DUP1 SWAP2 DIV MUL PUSH1 0x20 ADD PUSH1 0x40 MLOAD SWAP1 DUP2 ADD PUSH1 0x40 MSTORE DUP1 SWAP3 SWAP2 SWAP1 DUP2 DUP2 MSTORE PUSH1 0x20 ADD DUP3 DUP1 SLOAD PUSH2 0x283 SWAP1 PUSH2 0x13F0 JUMP JUMPDEST DUP1 ISZERO PUSH2 0x2D0 JUMPI DUP1 PUSH1 0x1F LT PUSH2 0x2A5 JUMPI PUSH2 0x100 DUP1 DUP4 SLOAD DIV MUL DUP4 MSTORE SWAP2 PUSH1 0x20 ADD SWAP2 PUSH2 0x2D0 JUMP JUMPDEST DUP3 ADD SWAP2 SWAP1 PUSH1 0x0 MSTORE PUSH1 0x20 PUSH1 0x0 KECCAK256 SWAP1 JUMPDEST DUP2 SLOAD DUP2 MSTORE SWAP1 PUSH1 0x1 ADD SWAP1 PUSH1 0x20 ADD DUP1 DUP4 GT PUSH2 0x2B3 JUMPI DUP3 SWAP1 SUB PUSH1 0x1F AND DUP3 ADD SWAP2 JUMPDEST POP POP POP POP POP SWAP4 POP DUP3 DUP1 SLOAD PUSH2 0x2E3 SWAP1 PUSH2 0x13F0 JUMP JUMPDEST DUP1 PUSH1 0x1F ADD PUSH1 0x20 DUP1 SWAP2 DIV MUL PUSH1 0x20 ADD PUSH1 0x40 MLOAD SWAP1 DUP2 ADD PUSH1 0x40 MSTORE DUP1 SWAP3 SWAP2 SWAP1 DUP2 DUP2 MSTORE PUSH1 0x20 ADD DUP3 DUP1 SLOAD PUSH2 0x30F SWAP1 PUSH2 0x13F0 JUMP JUMPDEST DUP1 ISZERO PUSH2 0x35C JUMPI DUP1 PUSH1 0x1F LT PUSH2 0x331 JUMPI PUSH2 0x100 DUP1 DUP4 SLOAD DIV MUL DUP4 MSTORE SWAP2 PUSH1 0x20 ADD SWAP2 PUSH2 0x35C JUMP JUMPDEST DUP3 ADD SWAP2 SWAP1 PUSH1 0x0 MSTORE PUSH1 0x20 PUSH1 0x0 KECCAK256 SWAP1 JUMPDEST DUP2 SLOAD DUP2 MSTORE SWAP1 PUSH1 0x1 ADD SWAP1 PUSH1 0x20 ADD DUP1 DUP4 GT PUSH2 0x33F JUMPI DUP3 SWAP1 SUB PUSH1 0x1F AND DUP3 ADD SWAP2 JUMPDEST POP POP POP POP POP SWAP3 POP DUP2 DUP1 SLOAD DUP1 PUSH1 0x20 MUL PUSH1 0x20 ADD PUSH1 0x40 MLOAD SWAP1 DUP2 ADD PUSH1 0x40 MSTORE DUP1 SWAP3 SWAP2 SWAP1 DUP2 DUP2 MSTORE PUSH1 0x20 ADD DUP3 DUP1 SLOAD DUP1 ISZERO PUSH2 0x3E2 JUMPI PUSH1 0x20 MUL DUP3 ADD SWAP2 SWAP1 PUSH1 0x0 MSTORE PUSH1 0x20 PUSH1 0x0 KECCAK256 SWAP1 PUSH1 0x0 SWAP1 JUMPDEST DUP3 DUP3 SWAP1 SLOAD SWAP1 PUSH2 0x100 EXP SWAP1 DIV PUSH8 0xFFFFFFFFFFFFFFFF AND PUSH8 0xFFFFFFFFFFFFFFFF AND DUP2 MSTORE PUSH1 0x20 ADD SWAP1 PUSH1 0x8 ADD SWAP1 PUSH1 0x20 DUP3 PUSH1 0x7 ADD DIV SWAP3 DUP4 ADD SWAP3 PUSH1 0x1 SUB DUP3 MUL SWAP2 POP DUP1 DUP5 GT PUSH2 0x39D JUMPI SWAP1 POP JUMPDEST POP POP POP POP POP SWAP2 POP DUP1 DUP1 SLOAD DUP1 PUSH1 0x20 MUL PUSH1 0x20 ADD PUSH1 0x40 MLOAD SWAP1 DUP2 ADD PUSH1 0x40 MSTORE DUP1 SWAP3 SWAP2 SWAP1 DUP2 DUP2 MSTORE PUSH1 0x20 ADD DUP3 DUP1 SLOAD DUP1 ISZERO PUSH2 0x434 JUMPI PUSH1 0x20 MUL DUP3 ADD SWAP2 SWAP1 PUSH1 0x0 MSTORE PUSH1 0x20 PUSH1 0x0 KECCAK256 SWAP1 JUMPDEST DUP2 SLOAD DUP2 MSTORE PUSH1 0x20 ADD SWAP1 PUSH1 0x1 ADD SWAP1 DUP1 DUP4 GT PUSH2 0x420 JUMPI JUMPDEST POP POP POP POP POP SWAP1 POP SWAP6 POP SWAP6 POP SWAP6 POP SWAP6 POP SWAP6 POP POP SWAP2 SWAP4 SWAP6 SWAP1 SWAP3 SWAP5 POP JUMP JUMPDEST DUP2 PUSH1 0x0 DUP1 SLOAD SWAP1 POP DUP2 PUSH8 0xFFFFFFFFFFFFFFFF AND LT DUP1 ISZERO PUSH2 0x479 JUMPI POP PUSH1 0x0 DUP2 PUSH8 0xFFFFFFFFFFFFFFFF AND LT ISZERO JUMPDEST PUSH2 0x4B8 JUMPI PUSH1 0x40 MLOAD PUSH32 0x8C379A000000000000000000000000000000000000000000000000000000000 DUP2 MSTORE PUSH1 0x4 ADD PUSH2 0x4AF SWAP1 PUSH2 0x1372 JUMP JUMPDEST PUSH1 0x40 MLOAD DUP1 SWAP2 SUB SWAP1 REVERT JUMPDEST PUSH1 0x0 DUP4 PUSH8 0xFFFFFFFFFFFFFFFF AND DUP2 SLOAD DUP2 LT PUSH2 0x4D6 JUMPI PUSH2 0x4D5 PUSH2 0x1392 JUMP JUMPDEST JUMPDEST SWAP1 PUSH1 0x0 MSTORE PUSH1 0x20 PUSH1 0x0 KECCAK256 SWAP1 PUSH1 0x5 MUL ADD PUSH1 0x4 ADD DUP1 SLOAD SWAP1 POP DUP3 PUSH8 0xFFFFFFFFFFFFFFFF AND LT PUSH2 0x536 JUMPI PUSH1 0x40 MLOAD PUSH32 0x8C379A000000000000000000000000000000000000000000000000000000000 DUP2 MSTORE PUSH1 0x4 ADD PUSH2 0x52D SWAP1 PUSH2 0x146D JUMP JUMPDEST PUSH1 0x40 MLOAD DUP1 SWAP2 SUB SWAP1 REVERT JUMPDEST PUSH1 0x0 ISZERO ISZERO PUSH1 0x1 PUSH1 0x0 CALLER PUSH20 0xFFFFFFFFFFFFFFFFFFFFFFFFFFFFFFFFFFFFFFFF AND PUSH20 0xFFFFFFFFFFFFFFFFFFFFFFFFFFFFFFFFFFFFFFFF AND DUP2 MSTORE PUSH1 0x20 ADD SWAP1 DUP2 MSTORE PUSH1 0x20 ADD PUSH1 0x0 KECCAK256 PUSH1 0x2 ADD PUSH1 0x0 DUP6 PUSH8 0xFFFFFFFFFFFFFFFF AND DUP2 MSTORE PUSH1 0x20 ADD SWAP1 DUP2 MSTORE PUSH1 0x20 ADD PUSH1 0x0 KECCAK256 PUSH1 0x0 SWAP1 SLOAD SWAP1 PUSH2 0x100 EXP SWAP1 DIV PUSH1 0xFF AND ISZERO ISZERO EQ PUSH2 0x5E7 JUMPI PUSH1 0x40 MLOAD PUSH32 0x8C379A000000000000000000000000000000000000000000000000000000000 DUP2 MSTORE PUSH1 0x4 ADD PUSH2 0x5DE SWAP1 PUSH2 0x14D9 JUMP JUMPDEST PUSH1 0x40 MLOAD DUP1 SWAP2 SUB SWAP1 REVERT JUMPDEST PUSH1 0x1 PUSH1 0x0 DUP5 PUSH8 0xFFFFFFFFFFFFFFFF AND DUP2 SLOAD DUP2 LT PUSH2 0x607 JUMPI PUSH2 0x606 PUSH2 0x1392 JUMP JUMPDEST JUMPDEST SWAP1 PUSH1 0x0 MSTORE PUSH1 0x20 PUSH1 0x0 KECCAK256 SWAP1 PUSH1 0x5 MUL ADD PUSH1 0x3 ADD DUP4 PUSH8 0xFFFFFFFFFFFFFFFF AND DUP2 SLOAD DUP2 LT PUSH2 0x634 JUMPI PUSH2 0x633 PUSH2 0x1392 JUMP JUMPDEST JUMPDEST SWAP1 PUSH1 0x0 MSTORE PUSH1 0x20 PUSH1 0x0 KECCAK256 SWAP1 PUSH1 0x4 SWAP2 DUP3 DUP3 DIV ADD SWAP2 SWAP1 MOD PUSH1 0x8 MUL DUP3 DUP3 DUP3 SWAP1 SLOAD SWAP1 PUSH2 0x100 EXP SWAP1 DIV PUSH8 0xFFFFFFFFFFFFFFFF AND PUSH2 0x66B SWAP2 SWAP1 PUSH2 0x1528 JUMP JUMPDEST SWAP3 POP PUSH2 0x100 EXP DUP2 SLOAD DUP2 PUSH8 0xFFFFFFFFFFFFFFFF MUL NOT AND SWAP1 DUP4 PUSH8 0xFFFFFFFFFFFFFFFF AND MUL OR SWAP1 SSTORE POP PUSH1 0x1 PUSH1 0x0 CALLER PUSH20 0xFFFFFFFFFFFFFFFFFFFFFFFFFFFFFFFFFFFFFFFF AND PUSH20 0xFFFFFFFFFFFFFFFFFFFFFFFFFFFFFFFFFFFFFFFF AND DUP2 MSTORE PUSH1 0x20 ADD SWAP1 DUP2 MSTORE PUSH1 0x20 ADD PUSH1 0x0 KECCAK256 PUSH1 0x1 ADD DUP4 SWAP1 DUP1 PUSH1 0x1 DUP2 SLOAD ADD DUP1 DUP3 SSTORE DUP1 SWAP2 POP POP PUSH1 0x1 SWAP1 SUB SWAP1 PUSH1 0x0 MSTORE PUSH1 0x20 PUSH1 0x0 KECCAK256 ADD PUSH1 0x0 SWAP1 SWAP2 PUSH8 0xFFFFFFFFFFFFFFFF AND SWAP1 SWAP2 SWAP1 SWAP2 POP SSTORE PUSH1 0x1 DUP1 PUSH1 0x0 CALLER PUSH20 0xFFFFFFFFFFFFFFFFFFFFFFFFFFFFFFFFFFFFFFFF AND PUSH20 0xFFFFFFFFFFFFFFFFFFFFFFFFFFFFFFFFFFFFFFFF AND DUP2 MSTORE PUSH1 0x20 ADD SWAP1 DUP2 MSTORE PUSH1 0x20 ADD PUSH1 0x0 KECCAK256 PUSH1 0x2 ADD PUSH1 0x0 DUP6 PUSH8 0xFFFFFFFFFFFFFFFF AND DUP2 MSTORE PUSH1 0x20 ADD SWAP1 DUP2 MSTORE PUSH1 0x20 ADD PUSH1 0x0 KECCAK256 PUSH1 0x0 PUSH2 0x100 EXP DUP2 SLOAD DUP2 PUSH1 0xFF MUL NOT AND SWAP1 DUP4 ISZERO ISZERO MUL OR SWAP1 SSTORE POP POP POP POP JUMP JUMPDEST PUSH1 0x0 DUP4 MLOAD GT PUSH2 0x7C2 JUMPI PUSH1 0x40 MLOAD PUSH32 0x8C379A000000000000000000000000000000000000000000000000000000000 DUP2 MSTORE PUSH1 0x4 ADD PUSH2 0x7B9 SWAP1 PUSH2 0x15B0 JUMP JUMPDEST PUSH1 0x40 MLOAD DUP1 SWAP2 SUB SWAP1 REVERT JUMPDEST PUSH1 0x1 DUP2 MLOAD GT PUSH2 0x806 JUMPI PUSH1 0x40 MLOAD PUSH32 0x8C379A000000000000000000000000000000000000000000000000000000000 DUP2 MSTORE PUSH1 0x4 ADD PUSH2 0x7FD SWAP1 PUSH2 0x161C JUMP JUMPDEST PUSH1 0x40 MLOAD DUP1 SWAP2 SUB SWAP1 REVERT JUMPDEST PUSH1 0x0 DUP1 DUP1 SLOAD SWAP1 POP SWAP1 POP PUSH1 0x0 PUSH1 0x40 MLOAD DUP1 PUSH1 0xA0 ADD PUSH1 0x40 MSTORE DUP1 DUP4 DUP2 MSTORE PUSH1 0x20 ADD DUP7 DUP2 MSTORE PUSH1 0x20 ADD DUP6 DUP2 MSTORE PUSH1 0x20 ADD DUP5 MLOAD PUSH8 0xFFFFFFFFFFFFFFFF DUP2 GT ISZERO PUSH2 0x849 JUMPI PUSH2 0x848 PUSH2 0xED8 JUMP JUMPDEST JUMPDEST PUSH1 0x40 MLOAD SWAP1 DUP1 DUP3 MSTORE DUP1 PUSH1 0x20 MUL PUSH1 0x20 ADD DUP3 ADD PUSH1 0x40 MSTORE DUP1 ISZERO PUSH2 0x877 JUMPI DUP2 PUSH1 0x20 ADD PUSH1 0x20 DUP3 MUL DUP1 CALLDATASIZE DUP4 CALLDATACOPY DUP1 DUP3 ADD SWAP2 POP POP SWAP1 POP JUMPDEST POP DUP2 MSTORE PUSH1 0x20 ADD DUP5 DUP2 MSTORE POP SWAP1 POP PUSH1 0x0 DUP2 SWAP1 DUP1 PUSH1 0x1 DUP2 SLOAD ADD DUP1 DUP3 SSTORE DUP1 SWAP2 POP POP PUSH1 0x1 SWAP1 SUB SWAP1 PUSH1 0x0 MSTORE PUSH1 0x20 PUSH1 0x0 KECCAK256 SWAP1 PUSH1 0x5 MUL ADD PUSH1 0x0 SWAP1 SWAP2 SWAP1 SWAP2 SWAP1 SWAP2 POP PUSH1 0x0 DUP3 ADD MLOAD DUP2 PUSH1 0x0 ADD SSTORE PUSH1 0x20 DUP3 ADD MLOAD DUP2 PUSH1 0x1 ADD SWAP1 DUP2 PUSH2 0x8CE SWAP2 SWAP1 PUSH2 0x17E8 JUMP JUMPDEST POP PUSH1 0x40 DUP3 ADD MLOAD DUP2 PUSH1 0x2 ADD SWAP1 DUP2 PUSH2 0x8E4 SWAP2 SWAP1 PUSH2 0x17E8 JUMP JUMPDEST POP PUSH1 0x60 DUP3 ADD MLOAD DUP2 PUSH1 0x3 ADD SWAP1 DUP1 MLOAD SWAP1 PUSH1 0x20 ADD SWAP1 PUSH2 0x901 SWAP3 SWAP2 SWAP1 PUSH2 0xA2C JUMP JUMPDEST POP PUSH1 0x80 DUP3 ADD MLOAD DUP2 PUSH1 0x4 ADD SWAP1 DUP1 MLOAD SWAP1 PUSH1 0x20 ADD SWAP1 PUSH2 0x91E SWAP3 SWAP2 SWAP1 PUSH2 0xAE8 JUMP JUMPDEST POP POP POP POP POP POP POP POP JUMP JUMPDEST PUSH1 0x0 PUSH1 0x60 PUSH1 0x1 PUSH1 0x0 DUP5 PUSH20 0xFFFFFFFFFFFFFFFFFFFFFFFFFFFFFFFFFFFFFFFF AND PUSH20 0xFFFFFFFFFFFFFFFFFFFFFFFFFFFFFFFFFFFFFFFF AND DUP2 MSTORE PUSH1 0x20 ADD SWAP1 DUP2 MSTORE PUSH1 0x20 ADD PUSH1 0x0 KECCAK256 PUSH1 0x0 ADD PUSH1 0x0 SWAP1 SLOAD SWAP1 PUSH2 0x100 EXP SWAP1 DIV PUSH20 0xFFFFFFFFFFFFFFFFFFFFFFFFFFFFFFFFFFFFFFFF AND PUSH1 0x1 PUSH1 0x0 DUP6 PUSH20 0xFFFFFFFFFFFFFFFFFFFFFFFFFFFFFFFFFFFFFFFF AND PUSH20 0xFFFFFFFFFFFFFFFFFFFFFFFFFFFFFFFFFFFFFFFF AND DUP2 MSTORE PUSH1 0x20 ADD SWAP1 DUP2 MSTORE PUSH1 0x20 ADD PUSH1 0x0 KECCAK256 PUSH1 0x1 ADD DUP1 DUP1 SLOAD DUP1 PUSH1 0x20 MUL PUSH1 0x20 ADD PUSH1 0x40 MLOAD SWAP1 DUP2 ADD PUSH1 0x40 MSTORE DUP1 SWAP3 SWAP2 SWAP1 DUP2 DUP2 MSTORE PUSH1 0x20 ADD DUP3 DUP1 SLOAD DUP1 ISZERO PUSH2 0xA1C JUMPI PUSH1 0x20 MUL DUP3 ADD SWAP2 SWAP1 PUSH1 0x0 MSTORE PUSH1 0x20 PUSH1 0x0 KECCAK256 SWAP1 JUMPDEST DUP2 SLOAD DUP2 MSTORE PUSH1 0x20 ADD SWAP1 PUSH1 0x1 ADD SWAP1 DUP1 DUP4 GT PUSH2 0xA08 JUMPI JUMPDEST POP POP POP POP POP SWAP1 POP SWAP2 POP SWAP2 POP SWAP2 POP SWAP2 JUMP JUMPDEST DUP3 DUP1 SLOAD DUP3 DUP3 SSTORE SWAP1 PUSH1 0x0 MSTORE PUSH1 0x20 PUSH1 0x0 KECCAK256 SWAP1 PUSH1 0x3 ADD PUSH1 0x4 SWAP1 DIV DUP2 ADD SWAP3 DUP3 ISZERO PUSH2 0xAD7 JUMPI SWAP2 PUSH1 0x20 MUL DUP3 ADD PUSH1 0x0 JUMPDEST DUP4 DUP3 GT ISZERO PUSH2 0xAA1 JUMPI DUP4 MLOAD DUP4 DUP3 PUSH2 0x100 EXP DUP2 SLOAD DUP2 PUSH8 0xFFFFFFFFFFFFFFFF MUL NOT AND SWAP1 DUP4 PUSH8 0xFFFFFFFFFFFFFFFF AND MUL OR SWAP1 SSTORE POP SWAP3 PUSH1 0x20 ADD SWAP3 PUSH1 0x8 ADD PUSH1 0x20 DUP2 PUSH1 0x7 ADD DIV SWAP3 DUP4 ADD SWAP3 PUSH1 0x1 SUB MUL PUSH2 0xA55 JUMP JUMPDEST DUP1 ISZERO PUSH2 0xAD5 JUMPI DUP3 DUP2 PUSH2 0x100 EXP DUP2 SLOAD SWAP1 PUSH8 0xFFFFFFFFFFFFFFFF MUL NOT AND SWAP1 SSTORE PUSH1 0x8 ADD PUSH1 0x20 DUP2 PUSH1 0x7 ADD DIV SWAP3 DUP4 ADD SWAP3 PUSH1 0x1 SUB MUL PUSH2 0xAA1 JUMP JUMPDEST POP JUMPDEST POP SWAP1 POP PUSH2 0xAE4 SWAP2 SWAP1 PUSH2 0xB35 JUMP JUMPDEST POP SWAP1 JUMP JUMPDEST DUP3 DUP1 SLOAD DUP3 DUP3 SSTORE SWAP1 PUSH1 0x0 MSTORE PUSH1 0x20 PUSH1 0x0 KECCAK256 SWAP1 DUP2 ADD SWAP3 DUP3 ISZERO PUSH2 0xB24 JUMPI SWAP2 PUSH1 0x20 MUL DUP3 ADD JUMPDEST DUP3 DUP2 GT ISZERO PUSH2 0xB23 JUMPI DUP3 MLOAD DUP3 SSTORE SWAP2 PUSH1 0x20 ADD SWAP2 SWAP1 PUSH1 0x1 ADD SWAP1 PUSH2 0xB08 JUMP JUMPDEST JUMPDEST POP SWAP1 POP PUSH2 0xB31 SWAP2 SWAP1 PUSH2 0xB52 JUMP JUMPDEST POP SWAP1 JUMP JUMPDEST JUMPDEST DUP1 DUP3 GT ISZERO PUSH2 0xB4E JUMPI PUSH1 0x0 DUP2 PUSH1 0x0 SWAP1 SSTORE POP PUSH1 0x1 ADD PUSH2 0xB36 JUMP JUMPDEST POP SWAP1 JUMP JUMPDEST JUMPDEST DUP1 DUP3 GT ISZERO PUSH2 0xB6B JUMPI PUSH1 0x0 DUP2 PUSH1 0x0 SWAP1 SSTORE POP PUSH1 0x1 ADD PUSH2 0xB53 JUMP JUMPDEST POP SWAP1 JUMP JUMPDEST PUSH1 0x0 PUSH1 0x40 MLOAD SWAP1 POP SWAP1 JUMP JUMPDEST PUSH1 0x0 DUP1 REVERT JUMPDEST PUSH1 0x0 DUP1 REVERT JUMPDEST PUSH1 0x0 PUSH8 0xFFFFFFFFFFFFFFFF DUP3 AND SWAP1 POP SWAP2 SWAP1 POP JUMP JUMPDEST PUSH2 0xBA0 DUP2 PUSH2 0xB83 JUMP JUMPDEST DUP2 EQ PUSH2 0xBAB JUMPI PUSH1 0x0 DUP1 REVERT JUMPDEST POP JUMP JUMPDEST PUSH1 0x0 DUP2 CALLDATALOAD SWAP1 POP PUSH2 0xBBD DUP2 PUSH2 0xB97 JUMP JUMPDEST SWAP3 SWAP2 POP POP JUMP JUMPDEST PUSH1 0x0 PUSH1 0x20 DUP3 DUP5 SUB SLT ISZERO PUSH2 0xBD9 JUMPI PUSH2 0xBD8 PUSH2 0xB79 JUMP JUMPDEST JUMPDEST PUSH1 0x0 PUSH2 0xBE7 DUP5 DUP3 DUP6 ADD PUSH2 0xBAE JUMP JUMPDEST SWAP2 POP POP SWAP3 SWAP2 POP POP JUMP JUMPDEST PUSH1 0x0 DUP2 SWAP1 POP SWAP2 SWAP1 POP JUMP JUMPDEST PUSH2 0xC03 DUP2 PUSH2 0xBF0 JUMP JUMPDEST DUP3 MSTORE POP POP JUMP JUMPDEST PUSH1 0x0 DUP2 MLOAD SWAP1 POP SWAP2 SWAP1 POP JUMP JUMPDEST PUSH1 0x0 DUP3 DUP3 MSTORE PUSH1 0x20 DUP3 ADD SWAP1 POP SWAP3 SWAP2 POP POP JUMP JUMPDEST PUSH1 0x0 JUMPDEST DUP4 DUP2 LT ISZERO PUSH2 0xC43 JUMPI DUP1 DUP3 ADD MLOAD DUP2 DUP5 ADD MSTORE PUSH1 0x20 DUP2 ADD SWAP1 POP PUSH2 0xC28 JUMP JUMPDEST PUSH1 0x0 DUP5 DUP5 ADD MSTORE POP POP POP POP JUMP JUMPDEST PUSH1 0x0 PUSH1 0x1F NOT PUSH1 0x1F DUP4 ADD AND SWAP1 POP SWAP2 SWAP1 POP JUMP JUMPDEST PUSH1 0x0 PUSH2 0xC6B DUP3 PUSH2 0xC09 JUMP JUMPDEST PUSH2 0xC75 DUP2 DUP6 PUSH2 0xC14 JUMP JUMPDEST SWAP4 POP PUSH2 0xC85 DUP2 DUP6 PUSH1 0x20 DUP7 ADD PUSH2 0xC25 JUMP JUMPDEST PUSH2 0xC8E DUP2 PUSH2 0xC4F JUMP JUMPDEST DUP5 ADD SWAP2 POP POP SWAP3 SWAP2 POP POP JUMP JUMPDEST PUSH1 0x0 DUP2 MLOAD SWAP1 POP SWAP2 SWAP1 POP JUMP JUMPDEST PUSH1 0x0 DUP3 DUP3 MSTORE PUSH1 0x20 DUP3 ADD SWAP1 POP SWAP3 SWAP2 POP POP JUMP JUMPDEST PUSH1 0x0 DUP2 SWAP1 POP PUSH1 0x20 DUP3 ADD SWAP1 POP SWAP2 SWAP1 POP JUMP JUMPDEST PUSH2 0xCCE DUP2 PUSH2 0xB83 JUMP JUMPDEST DUP3 MSTORE POP POP JUMP JUMPDEST PUSH1 0x0 PUSH2 0xCE0 DUP4 DUP4 PUSH2 0xCC5 JUMP JUMPDEST PUSH1 0x20 DUP4 ADD SWAP1 POP SWAP3 SWAP2 POP POP JUMP JUMPDEST PUSH1 0x0 PUSH1 0x20 DUP3 ADD SWAP1 POP SWAP2 SWAP1 POP JUMP JUMPDEST PUSH1 0x0 PUSH2 0xD04 DUP3 PUSH2 0xC99 JUMP JUMPDEST PUSH2 0xD0E DUP2 DUP6 PUSH2 0xCA4 JUMP JUMPDEST SWAP4 POP PUSH2 0xD19 DUP4 PUSH2 0xCB5 JUMP JUMPDEST DUP1 PUSH1 0x0 JUMPDEST DUP4 DUP2 LT ISZERO PUSH2 0xD4A JUMPI DUP2 MLOAD PUSH2 0xD31 DUP9 DUP3 PUSH2 0xCD4 JUMP JUMPDEST SWAP8 POP PUSH2 0xD3C DUP4 PUSH2 0xCEC JUMP JUMPDEST SWAP3 POP POP PUSH1 0x1 DUP2 ADD SWAP1 POP PUSH2 0xD1D JUMP JUMPDEST POP DUP6 SWAP4 POP POP POP POP SWAP3 SWAP2 POP POP JUMP JUMPDEST PUSH1 0x0 DUP2 MLOAD SWAP1 POP SWAP2 SWAP1 POP JUMP JUMPDEST PUSH1 0x0 DUP3 DUP3 MSTORE PUSH1 0x20 DUP3 ADD SWAP1 POP SWAP3 SWAP2 POP POP JUMP JUMPDEST PUSH1 0x0 DUP2 SWAP1 POP PUSH1 0x20 DUP3 ADD SWAP1 POP SWAP2 SWAP1 POP JUMP JUMPDEST PUSH1 0x0 DUP2 SWAP1 POP SWAP2 SWAP1 POP JUMP JUMPDEST PUSH2 0xD96 DUP2 PUSH2 0xD83 JUMP JUMPDEST DUP3 MSTORE POP POP JUMP JUMPDEST PUSH1 0x0 PUSH2 0xDA8 DUP4 DUP4 PUSH2 0xD8D JUMP JUMPDEST PUSH1 0x20 DUP4 ADD SWAP1 POP SWAP3 SWAP2 POP POP JUMP JUMPDEST PUSH1 0x0 PUSH1 0x20 DUP3 ADD SWAP1 POP SWAP2 SWAP1 POP JUMP JUMPDEST PUSH1 0x0 PUSH2 0xDCC DUP3 PUSH2 0xD57 JUMP JUMPDEST PUSH2 0xDD6 DUP2 DUP6 PUSH2 0xD62 JUMP JUMPDEST SWAP4 POP PUSH2 0xDE1 DUP4 PUSH2 0xD73 JUMP JUMPDEST DUP1 PUSH1 0x0 JUMPDEST DUP4 DUP2 LT ISZERO PUSH2 0xE12 JUMPI DUP2 MLOAD PUSH2 0xDF9 DUP9 DUP3 PUSH2 0xD9C JUMP JUMPDEST SWAP8 POP PUSH2 0xE04 DUP4 PUSH2 0xDB4 JUMP JUMPDEST SWAP3 POP POP PUSH1 0x1 DUP2 ADD SWAP1 POP PUSH2 0xDE5 JUMP JUMPDEST POP DUP6 SWAP4 POP POP POP POP SWAP3 SWAP2 POP POP JUMP JUMPDEST PUSH1 0x0 PUSH1 0xA0 DUP3 ADD SWAP1 POP PUSH2 0xE34 PUSH1 0x0 DUP4 ADD DUP9 PUSH2 0xBFA JUMP JUMPDEST DUP2 DUP2 SUB PUSH1 0x20 DUP4 ADD MSTORE PUSH2 0xE46 DUP2 DUP8 PUSH2 0xC60 JUMP JUMPDEST SWAP1 POP DUP2 DUP2 SUB PUSH1 0x40 DUP4 ADD MSTORE PUSH2 0xE5A DUP2 DUP7 PUSH2 0xC60 JUMP JUMPDEST SWAP1 POP DUP2 DUP2 SUB PUSH1 0x60 DUP4 ADD MSTORE PUSH2 0xE6E DUP2 DUP6 PUSH2 0xCF9 JUMP JUMPDEST SWAP1 POP DUP2 DUP2 SUB PUSH1 0x80 DUP4 ADD MSTORE PUSH2 0xE82 DUP2 DUP5 PUSH2 0xDC1 JUMP JUMPDEST SWAP1 POP SWAP7 SWAP6 POP POP POP POP POP POP JUMP JUMPDEST PUSH1 0x0 DUP1 PUSH1 0x40 DUP4 DUP6 SUB SLT ISZERO PUSH2 0xEA5 JUMPI PUSH2 0xEA4 PUSH2 0xB79 JUMP JUMPDEST JUMPDEST PUSH1 0x0 PUSH2 0xEB3 DUP6 DUP3 DUP7 ADD PUSH2 0xBAE JUMP JUMPDEST SWAP3 POP POP PUSH1 0x20 PUSH2 0xEC4 DUP6 DUP3 DUP7 ADD PUSH2 0xBAE JUMP JUMPDEST SWAP2 POP POP SWAP3 POP SWAP3 SWAP1 POP JUMP JUMPDEST PUSH1 0x0 DUP1 REVERT JUMPDEST PUSH1 0x0 DUP1 REVERT JUMPDEST PUSH32 0x4E487B7100000000000000000000000000000000000000000000000000000000 PUSH1 0x0 MSTORE PUSH1 0x41 PUSH1 0x4 MSTORE PUSH1 0x24 PUSH1 0x0 REVERT JUMPDEST PUSH2 0xF10 DUP3 PUSH2 0xC4F JUMP JUMPDEST DUP2 ADD DUP2 DUP2 LT PUSH8 0xFFFFFFFFFFFFFFFF DUP3 GT OR ISZERO PUSH2 0xF2F JUMPI PUSH2 0xF2E PUSH2 0xED8 JUMP JUMPDEST JUMPDEST DUP1 PUSH1 0x40 MSTORE POP POP POP JUMP JUMPDEST PUSH1 0x0 PUSH2 0xF42 PUSH2 0xB6F JUMP JUMPDEST SWAP1 POP PUSH2 0xF4E DUP3 DUP3 PUSH2 0xF07 JUMP JUMPDEST SWAP2 SWAP1 POP JUMP JUMPDEST PUSH1 0x0 PUSH8 0xFFFFFFFFFFFFFFFF DUP3 GT ISZERO PUSH2 0xF6E JUMPI PUSH2 0xF6D PUSH2 0xED8 JUMP JUMPDEST JUMPDEST PUSH2 0xF77 DUP3 PUSH2 0xC4F JUMP JUMPDEST SWAP1 POP PUSH1 0x20 DUP2 ADD SWAP1 POP SWAP2 SWAP1 POP JUMP JUMPDEST DUP3 DUP2 DUP4 CALLDATACOPY PUSH1 0x0 DUP4 DUP4 ADD MSTORE POP POP POP JUMP JUMPDEST PUSH1 0x0 PUSH2 0xFA6 PUSH2 0xFA1 DUP5 PUSH2 0xF53 JUMP JUMPDEST PUSH2 0xF38 JUMP JUMPDEST SWAP1 POP DUP3 DUP2 MSTORE PUSH1 0x20 DUP2 ADD DUP5 DUP5 DUP5 ADD GT ISZERO PUSH2 0xFC2 JUMPI PUSH2 0xFC1 PUSH2 0xED3 JUMP JUMPDEST JUMPDEST PUSH2 0xFCD DUP5 DUP3 DUP6 PUSH2 0xF84 JUMP JUMPDEST POP SWAP4 SWAP3 POP POP POP JUMP JUMPDEST PUSH1 0x0 DUP3 PUSH1 0x1F DUP4 ADD SLT PUSH2 0xFEA JUMPI PUSH2 0xFE9 PUSH2 0xECE JUMP JUMPDEST JUMPDEST DUP2 CALLDATALOAD PUSH2 0xFFA DUP5 DUP3 PUSH1 0x20 DUP7 ADD PUSH2 0xF93 JUMP JUMPDEST SWAP2 POP POP SWAP3 SWAP2 POP POP JUMP JUMPDEST PUSH1 0x0 PUSH8 0xFFFFFFFFFFFFFFFF DUP3 GT ISZERO PUSH2 0x101E JUMPI PUSH2 0x101D PUSH2 0xED8 JUMP JUMPDEST JUMPDEST PUSH1 0x20 DUP3 MUL SWAP1 POP PUSH1 0x20 DUP2 ADD SWAP1 POP SWAP2 SWAP1 POP JUMP JUMPDEST PUSH1 0x0 DUP1 REVERT JUMPDEST PUSH2 0x103D DUP2 PUSH2 0xD83 JUMP JUMPDEST DUP2 EQ PUSH2 0x1048 JUMPI PUSH1 0x0 DUP1 REVERT JUMPDEST POP JUMP JUMPDEST PUSH1 0x0 DUP2 CALLDATALOAD SWAP1 POP PUSH2 0x105A DUP2 PUSH2 0x1034 JUMP JUMPDEST SWAP3 SWAP2 POP POP JUMP JUMPDEST PUSH1 0x0 PUSH2 0x1073 PUSH2 0x106E DUP5 PUSH2 0x1003 JUMP JUMPDEST PUSH2 0xF38 JUMP JUMPDEST SWAP1 POP DUP1 DUP4 DUP3 MSTORE PUSH1 0x20 DUP3 ADD SWAP1 POP PUSH1 0x20 DUP5 MUL DUP4 ADD DUP6 DUP2 GT ISZERO PUSH2 0x1096 JUMPI PUSH2 0x1095 PUSH2 0x102F JUMP JUMPDEST JUMPDEST DUP4 JUMPDEST DUP2 DUP2 LT ISZERO PUSH2 0x10BF JUMPI DUP1 PUSH2 0x10AB DUP9 DUP3 PUSH2 0x104B JUMP JUMPDEST DUP5 MSTORE PUSH1 0x20 DUP5 ADD SWAP4 POP POP PUSH1 0x20 DUP2 ADD SWAP1 POP PUSH2 0x1098 JUMP JUMPDEST POP POP POP SWAP4 SWAP3 POP POP POP JUMP JUMPDEST PUSH1 0x0 DUP3 PUSH1 0x1F DUP4 ADD SLT PUSH2 0x10DE JUMPI PUSH2 0x10DD PUSH2 0xECE JUMP JUMPDEST JUMPDEST DUP2 CALLDATALOAD PUSH2 0x10EE DUP5 DUP3 PUSH1 0x20 DUP7 ADD PUSH2 0x1060 JUMP JUMPDEST SWAP2 POP POP SWAP3 SWAP2 POP POP JUMP JUMPDEST PUSH1 0x0 DUP1 PUSH1 0x0 PUSH1 0x60 DUP5 DUP7 SUB SLT ISZERO PUSH2 0x1110 JUMPI PUSH2 0x110F PUSH2 0xB79 JUMP JUMPDEST JUMPDEST PUSH1 0x0 DUP5 ADD CALLDATALOAD PUSH8 0xFFFFFFFFFFFFFFFF DUP2 GT ISZERO PUSH2 0x112E JUMPI PUSH2 0x112D PUSH2 0xB7E JUMP JUMPDEST JUMPDEST PUSH2 0x113A DUP7 DUP3 DUP8 ADD PUSH2 0xFD5 JUMP JUMPDEST SWAP4 POP POP PUSH1 0x20 DUP5 ADD CALLDATALOAD PUSH8 0xFFFFFFFFFFFFFFFF DUP2 GT ISZERO PUSH2 0x115B JUMPI PUSH2 0x115A PUSH2 0xB7E JUMP JUMPDEST JUMPDEST PUSH2 0x1167 DUP7 DUP3 DUP8 ADD PUSH2 0xFD5 JUMP JUMPDEST SWAP3 POP POP PUSH1 0x40 DUP5 ADD CALLDATALOAD PUSH8 0xFFFFFFFFFFFFFFFF DUP2 GT ISZERO PUSH2 0x1188 JUMPI PUSH2 0x1187 PUSH2 0xB7E JUMP JUMPDEST JUMPDEST PUSH2 0x1194 DUP7 DUP3 DUP8 ADD PUSH2 0x10C9 JUMP JUMPDEST SWAP2 POP POP SWAP3 POP SWAP3 POP SWAP3 JUMP JUMPDEST PUSH1 0x0 PUSH20 0xFFFFFFFFFFFFFFFFFFFFFFFFFFFFFFFFFFFFFFFF DUP3 AND SWAP1 POP SWAP2 SWAP1 POP JUMP JUMPDEST PUSH1 0x0 PUSH2 0x11C9 DUP3 PUSH2 0x119E JUMP JUMPDEST SWAP1 POP SWAP2 SWAP1 POP JUMP JUMPDEST PUSH2 0x11D9 DUP2 PUSH2 0x11BE JUMP JUMPDEST DUP2 EQ PUSH2 0x11E4 JUMPI PUSH1 0x0 DUP1 REVERT JUMPDEST POP JUMP JUMPDEST PUSH1 0x0 DUP2 CALLDATALOAD SWAP1 POP PUSH2 0x11F6 DUP2 PUSH2 0x11D0 JUMP JUMPDEST SWAP3 SWAP2 POP POP JUMP JUMPDEST PUSH1 0x0 PUSH1 0x20 DUP3 DUP5 SUB SLT ISZERO PUSH2 0x1212 JUMPI PUSH2 0x1211 PUSH2 0xB79 JUMP JUMPDEST JUMPDEST PUSH1 0x0 PUSH2 0x1220 DUP5 DUP3 DUP6 ADD PUSH2 0x11E7 JUMP JUMPDEST SWAP2 POP POP SWAP3 SWAP2 POP POP JUMP JUMPDEST PUSH2 0x1232 DUP2 PUSH2 0x11BE JUMP JUMPDEST DUP3 MSTORE POP POP JUMP JUMPDEST PUSH1 0x0 DUP2 MLOAD SWAP1 POP SWAP2 SWAP1 POP JUMP JUMPDEST PUSH1 0x0 DUP3 DUP3 MSTORE PUSH1 0x20 DUP3 ADD SWAP1 POP SWAP3 SWAP2 POP POP JUMP JUMPDEST PUSH1 0x0 DUP2 SWAP1 POP PUSH1 0x20 DUP3 ADD SWAP1 POP SWAP2 SWAP1 POP JUMP JUMPDEST PUSH2 0x126D DUP2 PUSH2 0xBF0 JUMP JUMPDEST DUP3 MSTORE POP POP JUMP JUMPDEST PUSH1 0x0 PUSH2 0x127F DUP4 DUP4 PUSH2 0x1264 JUMP JUMPDEST PUSH1 0x20 DUP4 ADD SWAP1 POP SWAP3 SWAP2 POP POP JUMP JUMPDEST PUSH1 0x0 PUSH1 0x20 DUP3 ADD SWAP1 POP SWAP2 SWAP1 POP JUMP JUMPDEST PUSH1 0x0 PUSH2 0x12A3 DUP3 PUSH2 0x1238 JUMP JUMPDEST PUSH2 0x12AD DUP2 DUP6 PUSH2 0x1243 JUMP JUMPDEST SWAP4 POP PUSH2 0x12B8 DUP4 PUSH2 0x1254 JUMP JUMPDEST DUP1 PUSH1 0x0 JUMPDEST DUP4 DUP2 LT ISZERO PUSH2 0x12E9 JUMPI DUP2 MLOAD PUSH2 0x12D0 DUP9 DUP3 PUSH2 0x1273 JUMP JUMPDEST SWAP8 POP PUSH2 0x12DB DUP4 PUSH2 0x128B JUMP JUMPDEST SWAP3 POP POP PUSH1 0x1 DUP2 ADD SWAP1 POP PUSH2 0x12BC JUMP JUMPDEST POP DUP6 SWAP4 POP POP POP POP SWAP3 SWAP2 POP POP JUMP JUMPDEST PUSH1 0x0 PUSH1 0x40 DUP3 ADD SWAP1 POP PUSH2 0x130B PUSH1 0x0 DUP4 ADD DUP6 PUSH2 0x1229 JUMP JUMPDEST DUP2 DUP2 SUB PUSH1 0x20 DUP4 ADD MSTORE PUSH2 0x131D DUP2 DUP5 PUSH2 0x1298 JUMP JUMPDEST SWAP1 POP SWAP4 SWAP3 POP POP POP JUMP JUMPDEST PUSH32 0x4E6F20706F6C6C20666F756E6400000000000000000000000000000000000000 PUSH1 0x0 DUP3 ADD MSTORE POP JUMP JUMPDEST PUSH1 0x0 PUSH2 0x135C PUSH1 0xD DUP4 PUSH2 0xC14 JUMP JUMPDEST SWAP2 POP PUSH2 0x1367 DUP3 PUSH2 0x1326 JUMP JUMPDEST PUSH1 0x20 DUP3 ADD SWAP1 POP SWAP2 SWAP1 POP JUMP JUMPDEST PUSH1 0x0 PUSH1 0x20 DUP3 ADD SWAP1 POP DUP2 DUP2 SUB PUSH1 0x0 DUP4 ADD MSTORE PUSH2 0x138B DUP2 PUSH2 0x134F JUMP JUMPDEST SWAP1 POP SWAP2 SWAP1 POP JUMP JUMPDEST PUSH32 0x4E487B7100000000000000000000000000000000000000000000000000000000 PUSH1 0x0 MSTORE PUSH1 0x32 PUSH1 0x4 MSTORE PUSH1 0x24 PUSH1 0x0 REVERT JUMPDEST PUSH32 0x4E487B7100000000000000000000000000000000000000000000000000000000 PUSH1 0x0 MSTORE PUSH1 0x22 PUSH1 0x4 MSTORE PUSH1 0x24 PUSH1 0x0 REVERT JUMPDEST PUSH1 0x0 PUSH1 0x2 DUP3 DIV SWAP1 POP PUSH1 0x1 DUP3 AND DUP1 PUSH2 0x1408 JUMPI PUSH1 0x7F DUP3 AND SWAP2 POP JUMPDEST PUSH1 0x20 DUP3 LT DUP2 SUB PUSH2 0x141B JUMPI PUSH2 0x141A PUSH2 0x13C1 JUMP JUMPDEST JUMPDEST POP SWAP2 SWAP1 POP JUMP JUMPDEST PUSH32 0x496E76616C696420766F74650000000000000000000000000000000000000000 PUSH1 0x0 DUP3 ADD MSTORE POP JUMP JUMPDEST PUSH1 0x0 PUSH2 0x1457 PUSH1 0xC DUP4 PUSH2 0xC14 JUMP JUMPDEST SWAP2 POP PUSH2 0x1462 DUP3 PUSH2 0x1421 JUMP JUMPDEST PUSH1 0x20 DUP3 ADD SWAP1 POP SWAP2 SWAP1 POP JUMP JUMPDEST PUSH1 0x0 PUSH1 0x20 DUP3 ADD SWAP1 POP DUP2 DUP2 SUB PUSH1 0x0 DUP4 ADD MSTORE PUSH2 0x1486 DUP2 PUSH2 0x144A JUMP JUMPDEST SWAP1 POP SWAP2 SWAP1 POP JUMP JUMPDEST PUSH32 0x596F7520616C726561647920766F746564000000000000000000000000000000 PUSH1 0x0 DUP3 ADD MSTORE POP JUMP JUMPDEST PUSH1 0x0 PUSH2 0x14C3 PUSH1 0x11 DUP4 PUSH2 0xC14 JUMP JUMPDEST SWAP2 POP PUSH2 0x14CE DUP3 PUSH2 0x148D JUMP JUMPDEST PUSH1 0x20 DUP3 ADD SWAP1 POP SWAP2 SWAP1 POP JUMP JUMPDEST PUSH1 0x0 PUSH1 0x20 DUP3 ADD SWAP1 POP DUP2 DUP2 SUB PUSH1 0x0 DUP4 ADD MSTORE PUSH2 0x14F2 DUP2 PUSH2 0x14B6 JUMP JUMPDEST SWAP1 POP SWAP2 SWAP1 POP JUMP JUMPDEST PUSH32 0x4E487B7100000000000000000000000000000000000000000000000000000000 PUSH1 0x0 MSTORE PUSH1 0x11 PUSH1 0x4 MSTORE PUSH1 0x24 PUSH1 0x0 REVERT JUMPDEST PUSH1 0x0 PUSH2 0x1533 DUP3 PUSH2 0xB83 JUMP JUMPDEST SWAP2 POP PUSH2 0x153E DUP4 PUSH2 0xB83 JUMP JUMPDEST SWAP3 POP DUP3 DUP3 ADD SWAP1 POP PUSH8 0xFFFFFFFFFFFFFFFF DUP2 GT ISZERO PUSH2 0x155E JUMPI PUSH2 0x155D PUSH2 0x14F9 JUMP JUMPDEST JUMPDEST SWAP3 SWAP2 POP POP JUMP JUMPDEST PUSH32 0x456D707479207175657374696F6E000000000000000000000000000000000000 PUSH1 0x0 DUP3 ADD MSTORE POP JUMP JUMPDEST PUSH1 0x0 PUSH2 0x159A PUSH1 0xE DUP4 PUSH2 0xC14 JUMP JUMPDEST SWAP2 POP PUSH2 0x15A5 DUP3 PUSH2 0x1564 JUMP JUMPDEST PUSH1 0x20 DUP3 ADD SWAP1 POP SWAP2 SWAP1 POP JUMP JUMPDEST PUSH1 0x0 PUSH1 0x20 DUP3 ADD SWAP1 POP DUP2 DUP2 SUB PUSH1 0x0 DUP4 ADD MSTORE PUSH2 0x15C9 DUP2 PUSH2 0x158D JUMP JUMPDEST SWAP1 POP SWAP2 SWAP1 POP JUMP JUMPDEST PUSH32 0x4174206C656173742032206F7074696F6E732072657175697265640000000000 PUSH1 0x0 DUP3 ADD MSTORE POP JUMP JUMPDEST PUSH1 0x0 PUSH2 0x1606 PUSH1 0x1B DUP4 PUSH2 0xC14 JUMP JUMPDEST SWAP2 POP PUSH2 0x1611 DUP3 PUSH2 0x15D0 JUMP JUMPDEST PUSH1 0x20 DUP3 ADD SWAP1 POP SWAP2 SWAP1 POP JUMP JUMPDEST PUSH1 0x0 PUSH1 0x20 DUP3 ADD SWAP1 POP DUP2 DUP2 SUB PUSH1 0x0 DUP4 ADD MSTORE PUSH2 0x1635 DUP2 PUSH2 0x15F9 JUMP JUMPDEST SWAP1 POP SWAP2 SWAP1 POP JUMP JUMPDEST PUSH1 0x0 DUP2 SWAP1 POP DUP2 PUSH1 0x0 MSTORE PUSH1 0x20 PUSH1 0x0 KECCAK256 SWAP1 POP SWAP2 SWAP1 POP JUMP JUMPDEST PUSH1 0x0 PUSH1 0x20 PUSH1 0x1F DUP4 ADD DIV SWAP1 POP SWAP2 SWAP1 POP JUMP JUMPDEST PUSH1 0x0 DUP3 DUP3 SHL SWAP1 POP SWAP3 SWAP2 POP POP JUMP JUMPDEST PUSH1 0x0 PUSH1 0x8 DUP4 MUL PUSH2 0x169E PUSH32 0xFFFFFFFFFFFFFFFFFFFFFFFFFFFFFFFFFFFFFFFFFFFFFFFFFFFFFFFFFFFFFFFF DUP3 PUSH2 0x1661 JUMP JUMPDEST PUSH2 0x16A8 DUP7 DUP4 PUSH2 0x1661 JUMP JUMPDEST SWAP6 POP DUP1 NOT DUP5 AND SWAP4 POP DUP1 DUP7 AND DUP5 OR SWAP3 POP POP POP SWAP4 SWAP3 POP POP POP JUMP JUMPDEST PUSH1 0x0 DUP2 SWAP1 POP SWAP2 SWAP1 POP JUMP JUMPDEST PUSH1 0x0 PUSH2 0x16E5 PUSH2 0x16E0 PUSH2 0x16DB DUP5 PUSH2 0xBF0 JUMP JUMPDEST PUSH2 0x16C0 JUMP JUMPDEST PUSH2 0xBF0 JUMP JUMPDEST SWAP1 POP SWAP2 SWAP1 POP JUMP JUMPDEST PUSH1 0x0 DUP2 SWAP1 POP SWAP2 SWAP1 POP JUMP JUMPDEST PUSH2 0x16FF DUP4 PUSH2 0x16CA JUMP JUMPDEST PUSH2 0x1713 PUSH2 0x170B DUP3 PUSH2 0x16EC JUMP JUMPDEST DUP5 DUP5 SLOAD PUSH2 0x166E JUMP JUMPDEST DUP3 SSTORE POP POP POP POP JUMP JUMPDEST PUSH1 0x0 SWAP1 JUMP JUMPDEST PUSH2 0x1728 PUSH2 0x171B JUMP JUMPDEST PUSH2 0x1733 DUP2 DUP5 DUP5 PUSH2 0x16F6 JUMP JUMPDEST POP POP POP JUMP JUMPDEST JUMPDEST DUP2 DUP2 LT ISZERO PUSH2 0x1757 JUMPI PUSH2 0x174C PUSH1 0x0 DUP3 PUSH2 0x1720 JUMP JUMPDEST PUSH1 0x1 DUP2 ADD SWAP1 POP PUSH2 0x1739 JUMP JUMPDEST POP POP JUMP JUMPDEST PUSH1 0x1F DUP3 GT ISZERO PUSH2 0x179C JUMPI PUSH2 0x176D DUP2 PUSH2 0x163C JUMP JUMPDEST PUSH2 0x1776 DUP5 PUSH2 0x1651 JUMP JUMPDEST DUP2 ADD PUSH1 0x20 DUP6 LT ISZERO PUSH2 0x1785 JUMPI DUP2 SWAP1 POP JUMPDEST PUSH2 0x1799 PUSH2 0x1791 DUP6 PUSH2 0x1651 JUMP JUMPDEST DUP4 ADD DUP3 PUSH2 0x1738 JUMP JUMPDEST POP POP JUMPDEST POP POP POP JUMP JUMPDEST PUSH1 0x0 DUP3 DUP3 SHR SWAP1 POP SWAP3 SWAP2 POP POP JUMP JUMPDEST PUSH1 0x0 PUSH2 0x17BF PUSH1 0x0 NOT DUP5 PUSH1 0x8 MUL PUSH2 0x17A1 JUMP JUMPDEST NOT DUP1 DUP4 AND SWAP2 POP POP SWAP3 SWAP2 POP POP JUMP JUMPDEST PUSH1 0x0 PUSH2 0x17D8 DUP4 DUP4 PUSH2 0x17AE JUMP JUMPDEST SWAP2 POP DUP3 PUSH1 0x2 MUL DUP3 OR SWAP1 POP SWAP3 SWAP2 POP POP JUMP JUMPDEST PUSH2 0x17F1 DUP3 PUSH2 0xC09 JUMP JUMPDEST PUSH8 0xFFFFFFFFFFFFFFFF DUP2 GT ISZERO PUSH2 0x180A JUMPI PUSH2 0x1809 PUSH2 0xED8 JUMP JUMPDEST JUMPDEST PUSH2 0x1814 DUP3 SLOAD PUSH2 0x13F0 JUMP JUMPDEST PUSH2 0x181F DUP3 DUP3 DUP6 PUSH2 0x175B JUMP JUMPDEST PUSH1 0x0 PUSH1 0x20 SWAP1 POP PUSH1 0x1F DUP4 GT PUSH1 0x1 DUP2 EQ PUSH2 0x1852 JUMPI PUSH1 0x0 DUP5 ISZERO PUSH2 0x1840 JUMPI DUP3 DUP8 ADD MLOAD SWAP1 POP JUMPDEST PUSH2 0x184A DUP6 DUP3 PUSH2 0x17CC JUMP JUMPDEST DUP7 SSTORE POP PUSH2 0x18B2 JUMP JUMPDEST PUSH1 0x1F NOT DUP5 AND PUSH2 0x1860 DUP7 PUSH2 0x163C JUMP JUMPDEST PUSH1 0x0 JUMPDEST DUP3 DUP2 LT ISZERO PUSH2 0x1888 JUMPI DUP5 DUP10 ADD MLOAD DUP3 SSTORE PUSH1 0x1 DUP3 ADD SWAP2 POP PUSH1 0x20 DUP6 ADD SWAP5 POP PUSH1 0x20 DUP2 ADD SWAP1 POP PUSH2 0x1863 JUMP JUMPDEST DUP7 DUP4 LT ISZERO PUSH2 0x18A5 JUMPI DUP5 DUP10 ADD MLOAD PUSH2 0x18A1 PUSH1 0x1F DUP10 AND DUP3 PUSH2 0x17AE JUMP JUMPDEST DUP4 SSTORE POP JUMPDEST PUSH1 0x1 PUSH1 0x2 DUP9 MUL ADD DUP9 SSTORE POP POP POP JUMPDEST POP POP POP POP POP POP JUMP INVALID LOG2 PUSH5 0x6970667358 0x22 SLT KECCAK256 SWAP9 SELFDESTRUCT SWAP9 DUP7 0x22 GASLIMIT 0xD8 MSIZE 0xF9 0xB5 DELEGATECALL BYTE PUSH7 0xDDF08F4247B1A4 MULMOD 0xE7 LOG1 0xBF 0xEB 0x2E BYTE SWAP13 0xAF SUB CODECOPY PUSH13 0x64736F6C634300081000330000 "
				},
				"gasEstimates": {
					"creation": {
						"codeDepositCost": "1276800",
						"executionCost": "1329",
						"totalCost": "1278129"
					},
					"external": {
						"createPoll(string,string,bytes32[])": "infinite",
						"getPoll(uint64)": "infinite",
						"getVoter(address)": "infinite",
						"vote(uint64,uint64)": "infinite"
					}
				},
				"methodIdentifiers": {
					"createPoll(string,string,bytes32[])": "7ba91041",
					"getPoll(uint64)": "157bd75d",
					"getVoter(address)": "d4f50f98",
					"vote(uint64,uint64)": "3d51e9d9"
				}
			},
			"storageLayout": {
				"storage": [
					{
						"astId": 28,
						"contract": "poll.sol:PollContract",
						"label": "polls",
						"offset": 0,
						"slot": "0",
						"type": "t_array(t_struct(Poll)14_storage)dyn_storage"
					},
					{
						"astId": 33,
						"contract": "poll.sol:PollContract",
						"label": "voters",
						"offset": 0,
						"slot": "1",
						"type": "t_mapping(t_address,t_struct(Voter)24_storage)"
					}
				],
				"types": {
					"t_address": {
						"encoding": "inplace",
						"label": "address",
						"numberOfBytes": "20"
					},
					"t_array(t_bytes32)dyn_storage": {
						"base": "t_bytes32",
						"encoding": "dynamic_array",
						"label": "bytes32[]",
						"numberOfBytes": "32"
					},
					"t_array(t_struct(Poll)14_storage)dyn_storage": {
						"base": "t_struct(Poll)14_storage",
						"encoding": "dynamic_array",
						"label": "struct PollContract.Poll[]",
						"numberOfBytes": "32"
					},
					"t_array(t_uint256)dyn_storage": {
						"base": "t_uint256",
						"encoding": "dynamic_array",
						"label": "uint256[]",
						"numberOfBytes": "32"
					},
					"t_array(t_uint64)dyn_storage": {
						"base": "t_uint64",
						"encoding": "dynamic_array",
						"label": "uint64[]",
						"numberOfBytes": "32"
					},
					"t_bool": {
						"encoding": "inplace",
						"label": "bool",
						"numberOfBytes": "1"
					},
					"t_bytes32": {
						"encoding": "inplace",
						"label": "bytes32",
						"numberOfBytes": "32"
					},
					"t_mapping(t_address,t_struct(Voter)24_storage)": {
						"encoding": "mapping",
						"key": "t_address",
						"label": "mapping(address => struct PollContract.Voter)",
						"numberOfBytes": "32",
						"value": "t_struct(Voter)24_storage"
					},
					"t_mapping(t_uint256,t_bool)": {
						"encoding": "mapping",
						"key": "t_uint256",
						"label": "mapping(uint256 => bool)",
						"numberOfBytes": "32",
						"value": "t_bool"
					},
					"t_string_storage": {
						"encoding": "bytes",
						"label": "string",
						"numberOfBytes": "32"
					},
					"t_struct(Poll)14_storage": {
						"encoding": "inplace",
						"label": "struct PollContract.Poll",
						"members": [
							{
								"astId": 3,
								"contract": "poll.sol:PollContract",
								"label": "id",
								"offset": 0,
								"slot": "0",
								"type": "t_uint256"
							},
							{
								"astId": 5,
								"contract": "poll.sol:PollContract",
								"label": "question",
								"offset": 0,
								"slot": "1",
								"type": "t_string_storage"
							},
							{
								"astId": 7,
								"contract": "poll.sol:PollContract",
								"label": "thumbnail",
								"offset": 0,
								"slot": "2",
								"type": "t_string_storage"
							},
							{
								"astId": 10,
								"contract": "poll.sol:PollContract",
								"label": "votes",
								"offset": 0,
								"slot": "3",
								"type": "t_array(t_uint64)dyn_storage"
							},
							{
								"astId": 13,
								"contract": "poll.sol:PollContract",
								"label": "options",
								"offset": 0,
								"slot": "4",
								"type": "t_array(t_bytes32)dyn_storage"
							}
						],
						"numberOfBytes": "160"
					},
					"t_struct(Voter)24_storage": {
						"encoding": "inplace",
						"label": "struct PollContract.Voter",
						"members": [
							{
								"astId": 16,
								"contract": "poll.sol:PollContract",
								"label": "id",
								"offset": 0,
								"slot": "0",
								"type": "t_address"
							},
							{
								"astId": 19,
								"contract": "poll.sol:PollContract",
								"label": "votedIds",
								"offset": 0,
								"slot": "1",
								"type": "t_array(t_uint256)dyn_storage"
							},
							{
								"astId": 23,
								"contract": "poll.sol:PollContract",
								"label": "votedMap",
								"offset": 0,
								"slot": "2",
								"type": "t_mapping(t_uint256,t_bool)"
							}
						],
						"numberOfBytes": "96"
					},
					"t_uint256": {
						"encoding": "inplace",
						"label": "uint256",
						"numberOfBytes": "32"
					},
					"t_uint64": {
						"encoding": "inplace",
						"label": "uint64",
						"numberOfBytes": "8"
					}
				}
			},
			"userdoc": {
				"kind": "user",
				"methods": {},
				"version": 1
			}
		}
	}
}