{
	"poll.sol": {
		"PollContract": {
			"abi": [
				{
					"inputs": [
						{
							"internalType": "string",
							"name": "_question",
							"type": "string"
						},
						{
							"internalType": "string",
							"name": "_thumb",
							"type": "string"
						},
						{
							"internalType": "bytes32[]",
							"name": "_options",
							"type": "bytes32[]"
						}
					],
					"name": "createPoll",
					"outputs": [],
					"stateMutability": "nonpayable",
					"type": "function"
				},
				{
					"inputs": [
						{
							"internalType": "uint64",
							"name": "_pollId",
							"type": "uint64"
						}
					],
					"name": "getPoll",
					"outputs": [
						{
							"internalType": "uint256",
							"name": "",
							"type": "uint256"
						},
						{
							"internalType": "string",
							"name": "",
							"type": "string"
						},
						{
							"internalType": "string",
							"name": "",
							"type": "string"
						},
						{
							"internalType": "uint64[]",
							"name": "",
							"type": "uint64[]"
						},
						{
							"internalType": "bytes32[]",
							"name": "",
							"type": "bytes32[]"
						}
					],
					"stateMutability": "view",
					"type": "function"
				},
				{
					"inputs": [
						{
							"internalType": "uint64",
							"name": "_pollId",
							"type": "uint64"
						},
						{
							"internalType": "uint64",
							"name": "_vote",
							"type": "uint64"
						}
					],
					"name": "vote",
					"outputs": [],
					"stateMutability": "nonpayable",
					"type": "function"
				}
			],
			"devdoc": {
				"kind": "dev",
				"methods": {},
				"version": 1
			},
			"evm": {
				"assembly": "    /* \"poll.sol\":26:1677  contract PollContract {... */\n  mstore(0x40, 0x80)\n  callvalue\n  dup1\n  iszero\n  tag_1\n  jumpi\n  0x00\n  dup1\n  revert\ntag_1:\n  pop\n  dataSize(sub_0)\n  dup1\n  dataOffset(sub_0)\n  0x00\n  codecopy\n  0x00\n  return\nstop\n\nsub_0: assembly {\n        /* \"poll.sol\":26:1677  contract PollContract {... */\n      mstore(0x40, 0x80)\n      callvalue\n      dup1\n      iszero\n      tag_1\n      jumpi\n      0x00\n      dup1\n      revert\n    tag_1:\n      pop\n      jumpi(tag_2, lt(calldatasize, 0x04))\n      shr(0xe0, calldataload(0x00))\n      dup1\n      0x157bd75d\n      eq\n      tag_3\n      jumpi\n      dup1\n      0x3d51e9d9\n      eq\n      tag_4\n      jumpi\n      dup1\n      0x7ba91041\n      eq\n      tag_5\n      jumpi\n    tag_2:\n      0x00\n      dup1\n      revert\n        /* \"poll.sol\":1063:1423  function getPoll(uint64 _pollId) external view  pollExists(_pollId) returns(uint256, string memory, string memory, uint64[] memory, bytes32[] memory) {... */\n    tag_3:\n      tag_6\n      0x04\n      dup1\n      calldatasize\n      sub\n      dup2\n      add\n      swap1\n      tag_7\n      swap2\n      swap1\n      tag_8\n      jump\t// in\n    tag_7:\n      tag_9\n      jump\t// in\n    tag_6:\n      mload(0x40)\n      tag_10\n      swap6\n      swap5\n      swap4\n      swap3\n      swap2\n      swap1\n      tag_11\n      jump\t// in\n    tag_10:\n      mload(0x40)\n      dup1\n      swap2\n      sub\n      swap1\n      return\n        /* \"poll.sol\":1429:1675  function vote(uint64 _pollId, uint64 _vote) external pollExists(_pollId) {... */\n    tag_4:\n      tag_12\n      0x04\n      dup1\n      calldatasize\n      sub\n      dup2\n      add\n      swap1\n      tag_13\n      swap2\n      swap1\n      tag_14\n      jump\t// in\n    tag_13:\n      tag_15\n      jump\t// in\n    tag_12:\n      stop\n        /* \"poll.sol\":527:1057  function createPoll(string memory _question, string memory _thumb, bytes32[] memory _options) public  {... */\n    tag_5:\n      tag_16\n      0x04\n      dup1\n      calldatasize\n      sub\n      dup2\n      add\n      swap1\n      tag_17\n      swap2\n      swap1\n      tag_18\n      jump\t// in\n    tag_17:\n      tag_19\n      jump\t// in\n    tag_16:\n      stop\n        /* \"poll.sol\":1063:1423  function getPoll(uint64 _pollId) external view  pollExists(_pollId) returns(uint256, string memory, string memory, uint64[] memory, bytes32[] memory) {... */\n    tag_9:\n        /* \"poll.sol\":1139:1146  uint256 */\n      0x00\n        /* \"poll.sol\":1148:1161  string memory */\n      0x60\n        /* \"poll.sol\":1163:1176  string memory */\n      dup1\n        /* \"poll.sol\":1178:1193  uint64[] memory */\n      0x60\n        /* \"poll.sol\":1195:1211  bytes32[] memory */\n      dup1\n        /* \"poll.sol\":1122:1129  _pollId */\n      dup6\n        /* \"poll.sol\":457:462  polls */\n      0x00\n        /* \"poll.sol\":457:469  polls.length */\n      dup1\n      sload\n      swap1\n      pop\n        /* \"poll.sol\":447:454  _pollId */\n      dup2\n        /* \"poll.sol\":447:469  _pollId < polls.length */\n      0xffffffffffffffff\n      and\n      lt\n        /* \"poll.sol\":447:485  _pollId < polls.length && _pollId >= 0 */\n      dup1\n      iszero\n      tag_21\n      jumpi\n      pop\n        /* \"poll.sol\":484:485  0 */\n      0x00\n        /* \"poll.sol\":473:480  _pollId */\n      dup2\n        /* \"poll.sol\":473:485  _pollId >= 0 */\n      0xffffffffffffffff\n      and\n      lt\n      iszero\n        /* \"poll.sol\":447:485  _pollId < polls.length && _pollId >= 0 */\n    tag_21:\n        /* \"poll.sol\":439:503  require(_pollId < polls.length && _pollId >= 0, \"No poll found\") */\n      tag_22\n      jumpi\n      mload(0x40)\n      0x08c379a000000000000000000000000000000000000000000000000000000000\n      dup2\n      mstore\n      0x04\n      add\n      tag_23\n      swap1\n      tag_24\n      jump\t// in\n    tag_23:\n      mload(0x40)\n      dup1\n      swap2\n      sub\n      swap1\n      revert\n    tag_22:\n        /* \"poll.sol\":1244:1249  polls */\n      0x00\n        /* \"poll.sol\":1250:1257  _pollId */\n      dup8\n        /* \"poll.sol\":1244:1258  polls[_pollId] */\n      0xffffffffffffffff\n      and\n      dup2\n      sload\n      dup2\n      lt\n      tag_26\n      jumpi\n      tag_27\n      tag_28\n      jump\t// in\n    tag_27:\n    tag_26:\n      swap1\n      0x00\n      mstore\n      keccak256(0x00, 0x20)\n      swap1\n      0x05\n      mul\n      add\n        /* \"poll.sol\":1244:1261  polls[_pollId].id */\n      0x00\n      add\n      sload\n        /* \"poll.sol\":1275:1280  polls */\n      0x00\n        /* \"poll.sol\":1281:1288  _pollId */\n      dup9\n        /* \"poll.sol\":1275:1289  polls[_pollId] */\n      0xffffffffffffffff\n      and\n      dup2\n      sload\n      dup2\n      lt\n      tag_30\n      jumpi\n      tag_31\n      tag_28\n      jump\t// in\n    tag_31:\n    tag_30:\n      swap1\n      0x00\n      mstore\n      keccak256(0x00, 0x20)\n      swap1\n      0x05\n      mul\n      add\n        /* \"poll.sol\":1275:1298  polls[_pollId].question */\n      0x01\n      add\n        /* \"poll.sol\":1312:1317  polls */\n      0x00\n        /* \"poll.sol\":1318:1325  _pollId */\n      dup10\n        /* \"poll.sol\":1312:1326  polls[_pollId] */\n      0xffffffffffffffff\n      and\n      dup2\n      sload\n      dup2\n      lt\n      tag_33\n      jumpi\n      tag_34\n      tag_28\n      jump\t// in\n    tag_34:\n    tag_33:\n      swap1\n      0x00\n      mstore\n      keccak256(0x00, 0x20)\n      swap1\n      0x05\n      mul\n      add\n        /* \"poll.sol\":1312:1336  polls[_pollId].thumbnail */\n      0x02\n      add\n        /* \"poll.sol\":1350:1355  polls */\n      0x00\n        /* \"poll.sol\":1356:1363  _pollId */\n      dup11\n        /* \"poll.sol\":1350:1364  polls[_pollId] */\n      0xffffffffffffffff\n      and\n      dup2\n      sload\n      dup2\n      lt\n      tag_36\n      jumpi\n      tag_37\n      tag_28\n      jump\t// in\n    tag_37:\n    tag_36:\n      swap1\n      0x00\n      mstore\n      keccak256(0x00, 0x20)\n      swap1\n      0x05\n      mul\n      add\n        /* \"poll.sol\":1350:1370  polls[_pollId].votes */\n      0x03\n      add\n        /* \"poll.sol\":1384:1389  polls */\n      0x00\n        /* \"poll.sol\":1390:1397  _pollId */\n      dup12\n        /* \"poll.sol\":1384:1398  polls[_pollId] */\n      0xffffffffffffffff\n      and\n      dup2\n      sload\n      dup2\n      lt\n      tag_39\n      jumpi\n      tag_40\n      tag_28\n      jump\t// in\n    tag_40:\n    tag_39:\n      swap1\n      0x00\n      mstore\n      keccak256(0x00, 0x20)\n      swap1\n      0x05\n      mul\n      add\n        /* \"poll.sol\":1384:1406  polls[_pollId].options */\n      0x04\n      add\n        /* \"poll.sol\":1223:1416  return (... */\n      dup4\n      dup1\n      sload\n      tag_42\n      swap1\n      tag_43\n      jump\t// in\n    tag_42:\n      dup1\n      0x1f\n      add\n      0x20\n      dup1\n      swap2\n      div\n      mul\n      0x20\n      add\n      mload(0x40)\n      swap1\n      dup2\n      add\n      0x40\n      mstore\n      dup1\n      swap3\n      swap2\n      swap1\n      dup2\n      dup2\n      mstore\n      0x20\n      add\n      dup3\n      dup1\n      sload\n      tag_44\n      swap1\n      tag_43\n      jump\t// in\n    tag_44:\n      dup1\n      iszero\n      tag_45\n      jumpi\n      dup1\n      0x1f\n      lt\n      tag_46\n      jumpi\n      0x0100\n      dup1\n      dup4\n      sload\n      div\n      mul\n      dup4\n      mstore\n      swap2\n      0x20\n      add\n      swap2\n      jump(tag_45)\n    tag_46:\n      dup3\n      add\n      swap2\n      swap1\n      0x00\n      mstore\n      keccak256(0x00, 0x20)\n      swap1\n    tag_47:\n      dup2\n      sload\n      dup2\n      mstore\n      swap1\n      0x01\n      add\n      swap1\n      0x20\n      add\n      dup1\n      dup4\n      gt\n      tag_47\n      jumpi\n      dup3\n      swap1\n      sub\n      0x1f\n      and\n      dup3\n      add\n      swap2\n    tag_45:\n      pop\n      pop\n      pop\n      pop\n      pop\n      swap4\n      pop\n      dup3\n      dup1\n      sload\n      tag_48\n      swap1\n      tag_43\n      jump\t// in\n    tag_48:\n      dup1\n      0x1f\n      add\n      0x20\n      dup1\n      swap2\n      div\n      mul\n      0x20\n      add\n      mload(0x40)\n      swap1\n      dup2\n      add\n      0x40\n      mstore\n      dup1\n      swap3\n      swap2\n      swap1\n      dup2\n      dup2\n      mstore\n      0x20\n      add\n      dup3\n      dup1\n      sload\n      tag_49\n      swap1\n      tag_43\n      jump\t// in\n    tag_49:\n      dup1\n      iszero\n      tag_50\n      jumpi\n      dup1\n      0x1f\n      lt\n      tag_51\n      jumpi\n      0x0100\n      dup1\n      dup4\n      sload\n      div\n      mul\n      dup4\n      mstore\n      swap2\n      0x20\n      add\n      swap2\n      jump(tag_50)\n    tag_51:\n      dup3\n      add\n      swap2\n      swap1\n      0x00\n      mstore\n      keccak256(0x00, 0x20)\n      swap1\n    tag_52:\n      dup2\n      sload\n      dup2\n      mstore\n      swap1\n      0x01\n      add\n      swap1\n      0x20\n      add\n      dup1\n      dup4\n      gt\n      tag_52\n      jumpi\n      dup3\n      swap1\n      sub\n      0x1f\n      and\n      dup3\n      add\n      swap2\n    tag_50:\n      pop\n      pop\n      pop\n      pop\n      pop\n      swap3\n      pop\n      dup2\n      dup1\n      sload\n      dup1\n      0x20\n      mul\n      0x20\n      add\n      mload(0x40)\n      swap1\n      dup2\n      add\n      0x40\n      mstore\n      dup1\n      swap3\n      swap2\n      swap1\n      dup2\n      dup2\n      mstore\n      0x20\n      add\n      dup3\n      dup1\n      sload\n      dup1\n      iszero\n      tag_53\n      jumpi\n      0x20\n      mul\n      dup3\n      add\n      swap2\n      swap1\n      0x00\n      mstore\n      keccak256(0x00, 0x20)\n      swap1\n      0x00\n      swap1\n    tag_54:\n      dup3\n      dup3\n      swap1\n      sload\n      swap1\n      0x0100\n      exp\n      swap1\n      div\n      0xffffffffffffffff\n      and\n      0xffffffffffffffff\n      and\n      dup2\n      mstore\n      0x20\n      add\n      swap1\n      0x08\n      add\n      swap1\n      0x20\n      dup3\n      0x07\n      add\n      div\n      swap3\n      dup4\n      add\n      swap3\n      0x01\n      sub\n      dup3\n      mul\n      swap2\n      pop\n      dup1\n      dup5\n      gt\n      tag_54\n      jumpi\n      swap1\n      pop\n    tag_53:\n      pop\n      pop\n      pop\n      pop\n      pop\n      swap2\n      pop\n      dup1\n      dup1\n      sload\n      dup1\n      0x20\n      mul\n      0x20\n      add\n      mload(0x40)\n      swap1\n      dup2\n      add\n      0x40\n      mstore\n      dup1\n      swap3\n      swap2\n      swap1\n      dup2\n      dup2\n      mstore\n      0x20\n      add\n      dup3\n      dup1\n      sload\n      dup1\n      iszero\n      tag_55\n      jumpi\n      0x20\n      mul\n      dup3\n      add\n      swap2\n      swap1\n      0x00\n      mstore\n      keccak256(0x00, 0x20)\n      swap1\n    tag_56:\n      dup2\n      sload\n      dup2\n      mstore\n      0x20\n      add\n      swap1\n      0x01\n      add\n      swap1\n      dup1\n      dup4\n      gt\n      tag_56\n      jumpi\n    tag_55:\n      pop\n      pop\n      pop\n      pop\n      pop\n      swap1\n      pop\n      swap6\n      pop\n      swap6\n      pop\n      swap6\n      pop\n      swap6\n      pop\n      swap6\n      pop\n        /* \"poll.sol\":1063:1423  function getPoll(uint64 _pollId) external view  pollExists(_pollId) returns(uint256, string memory, string memory, uint64[] memory, bytes32[] memory) {... */\n      pop\n      swap2\n      swap4\n      swap6\n      swap1\n      swap3\n      swap5\n      pop\n      jump\t// out\n        /* \"poll.sol\":1429:1675  function vote(uint64 _pollId, uint64 _vote) external pollExists(_pollId) {... */\n    tag_15:\n        /* \"poll.sol\":1493:1500  _pollId */\n      dup2\n        /* \"poll.sol\":457:462  polls */\n      0x00\n        /* \"poll.sol\":457:469  polls.length */\n      dup1\n      sload\n      swap1\n      pop\n        /* \"poll.sol\":447:454  _pollId */\n      dup2\n        /* \"poll.sol\":447:469  _pollId < polls.length */\n      0xffffffffffffffff\n      and\n      lt\n        /* \"poll.sol\":447:485  _pollId < polls.length && _pollId >= 0 */\n      dup1\n      iszero\n      tag_58\n      jumpi\n      pop\n        /* \"poll.sol\":484:485  0 */\n      0x00\n        /* \"poll.sol\":473:480  _pollId */\n      dup2\n        /* \"poll.sol\":473:485  _pollId >= 0 */\n      0xffffffffffffffff\n      and\n      lt\n      iszero\n        /* \"poll.sol\":447:485  _pollId < polls.length && _pollId >= 0 */\n    tag_58:\n        /* \"poll.sol\":439:503  require(_pollId < polls.length && _pollId >= 0, \"No poll found\") */\n      tag_59\n      jumpi\n      mload(0x40)\n      0x08c379a000000000000000000000000000000000000000000000000000000000\n      dup2\n      mstore\n      0x04\n      add\n      tag_60\n      swap1\n      tag_24\n      jump\t// in\n    tag_60:\n      mload(0x40)\n      dup1\n      swap2\n      sub\n      swap1\n      revert\n    tag_59:\n        /* \"poll.sol\":1528:1533  polls */\n      0x00\n        /* \"poll.sol\":1534:1541  _pollId */\n      dup4\n        /* \"poll.sol\":1528:1542  polls[_pollId] */\n      0xffffffffffffffff\n      and\n      dup2\n      sload\n      dup2\n      lt\n      tag_62\n      jumpi\n      tag_63\n      tag_28\n      jump\t// in\n    tag_63:\n    tag_62:\n      swap1\n      0x00\n      mstore\n      keccak256(0x00, 0x20)\n      swap1\n      0x05\n      mul\n      add\n        /* \"poll.sol\":1528:1550  polls[_pollId].options */\n      0x04\n      add\n        /* \"poll.sol\":1528:1557  polls[_pollId].options.length */\n      dup1\n      sload\n      swap1\n      pop\n        /* \"poll.sol\":1520:1525  _vote */\n      dup3\n        /* \"poll.sol\":1520:1557  _vote < polls[_pollId].options.length */\n      0xffffffffffffffff\n      and\n      lt\n        /* \"poll.sol\":1512:1574  require(_vote < polls[_pollId].options.length, \"Invalid vote\") */\n      tag_65\n      jumpi\n      mload(0x40)\n      0x08c379a000000000000000000000000000000000000000000000000000000000\n      dup2\n      mstore\n      0x04\n      add\n      tag_66\n      swap1\n      tag_67\n      jump\t// in\n    tag_66:\n      mload(0x40)\n      dup1\n      swap2\n      sub\n      swap1\n      revert\n    tag_65:\n        /* \"poll.sol\":1632:1637  false */\n      0x00\n        /* \"poll.sol\":1592:1637  voters[msg.sender].votedMap[_pollId] == false */\n      iszero\n      iszero\n        /* \"poll.sol\":1592:1598  voters */\n      0x01\n        /* \"poll.sol\":1592:1610  voters[msg.sender] */\n      0x00\n        /* \"poll.sol\":1599:1609  msg.sender */\n      caller\n        /* \"poll.sol\":1592:1610  voters[msg.sender] */\n      0xffffffffffffffffffffffffffffffffffffffff\n      and\n      0xffffffffffffffffffffffffffffffffffffffff\n      and\n      dup2\n      mstore\n      0x20\n      add\n      swap1\n      dup2\n      mstore\n      0x20\n      add\n      0x00\n      keccak256\n        /* \"poll.sol\":1592:1619  voters[msg.sender].votedMap */\n      0x02\n      add\n        /* \"poll.sol\":1592:1628  voters[msg.sender].votedMap[_pollId] */\n      0x00\n        /* \"poll.sol\":1620:1627  _pollId */\n      dup6\n        /* \"poll.sol\":1592:1628  voters[msg.sender].votedMap[_pollId] */\n      0xffffffffffffffff\n      and\n      dup2\n      mstore\n      0x20\n      add\n      swap1\n      dup2\n      mstore\n      0x20\n      add\n      0x00\n      keccak256\n      0x00\n      swap1\n      sload\n      swap1\n      0x0100\n      exp\n      swap1\n      div\n      0xff\n      and\n        /* \"poll.sol\":1592:1637  voters[msg.sender].votedMap[_pollId] == false */\n      iszero\n      iszero\n      eq\n        /* \"poll.sol\":1584:1659  require(voters[msg.sender].votedMap[_pollId] == false, \"You already voted\") */\n      tag_68\n      jumpi\n      mload(0x40)\n      0x08c379a000000000000000000000000000000000000000000000000000000000\n      dup2\n      mstore\n      0x04\n      add\n      tag_69\n      swap1\n      tag_70\n      jump\t// in\n    tag_69:\n      mload(0x40)\n      dup1\n      swap2\n      sub\n      swap1\n      revert\n    tag_68:\n        /* \"poll.sol\":1429:1675  function vote(uint64 _pollId, uint64 _vote) external pollExists(_pollId) {... */\n      pop\n      pop\n      pop\n      jump\t// out\n        /* \"poll.sol\":527:1057  function createPoll(string memory _question, string memory _thumb, bytes32[] memory _options) public  {... */\n    tag_19:\n        /* \"poll.sol\":673:674  0 */\n      0x00\n        /* \"poll.sol\":653:662  _question */\n      dup4\n        /* \"poll.sol\":647:670  bytes(_question).length */\n      mload\n        /* \"poll.sol\":647:674  bytes(_question).length > 0 */\n      gt\n        /* \"poll.sol\":639:693  require(bytes(_question).length > 0, \"Empty question\") */\n      tag_72\n      jumpi\n      mload(0x40)\n      0x08c379a000000000000000000000000000000000000000000000000000000000\n      dup2\n      mstore\n      0x04\n      add\n      tag_73\n      swap1\n      tag_74\n      jump\t// in\n    tag_73:\n      mload(0x40)\n      dup1\n      swap2\n      sub\n      swap1\n      revert\n    tag_72:\n        /* \"poll.sol\":729:730  1 */\n      0x01\n        /* \"poll.sol\":711:719  _options */\n      dup2\n        /* \"poll.sol\":711:726  _options.length */\n      mload\n        /* \"poll.sol\":711:730  _options.length > 1 */\n      gt\n        /* \"poll.sol\":703:762  require(_options.length > 1, \"At least 2 options required\") */\n      tag_75\n      jumpi\n      mload(0x40)\n      0x08c379a000000000000000000000000000000000000000000000000000000000\n      dup2\n      mstore\n      0x04\n      add\n      tag_76\n      swap1\n      tag_77\n      jump\t// in\n    tag_76:\n      mload(0x40)\n      dup1\n      swap2\n      sub\n      swap1\n      revert\n    tag_75:\n        /* \"poll.sol\":773:787  uint256 pollId */\n      0x00\n        /* \"poll.sol\":790:795  polls */\n      dup1\n        /* \"poll.sol\":790:802  polls.length */\n      dup1\n      sload\n      swap1\n      pop\n        /* \"poll.sol\":773:802  uint256 pollId = polls.length */\n      swap1\n      pop\n        /* \"poll.sol\":813:832  Poll memory newPoll */\n      0x00\n        /* \"poll.sol\":835:1020  Poll({... */\n      mload(0x40)\n      dup1\n      0xa0\n      add\n      0x40\n      mstore\n      dup1\n        /* \"poll.sol\":858:864  pollId */\n      dup4\n        /* \"poll.sol\":835:1020  Poll({... */\n      dup2\n      mstore\n      0x20\n      add\n        /* \"poll.sol\":888:897  _question */\n      dup7\n        /* \"poll.sol\":835:1020  Poll({... */\n      dup2\n      mstore\n      0x20\n      add\n        /* \"poll.sol\":922:928  _thumb */\n      dup6\n        /* \"poll.sol\":835:1020  Poll({... */\n      dup2\n      mstore\n      0x20\n      add\n        /* \"poll.sol\":993:1001  _options */\n      dup5\n        /* \"poll.sol\":993:1008  _options.length */\n      mload\n        /* \"poll.sol\":980:1009  new uint64[](_options.length) */\n      0xffffffffffffffff\n      dup2\n      gt\n      iszero\n      tag_78\n      jumpi\n      tag_79\n      tag_80\n      jump\t// in\n    tag_79:\n    tag_78:\n      mload(0x40)\n      swap1\n      dup1\n      dup3\n      mstore\n      dup1\n      0x20\n      mul\n      0x20\n      add\n      dup3\n      add\n      0x40\n      mstore\n      dup1\n      iszero\n      tag_81\n      jumpi\n      dup2\n      0x20\n      add\n      0x20\n      dup3\n      mul\n      dup1\n      calldatasize\n      dup4\n      calldatacopy\n      dup1\n      dup3\n      add\n      swap2\n      pop\n      pop\n      swap1\n      pop\n    tag_81:\n      pop\n        /* \"poll.sol\":835:1020  Poll({... */\n      dup2\n      mstore\n      0x20\n      add\n        /* \"poll.sol\":951:959  _options */\n      dup5\n        /* \"poll.sol\":835:1020  Poll({... */\n      dup2\n      mstore\n      pop\n        /* \"poll.sol\":813:1020  Poll memory newPoll = Poll({... */\n      swap1\n      pop\n        /* \"poll.sol\":1031:1036  polls */\n      0x00\n        /* \"poll.sol\":1042:1049  newPoll */\n      dup2\n        /* \"poll.sol\":1031:1050  polls.push(newPoll) */\n      swap1\n      dup1\n      0x01\n      dup2\n      sload\n      add\n      dup1\n      dup3\n      sstore\n      dup1\n      swap2\n      pop\n      pop\n      0x01\n      swap1\n      sub\n      swap1\n      0x00\n      mstore\n      keccak256(0x00, 0x20)\n      swap1\n      0x05\n      mul\n      add\n      0x00\n      swap1\n      swap2\n      swap1\n      swap2\n      swap1\n      swap2\n      pop\n      0x00\n      dup3\n      add\n      mload\n      dup2\n      0x00\n      add\n      sstore\n      0x20\n      dup3\n      add\n      mload\n      dup2\n      0x01\n      add\n      swap1\n      dup2\n      tag_83\n      swap2\n      swap1\n      tag_84\n      jump\t// in\n    tag_83:\n      pop\n      0x40\n      dup3\n      add\n      mload\n      dup2\n      0x02\n      add\n      swap1\n      dup2\n      tag_85\n      swap2\n      swap1\n      tag_84\n      jump\t// in\n    tag_85:\n      pop\n      0x60\n      dup3\n      add\n      mload\n      dup2\n      0x03\n      add\n      swap1\n      dup1\n      mload\n      swap1\n      0x20\n      add\n      swap1\n      tag_86\n      swap3\n      swap2\n      swap1\n      tag_87\n      jump\t// in\n    tag_86:\n      pop\n      0x80\n      dup3\n      add\n      mload\n      dup2\n      0x04\n      add\n      swap1\n      dup1\n      mload\n      swap1\n      0x20\n      add\n      swap1\n      tag_88\n      swap3\n      swap2\n      swap1\n      tag_89\n      jump\t// in\n    tag_88:\n      pop\n      pop\n      pop\n        /* \"poll.sol\":629:1057  {... */\n      pop\n      pop\n        /* \"poll.sol\":527:1057  function createPoll(string memory _question, string memory _thumb, bytes32[] memory _options) public  {... */\n      pop\n      pop\n      pop\n      jump\t// out\n    tag_87:\n      dup3\n      dup1\n      sload\n      dup3\n      dup3\n      sstore\n      swap1\n      0x00\n      mstore\n      keccak256(0x00, 0x20)\n      swap1\n      0x03\n      add\n      0x04\n      swap1\n      div\n      dup2\n      add\n      swap3\n      dup3\n      iszero\n      tag_90\n      jumpi\n      swap2\n      0x20\n      mul\n      dup3\n      add\n      0x00\n    tag_91:\n      dup4\n      dup3\n      gt\n      iszero\n      tag_92\n      jumpi\n      dup4\n      mload\n      dup4\n      dup3\n      0x0100\n      exp\n      dup2\n      sload\n      dup2\n      0xffffffffffffffff\n      mul\n      not\n      and\n      swap1\n      dup4\n      0xffffffffffffffff\n      and\n      mul\n      or\n      swap1\n      sstore\n      pop\n      swap3\n      0x20\n      add\n      swap3\n      0x08\n      add\n      0x20\n      dup2\n      0x07\n      add\n      div\n      swap3\n      dup4\n      add\n      swap3\n      0x01\n      sub\n      mul\n      jump(tag_91)\n    tag_92:\n      dup1\n      iszero\n      tag_93\n      jumpi\n      dup3\n      dup2\n      0x0100\n      exp\n      dup2\n      sload\n      swap1\n      0xffffffffffffffff\n      mul\n      not\n      and\n      swap1\n      sstore\n      0x08\n      add\n      0x20\n      dup2\n      0x07\n      add\n      div\n      swap3\n      dup4\n      add\n      swap3\n      0x01\n      sub\n      mul\n      jump(tag_92)\n    tag_93:\n      pop\n    tag_90:\n      pop\n      swap1\n      pop\n      tag_94\n      swap2\n      swap1\n      tag_95\n      jump\t// in\n    tag_94:\n      pop\n      swap1\n      jump\t// out\n    tag_89:\n      dup3\n      dup1\n      sload\n      dup3\n      dup3\n      sstore\n      swap1\n      0x00\n      mstore\n      keccak256(0x00, 0x20)\n      swap1\n      dup2\n      add\n      swap3\n      dup3\n      iszero\n      tag_96\n      jumpi\n      swap2\n      0x20\n      mul\n      dup3\n      add\n    tag_97:\n      dup3\n      dup2\n      gt\n      iszero\n      tag_98\n      jumpi\n      dup3\n      mload\n      dup3\n      sstore\n      swap2\n      0x20\n      add\n      swap2\n      swap1\n      0x01\n      add\n      swap1\n      jump(tag_97)\n    tag_98:\n    tag_96:\n      pop\n      swap1\n      pop\n      tag_99\n      swap2\n      swap1\n      tag_100\n      jump\t// in\n    tag_99:\n      pop\n      swap1\n      jump\t// out\n    tag_95:\n    tag_101:\n      dup1\n      dup3\n      gt\n      iszero\n      tag_102\n      jumpi\n      0x00\n      dup2\n      0x00\n      swap1\n      sstore\n      pop\n      0x01\n      add\n      jump(tag_101)\n    tag_102:\n      pop\n      swap1\n      jump\t// out\n    tag_100:\n    tag_103:\n      dup1\n      dup3\n      gt\n      iszero\n      tag_104\n      jumpi\n      0x00\n      dup2\n      0x00\n      swap1\n      sstore\n      pop\n      0x01\n      add\n      jump(tag_103)\n    tag_104:\n      pop\n      swap1\n      jump\t// out\n        /* \"#utility.yul\":7:82   */\n    tag_105:\n        /* \"#utility.yul\":40:46   */\n      0x00\n        /* \"#utility.yul\":73:75   */\n      0x40\n        /* \"#utility.yul\":67:76   */\n      mload\n        /* \"#utility.yul\":57:76   */\n      swap1\n      pop\n        /* \"#utility.yul\":7:82   */\n      swap1\n      jump\t// out\n        /* \"#utility.yul\":88:205   */\n    tag_106:\n        /* \"#utility.yul\":197:198   */\n      0x00\n        /* \"#utility.yul\":194:195   */\n      dup1\n        /* \"#utility.yul\":187:199   */\n      revert\n        /* \"#utility.yul\":211:328   */\n    tag_107:\n        /* \"#utility.yul\":320:321   */\n      0x00\n        /* \"#utility.yul\":317:318   */\n      dup1\n        /* \"#utility.yul\":310:322   */\n      revert\n        /* \"#utility.yul\":334:435   */\n    tag_108:\n        /* \"#utility.yul\":370:377   */\n      0x00\n        /* \"#utility.yul\":410:428   */\n      0xffffffffffffffff\n        /* \"#utility.yul\":403:408   */\n      dup3\n        /* \"#utility.yul\":399:429   */\n      and\n        /* \"#utility.yul\":388:429   */\n      swap1\n      pop\n        /* \"#utility.yul\":334:435   */\n      swap2\n      swap1\n      pop\n      jump\t// out\n        /* \"#utility.yul\":441:561   */\n    tag_109:\n        /* \"#utility.yul\":513:536   */\n      tag_179\n        /* \"#utility.yul\":530:535   */\n      dup2\n        /* \"#utility.yul\":513:536   */\n      tag_108\n      jump\t// in\n    tag_179:\n        /* \"#utility.yul\":506:511   */\n      dup2\n        /* \"#utility.yul\":503:537   */\n      eq\n        /* \"#utility.yul\":493:555   */\n      tag_180\n      jumpi\n        /* \"#utility.yul\":551:552   */\n      0x00\n        /* \"#utility.yul\":548:549   */\n      dup1\n        /* \"#utility.yul\":541:553   */\n      revert\n        /* \"#utility.yul\":493:555   */\n    tag_180:\n        /* \"#utility.yul\":441:561   */\n      pop\n      jump\t// out\n        /* \"#utility.yul\":567:704   */\n    tag_110:\n        /* \"#utility.yul\":612:617   */\n      0x00\n        /* \"#utility.yul\":650:656   */\n      dup2\n        /* \"#utility.yul\":637:657   */\n      calldataload\n        /* \"#utility.yul\":628:657   */\n      swap1\n      pop\n        /* \"#utility.yul\":666:698   */\n      tag_182\n        /* \"#utility.yul\":692:697   */\n      dup2\n        /* \"#utility.yul\":666:698   */\n      tag_109\n      jump\t// in\n    tag_182:\n        /* \"#utility.yul\":567:704   */\n      swap3\n      swap2\n      pop\n      pop\n      jump\t// out\n        /* \"#utility.yul\":710:1037   */\n    tag_8:\n        /* \"#utility.yul\":768:774   */\n      0x00\n        /* \"#utility.yul\":817:819   */\n      0x20\n        /* \"#utility.yul\":805:814   */\n      dup3\n        /* \"#utility.yul\":796:803   */\n      dup5\n        /* \"#utility.yul\":792:815   */\n      sub\n        /* \"#utility.yul\":788:820   */\n      slt\n        /* \"#utility.yul\":785:904   */\n      iszero\n      tag_184\n      jumpi\n        /* \"#utility.yul\":823:902   */\n      tag_185\n      tag_106\n      jump\t// in\n    tag_185:\n        /* \"#utility.yul\":785:904   */\n    tag_184:\n        /* \"#utility.yul\":943:944   */\n      0x00\n        /* \"#utility.yul\":968:1020   */\n      tag_186\n        /* \"#utility.yul\":1012:1019   */\n      dup5\n        /* \"#utility.yul\":1003:1009   */\n      dup3\n        /* \"#utility.yul\":992:1001   */\n      dup6\n        /* \"#utility.yul\":988:1010   */\n      add\n        /* \"#utility.yul\":968:1020   */\n      tag_110\n      jump\t// in\n    tag_186:\n        /* \"#utility.yul\":958:1020   */\n      swap2\n      pop\n        /* \"#utility.yul\":914:1030   */\n      pop\n        /* \"#utility.yul\":710:1037   */\n      swap3\n      swap2\n      pop\n      pop\n      jump\t// out\n        /* \"#utility.yul\":1043:1120   */\n    tag_111:\n        /* \"#utility.yul\":1080:1087   */\n      0x00\n        /* \"#utility.yul\":1109:1114   */\n      dup2\n        /* \"#utility.yul\":1098:1114   */\n      swap1\n      pop\n        /* \"#utility.yul\":1043:1120   */\n      swap2\n      swap1\n      pop\n      jump\t// out\n        /* \"#utility.yul\":1126:1244   */\n    tag_112:\n        /* \"#utility.yul\":1213:1237   */\n      tag_189\n        /* \"#utility.yul\":1231:1236   */\n      dup2\n        /* \"#utility.yul\":1213:1237   */\n      tag_111\n      jump\t// in\n    tag_189:\n        /* \"#utility.yul\":1208:1211   */\n      dup3\n        /* \"#utility.yul\":1201:1238   */\n      mstore\n        /* \"#utility.yul\":1126:1244   */\n      pop\n      pop\n      jump\t// out\n        /* \"#utility.yul\":1250:1349   */\n    tag_113:\n        /* \"#utility.yul\":1302:1308   */\n      0x00\n        /* \"#utility.yul\":1336:1341   */\n      dup2\n        /* \"#utility.yul\":1330:1342   */\n      mload\n        /* \"#utility.yul\":1320:1342   */\n      swap1\n      pop\n        /* \"#utility.yul\":1250:1349   */\n      swap2\n      swap1\n      pop\n      jump\t// out\n        /* \"#utility.yul\":1355:1524   */\n    tag_114:\n        /* \"#utility.yul\":1439:1450   */\n      0x00\n        /* \"#utility.yul\":1473:1479   */\n      dup3\n        /* \"#utility.yul\":1468:1471   */\n      dup3\n        /* \"#utility.yul\":1461:1480   */\n      mstore\n        /* \"#utility.yul\":1513:1517   */\n      0x20\n        /* \"#utility.yul\":1508:1511   */\n      dup3\n        /* \"#utility.yul\":1504:1518   */\n      add\n        /* \"#utility.yul\":1489:1518   */\n      swap1\n      pop\n        /* \"#utility.yul\":1355:1524   */\n      swap3\n      swap2\n      pop\n      pop\n      jump\t// out\n        /* \"#utility.yul\":1530:1776   */\n    tag_115:\n        /* \"#utility.yul\":1611:1612   */\n      0x00\n        /* \"#utility.yul\":1621:1734   */\n    tag_193:\n        /* \"#utility.yul\":1635:1641   */\n      dup4\n        /* \"#utility.yul\":1632:1633   */\n      dup2\n        /* \"#utility.yul\":1629:1642   */\n      lt\n        /* \"#utility.yul\":1621:1734   */\n      iszero\n      tag_195\n      jumpi\n        /* \"#utility.yul\":1720:1721   */\n      dup1\n        /* \"#utility.yul\":1715:1718   */\n      dup3\n        /* \"#utility.yul\":1711:1722   */\n      add\n        /* \"#utility.yul\":1705:1723   */\n      mload\n        /* \"#utility.yul\":1701:1702   */\n      dup2\n        /* \"#utility.yul\":1696:1699   */\n      dup5\n        /* \"#utility.yul\":1692:1703   */\n      add\n        /* \"#utility.yul\":1685:1724   */\n      mstore\n        /* \"#utility.yul\":1657:1659   */\n      0x20\n        /* \"#utility.yul\":1654:1655   */\n      dup2\n        /* \"#utility.yul\":1650:1660   */\n      add\n        /* \"#utility.yul\":1645:1660   */\n      swap1\n      pop\n        /* \"#utility.yul\":1621:1734   */\n      jump(tag_193)\n    tag_195:\n        /* \"#utility.yul\":1768:1769   */\n      0x00\n        /* \"#utility.yul\":1759:1765   */\n      dup5\n        /* \"#utility.yul\":1754:1757   */\n      dup5\n        /* \"#utility.yul\":1750:1766   */\n      add\n        /* \"#utility.yul\":1743:1770   */\n      mstore\n        /* \"#utility.yul\":1592:1776   */\n      pop\n        /* \"#utility.yul\":1530:1776   */\n      pop\n      pop\n      pop\n      jump\t// out\n        /* \"#utility.yul\":1782:1884   */\n    tag_116:\n        /* \"#utility.yul\":1823:1829   */\n      0x00\n        /* \"#utility.yul\":1874:1876   */\n      0x1f\n        /* \"#utility.yul\":1870:1877   */\n      not\n        /* \"#utility.yul\":1865:1867   */\n      0x1f\n        /* \"#utility.yul\":1858:1863   */\n      dup4\n        /* \"#utility.yul\":1854:1868   */\n      add\n        /* \"#utility.yul\":1850:1878   */\n      and\n        /* \"#utility.yul\":1840:1878   */\n      swap1\n      pop\n        /* \"#utility.yul\":1782:1884   */\n      swap2\n      swap1\n      pop\n      jump\t// out\n        /* \"#utility.yul\":1890:2267   */\n    tag_117:\n        /* \"#utility.yul\":1978:1981   */\n      0x00\n        /* \"#utility.yul\":2006:2045   */\n      tag_198\n        /* \"#utility.yul\":2039:2044   */\n      dup3\n        /* \"#utility.yul\":2006:2045   */\n      tag_113\n      jump\t// in\n    tag_198:\n        /* \"#utility.yul\":2061:2132   */\n      tag_199\n        /* \"#utility.yul\":2125:2131   */\n      dup2\n        /* \"#utility.yul\":2120:2123   */\n      dup6\n        /* \"#utility.yul\":2061:2132   */\n      tag_114\n      jump\t// in\n    tag_199:\n        /* \"#utility.yul\":2054:2132   */\n      swap4\n      pop\n        /* \"#utility.yul\":2141:2206   */\n      tag_200\n        /* \"#utility.yul\":2199:2205   */\n      dup2\n        /* \"#utility.yul\":2194:2197   */\n      dup6\n        /* \"#utility.yul\":2187:2191   */\n      0x20\n        /* \"#utility.yul\":2180:2185   */\n      dup7\n        /* \"#utility.yul\":2176:2192   */\n      add\n        /* \"#utility.yul\":2141:2206   */\n      tag_115\n      jump\t// in\n    tag_200:\n        /* \"#utility.yul\":2231:2260   */\n      tag_201\n        /* \"#utility.yul\":2253:2259   */\n      dup2\n        /* \"#utility.yul\":2231:2260   */\n      tag_116\n      jump\t// in\n    tag_201:\n        /* \"#utility.yul\":2226:2229   */\n      dup5\n        /* \"#utility.yul\":2222:2261   */\n      add\n        /* \"#utility.yul\":2215:2261   */\n      swap2\n      pop\n        /* \"#utility.yul\":1982:2267   */\n      pop\n        /* \"#utility.yul\":1890:2267   */\n      swap3\n      swap2\n      pop\n      pop\n      jump\t// out\n        /* \"#utility.yul\":2273:2386   */\n    tag_118:\n        /* \"#utility.yul\":2339:2345   */\n      0x00\n        /* \"#utility.yul\":2373:2378   */\n      dup2\n        /* \"#utility.yul\":2367:2379   */\n      mload\n        /* \"#utility.yul\":2357:2379   */\n      swap1\n      pop\n        /* \"#utility.yul\":2273:2386   */\n      swap2\n      swap1\n      pop\n      jump\t// out\n        /* \"#utility.yul\":2392:2575   */\n    tag_119:\n        /* \"#utility.yul\":2490:2501   */\n      0x00\n        /* \"#utility.yul\":2524:2530   */\n      dup3\n        /* \"#utility.yul\":2519:2522   */\n      dup3\n        /* \"#utility.yul\":2512:2531   */\n      mstore\n        /* \"#utility.yul\":2564:2568   */\n      0x20\n        /* \"#utility.yul\":2559:2562   */\n      dup3\n        /* \"#utility.yul\":2555:2569   */\n      add\n        /* \"#utility.yul\":2540:2569   */\n      swap1\n      pop\n        /* \"#utility.yul\":2392:2575   */\n      swap3\n      swap2\n      pop\n      pop\n      jump\t// out\n        /* \"#utility.yul\":2581:2712   */\n    tag_120:\n        /* \"#utility.yul\":2647:2651   */\n      0x00\n        /* \"#utility.yul\":2670:2673   */\n      dup2\n        /* \"#utility.yul\":2662:2673   */\n      swap1\n      pop\n        /* \"#utility.yul\":2700:2704   */\n      0x20\n        /* \"#utility.yul\":2695:2698   */\n      dup3\n        /* \"#utility.yul\":2691:2705   */\n      add\n        /* \"#utility.yul\":2683:2705   */\n      swap1\n      pop\n        /* \"#utility.yul\":2581:2712   */\n      swap2\n      swap1\n      pop\n      jump\t// out\n        /* \"#utility.yul\":2718:2823   */\n    tag_121:\n        /* \"#utility.yul\":2793:2816   */\n      tag_206\n        /* \"#utility.yul\":2810:2815   */\n      dup2\n        /* \"#utility.yul\":2793:2816   */\n      tag_108\n      jump\t// in\n    tag_206:\n        /* \"#utility.yul\":2788:2791   */\n      dup3\n        /* \"#utility.yul\":2781:2817   */\n      mstore\n        /* \"#utility.yul\":2718:2823   */\n      pop\n      pop\n      jump\t// out\n        /* \"#utility.yul\":2829:3004   */\n    tag_122:\n        /* \"#utility.yul\":2896:2906   */\n      0x00\n        /* \"#utility.yul\":2917:2961   */\n      tag_208\n        /* \"#utility.yul\":2957:2960   */\n      dup4\n        /* \"#utility.yul\":2949:2955   */\n      dup4\n        /* \"#utility.yul\":2917:2961   */\n      tag_121\n      jump\t// in\n    tag_208:\n        /* \"#utility.yul\":2993:2997   */\n      0x20\n        /* \"#utility.yul\":2988:2991   */\n      dup4\n        /* \"#utility.yul\":2984:2998   */\n      add\n        /* \"#utility.yul\":2970:2998   */\n      swap1\n      pop\n        /* \"#utility.yul\":2829:3004   */\n      swap3\n      swap2\n      pop\n      pop\n      jump\t// out\n        /* \"#utility.yul\":3010:3122   */\n    tag_123:\n        /* \"#utility.yul\":3079:3083   */\n      0x00\n        /* \"#utility.yul\":3111:3115   */\n      0x20\n        /* \"#utility.yul\":3106:3109   */\n      dup3\n        /* \"#utility.yul\":3102:3116   */\n      add\n        /* \"#utility.yul\":3094:3116   */\n      swap1\n      pop\n        /* \"#utility.yul\":3010:3122   */\n      swap2\n      swap1\n      pop\n      jump\t// out\n        /* \"#utility.yul\":3156:3880   */\n    tag_124:\n        /* \"#utility.yul\":3273:3276   */\n      0x00\n        /* \"#utility.yul\":3302:3355   */\n      tag_211\n        /* \"#utility.yul\":3349:3354   */\n      dup3\n        /* \"#utility.yul\":3302:3355   */\n      tag_118\n      jump\t// in\n    tag_211:\n        /* \"#utility.yul\":3371:3456   */\n      tag_212\n        /* \"#utility.yul\":3449:3455   */\n      dup2\n        /* \"#utility.yul\":3444:3447   */\n      dup6\n        /* \"#utility.yul\":3371:3456   */\n      tag_119\n      jump\t// in\n    tag_212:\n        /* \"#utility.yul\":3364:3456   */\n      swap4\n      pop\n        /* \"#utility.yul\":3480:3535   */\n      tag_213\n        /* \"#utility.yul\":3529:3534   */\n      dup4\n        /* \"#utility.yul\":3480:3535   */\n      tag_120\n      jump\t// in\n    tag_213:\n        /* \"#utility.yul\":3558:3565   */\n      dup1\n        /* \"#utility.yul\":3589:3590   */\n      0x00\n        /* \"#utility.yul\":3574:3855   */\n    tag_214:\n        /* \"#utility.yul\":3599:3605   */\n      dup4\n        /* \"#utility.yul\":3596:3597   */\n      dup2\n        /* \"#utility.yul\":3593:3606   */\n      lt\n        /* \"#utility.yul\":3574:3855   */\n      iszero\n      tag_216\n      jumpi\n        /* \"#utility.yul\":3675:3681   */\n      dup2\n        /* \"#utility.yul\":3669:3682   */\n      mload\n        /* \"#utility.yul\":3702:3763   */\n      tag_217\n        /* \"#utility.yul\":3759:3762   */\n      dup9\n        /* \"#utility.yul\":3744:3757   */\n      dup3\n        /* \"#utility.yul\":3702:3763   */\n      tag_122\n      jump\t// in\n    tag_217:\n        /* \"#utility.yul\":3695:3763   */\n      swap8\n      pop\n        /* \"#utility.yul\":3786:3845   */\n      tag_218\n        /* \"#utility.yul\":3838:3844   */\n      dup4\n        /* \"#utility.yul\":3786:3845   */\n      tag_123\n      jump\t// in\n    tag_218:\n        /* \"#utility.yul\":3776:3845   */\n      swap3\n      pop\n        /* \"#utility.yul\":3634:3855   */\n      pop\n        /* \"#utility.yul\":3621:3622   */\n      0x01\n        /* \"#utility.yul\":3618:3619   */\n      dup2\n        /* \"#utility.yul\":3614:3623   */\n      add\n        /* \"#utility.yul\":3609:3623   */\n      swap1\n      pop\n        /* \"#utility.yul\":3574:3855   */\n      jump(tag_214)\n    tag_216:\n        /* \"#utility.yul\":3578:3592   */\n      pop\n        /* \"#utility.yul\":3871:3874   */\n      dup6\n        /* \"#utility.yul\":3864:3874   */\n      swap4\n      pop\n        /* \"#utility.yul\":3278:3880   */\n      pop\n      pop\n      pop\n        /* \"#utility.yul\":3156:3880   */\n      swap3\n      swap2\n      pop\n      pop\n      jump\t// out\n        /* \"#utility.yul\":3886:4000   */\n    tag_125:\n        /* \"#utility.yul\":3953:3959   */\n      0x00\n        /* \"#utility.yul\":3987:3992   */\n      dup2\n        /* \"#utility.yul\":3981:3993   */\n      mload\n        /* \"#utility.yul\":3971:3993   */\n      swap1\n      pop\n        /* \"#utility.yul\":3886:4000   */\n      swap2\n      swap1\n      pop\n      jump\t// out\n        /* \"#utility.yul\":4006:4190   */\n    tag_126:\n        /* \"#utility.yul\":4105:4116   */\n      0x00\n        /* \"#utility.yul\":4139:4145   */\n      dup3\n        /* \"#utility.yul\":4134:4137   */\n      dup3\n        /* \"#utility.yul\":4127:4146   */\n      mstore\n        /* \"#utility.yul\":4179:4183   */\n      0x20\n        /* \"#utility.yul\":4174:4177   */\n      dup3\n        /* \"#utility.yul\":4170:4184   */\n      add\n        /* \"#utility.yul\":4155:4184   */\n      swap1\n      pop\n        /* \"#utility.yul\":4006:4190   */\n      swap3\n      swap2\n      pop\n      pop\n      jump\t// out\n        /* \"#utility.yul\":4196:4328   */\n    tag_127:\n        /* \"#utility.yul\":4263:4267   */\n      0x00\n        /* \"#utility.yul\":4286:4289   */\n      dup2\n        /* \"#utility.yul\":4278:4289   */\n      swap1\n      pop\n        /* \"#utility.yul\":4316:4320   */\n      0x20\n        /* \"#utility.yul\":4311:4314   */\n      dup3\n        /* \"#utility.yul\":4307:4321   */\n      add\n        /* \"#utility.yul\":4299:4321   */\n      swap1\n      pop\n        /* \"#utility.yul\":4196:4328   */\n      swap2\n      swap1\n      pop\n      jump\t// out\n        /* \"#utility.yul\":4334:4411   */\n    tag_128:\n        /* \"#utility.yul\":4371:4378   */\n      0x00\n        /* \"#utility.yul\":4400:4405   */\n      dup2\n        /* \"#utility.yul\":4389:4405   */\n      swap1\n      pop\n        /* \"#utility.yul\":4334:4411   */\n      swap2\n      swap1\n      pop\n      jump\t// out\n        /* \"#utility.yul\":4417:4525   */\n    tag_129:\n        /* \"#utility.yul\":4494:4518   */\n      tag_224\n        /* \"#utility.yul\":4512:4517   */\n      dup2\n        /* \"#utility.yul\":4494:4518   */\n      tag_128\n      jump\t// in\n    tag_224:\n        /* \"#utility.yul\":4489:4492   */\n      dup3\n        /* \"#utility.yul\":4482:4519   */\n      mstore\n        /* \"#utility.yul\":4417:4525   */\n      pop\n      pop\n      jump\t// out\n        /* \"#utility.yul\":4531:4710   */\n    tag_130:\n        /* \"#utility.yul\":4600:4610   */\n      0x00\n        /* \"#utility.yul\":4621:4667   */\n      tag_226\n        /* \"#utility.yul\":4663:4666   */\n      dup4\n        /* \"#utility.yul\":4655:4661   */\n      dup4\n        /* \"#utility.yul\":4621:4667   */\n      tag_129\n      jump\t// in\n    tag_226:\n        /* \"#utility.yul\":4699:4703   */\n      0x20\n        /* \"#utility.yul\":4694:4697   */\n      dup4\n        /* \"#utility.yul\":4690:4704   */\n      add\n        /* \"#utility.yul\":4676:4704   */\n      swap1\n      pop\n        /* \"#utility.yul\":4531:4710   */\n      swap3\n      swap2\n      pop\n      pop\n      jump\t// out\n        /* \"#utility.yul\":4716:4829   */\n    tag_131:\n        /* \"#utility.yul\":4786:4790   */\n      0x00\n        /* \"#utility.yul\":4818:4822   */\n      0x20\n        /* \"#utility.yul\":4813:4816   */\n      dup3\n        /* \"#utility.yul\":4809:4823   */\n      add\n        /* \"#utility.yul\":4801:4823   */\n      swap1\n      pop\n        /* \"#utility.yul\":4716:4829   */\n      swap2\n      swap1\n      pop\n      jump\t// out\n        /* \"#utility.yul\":4865:5597   */\n    tag_132:\n        /* \"#utility.yul\":4984:4987   */\n      0x00\n        /* \"#utility.yul\":5013:5067   */\n      tag_229\n        /* \"#utility.yul\":5061:5066   */\n      dup3\n        /* \"#utility.yul\":5013:5067   */\n      tag_125\n      jump\t// in\n    tag_229:\n        /* \"#utility.yul\":5083:5169   */\n      tag_230\n        /* \"#utility.yul\":5162:5168   */\n      dup2\n        /* \"#utility.yul\":5157:5160   */\n      dup6\n        /* \"#utility.yul\":5083:5169   */\n      tag_126\n      jump\t// in\n    tag_230:\n        /* \"#utility.yul\":5076:5169   */\n      swap4\n      pop\n        /* \"#utility.yul\":5193:5249   */\n      tag_231\n        /* \"#utility.yul\":5243:5248   */\n      dup4\n        /* \"#utility.yul\":5193:5249   */\n      tag_127\n      jump\t// in\n    tag_231:\n        /* \"#utility.yul\":5272:5279   */\n      dup1\n        /* \"#utility.yul\":5303:5304   */\n      0x00\n        /* \"#utility.yul\":5288:5572   */\n    tag_232:\n        /* \"#utility.yul\":5313:5319   */\n      dup4\n        /* \"#utility.yul\":5310:5311   */\n      dup2\n        /* \"#utility.yul\":5307:5320   */\n      lt\n        /* \"#utility.yul\":5288:5572   */\n      iszero\n      tag_234\n      jumpi\n        /* \"#utility.yul\":5389:5395   */\n      dup2\n        /* \"#utility.yul\":5383:5396   */\n      mload\n        /* \"#utility.yul\":5416:5479   */\n      tag_235\n        /* \"#utility.yul\":5475:5478   */\n      dup9\n        /* \"#utility.yul\":5460:5473   */\n      dup3\n        /* \"#utility.yul\":5416:5479   */\n      tag_130\n      jump\t// in\n    tag_235:\n        /* \"#utility.yul\":5409:5479   */\n      swap8\n      pop\n        /* \"#utility.yul\":5502:5562   */\n      tag_236\n        /* \"#utility.yul\":5555:5561   */\n      dup4\n        /* \"#utility.yul\":5502:5562   */\n      tag_131\n      jump\t// in\n    tag_236:\n        /* \"#utility.yul\":5492:5562   */\n      swap3\n      pop\n        /* \"#utility.yul\":5348:5572   */\n      pop\n        /* \"#utility.yul\":5335:5336   */\n      0x01\n        /* \"#utility.yul\":5332:5333   */\n      dup2\n        /* \"#utility.yul\":5328:5337   */\n      add\n        /* \"#utility.yul\":5323:5337   */\n      swap1\n      pop\n        /* \"#utility.yul\":5288:5572   */\n      jump(tag_232)\n    tag_234:\n        /* \"#utility.yul\":5292:5306   */\n      pop\n        /* \"#utility.yul\":5588:5591   */\n      dup6\n        /* \"#utility.yul\":5581:5591   */\n      swap4\n      pop\n        /* \"#utility.yul\":4989:5597   */\n      pop\n      pop\n      pop\n        /* \"#utility.yul\":4865:5597   */\n      swap3\n      swap2\n      pop\n      pop\n      jump\t// out\n        /* \"#utility.yul\":5603:6747   */\n    tag_11:\n        /* \"#utility.yul\":5946:5950   */\n      0x00\n        /* \"#utility.yul\":5984:5987   */\n      0xa0\n        /* \"#utility.yul\":5973:5982   */\n      dup3\n        /* \"#utility.yul\":5969:5988   */\n      add\n        /* \"#utility.yul\":5961:5988   */\n      swap1\n      pop\n        /* \"#utility.yul\":5998:6069   */\n      tag_238\n        /* \"#utility.yul\":6066:6067   */\n      0x00\n        /* \"#utility.yul\":6055:6064   */\n      dup4\n        /* \"#utility.yul\":6051:6068   */\n      add\n        /* \"#utility.yul\":6042:6048   */\n      dup9\n        /* \"#utility.yul\":5998:6069   */\n      tag_112\n      jump\t// in\n    tag_238:\n        /* \"#utility.yul\":6116:6125   */\n      dup2\n        /* \"#utility.yul\":6110:6114   */\n      dup2\n        /* \"#utility.yul\":6106:6126   */\n      sub\n        /* \"#utility.yul\":6101:6103   */\n      0x20\n        /* \"#utility.yul\":6090:6099   */\n      dup4\n        /* \"#utility.yul\":6086:6104   */\n      add\n        /* \"#utility.yul\":6079:6127   */\n      mstore\n        /* \"#utility.yul\":6144:6222   */\n      tag_239\n        /* \"#utility.yul\":6217:6221   */\n      dup2\n        /* \"#utility.yul\":6208:6214   */\n      dup8\n        /* \"#utility.yul\":6144:6222   */\n      tag_117\n      jump\t// in\n    tag_239:\n        /* \"#utility.yul\":6136:6222   */\n      swap1\n      pop\n        /* \"#utility.yul\":6269:6278   */\n      dup2\n        /* \"#utility.yul\":6263:6267   */\n      dup2\n        /* \"#utility.yul\":6259:6279   */\n      sub\n        /* \"#utility.yul\":6254:6256   */\n      0x40\n        /* \"#utility.yul\":6243:6252   */\n      dup4\n        /* \"#utility.yul\":6239:6257   */\n      add\n        /* \"#utility.yul\":6232:6280   */\n      mstore\n        /* \"#utility.yul\":6297:6375   */\n      tag_240\n        /* \"#utility.yul\":6370:6374   */\n      dup2\n        /* \"#utility.yul\":6361:6367   */\n      dup7\n        /* \"#utility.yul\":6297:6375   */\n      tag_117\n      jump\t// in\n    tag_240:\n        /* \"#utility.yul\":6289:6375   */\n      swap1\n      pop\n        /* \"#utility.yul\":6422:6431   */\n      dup2\n        /* \"#utility.yul\":6416:6420   */\n      dup2\n        /* \"#utility.yul\":6412:6432   */\n      sub\n        /* \"#utility.yul\":6407:6409   */\n      0x60\n        /* \"#utility.yul\":6396:6405   */\n      dup4\n        /* \"#utility.yul\":6392:6410   */\n      add\n        /* \"#utility.yul\":6385:6433   */\n      mstore\n        /* \"#utility.yul\":6450:6556   */\n      tag_241\n        /* \"#utility.yul\":6551:6555   */\n      dup2\n        /* \"#utility.yul\":6542:6548   */\n      dup6\n        /* \"#utility.yul\":6450:6556   */\n      tag_124\n      jump\t// in\n    tag_241:\n        /* \"#utility.yul\":6442:6556   */\n      swap1\n      pop\n        /* \"#utility.yul\":6604:6613   */\n      dup2\n        /* \"#utility.yul\":6598:6602   */\n      dup2\n        /* \"#utility.yul\":6594:6614   */\n      sub\n        /* \"#utility.yul\":6588:6591   */\n      0x80\n        /* \"#utility.yul\":6577:6586   */\n      dup4\n        /* \"#utility.yul\":6573:6592   */\n      add\n        /* \"#utility.yul\":6566:6615   */\n      mstore\n        /* \"#utility.yul\":6632:6740   */\n      tag_242\n        /* \"#utility.yul\":6735:6739   */\n      dup2\n        /* \"#utility.yul\":6726:6732   */\n      dup5\n        /* \"#utility.yul\":6632:6740   */\n      tag_132\n      jump\t// in\n    tag_242:\n        /* \"#utility.yul\":6624:6740   */\n      swap1\n      pop\n        /* \"#utility.yul\":5603:6747   */\n      swap7\n      swap6\n      pop\n      pop\n      pop\n      pop\n      pop\n      pop\n      jump\t// out\n        /* \"#utility.yul\":6753:7223   */\n    tag_14:\n        /* \"#utility.yul\":6819:6825   */\n      0x00\n        /* \"#utility.yul\":6827:6833   */\n      dup1\n        /* \"#utility.yul\":6876:6878   */\n      0x40\n        /* \"#utility.yul\":6864:6873   */\n      dup4\n        /* \"#utility.yul\":6855:6862   */\n      dup6\n        /* \"#utility.yul\":6851:6874   */\n      sub\n        /* \"#utility.yul\":6847:6879   */\n      slt\n        /* \"#utility.yul\":6844:6963   */\n      iszero\n      tag_244\n      jumpi\n        /* \"#utility.yul\":6882:6961   */\n      tag_245\n      tag_106\n      jump\t// in\n    tag_245:\n        /* \"#utility.yul\":6844:6963   */\n    tag_244:\n        /* \"#utility.yul\":7002:7003   */\n      0x00\n        /* \"#utility.yul\":7027:7079   */\n      tag_246\n        /* \"#utility.yul\":7071:7078   */\n      dup6\n        /* \"#utility.yul\":7062:7068   */\n      dup3\n        /* \"#utility.yul\":7051:7060   */\n      dup7\n        /* \"#utility.yul\":7047:7069   */\n      add\n        /* \"#utility.yul\":7027:7079   */\n      tag_110\n      jump\t// in\n    tag_246:\n        /* \"#utility.yul\":7017:7079   */\n      swap3\n      pop\n        /* \"#utility.yul\":6973:7089   */\n      pop\n        /* \"#utility.yul\":7128:7130   */\n      0x20\n        /* \"#utility.yul\":7154:7206   */\n      tag_247\n        /* \"#utility.yul\":7198:7205   */\n      dup6\n        /* \"#utility.yul\":7189:7195   */\n      dup3\n        /* \"#utility.yul\":7178:7187   */\n      dup7\n        /* \"#utility.yul\":7174:7196   */\n      add\n        /* \"#utility.yul\":7154:7206   */\n      tag_110\n      jump\t// in\n    tag_247:\n        /* \"#utility.yul\":7144:7206   */\n      swap2\n      pop\n        /* \"#utility.yul\":7099:7216   */\n      pop\n        /* \"#utility.yul\":6753:7223   */\n      swap3\n      pop\n      swap3\n      swap1\n      pop\n      jump\t// out\n        /* \"#utility.yul\":7229:7346   */\n    tag_133:\n        /* \"#utility.yul\":7338:7339   */\n      0x00\n        /* \"#utility.yul\":7335:7336   */\n      dup1\n        /* \"#utility.yul\":7328:7340   */\n      revert\n        /* \"#utility.yul\":7352:7469   */\n    tag_134:\n        /* \"#utility.yul\":7461:7462   */\n      0x00\n        /* \"#utility.yul\":7458:7459   */\n      dup1\n        /* \"#utility.yul\":7451:7463   */\n      revert\n        /* \"#utility.yul\":7475:7655   */\n    tag_80:\n        /* \"#utility.yul\":7523:7600   */\n      0x4e487b7100000000000000000000000000000000000000000000000000000000\n        /* \"#utility.yul\":7520:7521   */\n      0x00\n        /* \"#utility.yul\":7513:7601   */\n      mstore\n        /* \"#utility.yul\":7620:7624   */\n      0x41\n        /* \"#utility.yul\":7617:7618   */\n      0x04\n        /* \"#utility.yul\":7610:7625   */\n      mstore\n        /* \"#utility.yul\":7644:7648   */\n      0x24\n        /* \"#utility.yul\":7641:7642   */\n      0x00\n        /* \"#utility.yul\":7634:7649   */\n      revert\n        /* \"#utility.yul\":7661:7942   */\n    tag_135:\n        /* \"#utility.yul\":7744:7771   */\n      tag_252\n        /* \"#utility.yul\":7766:7770   */\n      dup3\n        /* \"#utility.yul\":7744:7771   */\n      tag_116\n      jump\t// in\n    tag_252:\n        /* \"#utility.yul\":7736:7742   */\n      dup2\n        /* \"#utility.yul\":7732:7772   */\n      add\n        /* \"#utility.yul\":7874:7880   */\n      dup2\n        /* \"#utility.yul\":7862:7872   */\n      dup2\n        /* \"#utility.yul\":7859:7881   */\n      lt\n        /* \"#utility.yul\":7838:7856   */\n      0xffffffffffffffff\n        /* \"#utility.yul\":7826:7836   */\n      dup3\n        /* \"#utility.yul\":7823:7857   */\n      gt\n        /* \"#utility.yul\":7820:7882   */\n      or\n        /* \"#utility.yul\":7817:7905   */\n      iszero\n      tag_253\n      jumpi\n        /* \"#utility.yul\":7885:7903   */\n      tag_254\n      tag_80\n      jump\t// in\n    tag_254:\n        /* \"#utility.yul\":7817:7905   */\n    tag_253:\n        /* \"#utility.yul\":7925:7935   */\n      dup1\n        /* \"#utility.yul\":7921:7923   */\n      0x40\n        /* \"#utility.yul\":7914:7936   */\n      mstore\n        /* \"#utility.yul\":7704:7942   */\n      pop\n        /* \"#utility.yul\":7661:7942   */\n      pop\n      pop\n      jump\t// out\n        /* \"#utility.yul\":7948:8077   */\n    tag_136:\n        /* \"#utility.yul\":7982:7988   */\n      0x00\n        /* \"#utility.yul\":8009:8029   */\n      tag_256\n      tag_105\n      jump\t// in\n    tag_256:\n        /* \"#utility.yul\":7999:8029   */\n      swap1\n      pop\n        /* \"#utility.yul\":8038:8071   */\n      tag_257\n        /* \"#utility.yul\":8066:8070   */\n      dup3\n        /* \"#utility.yul\":8058:8064   */\n      dup3\n        /* \"#utility.yul\":8038:8071   */\n      tag_135\n      jump\t// in\n    tag_257:\n        /* \"#utility.yul\":7948:8077   */\n      swap2\n      swap1\n      pop\n      jump\t// out\n        /* \"#utility.yul\":8083:8391   */\n    tag_137:\n        /* \"#utility.yul\":8145:8149   */\n      0x00\n        /* \"#utility.yul\":8235:8253   */\n      0xffffffffffffffff\n        /* \"#utility.yul\":8227:8233   */\n      dup3\n        /* \"#utility.yul\":8224:8254   */\n      gt\n        /* \"#utility.yul\":8221:8277   */\n      iszero\n      tag_259\n      jumpi\n        /* \"#utility.yul\":8257:8275   */\n      tag_260\n      tag_80\n      jump\t// in\n    tag_260:\n        /* \"#utility.yul\":8221:8277   */\n    tag_259:\n        /* \"#utility.yul\":8295:8324   */\n      tag_261\n        /* \"#utility.yul\":8317:8323   */\n      dup3\n        /* \"#utility.yul\":8295:8324   */\n      tag_116\n      jump\t// in\n    tag_261:\n        /* \"#utility.yul\":8287:8324   */\n      swap1\n      pop\n        /* \"#utility.yul\":8379:8383   */\n      0x20\n        /* \"#utility.yul\":8373:8377   */\n      dup2\n        /* \"#utility.yul\":8369:8384   */\n      add\n        /* \"#utility.yul\":8361:8384   */\n      swap1\n      pop\n        /* \"#utility.yul\":8083:8391   */\n      swap2\n      swap1\n      pop\n      jump\t// out\n        /* \"#utility.yul\":8397:8543   */\n    tag_138:\n        /* \"#utility.yul\":8494:8500   */\n      dup3\n        /* \"#utility.yul\":8489:8492   */\n      dup2\n        /* \"#utility.yul\":8484:8487   */\n      dup4\n        /* \"#utility.yul\":8471:8501   */\n      calldatacopy\n        /* \"#utility.yul\":8535:8536   */\n      0x00\n        /* \"#utility.yul\":8526:8532   */\n      dup4\n        /* \"#utility.yul\":8521:8524   */\n      dup4\n        /* \"#utility.yul\":8517:8533   */\n      add\n        /* \"#utility.yul\":8510:8537   */\n      mstore\n        /* \"#utility.yul\":8397:8543   */\n      pop\n      pop\n      pop\n      jump\t// out\n        /* \"#utility.yul\":8549:8974   */\n    tag_139:\n        /* \"#utility.yul\":8627:8632   */\n      0x00\n        /* \"#utility.yul\":8652:8718   */\n      tag_264\n        /* \"#utility.yul\":8668:8717   */\n      tag_265\n        /* \"#utility.yul\":8710:8716   */\n      dup5\n        /* \"#utility.yul\":8668:8717   */\n      tag_137\n      jump\t// in\n    tag_265:\n        /* \"#utility.yul\":8652:8718   */\n      tag_136\n      jump\t// in\n    tag_264:\n        /* \"#utility.yul\":8643:8718   */\n      swap1\n      pop\n        /* \"#utility.yul\":8741:8747   */\n      dup3\n        /* \"#utility.yul\":8734:8739   */\n      dup2\n        /* \"#utility.yul\":8727:8748   */\n      mstore\n        /* \"#utility.yul\":8779:8783   */\n      0x20\n        /* \"#utility.yul\":8772:8777   */\n      dup2\n        /* \"#utility.yul\":8768:8784   */\n      add\n        /* \"#utility.yul\":8817:8820   */\n      dup5\n        /* \"#utility.yul\":8808:8814   */\n      dup5\n        /* \"#utility.yul\":8803:8806   */\n      dup5\n        /* \"#utility.yul\":8799:8815   */\n      add\n        /* \"#utility.yul\":8796:8821   */\n      gt\n        /* \"#utility.yul\":8793:8905   */\n      iszero\n      tag_266\n      jumpi\n        /* \"#utility.yul\":8824:8903   */\n      tag_267\n      tag_134\n      jump\t// in\n    tag_267:\n        /* \"#utility.yul\":8793:8905   */\n    tag_266:\n        /* \"#utility.yul\":8914:8968   */\n      tag_268\n        /* \"#utility.yul\":8961:8967   */\n      dup5\n        /* \"#utility.yul\":8956:8959   */\n      dup3\n        /* \"#utility.yul\":8951:8954   */\n      dup6\n        /* \"#utility.yul\":8914:8968   */\n      tag_138\n      jump\t// in\n    tag_268:\n        /* \"#utility.yul\":8633:8974   */\n      pop\n        /* \"#utility.yul\":8549:8974   */\n      swap4\n      swap3\n      pop\n      pop\n      pop\n      jump\t// out\n        /* \"#utility.yul\":8994:9334   */\n    tag_140:\n        /* \"#utility.yul\":9050:9055   */\n      0x00\n        /* \"#utility.yul\":9099:9102   */\n      dup3\n        /* \"#utility.yul\":9092:9096   */\n      0x1f\n        /* \"#utility.yul\":9084:9090   */\n      dup4\n        /* \"#utility.yul\":9080:9097   */\n      add\n        /* \"#utility.yul\":9076:9103   */\n      slt\n        /* \"#utility.yul\":9066:9188   */\n      tag_270\n      jumpi\n        /* \"#utility.yul\":9107:9186   */\n      tag_271\n      tag_133\n      jump\t// in\n    tag_271:\n        /* \"#utility.yul\":9066:9188   */\n    tag_270:\n        /* \"#utility.yul\":9224:9230   */\n      dup2\n        /* \"#utility.yul\":9211:9231   */\n      calldataload\n        /* \"#utility.yul\":9249:9328   */\n      tag_272\n        /* \"#utility.yul\":9324:9327   */\n      dup5\n        /* \"#utility.yul\":9316:9322   */\n      dup3\n        /* \"#utility.yul\":9309:9313   */\n      0x20\n        /* \"#utility.yul\":9301:9307   */\n      dup7\n        /* \"#utility.yul\":9297:9314   */\n      add\n        /* \"#utility.yul\":9249:9328   */\n      tag_139\n      jump\t// in\n    tag_272:\n        /* \"#utility.yul\":9240:9328   */\n      swap2\n      pop\n        /* \"#utility.yul\":9056:9334   */\n      pop\n        /* \"#utility.yul\":8994:9334   */\n      swap3\n      swap2\n      pop\n      pop\n      jump\t// out\n        /* \"#utility.yul\":9340:9651   */\n    tag_141:\n        /* \"#utility.yul\":9417:9421   */\n      0x00\n        /* \"#utility.yul\":9507:9525   */\n      0xffffffffffffffff\n        /* \"#utility.yul\":9499:9505   */\n      dup3\n        /* \"#utility.yul\":9496:9526   */\n      gt\n        /* \"#utility.yul\":9493:9549   */\n      iszero\n      tag_274\n      jumpi\n        /* \"#utility.yul\":9529:9547   */\n      tag_275\n      tag_80\n      jump\t// in\n    tag_275:\n        /* \"#utility.yul\":9493:9549   */\n    tag_274:\n        /* \"#utility.yul\":9579:9583   */\n      0x20\n        /* \"#utility.yul\":9571:9577   */\n      dup3\n        /* \"#utility.yul\":9567:9584   */\n      mul\n        /* \"#utility.yul\":9559:9584   */\n      swap1\n      pop\n        /* \"#utility.yul\":9639:9643   */\n      0x20\n        /* \"#utility.yul\":9633:9637   */\n      dup2\n        /* \"#utility.yul\":9629:9644   */\n      add\n        /* \"#utility.yul\":9621:9644   */\n      swap1\n      pop\n        /* \"#utility.yul\":9340:9651   */\n      swap2\n      swap1\n      pop\n      jump\t// out\n        /* \"#utility.yul\":9657:9774   */\n    tag_142:\n        /* \"#utility.yul\":9766:9767   */\n      0x00\n        /* \"#utility.yul\":9763:9764   */\n      dup1\n        /* \"#utility.yul\":9756:9768   */\n      revert\n        /* \"#utility.yul\":9780:9902   */\n    tag_143:\n        /* \"#utility.yul\":9853:9877   */\n      tag_278\n        /* \"#utility.yul\":9871:9876   */\n      dup2\n        /* \"#utility.yul\":9853:9877   */\n      tag_128\n      jump\t// in\n    tag_278:\n        /* \"#utility.yul\":9846:9851   */\n      dup2\n        /* \"#utility.yul\":9843:9878   */\n      eq\n        /* \"#utility.yul\":9833:9896   */\n      tag_279\n      jumpi\n        /* \"#utility.yul\":9892:9893   */\n      0x00\n        /* \"#utility.yul\":9889:9890   */\n      dup1\n        /* \"#utility.yul\":9882:9894   */\n      revert\n        /* \"#utility.yul\":9833:9896   */\n    tag_279:\n        /* \"#utility.yul\":9780:9902   */\n      pop\n      jump\t// out\n        /* \"#utility.yul\":9908:10047   */\n    tag_144:\n        /* \"#utility.yul\":9954:9959   */\n      0x00\n        /* \"#utility.yul\":9992:9998   */\n      dup2\n        /* \"#utility.yul\":9979:9999   */\n      calldataload\n        /* \"#utility.yul\":9970:9999   */\n      swap1\n      pop\n        /* \"#utility.yul\":10008:10041   */\n      tag_281\n        /* \"#utility.yul\":10035:10040   */\n      dup2\n        /* \"#utility.yul\":10008:10041   */\n      tag_143\n      jump\t// in\n    tag_281:\n        /* \"#utility.yul\":9908:10047   */\n      swap3\n      swap2\n      pop\n      pop\n      jump\t// out\n        /* \"#utility.yul\":10070:10780   */\n    tag_145:\n        /* \"#utility.yul\":10166:10171   */\n      0x00\n        /* \"#utility.yul\":10191:10272   */\n      tag_283\n        /* \"#utility.yul\":10207:10271   */\n      tag_284\n        /* \"#utility.yul\":10264:10270   */\n      dup5\n        /* \"#utility.yul\":10207:10271   */\n      tag_141\n      jump\t// in\n    tag_284:\n        /* \"#utility.yul\":10191:10272   */\n      tag_136\n      jump\t// in\n    tag_283:\n        /* \"#utility.yul\":10182:10272   */\n      swap1\n      pop\n        /* \"#utility.yul\":10292:10297   */\n      dup1\n        /* \"#utility.yul\":10321:10327   */\n      dup4\n        /* \"#utility.yul\":10314:10319   */\n      dup3\n        /* \"#utility.yul\":10307:10328   */\n      mstore\n        /* \"#utility.yul\":10355:10359   */\n      0x20\n        /* \"#utility.yul\":10348:10353   */\n      dup3\n        /* \"#utility.yul\":10344:10360   */\n      add\n        /* \"#utility.yul\":10337:10360   */\n      swap1\n      pop\n        /* \"#utility.yul\":10408:10412   */\n      0x20\n        /* \"#utility.yul\":10400:10406   */\n      dup5\n        /* \"#utility.yul\":10396:10413   */\n      mul\n        /* \"#utility.yul\":10388:10394   */\n      dup4\n        /* \"#utility.yul\":10384:10414   */\n      add\n        /* \"#utility.yul\":10437:10440   */\n      dup6\n        /* \"#utility.yul\":10429:10435   */\n      dup2\n        /* \"#utility.yul\":10426:10441   */\n      gt\n        /* \"#utility.yul\":10423:10545   */\n      iszero\n      tag_285\n      jumpi\n        /* \"#utility.yul\":10456:10535   */\n      tag_286\n      tag_142\n      jump\t// in\n    tag_286:\n        /* \"#utility.yul\":10423:10545   */\n    tag_285:\n        /* \"#utility.yul\":10571:10577   */\n      dup4\n        /* \"#utility.yul\":10554:10774   */\n    tag_287:\n        /* \"#utility.yul\":10588:10594   */\n      dup2\n        /* \"#utility.yul\":10583:10586   */\n      dup2\n        /* \"#utility.yul\":10580:10595   */\n      lt\n        /* \"#utility.yul\":10554:10774   */\n      iszero\n      tag_289\n      jumpi\n        /* \"#utility.yul\":10663:10666   */\n      dup1\n        /* \"#utility.yul\":10692:10729   */\n      tag_290\n        /* \"#utility.yul\":10725:10728   */\n      dup9\n        /* \"#utility.yul\":10713:10723   */\n      dup3\n        /* \"#utility.yul\":10692:10729   */\n      tag_144\n      jump\t// in\n    tag_290:\n        /* \"#utility.yul\":10687:10690   */\n      dup5\n        /* \"#utility.yul\":10680:10730   */\n      mstore\n        /* \"#utility.yul\":10759:10763   */\n      0x20\n        /* \"#utility.yul\":10754:10757   */\n      dup5\n        /* \"#utility.yul\":10750:10764   */\n      add\n        /* \"#utility.yul\":10743:10764   */\n      swap4\n      pop\n        /* \"#utility.yul\":10630:10774   */\n      pop\n        /* \"#utility.yul\":10614:10618   */\n      0x20\n        /* \"#utility.yul\":10609:10612   */\n      dup2\n        /* \"#utility.yul\":10605:10619   */\n      add\n        /* \"#utility.yul\":10598:10619   */\n      swap1\n      pop\n        /* \"#utility.yul\":10554:10774   */\n      jump(tag_287)\n    tag_289:\n        /* \"#utility.yul\":10558:10579   */\n      pop\n        /* \"#utility.yul\":10172:10780   */\n      pop\n      pop\n        /* \"#utility.yul\":10070:10780   */\n      swap4\n      swap3\n      pop\n      pop\n      pop\n      jump\t// out\n        /* \"#utility.yul\":10803:11173   */\n    tag_146:\n        /* \"#utility.yul\":10874:10879   */\n      0x00\n        /* \"#utility.yul\":10923:10926   */\n      dup3\n        /* \"#utility.yul\":10916:10920   */\n      0x1f\n        /* \"#utility.yul\":10908:10914   */\n      dup4\n        /* \"#utility.yul\":10904:10921   */\n      add\n        /* \"#utility.yul\":10900:10927   */\n      slt\n        /* \"#utility.yul\":10890:11012   */\n      tag_292\n      jumpi\n        /* \"#utility.yul\":10931:11010   */\n      tag_293\n      tag_133\n      jump\t// in\n    tag_293:\n        /* \"#utility.yul\":10890:11012   */\n    tag_292:\n        /* \"#utility.yul\":11048:11054   */\n      dup2\n        /* \"#utility.yul\":11035:11055   */\n      calldataload\n        /* \"#utility.yul\":11073:11167   */\n      tag_294\n        /* \"#utility.yul\":11163:11166   */\n      dup5\n        /* \"#utility.yul\":11155:11161   */\n      dup3\n        /* \"#utility.yul\":11148:11152   */\n      0x20\n        /* \"#utility.yul\":11140:11146   */\n      dup7\n        /* \"#utility.yul\":11136:11153   */\n      add\n        /* \"#utility.yul\":11073:11167   */\n      tag_145\n      jump\t// in\n    tag_294:\n        /* \"#utility.yul\":11064:11167   */\n      swap2\n      pop\n        /* \"#utility.yul\":10880:11173   */\n      pop\n        /* \"#utility.yul\":10803:11173   */\n      swap3\n      swap2\n      pop\n      pop\n      jump\t// out\n        /* \"#utility.yul\":11179:12368   */\n    tag_18:\n        /* \"#utility.yul\":11301:11307   */\n      0x00\n        /* \"#utility.yul\":11309:11315   */\n      dup1\n        /* \"#utility.yul\":11317:11323   */\n      0x00\n        /* \"#utility.yul\":11366:11368   */\n      0x60\n        /* \"#utility.yul\":11354:11363   */\n      dup5\n        /* \"#utility.yul\":11345:11352   */\n      dup7\n        /* \"#utility.yul\":11341:11364   */\n      sub\n        /* \"#utility.yul\":11337:11369   */\n      slt\n        /* \"#utility.yul\":11334:11453   */\n      iszero\n      tag_296\n      jumpi\n        /* \"#utility.yul\":11372:11451   */\n      tag_297\n      tag_106\n      jump\t// in\n    tag_297:\n        /* \"#utility.yul\":11334:11453   */\n    tag_296:\n        /* \"#utility.yul\":11520:11521   */\n      0x00\n        /* \"#utility.yul\":11509:11518   */\n      dup5\n        /* \"#utility.yul\":11505:11522   */\n      add\n        /* \"#utility.yul\":11492:11523   */\n      calldataload\n        /* \"#utility.yul\":11550:11568   */\n      0xffffffffffffffff\n        /* \"#utility.yul\":11542:11548   */\n      dup2\n        /* \"#utility.yul\":11539:11569   */\n      gt\n        /* \"#utility.yul\":11536:11653   */\n      iszero\n      tag_298\n      jumpi\n        /* \"#utility.yul\":11572:11651   */\n      tag_299\n      tag_107\n      jump\t// in\n    tag_299:\n        /* \"#utility.yul\":11536:11653   */\n    tag_298:\n        /* \"#utility.yul\":11677:11740   */\n      tag_300\n        /* \"#utility.yul\":11732:11739   */\n      dup7\n        /* \"#utility.yul\":11723:11729   */\n      dup3\n        /* \"#utility.yul\":11712:11721   */\n      dup8\n        /* \"#utility.yul\":11708:11730   */\n      add\n        /* \"#utility.yul\":11677:11740   */\n      tag_140\n      jump\t// in\n    tag_300:\n        /* \"#utility.yul\":11667:11740   */\n      swap4\n      pop\n        /* \"#utility.yul\":11463:11750   */\n      pop\n        /* \"#utility.yul\":11817:11819   */\n      0x20\n        /* \"#utility.yul\":11806:11815   */\n      dup5\n        /* \"#utility.yul\":11802:11820   */\n      add\n        /* \"#utility.yul\":11789:11821   */\n      calldataload\n        /* \"#utility.yul\":11848:11866   */\n      0xffffffffffffffff\n        /* \"#utility.yul\":11840:11846   */\n      dup2\n        /* \"#utility.yul\":11837:11867   */\n      gt\n        /* \"#utility.yul\":11834:11951   */\n      iszero\n      tag_301\n      jumpi\n        /* \"#utility.yul\":11870:11949   */\n      tag_302\n      tag_107\n      jump\t// in\n    tag_302:\n        /* \"#utility.yul\":11834:11951   */\n    tag_301:\n        /* \"#utility.yul\":11975:12038   */\n      tag_303\n        /* \"#utility.yul\":12030:12037   */\n      dup7\n        /* \"#utility.yul\":12021:12027   */\n      dup3\n        /* \"#utility.yul\":12010:12019   */\n      dup8\n        /* \"#utility.yul\":12006:12028   */\n      add\n        /* \"#utility.yul\":11975:12038   */\n      tag_140\n      jump\t// in\n    tag_303:\n        /* \"#utility.yul\":11965:12038   */\n      swap3\n      pop\n        /* \"#utility.yul\":11760:12048   */\n      pop\n        /* \"#utility.yul\":12115:12117   */\n      0x40\n        /* \"#utility.yul\":12104:12113   */\n      dup5\n        /* \"#utility.yul\":12100:12118   */\n      add\n        /* \"#utility.yul\":12087:12119   */\n      calldataload\n        /* \"#utility.yul\":12146:12164   */\n      0xffffffffffffffff\n        /* \"#utility.yul\":12138:12144   */\n      dup2\n        /* \"#utility.yul\":12135:12165   */\n      gt\n        /* \"#utility.yul\":12132:12249   */\n      iszero\n      tag_304\n      jumpi\n        /* \"#utility.yul\":12168:12247   */\n      tag_305\n      tag_107\n      jump\t// in\n    tag_305:\n        /* \"#utility.yul\":12132:12249   */\n    tag_304:\n        /* \"#utility.yul\":12273:12351   */\n      tag_306\n        /* \"#utility.yul\":12343:12350   */\n      dup7\n        /* \"#utility.yul\":12334:12340   */\n      dup3\n        /* \"#utility.yul\":12323:12332   */\n      dup8\n        /* \"#utility.yul\":12319:12341   */\n      add\n        /* \"#utility.yul\":12273:12351   */\n      tag_146\n      jump\t// in\n    tag_306:\n        /* \"#utility.yul\":12263:12351   */\n      swap2\n      pop\n        /* \"#utility.yul\":12058:12361   */\n      pop\n        /* \"#utility.yul\":11179:12368   */\n      swap3\n      pop\n      swap3\n      pop\n      swap3\n      jump\t// out\n        /* \"#utility.yul\":12374:12537   */\n    tag_147:\n        /* \"#utility.yul\":12514:12529   */\n      0x4e6f20706f6c6c20666f756e6400000000000000000000000000000000000000\n        /* \"#utility.yul\":12510:12511   */\n      0x00\n        /* \"#utility.yul\":12502:12508   */\n      dup3\n        /* \"#utility.yul\":12498:12512   */\n      add\n        /* \"#utility.yul\":12491:12530   */\n      mstore\n        /* \"#utility.yul\":12374:12537   */\n      pop\n      jump\t// out\n        /* \"#utility.yul\":12543:12909   */\n    tag_148:\n        /* \"#utility.yul\":12685:12688   */\n      0x00\n        /* \"#utility.yul\":12706:12773   */\n      tag_309\n        /* \"#utility.yul\":12770:12772   */\n      0x0d\n        /* \"#utility.yul\":12765:12768   */\n      dup4\n        /* \"#utility.yul\":12706:12773   */\n      tag_114\n      jump\t// in\n    tag_309:\n        /* \"#utility.yul\":12699:12773   */\n      swap2\n      pop\n        /* \"#utility.yul\":12782:12875   */\n      tag_310\n        /* \"#utility.yul\":12871:12874   */\n      dup3\n        /* \"#utility.yul\":12782:12875   */\n      tag_147\n      jump\t// in\n    tag_310:\n        /* \"#utility.yul\":12900:12902   */\n      0x20\n        /* \"#utility.yul\":12895:12898   */\n      dup3\n        /* \"#utility.yul\":12891:12903   */\n      add\n        /* \"#utility.yul\":12884:12903   */\n      swap1\n      pop\n        /* \"#utility.yul\":12543:12909   */\n      swap2\n      swap1\n      pop\n      jump\t// out\n        /* \"#utility.yul\":12915:13334   */\n    tag_24:\n        /* \"#utility.yul\":13081:13085   */\n      0x00\n        /* \"#utility.yul\":13119:13121   */\n      0x20\n        /* \"#utility.yul\":13108:13117   */\n      dup3\n        /* \"#utility.yul\":13104:13122   */\n      add\n        /* \"#utility.yul\":13096:13122   */\n      swap1\n      pop\n        /* \"#utility.yul\":13168:13177   */\n      dup2\n        /* \"#utility.yul\":13162:13166   */\n      dup2\n        /* \"#utility.yul\":13158:13178   */\n      sub\n        /* \"#utility.yul\":13154:13155   */\n      0x00\n        /* \"#utility.yul\":13143:13152   */\n      dup4\n        /* \"#utility.yul\":13139:13156   */\n      add\n        /* \"#utility.yul\":13132:13179   */\n      mstore\n        /* \"#utility.yul\":13196:13327   */\n      tag_312\n        /* \"#utility.yul\":13322:13326   */\n      dup2\n        /* \"#utility.yul\":13196:13327   */\n      tag_148\n      jump\t// in\n    tag_312:\n        /* \"#utility.yul\":13188:13327   */\n      swap1\n      pop\n        /* \"#utility.yul\":12915:13334   */\n      swap2\n      swap1\n      pop\n      jump\t// out\n        /* \"#utility.yul\":13340:13520   */\n    tag_28:\n        /* \"#utility.yul\":13388:13465   */\n      0x4e487b7100000000000000000000000000000000000000000000000000000000\n        /* \"#utility.yul\":13385:13386   */\n      0x00\n        /* \"#utility.yul\":13378:13466   */\n      mstore\n        /* \"#utility.yul\":13485:13489   */\n      0x32\n        /* \"#utility.yul\":13482:13483   */\n      0x04\n        /* \"#utility.yul\":13475:13490   */\n      mstore\n        /* \"#utility.yul\":13509:13513   */\n      0x24\n        /* \"#utility.yul\":13506:13507   */\n      0x00\n        /* \"#utility.yul\":13499:13514   */\n      revert\n        /* \"#utility.yul\":13526:13706   */\n    tag_149:\n        /* \"#utility.yul\":13574:13651   */\n      0x4e487b7100000000000000000000000000000000000000000000000000000000\n        /* \"#utility.yul\":13571:13572   */\n      0x00\n        /* \"#utility.yul\":13564:13652   */\n      mstore\n        /* \"#utility.yul\":13671:13675   */\n      0x22\n        /* \"#utility.yul\":13668:13669   */\n      0x04\n        /* \"#utility.yul\":13661:13676   */\n      mstore\n        /* \"#utility.yul\":13695:13699   */\n      0x24\n        /* \"#utility.yul\":13692:13693   */\n      0x00\n        /* \"#utility.yul\":13685:13700   */\n      revert\n        /* \"#utility.yul\":13712:14032   */\n    tag_43:\n        /* \"#utility.yul\":13756:13762   */\n      0x00\n        /* \"#utility.yul\":13793:13794   */\n      0x02\n        /* \"#utility.yul\":13787:13791   */\n      dup3\n        /* \"#utility.yul\":13783:13795   */\n      div\n        /* \"#utility.yul\":13773:13795   */\n      swap1\n      pop\n        /* \"#utility.yul\":13840:13841   */\n      0x01\n        /* \"#utility.yul\":13834:13838   */\n      dup3\n        /* \"#utility.yul\":13830:13842   */\n      and\n        /* \"#utility.yul\":13861:13879   */\n      dup1\n        /* \"#utility.yul\":13851:13932   */\n      tag_316\n      jumpi\n        /* \"#utility.yul\":13917:13921   */\n      0x7f\n        /* \"#utility.yul\":13909:13915   */\n      dup3\n        /* \"#utility.yul\":13905:13922   */\n      and\n        /* \"#utility.yul\":13895:13922   */\n      swap2\n      pop\n        /* \"#utility.yul\":13851:13932   */\n    tag_316:\n        /* \"#utility.yul\":13979:13981   */\n      0x20\n        /* \"#utility.yul\":13971:13977   */\n      dup3\n        /* \"#utility.yul\":13968:13982   */\n      lt\n        /* \"#utility.yul\":13948:13966   */\n      dup2\n        /* \"#utility.yul\":13945:13983   */\n      sub\n        /* \"#utility.yul\":13942:14026   */\n      tag_317\n      jumpi\n        /* \"#utility.yul\":13998:14016   */\n      tag_318\n      tag_149\n      jump\t// in\n    tag_318:\n        /* \"#utility.yul\":13942:14026   */\n    tag_317:\n        /* \"#utility.yul\":13763:14032   */\n      pop\n        /* \"#utility.yul\":13712:14032   */\n      swap2\n      swap1\n      pop\n      jump\t// out\n        /* \"#utility.yul\":14038:14200   */\n    tag_150:\n        /* \"#utility.yul\":14178:14192   */\n      0x496e76616c696420766f74650000000000000000000000000000000000000000\n        /* \"#utility.yul\":14174:14175   */\n      0x00\n        /* \"#utility.yul\":14166:14172   */\n      dup3\n        /* \"#utility.yul\":14162:14176   */\n      add\n        /* \"#utility.yul\":14155:14193   */\n      mstore\n        /* \"#utility.yul\":14038:14200   */\n      pop\n      jump\t// out\n        /* \"#utility.yul\":14206:14572   */\n    tag_151:\n        /* \"#utility.yul\":14348:14351   */\n      0x00\n        /* \"#utility.yul\":14369:14436   */\n      tag_321\n        /* \"#utility.yul\":14433:14435   */\n      0x0c\n        /* \"#utility.yul\":14428:14431   */\n      dup4\n        /* \"#utility.yul\":14369:14436   */\n      tag_114\n      jump\t// in\n    tag_321:\n        /* \"#utility.yul\":14362:14436   */\n      swap2\n      pop\n        /* \"#utility.yul\":14445:14538   */\n      tag_322\n        /* \"#utility.yul\":14534:14537   */\n      dup3\n        /* \"#utility.yul\":14445:14538   */\n      tag_150\n      jump\t// in\n    tag_322:\n        /* \"#utility.yul\":14563:14565   */\n      0x20\n        /* \"#utility.yul\":14558:14561   */\n      dup3\n        /* \"#utility.yul\":14554:14566   */\n      add\n        /* \"#utility.yul\":14547:14566   */\n      swap1\n      pop\n        /* \"#utility.yul\":14206:14572   */\n      swap2\n      swap1\n      pop\n      jump\t// out\n        /* \"#utility.yul\":14578:14997   */\n    tag_67:\n        /* \"#utility.yul\":14744:14748   */\n      0x00\n        /* \"#utility.yul\":14782:14784   */\n      0x20\n        /* \"#utility.yul\":14771:14780   */\n      dup3\n        /* \"#utility.yul\":14767:14785   */\n      add\n        /* \"#utility.yul\":14759:14785   */\n      swap1\n      pop\n        /* \"#utility.yul\":14831:14840   */\n      dup2\n        /* \"#utility.yul\":14825:14829   */\n      dup2\n        /* \"#utility.yul\":14821:14841   */\n      sub\n        /* \"#utility.yul\":14817:14818   */\n      0x00\n        /* \"#utility.yul\":14806:14815   */\n      dup4\n        /* \"#utility.yul\":14802:14819   */\n      add\n        /* \"#utility.yul\":14795:14842   */\n      mstore\n        /* \"#utility.yul\":14859:14990   */\n      tag_324\n        /* \"#utility.yul\":14985:14989   */\n      dup2\n        /* \"#utility.yul\":14859:14990   */\n      tag_151\n      jump\t// in\n    tag_324:\n        /* \"#utility.yul\":14851:14990   */\n      swap1\n      pop\n        /* \"#utility.yul\":14578:14997   */\n      swap2\n      swap1\n      pop\n      jump\t// out\n        /* \"#utility.yul\":15003:15170   */\n    tag_152:\n        /* \"#utility.yul\":15143:15162   */\n      0x596f7520616c726561647920766f746564000000000000000000000000000000\n        /* \"#utility.yul\":15139:15140   */\n      0x00\n        /* \"#utility.yul\":15131:15137   */\n      dup3\n        /* \"#utility.yul\":15127:15141   */\n      add\n        /* \"#utility.yul\":15120:15163   */\n      mstore\n        /* \"#utility.yul\":15003:15170   */\n      pop\n      jump\t// out\n        /* \"#utility.yul\":15176:15542   */\n    tag_153:\n        /* \"#utility.yul\":15318:15321   */\n      0x00\n        /* \"#utility.yul\":15339:15406   */\n      tag_327\n        /* \"#utility.yul\":15403:15405   */\n      0x11\n        /* \"#utility.yul\":15398:15401   */\n      dup4\n        /* \"#utility.yul\":15339:15406   */\n      tag_114\n      jump\t// in\n    tag_327:\n        /* \"#utility.yul\":15332:15406   */\n      swap2\n      pop\n        /* \"#utility.yul\":15415:15508   */\n      tag_328\n        /* \"#utility.yul\":15504:15507   */\n      dup3\n        /* \"#utility.yul\":15415:15508   */\n      tag_152\n      jump\t// in\n    tag_328:\n        /* \"#utility.yul\":15533:15535   */\n      0x20\n        /* \"#utility.yul\":15528:15531   */\n      dup3\n        /* \"#utility.yul\":15524:15536   */\n      add\n        /* \"#utility.yul\":15517:15536   */\n      swap1\n      pop\n        /* \"#utility.yul\":15176:15542   */\n      swap2\n      swap1\n      pop\n      jump\t// out\n        /* \"#utility.yul\":15548:15967   */\n    tag_70:\n        /* \"#utility.yul\":15714:15718   */\n      0x00\n        /* \"#utility.yul\":15752:15754   */\n      0x20\n        /* \"#utility.yul\":15741:15750   */\n      dup3\n        /* \"#utility.yul\":15737:15755   */\n      add\n        /* \"#utility.yul\":15729:15755   */\n      swap1\n      pop\n        /* \"#utility.yul\":15801:15810   */\n      dup2\n        /* \"#utility.yul\":15795:15799   */\n      dup2\n        /* \"#utility.yul\":15791:15811   */\n      sub\n        /* \"#utility.yul\":15787:15788   */\n      0x00\n        /* \"#utility.yul\":15776:15785   */\n      dup4\n        /* \"#utility.yul\":15772:15789   */\n      add\n        /* \"#utility.yul\":15765:15812   */\n      mstore\n        /* \"#utility.yul\":15829:15960   */\n      tag_330\n        /* \"#utility.yul\":15955:15959   */\n      dup2\n        /* \"#utility.yul\":15829:15960   */\n      tag_153\n      jump\t// in\n    tag_330:\n        /* \"#utility.yul\":15821:15960   */\n      swap1\n      pop\n        /* \"#utility.yul\":15548:15967   */\n      swap2\n      swap1\n      pop\n      jump\t// out\n        /* \"#utility.yul\":15973:16137   */\n    tag_154:\n        /* \"#utility.yul\":16113:16129   */\n      0x456d707479207175657374696f6e000000000000000000000000000000000000\n        /* \"#utility.yul\":16109:16110   */\n      0x00\n        /* \"#utility.yul\":16101:16107   */\n      dup3\n        /* \"#utility.yul\":16097:16111   */\n      add\n        /* \"#utility.yul\":16090:16130   */\n      mstore\n        /* \"#utility.yul\":15973:16137   */\n      pop\n      jump\t// out\n        /* \"#utility.yul\":16143:16509   */\n    tag_155:\n        /* \"#utility.yul\":16285:16288   */\n      0x00\n        /* \"#utility.yul\":16306:16373   */\n      tag_333\n        /* \"#utility.yul\":16370:16372   */\n      0x0e\n        /* \"#utility.yul\":16365:16368   */\n      dup4\n        /* \"#utility.yul\":16306:16373   */\n      tag_114\n      jump\t// in\n    tag_333:\n        /* \"#utility.yul\":16299:16373   */\n      swap2\n      pop\n        /* \"#utility.yul\":16382:16475   */\n      tag_334\n        /* \"#utility.yul\":16471:16474   */\n      dup3\n        /* \"#utility.yul\":16382:16475   */\n      tag_154\n      jump\t// in\n    tag_334:\n        /* \"#utility.yul\":16500:16502   */\n      0x20\n        /* \"#utility.yul\":16495:16498   */\n      dup3\n        /* \"#utility.yul\":16491:16503   */\n      add\n        /* \"#utility.yul\":16484:16503   */\n      swap1\n      pop\n        /* \"#utility.yul\":16143:16509   */\n      swap2\n      swap1\n      pop\n      jump\t// out\n        /* \"#utility.yul\":16515:16934   */\n    tag_74:\n        /* \"#utility.yul\":16681:16685   */\n      0x00\n        /* \"#utility.yul\":16719:16721   */\n      0x20\n        /* \"#utility.yul\":16708:16717   */\n      dup3\n        /* \"#utility.yul\":16704:16722   */\n      add\n        /* \"#utility.yul\":16696:16722   */\n      swap1\n      pop\n        /* \"#utility.yul\":16768:16777   */\n      dup2\n        /* \"#utility.yul\":16762:16766   */\n      dup2\n        /* \"#utility.yul\":16758:16778   */\n      sub\n        /* \"#utility.yul\":16754:16755   */\n      0x00\n        /* \"#utility.yul\":16743:16752   */\n      dup4\n        /* \"#utility.yul\":16739:16756   */\n      add\n        /* \"#utility.yul\":16732:16779   */\n      mstore\n        /* \"#utility.yul\":16796:16927   */\n      tag_336\n        /* \"#utility.yul\":16922:16926   */\n      dup2\n        /* \"#utility.yul\":16796:16927   */\n      tag_155\n      jump\t// in\n    tag_336:\n        /* \"#utility.yul\":16788:16927   */\n      swap1\n      pop\n        /* \"#utility.yul\":16515:16934   */\n      swap2\n      swap1\n      pop\n      jump\t// out\n        /* \"#utility.yul\":16940:17117   */\n    tag_156:\n        /* \"#utility.yul\":17080:17109   */\n      0x4174206c656173742032206f7074696f6e732072657175697265640000000000\n        /* \"#utility.yul\":17076:17077   */\n      0x00\n        /* \"#utility.yul\":17068:17074   */\n      dup3\n        /* \"#utility.yul\":17064:17078   */\n      add\n        /* \"#utility.yul\":17057:17110   */\n      mstore\n        /* \"#utility.yul\":16940:17117   */\n      pop\n      jump\t// out\n        /* \"#utility.yul\":17123:17489   */\n    tag_157:\n        /* \"#utility.yul\":17265:17268   */\n      0x00\n        /* \"#utility.yul\":17286:17353   */\n      tag_339\n        /* \"#utility.yul\":17350:17352   */\n      0x1b\n        /* \"#utility.yul\":17345:17348   */\n      dup4\n        /* \"#utility.yul\":17286:17353   */\n      tag_114\n      jump\t// in\n    tag_339:\n        /* \"#utility.yul\":17279:17353   */\n      swap2\n      pop\n        /* \"#utility.yul\":17362:17455   */\n      tag_340\n        /* \"#utility.yul\":17451:17454   */\n      dup3\n        /* \"#utility.yul\":17362:17455   */\n      tag_156\n      jump\t// in\n    tag_340:\n        /* \"#utility.yul\":17480:17482   */\n      0x20\n        /* \"#utility.yul\":17475:17478   */\n      dup3\n        /* \"#utility.yul\":17471:17483   */\n      add\n        /* \"#utility.yul\":17464:17483   */\n      swap1\n      pop\n        /* \"#utility.yul\":17123:17489   */\n      swap2\n      swap1\n      pop\n      jump\t// out\n        /* \"#utility.yul\":17495:17914   */\n    tag_77:\n        /* \"#utility.yul\":17661:17665   */\n      0x00\n        /* \"#utility.yul\":17699:17701   */\n      0x20\n        /* \"#utility.yul\":17688:17697   */\n      dup3\n        /* \"#utility.yul\":17684:17702   */\n      add\n        /* \"#utility.yul\":17676:17702   */\n      swap1\n      pop\n        /* \"#utility.yul\":17748:17757   */\n      dup2\n        /* \"#utility.yul\":17742:17746   */\n      dup2\n        /* \"#utility.yul\":17738:17758   */\n      sub\n        /* \"#utility.yul\":17734:17735   */\n      0x00\n        /* \"#utility.yul\":17723:17732   */\n      dup4\n        /* \"#utility.yul\":17719:17736   */\n      add\n        /* \"#utility.yul\":17712:17759   */\n      mstore\n        /* \"#utility.yul\":17776:17907   */\n      tag_342\n        /* \"#utility.yul\":17902:17906   */\n      dup2\n        /* \"#utility.yul\":17776:17907   */\n      tag_157\n      jump\t// in\n    tag_342:\n        /* \"#utility.yul\":17768:17907   */\n      swap1\n      pop\n        /* \"#utility.yul\":17495:17914   */\n      swap2\n      swap1\n      pop\n      jump\t// out\n        /* \"#utility.yul\":17920:18061   */\n    tag_158:\n        /* \"#utility.yul\":17969:17973   */\n      0x00\n        /* \"#utility.yul\":17992:17995   */\n      dup2\n        /* \"#utility.yul\":17984:17995   */\n      swap1\n      pop\n        /* \"#utility.yul\":18015:18018   */\n      dup2\n        /* \"#utility.yul\":18012:18013   */\n      0x00\n        /* \"#utility.yul\":18005:18019   */\n      mstore\n        /* \"#utility.yul\":18049:18053   */\n      0x20\n        /* \"#utility.yul\":18046:18047   */\n      0x00\n        /* \"#utility.yul\":18036:18054   */\n      keccak256\n        /* \"#utility.yul\":18028:18054   */\n      swap1\n      pop\n        /* \"#utility.yul\":17920:18061   */\n      swap2\n      swap1\n      pop\n      jump\t// out\n        /* \"#utility.yul\":18067:18160   */\n    tag_159:\n        /* \"#utility.yul\":18104:18110   */\n      0x00\n        /* \"#utility.yul\":18151:18153   */\n      0x20\n        /* \"#utility.yul\":18146:18148   */\n      0x1f\n        /* \"#utility.yul\":18139:18144   */\n      dup4\n        /* \"#utility.yul\":18135:18149   */\n      add\n        /* \"#utility.yul\":18131:18154   */\n      div\n        /* \"#utility.yul\":18121:18154   */\n      swap1\n      pop\n        /* \"#utility.yul\":18067:18160   */\n      swap2\n      swap1\n      pop\n      jump\t// out\n        /* \"#utility.yul\":18166:18273   */\n    tag_160:\n        /* \"#utility.yul\":18210:18218   */\n      0x00\n        /* \"#utility.yul\":18260:18265   */\n      dup3\n        /* \"#utility.yul\":18254:18258   */\n      dup3\n        /* \"#utility.yul\":18250:18266   */\n      shl\n        /* \"#utility.yul\":18229:18266   */\n      swap1\n      pop\n        /* \"#utility.yul\":18166:18273   */\n      swap3\n      swap2\n      pop\n      pop\n      jump\t// out\n        /* \"#utility.yul\":18279:18672   */\n    tag_161:\n        /* \"#utility.yul\":18348:18354   */\n      0x00\n        /* \"#utility.yul\":18398:18399   */\n      0x08\n        /* \"#utility.yul\":18386:18396   */\n      dup4\n        /* \"#utility.yul\":18382:18400   */\n      mul\n        /* \"#utility.yul\":18421:18518   */\n      tag_347\n        /* \"#utility.yul\":18451:18517   */\n      0xffffffffffffffffffffffffffffffffffffffffffffffffffffffffffffffff\n        /* \"#utility.yul\":18440:18449   */\n      dup3\n        /* \"#utility.yul\":18421:18518   */\n      tag_160\n      jump\t// in\n    tag_347:\n        /* \"#utility.yul\":18539:18578   */\n      tag_348\n        /* \"#utility.yul\":18569:18577   */\n      dup7\n        /* \"#utility.yul\":18558:18567   */\n      dup4\n        /* \"#utility.yul\":18539:18578   */\n      tag_160\n      jump\t// in\n    tag_348:\n        /* \"#utility.yul\":18527:18578   */\n      swap6\n      pop\n        /* \"#utility.yul\":18611:18615   */\n      dup1\n        /* \"#utility.yul\":18607:18616   */\n      not\n        /* \"#utility.yul\":18600:18605   */\n      dup5\n        /* \"#utility.yul\":18596:18617   */\n      and\n        /* \"#utility.yul\":18587:18617   */\n      swap4\n      pop\n        /* \"#utility.yul\":18660:18664   */\n      dup1\n        /* \"#utility.yul\":18650:18658   */\n      dup7\n        /* \"#utility.yul\":18646:18665   */\n      and\n        /* \"#utility.yul\":18639:18644   */\n      dup5\n        /* \"#utility.yul\":18636:18666   */\n      or\n        /* \"#utility.yul\":18626:18666   */\n      swap3\n      pop\n        /* \"#utility.yul\":18355:18672   */\n      pop\n      pop\n        /* \"#utility.yul\":18279:18672   */\n      swap4\n      swap3\n      pop\n      pop\n      pop\n      jump\t// out\n        /* \"#utility.yul\":18678:18738   */\n    tag_162:\n        /* \"#utility.yul\":18706:18709   */\n      0x00\n        /* \"#utility.yul\":18727:18732   */\n      dup2\n        /* \"#utility.yul\":18720:18732   */\n      swap1\n      pop\n        /* \"#utility.yul\":18678:18738   */\n      swap2\n      swap1\n      pop\n      jump\t// out\n        /* \"#utility.yul\":18744:18886   */\n    tag_163:\n        /* \"#utility.yul\":18794:18803   */\n      0x00\n        /* \"#utility.yul\":18827:18880   */\n      tag_351\n        /* \"#utility.yul\":18845:18879   */\n      tag_352\n        /* \"#utility.yul\":18854:18878   */\n      tag_353\n        /* \"#utility.yul\":18872:18877   */\n      dup5\n        /* \"#utility.yul\":18854:18878   */\n      tag_111\n      jump\t// in\n    tag_353:\n        /* \"#utility.yul\":18845:18879   */\n      tag_162\n      jump\t// in\n    tag_352:\n        /* \"#utility.yul\":18827:18880   */\n      tag_111\n      jump\t// in\n    tag_351:\n        /* \"#utility.yul\":18814:18880   */\n      swap1\n      pop\n        /* \"#utility.yul\":18744:18886   */\n      swap2\n      swap1\n      pop\n      jump\t// out\n        /* \"#utility.yul\":18892:18967   */\n    tag_164:\n        /* \"#utility.yul\":18935:18938   */\n      0x00\n        /* \"#utility.yul\":18956:18961   */\n      dup2\n        /* \"#utility.yul\":18949:18961   */\n      swap1\n      pop\n        /* \"#utility.yul\":18892:18967   */\n      swap2\n      swap1\n      pop\n      jump\t// out\n        /* \"#utility.yul\":18973:19242   */\n    tag_165:\n        /* \"#utility.yul\":19083:19122   */\n      tag_356\n        /* \"#utility.yul\":19114:19121   */\n      dup4\n        /* \"#utility.yul\":19083:19122   */\n      tag_163\n      jump\t// in\n    tag_356:\n        /* \"#utility.yul\":19144:19235   */\n      tag_357\n        /* \"#utility.yul\":19193:19234   */\n      tag_358\n        /* \"#utility.yul\":19217:19233   */\n      dup3\n        /* \"#utility.yul\":19193:19234   */\n      tag_164\n      jump\t// in\n    tag_358:\n        /* \"#utility.yul\":19185:19191   */\n      dup5\n        /* \"#utility.yul\":19178:19182   */\n      dup5\n        /* \"#utility.yul\":19172:19183   */\n      sload\n        /* \"#utility.yul\":19144:19235   */\n      tag_161\n      jump\t// in\n    tag_357:\n        /* \"#utility.yul\":19138:19142   */\n      dup3\n        /* \"#utility.yul\":19131:19236   */\n      sstore\n        /* \"#utility.yul\":19049:19242   */\n      pop\n        /* \"#utility.yul\":18973:19242   */\n      pop\n      pop\n      pop\n      jump\t// out\n        /* \"#utility.yul\":19248:19321   */\n    tag_166:\n        /* \"#utility.yul\":19293:19296   */\n      0x00\n        /* \"#utility.yul\":19248:19321   */\n      swap1\n      jump\t// out\n        /* \"#utility.yul\":19327:19516   */\n    tag_167:\n        /* \"#utility.yul\":19404:19436   */\n      tag_361\n      tag_166\n      jump\t// in\n    tag_361:\n        /* \"#utility.yul\":19445:19510   */\n      tag_362\n        /* \"#utility.yul\":19503:19509   */\n      dup2\n        /* \"#utility.yul\":19495:19501   */\n      dup5\n        /* \"#utility.yul\":19489:19493   */\n      dup5\n        /* \"#utility.yul\":19445:19510   */\n      tag_165\n      jump\t// in\n    tag_362:\n        /* \"#utility.yul\":19380:19516   */\n      pop\n        /* \"#utility.yul\":19327:19516   */\n      pop\n      pop\n      jump\t// out\n        /* \"#utility.yul\":19522:19708   */\n    tag_168:\n        /* \"#utility.yul\":19582:19702   */\n    tag_364:\n        /* \"#utility.yul\":19599:19602   */\n      dup2\n        /* \"#utility.yul\":19592:19597   */\n      dup2\n        /* \"#utility.yul\":19589:19603   */\n      lt\n        /* \"#utility.yul\":19582:19702   */\n      iszero\n      tag_366\n      jumpi\n        /* \"#utility.yul\":19653:19692   */\n      tag_367\n        /* \"#utility.yul\":19690:19691   */\n      0x00\n        /* \"#utility.yul\":19683:19688   */\n      dup3\n        /* \"#utility.yul\":19653:19692   */\n      tag_167\n      jump\t// in\n    tag_367:\n        /* \"#utility.yul\":19626:19627   */\n      0x01\n        /* \"#utility.yul\":19619:19624   */\n      dup2\n        /* \"#utility.yul\":19615:19628   */\n      add\n        /* \"#utility.yul\":19606:19628   */\n      swap1\n      pop\n        /* \"#utility.yul\":19582:19702   */\n      jump(tag_364)\n    tag_366:\n        /* \"#utility.yul\":19522:19708   */\n      pop\n      pop\n      jump\t// out\n        /* \"#utility.yul\":19714:20257   */\n    tag_169:\n        /* \"#utility.yul\":19815:19817   */\n      0x1f\n        /* \"#utility.yul\":19810:19813   */\n      dup3\n        /* \"#utility.yul\":19807:19818   */\n      gt\n        /* \"#utility.yul\":19804:20250   */\n      iszero\n      tag_369\n      jumpi\n        /* \"#utility.yul\":19849:19887   */\n      tag_370\n        /* \"#utility.yul\":19881:19886   */\n      dup2\n        /* \"#utility.yul\":19849:19887   */\n      tag_158\n      jump\t// in\n    tag_370:\n        /* \"#utility.yul\":19933:19962   */\n      tag_371\n        /* \"#utility.yul\":19951:19961   */\n      dup5\n        /* \"#utility.yul\":19933:19962   */\n      tag_159\n      jump\t// in\n    tag_371:\n        /* \"#utility.yul\":19923:19931   */\n      dup2\n        /* \"#utility.yul\":19919:19963   */\n      add\n        /* \"#utility.yul\":20116:20118   */\n      0x20\n        /* \"#utility.yul\":20104:20114   */\n      dup6\n        /* \"#utility.yul\":20101:20119   */\n      lt\n        /* \"#utility.yul\":20098:20147   */\n      iszero\n      tag_372\n      jumpi\n        /* \"#utility.yul\":20137:20145   */\n      dup2\n        /* \"#utility.yul\":20122:20145   */\n      swap1\n      pop\n        /* \"#utility.yul\":20098:20147   */\n    tag_372:\n        /* \"#utility.yul\":20160:20240   */\n      tag_373\n        /* \"#utility.yul\":20216:20238   */\n      tag_374\n        /* \"#utility.yul\":20234:20237   */\n      dup6\n        /* \"#utility.yul\":20216:20238   */\n      tag_159\n      jump\t// in\n    tag_374:\n        /* \"#utility.yul\":20206:20214   */\n      dup4\n        /* \"#utility.yul\":20202:20239   */\n      add\n        /* \"#utility.yul\":20189:20200   */\n      dup3\n        /* \"#utility.yul\":20160:20240   */\n      tag_168\n      jump\t// in\n    tag_373:\n        /* \"#utility.yul\":19819:20250   */\n      pop\n      pop\n        /* \"#utility.yul\":19804:20250   */\n    tag_369:\n        /* \"#utility.yul\":19714:20257   */\n      pop\n      pop\n      pop\n      jump\t// out\n        /* \"#utility.yul\":20263:20380   */\n    tag_170:\n        /* \"#utility.yul\":20317:20325   */\n      0x00\n        /* \"#utility.yul\":20367:20372   */\n      dup3\n        /* \"#utility.yul\":20361:20365   */\n      dup3\n        /* \"#utility.yul\":20357:20373   */\n      shr\n        /* \"#utility.yul\":20336:20373   */\n      swap1\n      pop\n        /* \"#utility.yul\":20263:20380   */\n      swap3\n      swap2\n      pop\n      pop\n      jump\t// out\n        /* \"#utility.yul\":20386:20555   */\n    tag_171:\n        /* \"#utility.yul\":20430:20436   */\n      0x00\n        /* \"#utility.yul\":20463:20514   */\n      tag_377\n        /* \"#utility.yul\":20511:20512   */\n      0x00\n        /* \"#utility.yul\":20507:20513   */\n      not\n        /* \"#utility.yul\":20499:20504   */\n      dup5\n        /* \"#utility.yul\":20496:20497   */\n      0x08\n        /* \"#utility.yul\":20492:20505   */\n      mul\n        /* \"#utility.yul\":20463:20514   */\n      tag_170\n      jump\t// in\n    tag_377:\n        /* \"#utility.yul\":20459:20515   */\n      not\n        /* \"#utility.yul\":20544:20548   */\n      dup1\n        /* \"#utility.yul\":20538:20542   */\n      dup4\n        /* \"#utility.yul\":20534:20549   */\n      and\n        /* \"#utility.yul\":20524:20549   */\n      swap2\n      pop\n        /* \"#utility.yul\":20437:20555   */\n      pop\n        /* \"#utility.yul\":20386:20555   */\n      swap3\n      swap2\n      pop\n      pop\n      jump\t// out\n        /* \"#utility.yul\":20560:20855   */\n    tag_172:\n        /* \"#utility.yul\":20636:20640   */\n      0x00\n        /* \"#utility.yul\":20782:20811   */\n      tag_379\n        /* \"#utility.yul\":20807:20810   */\n      dup4\n        /* \"#utility.yul\":20801:20805   */\n      dup4\n        /* \"#utility.yul\":20782:20811   */\n      tag_171\n      jump\t// in\n    tag_379:\n        /* \"#utility.yul\":20774:20811   */\n      swap2\n      pop\n        /* \"#utility.yul\":20844:20847   */\n      dup3\n        /* \"#utility.yul\":20841:20842   */\n      0x02\n        /* \"#utility.yul\":20837:20848   */\n      mul\n        /* \"#utility.yul\":20831:20835   */\n      dup3\n        /* \"#utility.yul\":20828:20849   */\n      or\n        /* \"#utility.yul\":20820:20849   */\n      swap1\n      pop\n        /* \"#utility.yul\":20560:20855   */\n      swap3\n      swap2\n      pop\n      pop\n      jump\t// out\n        /* \"#utility.yul\":20860:22255   */\n    tag_84:\n        /* \"#utility.yul\":20977:21014   */\n      tag_381\n        /* \"#utility.yul\":21010:21013   */\n      dup3\n        /* \"#utility.yul\":20977:21014   */\n      tag_113\n      jump\t// in\n    tag_381:\n        /* \"#utility.yul\":21079:21097   */\n      0xffffffffffffffff\n        /* \"#utility.yul\":21071:21077   */\n      dup2\n        /* \"#utility.yul\":21068:21098   */\n      gt\n        /* \"#utility.yul\":21065:21121   */\n      iszero\n      tag_382\n      jumpi\n        /* \"#utility.yul\":21101:21119   */\n      tag_383\n      tag_80\n      jump\t// in\n    tag_383:\n        /* \"#utility.yul\":21065:21121   */\n    tag_382:\n        /* \"#utility.yul\":21145:21183   */\n      tag_384\n        /* \"#utility.yul\":21177:21181   */\n      dup3\n        /* \"#utility.yul\":21171:21182   */\n      sload\n        /* \"#utility.yul\":21145:21183   */\n      tag_43\n      jump\t// in\n    tag_384:\n        /* \"#utility.yul\":21230:21297   */\n      tag_385\n        /* \"#utility.yul\":21290:21296   */\n      dup3\n        /* \"#utility.yul\":21282:21288   */\n      dup3\n        /* \"#utility.yul\":21276:21280   */\n      dup6\n        /* \"#utility.yul\":21230:21297   */\n      tag_169\n      jump\t// in\n    tag_385:\n        /* \"#utility.yul\":21324:21325   */\n      0x00\n        /* \"#utility.yul\":21348:21352   */\n      0x20\n        /* \"#utility.yul\":21335:21352   */\n      swap1\n      pop\n        /* \"#utility.yul\":21380:21382   */\n      0x1f\n        /* \"#utility.yul\":21372:21378   */\n      dup4\n        /* \"#utility.yul\":21369:21383   */\n      gt\n        /* \"#utility.yul\":21397:21398   */\n      0x01\n        /* \"#utility.yul\":21392:22010   */\n      dup2\n      eq\n      tag_387\n      jumpi\n        /* \"#utility.yul\":22054:22055   */\n      0x00\n        /* \"#utility.yul\":22071:22077   */\n      dup5\n        /* \"#utility.yul\":22068:22145   */\n      iszero\n      tag_388\n      jumpi\n        /* \"#utility.yul\":22120:22129   */\n      dup3\n        /* \"#utility.yul\":22115:22118   */\n      dup8\n        /* \"#utility.yul\":22111:22130   */\n      add\n        /* \"#utility.yul\":22105:22131   */\n      mload\n        /* \"#utility.yul\":22096:22131   */\n      swap1\n      pop\n        /* \"#utility.yul\":22068:22145   */\n    tag_388:\n        /* \"#utility.yul\":22171:22238   */\n      tag_389\n        /* \"#utility.yul\":22231:22237   */\n      dup6\n        /* \"#utility.yul\":22224:22229   */\n      dup3\n        /* \"#utility.yul\":22171:22238   */\n      tag_172\n      jump\t// in\n    tag_389:\n        /* \"#utility.yul\":22165:22169   */\n      dup7\n        /* \"#utility.yul\":22158:22239   */\n      sstore\n        /* \"#utility.yul\":22027:22249   */\n      pop\n        /* \"#utility.yul\":21362:22249   */\n      jump(tag_386)\n        /* \"#utility.yul\":21392:22010   */\n    tag_387:\n        /* \"#utility.yul\":21444:21448   */\n      0x1f\n        /* \"#utility.yul\":21440:21449   */\n      not\n        /* \"#utility.yul\":21432:21438   */\n      dup5\n        /* \"#utility.yul\":21428:21450   */\n      and\n        /* \"#utility.yul\":21478:21515   */\n      tag_390\n        /* \"#utility.yul\":21510:21514   */\n      dup7\n        /* \"#utility.yul\":21478:21515   */\n      tag_158\n      jump\t// in\n    tag_390:\n        /* \"#utility.yul\":21537:21538   */\n      0x00\n        /* \"#utility.yul\":21551:21759   */\n    tag_391:\n        /* \"#utility.yul\":21565:21572   */\n      dup3\n        /* \"#utility.yul\":21562:21563   */\n      dup2\n        /* \"#utility.yul\":21559:21573   */\n      lt\n        /* \"#utility.yul\":21551:21759   */\n      iszero\n      tag_393\n      jumpi\n        /* \"#utility.yul\":21644:21653   */\n      dup5\n        /* \"#utility.yul\":21639:21642   */\n      dup10\n        /* \"#utility.yul\":21635:21654   */\n      add\n        /* \"#utility.yul\":21629:21655   */\n      mload\n        /* \"#utility.yul\":21621:21627   */\n      dup3\n        /* \"#utility.yul\":21614:21656   */\n      sstore\n        /* \"#utility.yul\":21695:21696   */\n      0x01\n        /* \"#utility.yul\":21687:21693   */\n      dup3\n        /* \"#utility.yul\":21683:21697   */\n      add\n        /* \"#utility.yul\":21673:21697   */\n      swap2\n      pop\n        /* \"#utility.yul\":21742:21744   */\n      0x20\n        /* \"#utility.yul\":21731:21740   */\n      dup6\n        /* \"#utility.yul\":21727:21745   */\n      add\n        /* \"#utility.yul\":21714:21745   */\n      swap5\n      pop\n        /* \"#utility.yul\":21588:21592   */\n      0x20\n        /* \"#utility.yul\":21585:21586   */\n      dup2\n        /* \"#utility.yul\":21581:21593   */\n      add\n        /* \"#utility.yul\":21576:21593   */\n      swap1\n      pop\n        /* \"#utility.yul\":21551:21759   */\n      jump(tag_391)\n    tag_393:\n        /* \"#utility.yul\":21787:21793   */\n      dup7\n        /* \"#utility.yul\":21778:21785   */\n      dup4\n        /* \"#utility.yul\":21775:21794   */\n      lt\n        /* \"#utility.yul\":21772:21951   */\n      iszero\n      tag_394\n      jumpi\n        /* \"#utility.yul\":21845:21854   */\n      dup5\n        /* \"#utility.yul\":21840:21843   */\n      dup10\n        /* \"#utility.yul\":21836:21855   */\n      add\n        /* \"#utility.yul\":21830:21856   */\n      mload\n        /* \"#utility.yul\":21888:21936   */\n      tag_395\n        /* \"#utility.yul\":21930:21934   */\n      0x1f\n        /* \"#utility.yul\":21922:21928   */\n      dup10\n        /* \"#utility.yul\":21918:21935   */\n      and\n        /* \"#utility.yul\":21907:21916   */\n      dup3\n        /* \"#utility.yul\":21888:21936   */\n      tag_171\n      jump\t// in\n    tag_395:\n        /* \"#utility.yul\":21880:21886   */\n      dup4\n        /* \"#utility.yul\":21873:21937   */\n      sstore\n        /* \"#utility.yul\":21795:21951   */\n      pop\n        /* \"#utility.yul\":21772:21951   */\n    tag_394:\n        /* \"#utility.yul\":21997:21998   */\n      0x01\n        /* \"#utility.yul\":21993:21994   */\n      0x02\n        /* \"#utility.yul\":21985:21991   */\n      dup9\n        /* \"#utility.yul\":21981:21995   */\n      mul\n        /* \"#utility.yul\":21977:21999   */\n      add\n        /* \"#utility.yul\":21971:21975   */\n      dup9\n        /* \"#utility.yul\":21964:22000   */\n      sstore\n        /* \"#utility.yul\":21399:22010   */\n      pop\n      pop\n      pop\n        /* \"#utility.yul\":21362:22249   */\n    tag_386:\n      pop\n        /* \"#utility.yul\":20952:22255   */\n      pop\n      pop\n      pop\n        /* \"#utility.yul\":20860:22255   */\n      pop\n      pop\n      jump\t// out\n\n    auxdata: 0xa26469706673582212203629cbc61f390a4dffdb319cb87aad36241a1b3ecdca9e2ecac0a933735af69d64736f6c63430008100033\n}\n",
				"bytecode": {
					"linkReferences": {},
					"object": "608060405234801561001057600080fd5b5061142b806100206000396000f3fe608060405234801561001057600080fd5b50600436106100415760003560e01c8063157bd75d146100465780633d51e9d91461007a5780637ba9104114610096575b600080fd5b610060600480360381019061005b91906108f1565b6100b2565b604051610071959493929190610b4d565b60405180910390f35b610094600480360381019061008f9190610bbc565b610413565b005b6100b060048036038101906100ab9190610e25565b6105b0565b005b6000606080606080856000805490508167ffffffffffffffff161080156100e4575060008167ffffffffffffffff1610155b610123576040517f08c379a000000000000000000000000000000000000000000000000000000000815260040161011a90610f18565b60405180910390fd5b60008767ffffffffffffffff168154811061014157610140610f38565b5b90600052602060002090600502016000015460008867ffffffffffffffff168154811061017157610170610f38565b5b906000526020600020906005020160010160008967ffffffffffffffff16815481106101a05761019f610f38565b5b906000526020600020906005020160020160008a67ffffffffffffffff16815481106101cf576101ce610f38565b5b906000526020600020906005020160030160008b67ffffffffffffffff16815481106101fe576101fd610f38565b5b906000526020600020906005020160040183805461021b90610f96565b80601f016020809104026020016040519081016040528092919081815260200182805461024790610f96565b80156102945780601f1061026957610100808354040283529160200191610294565b820191906000526020600020905b81548152906001019060200180831161027757829003601f168201915b505050505093508280546102a790610f96565b80601f01602080910402602001604051908101604052809291908181526020018280546102d390610f96565b80156103205780601f106102f557610100808354040283529160200191610320565b820191906000526020600020905b81548152906001019060200180831161030357829003601f168201915b50505050509250818054806020026020016040519081016040528092919081815260200182805480156103a657602002820191906000526020600020906000905b82829054906101000a900467ffffffffffffffff1667ffffffffffffffff16815260200190600801906020826007010492830192600103820291508084116103615790505b50505050509150808054806020026020016040519081016040528092919081815260200182805480156103f857602002820191906000526020600020905b8154815260200190600101908083116103e4575b50505050509050955095509550955095505091939590929450565b816000805490508167ffffffffffffffff1610801561043d575060008167ffffffffffffffff1610155b61047c576040517f08c379a000000000000000000000000000000000000000000000000000000000815260040161047390610f18565b60405180910390fd5b60008367ffffffffffffffff168154811061049a57610499610f38565b5b9060005260206000209060050201600401805490508267ffffffffffffffff16106104fa576040517f08c379a00000000000000000000000000000000000000000000000000000000081526004016104f190611013565b60405180910390fd5b60001515600160003373ffffffffffffffffffffffffffffffffffffffff1673ffffffffffffffffffffffffffffffffffffffff16815260200190815260200160002060020160008567ffffffffffffffff16815260200190815260200160002060009054906101000a900460ff161515146105ab576040517f08c379a00000000000000000000000000000000000000000000000000000000081526004016105a29061107f565b60405180910390fd5b505050565b60008351116105f4576040517f08c379a00000000000000000000000000000000000000000000000000000000081526004016105eb906110eb565b60405180910390fd5b6001815111610638576040517f08c379a000000000000000000000000000000000000000000000000000000000815260040161062f90611157565b60405180910390fd5b60008080549050905060006040518060a00160405280838152602001868152602001858152602001845167ffffffffffffffff81111561067b5761067a610c06565b5b6040519080825280602002602001820160405280156106a95781602001602082028036833780820191505090505b50815260200184815250905060008190806001815401808255809150506001900390600052602060002090600502016000909190919091506000820151816000015560208201518160010190816107009190611323565b5060408201518160020190816107169190611323565b50606082015181600301908051906020019061073392919061075a565b506080820151816004019080519060200190610750929190610816565b5050505050505050565b828054828255906000526020600020906003016004900481019282156108055791602002820160005b838211156107cf57835183826101000a81548167ffffffffffffffff021916908367ffffffffffffffff1602179055509260200192600801602081600701049283019260010302610783565b80156108035782816101000a81549067ffffffffffffffff02191690556008016020816007010492830192600103026107cf565b505b5090506108129190610863565b5090565b828054828255906000526020600020908101928215610852579160200282015b82811115610851578251825591602001919060010190610836565b5b50905061085f9190610880565b5090565b5b8082111561087c576000816000905550600101610864565b5090565b5b80821115610899576000816000905550600101610881565b5090565b6000604051905090565b600080fd5b600080fd5b600067ffffffffffffffff82169050919050565b6108ce816108b1565b81146108d957600080fd5b50565b6000813590506108eb816108c5565b92915050565b600060208284031215610907576109066108a7565b5b6000610915848285016108dc565b91505092915050565b6000819050919050565b6109318161091e565b82525050565b600081519050919050565b600082825260208201905092915050565b60005b83811015610971578082015181840152602081019050610956565b60008484015250505050565b6000601f19601f8301169050919050565b600061099982610937565b6109a38185610942565b93506109b3818560208601610953565b6109bc8161097d565b840191505092915050565b600081519050919050565b600082825260208201905092915050565b6000819050602082019050919050565b6109fc816108b1565b82525050565b6000610a0e83836109f3565b60208301905092915050565b6000602082019050919050565b6000610a32826109c7565b610a3c81856109d2565b9350610a47836109e3565b8060005b83811015610a78578151610a5f8882610a02565b9750610a6a83610a1a565b925050600181019050610a4b565b5085935050505092915050565b600081519050919050565b600082825260208201905092915050565b6000819050602082019050919050565b6000819050919050565b610ac481610ab1565b82525050565b6000610ad68383610abb565b60208301905092915050565b6000602082019050919050565b6000610afa82610a85565b610b048185610a90565b9350610b0f83610aa1565b8060005b83811015610b40578151610b278882610aca565b9750610b3283610ae2565b925050600181019050610b13565b5085935050505092915050565b600060a082019050610b626000830188610928565b8181036020830152610b74818761098e565b90508181036040830152610b88818661098e565b90508181036060830152610b9c8185610a27565b90508181036080830152610bb08184610aef565b90509695505050505050565b60008060408385031215610bd357610bd26108a7565b5b6000610be1858286016108dc565b9250506020610bf2858286016108dc565b9150509250929050565b600080fd5b600080fd5b7f4e487b7100000000000000000000000000000000000000000000000000000000600052604160045260246000fd5b610c3e8261097d565b810181811067ffffffffffffffff82111715610c5d57610c5c610c06565b5b80604052505050565b6000610c7061089d565b9050610c7c8282610c35565b919050565b600067ffffffffffffffff821115610c9c57610c9b610c06565b5b610ca58261097d565b9050602081019050919050565b82818337600083830152505050565b6000610cd4610ccf84610c81565b610c66565b905082815260208101848484011115610cf057610cef610c01565b5b610cfb848285610cb2565b509392505050565b600082601f830112610d1857610d17610bfc565b5b8135610d28848260208601610cc1565b91505092915050565b600067ffffffffffffffff821115610d4c57610d4b610c06565b5b602082029050602081019050919050565b600080fd5b610d6b81610ab1565b8114610d7657600080fd5b50565b600081359050610d8881610d62565b92915050565b6000610da1610d9c84610d31565b610c66565b90508083825260208201905060208402830185811115610dc457610dc3610d5d565b5b835b81811015610ded5780610dd98882610d79565b845260208401935050602081019050610dc6565b5050509392505050565b600082601f830112610e0c57610e0b610bfc565b5b8135610e1c848260208601610d8e565b91505092915050565b600080600060608486031215610e3e57610e3d6108a7565b5b600084013567ffffffffffffffff811115610e5c57610e5b6108ac565b5b610e6886828701610d03565b935050602084013567ffffffffffffffff811115610e8957610e886108ac565b5b610e9586828701610d03565b925050604084013567ffffffffffffffff811115610eb657610eb56108ac565b5b610ec286828701610df7565b9150509250925092565b7f4e6f20706f6c6c20666f756e6400000000000000000000000000000000000000600082015250565b6000610f02600d83610942565b9150610f0d82610ecc565b602082019050919050565b60006020820190508181036000830152610f3181610ef5565b9050919050565b7f4e487b7100000000000000000000000000000000000000000000000000000000600052603260045260246000fd5b7f4e487b7100000000000000000000000000000000000000000000000000000000600052602260045260246000fd5b60006002820490506001821680610fae57607f821691505b602082108103610fc157610fc0610f67565b5b50919050565b7f496e76616c696420766f74650000000000000000000000000000000000000000600082015250565b6000610ffd600c83610942565b915061100882610fc7565b602082019050919050565b6000602082019050818103600083015261102c81610ff0565b9050919050565b7f596f7520616c726561647920766f746564000000000000000000000000000000600082015250565b6000611069601183610942565b915061107482611033565b602082019050919050565b600060208201905081810360008301526110988161105c565b9050919050565b7f456d707479207175657374696f6e000000000000000000000000000000000000600082015250565b60006110d5600e83610942565b91506110e08261109f565b602082019050919050565b60006020820190508181036000830152611104816110c8565b9050919050565b7f4174206c656173742032206f7074696f6e732072657175697265640000000000600082015250565b6000611141601b83610942565b915061114c8261110b565b602082019050919050565b6000602082019050818103600083015261117081611134565b9050919050565b60008190508160005260206000209050919050565b60006020601f8301049050919050565b600082821b905092915050565b6000600883026111d97fffffffffffffffffffffffffffffffffffffffffffffffffffffffffffffffff8261119c565b6111e3868361119c565b95508019841693508086168417925050509392505050565b6000819050919050565b600061122061121b6112168461091e565b6111fb565b61091e565b9050919050565b6000819050919050565b61123a83611205565b61124e61124682611227565b8484546111a9565b825550505050565b600090565b611263611256565b61126e818484611231565b505050565b5b818110156112925761128760008261125b565b600181019050611274565b5050565b601f8211156112d7576112a881611177565b6112b18461118c565b810160208510156112c0578190505b6112d46112cc8561118c565b830182611273565b50505b505050565b600082821c905092915050565b60006112fa600019846008026112dc565b1980831691505092915050565b600061131383836112e9565b9150826002028217905092915050565b61132c82610937565b67ffffffffffffffff81111561134557611344610c06565b5b61134f8254610f96565b61135a828285611296565b600060209050601f83116001811461138d576000841561137b578287015190505b6113858582611307565b8655506113ed565b601f19841661139b86611177565b60005b828110156113c35784890151825560018201915060208501945060208101905061139e565b868310156113e057848901516113dc601f8916826112e9565b8355505b6001600288020188555050505b50505050505056fea26469706673582212203629cbc61f390a4dffdb319cb87aad36241a1b3ecdca9e2ecac0a933735af69d64736f6c63430008100033",
					"opcodes": "PUSH1 0x80 PUSH1 0x40 MSTORE CALLVALUE DUP1 ISZERO PUSH2 0x10 JUMPI PUSH1 0x0 DUP1 REVERT JUMPDEST POP PUSH2 0x142B DUP1 PUSH2 0x20 PUSH1 0x0 CODECOPY PUSH1 0x0 RETURN INVALID PUSH1 0x80 PUSH1 0x40 MSTORE CALLVALUE DUP1 ISZERO PUSH2 0x10 JUMPI PUSH1 0x0 DUP1 REVERT JUMPDEST POP PUSH1 0x4 CALLDATASIZE LT PUSH2 0x41 JUMPI PUSH1 0x0 CALLDATALOAD PUSH1 0xE0 SHR DUP1 PUSH4 0x157BD75D EQ PUSH2 0x46 JUMPI DUP1 PUSH4 0x3D51E9D9 EQ PUSH2 0x7A JUMPI DUP1 PUSH4 0x7BA91041 EQ PUSH2 0x96 JUMPI JUMPDEST PUSH1 0x0 DUP1 REVERT JUMPDEST PUSH2 0x60 PUSH1 0x4 DUP1 CALLDATASIZE SUB DUP2 ADD SWAP1 PUSH2 0x5B SWAP2 SWAP1 PUSH2 0x8F1 JUMP JUMPDEST PUSH2 0xB2 JUMP JUMPDEST PUSH1 0x40 MLOAD PUSH2 0x71 SWAP6 SWAP5 SWAP4 SWAP3 SWAP2 SWAP1 PUSH2 0xB4D JUMP JUMPDEST PUSH1 0x40 MLOAD DUP1 SWAP2 SUB SWAP1 RETURN JUMPDEST PUSH2 0x94 PUSH1 0x4 DUP1 CALLDATASIZE SUB DUP2 ADD SWAP1 PUSH2 0x8F SWAP2 SWAP1 PUSH2 0xBBC JUMP JUMPDEST PUSH2 0x413 JUMP JUMPDEST STOP JUMPDEST PUSH2 0xB0 PUSH1 0x4 DUP1 CALLDATASIZE SUB DUP2 ADD SWAP1 PUSH2 0xAB SWAP2 SWAP1 PUSH2 0xE25 JUMP JUMPDEST PUSH2 0x5B0 JUMP JUMPDEST STOP JUMPDEST PUSH1 0x0 PUSH1 0x60 DUP1 PUSH1 0x60 DUP1 DUP6 PUSH1 0x0 DUP1 SLOAD SWAP1 POP DUP2 PUSH8 0xFFFFFFFFFFFFFFFF AND LT DUP1 ISZERO PUSH2 0xE4 JUMPI POP PUSH1 0x0 DUP2 PUSH8 0xFFFFFFFFFFFFFFFF AND LT ISZERO JUMPDEST PUSH2 0x123 JUMPI PUSH1 0x40 MLOAD PUSH32 0x8C379A000000000000000000000000000000000000000000000000000000000 DUP2 MSTORE PUSH1 0x4 ADD PUSH2 0x11A SWAP1 PUSH2 0xF18 JUMP JUMPDEST PUSH1 0x40 MLOAD DUP1 SWAP2 SUB SWAP1 REVERT JUMPDEST PUSH1 0x0 DUP8 PUSH8 0xFFFFFFFFFFFFFFFF AND DUP2 SLOAD DUP2 LT PUSH2 0x141 JUMPI PUSH2 0x140 PUSH2 0xF38 JUMP JUMPDEST JUMPDEST SWAP1 PUSH1 0x0 MSTORE PUSH1 0x20 PUSH1 0x0 KECCAK256 SWAP1 PUSH1 0x5 MUL ADD PUSH1 0x0 ADD SLOAD PUSH1 0x0 DUP9 PUSH8 0xFFFFFFFFFFFFFFFF AND DUP2 SLOAD DUP2 LT PUSH2 0x171 JUMPI PUSH2 0x170 PUSH2 0xF38 JUMP JUMPDEST JUMPDEST SWAP1 PUSH1 0x0 MSTORE PUSH1 0x20 PUSH1 0x0 KECCAK256 SWAP1 PUSH1 0x5 MUL ADD PUSH1 0x1 ADD PUSH1 0x0 DUP10 PUSH8 0xFFFFFFFFFFFFFFFF AND DUP2 SLOAD DUP2 LT PUSH2 0x1A0 JUMPI PUSH2 0x19F PUSH2 0xF38 JUMP JUMPDEST JUMPDEST SWAP1 PUSH1 0x0 MSTORE PUSH1 0x20 PUSH1 0x0 KECCAK256 SWAP1 PUSH1 0x5 MUL ADD PUSH1 0x2 ADD PUSH1 0x0 DUP11 PUSH8 0xFFFFFFFFFFFFFFFF AND DUP2 SLOAD DUP2 LT PUSH2 0x1CF JUMPI PUSH2 0x1CE PUSH2 0xF38 JUMP JUMPDEST JUMPDEST SWAP1 PUSH1 0x0 MSTORE PUSH1 0x20 PUSH1 0x0 KECCAK256 SWAP1 PUSH1 0x5 MUL ADD PUSH1 0x3 ADD PUSH1 0x0 DUP12 PUSH8 0xFFFFFFFFFFFFFFFF AND DUP2 SLOAD DUP2 LT PUSH2 0x1FE JUMPI PUSH2 0x1FD PUSH2 0xF38 JUMP JUMPDEST JUMPDEST SWAP1 PUSH1 0x0 MSTORE PUSH1 0x20 PUSH1 0x0 KECCAK256 SWAP1 PUSH1 0x5 MUL ADD PUSH1 0x4 ADD DUP4 DUP1 SLOAD PUSH2 0x21B SWAP1 PUSH2 0xF96 JUMP JUMPDEST DUP1 PUSH1 0x1F ADD PUSH1 0x20 DUP1 SWAP2 DIV MUL PUSH1 0x20 ADD PUSH1 0x40 MLOAD SWAP1 DUP2 ADD PUSH1 0x40 MSTORE DUP1 SWAP3 SWAP2 SWAP1 DUP2 DUP2 MSTORE PUSH1 0x20 ADD DUP3 DUP1 SLOAD PUSH2 0x247 SWAP1 PUSH2 0xF96 JUMP JUMPDEST DUP1 ISZERO PUSH2 0x294 JUMPI DUP1 PUSH1 0x1F LT PUSH2 0x269 JUMPI PUSH2 0x100 DUP1 DUP4 SLOAD DIV MUL DUP4 MSTORE SWAP2 PUSH1 0x20 ADD SWAP2 PUSH2 0x294 JUMP JUMPDEST DUP3 ADD SWAP2 SWAP1 PUSH1 0x0 MSTORE PUSH1 0x20 PUSH1 0x0 KECCAK256 SWAP1 JUMPDEST DUP2 SLOAD DUP2 MSTORE SWAP1 PUSH1 0x1 ADD SWAP1 PUSH1 0x20 ADD DUP1 DUP4 GT PUSH2 0x277 JUMPI DUP3 SWAP1 SUB PUSH1 0x1F AND DUP3 ADD SWAP2 JUMPDEST POP POP POP POP POP SWAP4 POP DUP3 DUP1 SLOAD PUSH2 0x2A7 SWAP1 PUSH2 0xF96 JUMP JUMPDEST DUP1 PUSH1 0x1F ADD PUSH1 0x20 DUP1 SWAP2 DIV MUL PUSH1 0x20 ADD PUSH1 0x40 MLOAD SWAP1 DUP2 ADD PUSH1 0x40 MSTORE DUP1 SWAP3 SWAP2 SWAP1 DUP2 DUP2 MSTORE PUSH1 0x20 ADD DUP3 DUP1 SLOAD PUSH2 0x2D3 SWAP1 PUSH2 0xF96 JUMP JUMPDEST DUP1 ISZERO PUSH2 0x320 JUMPI DUP1 PUSH1 0x1F LT PUSH2 0x2F5 JUMPI PUSH2 0x100 DUP1 DUP4 SLOAD DIV MUL DUP4 MSTORE SWAP2 PUSH1 0x20 ADD SWAP2 PUSH2 0x320 JUMP JUMPDEST DUP3 ADD SWAP2 SWAP1 PUSH1 0x0 MSTORE PUSH1 0x20 PUSH1 0x0 KECCAK256 SWAP1 JUMPDEST DUP2 SLOAD DUP2 MSTORE SWAP1 PUSH1 0x1 ADD SWAP1 PUSH1 0x20 ADD DUP1 DUP4 GT PUSH2 0x303 JUMPI DUP3 SWAP1 SUB PUSH1 0x1F AND DUP3 ADD SWAP2 JUMPDEST POP POP POP POP POP SWAP3 POP DUP2 DUP1 SLOAD DUP1 PUSH1 0x20 MUL PUSH1 0x20 ADD PUSH1 0x40 MLOAD SWAP1 DUP2 ADD PUSH1 0x40 MSTORE DUP1 SWAP3 SWAP2 SWAP1 DUP2 DUP2 MSTORE PUSH1 0x20 ADD DUP3 DUP1 SLOAD DUP1 ISZERO PUSH2 0x3A6 JUMPI PUSH1 0x20 MUL DUP3 ADD SWAP2 SWAP1 PUSH1 0x0 MSTORE PUSH1 0x20 PUSH1 0x0 KECCAK256 SWAP1 PUSH1 0x0 SWAP1 JUMPDEST DUP3 DUP3 SWAP1 SLOAD SWAP1 PUSH2 0x100 EXP SWAP1 DIV PUSH8 0xFFFFFFFFFFFFFFFF AND PUSH8 0xFFFFFFFFFFFFFFFF AND DUP2 MSTORE PUSH1 0x20 ADD SWAP1 PUSH1 0x8 ADD SWAP1 PUSH1 0x20 DUP3 PUSH1 0x7 ADD DIV SWAP3 DUP4 ADD SWAP3 PUSH1 0x1 SUB DUP3 MUL SWAP2 POP DUP1 DUP5 GT PUSH2 0x361 JUMPI SWAP1 POP JUMPDEST POP POP POP POP POP SWAP2 POP DUP1 DUP1 SLOAD DUP1 PUSH1 0x20 MUL PUSH1 0x20 ADD PUSH1 0x40 MLOAD SWAP1 DUP2 ADD PUSH1 0x40 MSTORE DUP1 SWAP3 SWAP2 SWAP1 DUP2 DUP2 MSTORE PUSH1 0x20 ADD DUP3 DUP1 SLOAD DUP1 ISZERO PUSH2 0x3F8 JUMPI PUSH1 0x20 MUL DUP3 ADD SWAP2 SWAP1 PUSH1 0x0 MSTORE PUSH1 0x20 PUSH1 0x0 KECCAK256 SWAP1 JUMPDEST DUP2 SLOAD DUP2 MSTORE PUSH1 0x20 ADD SWAP1 PUSH1 0x1 ADD SWAP1 DUP1 DUP4 GT PUSH2 0x3E4 JUMPI JUMPDEST POP POP POP POP POP SWAP1 POP SWAP6 POP SWAP6 POP SWAP6 POP SWAP6 POP SWAP6 POP POP SWAP2 SWAP4 SWAP6 SWAP1 SWAP3 SWAP5 POP JUMP JUMPDEST DUP2 PUSH1 0x0 DUP1 SLOAD SWAP1 POP DUP2 PUSH8 0xFFFFFFFFFFFFFFFF AND LT DUP1 ISZERO PUSH2 0x43D JUMPI POP PUSH1 0x0 DUP2 PUSH8 0xFFFFFFFFFFFFFFFF AND LT ISZERO JUMPDEST PUSH2 0x47C JUMPI PUSH1 0x40 MLOAD PUSH32 0x8C379A000000000000000000000000000000000000000000000000000000000 DUP2 MSTORE PUSH1 0x4 ADD PUSH2 0x473 SWAP1 PUSH2 0xF18 JUMP JUMPDEST PUSH1 0x40 MLOAD DUP1 SWAP2 SUB SWAP1 REVERT JUMPDEST PUSH1 0x0 DUP4 PUSH8 0xFFFFFFFFFFFFFFFF AND DUP2 SLOAD DUP2 LT PUSH2 0x49A JUMPI PUSH2 0x499 PUSH2 0xF38 JUMP JUMPDEST JUMPDEST SWAP1 PUSH1 0x0 MSTORE PUSH1 0x20 PUSH1 0x0 KECCAK256 SWAP1 PUSH1 0x5 MUL ADD PUSH1 0x4 ADD DUP1 SLOAD SWAP1 POP DUP3 PUSH8 0xFFFFFFFFFFFFFFFF AND LT PUSH2 0x4FA JUMPI PUSH1 0x40 MLOAD PUSH32 0x8C379A000000000000000000000000000000000000000000000000000000000 DUP2 MSTORE PUSH1 0x4 ADD PUSH2 0x4F1 SWAP1 PUSH2 0x1013 JUMP JUMPDEST PUSH1 0x40 MLOAD DUP1 SWAP2 SUB SWAP1 REVERT JUMPDEST PUSH1 0x0 ISZERO ISZERO PUSH1 0x1 PUSH1 0x0 CALLER PUSH20 0xFFFFFFFFFFFFFFFFFFFFFFFFFFFFFFFFFFFFFFFF AND PUSH20 0xFFFFFFFFFFFFFFFFFFFFFFFFFFFFFFFFFFFFFFFF AND DUP2 MSTORE PUSH1 0x20 ADD SWAP1 DUP2 MSTORE PUSH1 0x20 ADD PUSH1 0x0 KECCAK256 PUSH1 0x2 ADD PUSH1 0x0 DUP6 PUSH8 0xFFFFFFFFFFFFFFFF AND DUP2 MSTORE PUSH1 0x20 ADD SWAP1 DUP2 MSTORE PUSH1 0x20 ADD PUSH1 0x0 KECCAK256 PUSH1 0x0 SWAP1 SLOAD SWAP1 PUSH2 0x100 EXP SWAP1 DIV PUSH1 0xFF AND ISZERO ISZERO EQ PUSH2 0x5AB JUMPI PUSH1 0x40 MLOAD PUSH32 0x8C379A000000000000000000000000000000000000000000000000000000000 DUP2 MSTORE PUSH1 0x4 ADD PUSH2 0x5A2 SWAP1 PUSH2 0x107F JUMP JUMPDEST PUSH1 0x40 MLOAD DUP1 SWAP2 SUB SWAP1 REVERT JUMPDEST POP POP POP JUMP JUMPDEST PUSH1 0x0 DUP4 MLOAD GT PUSH2 0x5F4 JUMPI PUSH1 0x40 MLOAD PUSH32 0x8C379A000000000000000000000000000000000000000000000000000000000 DUP2 MSTORE PUSH1 0x4 ADD PUSH2 0x5EB SWAP1 PUSH2 0x10EB JUMP JUMPDEST PUSH1 0x40 MLOAD DUP1 SWAP2 SUB SWAP1 REVERT JUMPDEST PUSH1 0x1 DUP2 MLOAD GT PUSH2 0x638 JUMPI PUSH1 0x40 MLOAD PUSH32 0x8C379A000000000000000000000000000000000000000000000000000000000 DUP2 MSTORE PUSH1 0x4 ADD PUSH2 0x62F SWAP1 PUSH2 0x1157 JUMP JUMPDEST PUSH1 0x40 MLOAD DUP1 SWAP2 SUB SWAP1 REVERT JUMPDEST PUSH1 0x0 DUP1 DUP1 SLOAD SWAP1 POP SWAP1 POP PUSH1 0x0 PUSH1 0x40 MLOAD DUP1 PUSH1 0xA0 ADD PUSH1 0x40 MSTORE DUP1 DUP4 DUP2 MSTORE PUSH1 0x20 ADD DUP7 DUP2 MSTORE PUSH1 0x20 ADD DUP6 DUP2 MSTORE PUSH1 0x20 ADD DUP5 MLOAD PUSH8 0xFFFFFFFFFFFFFFFF DUP2 GT ISZERO PUSH2 0x67B JUMPI PUSH2 0x67A PUSH2 0xC06 JUMP JUMPDEST JUMPDEST PUSH1 0x40 MLOAD SWAP1 DUP1 DUP3 MSTORE DUP1 PUSH1 0x20 MUL PUSH1 0x20 ADD DUP3 ADD PUSH1 0x40 MSTORE DUP1 ISZERO PUSH2 0x6A9 JUMPI DUP2 PUSH1 0x20 ADD PUSH1 0x20 DUP3 MUL DUP1 CALLDATASIZE DUP4 CALLDATACOPY DUP1 DUP3 ADD SWAP2 POP POP SWAP1 POP JUMPDEST POP DUP2 MSTORE PUSH1 0x20 ADD DUP5 DUP2 MSTORE POP SWAP1 POP PUSH1 0x0 DUP2 SWAP1 DUP1 PUSH1 0x1 DUP2 SLOAD ADD DUP1 DUP3 SSTORE DUP1 SWAP2 POP POP PUSH1 0x1 SWAP1 SUB SWAP1 PUSH1 0x0 MSTORE PUSH1 0x20 PUSH1 0x0 KECCAK256 SWAP1 PUSH1 0x5 MUL ADD PUSH1 0x0 SWAP1 SWAP2 SWAP1 SWAP2 SWAP1 SWAP2 POP PUSH1 0x0 DUP3 ADD MLOAD DUP2 PUSH1 0x0 ADD SSTORE PUSH1 0x20 DUP3 ADD MLOAD DUP2 PUSH1 0x1 ADD SWAP1 DUP2 PUSH2 0x700 SWAP2 SWAP1 PUSH2 0x1323 JUMP JUMPDEST POP PUSH1 0x40 DUP3 ADD MLOAD DUP2 PUSH1 0x2 ADD SWAP1 DUP2 PUSH2 0x716 SWAP2 SWAP1 PUSH2 0x1323 JUMP JUMPDEST POP PUSH1 0x60 DUP3 ADD MLOAD DUP2 PUSH1 0x3 ADD SWAP1 DUP1 MLOAD SWAP1 PUSH1 0x20 ADD SWAP1 PUSH2 0x733 SWAP3 SWAP2 SWAP1 PUSH2 0x75A JUMP JUMPDEST POP PUSH1 0x80 DUP3 ADD MLOAD DUP2 PUSH1 0x4 ADD SWAP1 DUP1 MLOAD SWAP1 PUSH1 0x20 ADD SWAP1 PUSH2 0x750 SWAP3 SWAP2 SWAP1 PUSH2 0x816 JUMP JUMPDEST POP POP POP POP POP POP POP POP JUMP JUMPDEST DUP3 DUP1 SLOAD DUP3 DUP3 SSTORE SWAP1 PUSH1 0x0 MSTORE PUSH1 0x20 PUSH1 0x0 KECCAK256 SWAP1 PUSH1 0x3 ADD PUSH1 0x4 SWAP1 DIV DUP2 ADD SWAP3 DUP3 ISZERO PUSH2 0x805 JUMPI SWAP2 PUSH1 0x20 MUL DUP3 ADD PUSH1 0x0 JUMPDEST DUP4 DUP3 GT ISZERO PUSH2 0x7CF JUMPI DUP4 MLOAD DUP4 DUP3 PUSH2 0x100 EXP DUP2 SLOAD DUP2 PUSH8 0xFFFFFFFFFFFFFFFF MUL NOT AND SWAP1 DUP4 PUSH8 0xFFFFFFFFFFFFFFFF AND MUL OR SWAP1 SSTORE POP SWAP3 PUSH1 0x20 ADD SWAP3 PUSH1 0x8 ADD PUSH1 0x20 DUP2 PUSH1 0x7 ADD DIV SWAP3 DUP4 ADD SWAP3 PUSH1 0x1 SUB MUL PUSH2 0x783 JUMP JUMPDEST DUP1 ISZERO PUSH2 0x803 JUMPI DUP3 DUP2 PUSH2 0x100 EXP DUP2 SLOAD SWAP1 PUSH8 0xFFFFFFFFFFFFFFFF MUL NOT AND SWAP1 SSTORE PUSH1 0x8 ADD PUSH1 0x20 DUP2 PUSH1 0x7 ADD DIV SWAP3 DUP4 ADD SWAP3 PUSH1 0x1 SUB MUL PUSH2 0x7CF JUMP JUMPDEST POP JUMPDEST POP SWAP1 POP PUSH2 0x812 SWAP2 SWAP1 PUSH2 0x863 JUMP JUMPDEST POP SWAP1 JUMP JUMPDEST DUP3 DUP1 SLOAD DUP3 DUP3 SSTORE SWAP1 PUSH1 0x0 MSTORE PUSH1 0x20 PUSH1 0x0 KECCAK256 SWAP1 DUP2 ADD SWAP3 DUP3 ISZERO PUSH2 0x852 JUMPI SWAP2 PUSH1 0x20 MUL DUP3 ADD JUMPDEST DUP3 DUP2 GT ISZERO PUSH2 0x851 JUMPI DUP3 MLOAD DUP3 SSTORE SWAP2 PUSH1 0x20 ADD SWAP2 SWAP1 PUSH1 0x1 ADD SWAP1 PUSH2 0x836 JUMP JUMPDEST JUMPDEST POP SWAP1 POP PUSH2 0x85F SWAP2 SWAP1 PUSH2 0x880 JUMP JUMPDEST POP SWAP1 JUMP JUMPDEST JUMPDEST DUP1 DUP3 GT ISZERO PUSH2 0x87C JUMPI PUSH1 0x0 DUP2 PUSH1 0x0 SWAP1 SSTORE POP PUSH1 0x1 ADD PUSH2 0x864 JUMP JUMPDEST POP SWAP1 JUMP JUMPDEST JUMPDEST DUP1 DUP3 GT ISZERO PUSH2 0x899 JUMPI PUSH1 0x0 DUP2 PUSH1 0x0 SWAP1 SSTORE POP PUSH1 0x1 ADD PUSH2 0x881 JUMP JUMPDEST POP SWAP1 JUMP JUMPDEST PUSH1 0x0 PUSH1 0x40 MLOAD SWAP1 POP SWAP1 JUMP JUMPDEST PUSH1 0x0 DUP1 REVERT JUMPDEST PUSH1 0x0 DUP1 REVERT JUMPDEST PUSH1 0x0 PUSH8 0xFFFFFFFFFFFFFFFF DUP3 AND SWAP1 POP SWAP2 SWAP1 POP JUMP JUMPDEST PUSH2 0x8CE DUP2 PUSH2 0x8B1 JUMP JUMPDEST DUP2 EQ PUSH2 0x8D9 JUMPI PUSH1 0x0 DUP1 REVERT JUMPDEST POP JUMP JUMPDEST PUSH1 0x0 DUP2 CALLDATALOAD SWAP1 POP PUSH2 0x8EB DUP2 PUSH2 0x8C5 JUMP JUMPDEST SWAP3 SWAP2 POP POP JUMP JUMPDEST PUSH1 0x0 PUSH1 0x20 DUP3 DUP5 SUB SLT ISZERO PUSH2 0x907 JUMPI PUSH2 0x906 PUSH2 0x8A7 JUMP JUMPDEST JUMPDEST PUSH1 0x0 PUSH2 0x915 DUP5 DUP3 DUP6 ADD PUSH2 0x8DC JUMP JUMPDEST SWAP2 POP POP SWAP3 SWAP2 POP POP JUMP JUMPDEST PUSH1 0x0 DUP2 SWAP1 POP SWAP2 SWAP1 POP JUMP JUMPDEST PUSH2 0x931 DUP2 PUSH2 0x91E JUMP JUMPDEST DUP3 MSTORE POP POP JUMP JUMPDEST PUSH1 0x0 DUP2 MLOAD SWAP1 POP SWAP2 SWAP1 POP JUMP JUMPDEST PUSH1 0x0 DUP3 DUP3 MSTORE PUSH1 0x20 DUP3 ADD SWAP1 POP SWAP3 SWAP2 POP POP JUMP JUMPDEST PUSH1 0x0 JUMPDEST DUP4 DUP2 LT ISZERO PUSH2 0x971 JUMPI DUP1 DUP3 ADD MLOAD DUP2 DUP5 ADD MSTORE PUSH1 0x20 DUP2 ADD SWAP1 POP PUSH2 0x956 JUMP JUMPDEST PUSH1 0x0 DUP5 DUP5 ADD MSTORE POP POP POP POP JUMP JUMPDEST PUSH1 0x0 PUSH1 0x1F NOT PUSH1 0x1F DUP4 ADD AND SWAP1 POP SWAP2 SWAP1 POP JUMP JUMPDEST PUSH1 0x0 PUSH2 0x999 DUP3 PUSH2 0x937 JUMP JUMPDEST PUSH2 0x9A3 DUP2 DUP6 PUSH2 0x942 JUMP JUMPDEST SWAP4 POP PUSH2 0x9B3 DUP2 DUP6 PUSH1 0x20 DUP7 ADD PUSH2 0x953 JUMP JUMPDEST PUSH2 0x9BC DUP2 PUSH2 0x97D JUMP JUMPDEST DUP5 ADD SWAP2 POP POP SWAP3 SWAP2 POP POP JUMP JUMPDEST PUSH1 0x0 DUP2 MLOAD SWAP1 POP SWAP2 SWAP1 POP JUMP JUMPDEST PUSH1 0x0 DUP3 DUP3 MSTORE PUSH1 0x20 DUP3 ADD SWAP1 POP SWAP3 SWAP2 POP POP JUMP JUMPDEST PUSH1 0x0 DUP2 SWAP1 POP PUSH1 0x20 DUP3 ADD SWAP1 POP SWAP2 SWAP1 POP JUMP JUMPDEST PUSH2 0x9FC DUP2 PUSH2 0x8B1 JUMP JUMPDEST DUP3 MSTORE POP POP JUMP JUMPDEST PUSH1 0x0 PUSH2 0xA0E DUP4 DUP4 PUSH2 0x9F3 JUMP JUMPDEST PUSH1 0x20 DUP4 ADD SWAP1 POP SWAP3 SWAP2 POP POP JUMP JUMPDEST PUSH1 0x0 PUSH1 0x20 DUP3 ADD SWAP1 POP SWAP2 SWAP1 POP JUMP JUMPDEST PUSH1 0x0 PUSH2 0xA32 DUP3 PUSH2 0x9C7 JUMP JUMPDEST PUSH2 0xA3C DUP2 DUP6 PUSH2 0x9D2 JUMP JUMPDEST SWAP4 POP PUSH2 0xA47 DUP4 PUSH2 0x9E3 JUMP JUMPDEST DUP1 PUSH1 0x0 JUMPDEST DUP4 DUP2 LT ISZERO PUSH2 0xA78 JUMPI DUP2 MLOAD PUSH2 0xA5F DUP9 DUP3 PUSH2 0xA02 JUMP JUMPDEST SWAP8 POP PUSH2 0xA6A DUP4 PUSH2 0xA1A JUMP JUMPDEST SWAP3 POP POP PUSH1 0x1 DUP2 ADD SWAP1 POP PUSH2 0xA4B JUMP JUMPDEST POP DUP6 SWAP4 POP POP POP POP SWAP3 SWAP2 POP POP JUMP JUMPDEST PUSH1 0x0 DUP2 MLOAD SWAP1 POP SWAP2 SWAP1 POP JUMP JUMPDEST PUSH1 0x0 DUP3 DUP3 MSTORE PUSH1 0x20 DUP3 ADD SWAP1 POP SWAP3 SWAP2 POP POP JUMP JUMPDEST PUSH1 0x0 DUP2 SWAP1 POP PUSH1 0x20 DUP3 ADD SWAP1 POP SWAP2 SWAP1 POP JUMP JUMPDEST PUSH1 0x0 DUP2 SWAP1 POP SWAP2 SWAP1 POP JUMP JUMPDEST PUSH2 0xAC4 DUP2 PUSH2 0xAB1 JUMP JUMPDEST DUP3 MSTORE POP POP JUMP JUMPDEST PUSH1 0x0 PUSH2 0xAD6 DUP4 DUP4 PUSH2 0xABB JUMP JUMPDEST PUSH1 0x20 DUP4 ADD SWAP1 POP SWAP3 SWAP2 POP POP JUMP JUMPDEST PUSH1 0x0 PUSH1 0x20 DUP3 ADD SWAP1 POP SWAP2 SWAP1 POP JUMP JUMPDEST PUSH1 0x0 PUSH2 0xAFA DUP3 PUSH2 0xA85 JUMP JUMPDEST PUSH2 0xB04 DUP2 DUP6 PUSH2 0xA90 JUMP JUMPDEST SWAP4 POP PUSH2 0xB0F DUP4 PUSH2 0xAA1 JUMP JUMPDEST DUP1 PUSH1 0x0 JUMPDEST DUP4 DUP2 LT ISZERO PUSH2 0xB40 JUMPI DUP2 MLOAD PUSH2 0xB27 DUP9 DUP3 PUSH2 0xACA JUMP JUMPDEST SWAP8 POP PUSH2 0xB32 DUP4 PUSH2 0xAE2 JUMP JUMPDEST SWAP3 POP POP PUSH1 0x1 DUP2 ADD SWAP1 POP PUSH2 0xB13 JUMP JUMPDEST POP DUP6 SWAP4 POP POP POP POP SWAP3 SWAP2 POP POP JUMP JUMPDEST PUSH1 0x0 PUSH1 0xA0 DUP3 ADD SWAP1 POP PUSH2 0xB62 PUSH1 0x0 DUP4 ADD DUP9 PUSH2 0x928 JUMP JUMPDEST DUP2 DUP2 SUB PUSH1 0x20 DUP4 ADD MSTORE PUSH2 0xB74 DUP2 DUP8 PUSH2 0x98E JUMP JUMPDEST SWAP1 POP DUP2 DUP2 SUB PUSH1 0x40 DUP4 ADD MSTORE PUSH2 0xB88 DUP2 DUP7 PUSH2 0x98E JUMP JUMPDEST SWAP1 POP DUP2 DUP2 SUB PUSH1 0x60 DUP4 ADD MSTORE PUSH2 0xB9C DUP2 DUP6 PUSH2 0xA27 JUMP JUMPDEST SWAP1 POP DUP2 DUP2 SUB PUSH1 0x80 DUP4 ADD MSTORE PUSH2 0xBB0 DUP2 DUP5 PUSH2 0xAEF JUMP JUMPDEST SWAP1 POP SWAP7 SWAP6 POP POP POP POP POP POP JUMP JUMPDEST PUSH1 0x0 DUP1 PUSH1 0x40 DUP4 DUP6 SUB SLT ISZERO PUSH2 0xBD3 JUMPI PUSH2 0xBD2 PUSH2 0x8A7 JUMP JUMPDEST JUMPDEST PUSH1 0x0 PUSH2 0xBE1 DUP6 DUP3 DUP7 ADD PUSH2 0x8DC JUMP JUMPDEST SWAP3 POP POP PUSH1 0x20 PUSH2 0xBF2 DUP6 DUP3 DUP7 ADD PUSH2 0x8DC JUMP JUMPDEST SWAP2 POP POP SWAP3 POP SWAP3 SWAP1 POP JUMP JUMPDEST PUSH1 0x0 DUP1 REVERT JUMPDEST PUSH1 0x0 DUP1 REVERT JUMPDEST PUSH32 0x4E487B7100000000000000000000000000000000000000000000000000000000 PUSH1 0x0 MSTORE PUSH1 0x41 PUSH1 0x4 MSTORE PUSH1 0x24 PUSH1 0x0 REVERT JUMPDEST PUSH2 0xC3E DUP3 PUSH2 0x97D JUMP JUMPDEST DUP2 ADD DUP2 DUP2 LT PUSH8 0xFFFFFFFFFFFFFFFF DUP3 GT OR ISZERO PUSH2 0xC5D JUMPI PUSH2 0xC5C PUSH2 0xC06 JUMP JUMPDEST JUMPDEST DUP1 PUSH1 0x40 MSTORE POP POP POP JUMP JUMPDEST PUSH1 0x0 PUSH2 0xC70 PUSH2 0x89D JUMP JUMPDEST SWAP1 POP PUSH2 0xC7C DUP3 DUP3 PUSH2 0xC35 JUMP JUMPDEST SWAP2 SWAP1 POP JUMP JUMPDEST PUSH1 0x0 PUSH8 0xFFFFFFFFFFFFFFFF DUP3 GT ISZERO PUSH2 0xC9C JUMPI PUSH2 0xC9B PUSH2 0xC06 JUMP JUMPDEST JUMPDEST PUSH2 0xCA5 DUP3 PUSH2 0x97D JUMP JUMPDEST SWAP1 POP PUSH1 0x20 DUP2 ADD SWAP1 POP SWAP2 SWAP1 POP JUMP JUMPDEST DUP3 DUP2 DUP4 CALLDATACOPY PUSH1 0x0 DUP4 DUP4 ADD MSTORE POP POP POP JUMP JUMPDEST PUSH1 0x0 PUSH2 0xCD4 PUSH2 0xCCF DUP5 PUSH2 0xC81 JUMP JUMPDEST PUSH2 0xC66 JUMP JUMPDEST SWAP1 POP DUP3 DUP2 MSTORE PUSH1 0x20 DUP2 ADD DUP5 DUP5 DUP5 ADD GT ISZERO PUSH2 0xCF0 JUMPI PUSH2 0xCEF PUSH2 0xC01 JUMP JUMPDEST JUMPDEST PUSH2 0xCFB DUP5 DUP3 DUP6 PUSH2 0xCB2 JUMP JUMPDEST POP SWAP4 SWAP3 POP POP POP JUMP JUMPDEST PUSH1 0x0 DUP3 PUSH1 0x1F DUP4 ADD SLT PUSH2 0xD18 JUMPI PUSH2 0xD17 PUSH2 0xBFC JUMP JUMPDEST JUMPDEST DUP2 CALLDATALOAD PUSH2 0xD28 DUP5 DUP3 PUSH1 0x20 DUP7 ADD PUSH2 0xCC1 JUMP JUMPDEST SWAP2 POP POP SWAP3 SWAP2 POP POP JUMP JUMPDEST PUSH1 0x0 PUSH8 0xFFFFFFFFFFFFFFFF DUP3 GT ISZERO PUSH2 0xD4C JUMPI PUSH2 0xD4B PUSH2 0xC06 JUMP JUMPDEST JUMPDEST PUSH1 0x20 DUP3 MUL SWAP1 POP PUSH1 0x20 DUP2 ADD SWAP1 POP SWAP2 SWAP1 POP JUMP JUMPDEST PUSH1 0x0 DUP1 REVERT JUMPDEST PUSH2 0xD6B DUP2 PUSH2 0xAB1 JUMP JUMPDEST DUP2 EQ PUSH2 0xD76 JUMPI PUSH1 0x0 DUP1 REVERT JUMPDEST POP JUMP JUMPDEST PUSH1 0x0 DUP2 CALLDATALOAD SWAP1 POP PUSH2 0xD88 DUP2 PUSH2 0xD62 JUMP JUMPDEST SWAP3 SWAP2 POP POP JUMP JUMPDEST PUSH1 0x0 PUSH2 0xDA1 PUSH2 0xD9C DUP5 PUSH2 0xD31 JUMP JUMPDEST PUSH2 0xC66 JUMP JUMPDEST SWAP1 POP DUP1 DUP4 DUP3 MSTORE PUSH1 0x20 DUP3 ADD SWAP1 POP PUSH1 0x20 DUP5 MUL DUP4 ADD DUP6 DUP2 GT ISZERO PUSH2 0xDC4 JUMPI PUSH2 0xDC3 PUSH2 0xD5D JUMP JUMPDEST JUMPDEST DUP4 JUMPDEST DUP2 DUP2 LT ISZERO PUSH2 0xDED JUMPI DUP1 PUSH2 0xDD9 DUP9 DUP3 PUSH2 0xD79 JUMP JUMPDEST DUP5 MSTORE PUSH1 0x20 DUP5 ADD SWAP4 POP POP PUSH1 0x20 DUP2 ADD SWAP1 POP PUSH2 0xDC6 JUMP JUMPDEST POP POP POP SWAP4 SWAP3 POP POP POP JUMP JUMPDEST PUSH1 0x0 DUP3 PUSH1 0x1F DUP4 ADD SLT PUSH2 0xE0C JUMPI PUSH2 0xE0B PUSH2 0xBFC JUMP JUMPDEST JUMPDEST DUP2 CALLDATALOAD PUSH2 0xE1C DUP5 DUP3 PUSH1 0x20 DUP7 ADD PUSH2 0xD8E JUMP JUMPDEST SWAP2 POP POP SWAP3 SWAP2 POP POP JUMP JUMPDEST PUSH1 0x0 DUP1 PUSH1 0x0 PUSH1 0x60 DUP5 DUP7 SUB SLT ISZERO PUSH2 0xE3E JUMPI PUSH2 0xE3D PUSH2 0x8A7 JUMP JUMPDEST JUMPDEST PUSH1 0x0 DUP5 ADD CALLDATALOAD PUSH8 0xFFFFFFFFFFFFFFFF DUP2 GT ISZERO PUSH2 0xE5C JUMPI PUSH2 0xE5B PUSH2 0x8AC JUMP JUMPDEST JUMPDEST PUSH2 0xE68 DUP7 DUP3 DUP8 ADD PUSH2 0xD03 JUMP JUMPDEST SWAP4 POP POP PUSH1 0x20 DUP5 ADD CALLDATALOAD PUSH8 0xFFFFFFFFFFFFFFFF DUP2 GT ISZERO PUSH2 0xE89 JUMPI PUSH2 0xE88 PUSH2 0x8AC JUMP JUMPDEST JUMPDEST PUSH2 0xE95 DUP7 DUP3 DUP8 ADD PUSH2 0xD03 JUMP JUMPDEST SWAP3 POP POP PUSH1 0x40 DUP5 ADD CALLDATALOAD PUSH8 0xFFFFFFFFFFFFFFFF DUP2 GT ISZERO PUSH2 0xEB6 JUMPI PUSH2 0xEB5 PUSH2 0x8AC JUMP JUMPDEST JUMPDEST PUSH2 0xEC2 DUP7 DUP3 DUP8 ADD PUSH2 0xDF7 JUMP JUMPDEST SWAP2 POP POP SWAP3 POP SWAP3 POP SWAP3 JUMP JUMPDEST PUSH32 0x4E6F20706F6C6C20666F756E6400000000000000000000000000000000000000 PUSH1 0x0 DUP3 ADD MSTORE POP JUMP JUMPDEST PUSH1 0x0 PUSH2 0xF02 PUSH1 0xD DUP4 PUSH2 0x942 JUMP JUMPDEST SWAP2 POP PUSH2 0xF0D DUP3 PUSH2 0xECC JUMP JUMPDEST PUSH1 0x20 DUP3 ADD SWAP1 POP SWAP2 SWAP1 POP JUMP JUMPDEST PUSH1 0x0 PUSH1 0x20 DUP3 ADD SWAP1 POP DUP2 DUP2 SUB PUSH1 0x0 DUP4 ADD MSTORE PUSH2 0xF31 DUP2 PUSH2 0xEF5 JUMP JUMPDEST SWAP1 POP SWAP2 SWAP1 POP JUMP JUMPDEST PUSH32 0x4E487B7100000000000000000000000000000000000000000000000000000000 PUSH1 0x0 MSTORE PUSH1 0x32 PUSH1 0x4 MSTORE PUSH1 0x24 PUSH1 0x0 REVERT JUMPDEST PUSH32 0x4E487B7100000000000000000000000000000000000000000000000000000000 PUSH1 0x0 MSTORE PUSH1 0x22 PUSH1 0x4 MSTORE PUSH1 0x24 PUSH1 0x0 REVERT JUMPDEST PUSH1 0x0 PUSH1 0x2 DUP3 DIV SWAP1 POP PUSH1 0x1 DUP3 AND DUP1 PUSH2 0xFAE JUMPI PUSH1 0x7F DUP3 AND SWAP2 POP JUMPDEST PUSH1 0x20 DUP3 LT DUP2 SUB PUSH2 0xFC1 JUMPI PUSH2 0xFC0 PUSH2 0xF67 JUMP JUMPDEST JUMPDEST POP SWAP2 SWAP1 POP JUMP JUMPDEST PUSH32 0x496E76616C696420766F74650000000000000000000000000000000000000000 PUSH1 0x0 DUP3 ADD MSTORE POP JUMP JUMPDEST PUSH1 0x0 PUSH2 0xFFD PUSH1 0xC DUP4 PUSH2 0x942 JUMP JUMPDEST SWAP2 POP PUSH2 0x1008 DUP3 PUSH2 0xFC7 JUMP JUMPDEST PUSH1 0x20 DUP3 ADD SWAP1 POP SWAP2 SWAP1 POP JUMP JUMPDEST PUSH1 0x0 PUSH1 0x20 DUP3 ADD SWAP1 POP DUP2 DUP2 SUB PUSH1 0x0 DUP4 ADD MSTORE PUSH2 0x102C DUP2 PUSH2 0xFF0 JUMP JUMPDEST SWAP1 POP SWAP2 SWAP1 POP JUMP JUMPDEST PUSH32 0x596F7520616C726561647920766F746564000000000000000000000000000000 PUSH1 0x0 DUP3 ADD MSTORE POP JUMP JUMPDEST PUSH1 0x0 PUSH2 0x1069 PUSH1 0x11 DUP4 PUSH2 0x942 JUMP JUMPDEST SWAP2 POP PUSH2 0x1074 DUP3 PUSH2 0x1033 JUMP JUMPDEST PUSH1 0x20 DUP3 ADD SWAP1 POP SWAP2 SWAP1 POP JUMP JUMPDEST PUSH1 0x0 PUSH1 0x20 DUP3 ADD SWAP1 POP DUP2 DUP2 SUB PUSH1 0x0 DUP4 ADD MSTORE PUSH2 0x1098 DUP2 PUSH2 0x105C JUMP JUMPDEST SWAP1 POP SWAP2 SWAP1 POP JUMP JUMPDEST PUSH32 0x456D707479207175657374696F6E000000000000000000000000000000000000 PUSH1 0x0 DUP3 ADD MSTORE POP JUMP JUMPDEST PUSH1 0x0 PUSH2 0x10D5 PUSH1 0xE DUP4 PUSH2 0x942 JUMP JUMPDEST SWAP2 POP PUSH2 0x10E0 DUP3 PUSH2 0x109F JUMP JUMPDEST PUSH1 0x20 DUP3 ADD SWAP1 POP SWAP2 SWAP1 POP JUMP JUMPDEST PUSH1 0x0 PUSH1 0x20 DUP3 ADD SWAP1 POP DUP2 DUP2 SUB PUSH1 0x0 DUP4 ADD MSTORE PUSH2 0x1104 DUP2 PUSH2 0x10C8 JUMP JUMPDEST SWAP1 POP SWAP2 SWAP1 POP JUMP JUMPDEST PUSH32 0x4174206C656173742032206F7074696F6E732072657175697265640000000000 PUSH1 0x0 DUP3 ADD MSTORE POP JUMP JUMPDEST PUSH1 0x0 PUSH2 0x1141 PUSH1 0x1B DUP4 PUSH2 0x942 JUMP JUMPDEST SWAP2 POP PUSH2 0x114C DUP3 PUSH2 0x110B JUMP JUMPDEST PUSH1 0x20 DUP3 ADD SWAP1 POP SWAP2 SWAP1 POP JUMP JUMPDEST PUSH1 0x0 PUSH1 0x20 DUP3 ADD SWAP1 POP DUP2 DUP2 SUB PUSH1 0x0 DUP4 ADD MSTORE PUSH2 0x1170 DUP2 PUSH2 0x1134 JUMP JUMPDEST SWAP1 POP SWAP2 SWAP1 POP JUMP JUMPDEST PUSH1 0x0 DUP2 SWAP1 POP DUP2 PUSH1 0x0 MSTORE PUSH1 0x20 PUSH1 0x0 KECCAK256 SWAP1 POP SWAP2 SWAP1 POP JUMP JUMPDEST PUSH1 0x0 PUSH1 0x20 PUSH1 0x1F DUP4 ADD DIV SWAP1 POP SWAP2 SWAP1 POP JUMP JUMPDEST PUSH1 0x0 DUP3 DUP3 SHL SWAP1 POP SWAP3 SWAP2 POP POP JUMP JUMPDEST PUSH1 0x0 PUSH1 0x8 DUP4 MUL PUSH2 0x11D9 PUSH32 0xFFFFFFFFFFFFFFFFFFFFFFFFFFFFFFFFFFFFFFFFFFFFFFFFFFFFFFFFFFFFFFFF DUP3 PUSH2 0x119C JUMP JUMPDEST PUSH2 0x11E3 DUP7 DUP4 PUSH2 0x119C JUMP JUMPDEST SWAP6 POP DUP1 NOT DUP5 AND SWAP4 POP DUP1 DUP7 AND DUP5 OR SWAP3 POP POP POP SWAP4 SWAP3 POP POP POP JUMP JUMPDEST PUSH1 0x0 DUP2 SWAP1 POP SWAP2 SWAP1 POP JUMP JUMPDEST PUSH1 0x0 PUSH2 0x1220 PUSH2 0x121B PUSH2 0x1216 DUP5 PUSH2 0x91E JUMP JUMPDEST PUSH2 0x11FB JUMP JUMPDEST PUSH2 0x91E JUMP JUMPDEST SWAP1 POP SWAP2 SWAP1 POP JUMP JUMPDEST PUSH1 0x0 DUP2 SWAP1 POP SWAP2 SWAP1 POP JUMP JUMPDEST PUSH2 0x123A DUP4 PUSH2 0x1205 JUMP JUMPDEST PUSH2 0x124E PUSH2 0x1246 DUP3 PUSH2 0x1227 JUMP JUMPDEST DUP5 DUP5 SLOAD PUSH2 0x11A9 JUMP JUMPDEST DUP3 SSTORE POP POP POP POP JUMP JUMPDEST PUSH1 0x0 SWAP1 JUMP JUMPDEST PUSH2 0x1263 PUSH2 0x1256 JUMP JUMPDEST PUSH2 0x126E DUP2 DUP5 DUP5 PUSH2 0x1231 JUMP JUMPDEST POP POP POP JUMP JUMPDEST JUMPDEST DUP2 DUP2 LT ISZERO PUSH2 0x1292 JUMPI PUSH2 0x1287 PUSH1 0x0 DUP3 PUSH2 0x125B JUMP JUMPDEST PUSH1 0x1 DUP2 ADD SWAP1 POP PUSH2 0x1274 JUMP JUMPDEST POP POP JUMP JUMPDEST PUSH1 0x1F DUP3 GT ISZERO PUSH2 0x12D7 JUMPI PUSH2 0x12A8 DUP2 PUSH2 0x1177 JUMP JUMPDEST PUSH2 0x12B1 DUP5 PUSH2 0x118C JUMP JUMPDEST DUP2 ADD PUSH1 0x20 DUP6 LT ISZERO PUSH2 0x12C0 JUMPI DUP2 SWAP1 POP JUMPDEST PUSH2 0x12D4 PUSH2 0x12CC DUP6 PUSH2 0x118C JUMP JUMPDEST DUP4 ADD DUP3 PUSH2 0x1273 JUMP JUMPDEST POP POP JUMPDEST POP POP POP JUMP JUMPDEST PUSH1 0x0 DUP3 DUP3 SHR SWAP1 POP SWAP3 SWAP2 POP POP JUMP JUMPDEST PUSH1 0x0 PUSH2 0x12FA PUSH1 0x0 NOT DUP5 PUSH1 0x8 MUL PUSH2 0x12DC JUMP JUMPDEST NOT DUP1 DUP4 AND SWAP2 POP POP SWAP3 SWAP2 POP POP JUMP JUMPDEST PUSH1 0x0 PUSH2 0x1313 DUP4 DUP4 PUSH2 0x12E9 JUMP JUMPDEST SWAP2 POP DUP3 PUSH1 0x2 MUL DUP3 OR SWAP1 POP SWAP3 SWAP2 POP POP JUMP JUMPDEST PUSH2 0x132C DUP3 PUSH2 0x937 JUMP JUMPDEST PUSH8 0xFFFFFFFFFFFFFFFF DUP2 GT ISZERO PUSH2 0x1345 JUMPI PUSH2 0x1344 PUSH2 0xC06 JUMP JUMPDEST JUMPDEST PUSH2 0x134F DUP3 SLOAD PUSH2 0xF96 JUMP JUMPDEST PUSH2 0x135A DUP3 DUP3 DUP6 PUSH2 0x1296 JUMP JUMPDEST PUSH1 0x0 PUSH1 0x20 SWAP1 POP PUSH1 0x1F DUP4 GT PUSH1 0x1 DUP2 EQ PUSH2 0x138D JUMPI PUSH1 0x0 DUP5 ISZERO PUSH2 0x137B JUMPI DUP3 DUP8 ADD MLOAD SWAP1 POP JUMPDEST PUSH2 0x1385 DUP6 DUP3 PUSH2 0x1307 JUMP JUMPDEST DUP7 SSTORE POP PUSH2 0x13ED JUMP JUMPDEST PUSH1 0x1F NOT DUP5 AND PUSH2 0x139B DUP7 PUSH2 0x1177 JUMP JUMPDEST PUSH1 0x0 JUMPDEST DUP3 DUP2 LT ISZERO PUSH2 0x13C3 JUMPI DUP5 DUP10 ADD MLOAD DUP3 SSTORE PUSH1 0x1 DUP3 ADD SWAP2 POP PUSH1 0x20 DUP6 ADD SWAP5 POP PUSH1 0x20 DUP2 ADD SWAP1 POP PUSH2 0x139E JUMP JUMPDEST DUP7 DUP4 LT ISZERO PUSH2 0x13E0 JUMPI DUP5 DUP10 ADD MLOAD PUSH2 0x13DC PUSH1 0x1F DUP10 AND DUP3 PUSH2 0x12E9 JUMP JUMPDEST DUP4 SSTORE POP JUMPDEST PUSH1 0x1 PUSH1 0x2 DUP9 MUL ADD DUP9 SSTORE POP POP POP JUMPDEST POP POP POP POP POP POP JUMP INVALID LOG2 PUSH5 0x6970667358 0x22 SLT KECCAK256 CALLDATASIZE 0x29 0xCB 0xC6 0x1F CODECOPY EXP 0x4D SELFDESTRUCT 0xDB BALANCE SWAP13 0xB8 PUSH27 0xAD36241A1B3ECDCA9E2ECAC0A933735AF69D64736F6C6343000810 STOP CALLER "
				},
				"gasEstimates": {
					"creation": {
						"codeDepositCost": "1032600",
						"executionCost": "1074",
						"totalCost": "1033674"
					},
					"external": {
						"createPoll(string,string,bytes32[])": "infinite",
						"getPoll(uint64)": "infinite",
						"vote(uint64,uint64)": "infinite"
					}
				},
				"methodIdentifiers": {
					"createPoll(string,string,bytes32[])": "7ba91041",
					"getPoll(uint64)": "157bd75d",
					"vote(uint64,uint64)": "3d51e9d9"
				}
			},
			"storageLayout": {
				"storage": [
					{
						"astId": 28,
						"contract": "poll.sol:PollContract",
						"label": "polls",
						"offset": 0,
						"slot": "0",
						"type": "t_array(t_struct(Poll)14_storage)dyn_storage"
					},
					{
						"astId": 33,
						"contract": "poll.sol:PollContract",
						"label": "voters",
						"offset": 0,
						"slot": "1",
						"type": "t_mapping(t_address,t_struct(Voter)24_storage)"
					}
				],
				"types": {
					"t_address": {
						"encoding": "inplace",
						"label": "address",
						"numberOfBytes": "20"
					},
					"t_array(t_bytes32)dyn_storage": {
						"base": "t_bytes32",
						"encoding": "dynamic_array",
						"label": "bytes32[]",
						"numberOfBytes": "32"
					},
					"t_array(t_struct(Poll)14_storage)dyn_storage": {
						"base": "t_struct(Poll)14_storage",
						"encoding": "dynamic_array",
						"label": "struct PollContract.Poll[]",
						"numberOfBytes": "32"
					},
					"t_array(t_uint256)dyn_storage": {
						"base": "t_uint256",
						"encoding": "dynamic_array",
						"label": "uint256[]",
						"numberOfBytes": "32"
					},
					"t_array(t_uint64)dyn_storage": {
						"base": "t_uint64",
						"encoding": "dynamic_array",
						"label": "uint64[]",
						"numberOfBytes": "32"
					},
					"t_bool": {
						"encoding": "inplace",
						"label": "bool",
						"numberOfBytes": "1"
					},
					"t_bytes32": {
						"encoding": "inplace",
						"label": "bytes32",
						"numberOfBytes": "32"
					},
					"t_mapping(t_address,t_struct(Voter)24_storage)": {
						"encoding": "mapping",
						"key": "t_address",
						"label": "mapping(address => struct PollContract.Voter)",
						"numberOfBytes": "32",
						"value": "t_struct(Voter)24_storage"
					},
					"t_mapping(t_uint256,t_bool)": {
						"encoding": "mapping",
						"key": "t_uint256",
						"label": "mapping(uint256 => bool)",
						"numberOfBytes": "32",
						"value": "t_bool"
					},
					"t_string_storage": {
						"encoding": "bytes",
						"label": "string",
						"numberOfBytes": "32"
					},
					"t_struct(Poll)14_storage": {
						"encoding": "inplace",
						"label": "struct PollContract.Poll",
						"members": [
							{
								"astId": 3,
								"contract": "poll.sol:PollContract",
								"label": "id",
								"offset": 0,
								"slot": "0",
								"type": "t_uint256"
							},
							{
								"astId": 5,
								"contract": "poll.sol:PollContract",
								"label": "question",
								"offset": 0,
								"slot": "1",
								"type": "t_string_storage"
							},
							{
								"astId": 7,
								"contract": "poll.sol:PollContract",
								"label": "thumbnail",
								"offset": 0,
								"slot": "2",
								"type": "t_string_storage"
							},
							{
								"astId": 10,
								"contract": "poll.sol:PollContract",
								"label": "votes",
								"offset": 0,
								"slot": "3",
								"type": "t_array(t_uint64)dyn_storage"
							},
							{
								"astId": 13,
								"contract": "poll.sol:PollContract",
								"label": "options",
								"offset": 0,
								"slot": "4",
								"type": "t_array(t_bytes32)dyn_storage"
							}
						],
						"numberOfBytes": "160"
					},
					"t_struct(Voter)24_storage": {
						"encoding": "inplace",
						"label": "struct PollContract.Voter",
						"members": [
							{
								"astId": 16,
								"contract": "poll.sol:PollContract",
								"label": "id",
								"offset": 0,
								"slot": "0",
								"type": "t_address"
							},
							{
								"astId": 19,
								"contract": "poll.sol:PollContract",
								"label": "votedIds",
								"offset": 0,
								"slot": "1",
								"type": "t_array(t_uint256)dyn_storage"
							},
							{
								"astId": 23,
								"contract": "poll.sol:PollContract",
								"label": "votedMap",
								"offset": 0,
								"slot": "2",
								"type": "t_mapping(t_uint256,t_bool)"
							}
						],
						"numberOfBytes": "96"
					},
					"t_uint256": {
						"encoding": "inplace",
						"label": "uint256",
						"numberOfBytes": "32"
					},
					"t_uint64": {
						"encoding": "inplace",
						"label": "uint64",
						"numberOfBytes": "8"
					}
				}
			},
			"userdoc": {
				"kind": "user",
				"methods": {},
				"version": 1
			}
		}
	}
}