{
	"poll.sol": {
		"PollContract": {
			"abi": [
				{
					"inputs": [
						{
							"internalType": "string",
							"name": "_question",
							"type": "string"
						},
						{
							"internalType": "string",
							"name": "_thumb",
							"type": "string"
						},
						{
							"internalType": "bytes32[]",
							"name": "_options",
							"type": "bytes32[]"
						}
					],
					"name": "createPoll",
					"outputs": [],
					"stateMutability": "nonpayable",
					"type": "function"
				}
			],
			"devdoc": {
				"kind": "dev",
				"methods": {},
				"version": 1
			},
			"evm": {
				"assembly": "    /* \"poll.sol\":26:925  contract PollContract {... */\n  mstore(0x40, 0x80)\n  callvalue\n  dup1\n  iszero\n  tag_1\n  jumpi\n  0x00\n  dup1\n  revert\ntag_1:\n  pop\n  dataSize(sub_0)\n  dup1\n  dataOffset(sub_0)\n  0x00\n  codecopy\n  0x00\n  return\nstop\n\nsub_0: assembly {\n        /* \"poll.sol\":26:925  contract PollContract {... */\n      mstore(0x40, 0x80)\n      callvalue\n      dup1\n      iszero\n      tag_1\n      jumpi\n      0x00\n      dup1\n      revert\n    tag_1:\n      pop\n      jumpi(tag_2, lt(calldatasize, 0x04))\n      shr(0xe0, calldataload(0x00))\n      dup1\n      0x7ba91041\n      eq\n      tag_3\n      jumpi\n    tag_2:\n      0x00\n      dup1\n      revert\n        /* \"poll.sol\":393:923  function createPoll(string memory _question, string memory _thumb, bytes32[] memory _options) public  {... */\n    tag_3:\n      tag_4\n      0x04\n      dup1\n      calldatasize\n      sub\n      dup2\n      add\n      swap1\n      tag_5\n      swap2\n      swap1\n      tag_6\n      jump\t// in\n    tag_5:\n      tag_7\n      jump\t// in\n    tag_4:\n      stop\n    tag_7:\n        /* \"poll.sol\":539:540  0 */\n      0x00\n        /* \"poll.sol\":519:528  _question */\n      dup4\n        /* \"poll.sol\":513:536  bytes(_question).length */\n      mload\n        /* \"poll.sol\":513:540  bytes(_question).length > 0 */\n      gt\n        /* \"poll.sol\":505:559  require(bytes(_question).length > 0, \"Empty question\") */\n      tag_9\n      jumpi\n      mload(0x40)\n      0x08c379a000000000000000000000000000000000000000000000000000000000\n      dup2\n      mstore\n      0x04\n      add\n      tag_10\n      swap1\n      tag_11\n      jump\t// in\n    tag_10:\n      mload(0x40)\n      dup1\n      swap2\n      sub\n      swap1\n      revert\n    tag_9:\n        /* \"poll.sol\":595:596  1 */\n      0x01\n        /* \"poll.sol\":577:585  _options */\n      dup2\n        /* \"poll.sol\":577:592  _options.length */\n      mload\n        /* \"poll.sol\":577:596  _options.length > 1 */\n      gt\n        /* \"poll.sol\":569:628  require(_options.length > 1, \"At least 2 options required\") */\n      tag_12\n      jumpi\n      mload(0x40)\n      0x08c379a000000000000000000000000000000000000000000000000000000000\n      dup2\n      mstore\n      0x04\n      add\n      tag_13\n      swap1\n      tag_14\n      jump\t// in\n    tag_13:\n      mload(0x40)\n      dup1\n      swap2\n      sub\n      swap1\n      revert\n    tag_12:\n        /* \"poll.sol\":639:653  uint256 pollId */\n      0x00\n        /* \"poll.sol\":656:661  polls */\n      dup1\n        /* \"poll.sol\":656:668  polls.length */\n      dup1\n      sload\n      swap1\n      pop\n        /* \"poll.sol\":639:668  uint256 pollId = polls.length */\n      swap1\n      pop\n        /* \"poll.sol\":679:698  Poll memory newPoll */\n      0x00\n        /* \"poll.sol\":701:886  Poll({... */\n      mload(0x40)\n      dup1\n      0xa0\n      add\n      0x40\n      mstore\n      dup1\n        /* \"poll.sol\":724:730  pollId */\n      dup4\n        /* \"poll.sol\":701:886  Poll({... */\n      dup2\n      mstore\n      0x20\n      add\n        /* \"poll.sol\":754:763  _question */\n      dup7\n        /* \"poll.sol\":701:886  Poll({... */\n      dup2\n      mstore\n      0x20\n      add\n        /* \"poll.sol\":788:794  _thumb */\n      dup6\n        /* \"poll.sol\":701:886  Poll({... */\n      dup2\n      mstore\n      0x20\n      add\n        /* \"poll.sol\":859:867  _options */\n      dup5\n        /* \"poll.sol\":859:874  _options.length */\n      mload\n        /* \"poll.sol\":846:875  new uint64[](_options.length) */\n      0xffffffffffffffff\n      dup2\n      gt\n      iszero\n      tag_15\n      jumpi\n      tag_16\n      tag_17\n      jump\t// in\n    tag_16:\n    tag_15:\n      mload(0x40)\n      swap1\n      dup1\n      dup3\n      mstore\n      dup1\n      0x20\n      mul\n      0x20\n      add\n      dup3\n      add\n      0x40\n      mstore\n      dup1\n      iszero\n      tag_18\n      jumpi\n      dup2\n      0x20\n      add\n      0x20\n      dup3\n      mul\n      dup1\n      calldatasize\n      dup4\n      calldatacopy\n      dup1\n      dup3\n      add\n      swap2\n      pop\n      pop\n      swap1\n      pop\n    tag_18:\n      pop\n        /* \"poll.sol\":701:886  Poll({... */\n      dup2\n      mstore\n      0x20\n      add\n        /* \"poll.sol\":817:825  _options */\n      dup5\n        /* \"poll.sol\":701:886  Poll({... */\n      dup2\n      mstore\n      pop\n        /* \"poll.sol\":679:886  Poll memory newPoll = Poll({... */\n      swap1\n      pop\n        /* \"poll.sol\":897:902  polls */\n      0x00\n        /* \"poll.sol\":908:915  newPoll */\n      dup2\n        /* \"poll.sol\":897:916  polls.push(newPoll) */\n      swap1\n      dup1\n      0x01\n      dup2\n      sload\n      add\n      dup1\n      dup3\n      sstore\n      dup1\n      swap2\n      pop\n      pop\n      0x01\n      swap1\n      sub\n      swap1\n      0x00\n      mstore\n      keccak256(0x00, 0x20)\n      swap1\n      0x05\n      mul\n      add\n      0x00\n      swap1\n      swap2\n      swap1\n      swap2\n      swap1\n      swap2\n      pop\n      0x00\n      dup3\n      add\n      mload\n      dup2\n      0x00\n      add\n      sstore\n      0x20\n      dup3\n      add\n      mload\n      dup2\n      0x01\n      add\n      swap1\n      dup2\n      tag_20\n      swap2\n      swap1\n      tag_21\n      jump\t// in\n    tag_20:\n      pop\n      0x40\n      dup3\n      add\n      mload\n      dup2\n      0x02\n      add\n      swap1\n      dup2\n      tag_22\n      swap2\n      swap1\n      tag_21\n      jump\t// in\n    tag_22:\n      pop\n      0x60\n      dup3\n      add\n      mload\n      dup2\n      0x03\n      add\n      swap1\n      dup1\n      mload\n      swap1\n      0x20\n      add\n      swap1\n      tag_23\n      swap3\n      swap2\n      swap1\n      tag_24\n      jump\t// in\n    tag_23:\n      pop\n      0x80\n      dup3\n      add\n      mload\n      dup2\n      0x04\n      add\n      swap1\n      dup1\n      mload\n      swap1\n      0x20\n      add\n      swap1\n      tag_25\n      swap3\n      swap2\n      swap1\n      tag_26\n      jump\t// in\n    tag_25:\n      pop\n      pop\n      pop\n        /* \"poll.sol\":495:923  {... */\n      pop\n      pop\n        /* \"poll.sol\":393:923  function createPoll(string memory _question, string memory _thumb, bytes32[] memory _options) public  {... */\n      pop\n      pop\n      pop\n      jump\t// out\n    tag_24:\n      dup3\n      dup1\n      sload\n      dup3\n      dup3\n      sstore\n      swap1\n      0x00\n      mstore\n      keccak256(0x00, 0x20)\n      swap1\n      0x03\n      add\n      0x04\n      swap1\n      div\n      dup2\n      add\n      swap3\n      dup3\n      iszero\n      tag_27\n      jumpi\n      swap2\n      0x20\n      mul\n      dup3\n      add\n      0x00\n    tag_28:\n      dup4\n      dup3\n      gt\n      iszero\n      tag_29\n      jumpi\n      dup4\n      mload\n      dup4\n      dup3\n      0x0100\n      exp\n      dup2\n      sload\n      dup2\n      0xffffffffffffffff\n      mul\n      not\n      and\n      swap1\n      dup4\n      0xffffffffffffffff\n      and\n      mul\n      or\n      swap1\n      sstore\n      pop\n      swap3\n      0x20\n      add\n      swap3\n      0x08\n      add\n      0x20\n      dup2\n      0x07\n      add\n      div\n      swap3\n      dup4\n      add\n      swap3\n      0x01\n      sub\n      mul\n      jump(tag_28)\n    tag_29:\n      dup1\n      iszero\n      tag_30\n      jumpi\n      dup3\n      dup2\n      0x0100\n      exp\n      dup2\n      sload\n      swap1\n      0xffffffffffffffff\n      mul\n      not\n      and\n      swap1\n      sstore\n      0x08\n      add\n      0x20\n      dup2\n      0x07\n      add\n      div\n      swap3\n      dup4\n      add\n      swap3\n      0x01\n      sub\n      mul\n      jump(tag_29)\n    tag_30:\n      pop\n    tag_27:\n      pop\n      swap1\n      pop\n      tag_31\n      swap2\n      swap1\n      tag_32\n      jump\t// in\n    tag_31:\n      pop\n      swap1\n      jump\t// out\n    tag_26:\n      dup3\n      dup1\n      sload\n      dup3\n      dup3\n      sstore\n      swap1\n      0x00\n      mstore\n      keccak256(0x00, 0x20)\n      swap1\n      dup2\n      add\n      swap3\n      dup3\n      iszero\n      tag_33\n      jumpi\n      swap2\n      0x20\n      mul\n      dup3\n      add\n    tag_34:\n      dup3\n      dup2\n      gt\n      iszero\n      tag_35\n      jumpi\n      dup3\n      mload\n      dup3\n      sstore\n      swap2\n      0x20\n      add\n      swap2\n      swap1\n      0x01\n      add\n      swap1\n      jump(tag_34)\n    tag_35:\n    tag_33:\n      pop\n      swap1\n      pop\n      tag_36\n      swap2\n      swap1\n      tag_37\n      jump\t// in\n    tag_36:\n      pop\n      swap1\n      jump\t// out\n    tag_32:\n    tag_38:\n      dup1\n      dup3\n      gt\n      iszero\n      tag_39\n      jumpi\n      0x00\n      dup2\n      0x00\n      swap1\n      sstore\n      pop\n      0x01\n      add\n      jump(tag_38)\n    tag_39:\n      pop\n      swap1\n      jump\t// out\n    tag_37:\n    tag_40:\n      dup1\n      dup3\n      gt\n      iszero\n      tag_41\n      jumpi\n      0x00\n      dup2\n      0x00\n      swap1\n      sstore\n      pop\n      0x01\n      add\n      jump(tag_40)\n    tag_41:\n      pop\n      swap1\n      jump\t// out\n        /* \"#utility.yul\":7:82   */\n    tag_42:\n        /* \"#utility.yul\":40:46   */\n      0x00\n        /* \"#utility.yul\":73:75   */\n      0x40\n        /* \"#utility.yul\":67:76   */\n      mload\n        /* \"#utility.yul\":57:76   */\n      swap1\n      pop\n        /* \"#utility.yul\":7:82   */\n      swap1\n      jump\t// out\n        /* \"#utility.yul\":88:205   */\n    tag_43:\n        /* \"#utility.yul\":197:198   */\n      0x00\n        /* \"#utility.yul\":194:195   */\n      dup1\n        /* \"#utility.yul\":187:199   */\n      revert\n        /* \"#utility.yul\":211:328   */\n    tag_44:\n        /* \"#utility.yul\":320:321   */\n      0x00\n        /* \"#utility.yul\":317:318   */\n      dup1\n        /* \"#utility.yul\":310:322   */\n      revert\n        /* \"#utility.yul\":334:451   */\n    tag_45:\n        /* \"#utility.yul\":443:444   */\n      0x00\n        /* \"#utility.yul\":440:441   */\n      dup1\n        /* \"#utility.yul\":433:445   */\n      revert\n        /* \"#utility.yul\":457:574   */\n    tag_46:\n        /* \"#utility.yul\":566:567   */\n      0x00\n        /* \"#utility.yul\":563:564   */\n      dup1\n        /* \"#utility.yul\":556:568   */\n      revert\n        /* \"#utility.yul\":580:682   */\n    tag_47:\n        /* \"#utility.yul\":621:627   */\n      0x00\n        /* \"#utility.yul\":672:674   */\n      0x1f\n        /* \"#utility.yul\":668:675   */\n      not\n        /* \"#utility.yul\":663:665   */\n      0x1f\n        /* \"#utility.yul\":656:661   */\n      dup4\n        /* \"#utility.yul\":652:666   */\n      add\n        /* \"#utility.yul\":648:676   */\n      and\n        /* \"#utility.yul\":638:676   */\n      swap1\n      pop\n        /* \"#utility.yul\":580:682   */\n      swap2\n      swap1\n      pop\n      jump\t// out\n        /* \"#utility.yul\":688:868   */\n    tag_17:\n        /* \"#utility.yul\":736:813   */\n      0x4e487b7100000000000000000000000000000000000000000000000000000000\n        /* \"#utility.yul\":733:734   */\n      0x00\n        /* \"#utility.yul\":726:814   */\n      mstore\n        /* \"#utility.yul\":833:837   */\n      0x41\n        /* \"#utility.yul\":830:831   */\n      0x04\n        /* \"#utility.yul\":823:838   */\n      mstore\n        /* \"#utility.yul\":857:861   */\n      0x24\n        /* \"#utility.yul\":854:855   */\n      0x00\n        /* \"#utility.yul\":847:862   */\n      revert\n        /* \"#utility.yul\":874:1155   */\n    tag_48:\n        /* \"#utility.yul\":957:984   */\n      tag_94\n        /* \"#utility.yul\":979:983   */\n      dup3\n        /* \"#utility.yul\":957:984   */\n      tag_47\n      jump\t// in\n    tag_94:\n        /* \"#utility.yul\":949:955   */\n      dup2\n        /* \"#utility.yul\":945:985   */\n      add\n        /* \"#utility.yul\":1087:1093   */\n      dup2\n        /* \"#utility.yul\":1075:1085   */\n      dup2\n        /* \"#utility.yul\":1072:1094   */\n      lt\n        /* \"#utility.yul\":1051:1069   */\n      0xffffffffffffffff\n        /* \"#utility.yul\":1039:1049   */\n      dup3\n        /* \"#utility.yul\":1036:1070   */\n      gt\n        /* \"#utility.yul\":1033:1095   */\n      or\n        /* \"#utility.yul\":1030:1118   */\n      iszero\n      tag_95\n      jumpi\n        /* \"#utility.yul\":1098:1116   */\n      tag_96\n      tag_17\n      jump\t// in\n    tag_96:\n        /* \"#utility.yul\":1030:1118   */\n    tag_95:\n        /* \"#utility.yul\":1138:1148   */\n      dup1\n        /* \"#utility.yul\":1134:1136   */\n      0x40\n        /* \"#utility.yul\":1127:1149   */\n      mstore\n        /* \"#utility.yul\":917:1155   */\n      pop\n        /* \"#utility.yul\":874:1155   */\n      pop\n      pop\n      jump\t// out\n        /* \"#utility.yul\":1161:1290   */\n    tag_49:\n        /* \"#utility.yul\":1195:1201   */\n      0x00\n        /* \"#utility.yul\":1222:1242   */\n      tag_98\n      tag_42\n      jump\t// in\n    tag_98:\n        /* \"#utility.yul\":1212:1242   */\n      swap1\n      pop\n        /* \"#utility.yul\":1251:1284   */\n      tag_99\n        /* \"#utility.yul\":1279:1283   */\n      dup3\n        /* \"#utility.yul\":1271:1277   */\n      dup3\n        /* \"#utility.yul\":1251:1284   */\n      tag_48\n      jump\t// in\n    tag_99:\n        /* \"#utility.yul\":1161:1290   */\n      swap2\n      swap1\n      pop\n      jump\t// out\n        /* \"#utility.yul\":1296:1604   */\n    tag_50:\n        /* \"#utility.yul\":1358:1362   */\n      0x00\n        /* \"#utility.yul\":1448:1466   */\n      0xffffffffffffffff\n        /* \"#utility.yul\":1440:1446   */\n      dup3\n        /* \"#utility.yul\":1437:1467   */\n      gt\n        /* \"#utility.yul\":1434:1490   */\n      iszero\n      tag_101\n      jumpi\n        /* \"#utility.yul\":1470:1488   */\n      tag_102\n      tag_17\n      jump\t// in\n    tag_102:\n        /* \"#utility.yul\":1434:1490   */\n    tag_101:\n        /* \"#utility.yul\":1508:1537   */\n      tag_103\n        /* \"#utility.yul\":1530:1536   */\n      dup3\n        /* \"#utility.yul\":1508:1537   */\n      tag_47\n      jump\t// in\n    tag_103:\n        /* \"#utility.yul\":1500:1537   */\n      swap1\n      pop\n        /* \"#utility.yul\":1592:1596   */\n      0x20\n        /* \"#utility.yul\":1586:1590   */\n      dup2\n        /* \"#utility.yul\":1582:1597   */\n      add\n        /* \"#utility.yul\":1574:1597   */\n      swap1\n      pop\n        /* \"#utility.yul\":1296:1604   */\n      swap2\n      swap1\n      pop\n      jump\t// out\n        /* \"#utility.yul\":1610:1756   */\n    tag_51:\n        /* \"#utility.yul\":1707:1713   */\n      dup3\n        /* \"#utility.yul\":1702:1705   */\n      dup2\n        /* \"#utility.yul\":1697:1700   */\n      dup4\n        /* \"#utility.yul\":1684:1714   */\n      calldatacopy\n        /* \"#utility.yul\":1748:1749   */\n      0x00\n        /* \"#utility.yul\":1739:1745   */\n      dup4\n        /* \"#utility.yul\":1734:1737   */\n      dup4\n        /* \"#utility.yul\":1730:1746   */\n      add\n        /* \"#utility.yul\":1723:1750   */\n      mstore\n        /* \"#utility.yul\":1610:1756   */\n      pop\n      pop\n      pop\n      jump\t// out\n        /* \"#utility.yul\":1762:2187   */\n    tag_52:\n        /* \"#utility.yul\":1840:1845   */\n      0x00\n        /* \"#utility.yul\":1865:1931   */\n      tag_106\n        /* \"#utility.yul\":1881:1930   */\n      tag_107\n        /* \"#utility.yul\":1923:1929   */\n      dup5\n        /* \"#utility.yul\":1881:1930   */\n      tag_50\n      jump\t// in\n    tag_107:\n        /* \"#utility.yul\":1865:1931   */\n      tag_49\n      jump\t// in\n    tag_106:\n        /* \"#utility.yul\":1856:1931   */\n      swap1\n      pop\n        /* \"#utility.yul\":1954:1960   */\n      dup3\n        /* \"#utility.yul\":1947:1952   */\n      dup2\n        /* \"#utility.yul\":1940:1961   */\n      mstore\n        /* \"#utility.yul\":1992:1996   */\n      0x20\n        /* \"#utility.yul\":1985:1990   */\n      dup2\n        /* \"#utility.yul\":1981:1997   */\n      add\n        /* \"#utility.yul\":2030:2033   */\n      dup5\n        /* \"#utility.yul\":2021:2027   */\n      dup5\n        /* \"#utility.yul\":2016:2019   */\n      dup5\n        /* \"#utility.yul\":2012:2028   */\n      add\n        /* \"#utility.yul\":2009:2034   */\n      gt\n        /* \"#utility.yul\":2006:2118   */\n      iszero\n      tag_108\n      jumpi\n        /* \"#utility.yul\":2037:2116   */\n      tag_109\n      tag_46\n      jump\t// in\n    tag_109:\n        /* \"#utility.yul\":2006:2118   */\n    tag_108:\n        /* \"#utility.yul\":2127:2181   */\n      tag_110\n        /* \"#utility.yul\":2174:2180   */\n      dup5\n        /* \"#utility.yul\":2169:2172   */\n      dup3\n        /* \"#utility.yul\":2164:2167   */\n      dup6\n        /* \"#utility.yul\":2127:2181   */\n      tag_51\n      jump\t// in\n    tag_110:\n        /* \"#utility.yul\":1846:2187   */\n      pop\n        /* \"#utility.yul\":1762:2187   */\n      swap4\n      swap3\n      pop\n      pop\n      pop\n      jump\t// out\n        /* \"#utility.yul\":2207:2547   */\n    tag_53:\n        /* \"#utility.yul\":2263:2268   */\n      0x00\n        /* \"#utility.yul\":2312:2315   */\n      dup3\n        /* \"#utility.yul\":2305:2309   */\n      0x1f\n        /* \"#utility.yul\":2297:2303   */\n      dup4\n        /* \"#utility.yul\":2293:2310   */\n      add\n        /* \"#utility.yul\":2289:2316   */\n      slt\n        /* \"#utility.yul\":2279:2401   */\n      tag_112\n      jumpi\n        /* \"#utility.yul\":2320:2399   */\n      tag_113\n      tag_45\n      jump\t// in\n    tag_113:\n        /* \"#utility.yul\":2279:2401   */\n    tag_112:\n        /* \"#utility.yul\":2437:2443   */\n      dup2\n        /* \"#utility.yul\":2424:2444   */\n      calldataload\n        /* \"#utility.yul\":2462:2541   */\n      tag_114\n        /* \"#utility.yul\":2537:2540   */\n      dup5\n        /* \"#utility.yul\":2529:2535   */\n      dup3\n        /* \"#utility.yul\":2522:2526   */\n      0x20\n        /* \"#utility.yul\":2514:2520   */\n      dup7\n        /* \"#utility.yul\":2510:2527   */\n      add\n        /* \"#utility.yul\":2462:2541   */\n      tag_52\n      jump\t// in\n    tag_114:\n        /* \"#utility.yul\":2453:2541   */\n      swap2\n      pop\n        /* \"#utility.yul\":2269:2547   */\n      pop\n        /* \"#utility.yul\":2207:2547   */\n      swap3\n      swap2\n      pop\n      pop\n      jump\t// out\n        /* \"#utility.yul\":2553:2864   */\n    tag_54:\n        /* \"#utility.yul\":2630:2634   */\n      0x00\n        /* \"#utility.yul\":2720:2738   */\n      0xffffffffffffffff\n        /* \"#utility.yul\":2712:2718   */\n      dup3\n        /* \"#utility.yul\":2709:2739   */\n      gt\n        /* \"#utility.yul\":2706:2762   */\n      iszero\n      tag_116\n      jumpi\n        /* \"#utility.yul\":2742:2760   */\n      tag_117\n      tag_17\n      jump\t// in\n    tag_117:\n        /* \"#utility.yul\":2706:2762   */\n    tag_116:\n        /* \"#utility.yul\":2792:2796   */\n      0x20\n        /* \"#utility.yul\":2784:2790   */\n      dup3\n        /* \"#utility.yul\":2780:2797   */\n      mul\n        /* \"#utility.yul\":2772:2797   */\n      swap1\n      pop\n        /* \"#utility.yul\":2852:2856   */\n      0x20\n        /* \"#utility.yul\":2846:2850   */\n      dup2\n        /* \"#utility.yul\":2842:2857   */\n      add\n        /* \"#utility.yul\":2834:2857   */\n      swap1\n      pop\n        /* \"#utility.yul\":2553:2864   */\n      swap2\n      swap1\n      pop\n      jump\t// out\n        /* \"#utility.yul\":2870:2987   */\n    tag_55:\n        /* \"#utility.yul\":2979:2980   */\n      0x00\n        /* \"#utility.yul\":2976:2977   */\n      dup1\n        /* \"#utility.yul\":2969:2981   */\n      revert\n        /* \"#utility.yul\":2993:3070   */\n    tag_56:\n        /* \"#utility.yul\":3030:3037   */\n      0x00\n        /* \"#utility.yul\":3059:3064   */\n      dup2\n        /* \"#utility.yul\":3048:3064   */\n      swap1\n      pop\n        /* \"#utility.yul\":2993:3070   */\n      swap2\n      swap1\n      pop\n      jump\t// out\n        /* \"#utility.yul\":3076:3198   */\n    tag_57:\n        /* \"#utility.yul\":3149:3173   */\n      tag_121\n        /* \"#utility.yul\":3167:3172   */\n      dup2\n        /* \"#utility.yul\":3149:3173   */\n      tag_56\n      jump\t// in\n    tag_121:\n        /* \"#utility.yul\":3142:3147   */\n      dup2\n        /* \"#utility.yul\":3139:3174   */\n      eq\n        /* \"#utility.yul\":3129:3192   */\n      tag_122\n      jumpi\n        /* \"#utility.yul\":3188:3189   */\n      0x00\n        /* \"#utility.yul\":3185:3186   */\n      dup1\n        /* \"#utility.yul\":3178:3190   */\n      revert\n        /* \"#utility.yul\":3129:3192   */\n    tag_122:\n        /* \"#utility.yul\":3076:3198   */\n      pop\n      jump\t// out\n        /* \"#utility.yul\":3204:3343   */\n    tag_58:\n        /* \"#utility.yul\":3250:3255   */\n      0x00\n        /* \"#utility.yul\":3288:3294   */\n      dup2\n        /* \"#utility.yul\":3275:3295   */\n      calldataload\n        /* \"#utility.yul\":3266:3295   */\n      swap1\n      pop\n        /* \"#utility.yul\":3304:3337   */\n      tag_124\n        /* \"#utility.yul\":3331:3336   */\n      dup2\n        /* \"#utility.yul\":3304:3337   */\n      tag_57\n      jump\t// in\n    tag_124:\n        /* \"#utility.yul\":3204:3343   */\n      swap3\n      swap2\n      pop\n      pop\n      jump\t// out\n        /* \"#utility.yul\":3366:4076   */\n    tag_59:\n        /* \"#utility.yul\":3462:3467   */\n      0x00\n        /* \"#utility.yul\":3487:3568   */\n      tag_126\n        /* \"#utility.yul\":3503:3567   */\n      tag_127\n        /* \"#utility.yul\":3560:3566   */\n      dup5\n        /* \"#utility.yul\":3503:3567   */\n      tag_54\n      jump\t// in\n    tag_127:\n        /* \"#utility.yul\":3487:3568   */\n      tag_49\n      jump\t// in\n    tag_126:\n        /* \"#utility.yul\":3478:3568   */\n      swap1\n      pop\n        /* \"#utility.yul\":3588:3593   */\n      dup1\n        /* \"#utility.yul\":3617:3623   */\n      dup4\n        /* \"#utility.yul\":3610:3615   */\n      dup3\n        /* \"#utility.yul\":3603:3624   */\n      mstore\n        /* \"#utility.yul\":3651:3655   */\n      0x20\n        /* \"#utility.yul\":3644:3649   */\n      dup3\n        /* \"#utility.yul\":3640:3656   */\n      add\n        /* \"#utility.yul\":3633:3656   */\n      swap1\n      pop\n        /* \"#utility.yul\":3704:3708   */\n      0x20\n        /* \"#utility.yul\":3696:3702   */\n      dup5\n        /* \"#utility.yul\":3692:3709   */\n      mul\n        /* \"#utility.yul\":3684:3690   */\n      dup4\n        /* \"#utility.yul\":3680:3710   */\n      add\n        /* \"#utility.yul\":3733:3736   */\n      dup6\n        /* \"#utility.yul\":3725:3731   */\n      dup2\n        /* \"#utility.yul\":3722:3737   */\n      gt\n        /* \"#utility.yul\":3719:3841   */\n      iszero\n      tag_128\n      jumpi\n        /* \"#utility.yul\":3752:3831   */\n      tag_129\n      tag_55\n      jump\t// in\n    tag_129:\n        /* \"#utility.yul\":3719:3841   */\n    tag_128:\n        /* \"#utility.yul\":3867:3873   */\n      dup4\n        /* \"#utility.yul\":3850:4070   */\n    tag_130:\n        /* \"#utility.yul\":3884:3890   */\n      dup2\n        /* \"#utility.yul\":3879:3882   */\n      dup2\n        /* \"#utility.yul\":3876:3891   */\n      lt\n        /* \"#utility.yul\":3850:4070   */\n      iszero\n      tag_132\n      jumpi\n        /* \"#utility.yul\":3959:3962   */\n      dup1\n        /* \"#utility.yul\":3988:4025   */\n      tag_133\n        /* \"#utility.yul\":4021:4024   */\n      dup9\n        /* \"#utility.yul\":4009:4019   */\n      dup3\n        /* \"#utility.yul\":3988:4025   */\n      tag_58\n      jump\t// in\n    tag_133:\n        /* \"#utility.yul\":3983:3986   */\n      dup5\n        /* \"#utility.yul\":3976:4026   */\n      mstore\n        /* \"#utility.yul\":4055:4059   */\n      0x20\n        /* \"#utility.yul\":4050:4053   */\n      dup5\n        /* \"#utility.yul\":4046:4060   */\n      add\n        /* \"#utility.yul\":4039:4060   */\n      swap4\n      pop\n        /* \"#utility.yul\":3926:4070   */\n      pop\n        /* \"#utility.yul\":3910:3914   */\n      0x20\n        /* \"#utility.yul\":3905:3908   */\n      dup2\n        /* \"#utility.yul\":3901:3915   */\n      add\n        /* \"#utility.yul\":3894:3915   */\n      swap1\n      pop\n        /* \"#utility.yul\":3850:4070   */\n      jump(tag_130)\n    tag_132:\n        /* \"#utility.yul\":3854:3875   */\n      pop\n        /* \"#utility.yul\":3468:4076   */\n      pop\n      pop\n        /* \"#utility.yul\":3366:4076   */\n      swap4\n      swap3\n      pop\n      pop\n      pop\n      jump\t// out\n        /* \"#utility.yul\":4099:4469   */\n    tag_60:\n        /* \"#utility.yul\":4170:4175   */\n      0x00\n        /* \"#utility.yul\":4219:4222   */\n      dup3\n        /* \"#utility.yul\":4212:4216   */\n      0x1f\n        /* \"#utility.yul\":4204:4210   */\n      dup4\n        /* \"#utility.yul\":4200:4217   */\n      add\n        /* \"#utility.yul\":4196:4223   */\n      slt\n        /* \"#utility.yul\":4186:4308   */\n      tag_135\n      jumpi\n        /* \"#utility.yul\":4227:4306   */\n      tag_136\n      tag_45\n      jump\t// in\n    tag_136:\n        /* \"#utility.yul\":4186:4308   */\n    tag_135:\n        /* \"#utility.yul\":4344:4350   */\n      dup2\n        /* \"#utility.yul\":4331:4351   */\n      calldataload\n        /* \"#utility.yul\":4369:4463   */\n      tag_137\n        /* \"#utility.yul\":4459:4462   */\n      dup5\n        /* \"#utility.yul\":4451:4457   */\n      dup3\n        /* \"#utility.yul\":4444:4448   */\n      0x20\n        /* \"#utility.yul\":4436:4442   */\n      dup7\n        /* \"#utility.yul\":4432:4449   */\n      add\n        /* \"#utility.yul\":4369:4463   */\n      tag_59\n      jump\t// in\n    tag_137:\n        /* \"#utility.yul\":4360:4463   */\n      swap2\n      pop\n        /* \"#utility.yul\":4176:4469   */\n      pop\n        /* \"#utility.yul\":4099:4469   */\n      swap3\n      swap2\n      pop\n      pop\n      jump\t// out\n        /* \"#utility.yul\":4475:5664   */\n    tag_6:\n        /* \"#utility.yul\":4597:4603   */\n      0x00\n        /* \"#utility.yul\":4605:4611   */\n      dup1\n        /* \"#utility.yul\":4613:4619   */\n      0x00\n        /* \"#utility.yul\":4662:4664   */\n      0x60\n        /* \"#utility.yul\":4650:4659   */\n      dup5\n        /* \"#utility.yul\":4641:4648   */\n      dup7\n        /* \"#utility.yul\":4637:4660   */\n      sub\n        /* \"#utility.yul\":4633:4665   */\n      slt\n        /* \"#utility.yul\":4630:4749   */\n      iszero\n      tag_139\n      jumpi\n        /* \"#utility.yul\":4668:4747   */\n      tag_140\n      tag_43\n      jump\t// in\n    tag_140:\n        /* \"#utility.yul\":4630:4749   */\n    tag_139:\n        /* \"#utility.yul\":4816:4817   */\n      0x00\n        /* \"#utility.yul\":4805:4814   */\n      dup5\n        /* \"#utility.yul\":4801:4818   */\n      add\n        /* \"#utility.yul\":4788:4819   */\n      calldataload\n        /* \"#utility.yul\":4846:4864   */\n      0xffffffffffffffff\n        /* \"#utility.yul\":4838:4844   */\n      dup2\n        /* \"#utility.yul\":4835:4865   */\n      gt\n        /* \"#utility.yul\":4832:4949   */\n      iszero\n      tag_141\n      jumpi\n        /* \"#utility.yul\":4868:4947   */\n      tag_142\n      tag_44\n      jump\t// in\n    tag_142:\n        /* \"#utility.yul\":4832:4949   */\n    tag_141:\n        /* \"#utility.yul\":4973:5036   */\n      tag_143\n        /* \"#utility.yul\":5028:5035   */\n      dup7\n        /* \"#utility.yul\":5019:5025   */\n      dup3\n        /* \"#utility.yul\":5008:5017   */\n      dup8\n        /* \"#utility.yul\":5004:5026   */\n      add\n        /* \"#utility.yul\":4973:5036   */\n      tag_53\n      jump\t// in\n    tag_143:\n        /* \"#utility.yul\":4963:5036   */\n      swap4\n      pop\n        /* \"#utility.yul\":4759:5046   */\n      pop\n        /* \"#utility.yul\":5113:5115   */\n      0x20\n        /* \"#utility.yul\":5102:5111   */\n      dup5\n        /* \"#utility.yul\":5098:5116   */\n      add\n        /* \"#utility.yul\":5085:5117   */\n      calldataload\n        /* \"#utility.yul\":5144:5162   */\n      0xffffffffffffffff\n        /* \"#utility.yul\":5136:5142   */\n      dup2\n        /* \"#utility.yul\":5133:5163   */\n      gt\n        /* \"#utility.yul\":5130:5247   */\n      iszero\n      tag_144\n      jumpi\n        /* \"#utility.yul\":5166:5245   */\n      tag_145\n      tag_44\n      jump\t// in\n    tag_145:\n        /* \"#utility.yul\":5130:5247   */\n    tag_144:\n        /* \"#utility.yul\":5271:5334   */\n      tag_146\n        /* \"#utility.yul\":5326:5333   */\n      dup7\n        /* \"#utility.yul\":5317:5323   */\n      dup3\n        /* \"#utility.yul\":5306:5315   */\n      dup8\n        /* \"#utility.yul\":5302:5324   */\n      add\n        /* \"#utility.yul\":5271:5334   */\n      tag_53\n      jump\t// in\n    tag_146:\n        /* \"#utility.yul\":5261:5334   */\n      swap3\n      pop\n        /* \"#utility.yul\":5056:5344   */\n      pop\n        /* \"#utility.yul\":5411:5413   */\n      0x40\n        /* \"#utility.yul\":5400:5409   */\n      dup5\n        /* \"#utility.yul\":5396:5414   */\n      add\n        /* \"#utility.yul\":5383:5415   */\n      calldataload\n        /* \"#utility.yul\":5442:5460   */\n      0xffffffffffffffff\n        /* \"#utility.yul\":5434:5440   */\n      dup2\n        /* \"#utility.yul\":5431:5461   */\n      gt\n        /* \"#utility.yul\":5428:5545   */\n      iszero\n      tag_147\n      jumpi\n        /* \"#utility.yul\":5464:5543   */\n      tag_148\n      tag_44\n      jump\t// in\n    tag_148:\n        /* \"#utility.yul\":5428:5545   */\n    tag_147:\n        /* \"#utility.yul\":5569:5647   */\n      tag_149\n        /* \"#utility.yul\":5639:5646   */\n      dup7\n        /* \"#utility.yul\":5630:5636   */\n      dup3\n        /* \"#utility.yul\":5619:5628   */\n      dup8\n        /* \"#utility.yul\":5615:5637   */\n      add\n        /* \"#utility.yul\":5569:5647   */\n      tag_60\n      jump\t// in\n    tag_149:\n        /* \"#utility.yul\":5559:5647   */\n      swap2\n      pop\n        /* \"#utility.yul\":5354:5657   */\n      pop\n        /* \"#utility.yul\":4475:5664   */\n      swap3\n      pop\n      swap3\n      pop\n      swap3\n      jump\t// out\n        /* \"#utility.yul\":5670:5839   */\n    tag_61:\n        /* \"#utility.yul\":5754:5765   */\n      0x00\n        /* \"#utility.yul\":5788:5794   */\n      dup3\n        /* \"#utility.yul\":5783:5786   */\n      dup3\n        /* \"#utility.yul\":5776:5795   */\n      mstore\n        /* \"#utility.yul\":5828:5832   */\n      0x20\n        /* \"#utility.yul\":5823:5826   */\n      dup3\n        /* \"#utility.yul\":5819:5833   */\n      add\n        /* \"#utility.yul\":5804:5833   */\n      swap1\n      pop\n        /* \"#utility.yul\":5670:5839   */\n      swap3\n      swap2\n      pop\n      pop\n      jump\t// out\n        /* \"#utility.yul\":5845:6009   */\n    tag_62:\n        /* \"#utility.yul\":5985:6001   */\n      0x456d707479207175657374696f6e000000000000000000000000000000000000\n        /* \"#utility.yul\":5981:5982   */\n      0x00\n        /* \"#utility.yul\":5973:5979   */\n      dup3\n        /* \"#utility.yul\":5969:5983   */\n      add\n        /* \"#utility.yul\":5962:6002   */\n      mstore\n        /* \"#utility.yul\":5845:6009   */\n      pop\n      jump\t// out\n        /* \"#utility.yul\":6015:6381   */\n    tag_63:\n        /* \"#utility.yul\":6157:6160   */\n      0x00\n        /* \"#utility.yul\":6178:6245   */\n      tag_153\n        /* \"#utility.yul\":6242:6244   */\n      0x0e\n        /* \"#utility.yul\":6237:6240   */\n      dup4\n        /* \"#utility.yul\":6178:6245   */\n      tag_61\n      jump\t// in\n    tag_153:\n        /* \"#utility.yul\":6171:6245   */\n      swap2\n      pop\n        /* \"#utility.yul\":6254:6347   */\n      tag_154\n        /* \"#utility.yul\":6343:6346   */\n      dup3\n        /* \"#utility.yul\":6254:6347   */\n      tag_62\n      jump\t// in\n    tag_154:\n        /* \"#utility.yul\":6372:6374   */\n      0x20\n        /* \"#utility.yul\":6367:6370   */\n      dup3\n        /* \"#utility.yul\":6363:6375   */\n      add\n        /* \"#utility.yul\":6356:6375   */\n      swap1\n      pop\n        /* \"#utility.yul\":6015:6381   */\n      swap2\n      swap1\n      pop\n      jump\t// out\n        /* \"#utility.yul\":6387:6806   */\n    tag_11:\n        /* \"#utility.yul\":6553:6557   */\n      0x00\n        /* \"#utility.yul\":6591:6593   */\n      0x20\n        /* \"#utility.yul\":6580:6589   */\n      dup3\n        /* \"#utility.yul\":6576:6594   */\n      add\n        /* \"#utility.yul\":6568:6594   */\n      swap1\n      pop\n        /* \"#utility.yul\":6640:6649   */\n      dup2\n        /* \"#utility.yul\":6634:6638   */\n      dup2\n        /* \"#utility.yul\":6630:6650   */\n      sub\n        /* \"#utility.yul\":6626:6627   */\n      0x00\n        /* \"#utility.yul\":6615:6624   */\n      dup4\n        /* \"#utility.yul\":6611:6628   */\n      add\n        /* \"#utility.yul\":6604:6651   */\n      mstore\n        /* \"#utility.yul\":6668:6799   */\n      tag_156\n        /* \"#utility.yul\":6794:6798   */\n      dup2\n        /* \"#utility.yul\":6668:6799   */\n      tag_63\n      jump\t// in\n    tag_156:\n        /* \"#utility.yul\":6660:6799   */\n      swap1\n      pop\n        /* \"#utility.yul\":6387:6806   */\n      swap2\n      swap1\n      pop\n      jump\t// out\n        /* \"#utility.yul\":6812:6989   */\n    tag_64:\n        /* \"#utility.yul\":6952:6981   */\n      0x4174206c656173742032206f7074696f6e732072657175697265640000000000\n        /* \"#utility.yul\":6948:6949   */\n      0x00\n        /* \"#utility.yul\":6940:6946   */\n      dup3\n        /* \"#utility.yul\":6936:6950   */\n      add\n        /* \"#utility.yul\":6929:6982   */\n      mstore\n        /* \"#utility.yul\":6812:6989   */\n      pop\n      jump\t// out\n        /* \"#utility.yul\":6995:7361   */\n    tag_65:\n        /* \"#utility.yul\":7137:7140   */\n      0x00\n        /* \"#utility.yul\":7158:7225   */\n      tag_159\n        /* \"#utility.yul\":7222:7224   */\n      0x1b\n        /* \"#utility.yul\":7217:7220   */\n      dup4\n        /* \"#utility.yul\":7158:7225   */\n      tag_61\n      jump\t// in\n    tag_159:\n        /* \"#utility.yul\":7151:7225   */\n      swap2\n      pop\n        /* \"#utility.yul\":7234:7327   */\n      tag_160\n        /* \"#utility.yul\":7323:7326   */\n      dup3\n        /* \"#utility.yul\":7234:7327   */\n      tag_64\n      jump\t// in\n    tag_160:\n        /* \"#utility.yul\":7352:7354   */\n      0x20\n        /* \"#utility.yul\":7347:7350   */\n      dup3\n        /* \"#utility.yul\":7343:7355   */\n      add\n        /* \"#utility.yul\":7336:7355   */\n      swap1\n      pop\n        /* \"#utility.yul\":6995:7361   */\n      swap2\n      swap1\n      pop\n      jump\t// out\n        /* \"#utility.yul\":7367:7786   */\n    tag_14:\n        /* \"#utility.yul\":7533:7537   */\n      0x00\n        /* \"#utility.yul\":7571:7573   */\n      0x20\n        /* \"#utility.yul\":7560:7569   */\n      dup3\n        /* \"#utility.yul\":7556:7574   */\n      add\n        /* \"#utility.yul\":7548:7574   */\n      swap1\n      pop\n        /* \"#utility.yul\":7620:7629   */\n      dup2\n        /* \"#utility.yul\":7614:7618   */\n      dup2\n        /* \"#utility.yul\":7610:7630   */\n      sub\n        /* \"#utility.yul\":7606:7607   */\n      0x00\n        /* \"#utility.yul\":7595:7604   */\n      dup4\n        /* \"#utility.yul\":7591:7608   */\n      add\n        /* \"#utility.yul\":7584:7631   */\n      mstore\n        /* \"#utility.yul\":7648:7779   */\n      tag_162\n        /* \"#utility.yul\":7774:7778   */\n      dup2\n        /* \"#utility.yul\":7648:7779   */\n      tag_65\n      jump\t// in\n    tag_162:\n        /* \"#utility.yul\":7640:7779   */\n      swap1\n      pop\n        /* \"#utility.yul\":7367:7786   */\n      swap2\n      swap1\n      pop\n      jump\t// out\n        /* \"#utility.yul\":7792:7891   */\n    tag_66:\n        /* \"#utility.yul\":7844:7850   */\n      0x00\n        /* \"#utility.yul\":7878:7883   */\n      dup2\n        /* \"#utility.yul\":7872:7884   */\n      mload\n        /* \"#utility.yul\":7862:7884   */\n      swap1\n      pop\n        /* \"#utility.yul\":7792:7891   */\n      swap2\n      swap1\n      pop\n      jump\t// out\n        /* \"#utility.yul\":7897:8077   */\n    tag_67:\n        /* \"#utility.yul\":7945:8022   */\n      0x4e487b7100000000000000000000000000000000000000000000000000000000\n        /* \"#utility.yul\":7942:7943   */\n      0x00\n        /* \"#utility.yul\":7935:8023   */\n      mstore\n        /* \"#utility.yul\":8042:8046   */\n      0x22\n        /* \"#utility.yul\":8039:8040   */\n      0x04\n        /* \"#utility.yul\":8032:8047   */\n      mstore\n        /* \"#utility.yul\":8066:8070   */\n      0x24\n        /* \"#utility.yul\":8063:8064   */\n      0x00\n        /* \"#utility.yul\":8056:8071   */\n      revert\n        /* \"#utility.yul\":8083:8403   */\n    tag_68:\n        /* \"#utility.yul\":8127:8133   */\n      0x00\n        /* \"#utility.yul\":8164:8165   */\n      0x02\n        /* \"#utility.yul\":8158:8162   */\n      dup3\n        /* \"#utility.yul\":8154:8166   */\n      div\n        /* \"#utility.yul\":8144:8166   */\n      swap1\n      pop\n        /* \"#utility.yul\":8211:8212   */\n      0x01\n        /* \"#utility.yul\":8205:8209   */\n      dup3\n        /* \"#utility.yul\":8201:8213   */\n      and\n        /* \"#utility.yul\":8232:8250   */\n      dup1\n        /* \"#utility.yul\":8222:8303   */\n      tag_166\n      jumpi\n        /* \"#utility.yul\":8288:8292   */\n      0x7f\n        /* \"#utility.yul\":8280:8286   */\n      dup3\n        /* \"#utility.yul\":8276:8293   */\n      and\n        /* \"#utility.yul\":8266:8293   */\n      swap2\n      pop\n        /* \"#utility.yul\":8222:8303   */\n    tag_166:\n        /* \"#utility.yul\":8350:8352   */\n      0x20\n        /* \"#utility.yul\":8342:8348   */\n      dup3\n        /* \"#utility.yul\":8339:8353   */\n      lt\n        /* \"#utility.yul\":8319:8337   */\n      dup2\n        /* \"#utility.yul\":8316:8354   */\n      sub\n        /* \"#utility.yul\":8313:8397   */\n      tag_167\n      jumpi\n        /* \"#utility.yul\":8369:8387   */\n      tag_168\n      tag_67\n      jump\t// in\n    tag_168:\n        /* \"#utility.yul\":8313:8397   */\n    tag_167:\n        /* \"#utility.yul\":8134:8403   */\n      pop\n        /* \"#utility.yul\":8083:8403   */\n      swap2\n      swap1\n      pop\n      jump\t// out\n        /* \"#utility.yul\":8409:8550   */\n    tag_69:\n        /* \"#utility.yul\":8458:8462   */\n      0x00\n        /* \"#utility.yul\":8481:8484   */\n      dup2\n        /* \"#utility.yul\":8473:8484   */\n      swap1\n      pop\n        /* \"#utility.yul\":8504:8507   */\n      dup2\n        /* \"#utility.yul\":8501:8502   */\n      0x00\n        /* \"#utility.yul\":8494:8508   */\n      mstore\n        /* \"#utility.yul\":8538:8542   */\n      0x20\n        /* \"#utility.yul\":8535:8536   */\n      0x00\n        /* \"#utility.yul\":8525:8543   */\n      keccak256\n        /* \"#utility.yul\":8517:8543   */\n      swap1\n      pop\n        /* \"#utility.yul\":8409:8550   */\n      swap2\n      swap1\n      pop\n      jump\t// out\n        /* \"#utility.yul\":8556:8649   */\n    tag_70:\n        /* \"#utility.yul\":8593:8599   */\n      0x00\n        /* \"#utility.yul\":8640:8642   */\n      0x20\n        /* \"#utility.yul\":8635:8637   */\n      0x1f\n        /* \"#utility.yul\":8628:8633   */\n      dup4\n        /* \"#utility.yul\":8624:8638   */\n      add\n        /* \"#utility.yul\":8620:8643   */\n      div\n        /* \"#utility.yul\":8610:8643   */\n      swap1\n      pop\n        /* \"#utility.yul\":8556:8649   */\n      swap2\n      swap1\n      pop\n      jump\t// out\n        /* \"#utility.yul\":8655:8762   */\n    tag_71:\n        /* \"#utility.yul\":8699:8707   */\n      0x00\n        /* \"#utility.yul\":8749:8754   */\n      dup3\n        /* \"#utility.yul\":8743:8747   */\n      dup3\n        /* \"#utility.yul\":8739:8755   */\n      shl\n        /* \"#utility.yul\":8718:8755   */\n      swap1\n      pop\n        /* \"#utility.yul\":8655:8762   */\n      swap3\n      swap2\n      pop\n      pop\n      jump\t// out\n        /* \"#utility.yul\":8768:9161   */\n    tag_72:\n        /* \"#utility.yul\":8837:8843   */\n      0x00\n        /* \"#utility.yul\":8887:8888   */\n      0x08\n        /* \"#utility.yul\":8875:8885   */\n      dup4\n        /* \"#utility.yul\":8871:8889   */\n      mul\n        /* \"#utility.yul\":8910:9007   */\n      tag_173\n        /* \"#utility.yul\":8940:9006   */\n      0xffffffffffffffffffffffffffffffffffffffffffffffffffffffffffffffff\n        /* \"#utility.yul\":8929:8938   */\n      dup3\n        /* \"#utility.yul\":8910:9007   */\n      tag_71\n      jump\t// in\n    tag_173:\n        /* \"#utility.yul\":9028:9067   */\n      tag_174\n        /* \"#utility.yul\":9058:9066   */\n      dup7\n        /* \"#utility.yul\":9047:9056   */\n      dup4\n        /* \"#utility.yul\":9028:9067   */\n      tag_71\n      jump\t// in\n    tag_174:\n        /* \"#utility.yul\":9016:9067   */\n      swap6\n      pop\n        /* \"#utility.yul\":9100:9104   */\n      dup1\n        /* \"#utility.yul\":9096:9105   */\n      not\n        /* \"#utility.yul\":9089:9094   */\n      dup5\n        /* \"#utility.yul\":9085:9106   */\n      and\n        /* \"#utility.yul\":9076:9106   */\n      swap4\n      pop\n        /* \"#utility.yul\":9149:9153   */\n      dup1\n        /* \"#utility.yul\":9139:9147   */\n      dup7\n        /* \"#utility.yul\":9135:9154   */\n      and\n        /* \"#utility.yul\":9128:9133   */\n      dup5\n        /* \"#utility.yul\":9125:9155   */\n      or\n        /* \"#utility.yul\":9115:9155   */\n      swap3\n      pop\n        /* \"#utility.yul\":8844:9161   */\n      pop\n      pop\n        /* \"#utility.yul\":8768:9161   */\n      swap4\n      swap3\n      pop\n      pop\n      pop\n      jump\t// out\n        /* \"#utility.yul\":9167:9244   */\n    tag_73:\n        /* \"#utility.yul\":9204:9211   */\n      0x00\n        /* \"#utility.yul\":9233:9238   */\n      dup2\n        /* \"#utility.yul\":9222:9238   */\n      swap1\n      pop\n        /* \"#utility.yul\":9167:9244   */\n      swap2\n      swap1\n      pop\n      jump\t// out\n        /* \"#utility.yul\":9250:9310   */\n    tag_74:\n        /* \"#utility.yul\":9278:9281   */\n      0x00\n        /* \"#utility.yul\":9299:9304   */\n      dup2\n        /* \"#utility.yul\":9292:9304   */\n      swap1\n      pop\n        /* \"#utility.yul\":9250:9310   */\n      swap2\n      swap1\n      pop\n      jump\t// out\n        /* \"#utility.yul\":9316:9458   */\n    tag_75:\n        /* \"#utility.yul\":9366:9375   */\n      0x00\n        /* \"#utility.yul\":9399:9452   */\n      tag_178\n        /* \"#utility.yul\":9417:9451   */\n      tag_179\n        /* \"#utility.yul\":9426:9450   */\n      tag_180\n        /* \"#utility.yul\":9444:9449   */\n      dup5\n        /* \"#utility.yul\":9426:9450   */\n      tag_73\n      jump\t// in\n    tag_180:\n        /* \"#utility.yul\":9417:9451   */\n      tag_74\n      jump\t// in\n    tag_179:\n        /* \"#utility.yul\":9399:9452   */\n      tag_73\n      jump\t// in\n    tag_178:\n        /* \"#utility.yul\":9386:9452   */\n      swap1\n      pop\n        /* \"#utility.yul\":9316:9458   */\n      swap2\n      swap1\n      pop\n      jump\t// out\n        /* \"#utility.yul\":9464:9539   */\n    tag_76:\n        /* \"#utility.yul\":9507:9510   */\n      0x00\n        /* \"#utility.yul\":9528:9533   */\n      dup2\n        /* \"#utility.yul\":9521:9533   */\n      swap1\n      pop\n        /* \"#utility.yul\":9464:9539   */\n      swap2\n      swap1\n      pop\n      jump\t// out\n        /* \"#utility.yul\":9545:9814   */\n    tag_77:\n        /* \"#utility.yul\":9655:9694   */\n      tag_183\n        /* \"#utility.yul\":9686:9693   */\n      dup4\n        /* \"#utility.yul\":9655:9694   */\n      tag_75\n      jump\t// in\n    tag_183:\n        /* \"#utility.yul\":9716:9807   */\n      tag_184\n        /* \"#utility.yul\":9765:9806   */\n      tag_185\n        /* \"#utility.yul\":9789:9805   */\n      dup3\n        /* \"#utility.yul\":9765:9806   */\n      tag_76\n      jump\t// in\n    tag_185:\n        /* \"#utility.yul\":9757:9763   */\n      dup5\n        /* \"#utility.yul\":9750:9754   */\n      dup5\n        /* \"#utility.yul\":9744:9755   */\n      sload\n        /* \"#utility.yul\":9716:9807   */\n      tag_72\n      jump\t// in\n    tag_184:\n        /* \"#utility.yul\":9710:9714   */\n      dup3\n        /* \"#utility.yul\":9703:9808   */\n      sstore\n        /* \"#utility.yul\":9621:9814   */\n      pop\n        /* \"#utility.yul\":9545:9814   */\n      pop\n      pop\n      pop\n      jump\t// out\n        /* \"#utility.yul\":9820:9893   */\n    tag_78:\n        /* \"#utility.yul\":9865:9868   */\n      0x00\n        /* \"#utility.yul\":9820:9893   */\n      swap1\n      jump\t// out\n        /* \"#utility.yul\":9899:10088   */\n    tag_79:\n        /* \"#utility.yul\":9976:10008   */\n      tag_188\n      tag_78\n      jump\t// in\n    tag_188:\n        /* \"#utility.yul\":10017:10082   */\n      tag_189\n        /* \"#utility.yul\":10075:10081   */\n      dup2\n        /* \"#utility.yul\":10067:10073   */\n      dup5\n        /* \"#utility.yul\":10061:10065   */\n      dup5\n        /* \"#utility.yul\":10017:10082   */\n      tag_77\n      jump\t// in\n    tag_189:\n        /* \"#utility.yul\":9952:10088   */\n      pop\n        /* \"#utility.yul\":9899:10088   */\n      pop\n      pop\n      jump\t// out\n        /* \"#utility.yul\":10094:10280   */\n    tag_80:\n        /* \"#utility.yul\":10154:10274   */\n    tag_191:\n        /* \"#utility.yul\":10171:10174   */\n      dup2\n        /* \"#utility.yul\":10164:10169   */\n      dup2\n        /* \"#utility.yul\":10161:10175   */\n      lt\n        /* \"#utility.yul\":10154:10274   */\n      iszero\n      tag_193\n      jumpi\n        /* \"#utility.yul\":10225:10264   */\n      tag_194\n        /* \"#utility.yul\":10262:10263   */\n      0x00\n        /* \"#utility.yul\":10255:10260   */\n      dup3\n        /* \"#utility.yul\":10225:10264   */\n      tag_79\n      jump\t// in\n    tag_194:\n        /* \"#utility.yul\":10198:10199   */\n      0x01\n        /* \"#utility.yul\":10191:10196   */\n      dup2\n        /* \"#utility.yul\":10187:10200   */\n      add\n        /* \"#utility.yul\":10178:10200   */\n      swap1\n      pop\n        /* \"#utility.yul\":10154:10274   */\n      jump(tag_191)\n    tag_193:\n        /* \"#utility.yul\":10094:10280   */\n      pop\n      pop\n      jump\t// out\n        /* \"#utility.yul\":10286:10829   */\n    tag_81:\n        /* \"#utility.yul\":10387:10389   */\n      0x1f\n        /* \"#utility.yul\":10382:10385   */\n      dup3\n        /* \"#utility.yul\":10379:10390   */\n      gt\n        /* \"#utility.yul\":10376:10822   */\n      iszero\n      tag_196\n      jumpi\n        /* \"#utility.yul\":10421:10459   */\n      tag_197\n        /* \"#utility.yul\":10453:10458   */\n      dup2\n        /* \"#utility.yul\":10421:10459   */\n      tag_69\n      jump\t// in\n    tag_197:\n        /* \"#utility.yul\":10505:10534   */\n      tag_198\n        /* \"#utility.yul\":10523:10533   */\n      dup5\n        /* \"#utility.yul\":10505:10534   */\n      tag_70\n      jump\t// in\n    tag_198:\n        /* \"#utility.yul\":10495:10503   */\n      dup2\n        /* \"#utility.yul\":10491:10535   */\n      add\n        /* \"#utility.yul\":10688:10690   */\n      0x20\n        /* \"#utility.yul\":10676:10686   */\n      dup6\n        /* \"#utility.yul\":10673:10691   */\n      lt\n        /* \"#utility.yul\":10670:10719   */\n      iszero\n      tag_199\n      jumpi\n        /* \"#utility.yul\":10709:10717   */\n      dup2\n        /* \"#utility.yul\":10694:10717   */\n      swap1\n      pop\n        /* \"#utility.yul\":10670:10719   */\n    tag_199:\n        /* \"#utility.yul\":10732:10812   */\n      tag_200\n        /* \"#utility.yul\":10788:10810   */\n      tag_201\n        /* \"#utility.yul\":10806:10809   */\n      dup6\n        /* \"#utility.yul\":10788:10810   */\n      tag_70\n      jump\t// in\n    tag_201:\n        /* \"#utility.yul\":10778:10786   */\n      dup4\n        /* \"#utility.yul\":10774:10811   */\n      add\n        /* \"#utility.yul\":10761:10772   */\n      dup3\n        /* \"#utility.yul\":10732:10812   */\n      tag_80\n      jump\t// in\n    tag_200:\n        /* \"#utility.yul\":10391:10822   */\n      pop\n      pop\n        /* \"#utility.yul\":10376:10822   */\n    tag_196:\n        /* \"#utility.yul\":10286:10829   */\n      pop\n      pop\n      pop\n      jump\t// out\n        /* \"#utility.yul\":10835:10952   */\n    tag_82:\n        /* \"#utility.yul\":10889:10897   */\n      0x00\n        /* \"#utility.yul\":10939:10944   */\n      dup3\n        /* \"#utility.yul\":10933:10937   */\n      dup3\n        /* \"#utility.yul\":10929:10945   */\n      shr\n        /* \"#utility.yul\":10908:10945   */\n      swap1\n      pop\n        /* \"#utility.yul\":10835:10952   */\n      swap3\n      swap2\n      pop\n      pop\n      jump\t// out\n        /* \"#utility.yul\":10958:11127   */\n    tag_83:\n        /* \"#utility.yul\":11002:11008   */\n      0x00\n        /* \"#utility.yul\":11035:11086   */\n      tag_204\n        /* \"#utility.yul\":11083:11084   */\n      0x00\n        /* \"#utility.yul\":11079:11085   */\n      not\n        /* \"#utility.yul\":11071:11076   */\n      dup5\n        /* \"#utility.yul\":11068:11069   */\n      0x08\n        /* \"#utility.yul\":11064:11077   */\n      mul\n        /* \"#utility.yul\":11035:11086   */\n      tag_82\n      jump\t// in\n    tag_204:\n        /* \"#utility.yul\":11031:11087   */\n      not\n        /* \"#utility.yul\":11116:11120   */\n      dup1\n        /* \"#utility.yul\":11110:11114   */\n      dup4\n        /* \"#utility.yul\":11106:11121   */\n      and\n        /* \"#utility.yul\":11096:11121   */\n      swap2\n      pop\n        /* \"#utility.yul\":11009:11127   */\n      pop\n        /* \"#utility.yul\":10958:11127   */\n      swap3\n      swap2\n      pop\n      pop\n      jump\t// out\n        /* \"#utility.yul\":11132:11427   */\n    tag_84:\n        /* \"#utility.yul\":11208:11212   */\n      0x00\n        /* \"#utility.yul\":11354:11383   */\n      tag_206\n        /* \"#utility.yul\":11379:11382   */\n      dup4\n        /* \"#utility.yul\":11373:11377   */\n      dup4\n        /* \"#utility.yul\":11354:11383   */\n      tag_83\n      jump\t// in\n    tag_206:\n        /* \"#utility.yul\":11346:11383   */\n      swap2\n      pop\n        /* \"#utility.yul\":11416:11419   */\n      dup3\n        /* \"#utility.yul\":11413:11414   */\n      0x02\n        /* \"#utility.yul\":11409:11420   */\n      mul\n        /* \"#utility.yul\":11403:11407   */\n      dup3\n        /* \"#utility.yul\":11400:11421   */\n      or\n        /* \"#utility.yul\":11392:11421   */\n      swap1\n      pop\n        /* \"#utility.yul\":11132:11427   */\n      swap3\n      swap2\n      pop\n      pop\n      jump\t// out\n        /* \"#utility.yul\":11432:12827   */\n    tag_21:\n        /* \"#utility.yul\":11549:11586   */\n      tag_208\n        /* \"#utility.yul\":11582:11585   */\n      dup3\n        /* \"#utility.yul\":11549:11586   */\n      tag_66\n      jump\t// in\n    tag_208:\n        /* \"#utility.yul\":11651:11669   */\n      0xffffffffffffffff\n        /* \"#utility.yul\":11643:11649   */\n      dup2\n        /* \"#utility.yul\":11640:11670   */\n      gt\n        /* \"#utility.yul\":11637:11693   */\n      iszero\n      tag_209\n      jumpi\n        /* \"#utility.yul\":11673:11691   */\n      tag_210\n      tag_17\n      jump\t// in\n    tag_210:\n        /* \"#utility.yul\":11637:11693   */\n    tag_209:\n        /* \"#utility.yul\":11717:11755   */\n      tag_211\n        /* \"#utility.yul\":11749:11753   */\n      dup3\n        /* \"#utility.yul\":11743:11754   */\n      sload\n        /* \"#utility.yul\":11717:11755   */\n      tag_68\n      jump\t// in\n    tag_211:\n        /* \"#utility.yul\":11802:11869   */\n      tag_212\n        /* \"#utility.yul\":11862:11868   */\n      dup3\n        /* \"#utility.yul\":11854:11860   */\n      dup3\n        /* \"#utility.yul\":11848:11852   */\n      dup6\n        /* \"#utility.yul\":11802:11869   */\n      tag_81\n      jump\t// in\n    tag_212:\n        /* \"#utility.yul\":11896:11897   */\n      0x00\n        /* \"#utility.yul\":11920:11924   */\n      0x20\n        /* \"#utility.yul\":11907:11924   */\n      swap1\n      pop\n        /* \"#utility.yul\":11952:11954   */\n      0x1f\n        /* \"#utility.yul\":11944:11950   */\n      dup4\n        /* \"#utility.yul\":11941:11955   */\n      gt\n        /* \"#utility.yul\":11969:11970   */\n      0x01\n        /* \"#utility.yul\":11964:12582   */\n      dup2\n      eq\n      tag_214\n      jumpi\n        /* \"#utility.yul\":12626:12627   */\n      0x00\n        /* \"#utility.yul\":12643:12649   */\n      dup5\n        /* \"#utility.yul\":12640:12717   */\n      iszero\n      tag_215\n      jumpi\n        /* \"#utility.yul\":12692:12701   */\n      dup3\n        /* \"#utility.yul\":12687:12690   */\n      dup8\n        /* \"#utility.yul\":12683:12702   */\n      add\n        /* \"#utility.yul\":12677:12703   */\n      mload\n        /* \"#utility.yul\":12668:12703   */\n      swap1\n      pop\n        /* \"#utility.yul\":12640:12717   */\n    tag_215:\n        /* \"#utility.yul\":12743:12810   */\n      tag_216\n        /* \"#utility.yul\":12803:12809   */\n      dup6\n        /* \"#utility.yul\":12796:12801   */\n      dup3\n        /* \"#utility.yul\":12743:12810   */\n      tag_84\n      jump\t// in\n    tag_216:\n        /* \"#utility.yul\":12737:12741   */\n      dup7\n        /* \"#utility.yul\":12730:12811   */\n      sstore\n        /* \"#utility.yul\":12599:12821   */\n      pop\n        /* \"#utility.yul\":11934:12821   */\n      jump(tag_213)\n        /* \"#utility.yul\":11964:12582   */\n    tag_214:\n        /* \"#utility.yul\":12016:12020   */\n      0x1f\n        /* \"#utility.yul\":12012:12021   */\n      not\n        /* \"#utility.yul\":12004:12010   */\n      dup5\n        /* \"#utility.yul\":12000:12022   */\n      and\n        /* \"#utility.yul\":12050:12087   */\n      tag_217\n        /* \"#utility.yul\":12082:12086   */\n      dup7\n        /* \"#utility.yul\":12050:12087   */\n      tag_69\n      jump\t// in\n    tag_217:\n        /* \"#utility.yul\":12109:12110   */\n      0x00\n        /* \"#utility.yul\":12123:12331   */\n    tag_218:\n        /* \"#utility.yul\":12137:12144   */\n      dup3\n        /* \"#utility.yul\":12134:12135   */\n      dup2\n        /* \"#utility.yul\":12131:12145   */\n      lt\n        /* \"#utility.yul\":12123:12331   */\n      iszero\n      tag_220\n      jumpi\n        /* \"#utility.yul\":12216:12225   */\n      dup5\n        /* \"#utility.yul\":12211:12214   */\n      dup10\n        /* \"#utility.yul\":12207:12226   */\n      add\n        /* \"#utility.yul\":12201:12227   */\n      mload\n        /* \"#utility.yul\":12193:12199   */\n      dup3\n        /* \"#utility.yul\":12186:12228   */\n      sstore\n        /* \"#utility.yul\":12267:12268   */\n      0x01\n        /* \"#utility.yul\":12259:12265   */\n      dup3\n        /* \"#utility.yul\":12255:12269   */\n      add\n        /* \"#utility.yul\":12245:12269   */\n      swap2\n      pop\n        /* \"#utility.yul\":12314:12316   */\n      0x20\n        /* \"#utility.yul\":12303:12312   */\n      dup6\n        /* \"#utility.yul\":12299:12317   */\n      add\n        /* \"#utility.yul\":12286:12317   */\n      swap5\n      pop\n        /* \"#utility.yul\":12160:12164   */\n      0x20\n        /* \"#utility.yul\":12157:12158   */\n      dup2\n        /* \"#utility.yul\":12153:12165   */\n      add\n        /* \"#utility.yul\":12148:12165   */\n      swap1\n      pop\n        /* \"#utility.yul\":12123:12331   */\n      jump(tag_218)\n    tag_220:\n        /* \"#utility.yul\":12359:12365   */\n      dup7\n        /* \"#utility.yul\":12350:12357   */\n      dup4\n        /* \"#utility.yul\":12347:12366   */\n      lt\n        /* \"#utility.yul\":12344:12523   */\n      iszero\n      tag_221\n      jumpi\n        /* \"#utility.yul\":12417:12426   */\n      dup5\n        /* \"#utility.yul\":12412:12415   */\n      dup10\n        /* \"#utility.yul\":12408:12427   */\n      add\n        /* \"#utility.yul\":12402:12428   */\n      mload\n        /* \"#utility.yul\":12460:12508   */\n      tag_222\n        /* \"#utility.yul\":12502:12506   */\n      0x1f\n        /* \"#utility.yul\":12494:12500   */\n      dup10\n        /* \"#utility.yul\":12490:12507   */\n      and\n        /* \"#utility.yul\":12479:12488   */\n      dup3\n        /* \"#utility.yul\":12460:12508   */\n      tag_83\n      jump\t// in\n    tag_222:\n        /* \"#utility.yul\":12452:12458   */\n      dup4\n        /* \"#utility.yul\":12445:12509   */\n      sstore\n        /* \"#utility.yul\":12367:12523   */\n      pop\n        /* \"#utility.yul\":12344:12523   */\n    tag_221:\n        /* \"#utility.yul\":12569:12570   */\n      0x01\n        /* \"#utility.yul\":12565:12566   */\n      0x02\n        /* \"#utility.yul\":12557:12563   */\n      dup9\n        /* \"#utility.yul\":12553:12567   */\n      mul\n        /* \"#utility.yul\":12549:12571   */\n      add\n        /* \"#utility.yul\":12543:12547   */\n      dup9\n        /* \"#utility.yul\":12536:12572   */\n      sstore\n        /* \"#utility.yul\":11971:12582   */\n      pop\n      pop\n      pop\n        /* \"#utility.yul\":11934:12821   */\n    tag_213:\n      pop\n        /* \"#utility.yul\":11524:12827   */\n      pop\n      pop\n      pop\n        /* \"#utility.yul\":11432:12827   */\n      pop\n      pop\n      jump\t// out\n\n    auxdata: 0xa2646970667358221220953c9e155b050ffbb9b650c7f80172bf949d65f376783ea08b700098dd31a5f264736f6c63430008100033\n}\n",
				"bytecode": {
					"linkReferences": {},
					"object": "608060405234801561001057600080fd5b50610a4a806100206000396000f3fe608060405234801561001057600080fd5b506004361061002b5760003560e01c80637ba9104114610030575b600080fd5b61004a60048036038101906100459190610591565b61004c565b005b6000835111610090576040517f08c379a000000000000000000000000000000000000000000000000000000000815260040161008790610695565b60405180910390fd5b60018151116100d4576040517f08c379a00000000000000000000000000000000000000000000000000000000081526004016100cb90610701565b60405180910390fd5b60008080549050905060006040518060a00160405280838152602001868152602001858152602001845167ffffffffffffffff81111561011757610116610368565b5b6040519080825280602002602001820160405280156101455781602001602082028036833780820191505090505b508152602001848152509050600081908060018154018082558091505060019003906000526020600020906005020160009091909190915060008201518160000155602082015181600101908161019c9190610942565b5060408201518160020190816101b29190610942565b5060608201518160030190805190602001906101cf9291906101f6565b5060808201518160040190805190602001906101ec9291906102b2565b5050505050505050565b828054828255906000526020600020906003016004900481019282156102a15791602002820160005b8382111561026b57835183826101000a81548167ffffffffffffffff021916908367ffffffffffffffff160217905550926020019260080160208160070104928301926001030261021f565b801561029f5782816101000a81549067ffffffffffffffff021916905560080160208160070104928301926001030261026b565b505b5090506102ae91906102ff565b5090565b8280548282559060005260206000209081019282156102ee579160200282015b828111156102ed5782518255916020019190600101906102d2565b5b5090506102fb919061031c565b5090565b5b80821115610318576000816000905550600101610300565b5090565b5b8082111561033557600081600090555060010161031d565b5090565b6000604051905090565b600080fd5b600080fd5b600080fd5b600080fd5b6000601f19601f8301169050919050565b7f4e487b7100000000000000000000000000000000000000000000000000000000600052604160045260246000fd5b6103a082610357565b810181811067ffffffffffffffff821117156103bf576103be610368565b5b80604052505050565b60006103d2610339565b90506103de8282610397565b919050565b600067ffffffffffffffff8211156103fe576103fd610368565b5b61040782610357565b9050602081019050919050565b82818337600083830152505050565b6000610436610431846103e3565b6103c8565b90508281526020810184848401111561045257610451610352565b5b61045d848285610414565b509392505050565b600082601f83011261047a5761047961034d565b5b813561048a848260208601610423565b91505092915050565b600067ffffffffffffffff8211156104ae576104ad610368565b5b602082029050602081019050919050565b600080fd5b6000819050919050565b6104d7816104c4565b81146104e257600080fd5b50565b6000813590506104f4816104ce565b92915050565b600061050d61050884610493565b6103c8565b905080838252602082019050602084028301858111156105305761052f6104bf565b5b835b81811015610559578061054588826104e5565b845260208401935050602081019050610532565b5050509392505050565b600082601f8301126105785761057761034d565b5b81356105888482602086016104fa565b91505092915050565b6000806000606084860312156105aa576105a9610343565b5b600084013567ffffffffffffffff8111156105c8576105c7610348565b5b6105d486828701610465565b935050602084013567ffffffffffffffff8111156105f5576105f4610348565b5b61060186828701610465565b925050604084013567ffffffffffffffff81111561062257610621610348565b5b61062e86828701610563565b9150509250925092565b600082825260208201905092915050565b7f456d707479207175657374696f6e000000000000000000000000000000000000600082015250565b600061067f600e83610638565b915061068a82610649565b602082019050919050565b600060208201905081810360008301526106ae81610672565b9050919050565b7f4174206c656173742032206f7074696f6e732072657175697265640000000000600082015250565b60006106eb601b83610638565b91506106f6826106b5565b602082019050919050565b6000602082019050818103600083015261071a816106de565b9050919050565b600081519050919050565b7f4e487b7100000000000000000000000000000000000000000000000000000000600052602260045260246000fd5b6000600282049050600182168061077357607f821691505b6020821081036107865761078561072c565b5b50919050565b60008190508160005260206000209050919050565b60006020601f8301049050919050565b600082821b905092915050565b6000600883026107ee7fffffffffffffffffffffffffffffffffffffffffffffffffffffffffffffffff826107b1565b6107f886836107b1565b95508019841693508086168417925050509392505050565b6000819050919050565b6000819050919050565b600061083f61083a61083584610810565b61081a565b610810565b9050919050565b6000819050919050565b61085983610824565b61086d61086582610846565b8484546107be565b825550505050565b600090565b610882610875565b61088d818484610850565b505050565b5b818110156108b1576108a660008261087a565b600181019050610893565b5050565b601f8211156108f6576108c78161078c565b6108d0846107a1565b810160208510156108df578190505b6108f36108eb856107a1565b830182610892565b50505b505050565b600082821c905092915050565b6000610919600019846008026108fb565b1980831691505092915050565b60006109328383610908565b9150826002028217905092915050565b61094b82610721565b67ffffffffffffffff81111561096457610963610368565b5b61096e825461075b565b6109798282856108b5565b600060209050601f8311600181146109ac576000841561099a578287015190505b6109a48582610926565b865550610a0c565b601f1984166109ba8661078c565b60005b828110156109e2578489015182556001820191506020850194506020810190506109bd565b868310156109ff57848901516109fb601f891682610908565b8355505b6001600288020188555050505b50505050505056fea2646970667358221220953c9e155b050ffbb9b650c7f80172bf949d65f376783ea08b700098dd31a5f264736f6c63430008100033",
					"opcodes": "PUSH1 0x80 PUSH1 0x40 MSTORE CALLVALUE DUP1 ISZERO PUSH2 0x10 JUMPI PUSH1 0x0 DUP1 REVERT JUMPDEST POP PUSH2 0xA4A DUP1 PUSH2 0x20 PUSH1 0x0 CODECOPY PUSH1 0x0 RETURN INVALID PUSH1 0x80 PUSH1 0x40 MSTORE CALLVALUE DUP1 ISZERO PUSH2 0x10 JUMPI PUSH1 0x0 DUP1 REVERT JUMPDEST POP PUSH1 0x4 CALLDATASIZE LT PUSH2 0x2B JUMPI PUSH1 0x0 CALLDATALOAD PUSH1 0xE0 SHR DUP1 PUSH4 0x7BA91041 EQ PUSH2 0x30 JUMPI JUMPDEST PUSH1 0x0 DUP1 REVERT JUMPDEST PUSH2 0x4A PUSH1 0x4 DUP1 CALLDATASIZE SUB DUP2 ADD SWAP1 PUSH2 0x45 SWAP2 SWAP1 PUSH2 0x591 JUMP JUMPDEST PUSH2 0x4C JUMP JUMPDEST STOP JUMPDEST PUSH1 0x0 DUP4 MLOAD GT PUSH2 0x90 JUMPI PUSH1 0x40 MLOAD PUSH32 0x8C379A000000000000000000000000000000000000000000000000000000000 DUP2 MSTORE PUSH1 0x4 ADD PUSH2 0x87 SWAP1 PUSH2 0x695 JUMP JUMPDEST PUSH1 0x40 MLOAD DUP1 SWAP2 SUB SWAP1 REVERT JUMPDEST PUSH1 0x1 DUP2 MLOAD GT PUSH2 0xD4 JUMPI PUSH1 0x40 MLOAD PUSH32 0x8C379A000000000000000000000000000000000000000000000000000000000 DUP2 MSTORE PUSH1 0x4 ADD PUSH2 0xCB SWAP1 PUSH2 0x701 JUMP JUMPDEST PUSH1 0x40 MLOAD DUP1 SWAP2 SUB SWAP1 REVERT JUMPDEST PUSH1 0x0 DUP1 DUP1 SLOAD SWAP1 POP SWAP1 POP PUSH1 0x0 PUSH1 0x40 MLOAD DUP1 PUSH1 0xA0 ADD PUSH1 0x40 MSTORE DUP1 DUP4 DUP2 MSTORE PUSH1 0x20 ADD DUP7 DUP2 MSTORE PUSH1 0x20 ADD DUP6 DUP2 MSTORE PUSH1 0x20 ADD DUP5 MLOAD PUSH8 0xFFFFFFFFFFFFFFFF DUP2 GT ISZERO PUSH2 0x117 JUMPI PUSH2 0x116 PUSH2 0x368 JUMP JUMPDEST JUMPDEST PUSH1 0x40 MLOAD SWAP1 DUP1 DUP3 MSTORE DUP1 PUSH1 0x20 MUL PUSH1 0x20 ADD DUP3 ADD PUSH1 0x40 MSTORE DUP1 ISZERO PUSH2 0x145 JUMPI DUP2 PUSH1 0x20 ADD PUSH1 0x20 DUP3 MUL DUP1 CALLDATASIZE DUP4 CALLDATACOPY DUP1 DUP3 ADD SWAP2 POP POP SWAP1 POP JUMPDEST POP DUP2 MSTORE PUSH1 0x20 ADD DUP5 DUP2 MSTORE POP SWAP1 POP PUSH1 0x0 DUP2 SWAP1 DUP1 PUSH1 0x1 DUP2 SLOAD ADD DUP1 DUP3 SSTORE DUP1 SWAP2 POP POP PUSH1 0x1 SWAP1 SUB SWAP1 PUSH1 0x0 MSTORE PUSH1 0x20 PUSH1 0x0 KECCAK256 SWAP1 PUSH1 0x5 MUL ADD PUSH1 0x0 SWAP1 SWAP2 SWAP1 SWAP2 SWAP1 SWAP2 POP PUSH1 0x0 DUP3 ADD MLOAD DUP2 PUSH1 0x0 ADD SSTORE PUSH1 0x20 DUP3 ADD MLOAD DUP2 PUSH1 0x1 ADD SWAP1 DUP2 PUSH2 0x19C SWAP2 SWAP1 PUSH2 0x942 JUMP JUMPDEST POP PUSH1 0x40 DUP3 ADD MLOAD DUP2 PUSH1 0x2 ADD SWAP1 DUP2 PUSH2 0x1B2 SWAP2 SWAP1 PUSH2 0x942 JUMP JUMPDEST POP PUSH1 0x60 DUP3 ADD MLOAD DUP2 PUSH1 0x3 ADD SWAP1 DUP1 MLOAD SWAP1 PUSH1 0x20 ADD SWAP1 PUSH2 0x1CF SWAP3 SWAP2 SWAP1 PUSH2 0x1F6 JUMP JUMPDEST POP PUSH1 0x80 DUP3 ADD MLOAD DUP2 PUSH1 0x4 ADD SWAP1 DUP1 MLOAD SWAP1 PUSH1 0x20 ADD SWAP1 PUSH2 0x1EC SWAP3 SWAP2 SWAP1 PUSH2 0x2B2 JUMP JUMPDEST POP POP POP POP POP POP POP POP JUMP JUMPDEST DUP3 DUP1 SLOAD DUP3 DUP3 SSTORE SWAP1 PUSH1 0x0 MSTORE PUSH1 0x20 PUSH1 0x0 KECCAK256 SWAP1 PUSH1 0x3 ADD PUSH1 0x4 SWAP1 DIV DUP2 ADD SWAP3 DUP3 ISZERO PUSH2 0x2A1 JUMPI SWAP2 PUSH1 0x20 MUL DUP3 ADD PUSH1 0x0 JUMPDEST DUP4 DUP3 GT ISZERO PUSH2 0x26B JUMPI DUP4 MLOAD DUP4 DUP3 PUSH2 0x100 EXP DUP2 SLOAD DUP2 PUSH8 0xFFFFFFFFFFFFFFFF MUL NOT AND SWAP1 DUP4 PUSH8 0xFFFFFFFFFFFFFFFF AND MUL OR SWAP1 SSTORE POP SWAP3 PUSH1 0x20 ADD SWAP3 PUSH1 0x8 ADD PUSH1 0x20 DUP2 PUSH1 0x7 ADD DIV SWAP3 DUP4 ADD SWAP3 PUSH1 0x1 SUB MUL PUSH2 0x21F JUMP JUMPDEST DUP1 ISZERO PUSH2 0x29F JUMPI DUP3 DUP2 PUSH2 0x100 EXP DUP2 SLOAD SWAP1 PUSH8 0xFFFFFFFFFFFFFFFF MUL NOT AND SWAP1 SSTORE PUSH1 0x8 ADD PUSH1 0x20 DUP2 PUSH1 0x7 ADD DIV SWAP3 DUP4 ADD SWAP3 PUSH1 0x1 SUB MUL PUSH2 0x26B JUMP JUMPDEST POP JUMPDEST POP SWAP1 POP PUSH2 0x2AE SWAP2 SWAP1 PUSH2 0x2FF JUMP JUMPDEST POP SWAP1 JUMP JUMPDEST DUP3 DUP1 SLOAD DUP3 DUP3 SSTORE SWAP1 PUSH1 0x0 MSTORE PUSH1 0x20 PUSH1 0x0 KECCAK256 SWAP1 DUP2 ADD SWAP3 DUP3 ISZERO PUSH2 0x2EE JUMPI SWAP2 PUSH1 0x20 MUL DUP3 ADD JUMPDEST DUP3 DUP2 GT ISZERO PUSH2 0x2ED JUMPI DUP3 MLOAD DUP3 SSTORE SWAP2 PUSH1 0x20 ADD SWAP2 SWAP1 PUSH1 0x1 ADD SWAP1 PUSH2 0x2D2 JUMP JUMPDEST JUMPDEST POP SWAP1 POP PUSH2 0x2FB SWAP2 SWAP1 PUSH2 0x31C JUMP JUMPDEST POP SWAP1 JUMP JUMPDEST JUMPDEST DUP1 DUP3 GT ISZERO PUSH2 0x318 JUMPI PUSH1 0x0 DUP2 PUSH1 0x0 SWAP1 SSTORE POP PUSH1 0x1 ADD PUSH2 0x300 JUMP JUMPDEST POP SWAP1 JUMP JUMPDEST JUMPDEST DUP1 DUP3 GT ISZERO PUSH2 0x335 JUMPI PUSH1 0x0 DUP2 PUSH1 0x0 SWAP1 SSTORE POP PUSH1 0x1 ADD PUSH2 0x31D JUMP JUMPDEST POP SWAP1 JUMP JUMPDEST PUSH1 0x0 PUSH1 0x40 MLOAD SWAP1 POP SWAP1 JUMP JUMPDEST PUSH1 0x0 DUP1 REVERT JUMPDEST PUSH1 0x0 DUP1 REVERT JUMPDEST PUSH1 0x0 DUP1 REVERT JUMPDEST PUSH1 0x0 DUP1 REVERT JUMPDEST PUSH1 0x0 PUSH1 0x1F NOT PUSH1 0x1F DUP4 ADD AND SWAP1 POP SWAP2 SWAP1 POP JUMP JUMPDEST PUSH32 0x4E487B7100000000000000000000000000000000000000000000000000000000 PUSH1 0x0 MSTORE PUSH1 0x41 PUSH1 0x4 MSTORE PUSH1 0x24 PUSH1 0x0 REVERT JUMPDEST PUSH2 0x3A0 DUP3 PUSH2 0x357 JUMP JUMPDEST DUP2 ADD DUP2 DUP2 LT PUSH8 0xFFFFFFFFFFFFFFFF DUP3 GT OR ISZERO PUSH2 0x3BF JUMPI PUSH2 0x3BE PUSH2 0x368 JUMP JUMPDEST JUMPDEST DUP1 PUSH1 0x40 MSTORE POP POP POP JUMP JUMPDEST PUSH1 0x0 PUSH2 0x3D2 PUSH2 0x339 JUMP JUMPDEST SWAP1 POP PUSH2 0x3DE DUP3 DUP3 PUSH2 0x397 JUMP JUMPDEST SWAP2 SWAP1 POP JUMP JUMPDEST PUSH1 0x0 PUSH8 0xFFFFFFFFFFFFFFFF DUP3 GT ISZERO PUSH2 0x3FE JUMPI PUSH2 0x3FD PUSH2 0x368 JUMP JUMPDEST JUMPDEST PUSH2 0x407 DUP3 PUSH2 0x357 JUMP JUMPDEST SWAP1 POP PUSH1 0x20 DUP2 ADD SWAP1 POP SWAP2 SWAP1 POP JUMP JUMPDEST DUP3 DUP2 DUP4 CALLDATACOPY PUSH1 0x0 DUP4 DUP4 ADD MSTORE POP POP POP JUMP JUMPDEST PUSH1 0x0 PUSH2 0x436 PUSH2 0x431 DUP5 PUSH2 0x3E3 JUMP JUMPDEST PUSH2 0x3C8 JUMP JUMPDEST SWAP1 POP DUP3 DUP2 MSTORE PUSH1 0x20 DUP2 ADD DUP5 DUP5 DUP5 ADD GT ISZERO PUSH2 0x452 JUMPI PUSH2 0x451 PUSH2 0x352 JUMP JUMPDEST JUMPDEST PUSH2 0x45D DUP5 DUP3 DUP6 PUSH2 0x414 JUMP JUMPDEST POP SWAP4 SWAP3 POP POP POP JUMP JUMPDEST PUSH1 0x0 DUP3 PUSH1 0x1F DUP4 ADD SLT PUSH2 0x47A JUMPI PUSH2 0x479 PUSH2 0x34D JUMP JUMPDEST JUMPDEST DUP2 CALLDATALOAD PUSH2 0x48A DUP5 DUP3 PUSH1 0x20 DUP7 ADD PUSH2 0x423 JUMP JUMPDEST SWAP2 POP POP SWAP3 SWAP2 POP POP JUMP JUMPDEST PUSH1 0x0 PUSH8 0xFFFFFFFFFFFFFFFF DUP3 GT ISZERO PUSH2 0x4AE JUMPI PUSH2 0x4AD PUSH2 0x368 JUMP JUMPDEST JUMPDEST PUSH1 0x20 DUP3 MUL SWAP1 POP PUSH1 0x20 DUP2 ADD SWAP1 POP SWAP2 SWAP1 POP JUMP JUMPDEST PUSH1 0x0 DUP1 REVERT JUMPDEST PUSH1 0x0 DUP2 SWAP1 POP SWAP2 SWAP1 POP JUMP JUMPDEST PUSH2 0x4D7 DUP2 PUSH2 0x4C4 JUMP JUMPDEST DUP2 EQ PUSH2 0x4E2 JUMPI PUSH1 0x0 DUP1 REVERT JUMPDEST POP JUMP JUMPDEST PUSH1 0x0 DUP2 CALLDATALOAD SWAP1 POP PUSH2 0x4F4 DUP2 PUSH2 0x4CE JUMP JUMPDEST SWAP3 SWAP2 POP POP JUMP JUMPDEST PUSH1 0x0 PUSH2 0x50D PUSH2 0x508 DUP5 PUSH2 0x493 JUMP JUMPDEST PUSH2 0x3C8 JUMP JUMPDEST SWAP1 POP DUP1 DUP4 DUP3 MSTORE PUSH1 0x20 DUP3 ADD SWAP1 POP PUSH1 0x20 DUP5 MUL DUP4 ADD DUP6 DUP2 GT ISZERO PUSH2 0x530 JUMPI PUSH2 0x52F PUSH2 0x4BF JUMP JUMPDEST JUMPDEST DUP4 JUMPDEST DUP2 DUP2 LT ISZERO PUSH2 0x559 JUMPI DUP1 PUSH2 0x545 DUP9 DUP3 PUSH2 0x4E5 JUMP JUMPDEST DUP5 MSTORE PUSH1 0x20 DUP5 ADD SWAP4 POP POP PUSH1 0x20 DUP2 ADD SWAP1 POP PUSH2 0x532 JUMP JUMPDEST POP POP POP SWAP4 SWAP3 POP POP POP JUMP JUMPDEST PUSH1 0x0 DUP3 PUSH1 0x1F DUP4 ADD SLT PUSH2 0x578 JUMPI PUSH2 0x577 PUSH2 0x34D JUMP JUMPDEST JUMPDEST DUP2 CALLDATALOAD PUSH2 0x588 DUP5 DUP3 PUSH1 0x20 DUP7 ADD PUSH2 0x4FA JUMP JUMPDEST SWAP2 POP POP SWAP3 SWAP2 POP POP JUMP JUMPDEST PUSH1 0x0 DUP1 PUSH1 0x0 PUSH1 0x60 DUP5 DUP7 SUB SLT ISZERO PUSH2 0x5AA JUMPI PUSH2 0x5A9 PUSH2 0x343 JUMP JUMPDEST JUMPDEST PUSH1 0x0 DUP5 ADD CALLDATALOAD PUSH8 0xFFFFFFFFFFFFFFFF DUP2 GT ISZERO PUSH2 0x5C8 JUMPI PUSH2 0x5C7 PUSH2 0x348 JUMP JUMPDEST JUMPDEST PUSH2 0x5D4 DUP7 DUP3 DUP8 ADD PUSH2 0x465 JUMP JUMPDEST SWAP4 POP POP PUSH1 0x20 DUP5 ADD CALLDATALOAD PUSH8 0xFFFFFFFFFFFFFFFF DUP2 GT ISZERO PUSH2 0x5F5 JUMPI PUSH2 0x5F4 PUSH2 0x348 JUMP JUMPDEST JUMPDEST PUSH2 0x601 DUP7 DUP3 DUP8 ADD PUSH2 0x465 JUMP JUMPDEST SWAP3 POP POP PUSH1 0x40 DUP5 ADD CALLDATALOAD PUSH8 0xFFFFFFFFFFFFFFFF DUP2 GT ISZERO PUSH2 0x622 JUMPI PUSH2 0x621 PUSH2 0x348 JUMP JUMPDEST JUMPDEST PUSH2 0x62E DUP7 DUP3 DUP8 ADD PUSH2 0x563 JUMP JUMPDEST SWAP2 POP POP SWAP3 POP SWAP3 POP SWAP3 JUMP JUMPDEST PUSH1 0x0 DUP3 DUP3 MSTORE PUSH1 0x20 DUP3 ADD SWAP1 POP SWAP3 SWAP2 POP POP JUMP JUMPDEST PUSH32 0x456D707479207175657374696F6E000000000000000000000000000000000000 PUSH1 0x0 DUP3 ADD MSTORE POP JUMP JUMPDEST PUSH1 0x0 PUSH2 0x67F PUSH1 0xE DUP4 PUSH2 0x638 JUMP JUMPDEST SWAP2 POP PUSH2 0x68A DUP3 PUSH2 0x649 JUMP JUMPDEST PUSH1 0x20 DUP3 ADD SWAP1 POP SWAP2 SWAP1 POP JUMP JUMPDEST PUSH1 0x0 PUSH1 0x20 DUP3 ADD SWAP1 POP DUP2 DUP2 SUB PUSH1 0x0 DUP4 ADD MSTORE PUSH2 0x6AE DUP2 PUSH2 0x672 JUMP JUMPDEST SWAP1 POP SWAP2 SWAP1 POP JUMP JUMPDEST PUSH32 0x4174206C656173742032206F7074696F6E732072657175697265640000000000 PUSH1 0x0 DUP3 ADD MSTORE POP JUMP JUMPDEST PUSH1 0x0 PUSH2 0x6EB PUSH1 0x1B DUP4 PUSH2 0x638 JUMP JUMPDEST SWAP2 POP PUSH2 0x6F6 DUP3 PUSH2 0x6B5 JUMP JUMPDEST PUSH1 0x20 DUP3 ADD SWAP1 POP SWAP2 SWAP1 POP JUMP JUMPDEST PUSH1 0x0 PUSH1 0x20 DUP3 ADD SWAP1 POP DUP2 DUP2 SUB PUSH1 0x0 DUP4 ADD MSTORE PUSH2 0x71A DUP2 PUSH2 0x6DE JUMP JUMPDEST SWAP1 POP SWAP2 SWAP1 POP JUMP JUMPDEST PUSH1 0x0 DUP2 MLOAD SWAP1 POP SWAP2 SWAP1 POP JUMP JUMPDEST PUSH32 0x4E487B7100000000000000000000000000000000000000000000000000000000 PUSH1 0x0 MSTORE PUSH1 0x22 PUSH1 0x4 MSTORE PUSH1 0x24 PUSH1 0x0 REVERT JUMPDEST PUSH1 0x0 PUSH1 0x2 DUP3 DIV SWAP1 POP PUSH1 0x1 DUP3 AND DUP1 PUSH2 0x773 JUMPI PUSH1 0x7F DUP3 AND SWAP2 POP JUMPDEST PUSH1 0x20 DUP3 LT DUP2 SUB PUSH2 0x786 JUMPI PUSH2 0x785 PUSH2 0x72C JUMP JUMPDEST JUMPDEST POP SWAP2 SWAP1 POP JUMP JUMPDEST PUSH1 0x0 DUP2 SWAP1 POP DUP2 PUSH1 0x0 MSTORE PUSH1 0x20 PUSH1 0x0 KECCAK256 SWAP1 POP SWAP2 SWAP1 POP JUMP JUMPDEST PUSH1 0x0 PUSH1 0x20 PUSH1 0x1F DUP4 ADD DIV SWAP1 POP SWAP2 SWAP1 POP JUMP JUMPDEST PUSH1 0x0 DUP3 DUP3 SHL SWAP1 POP SWAP3 SWAP2 POP POP JUMP JUMPDEST PUSH1 0x0 PUSH1 0x8 DUP4 MUL PUSH2 0x7EE PUSH32 0xFFFFFFFFFFFFFFFFFFFFFFFFFFFFFFFFFFFFFFFFFFFFFFFFFFFFFFFFFFFFFFFF DUP3 PUSH2 0x7B1 JUMP JUMPDEST PUSH2 0x7F8 DUP7 DUP4 PUSH2 0x7B1 JUMP JUMPDEST SWAP6 POP DUP1 NOT DUP5 AND SWAP4 POP DUP1 DUP7 AND DUP5 OR SWAP3 POP POP POP SWAP4 SWAP3 POP POP POP JUMP JUMPDEST PUSH1 0x0 DUP2 SWAP1 POP SWAP2 SWAP1 POP JUMP JUMPDEST PUSH1 0x0 DUP2 SWAP1 POP SWAP2 SWAP1 POP JUMP JUMPDEST PUSH1 0x0 PUSH2 0x83F PUSH2 0x83A PUSH2 0x835 DUP5 PUSH2 0x810 JUMP JUMPDEST PUSH2 0x81A JUMP JUMPDEST PUSH2 0x810 JUMP JUMPDEST SWAP1 POP SWAP2 SWAP1 POP JUMP JUMPDEST PUSH1 0x0 DUP2 SWAP1 POP SWAP2 SWAP1 POP JUMP JUMPDEST PUSH2 0x859 DUP4 PUSH2 0x824 JUMP JUMPDEST PUSH2 0x86D PUSH2 0x865 DUP3 PUSH2 0x846 JUMP JUMPDEST DUP5 DUP5 SLOAD PUSH2 0x7BE JUMP JUMPDEST DUP3 SSTORE POP POP POP POP JUMP JUMPDEST PUSH1 0x0 SWAP1 JUMP JUMPDEST PUSH2 0x882 PUSH2 0x875 JUMP JUMPDEST PUSH2 0x88D DUP2 DUP5 DUP5 PUSH2 0x850 JUMP JUMPDEST POP POP POP JUMP JUMPDEST JUMPDEST DUP2 DUP2 LT ISZERO PUSH2 0x8B1 JUMPI PUSH2 0x8A6 PUSH1 0x0 DUP3 PUSH2 0x87A JUMP JUMPDEST PUSH1 0x1 DUP2 ADD SWAP1 POP PUSH2 0x893 JUMP JUMPDEST POP POP JUMP JUMPDEST PUSH1 0x1F DUP3 GT ISZERO PUSH2 0x8F6 JUMPI PUSH2 0x8C7 DUP2 PUSH2 0x78C JUMP JUMPDEST PUSH2 0x8D0 DUP5 PUSH2 0x7A1 JUMP JUMPDEST DUP2 ADD PUSH1 0x20 DUP6 LT ISZERO PUSH2 0x8DF JUMPI DUP2 SWAP1 POP JUMPDEST PUSH2 0x8F3 PUSH2 0x8EB DUP6 PUSH2 0x7A1 JUMP JUMPDEST DUP4 ADD DUP3 PUSH2 0x892 JUMP JUMPDEST POP POP JUMPDEST POP POP POP JUMP JUMPDEST PUSH1 0x0 DUP3 DUP3 SHR SWAP1 POP SWAP3 SWAP2 POP POP JUMP JUMPDEST PUSH1 0x0 PUSH2 0x919 PUSH1 0x0 NOT DUP5 PUSH1 0x8 MUL PUSH2 0x8FB JUMP JUMPDEST NOT DUP1 DUP4 AND SWAP2 POP POP SWAP3 SWAP2 POP POP JUMP JUMPDEST PUSH1 0x0 PUSH2 0x932 DUP4 DUP4 PUSH2 0x908 JUMP JUMPDEST SWAP2 POP DUP3 PUSH1 0x2 MUL DUP3 OR SWAP1 POP SWAP3 SWAP2 POP POP JUMP JUMPDEST PUSH2 0x94B DUP3 PUSH2 0x721 JUMP JUMPDEST PUSH8 0xFFFFFFFFFFFFFFFF DUP2 GT ISZERO PUSH2 0x964 JUMPI PUSH2 0x963 PUSH2 0x368 JUMP JUMPDEST JUMPDEST PUSH2 0x96E DUP3 SLOAD PUSH2 0x75B JUMP JUMPDEST PUSH2 0x979 DUP3 DUP3 DUP6 PUSH2 0x8B5 JUMP JUMPDEST PUSH1 0x0 PUSH1 0x20 SWAP1 POP PUSH1 0x1F DUP4 GT PUSH1 0x1 DUP2 EQ PUSH2 0x9AC JUMPI PUSH1 0x0 DUP5 ISZERO PUSH2 0x99A JUMPI DUP3 DUP8 ADD MLOAD SWAP1 POP JUMPDEST PUSH2 0x9A4 DUP6 DUP3 PUSH2 0x926 JUMP JUMPDEST DUP7 SSTORE POP PUSH2 0xA0C JUMP JUMPDEST PUSH1 0x1F NOT DUP5 AND PUSH2 0x9BA DUP7 PUSH2 0x78C JUMP JUMPDEST PUSH1 0x0 JUMPDEST DUP3 DUP2 LT ISZERO PUSH2 0x9E2 JUMPI DUP5 DUP10 ADD MLOAD DUP3 SSTORE PUSH1 0x1 DUP3 ADD SWAP2 POP PUSH1 0x20 DUP6 ADD SWAP5 POP PUSH1 0x20 DUP2 ADD SWAP1 POP PUSH2 0x9BD JUMP JUMPDEST DUP7 DUP4 LT ISZERO PUSH2 0x9FF JUMPI DUP5 DUP10 ADD MLOAD PUSH2 0x9FB PUSH1 0x1F DUP10 AND DUP3 PUSH2 0x908 JUMP JUMPDEST DUP4 SSTORE POP JUMPDEST PUSH1 0x1 PUSH1 0x2 DUP9 MUL ADD DUP9 SSTORE POP POP POP JUMPDEST POP POP POP POP POP POP JUMP INVALID LOG2 PUSH5 0x6970667358 0x22 SLT KECCAK256 SWAP6 EXTCODECOPY SWAP15 ISZERO JUMPDEST SDIV 0xF 0xFB 0xB9 0xB6 POP 0xC7 0xF8 ADD PUSH19 0xBF949D65F376783EA08B700098DD31A5F26473 PUSH16 0x6C634300081000330000000000000000 "
				},
				"gasEstimates": {
					"creation": {
						"codeDepositCost": "526800",
						"executionCost": "562",
						"totalCost": "527362"
					},
					"external": {
						"createPoll(string,string,bytes32[])": "infinite"
					}
				},
				"methodIdentifiers": {
					"createPoll(string,string,bytes32[])": "7ba91041"
				}
			},
			"storageLayout": {
				"storage": [
					{
						"astId": 28,
						"contract": "poll.sol:PollContract",
						"label": "polls",
						"offset": 0,
						"slot": "0",
						"type": "t_array(t_struct(Poll)14_storage)dyn_storage"
					},
					{
						"astId": 33,
						"contract": "poll.sol:PollContract",
						"label": "voters",
						"offset": 0,
						"slot": "1",
						"type": "t_mapping(t_address,t_struct(Voter)24_storage)"
					}
				],
				"types": {
					"t_address": {
						"encoding": "inplace",
						"label": "address",
						"numberOfBytes": "20"
					},
					"t_array(t_bytes32)dyn_storage": {
						"base": "t_bytes32",
						"encoding": "dynamic_array",
						"label": "bytes32[]",
						"numberOfBytes": "32"
					},
					"t_array(t_struct(Poll)14_storage)dyn_storage": {
						"base": "t_struct(Poll)14_storage",
						"encoding": "dynamic_array",
						"label": "struct PollContract.Poll[]",
						"numberOfBytes": "32"
					},
					"t_array(t_uint256)dyn_storage": {
						"base": "t_uint256",
						"encoding": "dynamic_array",
						"label": "uint256[]",
						"numberOfBytes": "32"
					},
					"t_array(t_uint64)dyn_storage": {
						"base": "t_uint64",
						"encoding": "dynamic_array",
						"label": "uint64[]",
						"numberOfBytes": "32"
					},
					"t_bool": {
						"encoding": "inplace",
						"label": "bool",
						"numberOfBytes": "1"
					},
					"t_bytes32": {
						"encoding": "inplace",
						"label": "bytes32",
						"numberOfBytes": "32"
					},
					"t_mapping(t_address,t_struct(Voter)24_storage)": {
						"encoding": "mapping",
						"key": "t_address",
						"label": "mapping(address => struct PollContract.Voter)",
						"numberOfBytes": "32",
						"value": "t_struct(Voter)24_storage"
					},
					"t_mapping(t_uint256,t_bool)": {
						"encoding": "mapping",
						"key": "t_uint256",
						"label": "mapping(uint256 => bool)",
						"numberOfBytes": "32",
						"value": "t_bool"
					},
					"t_string_storage": {
						"encoding": "bytes",
						"label": "string",
						"numberOfBytes": "32"
					},
					"t_struct(Poll)14_storage": {
						"encoding": "inplace",
						"label": "struct PollContract.Poll",
						"members": [
							{
								"astId": 3,
								"contract": "poll.sol:PollContract",
								"label": "id",
								"offset": 0,
								"slot": "0",
								"type": "t_uint256"
							},
							{
								"astId": 5,
								"contract": "poll.sol:PollContract",
								"label": "question",
								"offset": 0,
								"slot": "1",
								"type": "t_string_storage"
							},
							{
								"astId": 7,
								"contract": "poll.sol:PollContract",
								"label": "thumbnail",
								"offset": 0,
								"slot": "2",
								"type": "t_string_storage"
							},
							{
								"astId": 10,
								"contract": "poll.sol:PollContract",
								"label": "votes",
								"offset": 0,
								"slot": "3",
								"type": "t_array(t_uint64)dyn_storage"
							},
							{
								"astId": 13,
								"contract": "poll.sol:PollContract",
								"label": "options",
								"offset": 0,
								"slot": "4",
								"type": "t_array(t_bytes32)dyn_storage"
							}
						],
						"numberOfBytes": "160"
					},
					"t_struct(Voter)24_storage": {
						"encoding": "inplace",
						"label": "struct PollContract.Voter",
						"members": [
							{
								"astId": 16,
								"contract": "poll.sol:PollContract",
								"label": "id",
								"offset": 0,
								"slot": "0",
								"type": "t_address"
							},
							{
								"astId": 19,
								"contract": "poll.sol:PollContract",
								"label": "votedIds",
								"offset": 0,
								"slot": "1",
								"type": "t_array(t_uint256)dyn_storage"
							},
							{
								"astId": 23,
								"contract": "poll.sol:PollContract",
								"label": "votedMap",
								"offset": 0,
								"slot": "2",
								"type": "t_mapping(t_uint256,t_bool)"
							}
						],
						"numberOfBytes": "96"
					},
					"t_uint256": {
						"encoding": "inplace",
						"label": "uint256",
						"numberOfBytes": "32"
					},
					"t_uint64": {
						"encoding": "inplace",
						"label": "uint64",
						"numberOfBytes": "8"
					}
				}
			},
			"userdoc": {
				"kind": "user",
				"methods": {},
				"version": 1
			}
		}
	}
}