{
	"poll.sol": {
		"PollContract": {
			"abi": [
				{
					"inputs": [
						{
							"internalType": "string",
							"name": "_question",
							"type": "string"
						},
						{
							"internalType": "string",
							"name": "_thumb",
							"type": "string"
						},
						{
							"internalType": "bytes32[]",
							"name": "_options",
							"type": "bytes32[]"
						}
					],
					"name": "createPoll",
					"outputs": [],
					"stateMutability": "nonpayable",
					"type": "function"
				},
				{
					"inputs": [
						{
							"internalType": "uint64",
							"name": "_pollId",
							"type": "uint64"
						}
					],
					"name": "getPoll",
					"outputs": [
						{
							"internalType": "uint256",
							"name": "",
							"type": "uint256"
						},
						{
							"internalType": "string",
							"name": "",
							"type": "string"
						},
						{
							"internalType": "string",
							"name": "",
							"type": "string"
						},
						{
							"internalType": "uint64[]",
							"name": "",
							"type": "uint64[]"
						},
						{
							"internalType": "bytes32[]",
							"name": "",
							"type": "bytes32[]"
						}
					],
					"stateMutability": "view",
					"type": "function"
				}
			],
			"devdoc": {
				"kind": "dev",
				"methods": {},
				"version": 1
			},
			"evm": {
				"assembly": "    /* \"poll.sol\":26:1344  contract PollContract {... */\n  mstore(0x40, 0x80)\n  callvalue\n  dup1\n  iszero\n  tag_1\n  jumpi\n  0x00\n  dup1\n  revert\ntag_1:\n  pop\n  dataSize(sub_0)\n  dup1\n  dataOffset(sub_0)\n  0x00\n  codecopy\n  0x00\n  return\nstop\n\nsub_0: assembly {\n        /* \"poll.sol\":26:1344  contract PollContract {... */\n      mstore(0x40, 0x80)\n      callvalue\n      dup1\n      iszero\n      tag_1\n      jumpi\n      0x00\n      dup1\n      revert\n    tag_1:\n      pop\n      jumpi(tag_2, lt(calldatasize, 0x04))\n      shr(0xe0, calldataload(0x00))\n      dup1\n      0x157bd75d\n      eq\n      tag_3\n      jumpi\n      dup1\n      0x7ba91041\n      eq\n      tag_4\n      jumpi\n    tag_2:\n      0x00\n      dup1\n      revert\n        /* \"poll.sol\":929:1342  function getPoll(uint64 _pollId) external view returns(uint256, string memory, string memory, uint64[] memory, bytes32[] memory) {... */\n    tag_3:\n      tag_5\n      0x04\n      dup1\n      calldatasize\n      sub\n      dup2\n      add\n      swap1\n      tag_6\n      swap2\n      swap1\n      tag_7\n      jump\t// in\n    tag_6:\n      tag_8\n      jump\t// in\n    tag_5:\n      mload(0x40)\n      tag_9\n      swap6\n      swap5\n      swap4\n      swap3\n      swap2\n      swap1\n      tag_10\n      jump\t// in\n    tag_9:\n      mload(0x40)\n      dup1\n      swap2\n      sub\n      swap1\n      return\n        /* \"poll.sol\":393:923  function createPoll(string memory _question, string memory _thumb, bytes32[] memory _options) public  {... */\n    tag_4:\n      tag_11\n      0x04\n      dup1\n      calldatasize\n      sub\n      dup2\n      add\n      swap1\n      tag_12\n      swap2\n      swap1\n      tag_13\n      jump\t// in\n    tag_12:\n      tag_14\n      jump\t// in\n    tag_11:\n      stop\n        /* \"poll.sol\":929:1342  function getPoll(uint64 _pollId) external view returns(uint256, string memory, string memory, uint64[] memory, bytes32[] memory) {... */\n    tag_8:\n        /* \"poll.sol\":984:991  uint256 */\n      0x00\n        /* \"poll.sol\":993:1006  string memory */\n      0x60\n        /* \"poll.sol\":1008:1021  string memory */\n      dup1\n        /* \"poll.sol\":1023:1038  uint64[] memory */\n      0x60\n        /* \"poll.sol\":1040:1056  bytes32[] memory */\n      dup1\n        /* \"poll.sol\":1086:1091  polls */\n      0x00\n        /* \"poll.sol\":1086:1098  polls.length */\n      dup1\n      sload\n      swap1\n      pop\n        /* \"poll.sol\":1076:1083  _pollId */\n      dup7\n        /* \"poll.sol\":1076:1098  _pollId < polls.length */\n      0xffffffffffffffff\n      and\n      lt\n        /* \"poll.sol\":1076:1114  _pollId < polls.length && _pollId >= 0 */\n      dup1\n      iszero\n      tag_16\n      jumpi\n      pop\n        /* \"poll.sol\":1113:1114  0 */\n      0x00\n        /* \"poll.sol\":1102:1109  _pollId */\n      dup7\n        /* \"poll.sol\":1102:1114  _pollId >= 0 */\n      0xffffffffffffffff\n      and\n      lt\n      iszero\n        /* \"poll.sol\":1076:1114  _pollId < polls.length && _pollId >= 0 */\n    tag_16:\n        /* \"poll.sol\":1068:1132  require(_pollId < polls.length && _pollId >= 0, \"No poll found\") */\n      tag_17\n      jumpi\n      mload(0x40)\n      0x08c379a000000000000000000000000000000000000000000000000000000000\n      dup2\n      mstore\n      0x04\n      add\n      tag_18\n      swap1\n      tag_19\n      jump\t// in\n    tag_18:\n      mload(0x40)\n      dup1\n      swap2\n      sub\n      swap1\n      revert\n    tag_17:\n        /* \"poll.sol\":1163:1168  polls */\n      0x00\n        /* \"poll.sol\":1169:1176  _pollId */\n      dup7\n        /* \"poll.sol\":1163:1177  polls[_pollId] */\n      0xffffffffffffffff\n      and\n      dup2\n      sload\n      dup2\n      lt\n      tag_20\n      jumpi\n      tag_21\n      tag_22\n      jump\t// in\n    tag_21:\n    tag_20:\n      swap1\n      0x00\n      mstore\n      keccak256(0x00, 0x20)\n      swap1\n      0x05\n      mul\n      add\n        /* \"poll.sol\":1163:1180  polls[_pollId].id */\n      0x00\n      add\n      sload\n        /* \"poll.sol\":1194:1199  polls */\n      0x00\n        /* \"poll.sol\":1200:1207  _pollId */\n      dup8\n        /* \"poll.sol\":1194:1208  polls[_pollId] */\n      0xffffffffffffffff\n      and\n      dup2\n      sload\n      dup2\n      lt\n      tag_24\n      jumpi\n      tag_25\n      tag_22\n      jump\t// in\n    tag_25:\n    tag_24:\n      swap1\n      0x00\n      mstore\n      keccak256(0x00, 0x20)\n      swap1\n      0x05\n      mul\n      add\n        /* \"poll.sol\":1194:1217  polls[_pollId].question */\n      0x01\n      add\n        /* \"poll.sol\":1231:1236  polls */\n      0x00\n        /* \"poll.sol\":1237:1244  _pollId */\n      dup9\n        /* \"poll.sol\":1231:1245  polls[_pollId] */\n      0xffffffffffffffff\n      and\n      dup2\n      sload\n      dup2\n      lt\n      tag_27\n      jumpi\n      tag_28\n      tag_22\n      jump\t// in\n    tag_28:\n    tag_27:\n      swap1\n      0x00\n      mstore\n      keccak256(0x00, 0x20)\n      swap1\n      0x05\n      mul\n      add\n        /* \"poll.sol\":1231:1255  polls[_pollId].thumbnail */\n      0x02\n      add\n        /* \"poll.sol\":1269:1274  polls */\n      0x00\n        /* \"poll.sol\":1275:1282  _pollId */\n      dup10\n        /* \"poll.sol\":1269:1283  polls[_pollId] */\n      0xffffffffffffffff\n      and\n      dup2\n      sload\n      dup2\n      lt\n      tag_30\n      jumpi\n      tag_31\n      tag_22\n      jump\t// in\n    tag_31:\n    tag_30:\n      swap1\n      0x00\n      mstore\n      keccak256(0x00, 0x20)\n      swap1\n      0x05\n      mul\n      add\n        /* \"poll.sol\":1269:1289  polls[_pollId].votes */\n      0x03\n      add\n        /* \"poll.sol\":1303:1308  polls */\n      0x00\n        /* \"poll.sol\":1309:1316  _pollId */\n      dup11\n        /* \"poll.sol\":1303:1317  polls[_pollId] */\n      0xffffffffffffffff\n      and\n      dup2\n      sload\n      dup2\n      lt\n      tag_33\n      jumpi\n      tag_34\n      tag_22\n      jump\t// in\n    tag_34:\n    tag_33:\n      swap1\n      0x00\n      mstore\n      keccak256(0x00, 0x20)\n      swap1\n      0x05\n      mul\n      add\n        /* \"poll.sol\":1303:1325  polls[_pollId].options */\n      0x04\n      add\n        /* \"poll.sol\":1142:1335  return (... */\n      dup4\n      dup1\n      sload\n      tag_36\n      swap1\n      tag_37\n      jump\t// in\n    tag_36:\n      dup1\n      0x1f\n      add\n      0x20\n      dup1\n      swap2\n      div\n      mul\n      0x20\n      add\n      mload(0x40)\n      swap1\n      dup2\n      add\n      0x40\n      mstore\n      dup1\n      swap3\n      swap2\n      swap1\n      dup2\n      dup2\n      mstore\n      0x20\n      add\n      dup3\n      dup1\n      sload\n      tag_38\n      swap1\n      tag_37\n      jump\t// in\n    tag_38:\n      dup1\n      iszero\n      tag_39\n      jumpi\n      dup1\n      0x1f\n      lt\n      tag_40\n      jumpi\n      0x0100\n      dup1\n      dup4\n      sload\n      div\n      mul\n      dup4\n      mstore\n      swap2\n      0x20\n      add\n      swap2\n      jump(tag_39)\n    tag_40:\n      dup3\n      add\n      swap2\n      swap1\n      0x00\n      mstore\n      keccak256(0x00, 0x20)\n      swap1\n    tag_41:\n      dup2\n      sload\n      dup2\n      mstore\n      swap1\n      0x01\n      add\n      swap1\n      0x20\n      add\n      dup1\n      dup4\n      gt\n      tag_41\n      jumpi\n      dup3\n      swap1\n      sub\n      0x1f\n      and\n      dup3\n      add\n      swap2\n    tag_39:\n      pop\n      pop\n      pop\n      pop\n      pop\n      swap4\n      pop\n      dup3\n      dup1\n      sload\n      tag_42\n      swap1\n      tag_37\n      jump\t// in\n    tag_42:\n      dup1\n      0x1f\n      add\n      0x20\n      dup1\n      swap2\n      div\n      mul\n      0x20\n      add\n      mload(0x40)\n      swap1\n      dup2\n      add\n      0x40\n      mstore\n      dup1\n      swap3\n      swap2\n      swap1\n      dup2\n      dup2\n      mstore\n      0x20\n      add\n      dup3\n      dup1\n      sload\n      tag_43\n      swap1\n      tag_37\n      jump\t// in\n    tag_43:\n      dup1\n      iszero\n      tag_44\n      jumpi\n      dup1\n      0x1f\n      lt\n      tag_45\n      jumpi\n      0x0100\n      dup1\n      dup4\n      sload\n      div\n      mul\n      dup4\n      mstore\n      swap2\n      0x20\n      add\n      swap2\n      jump(tag_44)\n    tag_45:\n      dup3\n      add\n      swap2\n      swap1\n      0x00\n      mstore\n      keccak256(0x00, 0x20)\n      swap1\n    tag_46:\n      dup2\n      sload\n      dup2\n      mstore\n      swap1\n      0x01\n      add\n      swap1\n      0x20\n      add\n      dup1\n      dup4\n      gt\n      tag_46\n      jumpi\n      dup3\n      swap1\n      sub\n      0x1f\n      and\n      dup3\n      add\n      swap2\n    tag_44:\n      pop\n      pop\n      pop\n      pop\n      pop\n      swap3\n      pop\n      dup2\n      dup1\n      sload\n      dup1\n      0x20\n      mul\n      0x20\n      add\n      mload(0x40)\n      swap1\n      dup2\n      add\n      0x40\n      mstore\n      dup1\n      swap3\n      swap2\n      swap1\n      dup2\n      dup2\n      mstore\n      0x20\n      add\n      dup3\n      dup1\n      sload\n      dup1\n      iszero\n      tag_47\n      jumpi\n      0x20\n      mul\n      dup3\n      add\n      swap2\n      swap1\n      0x00\n      mstore\n      keccak256(0x00, 0x20)\n      swap1\n      0x00\n      swap1\n    tag_48:\n      dup3\n      dup3\n      swap1\n      sload\n      swap1\n      0x0100\n      exp\n      swap1\n      div\n      0xffffffffffffffff\n      and\n      0xffffffffffffffff\n      and\n      dup2\n      mstore\n      0x20\n      add\n      swap1\n      0x08\n      add\n      swap1\n      0x20\n      dup3\n      0x07\n      add\n      div\n      swap3\n      dup4\n      add\n      swap3\n      0x01\n      sub\n      dup3\n      mul\n      swap2\n      pop\n      dup1\n      dup5\n      gt\n      tag_48\n      jumpi\n      swap1\n      pop\n    tag_47:\n      pop\n      pop\n      pop\n      pop\n      pop\n      swap2\n      pop\n      dup1\n      dup1\n      sload\n      dup1\n      0x20\n      mul\n      0x20\n      add\n      mload(0x40)\n      swap1\n      dup2\n      add\n      0x40\n      mstore\n      dup1\n      swap3\n      swap2\n      swap1\n      dup2\n      dup2\n      mstore\n      0x20\n      add\n      dup3\n      dup1\n      sload\n      dup1\n      iszero\n      tag_49\n      jumpi\n      0x20\n      mul\n      dup3\n      add\n      swap2\n      swap1\n      0x00\n      mstore\n      keccak256(0x00, 0x20)\n      swap1\n    tag_50:\n      dup2\n      sload\n      dup2\n      mstore\n      0x20\n      add\n      swap1\n      0x01\n      add\n      swap1\n      dup1\n      dup4\n      gt\n      tag_50\n      jumpi\n    tag_49:\n      pop\n      pop\n      pop\n      pop\n      pop\n      swap1\n      pop\n      swap5\n      pop\n      swap5\n      pop\n      swap5\n      pop\n      swap5\n      pop\n      swap5\n      pop\n        /* \"poll.sol\":929:1342  function getPoll(uint64 _pollId) external view returns(uint256, string memory, string memory, uint64[] memory, bytes32[] memory) {... */\n      swap2\n      swap4\n      swap6\n      swap1\n      swap3\n      swap5\n      pop\n      jump\t// out\n        /* \"poll.sol\":393:923  function createPoll(string memory _question, string memory _thumb, bytes32[] memory _options) public  {... */\n    tag_14:\n        /* \"poll.sol\":539:540  0 */\n      0x00\n        /* \"poll.sol\":519:528  _question */\n      dup4\n        /* \"poll.sol\":513:536  bytes(_question).length */\n      mload\n        /* \"poll.sol\":513:540  bytes(_question).length > 0 */\n      gt\n        /* \"poll.sol\":505:559  require(bytes(_question).length > 0, \"Empty question\") */\n      tag_52\n      jumpi\n      mload(0x40)\n      0x08c379a000000000000000000000000000000000000000000000000000000000\n      dup2\n      mstore\n      0x04\n      add\n      tag_53\n      swap1\n      tag_54\n      jump\t// in\n    tag_53:\n      mload(0x40)\n      dup1\n      swap2\n      sub\n      swap1\n      revert\n    tag_52:\n        /* \"poll.sol\":595:596  1 */\n      0x01\n        /* \"poll.sol\":577:585  _options */\n      dup2\n        /* \"poll.sol\":577:592  _options.length */\n      mload\n        /* \"poll.sol\":577:596  _options.length > 1 */\n      gt\n        /* \"poll.sol\":569:628  require(_options.length > 1, \"At least 2 options required\") */\n      tag_55\n      jumpi\n      mload(0x40)\n      0x08c379a000000000000000000000000000000000000000000000000000000000\n      dup2\n      mstore\n      0x04\n      add\n      tag_56\n      swap1\n      tag_57\n      jump\t// in\n    tag_56:\n      mload(0x40)\n      dup1\n      swap2\n      sub\n      swap1\n      revert\n    tag_55:\n        /* \"poll.sol\":639:653  uint256 pollId */\n      0x00\n        /* \"poll.sol\":656:661  polls */\n      dup1\n        /* \"poll.sol\":656:668  polls.length */\n      dup1\n      sload\n      swap1\n      pop\n        /* \"poll.sol\":639:668  uint256 pollId = polls.length */\n      swap1\n      pop\n        /* \"poll.sol\":679:698  Poll memory newPoll */\n      0x00\n        /* \"poll.sol\":701:886  Poll({... */\n      mload(0x40)\n      dup1\n      0xa0\n      add\n      0x40\n      mstore\n      dup1\n        /* \"poll.sol\":724:730  pollId */\n      dup4\n        /* \"poll.sol\":701:886  Poll({... */\n      dup2\n      mstore\n      0x20\n      add\n        /* \"poll.sol\":754:763  _question */\n      dup7\n        /* \"poll.sol\":701:886  Poll({... */\n      dup2\n      mstore\n      0x20\n      add\n        /* \"poll.sol\":788:794  _thumb */\n      dup6\n        /* \"poll.sol\":701:886  Poll({... */\n      dup2\n      mstore\n      0x20\n      add\n        /* \"poll.sol\":859:867  _options */\n      dup5\n        /* \"poll.sol\":859:874  _options.length */\n      mload\n        /* \"poll.sol\":846:875  new uint64[](_options.length) */\n      0xffffffffffffffff\n      dup2\n      gt\n      iszero\n      tag_58\n      jumpi\n      tag_59\n      tag_60\n      jump\t// in\n    tag_59:\n    tag_58:\n      mload(0x40)\n      swap1\n      dup1\n      dup3\n      mstore\n      dup1\n      0x20\n      mul\n      0x20\n      add\n      dup3\n      add\n      0x40\n      mstore\n      dup1\n      iszero\n      tag_61\n      jumpi\n      dup2\n      0x20\n      add\n      0x20\n      dup3\n      mul\n      dup1\n      calldatasize\n      dup4\n      calldatacopy\n      dup1\n      dup3\n      add\n      swap2\n      pop\n      pop\n      swap1\n      pop\n    tag_61:\n      pop\n        /* \"poll.sol\":701:886  Poll({... */\n      dup2\n      mstore\n      0x20\n      add\n        /* \"poll.sol\":817:825  _options */\n      dup5\n        /* \"poll.sol\":701:886  Poll({... */\n      dup2\n      mstore\n      pop\n        /* \"poll.sol\":679:886  Poll memory newPoll = Poll({... */\n      swap1\n      pop\n        /* \"poll.sol\":897:902  polls */\n      0x00\n        /* \"poll.sol\":908:915  newPoll */\n      dup2\n        /* \"poll.sol\":897:916  polls.push(newPoll) */\n      swap1\n      dup1\n      0x01\n      dup2\n      sload\n      add\n      dup1\n      dup3\n      sstore\n      dup1\n      swap2\n      pop\n      pop\n      0x01\n      swap1\n      sub\n      swap1\n      0x00\n      mstore\n      keccak256(0x00, 0x20)\n      swap1\n      0x05\n      mul\n      add\n      0x00\n      swap1\n      swap2\n      swap1\n      swap2\n      swap1\n      swap2\n      pop\n      0x00\n      dup3\n      add\n      mload\n      dup2\n      0x00\n      add\n      sstore\n      0x20\n      dup3\n      add\n      mload\n      dup2\n      0x01\n      add\n      swap1\n      dup2\n      tag_63\n      swap2\n      swap1\n      tag_64\n      jump\t// in\n    tag_63:\n      pop\n      0x40\n      dup3\n      add\n      mload\n      dup2\n      0x02\n      add\n      swap1\n      dup2\n      tag_65\n      swap2\n      swap1\n      tag_64\n      jump\t// in\n    tag_65:\n      pop\n      0x60\n      dup3\n      add\n      mload\n      dup2\n      0x03\n      add\n      swap1\n      dup1\n      mload\n      swap1\n      0x20\n      add\n      swap1\n      tag_66\n      swap3\n      swap2\n      swap1\n      tag_67\n      jump\t// in\n    tag_66:\n      pop\n      0x80\n      dup3\n      add\n      mload\n      dup2\n      0x04\n      add\n      swap1\n      dup1\n      mload\n      swap1\n      0x20\n      add\n      swap1\n      tag_68\n      swap3\n      swap2\n      swap1\n      tag_69\n      jump\t// in\n    tag_68:\n      pop\n      pop\n      pop\n        /* \"poll.sol\":495:923  {... */\n      pop\n      pop\n        /* \"poll.sol\":393:923  function createPoll(string memory _question, string memory _thumb, bytes32[] memory _options) public  {... */\n      pop\n      pop\n      pop\n      jump\t// out\n    tag_67:\n      dup3\n      dup1\n      sload\n      dup3\n      dup3\n      sstore\n      swap1\n      0x00\n      mstore\n      keccak256(0x00, 0x20)\n      swap1\n      0x03\n      add\n      0x04\n      swap1\n      div\n      dup2\n      add\n      swap3\n      dup3\n      iszero\n      tag_70\n      jumpi\n      swap2\n      0x20\n      mul\n      dup3\n      add\n      0x00\n    tag_71:\n      dup4\n      dup3\n      gt\n      iszero\n      tag_72\n      jumpi\n      dup4\n      mload\n      dup4\n      dup3\n      0x0100\n      exp\n      dup2\n      sload\n      dup2\n      0xffffffffffffffff\n      mul\n      not\n      and\n      swap1\n      dup4\n      0xffffffffffffffff\n      and\n      mul\n      or\n      swap1\n      sstore\n      pop\n      swap3\n      0x20\n      add\n      swap3\n      0x08\n      add\n      0x20\n      dup2\n      0x07\n      add\n      div\n      swap3\n      dup4\n      add\n      swap3\n      0x01\n      sub\n      mul\n      jump(tag_71)\n    tag_72:\n      dup1\n      iszero\n      tag_73\n      jumpi\n      dup3\n      dup2\n      0x0100\n      exp\n      dup2\n      sload\n      swap1\n      0xffffffffffffffff\n      mul\n      not\n      and\n      swap1\n      sstore\n      0x08\n      add\n      0x20\n      dup2\n      0x07\n      add\n      div\n      swap3\n      dup4\n      add\n      swap3\n      0x01\n      sub\n      mul\n      jump(tag_72)\n    tag_73:\n      pop\n    tag_70:\n      pop\n      swap1\n      pop\n      tag_74\n      swap2\n      swap1\n      tag_75\n      jump\t// in\n    tag_74:\n      pop\n      swap1\n      jump\t// out\n    tag_69:\n      dup3\n      dup1\n      sload\n      dup3\n      dup3\n      sstore\n      swap1\n      0x00\n      mstore\n      keccak256(0x00, 0x20)\n      swap1\n      dup2\n      add\n      swap3\n      dup3\n      iszero\n      tag_76\n      jumpi\n      swap2\n      0x20\n      mul\n      dup3\n      add\n    tag_77:\n      dup3\n      dup2\n      gt\n      iszero\n      tag_78\n      jumpi\n      dup3\n      mload\n      dup3\n      sstore\n      swap2\n      0x20\n      add\n      swap2\n      swap1\n      0x01\n      add\n      swap1\n      jump(tag_77)\n    tag_78:\n    tag_76:\n      pop\n      swap1\n      pop\n      tag_79\n      swap2\n      swap1\n      tag_80\n      jump\t// in\n    tag_79:\n      pop\n      swap1\n      jump\t// out\n    tag_75:\n    tag_81:\n      dup1\n      dup3\n      gt\n      iszero\n      tag_82\n      jumpi\n      0x00\n      dup2\n      0x00\n      swap1\n      sstore\n      pop\n      0x01\n      add\n      jump(tag_81)\n    tag_82:\n      pop\n      swap1\n      jump\t// out\n    tag_80:\n    tag_83:\n      dup1\n      dup3\n      gt\n      iszero\n      tag_84\n      jumpi\n      0x00\n      dup2\n      0x00\n      swap1\n      sstore\n      pop\n      0x01\n      add\n      jump(tag_83)\n    tag_84:\n      pop\n      swap1\n      jump\t// out\n        /* \"#utility.yul\":7:82   */\n    tag_85:\n        /* \"#utility.yul\":40:46   */\n      0x00\n        /* \"#utility.yul\":73:75   */\n      0x40\n        /* \"#utility.yul\":67:76   */\n      mload\n        /* \"#utility.yul\":57:76   */\n      swap1\n      pop\n        /* \"#utility.yul\":7:82   */\n      swap1\n      jump\t// out\n        /* \"#utility.yul\":88:205   */\n    tag_86:\n        /* \"#utility.yul\":197:198   */\n      0x00\n        /* \"#utility.yul\":194:195   */\n      dup1\n        /* \"#utility.yul\":187:199   */\n      revert\n        /* \"#utility.yul\":211:328   */\n    tag_87:\n        /* \"#utility.yul\":320:321   */\n      0x00\n        /* \"#utility.yul\":317:318   */\n      dup1\n        /* \"#utility.yul\":310:322   */\n      revert\n        /* \"#utility.yul\":334:435   */\n    tag_88:\n        /* \"#utility.yul\":370:377   */\n      0x00\n        /* \"#utility.yul\":410:428   */\n      0xffffffffffffffff\n        /* \"#utility.yul\":403:408   */\n      dup3\n        /* \"#utility.yul\":399:429   */\n      and\n        /* \"#utility.yul\":388:429   */\n      swap1\n      pop\n        /* \"#utility.yul\":334:435   */\n      swap2\n      swap1\n      pop\n      jump\t// out\n        /* \"#utility.yul\":441:561   */\n    tag_89:\n        /* \"#utility.yul\":513:536   */\n      tag_155\n        /* \"#utility.yul\":530:535   */\n      dup2\n        /* \"#utility.yul\":513:536   */\n      tag_88\n      jump\t// in\n    tag_155:\n        /* \"#utility.yul\":506:511   */\n      dup2\n        /* \"#utility.yul\":503:537   */\n      eq\n        /* \"#utility.yul\":493:555   */\n      tag_156\n      jumpi\n        /* \"#utility.yul\":551:552   */\n      0x00\n        /* \"#utility.yul\":548:549   */\n      dup1\n        /* \"#utility.yul\":541:553   */\n      revert\n        /* \"#utility.yul\":493:555   */\n    tag_156:\n        /* \"#utility.yul\":441:561   */\n      pop\n      jump\t// out\n        /* \"#utility.yul\":567:704   */\n    tag_90:\n        /* \"#utility.yul\":612:617   */\n      0x00\n        /* \"#utility.yul\":650:656   */\n      dup2\n        /* \"#utility.yul\":637:657   */\n      calldataload\n        /* \"#utility.yul\":628:657   */\n      swap1\n      pop\n        /* \"#utility.yul\":666:698   */\n      tag_158\n        /* \"#utility.yul\":692:697   */\n      dup2\n        /* \"#utility.yul\":666:698   */\n      tag_89\n      jump\t// in\n    tag_158:\n        /* \"#utility.yul\":567:704   */\n      swap3\n      swap2\n      pop\n      pop\n      jump\t// out\n        /* \"#utility.yul\":710:1037   */\n    tag_7:\n        /* \"#utility.yul\":768:774   */\n      0x00\n        /* \"#utility.yul\":817:819   */\n      0x20\n        /* \"#utility.yul\":805:814   */\n      dup3\n        /* \"#utility.yul\":796:803   */\n      dup5\n        /* \"#utility.yul\":792:815   */\n      sub\n        /* \"#utility.yul\":788:820   */\n      slt\n        /* \"#utility.yul\":785:904   */\n      iszero\n      tag_160\n      jumpi\n        /* \"#utility.yul\":823:902   */\n      tag_161\n      tag_86\n      jump\t// in\n    tag_161:\n        /* \"#utility.yul\":785:904   */\n    tag_160:\n        /* \"#utility.yul\":943:944   */\n      0x00\n        /* \"#utility.yul\":968:1020   */\n      tag_162\n        /* \"#utility.yul\":1012:1019   */\n      dup5\n        /* \"#utility.yul\":1003:1009   */\n      dup3\n        /* \"#utility.yul\":992:1001   */\n      dup6\n        /* \"#utility.yul\":988:1010   */\n      add\n        /* \"#utility.yul\":968:1020   */\n      tag_90\n      jump\t// in\n    tag_162:\n        /* \"#utility.yul\":958:1020   */\n      swap2\n      pop\n        /* \"#utility.yul\":914:1030   */\n      pop\n        /* \"#utility.yul\":710:1037   */\n      swap3\n      swap2\n      pop\n      pop\n      jump\t// out\n        /* \"#utility.yul\":1043:1120   */\n    tag_91:\n        /* \"#utility.yul\":1080:1087   */\n      0x00\n        /* \"#utility.yul\":1109:1114   */\n      dup2\n        /* \"#utility.yul\":1098:1114   */\n      swap1\n      pop\n        /* \"#utility.yul\":1043:1120   */\n      swap2\n      swap1\n      pop\n      jump\t// out\n        /* \"#utility.yul\":1126:1244   */\n    tag_92:\n        /* \"#utility.yul\":1213:1237   */\n      tag_165\n        /* \"#utility.yul\":1231:1236   */\n      dup2\n        /* \"#utility.yul\":1213:1237   */\n      tag_91\n      jump\t// in\n    tag_165:\n        /* \"#utility.yul\":1208:1211   */\n      dup3\n        /* \"#utility.yul\":1201:1238   */\n      mstore\n        /* \"#utility.yul\":1126:1244   */\n      pop\n      pop\n      jump\t// out\n        /* \"#utility.yul\":1250:1349   */\n    tag_93:\n        /* \"#utility.yul\":1302:1308   */\n      0x00\n        /* \"#utility.yul\":1336:1341   */\n      dup2\n        /* \"#utility.yul\":1330:1342   */\n      mload\n        /* \"#utility.yul\":1320:1342   */\n      swap1\n      pop\n        /* \"#utility.yul\":1250:1349   */\n      swap2\n      swap1\n      pop\n      jump\t// out\n        /* \"#utility.yul\":1355:1524   */\n    tag_94:\n        /* \"#utility.yul\":1439:1450   */\n      0x00\n        /* \"#utility.yul\":1473:1479   */\n      dup3\n        /* \"#utility.yul\":1468:1471   */\n      dup3\n        /* \"#utility.yul\":1461:1480   */\n      mstore\n        /* \"#utility.yul\":1513:1517   */\n      0x20\n        /* \"#utility.yul\":1508:1511   */\n      dup3\n        /* \"#utility.yul\":1504:1518   */\n      add\n        /* \"#utility.yul\":1489:1518   */\n      swap1\n      pop\n        /* \"#utility.yul\":1355:1524   */\n      swap3\n      swap2\n      pop\n      pop\n      jump\t// out\n        /* \"#utility.yul\":1530:1776   */\n    tag_95:\n        /* \"#utility.yul\":1611:1612   */\n      0x00\n        /* \"#utility.yul\":1621:1734   */\n    tag_169:\n        /* \"#utility.yul\":1635:1641   */\n      dup4\n        /* \"#utility.yul\":1632:1633   */\n      dup2\n        /* \"#utility.yul\":1629:1642   */\n      lt\n        /* \"#utility.yul\":1621:1734   */\n      iszero\n      tag_171\n      jumpi\n        /* \"#utility.yul\":1720:1721   */\n      dup1\n        /* \"#utility.yul\":1715:1718   */\n      dup3\n        /* \"#utility.yul\":1711:1722   */\n      add\n        /* \"#utility.yul\":1705:1723   */\n      mload\n        /* \"#utility.yul\":1701:1702   */\n      dup2\n        /* \"#utility.yul\":1696:1699   */\n      dup5\n        /* \"#utility.yul\":1692:1703   */\n      add\n        /* \"#utility.yul\":1685:1724   */\n      mstore\n        /* \"#utility.yul\":1657:1659   */\n      0x20\n        /* \"#utility.yul\":1654:1655   */\n      dup2\n        /* \"#utility.yul\":1650:1660   */\n      add\n        /* \"#utility.yul\":1645:1660   */\n      swap1\n      pop\n        /* \"#utility.yul\":1621:1734   */\n      jump(tag_169)\n    tag_171:\n        /* \"#utility.yul\":1768:1769   */\n      0x00\n        /* \"#utility.yul\":1759:1765   */\n      dup5\n        /* \"#utility.yul\":1754:1757   */\n      dup5\n        /* \"#utility.yul\":1750:1766   */\n      add\n        /* \"#utility.yul\":1743:1770   */\n      mstore\n        /* \"#utility.yul\":1592:1776   */\n      pop\n        /* \"#utility.yul\":1530:1776   */\n      pop\n      pop\n      pop\n      jump\t// out\n        /* \"#utility.yul\":1782:1884   */\n    tag_96:\n        /* \"#utility.yul\":1823:1829   */\n      0x00\n        /* \"#utility.yul\":1874:1876   */\n      0x1f\n        /* \"#utility.yul\":1870:1877   */\n      not\n        /* \"#utility.yul\":1865:1867   */\n      0x1f\n        /* \"#utility.yul\":1858:1863   */\n      dup4\n        /* \"#utility.yul\":1854:1868   */\n      add\n        /* \"#utility.yul\":1850:1878   */\n      and\n        /* \"#utility.yul\":1840:1878   */\n      swap1\n      pop\n        /* \"#utility.yul\":1782:1884   */\n      swap2\n      swap1\n      pop\n      jump\t// out\n        /* \"#utility.yul\":1890:2267   */\n    tag_97:\n        /* \"#utility.yul\":1978:1981   */\n      0x00\n        /* \"#utility.yul\":2006:2045   */\n      tag_174\n        /* \"#utility.yul\":2039:2044   */\n      dup3\n        /* \"#utility.yul\":2006:2045   */\n      tag_93\n      jump\t// in\n    tag_174:\n        /* \"#utility.yul\":2061:2132   */\n      tag_175\n        /* \"#utility.yul\":2125:2131   */\n      dup2\n        /* \"#utility.yul\":2120:2123   */\n      dup6\n        /* \"#utility.yul\":2061:2132   */\n      tag_94\n      jump\t// in\n    tag_175:\n        /* \"#utility.yul\":2054:2132   */\n      swap4\n      pop\n        /* \"#utility.yul\":2141:2206   */\n      tag_176\n        /* \"#utility.yul\":2199:2205   */\n      dup2\n        /* \"#utility.yul\":2194:2197   */\n      dup6\n        /* \"#utility.yul\":2187:2191   */\n      0x20\n        /* \"#utility.yul\":2180:2185   */\n      dup7\n        /* \"#utility.yul\":2176:2192   */\n      add\n        /* \"#utility.yul\":2141:2206   */\n      tag_95\n      jump\t// in\n    tag_176:\n        /* \"#utility.yul\":2231:2260   */\n      tag_177\n        /* \"#utility.yul\":2253:2259   */\n      dup2\n        /* \"#utility.yul\":2231:2260   */\n      tag_96\n      jump\t// in\n    tag_177:\n        /* \"#utility.yul\":2226:2229   */\n      dup5\n        /* \"#utility.yul\":2222:2261   */\n      add\n        /* \"#utility.yul\":2215:2261   */\n      swap2\n      pop\n        /* \"#utility.yul\":1982:2267   */\n      pop\n        /* \"#utility.yul\":1890:2267   */\n      swap3\n      swap2\n      pop\n      pop\n      jump\t// out\n        /* \"#utility.yul\":2273:2386   */\n    tag_98:\n        /* \"#utility.yul\":2339:2345   */\n      0x00\n        /* \"#utility.yul\":2373:2378   */\n      dup2\n        /* \"#utility.yul\":2367:2379   */\n      mload\n        /* \"#utility.yul\":2357:2379   */\n      swap1\n      pop\n        /* \"#utility.yul\":2273:2386   */\n      swap2\n      swap1\n      pop\n      jump\t// out\n        /* \"#utility.yul\":2392:2575   */\n    tag_99:\n        /* \"#utility.yul\":2490:2501   */\n      0x00\n        /* \"#utility.yul\":2524:2530   */\n      dup3\n        /* \"#utility.yul\":2519:2522   */\n      dup3\n        /* \"#utility.yul\":2512:2531   */\n      mstore\n        /* \"#utility.yul\":2564:2568   */\n      0x20\n        /* \"#utility.yul\":2559:2562   */\n      dup3\n        /* \"#utility.yul\":2555:2569   */\n      add\n        /* \"#utility.yul\":2540:2569   */\n      swap1\n      pop\n        /* \"#utility.yul\":2392:2575   */\n      swap3\n      swap2\n      pop\n      pop\n      jump\t// out\n        /* \"#utility.yul\":2581:2712   */\n    tag_100:\n        /* \"#utility.yul\":2647:2651   */\n      0x00\n        /* \"#utility.yul\":2670:2673   */\n      dup2\n        /* \"#utility.yul\":2662:2673   */\n      swap1\n      pop\n        /* \"#utility.yul\":2700:2704   */\n      0x20\n        /* \"#utility.yul\":2695:2698   */\n      dup3\n        /* \"#utility.yul\":2691:2705   */\n      add\n        /* \"#utility.yul\":2683:2705   */\n      swap1\n      pop\n        /* \"#utility.yul\":2581:2712   */\n      swap2\n      swap1\n      pop\n      jump\t// out\n        /* \"#utility.yul\":2718:2823   */\n    tag_101:\n        /* \"#utility.yul\":2793:2816   */\n      tag_182\n        /* \"#utility.yul\":2810:2815   */\n      dup2\n        /* \"#utility.yul\":2793:2816   */\n      tag_88\n      jump\t// in\n    tag_182:\n        /* \"#utility.yul\":2788:2791   */\n      dup3\n        /* \"#utility.yul\":2781:2817   */\n      mstore\n        /* \"#utility.yul\":2718:2823   */\n      pop\n      pop\n      jump\t// out\n        /* \"#utility.yul\":2829:3004   */\n    tag_102:\n        /* \"#utility.yul\":2896:2906   */\n      0x00\n        /* \"#utility.yul\":2917:2961   */\n      tag_184\n        /* \"#utility.yul\":2957:2960   */\n      dup4\n        /* \"#utility.yul\":2949:2955   */\n      dup4\n        /* \"#utility.yul\":2917:2961   */\n      tag_101\n      jump\t// in\n    tag_184:\n        /* \"#utility.yul\":2993:2997   */\n      0x20\n        /* \"#utility.yul\":2988:2991   */\n      dup4\n        /* \"#utility.yul\":2984:2998   */\n      add\n        /* \"#utility.yul\":2970:2998   */\n      swap1\n      pop\n        /* \"#utility.yul\":2829:3004   */\n      swap3\n      swap2\n      pop\n      pop\n      jump\t// out\n        /* \"#utility.yul\":3010:3122   */\n    tag_103:\n        /* \"#utility.yul\":3079:3083   */\n      0x00\n        /* \"#utility.yul\":3111:3115   */\n      0x20\n        /* \"#utility.yul\":3106:3109   */\n      dup3\n        /* \"#utility.yul\":3102:3116   */\n      add\n        /* \"#utility.yul\":3094:3116   */\n      swap1\n      pop\n        /* \"#utility.yul\":3010:3122   */\n      swap2\n      swap1\n      pop\n      jump\t// out\n        /* \"#utility.yul\":3156:3880   */\n    tag_104:\n        /* \"#utility.yul\":3273:3276   */\n      0x00\n        /* \"#utility.yul\":3302:3355   */\n      tag_187\n        /* \"#utility.yul\":3349:3354   */\n      dup3\n        /* \"#utility.yul\":3302:3355   */\n      tag_98\n      jump\t// in\n    tag_187:\n        /* \"#utility.yul\":3371:3456   */\n      tag_188\n        /* \"#utility.yul\":3449:3455   */\n      dup2\n        /* \"#utility.yul\":3444:3447   */\n      dup6\n        /* \"#utility.yul\":3371:3456   */\n      tag_99\n      jump\t// in\n    tag_188:\n        /* \"#utility.yul\":3364:3456   */\n      swap4\n      pop\n        /* \"#utility.yul\":3480:3535   */\n      tag_189\n        /* \"#utility.yul\":3529:3534   */\n      dup4\n        /* \"#utility.yul\":3480:3535   */\n      tag_100\n      jump\t// in\n    tag_189:\n        /* \"#utility.yul\":3558:3565   */\n      dup1\n        /* \"#utility.yul\":3589:3590   */\n      0x00\n        /* \"#utility.yul\":3574:3855   */\n    tag_190:\n        /* \"#utility.yul\":3599:3605   */\n      dup4\n        /* \"#utility.yul\":3596:3597   */\n      dup2\n        /* \"#utility.yul\":3593:3606   */\n      lt\n        /* \"#utility.yul\":3574:3855   */\n      iszero\n      tag_192\n      jumpi\n        /* \"#utility.yul\":3675:3681   */\n      dup2\n        /* \"#utility.yul\":3669:3682   */\n      mload\n        /* \"#utility.yul\":3702:3763   */\n      tag_193\n        /* \"#utility.yul\":3759:3762   */\n      dup9\n        /* \"#utility.yul\":3744:3757   */\n      dup3\n        /* \"#utility.yul\":3702:3763   */\n      tag_102\n      jump\t// in\n    tag_193:\n        /* \"#utility.yul\":3695:3763   */\n      swap8\n      pop\n        /* \"#utility.yul\":3786:3845   */\n      tag_194\n        /* \"#utility.yul\":3838:3844   */\n      dup4\n        /* \"#utility.yul\":3786:3845   */\n      tag_103\n      jump\t// in\n    tag_194:\n        /* \"#utility.yul\":3776:3845   */\n      swap3\n      pop\n        /* \"#utility.yul\":3634:3855   */\n      pop\n        /* \"#utility.yul\":3621:3622   */\n      0x01\n        /* \"#utility.yul\":3618:3619   */\n      dup2\n        /* \"#utility.yul\":3614:3623   */\n      add\n        /* \"#utility.yul\":3609:3623   */\n      swap1\n      pop\n        /* \"#utility.yul\":3574:3855   */\n      jump(tag_190)\n    tag_192:\n        /* \"#utility.yul\":3578:3592   */\n      pop\n        /* \"#utility.yul\":3871:3874   */\n      dup6\n        /* \"#utility.yul\":3864:3874   */\n      swap4\n      pop\n        /* \"#utility.yul\":3278:3880   */\n      pop\n      pop\n      pop\n        /* \"#utility.yul\":3156:3880   */\n      swap3\n      swap2\n      pop\n      pop\n      jump\t// out\n        /* \"#utility.yul\":3886:4000   */\n    tag_105:\n        /* \"#utility.yul\":3953:3959   */\n      0x00\n        /* \"#utility.yul\":3987:3992   */\n      dup2\n        /* \"#utility.yul\":3981:3993   */\n      mload\n        /* \"#utility.yul\":3971:3993   */\n      swap1\n      pop\n        /* \"#utility.yul\":3886:4000   */\n      swap2\n      swap1\n      pop\n      jump\t// out\n        /* \"#utility.yul\":4006:4190   */\n    tag_106:\n        /* \"#utility.yul\":4105:4116   */\n      0x00\n        /* \"#utility.yul\":4139:4145   */\n      dup3\n        /* \"#utility.yul\":4134:4137   */\n      dup3\n        /* \"#utility.yul\":4127:4146   */\n      mstore\n        /* \"#utility.yul\":4179:4183   */\n      0x20\n        /* \"#utility.yul\":4174:4177   */\n      dup3\n        /* \"#utility.yul\":4170:4184   */\n      add\n        /* \"#utility.yul\":4155:4184   */\n      swap1\n      pop\n        /* \"#utility.yul\":4006:4190   */\n      swap3\n      swap2\n      pop\n      pop\n      jump\t// out\n        /* \"#utility.yul\":4196:4328   */\n    tag_107:\n        /* \"#utility.yul\":4263:4267   */\n      0x00\n        /* \"#utility.yul\":4286:4289   */\n      dup2\n        /* \"#utility.yul\":4278:4289   */\n      swap1\n      pop\n        /* \"#utility.yul\":4316:4320   */\n      0x20\n        /* \"#utility.yul\":4311:4314   */\n      dup3\n        /* \"#utility.yul\":4307:4321   */\n      add\n        /* \"#utility.yul\":4299:4321   */\n      swap1\n      pop\n        /* \"#utility.yul\":4196:4328   */\n      swap2\n      swap1\n      pop\n      jump\t// out\n        /* \"#utility.yul\":4334:4411   */\n    tag_108:\n        /* \"#utility.yul\":4371:4378   */\n      0x00\n        /* \"#utility.yul\":4400:4405   */\n      dup2\n        /* \"#utility.yul\":4389:4405   */\n      swap1\n      pop\n        /* \"#utility.yul\":4334:4411   */\n      swap2\n      swap1\n      pop\n      jump\t// out\n        /* \"#utility.yul\":4417:4525   */\n    tag_109:\n        /* \"#utility.yul\":4494:4518   */\n      tag_200\n        /* \"#utility.yul\":4512:4517   */\n      dup2\n        /* \"#utility.yul\":4494:4518   */\n      tag_108\n      jump\t// in\n    tag_200:\n        /* \"#utility.yul\":4489:4492   */\n      dup3\n        /* \"#utility.yul\":4482:4519   */\n      mstore\n        /* \"#utility.yul\":4417:4525   */\n      pop\n      pop\n      jump\t// out\n        /* \"#utility.yul\":4531:4710   */\n    tag_110:\n        /* \"#utility.yul\":4600:4610   */\n      0x00\n        /* \"#utility.yul\":4621:4667   */\n      tag_202\n        /* \"#utility.yul\":4663:4666   */\n      dup4\n        /* \"#utility.yul\":4655:4661   */\n      dup4\n        /* \"#utility.yul\":4621:4667   */\n      tag_109\n      jump\t// in\n    tag_202:\n        /* \"#utility.yul\":4699:4703   */\n      0x20\n        /* \"#utility.yul\":4694:4697   */\n      dup4\n        /* \"#utility.yul\":4690:4704   */\n      add\n        /* \"#utility.yul\":4676:4704   */\n      swap1\n      pop\n        /* \"#utility.yul\":4531:4710   */\n      swap3\n      swap2\n      pop\n      pop\n      jump\t// out\n        /* \"#utility.yul\":4716:4829   */\n    tag_111:\n        /* \"#utility.yul\":4786:4790   */\n      0x00\n        /* \"#utility.yul\":4818:4822   */\n      0x20\n        /* \"#utility.yul\":4813:4816   */\n      dup3\n        /* \"#utility.yul\":4809:4823   */\n      add\n        /* \"#utility.yul\":4801:4823   */\n      swap1\n      pop\n        /* \"#utility.yul\":4716:4829   */\n      swap2\n      swap1\n      pop\n      jump\t// out\n        /* \"#utility.yul\":4865:5597   */\n    tag_112:\n        /* \"#utility.yul\":4984:4987   */\n      0x00\n        /* \"#utility.yul\":5013:5067   */\n      tag_205\n        /* \"#utility.yul\":5061:5066   */\n      dup3\n        /* \"#utility.yul\":5013:5067   */\n      tag_105\n      jump\t// in\n    tag_205:\n        /* \"#utility.yul\":5083:5169   */\n      tag_206\n        /* \"#utility.yul\":5162:5168   */\n      dup2\n        /* \"#utility.yul\":5157:5160   */\n      dup6\n        /* \"#utility.yul\":5083:5169   */\n      tag_106\n      jump\t// in\n    tag_206:\n        /* \"#utility.yul\":5076:5169   */\n      swap4\n      pop\n        /* \"#utility.yul\":5193:5249   */\n      tag_207\n        /* \"#utility.yul\":5243:5248   */\n      dup4\n        /* \"#utility.yul\":5193:5249   */\n      tag_107\n      jump\t// in\n    tag_207:\n        /* \"#utility.yul\":5272:5279   */\n      dup1\n        /* \"#utility.yul\":5303:5304   */\n      0x00\n        /* \"#utility.yul\":5288:5572   */\n    tag_208:\n        /* \"#utility.yul\":5313:5319   */\n      dup4\n        /* \"#utility.yul\":5310:5311   */\n      dup2\n        /* \"#utility.yul\":5307:5320   */\n      lt\n        /* \"#utility.yul\":5288:5572   */\n      iszero\n      tag_210\n      jumpi\n        /* \"#utility.yul\":5389:5395   */\n      dup2\n        /* \"#utility.yul\":5383:5396   */\n      mload\n        /* \"#utility.yul\":5416:5479   */\n      tag_211\n        /* \"#utility.yul\":5475:5478   */\n      dup9\n        /* \"#utility.yul\":5460:5473   */\n      dup3\n        /* \"#utility.yul\":5416:5479   */\n      tag_110\n      jump\t// in\n    tag_211:\n        /* \"#utility.yul\":5409:5479   */\n      swap8\n      pop\n        /* \"#utility.yul\":5502:5562   */\n      tag_212\n        /* \"#utility.yul\":5555:5561   */\n      dup4\n        /* \"#utility.yul\":5502:5562   */\n      tag_111\n      jump\t// in\n    tag_212:\n        /* \"#utility.yul\":5492:5562   */\n      swap3\n      pop\n        /* \"#utility.yul\":5348:5572   */\n      pop\n        /* \"#utility.yul\":5335:5336   */\n      0x01\n        /* \"#utility.yul\":5332:5333   */\n      dup2\n        /* \"#utility.yul\":5328:5337   */\n      add\n        /* \"#utility.yul\":5323:5337   */\n      swap1\n      pop\n        /* \"#utility.yul\":5288:5572   */\n      jump(tag_208)\n    tag_210:\n        /* \"#utility.yul\":5292:5306   */\n      pop\n        /* \"#utility.yul\":5588:5591   */\n      dup6\n        /* \"#utility.yul\":5581:5591   */\n      swap4\n      pop\n        /* \"#utility.yul\":4989:5597   */\n      pop\n      pop\n      pop\n        /* \"#utility.yul\":4865:5597   */\n      swap3\n      swap2\n      pop\n      pop\n      jump\t// out\n        /* \"#utility.yul\":5603:6747   */\n    tag_10:\n        /* \"#utility.yul\":5946:5950   */\n      0x00\n        /* \"#utility.yul\":5984:5987   */\n      0xa0\n        /* \"#utility.yul\":5973:5982   */\n      dup3\n        /* \"#utility.yul\":5969:5988   */\n      add\n        /* \"#utility.yul\":5961:5988   */\n      swap1\n      pop\n        /* \"#utility.yul\":5998:6069   */\n      tag_214\n        /* \"#utility.yul\":6066:6067   */\n      0x00\n        /* \"#utility.yul\":6055:6064   */\n      dup4\n        /* \"#utility.yul\":6051:6068   */\n      add\n        /* \"#utility.yul\":6042:6048   */\n      dup9\n        /* \"#utility.yul\":5998:6069   */\n      tag_92\n      jump\t// in\n    tag_214:\n        /* \"#utility.yul\":6116:6125   */\n      dup2\n        /* \"#utility.yul\":6110:6114   */\n      dup2\n        /* \"#utility.yul\":6106:6126   */\n      sub\n        /* \"#utility.yul\":6101:6103   */\n      0x20\n        /* \"#utility.yul\":6090:6099   */\n      dup4\n        /* \"#utility.yul\":6086:6104   */\n      add\n        /* \"#utility.yul\":6079:6127   */\n      mstore\n        /* \"#utility.yul\":6144:6222   */\n      tag_215\n        /* \"#utility.yul\":6217:6221   */\n      dup2\n        /* \"#utility.yul\":6208:6214   */\n      dup8\n        /* \"#utility.yul\":6144:6222   */\n      tag_97\n      jump\t// in\n    tag_215:\n        /* \"#utility.yul\":6136:6222   */\n      swap1\n      pop\n        /* \"#utility.yul\":6269:6278   */\n      dup2\n        /* \"#utility.yul\":6263:6267   */\n      dup2\n        /* \"#utility.yul\":6259:6279   */\n      sub\n        /* \"#utility.yul\":6254:6256   */\n      0x40\n        /* \"#utility.yul\":6243:6252   */\n      dup4\n        /* \"#utility.yul\":6239:6257   */\n      add\n        /* \"#utility.yul\":6232:6280   */\n      mstore\n        /* \"#utility.yul\":6297:6375   */\n      tag_216\n        /* \"#utility.yul\":6370:6374   */\n      dup2\n        /* \"#utility.yul\":6361:6367   */\n      dup7\n        /* \"#utility.yul\":6297:6375   */\n      tag_97\n      jump\t// in\n    tag_216:\n        /* \"#utility.yul\":6289:6375   */\n      swap1\n      pop\n        /* \"#utility.yul\":6422:6431   */\n      dup2\n        /* \"#utility.yul\":6416:6420   */\n      dup2\n        /* \"#utility.yul\":6412:6432   */\n      sub\n        /* \"#utility.yul\":6407:6409   */\n      0x60\n        /* \"#utility.yul\":6396:6405   */\n      dup4\n        /* \"#utility.yul\":6392:6410   */\n      add\n        /* \"#utility.yul\":6385:6433   */\n      mstore\n        /* \"#utility.yul\":6450:6556   */\n      tag_217\n        /* \"#utility.yul\":6551:6555   */\n      dup2\n        /* \"#utility.yul\":6542:6548   */\n      dup6\n        /* \"#utility.yul\":6450:6556   */\n      tag_104\n      jump\t// in\n    tag_217:\n        /* \"#utility.yul\":6442:6556   */\n      swap1\n      pop\n        /* \"#utility.yul\":6604:6613   */\n      dup2\n        /* \"#utility.yul\":6598:6602   */\n      dup2\n        /* \"#utility.yul\":6594:6614   */\n      sub\n        /* \"#utility.yul\":6588:6591   */\n      0x80\n        /* \"#utility.yul\":6577:6586   */\n      dup4\n        /* \"#utility.yul\":6573:6592   */\n      add\n        /* \"#utility.yul\":6566:6615   */\n      mstore\n        /* \"#utility.yul\":6632:6740   */\n      tag_218\n        /* \"#utility.yul\":6735:6739   */\n      dup2\n        /* \"#utility.yul\":6726:6732   */\n      dup5\n        /* \"#utility.yul\":6632:6740   */\n      tag_112\n      jump\t// in\n    tag_218:\n        /* \"#utility.yul\":6624:6740   */\n      swap1\n      pop\n        /* \"#utility.yul\":5603:6747   */\n      swap7\n      swap6\n      pop\n      pop\n      pop\n      pop\n      pop\n      pop\n      jump\t// out\n        /* \"#utility.yul\":6753:6870   */\n    tag_113:\n        /* \"#utility.yul\":6862:6863   */\n      0x00\n        /* \"#utility.yul\":6859:6860   */\n      dup1\n        /* \"#utility.yul\":6852:6864   */\n      revert\n        /* \"#utility.yul\":6876:6993   */\n    tag_114:\n        /* \"#utility.yul\":6985:6986   */\n      0x00\n        /* \"#utility.yul\":6982:6983   */\n      dup1\n        /* \"#utility.yul\":6975:6987   */\n      revert\n        /* \"#utility.yul\":6999:7179   */\n    tag_60:\n        /* \"#utility.yul\":7047:7124   */\n      0x4e487b7100000000000000000000000000000000000000000000000000000000\n        /* \"#utility.yul\":7044:7045   */\n      0x00\n        /* \"#utility.yul\":7037:7125   */\n      mstore\n        /* \"#utility.yul\":7144:7148   */\n      0x41\n        /* \"#utility.yul\":7141:7142   */\n      0x04\n        /* \"#utility.yul\":7134:7149   */\n      mstore\n        /* \"#utility.yul\":7168:7172   */\n      0x24\n        /* \"#utility.yul\":7165:7166   */\n      0x00\n        /* \"#utility.yul\":7158:7173   */\n      revert\n        /* \"#utility.yul\":7185:7466   */\n    tag_115:\n        /* \"#utility.yul\":7268:7295   */\n      tag_223\n        /* \"#utility.yul\":7290:7294   */\n      dup3\n        /* \"#utility.yul\":7268:7295   */\n      tag_96\n      jump\t// in\n    tag_223:\n        /* \"#utility.yul\":7260:7266   */\n      dup2\n        /* \"#utility.yul\":7256:7296   */\n      add\n        /* \"#utility.yul\":7398:7404   */\n      dup2\n        /* \"#utility.yul\":7386:7396   */\n      dup2\n        /* \"#utility.yul\":7383:7405   */\n      lt\n        /* \"#utility.yul\":7362:7380   */\n      0xffffffffffffffff\n        /* \"#utility.yul\":7350:7360   */\n      dup3\n        /* \"#utility.yul\":7347:7381   */\n      gt\n        /* \"#utility.yul\":7344:7406   */\n      or\n        /* \"#utility.yul\":7341:7429   */\n      iszero\n      tag_224\n      jumpi\n        /* \"#utility.yul\":7409:7427   */\n      tag_225\n      tag_60\n      jump\t// in\n    tag_225:\n        /* \"#utility.yul\":7341:7429   */\n    tag_224:\n        /* \"#utility.yul\":7449:7459   */\n      dup1\n        /* \"#utility.yul\":7445:7447   */\n      0x40\n        /* \"#utility.yul\":7438:7460   */\n      mstore\n        /* \"#utility.yul\":7228:7466   */\n      pop\n        /* \"#utility.yul\":7185:7466   */\n      pop\n      pop\n      jump\t// out\n        /* \"#utility.yul\":7472:7601   */\n    tag_116:\n        /* \"#utility.yul\":7506:7512   */\n      0x00\n        /* \"#utility.yul\":7533:7553   */\n      tag_227\n      tag_85\n      jump\t// in\n    tag_227:\n        /* \"#utility.yul\":7523:7553   */\n      swap1\n      pop\n        /* \"#utility.yul\":7562:7595   */\n      tag_228\n        /* \"#utility.yul\":7590:7594   */\n      dup3\n        /* \"#utility.yul\":7582:7588   */\n      dup3\n        /* \"#utility.yul\":7562:7595   */\n      tag_115\n      jump\t// in\n    tag_228:\n        /* \"#utility.yul\":7472:7601   */\n      swap2\n      swap1\n      pop\n      jump\t// out\n        /* \"#utility.yul\":7607:7915   */\n    tag_117:\n        /* \"#utility.yul\":7669:7673   */\n      0x00\n        /* \"#utility.yul\":7759:7777   */\n      0xffffffffffffffff\n        /* \"#utility.yul\":7751:7757   */\n      dup3\n        /* \"#utility.yul\":7748:7778   */\n      gt\n        /* \"#utility.yul\":7745:7801   */\n      iszero\n      tag_230\n      jumpi\n        /* \"#utility.yul\":7781:7799   */\n      tag_231\n      tag_60\n      jump\t// in\n    tag_231:\n        /* \"#utility.yul\":7745:7801   */\n    tag_230:\n        /* \"#utility.yul\":7819:7848   */\n      tag_232\n        /* \"#utility.yul\":7841:7847   */\n      dup3\n        /* \"#utility.yul\":7819:7848   */\n      tag_96\n      jump\t// in\n    tag_232:\n        /* \"#utility.yul\":7811:7848   */\n      swap1\n      pop\n        /* \"#utility.yul\":7903:7907   */\n      0x20\n        /* \"#utility.yul\":7897:7901   */\n      dup2\n        /* \"#utility.yul\":7893:7908   */\n      add\n        /* \"#utility.yul\":7885:7908   */\n      swap1\n      pop\n        /* \"#utility.yul\":7607:7915   */\n      swap2\n      swap1\n      pop\n      jump\t// out\n        /* \"#utility.yul\":7921:8067   */\n    tag_118:\n        /* \"#utility.yul\":8018:8024   */\n      dup3\n        /* \"#utility.yul\":8013:8016   */\n      dup2\n        /* \"#utility.yul\":8008:8011   */\n      dup4\n        /* \"#utility.yul\":7995:8025   */\n      calldatacopy\n        /* \"#utility.yul\":8059:8060   */\n      0x00\n        /* \"#utility.yul\":8050:8056   */\n      dup4\n        /* \"#utility.yul\":8045:8048   */\n      dup4\n        /* \"#utility.yul\":8041:8057   */\n      add\n        /* \"#utility.yul\":8034:8061   */\n      mstore\n        /* \"#utility.yul\":7921:8067   */\n      pop\n      pop\n      pop\n      jump\t// out\n        /* \"#utility.yul\":8073:8498   */\n    tag_119:\n        /* \"#utility.yul\":8151:8156   */\n      0x00\n        /* \"#utility.yul\":8176:8242   */\n      tag_235\n        /* \"#utility.yul\":8192:8241   */\n      tag_236\n        /* \"#utility.yul\":8234:8240   */\n      dup5\n        /* \"#utility.yul\":8192:8241   */\n      tag_117\n      jump\t// in\n    tag_236:\n        /* \"#utility.yul\":8176:8242   */\n      tag_116\n      jump\t// in\n    tag_235:\n        /* \"#utility.yul\":8167:8242   */\n      swap1\n      pop\n        /* \"#utility.yul\":8265:8271   */\n      dup3\n        /* \"#utility.yul\":8258:8263   */\n      dup2\n        /* \"#utility.yul\":8251:8272   */\n      mstore\n        /* \"#utility.yul\":8303:8307   */\n      0x20\n        /* \"#utility.yul\":8296:8301   */\n      dup2\n        /* \"#utility.yul\":8292:8308   */\n      add\n        /* \"#utility.yul\":8341:8344   */\n      dup5\n        /* \"#utility.yul\":8332:8338   */\n      dup5\n        /* \"#utility.yul\":8327:8330   */\n      dup5\n        /* \"#utility.yul\":8323:8339   */\n      add\n        /* \"#utility.yul\":8320:8345   */\n      gt\n        /* \"#utility.yul\":8317:8429   */\n      iszero\n      tag_237\n      jumpi\n        /* \"#utility.yul\":8348:8427   */\n      tag_238\n      tag_114\n      jump\t// in\n    tag_238:\n        /* \"#utility.yul\":8317:8429   */\n    tag_237:\n        /* \"#utility.yul\":8438:8492   */\n      tag_239\n        /* \"#utility.yul\":8485:8491   */\n      dup5\n        /* \"#utility.yul\":8480:8483   */\n      dup3\n        /* \"#utility.yul\":8475:8478   */\n      dup6\n        /* \"#utility.yul\":8438:8492   */\n      tag_118\n      jump\t// in\n    tag_239:\n        /* \"#utility.yul\":8157:8498   */\n      pop\n        /* \"#utility.yul\":8073:8498   */\n      swap4\n      swap3\n      pop\n      pop\n      pop\n      jump\t// out\n        /* \"#utility.yul\":8518:8858   */\n    tag_120:\n        /* \"#utility.yul\":8574:8579   */\n      0x00\n        /* \"#utility.yul\":8623:8626   */\n      dup3\n        /* \"#utility.yul\":8616:8620   */\n      0x1f\n        /* \"#utility.yul\":8608:8614   */\n      dup4\n        /* \"#utility.yul\":8604:8621   */\n      add\n        /* \"#utility.yul\":8600:8627   */\n      slt\n        /* \"#utility.yul\":8590:8712   */\n      tag_241\n      jumpi\n        /* \"#utility.yul\":8631:8710   */\n      tag_242\n      tag_113\n      jump\t// in\n    tag_242:\n        /* \"#utility.yul\":8590:8712   */\n    tag_241:\n        /* \"#utility.yul\":8748:8754   */\n      dup2\n        /* \"#utility.yul\":8735:8755   */\n      calldataload\n        /* \"#utility.yul\":8773:8852   */\n      tag_243\n        /* \"#utility.yul\":8848:8851   */\n      dup5\n        /* \"#utility.yul\":8840:8846   */\n      dup3\n        /* \"#utility.yul\":8833:8837   */\n      0x20\n        /* \"#utility.yul\":8825:8831   */\n      dup7\n        /* \"#utility.yul\":8821:8838   */\n      add\n        /* \"#utility.yul\":8773:8852   */\n      tag_119\n      jump\t// in\n    tag_243:\n        /* \"#utility.yul\":8764:8852   */\n      swap2\n      pop\n        /* \"#utility.yul\":8580:8858   */\n      pop\n        /* \"#utility.yul\":8518:8858   */\n      swap3\n      swap2\n      pop\n      pop\n      jump\t// out\n        /* \"#utility.yul\":8864:9175   */\n    tag_121:\n        /* \"#utility.yul\":8941:8945   */\n      0x00\n        /* \"#utility.yul\":9031:9049   */\n      0xffffffffffffffff\n        /* \"#utility.yul\":9023:9029   */\n      dup3\n        /* \"#utility.yul\":9020:9050   */\n      gt\n        /* \"#utility.yul\":9017:9073   */\n      iszero\n      tag_245\n      jumpi\n        /* \"#utility.yul\":9053:9071   */\n      tag_246\n      tag_60\n      jump\t// in\n    tag_246:\n        /* \"#utility.yul\":9017:9073   */\n    tag_245:\n        /* \"#utility.yul\":9103:9107   */\n      0x20\n        /* \"#utility.yul\":9095:9101   */\n      dup3\n        /* \"#utility.yul\":9091:9108   */\n      mul\n        /* \"#utility.yul\":9083:9108   */\n      swap1\n      pop\n        /* \"#utility.yul\":9163:9167   */\n      0x20\n        /* \"#utility.yul\":9157:9161   */\n      dup2\n        /* \"#utility.yul\":9153:9168   */\n      add\n        /* \"#utility.yul\":9145:9168   */\n      swap1\n      pop\n        /* \"#utility.yul\":8864:9175   */\n      swap2\n      swap1\n      pop\n      jump\t// out\n        /* \"#utility.yul\":9181:9298   */\n    tag_122:\n        /* \"#utility.yul\":9290:9291   */\n      0x00\n        /* \"#utility.yul\":9287:9288   */\n      dup1\n        /* \"#utility.yul\":9280:9292   */\n      revert\n        /* \"#utility.yul\":9304:9426   */\n    tag_123:\n        /* \"#utility.yul\":9377:9401   */\n      tag_249\n        /* \"#utility.yul\":9395:9400   */\n      dup2\n        /* \"#utility.yul\":9377:9401   */\n      tag_108\n      jump\t// in\n    tag_249:\n        /* \"#utility.yul\":9370:9375   */\n      dup2\n        /* \"#utility.yul\":9367:9402   */\n      eq\n        /* \"#utility.yul\":9357:9420   */\n      tag_250\n      jumpi\n        /* \"#utility.yul\":9416:9417   */\n      0x00\n        /* \"#utility.yul\":9413:9414   */\n      dup1\n        /* \"#utility.yul\":9406:9418   */\n      revert\n        /* \"#utility.yul\":9357:9420   */\n    tag_250:\n        /* \"#utility.yul\":9304:9426   */\n      pop\n      jump\t// out\n        /* \"#utility.yul\":9432:9571   */\n    tag_124:\n        /* \"#utility.yul\":9478:9483   */\n      0x00\n        /* \"#utility.yul\":9516:9522   */\n      dup2\n        /* \"#utility.yul\":9503:9523   */\n      calldataload\n        /* \"#utility.yul\":9494:9523   */\n      swap1\n      pop\n        /* \"#utility.yul\":9532:9565   */\n      tag_252\n        /* \"#utility.yul\":9559:9564   */\n      dup2\n        /* \"#utility.yul\":9532:9565   */\n      tag_123\n      jump\t// in\n    tag_252:\n        /* \"#utility.yul\":9432:9571   */\n      swap3\n      swap2\n      pop\n      pop\n      jump\t// out\n        /* \"#utility.yul\":9594:10304   */\n    tag_125:\n        /* \"#utility.yul\":9690:9695   */\n      0x00\n        /* \"#utility.yul\":9715:9796   */\n      tag_254\n        /* \"#utility.yul\":9731:9795   */\n      tag_255\n        /* \"#utility.yul\":9788:9794   */\n      dup5\n        /* \"#utility.yul\":9731:9795   */\n      tag_121\n      jump\t// in\n    tag_255:\n        /* \"#utility.yul\":9715:9796   */\n      tag_116\n      jump\t// in\n    tag_254:\n        /* \"#utility.yul\":9706:9796   */\n      swap1\n      pop\n        /* \"#utility.yul\":9816:9821   */\n      dup1\n        /* \"#utility.yul\":9845:9851   */\n      dup4\n        /* \"#utility.yul\":9838:9843   */\n      dup3\n        /* \"#utility.yul\":9831:9852   */\n      mstore\n        /* \"#utility.yul\":9879:9883   */\n      0x20\n        /* \"#utility.yul\":9872:9877   */\n      dup3\n        /* \"#utility.yul\":9868:9884   */\n      add\n        /* \"#utility.yul\":9861:9884   */\n      swap1\n      pop\n        /* \"#utility.yul\":9932:9936   */\n      0x20\n        /* \"#utility.yul\":9924:9930   */\n      dup5\n        /* \"#utility.yul\":9920:9937   */\n      mul\n        /* \"#utility.yul\":9912:9918   */\n      dup4\n        /* \"#utility.yul\":9908:9938   */\n      add\n        /* \"#utility.yul\":9961:9964   */\n      dup6\n        /* \"#utility.yul\":9953:9959   */\n      dup2\n        /* \"#utility.yul\":9950:9965   */\n      gt\n        /* \"#utility.yul\":9947:10069   */\n      iszero\n      tag_256\n      jumpi\n        /* \"#utility.yul\":9980:10059   */\n      tag_257\n      tag_122\n      jump\t// in\n    tag_257:\n        /* \"#utility.yul\":9947:10069   */\n    tag_256:\n        /* \"#utility.yul\":10095:10101   */\n      dup4\n        /* \"#utility.yul\":10078:10298   */\n    tag_258:\n        /* \"#utility.yul\":10112:10118   */\n      dup2\n        /* \"#utility.yul\":10107:10110   */\n      dup2\n        /* \"#utility.yul\":10104:10119   */\n      lt\n        /* \"#utility.yul\":10078:10298   */\n      iszero\n      tag_260\n      jumpi\n        /* \"#utility.yul\":10187:10190   */\n      dup1\n        /* \"#utility.yul\":10216:10253   */\n      tag_261\n        /* \"#utility.yul\":10249:10252   */\n      dup9\n        /* \"#utility.yul\":10237:10247   */\n      dup3\n        /* \"#utility.yul\":10216:10253   */\n      tag_124\n      jump\t// in\n    tag_261:\n        /* \"#utility.yul\":10211:10214   */\n      dup5\n        /* \"#utility.yul\":10204:10254   */\n      mstore\n        /* \"#utility.yul\":10283:10287   */\n      0x20\n        /* \"#utility.yul\":10278:10281   */\n      dup5\n        /* \"#utility.yul\":10274:10288   */\n      add\n        /* \"#utility.yul\":10267:10288   */\n      swap4\n      pop\n        /* \"#utility.yul\":10154:10298   */\n      pop\n        /* \"#utility.yul\":10138:10142   */\n      0x20\n        /* \"#utility.yul\":10133:10136   */\n      dup2\n        /* \"#utility.yul\":10129:10143   */\n      add\n        /* \"#utility.yul\":10122:10143   */\n      swap1\n      pop\n        /* \"#utility.yul\":10078:10298   */\n      jump(tag_258)\n    tag_260:\n        /* \"#utility.yul\":10082:10103   */\n      pop\n        /* \"#utility.yul\":9696:10304   */\n      pop\n      pop\n        /* \"#utility.yul\":9594:10304   */\n      swap4\n      swap3\n      pop\n      pop\n      pop\n      jump\t// out\n        /* \"#utility.yul\":10327:10697   */\n    tag_126:\n        /* \"#utility.yul\":10398:10403   */\n      0x00\n        /* \"#utility.yul\":10447:10450   */\n      dup3\n        /* \"#utility.yul\":10440:10444   */\n      0x1f\n        /* \"#utility.yul\":10432:10438   */\n      dup4\n        /* \"#utility.yul\":10428:10445   */\n      add\n        /* \"#utility.yul\":10424:10451   */\n      slt\n        /* \"#utility.yul\":10414:10536   */\n      tag_263\n      jumpi\n        /* \"#utility.yul\":10455:10534   */\n      tag_264\n      tag_113\n      jump\t// in\n    tag_264:\n        /* \"#utility.yul\":10414:10536   */\n    tag_263:\n        /* \"#utility.yul\":10572:10578   */\n      dup2\n        /* \"#utility.yul\":10559:10579   */\n      calldataload\n        /* \"#utility.yul\":10597:10691   */\n      tag_265\n        /* \"#utility.yul\":10687:10690   */\n      dup5\n        /* \"#utility.yul\":10679:10685   */\n      dup3\n        /* \"#utility.yul\":10672:10676   */\n      0x20\n        /* \"#utility.yul\":10664:10670   */\n      dup7\n        /* \"#utility.yul\":10660:10677   */\n      add\n        /* \"#utility.yul\":10597:10691   */\n      tag_125\n      jump\t// in\n    tag_265:\n        /* \"#utility.yul\":10588:10691   */\n      swap2\n      pop\n        /* \"#utility.yul\":10404:10697   */\n      pop\n        /* \"#utility.yul\":10327:10697   */\n      swap3\n      swap2\n      pop\n      pop\n      jump\t// out\n        /* \"#utility.yul\":10703:11892   */\n    tag_13:\n        /* \"#utility.yul\":10825:10831   */\n      0x00\n        /* \"#utility.yul\":10833:10839   */\n      dup1\n        /* \"#utility.yul\":10841:10847   */\n      0x00\n        /* \"#utility.yul\":10890:10892   */\n      0x60\n        /* \"#utility.yul\":10878:10887   */\n      dup5\n        /* \"#utility.yul\":10869:10876   */\n      dup7\n        /* \"#utility.yul\":10865:10888   */\n      sub\n        /* \"#utility.yul\":10861:10893   */\n      slt\n        /* \"#utility.yul\":10858:10977   */\n      iszero\n      tag_267\n      jumpi\n        /* \"#utility.yul\":10896:10975   */\n      tag_268\n      tag_86\n      jump\t// in\n    tag_268:\n        /* \"#utility.yul\":10858:10977   */\n    tag_267:\n        /* \"#utility.yul\":11044:11045   */\n      0x00\n        /* \"#utility.yul\":11033:11042   */\n      dup5\n        /* \"#utility.yul\":11029:11046   */\n      add\n        /* \"#utility.yul\":11016:11047   */\n      calldataload\n        /* \"#utility.yul\":11074:11092   */\n      0xffffffffffffffff\n        /* \"#utility.yul\":11066:11072   */\n      dup2\n        /* \"#utility.yul\":11063:11093   */\n      gt\n        /* \"#utility.yul\":11060:11177   */\n      iszero\n      tag_269\n      jumpi\n        /* \"#utility.yul\":11096:11175   */\n      tag_270\n      tag_87\n      jump\t// in\n    tag_270:\n        /* \"#utility.yul\":11060:11177   */\n    tag_269:\n        /* \"#utility.yul\":11201:11264   */\n      tag_271\n        /* \"#utility.yul\":11256:11263   */\n      dup7\n        /* \"#utility.yul\":11247:11253   */\n      dup3\n        /* \"#utility.yul\":11236:11245   */\n      dup8\n        /* \"#utility.yul\":11232:11254   */\n      add\n        /* \"#utility.yul\":11201:11264   */\n      tag_120\n      jump\t// in\n    tag_271:\n        /* \"#utility.yul\":11191:11264   */\n      swap4\n      pop\n        /* \"#utility.yul\":10987:11274   */\n      pop\n        /* \"#utility.yul\":11341:11343   */\n      0x20\n        /* \"#utility.yul\":11330:11339   */\n      dup5\n        /* \"#utility.yul\":11326:11344   */\n      add\n        /* \"#utility.yul\":11313:11345   */\n      calldataload\n        /* \"#utility.yul\":11372:11390   */\n      0xffffffffffffffff\n        /* \"#utility.yul\":11364:11370   */\n      dup2\n        /* \"#utility.yul\":11361:11391   */\n      gt\n        /* \"#utility.yul\":11358:11475   */\n      iszero\n      tag_272\n      jumpi\n        /* \"#utility.yul\":11394:11473   */\n      tag_273\n      tag_87\n      jump\t// in\n    tag_273:\n        /* \"#utility.yul\":11358:11475   */\n    tag_272:\n        /* \"#utility.yul\":11499:11562   */\n      tag_274\n        /* \"#utility.yul\":11554:11561   */\n      dup7\n        /* \"#utility.yul\":11545:11551   */\n      dup3\n        /* \"#utility.yul\":11534:11543   */\n      dup8\n        /* \"#utility.yul\":11530:11552   */\n      add\n        /* \"#utility.yul\":11499:11562   */\n      tag_120\n      jump\t// in\n    tag_274:\n        /* \"#utility.yul\":11489:11562   */\n      swap3\n      pop\n        /* \"#utility.yul\":11284:11572   */\n      pop\n        /* \"#utility.yul\":11639:11641   */\n      0x40\n        /* \"#utility.yul\":11628:11637   */\n      dup5\n        /* \"#utility.yul\":11624:11642   */\n      add\n        /* \"#utility.yul\":11611:11643   */\n      calldataload\n        /* \"#utility.yul\":11670:11688   */\n      0xffffffffffffffff\n        /* \"#utility.yul\":11662:11668   */\n      dup2\n        /* \"#utility.yul\":11659:11689   */\n      gt\n        /* \"#utility.yul\":11656:11773   */\n      iszero\n      tag_275\n      jumpi\n        /* \"#utility.yul\":11692:11771   */\n      tag_276\n      tag_87\n      jump\t// in\n    tag_276:\n        /* \"#utility.yul\":11656:11773   */\n    tag_275:\n        /* \"#utility.yul\":11797:11875   */\n      tag_277\n        /* \"#utility.yul\":11867:11874   */\n      dup7\n        /* \"#utility.yul\":11858:11864   */\n      dup3\n        /* \"#utility.yul\":11847:11856   */\n      dup8\n        /* \"#utility.yul\":11843:11865   */\n      add\n        /* \"#utility.yul\":11797:11875   */\n      tag_126\n      jump\t// in\n    tag_277:\n        /* \"#utility.yul\":11787:11875   */\n      swap2\n      pop\n        /* \"#utility.yul\":11582:11885   */\n      pop\n        /* \"#utility.yul\":10703:11892   */\n      swap3\n      pop\n      swap3\n      pop\n      swap3\n      jump\t// out\n        /* \"#utility.yul\":11898:12061   */\n    tag_127:\n        /* \"#utility.yul\":12038:12053   */\n      0x4e6f20706f6c6c20666f756e6400000000000000000000000000000000000000\n        /* \"#utility.yul\":12034:12035   */\n      0x00\n        /* \"#utility.yul\":12026:12032   */\n      dup3\n        /* \"#utility.yul\":12022:12036   */\n      add\n        /* \"#utility.yul\":12015:12054   */\n      mstore\n        /* \"#utility.yul\":11898:12061   */\n      pop\n      jump\t// out\n        /* \"#utility.yul\":12067:12433   */\n    tag_128:\n        /* \"#utility.yul\":12209:12212   */\n      0x00\n        /* \"#utility.yul\":12230:12297   */\n      tag_280\n        /* \"#utility.yul\":12294:12296   */\n      0x0d\n        /* \"#utility.yul\":12289:12292   */\n      dup4\n        /* \"#utility.yul\":12230:12297   */\n      tag_94\n      jump\t// in\n    tag_280:\n        /* \"#utility.yul\":12223:12297   */\n      swap2\n      pop\n        /* \"#utility.yul\":12306:12399   */\n      tag_281\n        /* \"#utility.yul\":12395:12398   */\n      dup3\n        /* \"#utility.yul\":12306:12399   */\n      tag_127\n      jump\t// in\n    tag_281:\n        /* \"#utility.yul\":12424:12426   */\n      0x20\n        /* \"#utility.yul\":12419:12422   */\n      dup3\n        /* \"#utility.yul\":12415:12427   */\n      add\n        /* \"#utility.yul\":12408:12427   */\n      swap1\n      pop\n        /* \"#utility.yul\":12067:12433   */\n      swap2\n      swap1\n      pop\n      jump\t// out\n        /* \"#utility.yul\":12439:12858   */\n    tag_19:\n        /* \"#utility.yul\":12605:12609   */\n      0x00\n        /* \"#utility.yul\":12643:12645   */\n      0x20\n        /* \"#utility.yul\":12632:12641   */\n      dup3\n        /* \"#utility.yul\":12628:12646   */\n      add\n        /* \"#utility.yul\":12620:12646   */\n      swap1\n      pop\n        /* \"#utility.yul\":12692:12701   */\n      dup2\n        /* \"#utility.yul\":12686:12690   */\n      dup2\n        /* \"#utility.yul\":12682:12702   */\n      sub\n        /* \"#utility.yul\":12678:12679   */\n      0x00\n        /* \"#utility.yul\":12667:12676   */\n      dup4\n        /* \"#utility.yul\":12663:12680   */\n      add\n        /* \"#utility.yul\":12656:12703   */\n      mstore\n        /* \"#utility.yul\":12720:12851   */\n      tag_283\n        /* \"#utility.yul\":12846:12850   */\n      dup2\n        /* \"#utility.yul\":12720:12851   */\n      tag_128\n      jump\t// in\n    tag_283:\n        /* \"#utility.yul\":12712:12851   */\n      swap1\n      pop\n        /* \"#utility.yul\":12439:12858   */\n      swap2\n      swap1\n      pop\n      jump\t// out\n        /* \"#utility.yul\":12864:13044   */\n    tag_22:\n        /* \"#utility.yul\":12912:12989   */\n      0x4e487b7100000000000000000000000000000000000000000000000000000000\n        /* \"#utility.yul\":12909:12910   */\n      0x00\n        /* \"#utility.yul\":12902:12990   */\n      mstore\n        /* \"#utility.yul\":13009:13013   */\n      0x32\n        /* \"#utility.yul\":13006:13007   */\n      0x04\n        /* \"#utility.yul\":12999:13014   */\n      mstore\n        /* \"#utility.yul\":13033:13037   */\n      0x24\n        /* \"#utility.yul\":13030:13031   */\n      0x00\n        /* \"#utility.yul\":13023:13038   */\n      revert\n        /* \"#utility.yul\":13050:13230   */\n    tag_129:\n        /* \"#utility.yul\":13098:13175   */\n      0x4e487b7100000000000000000000000000000000000000000000000000000000\n        /* \"#utility.yul\":13095:13096   */\n      0x00\n        /* \"#utility.yul\":13088:13176   */\n      mstore\n        /* \"#utility.yul\":13195:13199   */\n      0x22\n        /* \"#utility.yul\":13192:13193   */\n      0x04\n        /* \"#utility.yul\":13185:13200   */\n      mstore\n        /* \"#utility.yul\":13219:13223   */\n      0x24\n        /* \"#utility.yul\":13216:13217   */\n      0x00\n        /* \"#utility.yul\":13209:13224   */\n      revert\n        /* \"#utility.yul\":13236:13556   */\n    tag_37:\n        /* \"#utility.yul\":13280:13286   */\n      0x00\n        /* \"#utility.yul\":13317:13318   */\n      0x02\n        /* \"#utility.yul\":13311:13315   */\n      dup3\n        /* \"#utility.yul\":13307:13319   */\n      div\n        /* \"#utility.yul\":13297:13319   */\n      swap1\n      pop\n        /* \"#utility.yul\":13364:13365   */\n      0x01\n        /* \"#utility.yul\":13358:13362   */\n      dup3\n        /* \"#utility.yul\":13354:13366   */\n      and\n        /* \"#utility.yul\":13385:13403   */\n      dup1\n        /* \"#utility.yul\":13375:13456   */\n      tag_287\n      jumpi\n        /* \"#utility.yul\":13441:13445   */\n      0x7f\n        /* \"#utility.yul\":13433:13439   */\n      dup3\n        /* \"#utility.yul\":13429:13446   */\n      and\n        /* \"#utility.yul\":13419:13446   */\n      swap2\n      pop\n        /* \"#utility.yul\":13375:13456   */\n    tag_287:\n        /* \"#utility.yul\":13503:13505   */\n      0x20\n        /* \"#utility.yul\":13495:13501   */\n      dup3\n        /* \"#utility.yul\":13492:13506   */\n      lt\n        /* \"#utility.yul\":13472:13490   */\n      dup2\n        /* \"#utility.yul\":13469:13507   */\n      sub\n        /* \"#utility.yul\":13466:13550   */\n      tag_288\n      jumpi\n        /* \"#utility.yul\":13522:13540   */\n      tag_289\n      tag_129\n      jump\t// in\n    tag_289:\n        /* \"#utility.yul\":13466:13550   */\n    tag_288:\n        /* \"#utility.yul\":13287:13556   */\n      pop\n        /* \"#utility.yul\":13236:13556   */\n      swap2\n      swap1\n      pop\n      jump\t// out\n        /* \"#utility.yul\":13562:13726   */\n    tag_130:\n        /* \"#utility.yul\":13702:13718   */\n      0x456d707479207175657374696f6e000000000000000000000000000000000000\n        /* \"#utility.yul\":13698:13699   */\n      0x00\n        /* \"#utility.yul\":13690:13696   */\n      dup3\n        /* \"#utility.yul\":13686:13700   */\n      add\n        /* \"#utility.yul\":13679:13719   */\n      mstore\n        /* \"#utility.yul\":13562:13726   */\n      pop\n      jump\t// out\n        /* \"#utility.yul\":13732:14098   */\n    tag_131:\n        /* \"#utility.yul\":13874:13877   */\n      0x00\n        /* \"#utility.yul\":13895:13962   */\n      tag_292\n        /* \"#utility.yul\":13959:13961   */\n      0x0e\n        /* \"#utility.yul\":13954:13957   */\n      dup4\n        /* \"#utility.yul\":13895:13962   */\n      tag_94\n      jump\t// in\n    tag_292:\n        /* \"#utility.yul\":13888:13962   */\n      swap2\n      pop\n        /* \"#utility.yul\":13971:14064   */\n      tag_293\n        /* \"#utility.yul\":14060:14063   */\n      dup3\n        /* \"#utility.yul\":13971:14064   */\n      tag_130\n      jump\t// in\n    tag_293:\n        /* \"#utility.yul\":14089:14091   */\n      0x20\n        /* \"#utility.yul\":14084:14087   */\n      dup3\n        /* \"#utility.yul\":14080:14092   */\n      add\n        /* \"#utility.yul\":14073:14092   */\n      swap1\n      pop\n        /* \"#utility.yul\":13732:14098   */\n      swap2\n      swap1\n      pop\n      jump\t// out\n        /* \"#utility.yul\":14104:14523   */\n    tag_54:\n        /* \"#utility.yul\":14270:14274   */\n      0x00\n        /* \"#utility.yul\":14308:14310   */\n      0x20\n        /* \"#utility.yul\":14297:14306   */\n      dup3\n        /* \"#utility.yul\":14293:14311   */\n      add\n        /* \"#utility.yul\":14285:14311   */\n      swap1\n      pop\n        /* \"#utility.yul\":14357:14366   */\n      dup2\n        /* \"#utility.yul\":14351:14355   */\n      dup2\n        /* \"#utility.yul\":14347:14367   */\n      sub\n        /* \"#utility.yul\":14343:14344   */\n      0x00\n        /* \"#utility.yul\":14332:14341   */\n      dup4\n        /* \"#utility.yul\":14328:14345   */\n      add\n        /* \"#utility.yul\":14321:14368   */\n      mstore\n        /* \"#utility.yul\":14385:14516   */\n      tag_295\n        /* \"#utility.yul\":14511:14515   */\n      dup2\n        /* \"#utility.yul\":14385:14516   */\n      tag_131\n      jump\t// in\n    tag_295:\n        /* \"#utility.yul\":14377:14516   */\n      swap1\n      pop\n        /* \"#utility.yul\":14104:14523   */\n      swap2\n      swap1\n      pop\n      jump\t// out\n        /* \"#utility.yul\":14529:14706   */\n    tag_132:\n        /* \"#utility.yul\":14669:14698   */\n      0x4174206c656173742032206f7074696f6e732072657175697265640000000000\n        /* \"#utility.yul\":14665:14666   */\n      0x00\n        /* \"#utility.yul\":14657:14663   */\n      dup3\n        /* \"#utility.yul\":14653:14667   */\n      add\n        /* \"#utility.yul\":14646:14699   */\n      mstore\n        /* \"#utility.yul\":14529:14706   */\n      pop\n      jump\t// out\n        /* \"#utility.yul\":14712:15078   */\n    tag_133:\n        /* \"#utility.yul\":14854:14857   */\n      0x00\n        /* \"#utility.yul\":14875:14942   */\n      tag_298\n        /* \"#utility.yul\":14939:14941   */\n      0x1b\n        /* \"#utility.yul\":14934:14937   */\n      dup4\n        /* \"#utility.yul\":14875:14942   */\n      tag_94\n      jump\t// in\n    tag_298:\n        /* \"#utility.yul\":14868:14942   */\n      swap2\n      pop\n        /* \"#utility.yul\":14951:15044   */\n      tag_299\n        /* \"#utility.yul\":15040:15043   */\n      dup3\n        /* \"#utility.yul\":14951:15044   */\n      tag_132\n      jump\t// in\n    tag_299:\n        /* \"#utility.yul\":15069:15071   */\n      0x20\n        /* \"#utility.yul\":15064:15067   */\n      dup3\n        /* \"#utility.yul\":15060:15072   */\n      add\n        /* \"#utility.yul\":15053:15072   */\n      swap1\n      pop\n        /* \"#utility.yul\":14712:15078   */\n      swap2\n      swap1\n      pop\n      jump\t// out\n        /* \"#utility.yul\":15084:15503   */\n    tag_57:\n        /* \"#utility.yul\":15250:15254   */\n      0x00\n        /* \"#utility.yul\":15288:15290   */\n      0x20\n        /* \"#utility.yul\":15277:15286   */\n      dup3\n        /* \"#utility.yul\":15273:15291   */\n      add\n        /* \"#utility.yul\":15265:15291   */\n      swap1\n      pop\n        /* \"#utility.yul\":15337:15346   */\n      dup2\n        /* \"#utility.yul\":15331:15335   */\n      dup2\n        /* \"#utility.yul\":15327:15347   */\n      sub\n        /* \"#utility.yul\":15323:15324   */\n      0x00\n        /* \"#utility.yul\":15312:15321   */\n      dup4\n        /* \"#utility.yul\":15308:15325   */\n      add\n        /* \"#utility.yul\":15301:15348   */\n      mstore\n        /* \"#utility.yul\":15365:15496   */\n      tag_301\n        /* \"#utility.yul\":15491:15495   */\n      dup2\n        /* \"#utility.yul\":15365:15496   */\n      tag_133\n      jump\t// in\n    tag_301:\n        /* \"#utility.yul\":15357:15496   */\n      swap1\n      pop\n        /* \"#utility.yul\":15084:15503   */\n      swap2\n      swap1\n      pop\n      jump\t// out\n        /* \"#utility.yul\":15509:15650   */\n    tag_134:\n        /* \"#utility.yul\":15558:15562   */\n      0x00\n        /* \"#utility.yul\":15581:15584   */\n      dup2\n        /* \"#utility.yul\":15573:15584   */\n      swap1\n      pop\n        /* \"#utility.yul\":15604:15607   */\n      dup2\n        /* \"#utility.yul\":15601:15602   */\n      0x00\n        /* \"#utility.yul\":15594:15608   */\n      mstore\n        /* \"#utility.yul\":15638:15642   */\n      0x20\n        /* \"#utility.yul\":15635:15636   */\n      0x00\n        /* \"#utility.yul\":15625:15643   */\n      keccak256\n        /* \"#utility.yul\":15617:15643   */\n      swap1\n      pop\n        /* \"#utility.yul\":15509:15650   */\n      swap2\n      swap1\n      pop\n      jump\t// out\n        /* \"#utility.yul\":15656:15749   */\n    tag_135:\n        /* \"#utility.yul\":15693:15699   */\n      0x00\n        /* \"#utility.yul\":15740:15742   */\n      0x20\n        /* \"#utility.yul\":15735:15737   */\n      0x1f\n        /* \"#utility.yul\":15728:15733   */\n      dup4\n        /* \"#utility.yul\":15724:15738   */\n      add\n        /* \"#utility.yul\":15720:15743   */\n      div\n        /* \"#utility.yul\":15710:15743   */\n      swap1\n      pop\n        /* \"#utility.yul\":15656:15749   */\n      swap2\n      swap1\n      pop\n      jump\t// out\n        /* \"#utility.yul\":15755:15862   */\n    tag_136:\n        /* \"#utility.yul\":15799:15807   */\n      0x00\n        /* \"#utility.yul\":15849:15854   */\n      dup3\n        /* \"#utility.yul\":15843:15847   */\n      dup3\n        /* \"#utility.yul\":15839:15855   */\n      shl\n        /* \"#utility.yul\":15818:15855   */\n      swap1\n      pop\n        /* \"#utility.yul\":15755:15862   */\n      swap3\n      swap2\n      pop\n      pop\n      jump\t// out\n        /* \"#utility.yul\":15868:16261   */\n    tag_137:\n        /* \"#utility.yul\":15937:15943   */\n      0x00\n        /* \"#utility.yul\":15987:15988   */\n      0x08\n        /* \"#utility.yul\":15975:15985   */\n      dup4\n        /* \"#utility.yul\":15971:15989   */\n      mul\n        /* \"#utility.yul\":16010:16107   */\n      tag_306\n        /* \"#utility.yul\":16040:16106   */\n      0xffffffffffffffffffffffffffffffffffffffffffffffffffffffffffffffff\n        /* \"#utility.yul\":16029:16038   */\n      dup3\n        /* \"#utility.yul\":16010:16107   */\n      tag_136\n      jump\t// in\n    tag_306:\n        /* \"#utility.yul\":16128:16167   */\n      tag_307\n        /* \"#utility.yul\":16158:16166   */\n      dup7\n        /* \"#utility.yul\":16147:16156   */\n      dup4\n        /* \"#utility.yul\":16128:16167   */\n      tag_136\n      jump\t// in\n    tag_307:\n        /* \"#utility.yul\":16116:16167   */\n      swap6\n      pop\n        /* \"#utility.yul\":16200:16204   */\n      dup1\n        /* \"#utility.yul\":16196:16205   */\n      not\n        /* \"#utility.yul\":16189:16194   */\n      dup5\n        /* \"#utility.yul\":16185:16206   */\n      and\n        /* \"#utility.yul\":16176:16206   */\n      swap4\n      pop\n        /* \"#utility.yul\":16249:16253   */\n      dup1\n        /* \"#utility.yul\":16239:16247   */\n      dup7\n        /* \"#utility.yul\":16235:16254   */\n      and\n        /* \"#utility.yul\":16228:16233   */\n      dup5\n        /* \"#utility.yul\":16225:16255   */\n      or\n        /* \"#utility.yul\":16215:16255   */\n      swap3\n      pop\n        /* \"#utility.yul\":15944:16261   */\n      pop\n      pop\n        /* \"#utility.yul\":15868:16261   */\n      swap4\n      swap3\n      pop\n      pop\n      pop\n      jump\t// out\n        /* \"#utility.yul\":16267:16327   */\n    tag_138:\n        /* \"#utility.yul\":16295:16298   */\n      0x00\n        /* \"#utility.yul\":16316:16321   */\n      dup2\n        /* \"#utility.yul\":16309:16321   */\n      swap1\n      pop\n        /* \"#utility.yul\":16267:16327   */\n      swap2\n      swap1\n      pop\n      jump\t// out\n        /* \"#utility.yul\":16333:16475   */\n    tag_139:\n        /* \"#utility.yul\":16383:16392   */\n      0x00\n        /* \"#utility.yul\":16416:16469   */\n      tag_310\n        /* \"#utility.yul\":16434:16468   */\n      tag_311\n        /* \"#utility.yul\":16443:16467   */\n      tag_312\n        /* \"#utility.yul\":16461:16466   */\n      dup5\n        /* \"#utility.yul\":16443:16467   */\n      tag_91\n      jump\t// in\n    tag_312:\n        /* \"#utility.yul\":16434:16468   */\n      tag_138\n      jump\t// in\n    tag_311:\n        /* \"#utility.yul\":16416:16469   */\n      tag_91\n      jump\t// in\n    tag_310:\n        /* \"#utility.yul\":16403:16469   */\n      swap1\n      pop\n        /* \"#utility.yul\":16333:16475   */\n      swap2\n      swap1\n      pop\n      jump\t// out\n        /* \"#utility.yul\":16481:16556   */\n    tag_140:\n        /* \"#utility.yul\":16524:16527   */\n      0x00\n        /* \"#utility.yul\":16545:16550   */\n      dup2\n        /* \"#utility.yul\":16538:16550   */\n      swap1\n      pop\n        /* \"#utility.yul\":16481:16556   */\n      swap2\n      swap1\n      pop\n      jump\t// out\n        /* \"#utility.yul\":16562:16831   */\n    tag_141:\n        /* \"#utility.yul\":16672:16711   */\n      tag_315\n        /* \"#utility.yul\":16703:16710   */\n      dup4\n        /* \"#utility.yul\":16672:16711   */\n      tag_139\n      jump\t// in\n    tag_315:\n        /* \"#utility.yul\":16733:16824   */\n      tag_316\n        /* \"#utility.yul\":16782:16823   */\n      tag_317\n        /* \"#utility.yul\":16806:16822   */\n      dup3\n        /* \"#utility.yul\":16782:16823   */\n      tag_140\n      jump\t// in\n    tag_317:\n        /* \"#utility.yul\":16774:16780   */\n      dup5\n        /* \"#utility.yul\":16767:16771   */\n      dup5\n        /* \"#utility.yul\":16761:16772   */\n      sload\n        /* \"#utility.yul\":16733:16824   */\n      tag_137\n      jump\t// in\n    tag_316:\n        /* \"#utility.yul\":16727:16731   */\n      dup3\n        /* \"#utility.yul\":16720:16825   */\n      sstore\n        /* \"#utility.yul\":16638:16831   */\n      pop\n        /* \"#utility.yul\":16562:16831   */\n      pop\n      pop\n      pop\n      jump\t// out\n        /* \"#utility.yul\":16837:16910   */\n    tag_142:\n        /* \"#utility.yul\":16882:16885   */\n      0x00\n        /* \"#utility.yul\":16837:16910   */\n      swap1\n      jump\t// out\n        /* \"#utility.yul\":16916:17105   */\n    tag_143:\n        /* \"#utility.yul\":16993:17025   */\n      tag_320\n      tag_142\n      jump\t// in\n    tag_320:\n        /* \"#utility.yul\":17034:17099   */\n      tag_321\n        /* \"#utility.yul\":17092:17098   */\n      dup2\n        /* \"#utility.yul\":17084:17090   */\n      dup5\n        /* \"#utility.yul\":17078:17082   */\n      dup5\n        /* \"#utility.yul\":17034:17099   */\n      tag_141\n      jump\t// in\n    tag_321:\n        /* \"#utility.yul\":16969:17105   */\n      pop\n        /* \"#utility.yul\":16916:17105   */\n      pop\n      pop\n      jump\t// out\n        /* \"#utility.yul\":17111:17297   */\n    tag_144:\n        /* \"#utility.yul\":17171:17291   */\n    tag_323:\n        /* \"#utility.yul\":17188:17191   */\n      dup2\n        /* \"#utility.yul\":17181:17186   */\n      dup2\n        /* \"#utility.yul\":17178:17192   */\n      lt\n        /* \"#utility.yul\":17171:17291   */\n      iszero\n      tag_325\n      jumpi\n        /* \"#utility.yul\":17242:17281   */\n      tag_326\n        /* \"#utility.yul\":17279:17280   */\n      0x00\n        /* \"#utility.yul\":17272:17277   */\n      dup3\n        /* \"#utility.yul\":17242:17281   */\n      tag_143\n      jump\t// in\n    tag_326:\n        /* \"#utility.yul\":17215:17216   */\n      0x01\n        /* \"#utility.yul\":17208:17213   */\n      dup2\n        /* \"#utility.yul\":17204:17217   */\n      add\n        /* \"#utility.yul\":17195:17217   */\n      swap1\n      pop\n        /* \"#utility.yul\":17171:17291   */\n      jump(tag_323)\n    tag_325:\n        /* \"#utility.yul\":17111:17297   */\n      pop\n      pop\n      jump\t// out\n        /* \"#utility.yul\":17303:17846   */\n    tag_145:\n        /* \"#utility.yul\":17404:17406   */\n      0x1f\n        /* \"#utility.yul\":17399:17402   */\n      dup3\n        /* \"#utility.yul\":17396:17407   */\n      gt\n        /* \"#utility.yul\":17393:17839   */\n      iszero\n      tag_328\n      jumpi\n        /* \"#utility.yul\":17438:17476   */\n      tag_329\n        /* \"#utility.yul\":17470:17475   */\n      dup2\n        /* \"#utility.yul\":17438:17476   */\n      tag_134\n      jump\t// in\n    tag_329:\n        /* \"#utility.yul\":17522:17551   */\n      tag_330\n        /* \"#utility.yul\":17540:17550   */\n      dup5\n        /* \"#utility.yul\":17522:17551   */\n      tag_135\n      jump\t// in\n    tag_330:\n        /* \"#utility.yul\":17512:17520   */\n      dup2\n        /* \"#utility.yul\":17508:17552   */\n      add\n        /* \"#utility.yul\":17705:17707   */\n      0x20\n        /* \"#utility.yul\":17693:17703   */\n      dup6\n        /* \"#utility.yul\":17690:17708   */\n      lt\n        /* \"#utility.yul\":17687:17736   */\n      iszero\n      tag_331\n      jumpi\n        /* \"#utility.yul\":17726:17734   */\n      dup2\n        /* \"#utility.yul\":17711:17734   */\n      swap1\n      pop\n        /* \"#utility.yul\":17687:17736   */\n    tag_331:\n        /* \"#utility.yul\":17749:17829   */\n      tag_332\n        /* \"#utility.yul\":17805:17827   */\n      tag_333\n        /* \"#utility.yul\":17823:17826   */\n      dup6\n        /* \"#utility.yul\":17805:17827   */\n      tag_135\n      jump\t// in\n    tag_333:\n        /* \"#utility.yul\":17795:17803   */\n      dup4\n        /* \"#utility.yul\":17791:17828   */\n      add\n        /* \"#utility.yul\":17778:17789   */\n      dup3\n        /* \"#utility.yul\":17749:17829   */\n      tag_144\n      jump\t// in\n    tag_332:\n        /* \"#utility.yul\":17408:17839   */\n      pop\n      pop\n        /* \"#utility.yul\":17393:17839   */\n    tag_328:\n        /* \"#utility.yul\":17303:17846   */\n      pop\n      pop\n      pop\n      jump\t// out\n        /* \"#utility.yul\":17852:17969   */\n    tag_146:\n        /* \"#utility.yul\":17906:17914   */\n      0x00\n        /* \"#utility.yul\":17956:17961   */\n      dup3\n        /* \"#utility.yul\":17950:17954   */\n      dup3\n        /* \"#utility.yul\":17946:17962   */\n      shr\n        /* \"#utility.yul\":17925:17962   */\n      swap1\n      pop\n        /* \"#utility.yul\":17852:17969   */\n      swap3\n      swap2\n      pop\n      pop\n      jump\t// out\n        /* \"#utility.yul\":17975:18144   */\n    tag_147:\n        /* \"#utility.yul\":18019:18025   */\n      0x00\n        /* \"#utility.yul\":18052:18103   */\n      tag_336\n        /* \"#utility.yul\":18100:18101   */\n      0x00\n        /* \"#utility.yul\":18096:18102   */\n      not\n        /* \"#utility.yul\":18088:18093   */\n      dup5\n        /* \"#utility.yul\":18085:18086   */\n      0x08\n        /* \"#utility.yul\":18081:18094   */\n      mul\n        /* \"#utility.yul\":18052:18103   */\n      tag_146\n      jump\t// in\n    tag_336:\n        /* \"#utility.yul\":18048:18104   */\n      not\n        /* \"#utility.yul\":18133:18137   */\n      dup1\n        /* \"#utility.yul\":18127:18131   */\n      dup4\n        /* \"#utility.yul\":18123:18138   */\n      and\n        /* \"#utility.yul\":18113:18138   */\n      swap2\n      pop\n        /* \"#utility.yul\":18026:18144   */\n      pop\n        /* \"#utility.yul\":17975:18144   */\n      swap3\n      swap2\n      pop\n      pop\n      jump\t// out\n        /* \"#utility.yul\":18149:18444   */\n    tag_148:\n        /* \"#utility.yul\":18225:18229   */\n      0x00\n        /* \"#utility.yul\":18371:18400   */\n      tag_338\n        /* \"#utility.yul\":18396:18399   */\n      dup4\n        /* \"#utility.yul\":18390:18394   */\n      dup4\n        /* \"#utility.yul\":18371:18400   */\n      tag_147\n      jump\t// in\n    tag_338:\n        /* \"#utility.yul\":18363:18400   */\n      swap2\n      pop\n        /* \"#utility.yul\":18433:18436   */\n      dup3\n        /* \"#utility.yul\":18430:18431   */\n      0x02\n        /* \"#utility.yul\":18426:18437   */\n      mul\n        /* \"#utility.yul\":18420:18424   */\n      dup3\n        /* \"#utility.yul\":18417:18438   */\n      or\n        /* \"#utility.yul\":18409:18438   */\n      swap1\n      pop\n        /* \"#utility.yul\":18149:18444   */\n      swap3\n      swap2\n      pop\n      pop\n      jump\t// out\n        /* \"#utility.yul\":18449:19844   */\n    tag_64:\n        /* \"#utility.yul\":18566:18603   */\n      tag_340\n        /* \"#utility.yul\":18599:18602   */\n      dup3\n        /* \"#utility.yul\":18566:18603   */\n      tag_93\n      jump\t// in\n    tag_340:\n        /* \"#utility.yul\":18668:18686   */\n      0xffffffffffffffff\n        /* \"#utility.yul\":18660:18666   */\n      dup2\n        /* \"#utility.yul\":18657:18687   */\n      gt\n        /* \"#utility.yul\":18654:18710   */\n      iszero\n      tag_341\n      jumpi\n        /* \"#utility.yul\":18690:18708   */\n      tag_342\n      tag_60\n      jump\t// in\n    tag_342:\n        /* \"#utility.yul\":18654:18710   */\n    tag_341:\n        /* \"#utility.yul\":18734:18772   */\n      tag_343\n        /* \"#utility.yul\":18766:18770   */\n      dup3\n        /* \"#utility.yul\":18760:18771   */\n      sload\n        /* \"#utility.yul\":18734:18772   */\n      tag_37\n      jump\t// in\n    tag_343:\n        /* \"#utility.yul\":18819:18886   */\n      tag_344\n        /* \"#utility.yul\":18879:18885   */\n      dup3\n        /* \"#utility.yul\":18871:18877   */\n      dup3\n        /* \"#utility.yul\":18865:18869   */\n      dup6\n        /* \"#utility.yul\":18819:18886   */\n      tag_145\n      jump\t// in\n    tag_344:\n        /* \"#utility.yul\":18913:18914   */\n      0x00\n        /* \"#utility.yul\":18937:18941   */\n      0x20\n        /* \"#utility.yul\":18924:18941   */\n      swap1\n      pop\n        /* \"#utility.yul\":18969:18971   */\n      0x1f\n        /* \"#utility.yul\":18961:18967   */\n      dup4\n        /* \"#utility.yul\":18958:18972   */\n      gt\n        /* \"#utility.yul\":18986:18987   */\n      0x01\n        /* \"#utility.yul\":18981:19599   */\n      dup2\n      eq\n      tag_346\n      jumpi\n        /* \"#utility.yul\":19643:19644   */\n      0x00\n        /* \"#utility.yul\":19660:19666   */\n      dup5\n        /* \"#utility.yul\":19657:19734   */\n      iszero\n      tag_347\n      jumpi\n        /* \"#utility.yul\":19709:19718   */\n      dup3\n        /* \"#utility.yul\":19704:19707   */\n      dup8\n        /* \"#utility.yul\":19700:19719   */\n      add\n        /* \"#utility.yul\":19694:19720   */\n      mload\n        /* \"#utility.yul\":19685:19720   */\n      swap1\n      pop\n        /* \"#utility.yul\":19657:19734   */\n    tag_347:\n        /* \"#utility.yul\":19760:19827   */\n      tag_348\n        /* \"#utility.yul\":19820:19826   */\n      dup6\n        /* \"#utility.yul\":19813:19818   */\n      dup3\n        /* \"#utility.yul\":19760:19827   */\n      tag_148\n      jump\t// in\n    tag_348:\n        /* \"#utility.yul\":19754:19758   */\n      dup7\n        /* \"#utility.yul\":19747:19828   */\n      sstore\n        /* \"#utility.yul\":19616:19838   */\n      pop\n        /* \"#utility.yul\":18951:19838   */\n      jump(tag_345)\n        /* \"#utility.yul\":18981:19599   */\n    tag_346:\n        /* \"#utility.yul\":19033:19037   */\n      0x1f\n        /* \"#utility.yul\":19029:19038   */\n      not\n        /* \"#utility.yul\":19021:19027   */\n      dup5\n        /* \"#utility.yul\":19017:19039   */\n      and\n        /* \"#utility.yul\":19067:19104   */\n      tag_349\n        /* \"#utility.yul\":19099:19103   */\n      dup7\n        /* \"#utility.yul\":19067:19104   */\n      tag_134\n      jump\t// in\n    tag_349:\n        /* \"#utility.yul\":19126:19127   */\n      0x00\n        /* \"#utility.yul\":19140:19348   */\n    tag_350:\n        /* \"#utility.yul\":19154:19161   */\n      dup3\n        /* \"#utility.yul\":19151:19152   */\n      dup2\n        /* \"#utility.yul\":19148:19162   */\n      lt\n        /* \"#utility.yul\":19140:19348   */\n      iszero\n      tag_352\n      jumpi\n        /* \"#utility.yul\":19233:19242   */\n      dup5\n        /* \"#utility.yul\":19228:19231   */\n      dup10\n        /* \"#utility.yul\":19224:19243   */\n      add\n        /* \"#utility.yul\":19218:19244   */\n      mload\n        /* \"#utility.yul\":19210:19216   */\n      dup3\n        /* \"#utility.yul\":19203:19245   */\n      sstore\n        /* \"#utility.yul\":19284:19285   */\n      0x01\n        /* \"#utility.yul\":19276:19282   */\n      dup3\n        /* \"#utility.yul\":19272:19286   */\n      add\n        /* \"#utility.yul\":19262:19286   */\n      swap2\n      pop\n        /* \"#utility.yul\":19331:19333   */\n      0x20\n        /* \"#utility.yul\":19320:19329   */\n      dup6\n        /* \"#utility.yul\":19316:19334   */\n      add\n        /* \"#utility.yul\":19303:19334   */\n      swap5\n      pop\n        /* \"#utility.yul\":19177:19181   */\n      0x20\n        /* \"#utility.yul\":19174:19175   */\n      dup2\n        /* \"#utility.yul\":19170:19182   */\n      add\n        /* \"#utility.yul\":19165:19182   */\n      swap1\n      pop\n        /* \"#utility.yul\":19140:19348   */\n      jump(tag_350)\n    tag_352:\n        /* \"#utility.yul\":19376:19382   */\n      dup7\n        /* \"#utility.yul\":19367:19374   */\n      dup4\n        /* \"#utility.yul\":19364:19383   */\n      lt\n        /* \"#utility.yul\":19361:19540   */\n      iszero\n      tag_353\n      jumpi\n        /* \"#utility.yul\":19434:19443   */\n      dup5\n        /* \"#utility.yul\":19429:19432   */\n      dup10\n        /* \"#utility.yul\":19425:19444   */\n      add\n        /* \"#utility.yul\":19419:19445   */\n      mload\n        /* \"#utility.yul\":19477:19525   */\n      tag_354\n        /* \"#utility.yul\":19519:19523   */\n      0x1f\n        /* \"#utility.yul\":19511:19517   */\n      dup10\n        /* \"#utility.yul\":19507:19524   */\n      and\n        /* \"#utility.yul\":19496:19505   */\n      dup3\n        /* \"#utility.yul\":19477:19525   */\n      tag_147\n      jump\t// in\n    tag_354:\n        /* \"#utility.yul\":19469:19475   */\n      dup4\n        /* \"#utility.yul\":19462:19526   */\n      sstore\n        /* \"#utility.yul\":19384:19540   */\n      pop\n        /* \"#utility.yul\":19361:19540   */\n    tag_353:\n        /* \"#utility.yul\":19586:19587   */\n      0x01\n        /* \"#utility.yul\":19582:19583   */\n      0x02\n        /* \"#utility.yul\":19574:19580   */\n      dup9\n        /* \"#utility.yul\":19570:19584   */\n      mul\n        /* \"#utility.yul\":19566:19588   */\n      add\n        /* \"#utility.yul\":19560:19564   */\n      dup9\n        /* \"#utility.yul\":19553:19589   */\n      sstore\n        /* \"#utility.yul\":18988:19599   */\n      pop\n      pop\n      pop\n        /* \"#utility.yul\":18951:19838   */\n    tag_345:\n      pop\n        /* \"#utility.yul\":18541:19844   */\n      pop\n      pop\n      pop\n        /* \"#utility.yul\":18449:19844   */\n      pop\n      pop\n      jump\t// out\n\n    auxdata: 0xa26469706673582212202eda28329a4a4bc236dd405ca8239ecdce47aa104d8749847dcfb0c4a3b3ac8e64736f6c63430008100033\n}\n",
				"bytecode": {
					"linkReferences": {},
					"object": "608060405234801561001057600080fd5b5061114d806100206000396000f3fe608060405234801561001057600080fd5b50600436106100365760003560e01c8063157bd75d1461003b5780637ba910411461006f575b600080fd5b6100556004803603810190610050919061072b565b61008b565b604051610066959493929190610987565b60405180910390f35b61008960048036038101906100849190610c1f565b6103ea565b005b60006060806060806000805490508667ffffffffffffffff161080156100bc575060008667ffffffffffffffff1610155b6100fb576040517f08c379a00000000000000000000000000000000000000000000000000000000081526004016100f290610d12565b60405180910390fd5b60008667ffffffffffffffff168154811061011957610118610d32565b5b90600052602060002090600502016000015460008767ffffffffffffffff168154811061014957610148610d32565b5b906000526020600020906005020160010160008867ffffffffffffffff168154811061017857610177610d32565b5b906000526020600020906005020160020160008967ffffffffffffffff16815481106101a7576101a6610d32565b5b906000526020600020906005020160030160008a67ffffffffffffffff16815481106101d6576101d5610d32565b5b90600052602060002090600502016004018380546101f390610d90565b80601f016020809104026020016040519081016040528092919081815260200182805461021f90610d90565b801561026c5780601f106102415761010080835404028352916020019161026c565b820191906000526020600020905b81548152906001019060200180831161024f57829003601f168201915b5050505050935082805461027f90610d90565b80601f01602080910402602001604051908101604052809291908181526020018280546102ab90610d90565b80156102f85780601f106102cd576101008083540402835291602001916102f8565b820191906000526020600020905b8154815290600101906020018083116102db57829003601f168201915b505050505092508180548060200260200160405190810160405280929190818152602001828054801561037e57602002820191906000526020600020906000905b82829054906101000a900467ffffffffffffffff1667ffffffffffffffff16815260200190600801906020826007010492830192600103820291508084116103395790505b50505050509150808054806020026020016040519081016040528092919081815260200182805480156103d057602002820191906000526020600020905b8154815260200190600101908083116103bc575b505050505090509450945094509450945091939590929450565b600083511161042e576040517f08c379a000000000000000000000000000000000000000000000000000000000815260040161042590610e0d565b60405180910390fd5b6001815111610472576040517f08c379a000000000000000000000000000000000000000000000000000000000815260040161046990610e79565b60405180910390fd5b60008080549050905060006040518060a00160405280838152602001868152602001858152602001845167ffffffffffffffff8111156104b5576104b4610a00565b5b6040519080825280602002602001820160405280156104e35781602001602082028036833780820191505090505b508152602001848152509050600081908060018154018082558091505060019003906000526020600020906005020160009091909190915060008201518160000155602082015181600101908161053a9190611045565b5060408201518160020190816105509190611045565b50606082015181600301908051906020019061056d929190610594565b50608082015181600401908051906020019061058a929190610650565b5050505050505050565b8280548282559060005260206000209060030160049004810192821561063f5791602002820160005b8382111561060957835183826101000a81548167ffffffffffffffff021916908367ffffffffffffffff16021790555092602001926008016020816007010492830192600103026105bd565b801561063d5782816101000a81549067ffffffffffffffff0219169055600801602081600701049283019260010302610609565b505b50905061064c919061069d565b5090565b82805482825590600052602060002090810192821561068c579160200282015b8281111561068b578251825591602001919060010190610670565b5b50905061069991906106ba565b5090565b5b808211156106b657600081600090555060010161069e565b5090565b5b808211156106d35760008160009055506001016106bb565b5090565b6000604051905090565b600080fd5b600080fd5b600067ffffffffffffffff82169050919050565b610708816106eb565b811461071357600080fd5b50565b600081359050610725816106ff565b92915050565b600060208284031215610741576107406106e1565b5b600061074f84828501610716565b91505092915050565b6000819050919050565b61076b81610758565b82525050565b600081519050919050565b600082825260208201905092915050565b60005b838110156107ab578082015181840152602081019050610790565b60008484015250505050565b6000601f19601f8301169050919050565b60006107d382610771565b6107dd818561077c565b93506107ed81856020860161078d565b6107f6816107b7565b840191505092915050565b600081519050919050565b600082825260208201905092915050565b6000819050602082019050919050565b610836816106eb565b82525050565b6000610848838361082d565b60208301905092915050565b6000602082019050919050565b600061086c82610801565b610876818561080c565b93506108818361081d565b8060005b838110156108b2578151610899888261083c565b97506108a483610854565b925050600181019050610885565b5085935050505092915050565b600081519050919050565b600082825260208201905092915050565b6000819050602082019050919050565b6000819050919050565b6108fe816108eb565b82525050565b600061091083836108f5565b60208301905092915050565b6000602082019050919050565b6000610934826108bf565b61093e81856108ca565b9350610949836108db565b8060005b8381101561097a5781516109618882610904565b975061096c8361091c565b92505060018101905061094d565b5085935050505092915050565b600060a08201905061099c6000830188610762565b81810360208301526109ae81876107c8565b905081810360408301526109c281866107c8565b905081810360608301526109d68185610861565b905081810360808301526109ea8184610929565b90509695505050505050565b600080fd5b600080fd5b7f4e487b7100000000000000000000000000000000000000000000000000000000600052604160045260246000fd5b610a38826107b7565b810181811067ffffffffffffffff82111715610a5757610a56610a00565b5b80604052505050565b6000610a6a6106d7565b9050610a768282610a2f565b919050565b600067ffffffffffffffff821115610a9657610a95610a00565b5b610a9f826107b7565b9050602081019050919050565b82818337600083830152505050565b6000610ace610ac984610a7b565b610a60565b905082815260208101848484011115610aea57610ae96109fb565b5b610af5848285610aac565b509392505050565b600082601f830112610b1257610b116109f6565b5b8135610b22848260208601610abb565b91505092915050565b600067ffffffffffffffff821115610b4657610b45610a00565b5b602082029050602081019050919050565b600080fd5b610b65816108eb565b8114610b7057600080fd5b50565b600081359050610b8281610b5c565b92915050565b6000610b9b610b9684610b2b565b610a60565b90508083825260208201905060208402830185811115610bbe57610bbd610b57565b5b835b81811015610be75780610bd38882610b73565b845260208401935050602081019050610bc0565b5050509392505050565b600082601f830112610c0657610c056109f6565b5b8135610c16848260208601610b88565b91505092915050565b600080600060608486031215610c3857610c376106e1565b5b600084013567ffffffffffffffff811115610c5657610c556106e6565b5b610c6286828701610afd565b935050602084013567ffffffffffffffff811115610c8357610c826106e6565b5b610c8f86828701610afd565b925050604084013567ffffffffffffffff811115610cb057610caf6106e6565b5b610cbc86828701610bf1565b9150509250925092565b7f4e6f20706f6c6c20666f756e6400000000000000000000000000000000000000600082015250565b6000610cfc600d8361077c565b9150610d0782610cc6565b602082019050919050565b60006020820190508181036000830152610d2b81610cef565b9050919050565b7f4e487b7100000000000000000000000000000000000000000000000000000000600052603260045260246000fd5b7f4e487b7100000000000000000000000000000000000000000000000000000000600052602260045260246000fd5b60006002820490506001821680610da857607f821691505b602082108103610dbb57610dba610d61565b5b50919050565b7f456d707479207175657374696f6e000000000000000000000000000000000000600082015250565b6000610df7600e8361077c565b9150610e0282610dc1565b602082019050919050565b60006020820190508181036000830152610e2681610dea565b9050919050565b7f4174206c656173742032206f7074696f6e732072657175697265640000000000600082015250565b6000610e63601b8361077c565b9150610e6e82610e2d565b602082019050919050565b60006020820190508181036000830152610e9281610e56565b9050919050565b60008190508160005260206000209050919050565b60006020601f8301049050919050565b600082821b905092915050565b600060088302610efb7fffffffffffffffffffffffffffffffffffffffffffffffffffffffffffffffff82610ebe565b610f058683610ebe565b95508019841693508086168417925050509392505050565b6000819050919050565b6000610f42610f3d610f3884610758565b610f1d565b610758565b9050919050565b6000819050919050565b610f5c83610f27565b610f70610f6882610f49565b848454610ecb565b825550505050565b600090565b610f85610f78565b610f90818484610f53565b505050565b5b81811015610fb457610fa9600082610f7d565b600181019050610f96565b5050565b601f821115610ff957610fca81610e99565b610fd384610eae565b81016020851015610fe2578190505b610ff6610fee85610eae565b830182610f95565b50505b505050565b600082821c905092915050565b600061101c60001984600802610ffe565b1980831691505092915050565b6000611035838361100b565b9150826002028217905092915050565b61104e82610771565b67ffffffffffffffff81111561106757611066610a00565b5b6110718254610d90565b61107c828285610fb8565b600060209050601f8311600181146110af576000841561109d578287015190505b6110a78582611029565b86555061110f565b601f1984166110bd86610e99565b60005b828110156110e5578489015182556001820191506020850194506020810190506110c0565b8683101561110257848901516110fe601f89168261100b565b8355505b6001600288020188555050505b50505050505056fea26469706673582212202eda28329a4a4bc236dd405ca8239ecdce47aa104d8749847dcfb0c4a3b3ac8e64736f6c63430008100033",
					"opcodes": "PUSH1 0x80 PUSH1 0x40 MSTORE CALLVALUE DUP1 ISZERO PUSH2 0x10 JUMPI PUSH1 0x0 DUP1 REVERT JUMPDEST POP PUSH2 0x114D DUP1 PUSH2 0x20 PUSH1 0x0 CODECOPY PUSH1 0x0 RETURN INVALID PUSH1 0x80 PUSH1 0x40 MSTORE CALLVALUE DUP1 ISZERO PUSH2 0x10 JUMPI PUSH1 0x0 DUP1 REVERT JUMPDEST POP PUSH1 0x4 CALLDATASIZE LT PUSH2 0x36 JUMPI PUSH1 0x0 CALLDATALOAD PUSH1 0xE0 SHR DUP1 PUSH4 0x157BD75D EQ PUSH2 0x3B JUMPI DUP1 PUSH4 0x7BA91041 EQ PUSH2 0x6F JUMPI JUMPDEST PUSH1 0x0 DUP1 REVERT JUMPDEST PUSH2 0x55 PUSH1 0x4 DUP1 CALLDATASIZE SUB DUP2 ADD SWAP1 PUSH2 0x50 SWAP2 SWAP1 PUSH2 0x72B JUMP JUMPDEST PUSH2 0x8B JUMP JUMPDEST PUSH1 0x40 MLOAD PUSH2 0x66 SWAP6 SWAP5 SWAP4 SWAP3 SWAP2 SWAP1 PUSH2 0x987 JUMP JUMPDEST PUSH1 0x40 MLOAD DUP1 SWAP2 SUB SWAP1 RETURN JUMPDEST PUSH2 0x89 PUSH1 0x4 DUP1 CALLDATASIZE SUB DUP2 ADD SWAP1 PUSH2 0x84 SWAP2 SWAP1 PUSH2 0xC1F JUMP JUMPDEST PUSH2 0x3EA JUMP JUMPDEST STOP JUMPDEST PUSH1 0x0 PUSH1 0x60 DUP1 PUSH1 0x60 DUP1 PUSH1 0x0 DUP1 SLOAD SWAP1 POP DUP7 PUSH8 0xFFFFFFFFFFFFFFFF AND LT DUP1 ISZERO PUSH2 0xBC JUMPI POP PUSH1 0x0 DUP7 PUSH8 0xFFFFFFFFFFFFFFFF AND LT ISZERO JUMPDEST PUSH2 0xFB JUMPI PUSH1 0x40 MLOAD PUSH32 0x8C379A000000000000000000000000000000000000000000000000000000000 DUP2 MSTORE PUSH1 0x4 ADD PUSH2 0xF2 SWAP1 PUSH2 0xD12 JUMP JUMPDEST PUSH1 0x40 MLOAD DUP1 SWAP2 SUB SWAP1 REVERT JUMPDEST PUSH1 0x0 DUP7 PUSH8 0xFFFFFFFFFFFFFFFF AND DUP2 SLOAD DUP2 LT PUSH2 0x119 JUMPI PUSH2 0x118 PUSH2 0xD32 JUMP JUMPDEST JUMPDEST SWAP1 PUSH1 0x0 MSTORE PUSH1 0x20 PUSH1 0x0 KECCAK256 SWAP1 PUSH1 0x5 MUL ADD PUSH1 0x0 ADD SLOAD PUSH1 0x0 DUP8 PUSH8 0xFFFFFFFFFFFFFFFF AND DUP2 SLOAD DUP2 LT PUSH2 0x149 JUMPI PUSH2 0x148 PUSH2 0xD32 JUMP JUMPDEST JUMPDEST SWAP1 PUSH1 0x0 MSTORE PUSH1 0x20 PUSH1 0x0 KECCAK256 SWAP1 PUSH1 0x5 MUL ADD PUSH1 0x1 ADD PUSH1 0x0 DUP9 PUSH8 0xFFFFFFFFFFFFFFFF AND DUP2 SLOAD DUP2 LT PUSH2 0x178 JUMPI PUSH2 0x177 PUSH2 0xD32 JUMP JUMPDEST JUMPDEST SWAP1 PUSH1 0x0 MSTORE PUSH1 0x20 PUSH1 0x0 KECCAK256 SWAP1 PUSH1 0x5 MUL ADD PUSH1 0x2 ADD PUSH1 0x0 DUP10 PUSH8 0xFFFFFFFFFFFFFFFF AND DUP2 SLOAD DUP2 LT PUSH2 0x1A7 JUMPI PUSH2 0x1A6 PUSH2 0xD32 JUMP JUMPDEST JUMPDEST SWAP1 PUSH1 0x0 MSTORE PUSH1 0x20 PUSH1 0x0 KECCAK256 SWAP1 PUSH1 0x5 MUL ADD PUSH1 0x3 ADD PUSH1 0x0 DUP11 PUSH8 0xFFFFFFFFFFFFFFFF AND DUP2 SLOAD DUP2 LT PUSH2 0x1D6 JUMPI PUSH2 0x1D5 PUSH2 0xD32 JUMP JUMPDEST JUMPDEST SWAP1 PUSH1 0x0 MSTORE PUSH1 0x20 PUSH1 0x0 KECCAK256 SWAP1 PUSH1 0x5 MUL ADD PUSH1 0x4 ADD DUP4 DUP1 SLOAD PUSH2 0x1F3 SWAP1 PUSH2 0xD90 JUMP JUMPDEST DUP1 PUSH1 0x1F ADD PUSH1 0x20 DUP1 SWAP2 DIV MUL PUSH1 0x20 ADD PUSH1 0x40 MLOAD SWAP1 DUP2 ADD PUSH1 0x40 MSTORE DUP1 SWAP3 SWAP2 SWAP1 DUP2 DUP2 MSTORE PUSH1 0x20 ADD DUP3 DUP1 SLOAD PUSH2 0x21F SWAP1 PUSH2 0xD90 JUMP JUMPDEST DUP1 ISZERO PUSH2 0x26C JUMPI DUP1 PUSH1 0x1F LT PUSH2 0x241 JUMPI PUSH2 0x100 DUP1 DUP4 SLOAD DIV MUL DUP4 MSTORE SWAP2 PUSH1 0x20 ADD SWAP2 PUSH2 0x26C JUMP JUMPDEST DUP3 ADD SWAP2 SWAP1 PUSH1 0x0 MSTORE PUSH1 0x20 PUSH1 0x0 KECCAK256 SWAP1 JUMPDEST DUP2 SLOAD DUP2 MSTORE SWAP1 PUSH1 0x1 ADD SWAP1 PUSH1 0x20 ADD DUP1 DUP4 GT PUSH2 0x24F JUMPI DUP3 SWAP1 SUB PUSH1 0x1F AND DUP3 ADD SWAP2 JUMPDEST POP POP POP POP POP SWAP4 POP DUP3 DUP1 SLOAD PUSH2 0x27F SWAP1 PUSH2 0xD90 JUMP JUMPDEST DUP1 PUSH1 0x1F ADD PUSH1 0x20 DUP1 SWAP2 DIV MUL PUSH1 0x20 ADD PUSH1 0x40 MLOAD SWAP1 DUP2 ADD PUSH1 0x40 MSTORE DUP1 SWAP3 SWAP2 SWAP1 DUP2 DUP2 MSTORE PUSH1 0x20 ADD DUP3 DUP1 SLOAD PUSH2 0x2AB SWAP1 PUSH2 0xD90 JUMP JUMPDEST DUP1 ISZERO PUSH2 0x2F8 JUMPI DUP1 PUSH1 0x1F LT PUSH2 0x2CD JUMPI PUSH2 0x100 DUP1 DUP4 SLOAD DIV MUL DUP4 MSTORE SWAP2 PUSH1 0x20 ADD SWAP2 PUSH2 0x2F8 JUMP JUMPDEST DUP3 ADD SWAP2 SWAP1 PUSH1 0x0 MSTORE PUSH1 0x20 PUSH1 0x0 KECCAK256 SWAP1 JUMPDEST DUP2 SLOAD DUP2 MSTORE SWAP1 PUSH1 0x1 ADD SWAP1 PUSH1 0x20 ADD DUP1 DUP4 GT PUSH2 0x2DB JUMPI DUP3 SWAP1 SUB PUSH1 0x1F AND DUP3 ADD SWAP2 JUMPDEST POP POP POP POP POP SWAP3 POP DUP2 DUP1 SLOAD DUP1 PUSH1 0x20 MUL PUSH1 0x20 ADD PUSH1 0x40 MLOAD SWAP1 DUP2 ADD PUSH1 0x40 MSTORE DUP1 SWAP3 SWAP2 SWAP1 DUP2 DUP2 MSTORE PUSH1 0x20 ADD DUP3 DUP1 SLOAD DUP1 ISZERO PUSH2 0x37E JUMPI PUSH1 0x20 MUL DUP3 ADD SWAP2 SWAP1 PUSH1 0x0 MSTORE PUSH1 0x20 PUSH1 0x0 KECCAK256 SWAP1 PUSH1 0x0 SWAP1 JUMPDEST DUP3 DUP3 SWAP1 SLOAD SWAP1 PUSH2 0x100 EXP SWAP1 DIV PUSH8 0xFFFFFFFFFFFFFFFF AND PUSH8 0xFFFFFFFFFFFFFFFF AND DUP2 MSTORE PUSH1 0x20 ADD SWAP1 PUSH1 0x8 ADD SWAP1 PUSH1 0x20 DUP3 PUSH1 0x7 ADD DIV SWAP3 DUP4 ADD SWAP3 PUSH1 0x1 SUB DUP3 MUL SWAP2 POP DUP1 DUP5 GT PUSH2 0x339 JUMPI SWAP1 POP JUMPDEST POP POP POP POP POP SWAP2 POP DUP1 DUP1 SLOAD DUP1 PUSH1 0x20 MUL PUSH1 0x20 ADD PUSH1 0x40 MLOAD SWAP1 DUP2 ADD PUSH1 0x40 MSTORE DUP1 SWAP3 SWAP2 SWAP1 DUP2 DUP2 MSTORE PUSH1 0x20 ADD DUP3 DUP1 SLOAD DUP1 ISZERO PUSH2 0x3D0 JUMPI PUSH1 0x20 MUL DUP3 ADD SWAP2 SWAP1 PUSH1 0x0 MSTORE PUSH1 0x20 PUSH1 0x0 KECCAK256 SWAP1 JUMPDEST DUP2 SLOAD DUP2 MSTORE PUSH1 0x20 ADD SWAP1 PUSH1 0x1 ADD SWAP1 DUP1 DUP4 GT PUSH2 0x3BC JUMPI JUMPDEST POP POP POP POP POP SWAP1 POP SWAP5 POP SWAP5 POP SWAP5 POP SWAP5 POP SWAP5 POP SWAP2 SWAP4 SWAP6 SWAP1 SWAP3 SWAP5 POP JUMP JUMPDEST PUSH1 0x0 DUP4 MLOAD GT PUSH2 0x42E JUMPI PUSH1 0x40 MLOAD PUSH32 0x8C379A000000000000000000000000000000000000000000000000000000000 DUP2 MSTORE PUSH1 0x4 ADD PUSH2 0x425 SWAP1 PUSH2 0xE0D JUMP JUMPDEST PUSH1 0x40 MLOAD DUP1 SWAP2 SUB SWAP1 REVERT JUMPDEST PUSH1 0x1 DUP2 MLOAD GT PUSH2 0x472 JUMPI PUSH1 0x40 MLOAD PUSH32 0x8C379A000000000000000000000000000000000000000000000000000000000 DUP2 MSTORE PUSH1 0x4 ADD PUSH2 0x469 SWAP1 PUSH2 0xE79 JUMP JUMPDEST PUSH1 0x40 MLOAD DUP1 SWAP2 SUB SWAP1 REVERT JUMPDEST PUSH1 0x0 DUP1 DUP1 SLOAD SWAP1 POP SWAP1 POP PUSH1 0x0 PUSH1 0x40 MLOAD DUP1 PUSH1 0xA0 ADD PUSH1 0x40 MSTORE DUP1 DUP4 DUP2 MSTORE PUSH1 0x20 ADD DUP7 DUP2 MSTORE PUSH1 0x20 ADD DUP6 DUP2 MSTORE PUSH1 0x20 ADD DUP5 MLOAD PUSH8 0xFFFFFFFFFFFFFFFF DUP2 GT ISZERO PUSH2 0x4B5 JUMPI PUSH2 0x4B4 PUSH2 0xA00 JUMP JUMPDEST JUMPDEST PUSH1 0x40 MLOAD SWAP1 DUP1 DUP3 MSTORE DUP1 PUSH1 0x20 MUL PUSH1 0x20 ADD DUP3 ADD PUSH1 0x40 MSTORE DUP1 ISZERO PUSH2 0x4E3 JUMPI DUP2 PUSH1 0x20 ADD PUSH1 0x20 DUP3 MUL DUP1 CALLDATASIZE DUP4 CALLDATACOPY DUP1 DUP3 ADD SWAP2 POP POP SWAP1 POP JUMPDEST POP DUP2 MSTORE PUSH1 0x20 ADD DUP5 DUP2 MSTORE POP SWAP1 POP PUSH1 0x0 DUP2 SWAP1 DUP1 PUSH1 0x1 DUP2 SLOAD ADD DUP1 DUP3 SSTORE DUP1 SWAP2 POP POP PUSH1 0x1 SWAP1 SUB SWAP1 PUSH1 0x0 MSTORE PUSH1 0x20 PUSH1 0x0 KECCAK256 SWAP1 PUSH1 0x5 MUL ADD PUSH1 0x0 SWAP1 SWAP2 SWAP1 SWAP2 SWAP1 SWAP2 POP PUSH1 0x0 DUP3 ADD MLOAD DUP2 PUSH1 0x0 ADD SSTORE PUSH1 0x20 DUP3 ADD MLOAD DUP2 PUSH1 0x1 ADD SWAP1 DUP2 PUSH2 0x53A SWAP2 SWAP1 PUSH2 0x1045 JUMP JUMPDEST POP PUSH1 0x40 DUP3 ADD MLOAD DUP2 PUSH1 0x2 ADD SWAP1 DUP2 PUSH2 0x550 SWAP2 SWAP1 PUSH2 0x1045 JUMP JUMPDEST POP PUSH1 0x60 DUP3 ADD MLOAD DUP2 PUSH1 0x3 ADD SWAP1 DUP1 MLOAD SWAP1 PUSH1 0x20 ADD SWAP1 PUSH2 0x56D SWAP3 SWAP2 SWAP1 PUSH2 0x594 JUMP JUMPDEST POP PUSH1 0x80 DUP3 ADD MLOAD DUP2 PUSH1 0x4 ADD SWAP1 DUP1 MLOAD SWAP1 PUSH1 0x20 ADD SWAP1 PUSH2 0x58A SWAP3 SWAP2 SWAP1 PUSH2 0x650 JUMP JUMPDEST POP POP POP POP POP POP POP POP JUMP JUMPDEST DUP3 DUP1 SLOAD DUP3 DUP3 SSTORE SWAP1 PUSH1 0x0 MSTORE PUSH1 0x20 PUSH1 0x0 KECCAK256 SWAP1 PUSH1 0x3 ADD PUSH1 0x4 SWAP1 DIV DUP2 ADD SWAP3 DUP3 ISZERO PUSH2 0x63F JUMPI SWAP2 PUSH1 0x20 MUL DUP3 ADD PUSH1 0x0 JUMPDEST DUP4 DUP3 GT ISZERO PUSH2 0x609 JUMPI DUP4 MLOAD DUP4 DUP3 PUSH2 0x100 EXP DUP2 SLOAD DUP2 PUSH8 0xFFFFFFFFFFFFFFFF MUL NOT AND SWAP1 DUP4 PUSH8 0xFFFFFFFFFFFFFFFF AND MUL OR SWAP1 SSTORE POP SWAP3 PUSH1 0x20 ADD SWAP3 PUSH1 0x8 ADD PUSH1 0x20 DUP2 PUSH1 0x7 ADD DIV SWAP3 DUP4 ADD SWAP3 PUSH1 0x1 SUB MUL PUSH2 0x5BD JUMP JUMPDEST DUP1 ISZERO PUSH2 0x63D JUMPI DUP3 DUP2 PUSH2 0x100 EXP DUP2 SLOAD SWAP1 PUSH8 0xFFFFFFFFFFFFFFFF MUL NOT AND SWAP1 SSTORE PUSH1 0x8 ADD PUSH1 0x20 DUP2 PUSH1 0x7 ADD DIV SWAP3 DUP4 ADD SWAP3 PUSH1 0x1 SUB MUL PUSH2 0x609 JUMP JUMPDEST POP JUMPDEST POP SWAP1 POP PUSH2 0x64C SWAP2 SWAP1 PUSH2 0x69D JUMP JUMPDEST POP SWAP1 JUMP JUMPDEST DUP3 DUP1 SLOAD DUP3 DUP3 SSTORE SWAP1 PUSH1 0x0 MSTORE PUSH1 0x20 PUSH1 0x0 KECCAK256 SWAP1 DUP2 ADD SWAP3 DUP3 ISZERO PUSH2 0x68C JUMPI SWAP2 PUSH1 0x20 MUL DUP3 ADD JUMPDEST DUP3 DUP2 GT ISZERO PUSH2 0x68B JUMPI DUP3 MLOAD DUP3 SSTORE SWAP2 PUSH1 0x20 ADD SWAP2 SWAP1 PUSH1 0x1 ADD SWAP1 PUSH2 0x670 JUMP JUMPDEST JUMPDEST POP SWAP1 POP PUSH2 0x699 SWAP2 SWAP1 PUSH2 0x6BA JUMP JUMPDEST POP SWAP1 JUMP JUMPDEST JUMPDEST DUP1 DUP3 GT ISZERO PUSH2 0x6B6 JUMPI PUSH1 0x0 DUP2 PUSH1 0x0 SWAP1 SSTORE POP PUSH1 0x1 ADD PUSH2 0x69E JUMP JUMPDEST POP SWAP1 JUMP JUMPDEST JUMPDEST DUP1 DUP3 GT ISZERO PUSH2 0x6D3 JUMPI PUSH1 0x0 DUP2 PUSH1 0x0 SWAP1 SSTORE POP PUSH1 0x1 ADD PUSH2 0x6BB JUMP JUMPDEST POP SWAP1 JUMP JUMPDEST PUSH1 0x0 PUSH1 0x40 MLOAD SWAP1 POP SWAP1 JUMP JUMPDEST PUSH1 0x0 DUP1 REVERT JUMPDEST PUSH1 0x0 DUP1 REVERT JUMPDEST PUSH1 0x0 PUSH8 0xFFFFFFFFFFFFFFFF DUP3 AND SWAP1 POP SWAP2 SWAP1 POP JUMP JUMPDEST PUSH2 0x708 DUP2 PUSH2 0x6EB JUMP JUMPDEST DUP2 EQ PUSH2 0x713 JUMPI PUSH1 0x0 DUP1 REVERT JUMPDEST POP JUMP JUMPDEST PUSH1 0x0 DUP2 CALLDATALOAD SWAP1 POP PUSH2 0x725 DUP2 PUSH2 0x6FF JUMP JUMPDEST SWAP3 SWAP2 POP POP JUMP JUMPDEST PUSH1 0x0 PUSH1 0x20 DUP3 DUP5 SUB SLT ISZERO PUSH2 0x741 JUMPI PUSH2 0x740 PUSH2 0x6E1 JUMP JUMPDEST JUMPDEST PUSH1 0x0 PUSH2 0x74F DUP5 DUP3 DUP6 ADD PUSH2 0x716 JUMP JUMPDEST SWAP2 POP POP SWAP3 SWAP2 POP POP JUMP JUMPDEST PUSH1 0x0 DUP2 SWAP1 POP SWAP2 SWAP1 POP JUMP JUMPDEST PUSH2 0x76B DUP2 PUSH2 0x758 JUMP JUMPDEST DUP3 MSTORE POP POP JUMP JUMPDEST PUSH1 0x0 DUP2 MLOAD SWAP1 POP SWAP2 SWAP1 POP JUMP JUMPDEST PUSH1 0x0 DUP3 DUP3 MSTORE PUSH1 0x20 DUP3 ADD SWAP1 POP SWAP3 SWAP2 POP POP JUMP JUMPDEST PUSH1 0x0 JUMPDEST DUP4 DUP2 LT ISZERO PUSH2 0x7AB JUMPI DUP1 DUP3 ADD MLOAD DUP2 DUP5 ADD MSTORE PUSH1 0x20 DUP2 ADD SWAP1 POP PUSH2 0x790 JUMP JUMPDEST PUSH1 0x0 DUP5 DUP5 ADD MSTORE POP POP POP POP JUMP JUMPDEST PUSH1 0x0 PUSH1 0x1F NOT PUSH1 0x1F DUP4 ADD AND SWAP1 POP SWAP2 SWAP1 POP JUMP JUMPDEST PUSH1 0x0 PUSH2 0x7D3 DUP3 PUSH2 0x771 JUMP JUMPDEST PUSH2 0x7DD DUP2 DUP6 PUSH2 0x77C JUMP JUMPDEST SWAP4 POP PUSH2 0x7ED DUP2 DUP6 PUSH1 0x20 DUP7 ADD PUSH2 0x78D JUMP JUMPDEST PUSH2 0x7F6 DUP2 PUSH2 0x7B7 JUMP JUMPDEST DUP5 ADD SWAP2 POP POP SWAP3 SWAP2 POP POP JUMP JUMPDEST PUSH1 0x0 DUP2 MLOAD SWAP1 POP SWAP2 SWAP1 POP JUMP JUMPDEST PUSH1 0x0 DUP3 DUP3 MSTORE PUSH1 0x20 DUP3 ADD SWAP1 POP SWAP3 SWAP2 POP POP JUMP JUMPDEST PUSH1 0x0 DUP2 SWAP1 POP PUSH1 0x20 DUP3 ADD SWAP1 POP SWAP2 SWAP1 POP JUMP JUMPDEST PUSH2 0x836 DUP2 PUSH2 0x6EB JUMP JUMPDEST DUP3 MSTORE POP POP JUMP JUMPDEST PUSH1 0x0 PUSH2 0x848 DUP4 DUP4 PUSH2 0x82D JUMP JUMPDEST PUSH1 0x20 DUP4 ADD SWAP1 POP SWAP3 SWAP2 POP POP JUMP JUMPDEST PUSH1 0x0 PUSH1 0x20 DUP3 ADD SWAP1 POP SWAP2 SWAP1 POP JUMP JUMPDEST PUSH1 0x0 PUSH2 0x86C DUP3 PUSH2 0x801 JUMP JUMPDEST PUSH2 0x876 DUP2 DUP6 PUSH2 0x80C JUMP JUMPDEST SWAP4 POP PUSH2 0x881 DUP4 PUSH2 0x81D JUMP JUMPDEST DUP1 PUSH1 0x0 JUMPDEST DUP4 DUP2 LT ISZERO PUSH2 0x8B2 JUMPI DUP2 MLOAD PUSH2 0x899 DUP9 DUP3 PUSH2 0x83C JUMP JUMPDEST SWAP8 POP PUSH2 0x8A4 DUP4 PUSH2 0x854 JUMP JUMPDEST SWAP3 POP POP PUSH1 0x1 DUP2 ADD SWAP1 POP PUSH2 0x885 JUMP JUMPDEST POP DUP6 SWAP4 POP POP POP POP SWAP3 SWAP2 POP POP JUMP JUMPDEST PUSH1 0x0 DUP2 MLOAD SWAP1 POP SWAP2 SWAP1 POP JUMP JUMPDEST PUSH1 0x0 DUP3 DUP3 MSTORE PUSH1 0x20 DUP3 ADD SWAP1 POP SWAP3 SWAP2 POP POP JUMP JUMPDEST PUSH1 0x0 DUP2 SWAP1 POP PUSH1 0x20 DUP3 ADD SWAP1 POP SWAP2 SWAP1 POP JUMP JUMPDEST PUSH1 0x0 DUP2 SWAP1 POP SWAP2 SWAP1 POP JUMP JUMPDEST PUSH2 0x8FE DUP2 PUSH2 0x8EB JUMP JUMPDEST DUP3 MSTORE POP POP JUMP JUMPDEST PUSH1 0x0 PUSH2 0x910 DUP4 DUP4 PUSH2 0x8F5 JUMP JUMPDEST PUSH1 0x20 DUP4 ADD SWAP1 POP SWAP3 SWAP2 POP POP JUMP JUMPDEST PUSH1 0x0 PUSH1 0x20 DUP3 ADD SWAP1 POP SWAP2 SWAP1 POP JUMP JUMPDEST PUSH1 0x0 PUSH2 0x934 DUP3 PUSH2 0x8BF JUMP JUMPDEST PUSH2 0x93E DUP2 DUP6 PUSH2 0x8CA JUMP JUMPDEST SWAP4 POP PUSH2 0x949 DUP4 PUSH2 0x8DB JUMP JUMPDEST DUP1 PUSH1 0x0 JUMPDEST DUP4 DUP2 LT ISZERO PUSH2 0x97A JUMPI DUP2 MLOAD PUSH2 0x961 DUP9 DUP3 PUSH2 0x904 JUMP JUMPDEST SWAP8 POP PUSH2 0x96C DUP4 PUSH2 0x91C JUMP JUMPDEST SWAP3 POP POP PUSH1 0x1 DUP2 ADD SWAP1 POP PUSH2 0x94D JUMP JUMPDEST POP DUP6 SWAP4 POP POP POP POP SWAP3 SWAP2 POP POP JUMP JUMPDEST PUSH1 0x0 PUSH1 0xA0 DUP3 ADD SWAP1 POP PUSH2 0x99C PUSH1 0x0 DUP4 ADD DUP9 PUSH2 0x762 JUMP JUMPDEST DUP2 DUP2 SUB PUSH1 0x20 DUP4 ADD MSTORE PUSH2 0x9AE DUP2 DUP8 PUSH2 0x7C8 JUMP JUMPDEST SWAP1 POP DUP2 DUP2 SUB PUSH1 0x40 DUP4 ADD MSTORE PUSH2 0x9C2 DUP2 DUP7 PUSH2 0x7C8 JUMP JUMPDEST SWAP1 POP DUP2 DUP2 SUB PUSH1 0x60 DUP4 ADD MSTORE PUSH2 0x9D6 DUP2 DUP6 PUSH2 0x861 JUMP JUMPDEST SWAP1 POP DUP2 DUP2 SUB PUSH1 0x80 DUP4 ADD MSTORE PUSH2 0x9EA DUP2 DUP5 PUSH2 0x929 JUMP JUMPDEST SWAP1 POP SWAP7 SWAP6 POP POP POP POP POP POP JUMP JUMPDEST PUSH1 0x0 DUP1 REVERT JUMPDEST PUSH1 0x0 DUP1 REVERT JUMPDEST PUSH32 0x4E487B7100000000000000000000000000000000000000000000000000000000 PUSH1 0x0 MSTORE PUSH1 0x41 PUSH1 0x4 MSTORE PUSH1 0x24 PUSH1 0x0 REVERT JUMPDEST PUSH2 0xA38 DUP3 PUSH2 0x7B7 JUMP JUMPDEST DUP2 ADD DUP2 DUP2 LT PUSH8 0xFFFFFFFFFFFFFFFF DUP3 GT OR ISZERO PUSH2 0xA57 JUMPI PUSH2 0xA56 PUSH2 0xA00 JUMP JUMPDEST JUMPDEST DUP1 PUSH1 0x40 MSTORE POP POP POP JUMP JUMPDEST PUSH1 0x0 PUSH2 0xA6A PUSH2 0x6D7 JUMP JUMPDEST SWAP1 POP PUSH2 0xA76 DUP3 DUP3 PUSH2 0xA2F JUMP JUMPDEST SWAP2 SWAP1 POP JUMP JUMPDEST PUSH1 0x0 PUSH8 0xFFFFFFFFFFFFFFFF DUP3 GT ISZERO PUSH2 0xA96 JUMPI PUSH2 0xA95 PUSH2 0xA00 JUMP JUMPDEST JUMPDEST PUSH2 0xA9F DUP3 PUSH2 0x7B7 JUMP JUMPDEST SWAP1 POP PUSH1 0x20 DUP2 ADD SWAP1 POP SWAP2 SWAP1 POP JUMP JUMPDEST DUP3 DUP2 DUP4 CALLDATACOPY PUSH1 0x0 DUP4 DUP4 ADD MSTORE POP POP POP JUMP JUMPDEST PUSH1 0x0 PUSH2 0xACE PUSH2 0xAC9 DUP5 PUSH2 0xA7B JUMP JUMPDEST PUSH2 0xA60 JUMP JUMPDEST SWAP1 POP DUP3 DUP2 MSTORE PUSH1 0x20 DUP2 ADD DUP5 DUP5 DUP5 ADD GT ISZERO PUSH2 0xAEA JUMPI PUSH2 0xAE9 PUSH2 0x9FB JUMP JUMPDEST JUMPDEST PUSH2 0xAF5 DUP5 DUP3 DUP6 PUSH2 0xAAC JUMP JUMPDEST POP SWAP4 SWAP3 POP POP POP JUMP JUMPDEST PUSH1 0x0 DUP3 PUSH1 0x1F DUP4 ADD SLT PUSH2 0xB12 JUMPI PUSH2 0xB11 PUSH2 0x9F6 JUMP JUMPDEST JUMPDEST DUP2 CALLDATALOAD PUSH2 0xB22 DUP5 DUP3 PUSH1 0x20 DUP7 ADD PUSH2 0xABB JUMP JUMPDEST SWAP2 POP POP SWAP3 SWAP2 POP POP JUMP JUMPDEST PUSH1 0x0 PUSH8 0xFFFFFFFFFFFFFFFF DUP3 GT ISZERO PUSH2 0xB46 JUMPI PUSH2 0xB45 PUSH2 0xA00 JUMP JUMPDEST JUMPDEST PUSH1 0x20 DUP3 MUL SWAP1 POP PUSH1 0x20 DUP2 ADD SWAP1 POP SWAP2 SWAP1 POP JUMP JUMPDEST PUSH1 0x0 DUP1 REVERT JUMPDEST PUSH2 0xB65 DUP2 PUSH2 0x8EB JUMP JUMPDEST DUP2 EQ PUSH2 0xB70 JUMPI PUSH1 0x0 DUP1 REVERT JUMPDEST POP JUMP JUMPDEST PUSH1 0x0 DUP2 CALLDATALOAD SWAP1 POP PUSH2 0xB82 DUP2 PUSH2 0xB5C JUMP JUMPDEST SWAP3 SWAP2 POP POP JUMP JUMPDEST PUSH1 0x0 PUSH2 0xB9B PUSH2 0xB96 DUP5 PUSH2 0xB2B JUMP JUMPDEST PUSH2 0xA60 JUMP JUMPDEST SWAP1 POP DUP1 DUP4 DUP3 MSTORE PUSH1 0x20 DUP3 ADD SWAP1 POP PUSH1 0x20 DUP5 MUL DUP4 ADD DUP6 DUP2 GT ISZERO PUSH2 0xBBE JUMPI PUSH2 0xBBD PUSH2 0xB57 JUMP JUMPDEST JUMPDEST DUP4 JUMPDEST DUP2 DUP2 LT ISZERO PUSH2 0xBE7 JUMPI DUP1 PUSH2 0xBD3 DUP9 DUP3 PUSH2 0xB73 JUMP JUMPDEST DUP5 MSTORE PUSH1 0x20 DUP5 ADD SWAP4 POP POP PUSH1 0x20 DUP2 ADD SWAP1 POP PUSH2 0xBC0 JUMP JUMPDEST POP POP POP SWAP4 SWAP3 POP POP POP JUMP JUMPDEST PUSH1 0x0 DUP3 PUSH1 0x1F DUP4 ADD SLT PUSH2 0xC06 JUMPI PUSH2 0xC05 PUSH2 0x9F6 JUMP JUMPDEST JUMPDEST DUP2 CALLDATALOAD PUSH2 0xC16 DUP5 DUP3 PUSH1 0x20 DUP7 ADD PUSH2 0xB88 JUMP JUMPDEST SWAP2 POP POP SWAP3 SWAP2 POP POP JUMP JUMPDEST PUSH1 0x0 DUP1 PUSH1 0x0 PUSH1 0x60 DUP5 DUP7 SUB SLT ISZERO PUSH2 0xC38 JUMPI PUSH2 0xC37 PUSH2 0x6E1 JUMP JUMPDEST JUMPDEST PUSH1 0x0 DUP5 ADD CALLDATALOAD PUSH8 0xFFFFFFFFFFFFFFFF DUP2 GT ISZERO PUSH2 0xC56 JUMPI PUSH2 0xC55 PUSH2 0x6E6 JUMP JUMPDEST JUMPDEST PUSH2 0xC62 DUP7 DUP3 DUP8 ADD PUSH2 0xAFD JUMP JUMPDEST SWAP4 POP POP PUSH1 0x20 DUP5 ADD CALLDATALOAD PUSH8 0xFFFFFFFFFFFFFFFF DUP2 GT ISZERO PUSH2 0xC83 JUMPI PUSH2 0xC82 PUSH2 0x6E6 JUMP JUMPDEST JUMPDEST PUSH2 0xC8F DUP7 DUP3 DUP8 ADD PUSH2 0xAFD JUMP JUMPDEST SWAP3 POP POP PUSH1 0x40 DUP5 ADD CALLDATALOAD PUSH8 0xFFFFFFFFFFFFFFFF DUP2 GT ISZERO PUSH2 0xCB0 JUMPI PUSH2 0xCAF PUSH2 0x6E6 JUMP JUMPDEST JUMPDEST PUSH2 0xCBC DUP7 DUP3 DUP8 ADD PUSH2 0xBF1 JUMP JUMPDEST SWAP2 POP POP SWAP3 POP SWAP3 POP SWAP3 JUMP JUMPDEST PUSH32 0x4E6F20706F6C6C20666F756E6400000000000000000000000000000000000000 PUSH1 0x0 DUP3 ADD MSTORE POP JUMP JUMPDEST PUSH1 0x0 PUSH2 0xCFC PUSH1 0xD DUP4 PUSH2 0x77C JUMP JUMPDEST SWAP2 POP PUSH2 0xD07 DUP3 PUSH2 0xCC6 JUMP JUMPDEST PUSH1 0x20 DUP3 ADD SWAP1 POP SWAP2 SWAP1 POP JUMP JUMPDEST PUSH1 0x0 PUSH1 0x20 DUP3 ADD SWAP1 POP DUP2 DUP2 SUB PUSH1 0x0 DUP4 ADD MSTORE PUSH2 0xD2B DUP2 PUSH2 0xCEF JUMP JUMPDEST SWAP1 POP SWAP2 SWAP1 POP JUMP JUMPDEST PUSH32 0x4E487B7100000000000000000000000000000000000000000000000000000000 PUSH1 0x0 MSTORE PUSH1 0x32 PUSH1 0x4 MSTORE PUSH1 0x24 PUSH1 0x0 REVERT JUMPDEST PUSH32 0x4E487B7100000000000000000000000000000000000000000000000000000000 PUSH1 0x0 MSTORE PUSH1 0x22 PUSH1 0x4 MSTORE PUSH1 0x24 PUSH1 0x0 REVERT JUMPDEST PUSH1 0x0 PUSH1 0x2 DUP3 DIV SWAP1 POP PUSH1 0x1 DUP3 AND DUP1 PUSH2 0xDA8 JUMPI PUSH1 0x7F DUP3 AND SWAP2 POP JUMPDEST PUSH1 0x20 DUP3 LT DUP2 SUB PUSH2 0xDBB JUMPI PUSH2 0xDBA PUSH2 0xD61 JUMP JUMPDEST JUMPDEST POP SWAP2 SWAP1 POP JUMP JUMPDEST PUSH32 0x456D707479207175657374696F6E000000000000000000000000000000000000 PUSH1 0x0 DUP3 ADD MSTORE POP JUMP JUMPDEST PUSH1 0x0 PUSH2 0xDF7 PUSH1 0xE DUP4 PUSH2 0x77C JUMP JUMPDEST SWAP2 POP PUSH2 0xE02 DUP3 PUSH2 0xDC1 JUMP JUMPDEST PUSH1 0x20 DUP3 ADD SWAP1 POP SWAP2 SWAP1 POP JUMP JUMPDEST PUSH1 0x0 PUSH1 0x20 DUP3 ADD SWAP1 POP DUP2 DUP2 SUB PUSH1 0x0 DUP4 ADD MSTORE PUSH2 0xE26 DUP2 PUSH2 0xDEA JUMP JUMPDEST SWAP1 POP SWAP2 SWAP1 POP JUMP JUMPDEST PUSH32 0x4174206C656173742032206F7074696F6E732072657175697265640000000000 PUSH1 0x0 DUP3 ADD MSTORE POP JUMP JUMPDEST PUSH1 0x0 PUSH2 0xE63 PUSH1 0x1B DUP4 PUSH2 0x77C JUMP JUMPDEST SWAP2 POP PUSH2 0xE6E DUP3 PUSH2 0xE2D JUMP JUMPDEST PUSH1 0x20 DUP3 ADD SWAP1 POP SWAP2 SWAP1 POP JUMP JUMPDEST PUSH1 0x0 PUSH1 0x20 DUP3 ADD SWAP1 POP DUP2 DUP2 SUB PUSH1 0x0 DUP4 ADD MSTORE PUSH2 0xE92 DUP2 PUSH2 0xE56 JUMP JUMPDEST SWAP1 POP SWAP2 SWAP1 POP JUMP JUMPDEST PUSH1 0x0 DUP2 SWAP1 POP DUP2 PUSH1 0x0 MSTORE PUSH1 0x20 PUSH1 0x0 KECCAK256 SWAP1 POP SWAP2 SWAP1 POP JUMP JUMPDEST PUSH1 0x0 PUSH1 0x20 PUSH1 0x1F DUP4 ADD DIV SWAP1 POP SWAP2 SWAP1 POP JUMP JUMPDEST PUSH1 0x0 DUP3 DUP3 SHL SWAP1 POP SWAP3 SWAP2 POP POP JUMP JUMPDEST PUSH1 0x0 PUSH1 0x8 DUP4 MUL PUSH2 0xEFB PUSH32 0xFFFFFFFFFFFFFFFFFFFFFFFFFFFFFFFFFFFFFFFFFFFFFFFFFFFFFFFFFFFFFFFF DUP3 PUSH2 0xEBE JUMP JUMPDEST PUSH2 0xF05 DUP7 DUP4 PUSH2 0xEBE JUMP JUMPDEST SWAP6 POP DUP1 NOT DUP5 AND SWAP4 POP DUP1 DUP7 AND DUP5 OR SWAP3 POP POP POP SWAP4 SWAP3 POP POP POP JUMP JUMPDEST PUSH1 0x0 DUP2 SWAP1 POP SWAP2 SWAP1 POP JUMP JUMPDEST PUSH1 0x0 PUSH2 0xF42 PUSH2 0xF3D PUSH2 0xF38 DUP5 PUSH2 0x758 JUMP JUMPDEST PUSH2 0xF1D JUMP JUMPDEST PUSH2 0x758 JUMP JUMPDEST SWAP1 POP SWAP2 SWAP1 POP JUMP JUMPDEST PUSH1 0x0 DUP2 SWAP1 POP SWAP2 SWAP1 POP JUMP JUMPDEST PUSH2 0xF5C DUP4 PUSH2 0xF27 JUMP JUMPDEST PUSH2 0xF70 PUSH2 0xF68 DUP3 PUSH2 0xF49 JUMP JUMPDEST DUP5 DUP5 SLOAD PUSH2 0xECB JUMP JUMPDEST DUP3 SSTORE POP POP POP POP JUMP JUMPDEST PUSH1 0x0 SWAP1 JUMP JUMPDEST PUSH2 0xF85 PUSH2 0xF78 JUMP JUMPDEST PUSH2 0xF90 DUP2 DUP5 DUP5 PUSH2 0xF53 JUMP JUMPDEST POP POP POP JUMP JUMPDEST JUMPDEST DUP2 DUP2 LT ISZERO PUSH2 0xFB4 JUMPI PUSH2 0xFA9 PUSH1 0x0 DUP3 PUSH2 0xF7D JUMP JUMPDEST PUSH1 0x1 DUP2 ADD SWAP1 POP PUSH2 0xF96 JUMP JUMPDEST POP POP JUMP JUMPDEST PUSH1 0x1F DUP3 GT ISZERO PUSH2 0xFF9 JUMPI PUSH2 0xFCA DUP2 PUSH2 0xE99 JUMP JUMPDEST PUSH2 0xFD3 DUP5 PUSH2 0xEAE JUMP JUMPDEST DUP2 ADD PUSH1 0x20 DUP6 LT ISZERO PUSH2 0xFE2 JUMPI DUP2 SWAP1 POP JUMPDEST PUSH2 0xFF6 PUSH2 0xFEE DUP6 PUSH2 0xEAE JUMP JUMPDEST DUP4 ADD DUP3 PUSH2 0xF95 JUMP JUMPDEST POP POP JUMPDEST POP POP POP JUMP JUMPDEST PUSH1 0x0 DUP3 DUP3 SHR SWAP1 POP SWAP3 SWAP2 POP POP JUMP JUMPDEST PUSH1 0x0 PUSH2 0x101C PUSH1 0x0 NOT DUP5 PUSH1 0x8 MUL PUSH2 0xFFE JUMP JUMPDEST NOT DUP1 DUP4 AND SWAP2 POP POP SWAP3 SWAP2 POP POP JUMP JUMPDEST PUSH1 0x0 PUSH2 0x1035 DUP4 DUP4 PUSH2 0x100B JUMP JUMPDEST SWAP2 POP DUP3 PUSH1 0x2 MUL DUP3 OR SWAP1 POP SWAP3 SWAP2 POP POP JUMP JUMPDEST PUSH2 0x104E DUP3 PUSH2 0x771 JUMP JUMPDEST PUSH8 0xFFFFFFFFFFFFFFFF DUP2 GT ISZERO PUSH2 0x1067 JUMPI PUSH2 0x1066 PUSH2 0xA00 JUMP JUMPDEST JUMPDEST PUSH2 0x1071 DUP3 SLOAD PUSH2 0xD90 JUMP JUMPDEST PUSH2 0x107C DUP3 DUP3 DUP6 PUSH2 0xFB8 JUMP JUMPDEST PUSH1 0x0 PUSH1 0x20 SWAP1 POP PUSH1 0x1F DUP4 GT PUSH1 0x1 DUP2 EQ PUSH2 0x10AF JUMPI PUSH1 0x0 DUP5 ISZERO PUSH2 0x109D JUMPI DUP3 DUP8 ADD MLOAD SWAP1 POP JUMPDEST PUSH2 0x10A7 DUP6 DUP3 PUSH2 0x1029 JUMP JUMPDEST DUP7 SSTORE POP PUSH2 0x110F JUMP JUMPDEST PUSH1 0x1F NOT DUP5 AND PUSH2 0x10BD DUP7 PUSH2 0xE99 JUMP JUMPDEST PUSH1 0x0 JUMPDEST DUP3 DUP2 LT ISZERO PUSH2 0x10E5 JUMPI DUP5 DUP10 ADD MLOAD DUP3 SSTORE PUSH1 0x1 DUP3 ADD SWAP2 POP PUSH1 0x20 DUP6 ADD SWAP5 POP PUSH1 0x20 DUP2 ADD SWAP1 POP PUSH2 0x10C0 JUMP JUMPDEST DUP7 DUP4 LT ISZERO PUSH2 0x1102 JUMPI DUP5 DUP10 ADD MLOAD PUSH2 0x10FE PUSH1 0x1F DUP10 AND DUP3 PUSH2 0x100B JUMP JUMPDEST DUP4 SSTORE POP JUMPDEST PUSH1 0x1 PUSH1 0x2 DUP9 MUL ADD DUP9 SSTORE POP POP POP JUMPDEST POP POP POP POP POP POP JUMP INVALID LOG2 PUSH5 0x6970667358 0x22 SLT KECCAK256 0x2E 0xDA 0x28 ORIGIN SWAP11 0x4A 0x4B 0xC2 CALLDATASIZE 0xDD BLOCKHASH 0x5C 0xA8 0x23 SWAP15 0xCD 0xCE SELFBALANCE 0xAA LT 0x4D DUP8 0x49 DUP5 PUSH30 0xCFB0C4A3B3AC8E64736F6C63430008100033000000000000000000000000 "
				},
				"gasEstimates": {
					"creation": {
						"codeDepositCost": "885800",
						"executionCost": "922",
						"totalCost": "886722"
					},
					"external": {
						"createPoll(string,string,bytes32[])": "infinite",
						"getPoll(uint64)": "infinite"
					}
				},
				"methodIdentifiers": {
					"createPoll(string,string,bytes32[])": "7ba91041",
					"getPoll(uint64)": "157bd75d"
				}
			},
			"storageLayout": {
				"storage": [
					{
						"astId": 28,
						"contract": "poll.sol:PollContract",
						"label": "polls",
						"offset": 0,
						"slot": "0",
						"type": "t_array(t_struct(Poll)14_storage)dyn_storage"
					},
					{
						"astId": 33,
						"contract": "poll.sol:PollContract",
						"label": "voters",
						"offset": 0,
						"slot": "1",
						"type": "t_mapping(t_address,t_struct(Voter)24_storage)"
					}
				],
				"types": {
					"t_address": {
						"encoding": "inplace",
						"label": "address",
						"numberOfBytes": "20"
					},
					"t_array(t_bytes32)dyn_storage": {
						"base": "t_bytes32",
						"encoding": "dynamic_array",
						"label": "bytes32[]",
						"numberOfBytes": "32"
					},
					"t_array(t_struct(Poll)14_storage)dyn_storage": {
						"base": "t_struct(Poll)14_storage",
						"encoding": "dynamic_array",
						"label": "struct PollContract.Poll[]",
						"numberOfBytes": "32"
					},
					"t_array(t_uint256)dyn_storage": {
						"base": "t_uint256",
						"encoding": "dynamic_array",
						"label": "uint256[]",
						"numberOfBytes": "32"
					},
					"t_array(t_uint64)dyn_storage": {
						"base": "t_uint64",
						"encoding": "dynamic_array",
						"label": "uint64[]",
						"numberOfBytes": "32"
					},
					"t_bool": {
						"encoding": "inplace",
						"label": "bool",
						"numberOfBytes": "1"
					},
					"t_bytes32": {
						"encoding": "inplace",
						"label": "bytes32",
						"numberOfBytes": "32"
					},
					"t_mapping(t_address,t_struct(Voter)24_storage)": {
						"encoding": "mapping",
						"key": "t_address",
						"label": "mapping(address => struct PollContract.Voter)",
						"numberOfBytes": "32",
						"value": "t_struct(Voter)24_storage"
					},
					"t_mapping(t_uint256,t_bool)": {
						"encoding": "mapping",
						"key": "t_uint256",
						"label": "mapping(uint256 => bool)",
						"numberOfBytes": "32",
						"value": "t_bool"
					},
					"t_string_storage": {
						"encoding": "bytes",
						"label": "string",
						"numberOfBytes": "32"
					},
					"t_struct(Poll)14_storage": {
						"encoding": "inplace",
						"label": "struct PollContract.Poll",
						"members": [
							{
								"astId": 3,
								"contract": "poll.sol:PollContract",
								"label": "id",
								"offset": 0,
								"slot": "0",
								"type": "t_uint256"
							},
							{
								"astId": 5,
								"contract": "poll.sol:PollContract",
								"label": "question",
								"offset": 0,
								"slot": "1",
								"type": "t_string_storage"
							},
							{
								"astId": 7,
								"contract": "poll.sol:PollContract",
								"label": "thumbnail",
								"offset": 0,
								"slot": "2",
								"type": "t_string_storage"
							},
							{
								"astId": 10,
								"contract": "poll.sol:PollContract",
								"label": "votes",
								"offset": 0,
								"slot": "3",
								"type": "t_array(t_uint64)dyn_storage"
							},
							{
								"astId": 13,
								"contract": "poll.sol:PollContract",
								"label": "options",
								"offset": 0,
								"slot": "4",
								"type": "t_array(t_bytes32)dyn_storage"
							}
						],
						"numberOfBytes": "160"
					},
					"t_struct(Voter)24_storage": {
						"encoding": "inplace",
						"label": "struct PollContract.Voter",
						"members": [
							{
								"astId": 16,
								"contract": "poll.sol:PollContract",
								"label": "id",
								"offset": 0,
								"slot": "0",
								"type": "t_address"
							},
							{
								"astId": 19,
								"contract": "poll.sol:PollContract",
								"label": "votedIds",
								"offset": 0,
								"slot": "1",
								"type": "t_array(t_uint256)dyn_storage"
							},
							{
								"astId": 23,
								"contract": "poll.sol:PollContract",
								"label": "votedMap",
								"offset": 0,
								"slot": "2",
								"type": "t_mapping(t_uint256,t_bool)"
							}
						],
						"numberOfBytes": "96"
					},
					"t_uint256": {
						"encoding": "inplace",
						"label": "uint256",
						"numberOfBytes": "32"
					},
					"t_uint64": {
						"encoding": "inplace",
						"label": "uint64",
						"numberOfBytes": "8"
					}
				}
			},
			"userdoc": {
				"kind": "user",
				"methods": {},
				"version": 1
			}
		}
	}
}