{
	"poll.sol": {
		"PollContract": {
			"abi": [
				{
					"inputs": [
						{
							"internalType": "string",
							"name": "_question",
							"type": "string"
						},
						{
							"internalType": "string",
							"name": "_thumb",
							"type": "string"
						},
						{
							"internalType": "bytes32[]",
							"name": "_options",
							"type": "bytes32[]"
						}
					],
					"name": "createPoll",
					"outputs": [],
					"stateMutability": "nonpayable",
					"type": "function"
				},
				{
					"inputs": [
						{
							"internalType": "uint64",
							"name": "_pollId",
							"type": "uint64"
						}
					],
					"name": "getPoll",
					"outputs": [
						{
							"internalType": "uint256",
							"name": "",
							"type": "uint256"
						},
						{
							"internalType": "string",
							"name": "",
							"type": "string"
						},
						{
							"internalType": "string",
							"name": "",
							"type": "string"
						},
						{
							"internalType": "uint64[]",
							"name": "",
							"type": "uint64[]"
						},
						{
							"internalType": "bytes32[]",
							"name": "",
							"type": "bytes32[]"
						}
					],
					"stateMutability": "view",
					"type": "function"
				},
				{
					"inputs": [
						{
							"internalType": "uint64",
							"name": "_pollId",
							"type": "uint64"
						},
						{
							"internalType": "uint64",
							"name": "_vote",
							"type": "uint64"
						}
					],
					"name": "vote",
					"outputs": [],
					"stateMutability": "nonpayable",
					"type": "function"
				}
			],
			"devdoc": {
				"kind": "dev",
				"methods": {},
				"version": 1
			},
			"evm": {
				"assembly": "    /* \"poll.sol\":26:1471  contract PollContract {... */\n  mstore(0x40, 0x80)\n  callvalue\n  dup1\n  iszero\n  tag_1\n  jumpi\n  0x00\n  dup1\n  revert\ntag_1:\n  pop\n  dataSize(sub_0)\n  dup1\n  dataOffset(sub_0)\n  0x00\n  codecopy\n  0x00\n  return\nstop\n\nsub_0: assembly {\n        /* \"poll.sol\":26:1471  contract PollContract {... */\n      mstore(0x40, 0x80)\n      callvalue\n      dup1\n      iszero\n      tag_1\n      jumpi\n      0x00\n      dup1\n      revert\n    tag_1:\n      pop\n      jumpi(tag_2, lt(calldatasize, 0x04))\n      shr(0xe0, calldataload(0x00))\n      dup1\n      0x157bd75d\n      eq\n      tag_3\n      jumpi\n      dup1\n      0x3d51e9d9\n      eq\n      tag_4\n      jumpi\n      dup1\n      0x7ba91041\n      eq\n      tag_5\n      jumpi\n    tag_2:\n      0x00\n      dup1\n      revert\n        /* \"poll.sol\":1063:1402  function getPoll(uint64 _pollId) external view returns(uint256, string memory, string memory, uint64[] memory, bytes32[] memory) {... */\n    tag_3:\n      tag_6\n      0x04\n      dup1\n      calldatasize\n      sub\n      dup2\n      add\n      swap1\n      tag_7\n      swap2\n      swap1\n      tag_8\n      jump\t// in\n    tag_7:\n      tag_9\n      jump\t// in\n    tag_6:\n      mload(0x40)\n      tag_10\n      swap6\n      swap5\n      swap4\n      swap3\n      swap2\n      swap1\n      tag_11\n      jump\t// in\n    tag_10:\n      mload(0x40)\n      dup1\n      swap2\n      sub\n      swap1\n      return\n        /* \"poll.sol\":1408:1469  function vote(uint64 _pollId, uint64 _vote) external {... */\n    tag_4:\n      tag_12\n      0x04\n      dup1\n      calldatasize\n      sub\n      dup2\n      add\n      swap1\n      tag_13\n      swap2\n      swap1\n      tag_14\n      jump\t// in\n    tag_13:\n      tag_15\n      jump\t// in\n    tag_12:\n      stop\n        /* \"poll.sol\":527:1057  function createPoll(string memory _question, string memory _thumb, bytes32[] memory _options) public  {... */\n    tag_5:\n      tag_16\n      0x04\n      dup1\n      calldatasize\n      sub\n      dup2\n      add\n      swap1\n      tag_17\n      swap2\n      swap1\n      tag_18\n      jump\t// in\n    tag_17:\n      tag_19\n      jump\t// in\n    tag_16:\n      stop\n        /* \"poll.sol\":1063:1402  function getPoll(uint64 _pollId) external view returns(uint256, string memory, string memory, uint64[] memory, bytes32[] memory) {... */\n    tag_9:\n        /* \"poll.sol\":1118:1125  uint256 */\n      0x00\n        /* \"poll.sol\":1127:1140  string memory */\n      0x60\n        /* \"poll.sol\":1142:1155  string memory */\n      dup1\n        /* \"poll.sol\":1157:1172  uint64[] memory */\n      0x60\n        /* \"poll.sol\":1174:1190  bytes32[] memory */\n      dup1\n        /* \"poll.sol\":1223:1228  polls */\n      0x00\n        /* \"poll.sol\":1229:1236  _pollId */\n      dup7\n        /* \"poll.sol\":1223:1237  polls[_pollId] */\n      0xffffffffffffffff\n      and\n      dup2\n      sload\n      dup2\n      lt\n      tag_21\n      jumpi\n      tag_22\n      tag_23\n      jump\t// in\n    tag_22:\n    tag_21:\n      swap1\n      0x00\n      mstore\n      keccak256(0x00, 0x20)\n      swap1\n      0x05\n      mul\n      add\n        /* \"poll.sol\":1223:1240  polls[_pollId].id */\n      0x00\n      add\n      sload\n        /* \"poll.sol\":1254:1259  polls */\n      0x00\n        /* \"poll.sol\":1260:1267  _pollId */\n      dup8\n        /* \"poll.sol\":1254:1268  polls[_pollId] */\n      0xffffffffffffffff\n      and\n      dup2\n      sload\n      dup2\n      lt\n      tag_25\n      jumpi\n      tag_26\n      tag_23\n      jump\t// in\n    tag_26:\n    tag_25:\n      swap1\n      0x00\n      mstore\n      keccak256(0x00, 0x20)\n      swap1\n      0x05\n      mul\n      add\n        /* \"poll.sol\":1254:1277  polls[_pollId].question */\n      0x01\n      add\n        /* \"poll.sol\":1291:1296  polls */\n      0x00\n        /* \"poll.sol\":1297:1304  _pollId */\n      dup9\n        /* \"poll.sol\":1291:1305  polls[_pollId] */\n      0xffffffffffffffff\n      and\n      dup2\n      sload\n      dup2\n      lt\n      tag_28\n      jumpi\n      tag_29\n      tag_23\n      jump\t// in\n    tag_29:\n    tag_28:\n      swap1\n      0x00\n      mstore\n      keccak256(0x00, 0x20)\n      swap1\n      0x05\n      mul\n      add\n        /* \"poll.sol\":1291:1315  polls[_pollId].thumbnail */\n      0x02\n      add\n        /* \"poll.sol\":1329:1334  polls */\n      0x00\n        /* \"poll.sol\":1335:1342  _pollId */\n      dup10\n        /* \"poll.sol\":1329:1343  polls[_pollId] */\n      0xffffffffffffffff\n      and\n      dup2\n      sload\n      dup2\n      lt\n      tag_31\n      jumpi\n      tag_32\n      tag_23\n      jump\t// in\n    tag_32:\n    tag_31:\n      swap1\n      0x00\n      mstore\n      keccak256(0x00, 0x20)\n      swap1\n      0x05\n      mul\n      add\n        /* \"poll.sol\":1329:1349  polls[_pollId].votes */\n      0x03\n      add\n        /* \"poll.sol\":1363:1368  polls */\n      0x00\n        /* \"poll.sol\":1369:1376  _pollId */\n      dup11\n        /* \"poll.sol\":1363:1377  polls[_pollId] */\n      0xffffffffffffffff\n      and\n      dup2\n      sload\n      dup2\n      lt\n      tag_34\n      jumpi\n      tag_35\n      tag_23\n      jump\t// in\n    tag_35:\n    tag_34:\n      swap1\n      0x00\n      mstore\n      keccak256(0x00, 0x20)\n      swap1\n      0x05\n      mul\n      add\n        /* \"poll.sol\":1363:1385  polls[_pollId].options */\n      0x04\n      add\n        /* \"poll.sol\":1202:1395  return (... */\n      dup4\n      dup1\n      sload\n      tag_37\n      swap1\n      tag_38\n      jump\t// in\n    tag_37:\n      dup1\n      0x1f\n      add\n      0x20\n      dup1\n      swap2\n      div\n      mul\n      0x20\n      add\n      mload(0x40)\n      swap1\n      dup2\n      add\n      0x40\n      mstore\n      dup1\n      swap3\n      swap2\n      swap1\n      dup2\n      dup2\n      mstore\n      0x20\n      add\n      dup3\n      dup1\n      sload\n      tag_39\n      swap1\n      tag_38\n      jump\t// in\n    tag_39:\n      dup1\n      iszero\n      tag_40\n      jumpi\n      dup1\n      0x1f\n      lt\n      tag_41\n      jumpi\n      0x0100\n      dup1\n      dup4\n      sload\n      div\n      mul\n      dup4\n      mstore\n      swap2\n      0x20\n      add\n      swap2\n      jump(tag_40)\n    tag_41:\n      dup3\n      add\n      swap2\n      swap1\n      0x00\n      mstore\n      keccak256(0x00, 0x20)\n      swap1\n    tag_42:\n      dup2\n      sload\n      dup2\n      mstore\n      swap1\n      0x01\n      add\n      swap1\n      0x20\n      add\n      dup1\n      dup4\n      gt\n      tag_42\n      jumpi\n      dup3\n      swap1\n      sub\n      0x1f\n      and\n      dup3\n      add\n      swap2\n    tag_40:\n      pop\n      pop\n      pop\n      pop\n      pop\n      swap4\n      pop\n      dup3\n      dup1\n      sload\n      tag_43\n      swap1\n      tag_38\n      jump\t// in\n    tag_43:\n      dup1\n      0x1f\n      add\n      0x20\n      dup1\n      swap2\n      div\n      mul\n      0x20\n      add\n      mload(0x40)\n      swap1\n      dup2\n      add\n      0x40\n      mstore\n      dup1\n      swap3\n      swap2\n      swap1\n      dup2\n      dup2\n      mstore\n      0x20\n      add\n      dup3\n      dup1\n      sload\n      tag_44\n      swap1\n      tag_38\n      jump\t// in\n    tag_44:\n      dup1\n      iszero\n      tag_45\n      jumpi\n      dup1\n      0x1f\n      lt\n      tag_46\n      jumpi\n      0x0100\n      dup1\n      dup4\n      sload\n      div\n      mul\n      dup4\n      mstore\n      swap2\n      0x20\n      add\n      swap2\n      jump(tag_45)\n    tag_46:\n      dup3\n      add\n      swap2\n      swap1\n      0x00\n      mstore\n      keccak256(0x00, 0x20)\n      swap1\n    tag_47:\n      dup2\n      sload\n      dup2\n      mstore\n      swap1\n      0x01\n      add\n      swap1\n      0x20\n      add\n      dup1\n      dup4\n      gt\n      tag_47\n      jumpi\n      dup3\n      swap1\n      sub\n      0x1f\n      and\n      dup3\n      add\n      swap2\n    tag_45:\n      pop\n      pop\n      pop\n      pop\n      pop\n      swap3\n      pop\n      dup2\n      dup1\n      sload\n      dup1\n      0x20\n      mul\n      0x20\n      add\n      mload(0x40)\n      swap1\n      dup2\n      add\n      0x40\n      mstore\n      dup1\n      swap3\n      swap2\n      swap1\n      dup2\n      dup2\n      mstore\n      0x20\n      add\n      dup3\n      dup1\n      sload\n      dup1\n      iszero\n      tag_48\n      jumpi\n      0x20\n      mul\n      dup3\n      add\n      swap2\n      swap1\n      0x00\n      mstore\n      keccak256(0x00, 0x20)\n      swap1\n      0x00\n      swap1\n    tag_49:\n      dup3\n      dup3\n      swap1\n      sload\n      swap1\n      0x0100\n      exp\n      swap1\n      div\n      0xffffffffffffffff\n      and\n      0xffffffffffffffff\n      and\n      dup2\n      mstore\n      0x20\n      add\n      swap1\n      0x08\n      add\n      swap1\n      0x20\n      dup3\n      0x07\n      add\n      div\n      swap3\n      dup4\n      add\n      swap3\n      0x01\n      sub\n      dup3\n      mul\n      swap2\n      pop\n      dup1\n      dup5\n      gt\n      tag_49\n      jumpi\n      swap1\n      pop\n    tag_48:\n      pop\n      pop\n      pop\n      pop\n      pop\n      swap2\n      pop\n      dup1\n      dup1\n      sload\n      dup1\n      0x20\n      mul\n      0x20\n      add\n      mload(0x40)\n      swap1\n      dup2\n      add\n      0x40\n      mstore\n      dup1\n      swap3\n      swap2\n      swap1\n      dup2\n      dup2\n      mstore\n      0x20\n      add\n      dup3\n      dup1\n      sload\n      dup1\n      iszero\n      tag_50\n      jumpi\n      0x20\n      mul\n      dup3\n      add\n      swap2\n      swap1\n      0x00\n      mstore\n      keccak256(0x00, 0x20)\n      swap1\n    tag_51:\n      dup2\n      sload\n      dup2\n      mstore\n      0x20\n      add\n      swap1\n      0x01\n      add\n      swap1\n      dup1\n      dup4\n      gt\n      tag_51\n      jumpi\n    tag_50:\n      pop\n      pop\n      pop\n      pop\n      pop\n      swap1\n      pop\n      swap5\n      pop\n      swap5\n      pop\n      swap5\n      pop\n      swap5\n      pop\n      swap5\n      pop\n        /* \"poll.sol\":1063:1402  function getPoll(uint64 _pollId) external view returns(uint256, string memory, string memory, uint64[] memory, bytes32[] memory) {... */\n      swap2\n      swap4\n      swap6\n      swap1\n      swap3\n      swap5\n      pop\n      jump\t// out\n        /* \"poll.sol\":1408:1469  function vote(uint64 _pollId, uint64 _vote) external {... */\n    tag_15:\n      pop\n      pop\n      jump\t// out\n        /* \"poll.sol\":527:1057  function createPoll(string memory _question, string memory _thumb, bytes32[] memory _options) public  {... */\n    tag_19:\n        /* \"poll.sol\":673:674  0 */\n      0x00\n        /* \"poll.sol\":653:662  _question */\n      dup4\n        /* \"poll.sol\":647:670  bytes(_question).length */\n      mload\n        /* \"poll.sol\":647:674  bytes(_question).length > 0 */\n      gt\n        /* \"poll.sol\":639:693  require(bytes(_question).length > 0, \"Empty question\") */\n      tag_54\n      jumpi\n      mload(0x40)\n      0x08c379a000000000000000000000000000000000000000000000000000000000\n      dup2\n      mstore\n      0x04\n      add\n      tag_55\n      swap1\n      tag_56\n      jump\t// in\n    tag_55:\n      mload(0x40)\n      dup1\n      swap2\n      sub\n      swap1\n      revert\n    tag_54:\n        /* \"poll.sol\":729:730  1 */\n      0x01\n        /* \"poll.sol\":711:719  _options */\n      dup2\n        /* \"poll.sol\":711:726  _options.length */\n      mload\n        /* \"poll.sol\":711:730  _options.length > 1 */\n      gt\n        /* \"poll.sol\":703:762  require(_options.length > 1, \"At least 2 options required\") */\n      tag_57\n      jumpi\n      mload(0x40)\n      0x08c379a000000000000000000000000000000000000000000000000000000000\n      dup2\n      mstore\n      0x04\n      add\n      tag_58\n      swap1\n      tag_59\n      jump\t// in\n    tag_58:\n      mload(0x40)\n      dup1\n      swap2\n      sub\n      swap1\n      revert\n    tag_57:\n        /* \"poll.sol\":773:787  uint256 pollId */\n      0x00\n        /* \"poll.sol\":790:795  polls */\n      dup1\n        /* \"poll.sol\":790:802  polls.length */\n      dup1\n      sload\n      swap1\n      pop\n        /* \"poll.sol\":773:802  uint256 pollId = polls.length */\n      swap1\n      pop\n        /* \"poll.sol\":813:832  Poll memory newPoll */\n      0x00\n        /* \"poll.sol\":835:1020  Poll({... */\n      mload(0x40)\n      dup1\n      0xa0\n      add\n      0x40\n      mstore\n      dup1\n        /* \"poll.sol\":858:864  pollId */\n      dup4\n        /* \"poll.sol\":835:1020  Poll({... */\n      dup2\n      mstore\n      0x20\n      add\n        /* \"poll.sol\":888:897  _question */\n      dup7\n        /* \"poll.sol\":835:1020  Poll({... */\n      dup2\n      mstore\n      0x20\n      add\n        /* \"poll.sol\":922:928  _thumb */\n      dup6\n        /* \"poll.sol\":835:1020  Poll({... */\n      dup2\n      mstore\n      0x20\n      add\n        /* \"poll.sol\":993:1001  _options */\n      dup5\n        /* \"poll.sol\":993:1008  _options.length */\n      mload\n        /* \"poll.sol\":980:1009  new uint64[](_options.length) */\n      0xffffffffffffffff\n      dup2\n      gt\n      iszero\n      tag_60\n      jumpi\n      tag_61\n      tag_62\n      jump\t// in\n    tag_61:\n    tag_60:\n      mload(0x40)\n      swap1\n      dup1\n      dup3\n      mstore\n      dup1\n      0x20\n      mul\n      0x20\n      add\n      dup3\n      add\n      0x40\n      mstore\n      dup1\n      iszero\n      tag_63\n      jumpi\n      dup2\n      0x20\n      add\n      0x20\n      dup3\n      mul\n      dup1\n      calldatasize\n      dup4\n      calldatacopy\n      dup1\n      dup3\n      add\n      swap2\n      pop\n      pop\n      swap1\n      pop\n    tag_63:\n      pop\n        /* \"poll.sol\":835:1020  Poll({... */\n      dup2\n      mstore\n      0x20\n      add\n        /* \"poll.sol\":951:959  _options */\n      dup5\n        /* \"poll.sol\":835:1020  Poll({... */\n      dup2\n      mstore\n      pop\n        /* \"poll.sol\":813:1020  Poll memory newPoll = Poll({... */\n      swap1\n      pop\n        /* \"poll.sol\":1031:1036  polls */\n      0x00\n        /* \"poll.sol\":1042:1049  newPoll */\n      dup2\n        /* \"poll.sol\":1031:1050  polls.push(newPoll) */\n      swap1\n      dup1\n      0x01\n      dup2\n      sload\n      add\n      dup1\n      dup3\n      sstore\n      dup1\n      swap2\n      pop\n      pop\n      0x01\n      swap1\n      sub\n      swap1\n      0x00\n      mstore\n      keccak256(0x00, 0x20)\n      swap1\n      0x05\n      mul\n      add\n      0x00\n      swap1\n      swap2\n      swap1\n      swap2\n      swap1\n      swap2\n      pop\n      0x00\n      dup3\n      add\n      mload\n      dup2\n      0x00\n      add\n      sstore\n      0x20\n      dup3\n      add\n      mload\n      dup2\n      0x01\n      add\n      swap1\n      dup2\n      tag_65\n      swap2\n      swap1\n      tag_66\n      jump\t// in\n    tag_65:\n      pop\n      0x40\n      dup3\n      add\n      mload\n      dup2\n      0x02\n      add\n      swap1\n      dup2\n      tag_67\n      swap2\n      swap1\n      tag_66\n      jump\t// in\n    tag_67:\n      pop\n      0x60\n      dup3\n      add\n      mload\n      dup2\n      0x03\n      add\n      swap1\n      dup1\n      mload\n      swap1\n      0x20\n      add\n      swap1\n      tag_68\n      swap3\n      swap2\n      swap1\n      tag_69\n      jump\t// in\n    tag_68:\n      pop\n      0x80\n      dup3\n      add\n      mload\n      dup2\n      0x04\n      add\n      swap1\n      dup1\n      mload\n      swap1\n      0x20\n      add\n      swap1\n      tag_70\n      swap3\n      swap2\n      swap1\n      tag_71\n      jump\t// in\n    tag_70:\n      pop\n      pop\n      pop\n        /* \"poll.sol\":629:1057  {... */\n      pop\n      pop\n        /* \"poll.sol\":527:1057  function createPoll(string memory _question, string memory _thumb, bytes32[] memory _options) public  {... */\n      pop\n      pop\n      pop\n      jump\t// out\n    tag_69:\n      dup3\n      dup1\n      sload\n      dup3\n      dup3\n      sstore\n      swap1\n      0x00\n      mstore\n      keccak256(0x00, 0x20)\n      swap1\n      0x03\n      add\n      0x04\n      swap1\n      div\n      dup2\n      add\n      swap3\n      dup3\n      iszero\n      tag_72\n      jumpi\n      swap2\n      0x20\n      mul\n      dup3\n      add\n      0x00\n    tag_73:\n      dup4\n      dup3\n      gt\n      iszero\n      tag_74\n      jumpi\n      dup4\n      mload\n      dup4\n      dup3\n      0x0100\n      exp\n      dup2\n      sload\n      dup2\n      0xffffffffffffffff\n      mul\n      not\n      and\n      swap1\n      dup4\n      0xffffffffffffffff\n      and\n      mul\n      or\n      swap1\n      sstore\n      pop\n      swap3\n      0x20\n      add\n      swap3\n      0x08\n      add\n      0x20\n      dup2\n      0x07\n      add\n      div\n      swap3\n      dup4\n      add\n      swap3\n      0x01\n      sub\n      mul\n      jump(tag_73)\n    tag_74:\n      dup1\n      iszero\n      tag_75\n      jumpi\n      dup3\n      dup2\n      0x0100\n      exp\n      dup2\n      sload\n      swap1\n      0xffffffffffffffff\n      mul\n      not\n      and\n      swap1\n      sstore\n      0x08\n      add\n      0x20\n      dup2\n      0x07\n      add\n      div\n      swap3\n      dup4\n      add\n      swap3\n      0x01\n      sub\n      mul\n      jump(tag_74)\n    tag_75:\n      pop\n    tag_72:\n      pop\n      swap1\n      pop\n      tag_76\n      swap2\n      swap1\n      tag_77\n      jump\t// in\n    tag_76:\n      pop\n      swap1\n      jump\t// out\n    tag_71:\n      dup3\n      dup1\n      sload\n      dup3\n      dup3\n      sstore\n      swap1\n      0x00\n      mstore\n      keccak256(0x00, 0x20)\n      swap1\n      dup2\n      add\n      swap3\n      dup3\n      iszero\n      tag_78\n      jumpi\n      swap2\n      0x20\n      mul\n      dup3\n      add\n    tag_79:\n      dup3\n      dup2\n      gt\n      iszero\n      tag_80\n      jumpi\n      dup3\n      mload\n      dup3\n      sstore\n      swap2\n      0x20\n      add\n      swap2\n      swap1\n      0x01\n      add\n      swap1\n      jump(tag_79)\n    tag_80:\n    tag_78:\n      pop\n      swap1\n      pop\n      tag_81\n      swap2\n      swap1\n      tag_82\n      jump\t// in\n    tag_81:\n      pop\n      swap1\n      jump\t// out\n    tag_77:\n    tag_83:\n      dup1\n      dup3\n      gt\n      iszero\n      tag_84\n      jumpi\n      0x00\n      dup2\n      0x00\n      swap1\n      sstore\n      pop\n      0x01\n      add\n      jump(tag_83)\n    tag_84:\n      pop\n      swap1\n      jump\t// out\n    tag_82:\n    tag_85:\n      dup1\n      dup3\n      gt\n      iszero\n      tag_86\n      jumpi\n      0x00\n      dup2\n      0x00\n      swap1\n      sstore\n      pop\n      0x01\n      add\n      jump(tag_85)\n    tag_86:\n      pop\n      swap1\n      jump\t// out\n        /* \"#utility.yul\":7:82   */\n    tag_87:\n        /* \"#utility.yul\":40:46   */\n      0x00\n        /* \"#utility.yul\":73:75   */\n      0x40\n        /* \"#utility.yul\":67:76   */\n      mload\n        /* \"#utility.yul\":57:76   */\n      swap1\n      pop\n        /* \"#utility.yul\":7:82   */\n      swap1\n      jump\t// out\n        /* \"#utility.yul\":88:205   */\n    tag_88:\n        /* \"#utility.yul\":197:198   */\n      0x00\n        /* \"#utility.yul\":194:195   */\n      dup1\n        /* \"#utility.yul\":187:199   */\n      revert\n        /* \"#utility.yul\":211:328   */\n    tag_89:\n        /* \"#utility.yul\":320:321   */\n      0x00\n        /* \"#utility.yul\":317:318   */\n      dup1\n        /* \"#utility.yul\":310:322   */\n      revert\n        /* \"#utility.yul\":334:435   */\n    tag_90:\n        /* \"#utility.yul\":370:377   */\n      0x00\n        /* \"#utility.yul\":410:428   */\n      0xffffffffffffffff\n        /* \"#utility.yul\":403:408   */\n      dup3\n        /* \"#utility.yul\":399:429   */\n      and\n        /* \"#utility.yul\":388:429   */\n      swap1\n      pop\n        /* \"#utility.yul\":334:435   */\n      swap2\n      swap1\n      pop\n      jump\t// out\n        /* \"#utility.yul\":441:561   */\n    tag_91:\n        /* \"#utility.yul\":513:536   */\n      tag_155\n        /* \"#utility.yul\":530:535   */\n      dup2\n        /* \"#utility.yul\":513:536   */\n      tag_90\n      jump\t// in\n    tag_155:\n        /* \"#utility.yul\":506:511   */\n      dup2\n        /* \"#utility.yul\":503:537   */\n      eq\n        /* \"#utility.yul\":493:555   */\n      tag_156\n      jumpi\n        /* \"#utility.yul\":551:552   */\n      0x00\n        /* \"#utility.yul\":548:549   */\n      dup1\n        /* \"#utility.yul\":541:553   */\n      revert\n        /* \"#utility.yul\":493:555   */\n    tag_156:\n        /* \"#utility.yul\":441:561   */\n      pop\n      jump\t// out\n        /* \"#utility.yul\":567:704   */\n    tag_92:\n        /* \"#utility.yul\":612:617   */\n      0x00\n        /* \"#utility.yul\":650:656   */\n      dup2\n        /* \"#utility.yul\":637:657   */\n      calldataload\n        /* \"#utility.yul\":628:657   */\n      swap1\n      pop\n        /* \"#utility.yul\":666:698   */\n      tag_158\n        /* \"#utility.yul\":692:697   */\n      dup2\n        /* \"#utility.yul\":666:698   */\n      tag_91\n      jump\t// in\n    tag_158:\n        /* \"#utility.yul\":567:704   */\n      swap3\n      swap2\n      pop\n      pop\n      jump\t// out\n        /* \"#utility.yul\":710:1037   */\n    tag_8:\n        /* \"#utility.yul\":768:774   */\n      0x00\n        /* \"#utility.yul\":817:819   */\n      0x20\n        /* \"#utility.yul\":805:814   */\n      dup3\n        /* \"#utility.yul\":796:803   */\n      dup5\n        /* \"#utility.yul\":792:815   */\n      sub\n        /* \"#utility.yul\":788:820   */\n      slt\n        /* \"#utility.yul\":785:904   */\n      iszero\n      tag_160\n      jumpi\n        /* \"#utility.yul\":823:902   */\n      tag_161\n      tag_88\n      jump\t// in\n    tag_161:\n        /* \"#utility.yul\":785:904   */\n    tag_160:\n        /* \"#utility.yul\":943:944   */\n      0x00\n        /* \"#utility.yul\":968:1020   */\n      tag_162\n        /* \"#utility.yul\":1012:1019   */\n      dup5\n        /* \"#utility.yul\":1003:1009   */\n      dup3\n        /* \"#utility.yul\":992:1001   */\n      dup6\n        /* \"#utility.yul\":988:1010   */\n      add\n        /* \"#utility.yul\":968:1020   */\n      tag_92\n      jump\t// in\n    tag_162:\n        /* \"#utility.yul\":958:1020   */\n      swap2\n      pop\n        /* \"#utility.yul\":914:1030   */\n      pop\n        /* \"#utility.yul\":710:1037   */\n      swap3\n      swap2\n      pop\n      pop\n      jump\t// out\n        /* \"#utility.yul\":1043:1120   */\n    tag_93:\n        /* \"#utility.yul\":1080:1087   */\n      0x00\n        /* \"#utility.yul\":1109:1114   */\n      dup2\n        /* \"#utility.yul\":1098:1114   */\n      swap1\n      pop\n        /* \"#utility.yul\":1043:1120   */\n      swap2\n      swap1\n      pop\n      jump\t// out\n        /* \"#utility.yul\":1126:1244   */\n    tag_94:\n        /* \"#utility.yul\":1213:1237   */\n      tag_165\n        /* \"#utility.yul\":1231:1236   */\n      dup2\n        /* \"#utility.yul\":1213:1237   */\n      tag_93\n      jump\t// in\n    tag_165:\n        /* \"#utility.yul\":1208:1211   */\n      dup3\n        /* \"#utility.yul\":1201:1238   */\n      mstore\n        /* \"#utility.yul\":1126:1244   */\n      pop\n      pop\n      jump\t// out\n        /* \"#utility.yul\":1250:1349   */\n    tag_95:\n        /* \"#utility.yul\":1302:1308   */\n      0x00\n        /* \"#utility.yul\":1336:1341   */\n      dup2\n        /* \"#utility.yul\":1330:1342   */\n      mload\n        /* \"#utility.yul\":1320:1342   */\n      swap1\n      pop\n        /* \"#utility.yul\":1250:1349   */\n      swap2\n      swap1\n      pop\n      jump\t// out\n        /* \"#utility.yul\":1355:1524   */\n    tag_96:\n        /* \"#utility.yul\":1439:1450   */\n      0x00\n        /* \"#utility.yul\":1473:1479   */\n      dup3\n        /* \"#utility.yul\":1468:1471   */\n      dup3\n        /* \"#utility.yul\":1461:1480   */\n      mstore\n        /* \"#utility.yul\":1513:1517   */\n      0x20\n        /* \"#utility.yul\":1508:1511   */\n      dup3\n        /* \"#utility.yul\":1504:1518   */\n      add\n        /* \"#utility.yul\":1489:1518   */\n      swap1\n      pop\n        /* \"#utility.yul\":1355:1524   */\n      swap3\n      swap2\n      pop\n      pop\n      jump\t// out\n        /* \"#utility.yul\":1530:1776   */\n    tag_97:\n        /* \"#utility.yul\":1611:1612   */\n      0x00\n        /* \"#utility.yul\":1621:1734   */\n    tag_169:\n        /* \"#utility.yul\":1635:1641   */\n      dup4\n        /* \"#utility.yul\":1632:1633   */\n      dup2\n        /* \"#utility.yul\":1629:1642   */\n      lt\n        /* \"#utility.yul\":1621:1734   */\n      iszero\n      tag_171\n      jumpi\n        /* \"#utility.yul\":1720:1721   */\n      dup1\n        /* \"#utility.yul\":1715:1718   */\n      dup3\n        /* \"#utility.yul\":1711:1722   */\n      add\n        /* \"#utility.yul\":1705:1723   */\n      mload\n        /* \"#utility.yul\":1701:1702   */\n      dup2\n        /* \"#utility.yul\":1696:1699   */\n      dup5\n        /* \"#utility.yul\":1692:1703   */\n      add\n        /* \"#utility.yul\":1685:1724   */\n      mstore\n        /* \"#utility.yul\":1657:1659   */\n      0x20\n        /* \"#utility.yul\":1654:1655   */\n      dup2\n        /* \"#utility.yul\":1650:1660   */\n      add\n        /* \"#utility.yul\":1645:1660   */\n      swap1\n      pop\n        /* \"#utility.yul\":1621:1734   */\n      jump(tag_169)\n    tag_171:\n        /* \"#utility.yul\":1768:1769   */\n      0x00\n        /* \"#utility.yul\":1759:1765   */\n      dup5\n        /* \"#utility.yul\":1754:1757   */\n      dup5\n        /* \"#utility.yul\":1750:1766   */\n      add\n        /* \"#utility.yul\":1743:1770   */\n      mstore\n        /* \"#utility.yul\":1592:1776   */\n      pop\n        /* \"#utility.yul\":1530:1776   */\n      pop\n      pop\n      pop\n      jump\t// out\n        /* \"#utility.yul\":1782:1884   */\n    tag_98:\n        /* \"#utility.yul\":1823:1829   */\n      0x00\n        /* \"#utility.yul\":1874:1876   */\n      0x1f\n        /* \"#utility.yul\":1870:1877   */\n      not\n        /* \"#utility.yul\":1865:1867   */\n      0x1f\n        /* \"#utility.yul\":1858:1863   */\n      dup4\n        /* \"#utility.yul\":1854:1868   */\n      add\n        /* \"#utility.yul\":1850:1878   */\n      and\n        /* \"#utility.yul\":1840:1878   */\n      swap1\n      pop\n        /* \"#utility.yul\":1782:1884   */\n      swap2\n      swap1\n      pop\n      jump\t// out\n        /* \"#utility.yul\":1890:2267   */\n    tag_99:\n        /* \"#utility.yul\":1978:1981   */\n      0x00\n        /* \"#utility.yul\":2006:2045   */\n      tag_174\n        /* \"#utility.yul\":2039:2044   */\n      dup3\n        /* \"#utility.yul\":2006:2045   */\n      tag_95\n      jump\t// in\n    tag_174:\n        /* \"#utility.yul\":2061:2132   */\n      tag_175\n        /* \"#utility.yul\":2125:2131   */\n      dup2\n        /* \"#utility.yul\":2120:2123   */\n      dup6\n        /* \"#utility.yul\":2061:2132   */\n      tag_96\n      jump\t// in\n    tag_175:\n        /* \"#utility.yul\":2054:2132   */\n      swap4\n      pop\n        /* \"#utility.yul\":2141:2206   */\n      tag_176\n        /* \"#utility.yul\":2199:2205   */\n      dup2\n        /* \"#utility.yul\":2194:2197   */\n      dup6\n        /* \"#utility.yul\":2187:2191   */\n      0x20\n        /* \"#utility.yul\":2180:2185   */\n      dup7\n        /* \"#utility.yul\":2176:2192   */\n      add\n        /* \"#utility.yul\":2141:2206   */\n      tag_97\n      jump\t// in\n    tag_176:\n        /* \"#utility.yul\":2231:2260   */\n      tag_177\n        /* \"#utility.yul\":2253:2259   */\n      dup2\n        /* \"#utility.yul\":2231:2260   */\n      tag_98\n      jump\t// in\n    tag_177:\n        /* \"#utility.yul\":2226:2229   */\n      dup5\n        /* \"#utility.yul\":2222:2261   */\n      add\n        /* \"#utility.yul\":2215:2261   */\n      swap2\n      pop\n        /* \"#utility.yul\":1982:2267   */\n      pop\n        /* \"#utility.yul\":1890:2267   */\n      swap3\n      swap2\n      pop\n      pop\n      jump\t// out\n        /* \"#utility.yul\":2273:2386   */\n    tag_100:\n        /* \"#utility.yul\":2339:2345   */\n      0x00\n        /* \"#utility.yul\":2373:2378   */\n      dup2\n        /* \"#utility.yul\":2367:2379   */\n      mload\n        /* \"#utility.yul\":2357:2379   */\n      swap1\n      pop\n        /* \"#utility.yul\":2273:2386   */\n      swap2\n      swap1\n      pop\n      jump\t// out\n        /* \"#utility.yul\":2392:2575   */\n    tag_101:\n        /* \"#utility.yul\":2490:2501   */\n      0x00\n        /* \"#utility.yul\":2524:2530   */\n      dup3\n        /* \"#utility.yul\":2519:2522   */\n      dup3\n        /* \"#utility.yul\":2512:2531   */\n      mstore\n        /* \"#utility.yul\":2564:2568   */\n      0x20\n        /* \"#utility.yul\":2559:2562   */\n      dup3\n        /* \"#utility.yul\":2555:2569   */\n      add\n        /* \"#utility.yul\":2540:2569   */\n      swap1\n      pop\n        /* \"#utility.yul\":2392:2575   */\n      swap3\n      swap2\n      pop\n      pop\n      jump\t// out\n        /* \"#utility.yul\":2581:2712   */\n    tag_102:\n        /* \"#utility.yul\":2647:2651   */\n      0x00\n        /* \"#utility.yul\":2670:2673   */\n      dup2\n        /* \"#utility.yul\":2662:2673   */\n      swap1\n      pop\n        /* \"#utility.yul\":2700:2704   */\n      0x20\n        /* \"#utility.yul\":2695:2698   */\n      dup3\n        /* \"#utility.yul\":2691:2705   */\n      add\n        /* \"#utility.yul\":2683:2705   */\n      swap1\n      pop\n        /* \"#utility.yul\":2581:2712   */\n      swap2\n      swap1\n      pop\n      jump\t// out\n        /* \"#utility.yul\":2718:2823   */\n    tag_103:\n        /* \"#utility.yul\":2793:2816   */\n      tag_182\n        /* \"#utility.yul\":2810:2815   */\n      dup2\n        /* \"#utility.yul\":2793:2816   */\n      tag_90\n      jump\t// in\n    tag_182:\n        /* \"#utility.yul\":2788:2791   */\n      dup3\n        /* \"#utility.yul\":2781:2817   */\n      mstore\n        /* \"#utility.yul\":2718:2823   */\n      pop\n      pop\n      jump\t// out\n        /* \"#utility.yul\":2829:3004   */\n    tag_104:\n        /* \"#utility.yul\":2896:2906   */\n      0x00\n        /* \"#utility.yul\":2917:2961   */\n      tag_184\n        /* \"#utility.yul\":2957:2960   */\n      dup4\n        /* \"#utility.yul\":2949:2955   */\n      dup4\n        /* \"#utility.yul\":2917:2961   */\n      tag_103\n      jump\t// in\n    tag_184:\n        /* \"#utility.yul\":2993:2997   */\n      0x20\n        /* \"#utility.yul\":2988:2991   */\n      dup4\n        /* \"#utility.yul\":2984:2998   */\n      add\n        /* \"#utility.yul\":2970:2998   */\n      swap1\n      pop\n        /* \"#utility.yul\":2829:3004   */\n      swap3\n      swap2\n      pop\n      pop\n      jump\t// out\n        /* \"#utility.yul\":3010:3122   */\n    tag_105:\n        /* \"#utility.yul\":3079:3083   */\n      0x00\n        /* \"#utility.yul\":3111:3115   */\n      0x20\n        /* \"#utility.yul\":3106:3109   */\n      dup3\n        /* \"#utility.yul\":3102:3116   */\n      add\n        /* \"#utility.yul\":3094:3116   */\n      swap1\n      pop\n        /* \"#utility.yul\":3010:3122   */\n      swap2\n      swap1\n      pop\n      jump\t// out\n        /* \"#utility.yul\":3156:3880   */\n    tag_106:\n        /* \"#utility.yul\":3273:3276   */\n      0x00\n        /* \"#utility.yul\":3302:3355   */\n      tag_187\n        /* \"#utility.yul\":3349:3354   */\n      dup3\n        /* \"#utility.yul\":3302:3355   */\n      tag_100\n      jump\t// in\n    tag_187:\n        /* \"#utility.yul\":3371:3456   */\n      tag_188\n        /* \"#utility.yul\":3449:3455   */\n      dup2\n        /* \"#utility.yul\":3444:3447   */\n      dup6\n        /* \"#utility.yul\":3371:3456   */\n      tag_101\n      jump\t// in\n    tag_188:\n        /* \"#utility.yul\":3364:3456   */\n      swap4\n      pop\n        /* \"#utility.yul\":3480:3535   */\n      tag_189\n        /* \"#utility.yul\":3529:3534   */\n      dup4\n        /* \"#utility.yul\":3480:3535   */\n      tag_102\n      jump\t// in\n    tag_189:\n        /* \"#utility.yul\":3558:3565   */\n      dup1\n        /* \"#utility.yul\":3589:3590   */\n      0x00\n        /* \"#utility.yul\":3574:3855   */\n    tag_190:\n        /* \"#utility.yul\":3599:3605   */\n      dup4\n        /* \"#utility.yul\":3596:3597   */\n      dup2\n        /* \"#utility.yul\":3593:3606   */\n      lt\n        /* \"#utility.yul\":3574:3855   */\n      iszero\n      tag_192\n      jumpi\n        /* \"#utility.yul\":3675:3681   */\n      dup2\n        /* \"#utility.yul\":3669:3682   */\n      mload\n        /* \"#utility.yul\":3702:3763   */\n      tag_193\n        /* \"#utility.yul\":3759:3762   */\n      dup9\n        /* \"#utility.yul\":3744:3757   */\n      dup3\n        /* \"#utility.yul\":3702:3763   */\n      tag_104\n      jump\t// in\n    tag_193:\n        /* \"#utility.yul\":3695:3763   */\n      swap8\n      pop\n        /* \"#utility.yul\":3786:3845   */\n      tag_194\n        /* \"#utility.yul\":3838:3844   */\n      dup4\n        /* \"#utility.yul\":3786:3845   */\n      tag_105\n      jump\t// in\n    tag_194:\n        /* \"#utility.yul\":3776:3845   */\n      swap3\n      pop\n        /* \"#utility.yul\":3634:3855   */\n      pop\n        /* \"#utility.yul\":3621:3622   */\n      0x01\n        /* \"#utility.yul\":3618:3619   */\n      dup2\n        /* \"#utility.yul\":3614:3623   */\n      add\n        /* \"#utility.yul\":3609:3623   */\n      swap1\n      pop\n        /* \"#utility.yul\":3574:3855   */\n      jump(tag_190)\n    tag_192:\n        /* \"#utility.yul\":3578:3592   */\n      pop\n        /* \"#utility.yul\":3871:3874   */\n      dup6\n        /* \"#utility.yul\":3864:3874   */\n      swap4\n      pop\n        /* \"#utility.yul\":3278:3880   */\n      pop\n      pop\n      pop\n        /* \"#utility.yul\":3156:3880   */\n      swap3\n      swap2\n      pop\n      pop\n      jump\t// out\n        /* \"#utility.yul\":3886:4000   */\n    tag_107:\n        /* \"#utility.yul\":3953:3959   */\n      0x00\n        /* \"#utility.yul\":3987:3992   */\n      dup2\n        /* \"#utility.yul\":3981:3993   */\n      mload\n        /* \"#utility.yul\":3971:3993   */\n      swap1\n      pop\n        /* \"#utility.yul\":3886:4000   */\n      swap2\n      swap1\n      pop\n      jump\t// out\n        /* \"#utility.yul\":4006:4190   */\n    tag_108:\n        /* \"#utility.yul\":4105:4116   */\n      0x00\n        /* \"#utility.yul\":4139:4145   */\n      dup3\n        /* \"#utility.yul\":4134:4137   */\n      dup3\n        /* \"#utility.yul\":4127:4146   */\n      mstore\n        /* \"#utility.yul\":4179:4183   */\n      0x20\n        /* \"#utility.yul\":4174:4177   */\n      dup3\n        /* \"#utility.yul\":4170:4184   */\n      add\n        /* \"#utility.yul\":4155:4184   */\n      swap1\n      pop\n        /* \"#utility.yul\":4006:4190   */\n      swap3\n      swap2\n      pop\n      pop\n      jump\t// out\n        /* \"#utility.yul\":4196:4328   */\n    tag_109:\n        /* \"#utility.yul\":4263:4267   */\n      0x00\n        /* \"#utility.yul\":4286:4289   */\n      dup2\n        /* \"#utility.yul\":4278:4289   */\n      swap1\n      pop\n        /* \"#utility.yul\":4316:4320   */\n      0x20\n        /* \"#utility.yul\":4311:4314   */\n      dup3\n        /* \"#utility.yul\":4307:4321   */\n      add\n        /* \"#utility.yul\":4299:4321   */\n      swap1\n      pop\n        /* \"#utility.yul\":4196:4328   */\n      swap2\n      swap1\n      pop\n      jump\t// out\n        /* \"#utility.yul\":4334:4411   */\n    tag_110:\n        /* \"#utility.yul\":4371:4378   */\n      0x00\n        /* \"#utility.yul\":4400:4405   */\n      dup2\n        /* \"#utility.yul\":4389:4405   */\n      swap1\n      pop\n        /* \"#utility.yul\":4334:4411   */\n      swap2\n      swap1\n      pop\n      jump\t// out\n        /* \"#utility.yul\":4417:4525   */\n    tag_111:\n        /* \"#utility.yul\":4494:4518   */\n      tag_200\n        /* \"#utility.yul\":4512:4517   */\n      dup2\n        /* \"#utility.yul\":4494:4518   */\n      tag_110\n      jump\t// in\n    tag_200:\n        /* \"#utility.yul\":4489:4492   */\n      dup3\n        /* \"#utility.yul\":4482:4519   */\n      mstore\n        /* \"#utility.yul\":4417:4525   */\n      pop\n      pop\n      jump\t// out\n        /* \"#utility.yul\":4531:4710   */\n    tag_112:\n        /* \"#utility.yul\":4600:4610   */\n      0x00\n        /* \"#utility.yul\":4621:4667   */\n      tag_202\n        /* \"#utility.yul\":4663:4666   */\n      dup4\n        /* \"#utility.yul\":4655:4661   */\n      dup4\n        /* \"#utility.yul\":4621:4667   */\n      tag_111\n      jump\t// in\n    tag_202:\n        /* \"#utility.yul\":4699:4703   */\n      0x20\n        /* \"#utility.yul\":4694:4697   */\n      dup4\n        /* \"#utility.yul\":4690:4704   */\n      add\n        /* \"#utility.yul\":4676:4704   */\n      swap1\n      pop\n        /* \"#utility.yul\":4531:4710   */\n      swap3\n      swap2\n      pop\n      pop\n      jump\t// out\n        /* \"#utility.yul\":4716:4829   */\n    tag_113:\n        /* \"#utility.yul\":4786:4790   */\n      0x00\n        /* \"#utility.yul\":4818:4822   */\n      0x20\n        /* \"#utility.yul\":4813:4816   */\n      dup3\n        /* \"#utility.yul\":4809:4823   */\n      add\n        /* \"#utility.yul\":4801:4823   */\n      swap1\n      pop\n        /* \"#utility.yul\":4716:4829   */\n      swap2\n      swap1\n      pop\n      jump\t// out\n        /* \"#utility.yul\":4865:5597   */\n    tag_114:\n        /* \"#utility.yul\":4984:4987   */\n      0x00\n        /* \"#utility.yul\":5013:5067   */\n      tag_205\n        /* \"#utility.yul\":5061:5066   */\n      dup3\n        /* \"#utility.yul\":5013:5067   */\n      tag_107\n      jump\t// in\n    tag_205:\n        /* \"#utility.yul\":5083:5169   */\n      tag_206\n        /* \"#utility.yul\":5162:5168   */\n      dup2\n        /* \"#utility.yul\":5157:5160   */\n      dup6\n        /* \"#utility.yul\":5083:5169   */\n      tag_108\n      jump\t// in\n    tag_206:\n        /* \"#utility.yul\":5076:5169   */\n      swap4\n      pop\n        /* \"#utility.yul\":5193:5249   */\n      tag_207\n        /* \"#utility.yul\":5243:5248   */\n      dup4\n        /* \"#utility.yul\":5193:5249   */\n      tag_109\n      jump\t// in\n    tag_207:\n        /* \"#utility.yul\":5272:5279   */\n      dup1\n        /* \"#utility.yul\":5303:5304   */\n      0x00\n        /* \"#utility.yul\":5288:5572   */\n    tag_208:\n        /* \"#utility.yul\":5313:5319   */\n      dup4\n        /* \"#utility.yul\":5310:5311   */\n      dup2\n        /* \"#utility.yul\":5307:5320   */\n      lt\n        /* \"#utility.yul\":5288:5572   */\n      iszero\n      tag_210\n      jumpi\n        /* \"#utility.yul\":5389:5395   */\n      dup2\n        /* \"#utility.yul\":5383:5396   */\n      mload\n        /* \"#utility.yul\":5416:5479   */\n      tag_211\n        /* \"#utility.yul\":5475:5478   */\n      dup9\n        /* \"#utility.yul\":5460:5473   */\n      dup3\n        /* \"#utility.yul\":5416:5479   */\n      tag_112\n      jump\t// in\n    tag_211:\n        /* \"#utility.yul\":5409:5479   */\n      swap8\n      pop\n        /* \"#utility.yul\":5502:5562   */\n      tag_212\n        /* \"#utility.yul\":5555:5561   */\n      dup4\n        /* \"#utility.yul\":5502:5562   */\n      tag_113\n      jump\t// in\n    tag_212:\n        /* \"#utility.yul\":5492:5562   */\n      swap3\n      pop\n        /* \"#utility.yul\":5348:5572   */\n      pop\n        /* \"#utility.yul\":5335:5336   */\n      0x01\n        /* \"#utility.yul\":5332:5333   */\n      dup2\n        /* \"#utility.yul\":5328:5337   */\n      add\n        /* \"#utility.yul\":5323:5337   */\n      swap1\n      pop\n        /* \"#utility.yul\":5288:5572   */\n      jump(tag_208)\n    tag_210:\n        /* \"#utility.yul\":5292:5306   */\n      pop\n        /* \"#utility.yul\":5588:5591   */\n      dup6\n        /* \"#utility.yul\":5581:5591   */\n      swap4\n      pop\n        /* \"#utility.yul\":4989:5597   */\n      pop\n      pop\n      pop\n        /* \"#utility.yul\":4865:5597   */\n      swap3\n      swap2\n      pop\n      pop\n      jump\t// out\n        /* \"#utility.yul\":5603:6747   */\n    tag_11:\n        /* \"#utility.yul\":5946:5950   */\n      0x00\n        /* \"#utility.yul\":5984:5987   */\n      0xa0\n        /* \"#utility.yul\":5973:5982   */\n      dup3\n        /* \"#utility.yul\":5969:5988   */\n      add\n        /* \"#utility.yul\":5961:5988   */\n      swap1\n      pop\n        /* \"#utility.yul\":5998:6069   */\n      tag_214\n        /* \"#utility.yul\":6066:6067   */\n      0x00\n        /* \"#utility.yul\":6055:6064   */\n      dup4\n        /* \"#utility.yul\":6051:6068   */\n      add\n        /* \"#utility.yul\":6042:6048   */\n      dup9\n        /* \"#utility.yul\":5998:6069   */\n      tag_94\n      jump\t// in\n    tag_214:\n        /* \"#utility.yul\":6116:6125   */\n      dup2\n        /* \"#utility.yul\":6110:6114   */\n      dup2\n        /* \"#utility.yul\":6106:6126   */\n      sub\n        /* \"#utility.yul\":6101:6103   */\n      0x20\n        /* \"#utility.yul\":6090:6099   */\n      dup4\n        /* \"#utility.yul\":6086:6104   */\n      add\n        /* \"#utility.yul\":6079:6127   */\n      mstore\n        /* \"#utility.yul\":6144:6222   */\n      tag_215\n        /* \"#utility.yul\":6217:6221   */\n      dup2\n        /* \"#utility.yul\":6208:6214   */\n      dup8\n        /* \"#utility.yul\":6144:6222   */\n      tag_99\n      jump\t// in\n    tag_215:\n        /* \"#utility.yul\":6136:6222   */\n      swap1\n      pop\n        /* \"#utility.yul\":6269:6278   */\n      dup2\n        /* \"#utility.yul\":6263:6267   */\n      dup2\n        /* \"#utility.yul\":6259:6279   */\n      sub\n        /* \"#utility.yul\":6254:6256   */\n      0x40\n        /* \"#utility.yul\":6243:6252   */\n      dup4\n        /* \"#utility.yul\":6239:6257   */\n      add\n        /* \"#utility.yul\":6232:6280   */\n      mstore\n        /* \"#utility.yul\":6297:6375   */\n      tag_216\n        /* \"#utility.yul\":6370:6374   */\n      dup2\n        /* \"#utility.yul\":6361:6367   */\n      dup7\n        /* \"#utility.yul\":6297:6375   */\n      tag_99\n      jump\t// in\n    tag_216:\n        /* \"#utility.yul\":6289:6375   */\n      swap1\n      pop\n        /* \"#utility.yul\":6422:6431   */\n      dup2\n        /* \"#utility.yul\":6416:6420   */\n      dup2\n        /* \"#utility.yul\":6412:6432   */\n      sub\n        /* \"#utility.yul\":6407:6409   */\n      0x60\n        /* \"#utility.yul\":6396:6405   */\n      dup4\n        /* \"#utility.yul\":6392:6410   */\n      add\n        /* \"#utility.yul\":6385:6433   */\n      mstore\n        /* \"#utility.yul\":6450:6556   */\n      tag_217\n        /* \"#utility.yul\":6551:6555   */\n      dup2\n        /* \"#utility.yul\":6542:6548   */\n      dup6\n        /* \"#utility.yul\":6450:6556   */\n      tag_106\n      jump\t// in\n    tag_217:\n        /* \"#utility.yul\":6442:6556   */\n      swap1\n      pop\n        /* \"#utility.yul\":6604:6613   */\n      dup2\n        /* \"#utility.yul\":6598:6602   */\n      dup2\n        /* \"#utility.yul\":6594:6614   */\n      sub\n        /* \"#utility.yul\":6588:6591   */\n      0x80\n        /* \"#utility.yul\":6577:6586   */\n      dup4\n        /* \"#utility.yul\":6573:6592   */\n      add\n        /* \"#utility.yul\":6566:6615   */\n      mstore\n        /* \"#utility.yul\":6632:6740   */\n      tag_218\n        /* \"#utility.yul\":6735:6739   */\n      dup2\n        /* \"#utility.yul\":6726:6732   */\n      dup5\n        /* \"#utility.yul\":6632:6740   */\n      tag_114\n      jump\t// in\n    tag_218:\n        /* \"#utility.yul\":6624:6740   */\n      swap1\n      pop\n        /* \"#utility.yul\":5603:6747   */\n      swap7\n      swap6\n      pop\n      pop\n      pop\n      pop\n      pop\n      pop\n      jump\t// out\n        /* \"#utility.yul\":6753:7223   */\n    tag_14:\n        /* \"#utility.yul\":6819:6825   */\n      0x00\n        /* \"#utility.yul\":6827:6833   */\n      dup1\n        /* \"#utility.yul\":6876:6878   */\n      0x40\n        /* \"#utility.yul\":6864:6873   */\n      dup4\n        /* \"#utility.yul\":6855:6862   */\n      dup6\n        /* \"#utility.yul\":6851:6874   */\n      sub\n        /* \"#utility.yul\":6847:6879   */\n      slt\n        /* \"#utility.yul\":6844:6963   */\n      iszero\n      tag_220\n      jumpi\n        /* \"#utility.yul\":6882:6961   */\n      tag_221\n      tag_88\n      jump\t// in\n    tag_221:\n        /* \"#utility.yul\":6844:6963   */\n    tag_220:\n        /* \"#utility.yul\":7002:7003   */\n      0x00\n        /* \"#utility.yul\":7027:7079   */\n      tag_222\n        /* \"#utility.yul\":7071:7078   */\n      dup6\n        /* \"#utility.yul\":7062:7068   */\n      dup3\n        /* \"#utility.yul\":7051:7060   */\n      dup7\n        /* \"#utility.yul\":7047:7069   */\n      add\n        /* \"#utility.yul\":7027:7079   */\n      tag_92\n      jump\t// in\n    tag_222:\n        /* \"#utility.yul\":7017:7079   */\n      swap3\n      pop\n        /* \"#utility.yul\":6973:7089   */\n      pop\n        /* \"#utility.yul\":7128:7130   */\n      0x20\n        /* \"#utility.yul\":7154:7206   */\n      tag_223\n        /* \"#utility.yul\":7198:7205   */\n      dup6\n        /* \"#utility.yul\":7189:7195   */\n      dup3\n        /* \"#utility.yul\":7178:7187   */\n      dup7\n        /* \"#utility.yul\":7174:7196   */\n      add\n        /* \"#utility.yul\":7154:7206   */\n      tag_92\n      jump\t// in\n    tag_223:\n        /* \"#utility.yul\":7144:7206   */\n      swap2\n      pop\n        /* \"#utility.yul\":7099:7216   */\n      pop\n        /* \"#utility.yul\":6753:7223   */\n      swap3\n      pop\n      swap3\n      swap1\n      pop\n      jump\t// out\n        /* \"#utility.yul\":7229:7346   */\n    tag_115:\n        /* \"#utility.yul\":7338:7339   */\n      0x00\n        /* \"#utility.yul\":7335:7336   */\n      dup1\n        /* \"#utility.yul\":7328:7340   */\n      revert\n        /* \"#utility.yul\":7352:7469   */\n    tag_116:\n        /* \"#utility.yul\":7461:7462   */\n      0x00\n        /* \"#utility.yul\":7458:7459   */\n      dup1\n        /* \"#utility.yul\":7451:7463   */\n      revert\n        /* \"#utility.yul\":7475:7655   */\n    tag_62:\n        /* \"#utility.yul\":7523:7600   */\n      0x4e487b7100000000000000000000000000000000000000000000000000000000\n        /* \"#utility.yul\":7520:7521   */\n      0x00\n        /* \"#utility.yul\":7513:7601   */\n      mstore\n        /* \"#utility.yul\":7620:7624   */\n      0x41\n        /* \"#utility.yul\":7617:7618   */\n      0x04\n        /* \"#utility.yul\":7610:7625   */\n      mstore\n        /* \"#utility.yul\":7644:7648   */\n      0x24\n        /* \"#utility.yul\":7641:7642   */\n      0x00\n        /* \"#utility.yul\":7634:7649   */\n      revert\n        /* \"#utility.yul\":7661:7942   */\n    tag_117:\n        /* \"#utility.yul\":7744:7771   */\n      tag_228\n        /* \"#utility.yul\":7766:7770   */\n      dup3\n        /* \"#utility.yul\":7744:7771   */\n      tag_98\n      jump\t// in\n    tag_228:\n        /* \"#utility.yul\":7736:7742   */\n      dup2\n        /* \"#utility.yul\":7732:7772   */\n      add\n        /* \"#utility.yul\":7874:7880   */\n      dup2\n        /* \"#utility.yul\":7862:7872   */\n      dup2\n        /* \"#utility.yul\":7859:7881   */\n      lt\n        /* \"#utility.yul\":7838:7856   */\n      0xffffffffffffffff\n        /* \"#utility.yul\":7826:7836   */\n      dup3\n        /* \"#utility.yul\":7823:7857   */\n      gt\n        /* \"#utility.yul\":7820:7882   */\n      or\n        /* \"#utility.yul\":7817:7905   */\n      iszero\n      tag_229\n      jumpi\n        /* \"#utility.yul\":7885:7903   */\n      tag_230\n      tag_62\n      jump\t// in\n    tag_230:\n        /* \"#utility.yul\":7817:7905   */\n    tag_229:\n        /* \"#utility.yul\":7925:7935   */\n      dup1\n        /* \"#utility.yul\":7921:7923   */\n      0x40\n        /* \"#utility.yul\":7914:7936   */\n      mstore\n        /* \"#utility.yul\":7704:7942   */\n      pop\n        /* \"#utility.yul\":7661:7942   */\n      pop\n      pop\n      jump\t// out\n        /* \"#utility.yul\":7948:8077   */\n    tag_118:\n        /* \"#utility.yul\":7982:7988   */\n      0x00\n        /* \"#utility.yul\":8009:8029   */\n      tag_232\n      tag_87\n      jump\t// in\n    tag_232:\n        /* \"#utility.yul\":7999:8029   */\n      swap1\n      pop\n        /* \"#utility.yul\":8038:8071   */\n      tag_233\n        /* \"#utility.yul\":8066:8070   */\n      dup3\n        /* \"#utility.yul\":8058:8064   */\n      dup3\n        /* \"#utility.yul\":8038:8071   */\n      tag_117\n      jump\t// in\n    tag_233:\n        /* \"#utility.yul\":7948:8077   */\n      swap2\n      swap1\n      pop\n      jump\t// out\n        /* \"#utility.yul\":8083:8391   */\n    tag_119:\n        /* \"#utility.yul\":8145:8149   */\n      0x00\n        /* \"#utility.yul\":8235:8253   */\n      0xffffffffffffffff\n        /* \"#utility.yul\":8227:8233   */\n      dup3\n        /* \"#utility.yul\":8224:8254   */\n      gt\n        /* \"#utility.yul\":8221:8277   */\n      iszero\n      tag_235\n      jumpi\n        /* \"#utility.yul\":8257:8275   */\n      tag_236\n      tag_62\n      jump\t// in\n    tag_236:\n        /* \"#utility.yul\":8221:8277   */\n    tag_235:\n        /* \"#utility.yul\":8295:8324   */\n      tag_237\n        /* \"#utility.yul\":8317:8323   */\n      dup3\n        /* \"#utility.yul\":8295:8324   */\n      tag_98\n      jump\t// in\n    tag_237:\n        /* \"#utility.yul\":8287:8324   */\n      swap1\n      pop\n        /* \"#utility.yul\":8379:8383   */\n      0x20\n        /* \"#utility.yul\":8373:8377   */\n      dup2\n        /* \"#utility.yul\":8369:8384   */\n      add\n        /* \"#utility.yul\":8361:8384   */\n      swap1\n      pop\n        /* \"#utility.yul\":8083:8391   */\n      swap2\n      swap1\n      pop\n      jump\t// out\n        /* \"#utility.yul\":8397:8543   */\n    tag_120:\n        /* \"#utility.yul\":8494:8500   */\n      dup3\n        /* \"#utility.yul\":8489:8492   */\n      dup2\n        /* \"#utility.yul\":8484:8487   */\n      dup4\n        /* \"#utility.yul\":8471:8501   */\n      calldatacopy\n        /* \"#utility.yul\":8535:8536   */\n      0x00\n        /* \"#utility.yul\":8526:8532   */\n      dup4\n        /* \"#utility.yul\":8521:8524   */\n      dup4\n        /* \"#utility.yul\":8517:8533   */\n      add\n        /* \"#utility.yul\":8510:8537   */\n      mstore\n        /* \"#utility.yul\":8397:8543   */\n      pop\n      pop\n      pop\n      jump\t// out\n        /* \"#utility.yul\":8549:8974   */\n    tag_121:\n        /* \"#utility.yul\":8627:8632   */\n      0x00\n        /* \"#utility.yul\":8652:8718   */\n      tag_240\n        /* \"#utility.yul\":8668:8717   */\n      tag_241\n        /* \"#utility.yul\":8710:8716   */\n      dup5\n        /* \"#utility.yul\":8668:8717   */\n      tag_119\n      jump\t// in\n    tag_241:\n        /* \"#utility.yul\":8652:8718   */\n      tag_118\n      jump\t// in\n    tag_240:\n        /* \"#utility.yul\":8643:8718   */\n      swap1\n      pop\n        /* \"#utility.yul\":8741:8747   */\n      dup3\n        /* \"#utility.yul\":8734:8739   */\n      dup2\n        /* \"#utility.yul\":8727:8748   */\n      mstore\n        /* \"#utility.yul\":8779:8783   */\n      0x20\n        /* \"#utility.yul\":8772:8777   */\n      dup2\n        /* \"#utility.yul\":8768:8784   */\n      add\n        /* \"#utility.yul\":8817:8820   */\n      dup5\n        /* \"#utility.yul\":8808:8814   */\n      dup5\n        /* \"#utility.yul\":8803:8806   */\n      dup5\n        /* \"#utility.yul\":8799:8815   */\n      add\n        /* \"#utility.yul\":8796:8821   */\n      gt\n        /* \"#utility.yul\":8793:8905   */\n      iszero\n      tag_242\n      jumpi\n        /* \"#utility.yul\":8824:8903   */\n      tag_243\n      tag_116\n      jump\t// in\n    tag_243:\n        /* \"#utility.yul\":8793:8905   */\n    tag_242:\n        /* \"#utility.yul\":8914:8968   */\n      tag_244\n        /* \"#utility.yul\":8961:8967   */\n      dup5\n        /* \"#utility.yul\":8956:8959   */\n      dup3\n        /* \"#utility.yul\":8951:8954   */\n      dup6\n        /* \"#utility.yul\":8914:8968   */\n      tag_120\n      jump\t// in\n    tag_244:\n        /* \"#utility.yul\":8633:8974   */\n      pop\n        /* \"#utility.yul\":8549:8974   */\n      swap4\n      swap3\n      pop\n      pop\n      pop\n      jump\t// out\n        /* \"#utility.yul\":8994:9334   */\n    tag_122:\n        /* \"#utility.yul\":9050:9055   */\n      0x00\n        /* \"#utility.yul\":9099:9102   */\n      dup3\n        /* \"#utility.yul\":9092:9096   */\n      0x1f\n        /* \"#utility.yul\":9084:9090   */\n      dup4\n        /* \"#utility.yul\":9080:9097   */\n      add\n        /* \"#utility.yul\":9076:9103   */\n      slt\n        /* \"#utility.yul\":9066:9188   */\n      tag_246\n      jumpi\n        /* \"#utility.yul\":9107:9186   */\n      tag_247\n      tag_115\n      jump\t// in\n    tag_247:\n        /* \"#utility.yul\":9066:9188   */\n    tag_246:\n        /* \"#utility.yul\":9224:9230   */\n      dup2\n        /* \"#utility.yul\":9211:9231   */\n      calldataload\n        /* \"#utility.yul\":9249:9328   */\n      tag_248\n        /* \"#utility.yul\":9324:9327   */\n      dup5\n        /* \"#utility.yul\":9316:9322   */\n      dup3\n        /* \"#utility.yul\":9309:9313   */\n      0x20\n        /* \"#utility.yul\":9301:9307   */\n      dup7\n        /* \"#utility.yul\":9297:9314   */\n      add\n        /* \"#utility.yul\":9249:9328   */\n      tag_121\n      jump\t// in\n    tag_248:\n        /* \"#utility.yul\":9240:9328   */\n      swap2\n      pop\n        /* \"#utility.yul\":9056:9334   */\n      pop\n        /* \"#utility.yul\":8994:9334   */\n      swap3\n      swap2\n      pop\n      pop\n      jump\t// out\n        /* \"#utility.yul\":9340:9651   */\n    tag_123:\n        /* \"#utility.yul\":9417:9421   */\n      0x00\n        /* \"#utility.yul\":9507:9525   */\n      0xffffffffffffffff\n        /* \"#utility.yul\":9499:9505   */\n      dup3\n        /* \"#utility.yul\":9496:9526   */\n      gt\n        /* \"#utility.yul\":9493:9549   */\n      iszero\n      tag_250\n      jumpi\n        /* \"#utility.yul\":9529:9547   */\n      tag_251\n      tag_62\n      jump\t// in\n    tag_251:\n        /* \"#utility.yul\":9493:9549   */\n    tag_250:\n        /* \"#utility.yul\":9579:9583   */\n      0x20\n        /* \"#utility.yul\":9571:9577   */\n      dup3\n        /* \"#utility.yul\":9567:9584   */\n      mul\n        /* \"#utility.yul\":9559:9584   */\n      swap1\n      pop\n        /* \"#utility.yul\":9639:9643   */\n      0x20\n        /* \"#utility.yul\":9633:9637   */\n      dup2\n        /* \"#utility.yul\":9629:9644   */\n      add\n        /* \"#utility.yul\":9621:9644   */\n      swap1\n      pop\n        /* \"#utility.yul\":9340:9651   */\n      swap2\n      swap1\n      pop\n      jump\t// out\n        /* \"#utility.yul\":9657:9774   */\n    tag_124:\n        /* \"#utility.yul\":9766:9767   */\n      0x00\n        /* \"#utility.yul\":9763:9764   */\n      dup1\n        /* \"#utility.yul\":9756:9768   */\n      revert\n        /* \"#utility.yul\":9780:9902   */\n    tag_125:\n        /* \"#utility.yul\":9853:9877   */\n      tag_254\n        /* \"#utility.yul\":9871:9876   */\n      dup2\n        /* \"#utility.yul\":9853:9877   */\n      tag_110\n      jump\t// in\n    tag_254:\n        /* \"#utility.yul\":9846:9851   */\n      dup2\n        /* \"#utility.yul\":9843:9878   */\n      eq\n        /* \"#utility.yul\":9833:9896   */\n      tag_255\n      jumpi\n        /* \"#utility.yul\":9892:9893   */\n      0x00\n        /* \"#utility.yul\":9889:9890   */\n      dup1\n        /* \"#utility.yul\":9882:9894   */\n      revert\n        /* \"#utility.yul\":9833:9896   */\n    tag_255:\n        /* \"#utility.yul\":9780:9902   */\n      pop\n      jump\t// out\n        /* \"#utility.yul\":9908:10047   */\n    tag_126:\n        /* \"#utility.yul\":9954:9959   */\n      0x00\n        /* \"#utility.yul\":9992:9998   */\n      dup2\n        /* \"#utility.yul\":9979:9999   */\n      calldataload\n        /* \"#utility.yul\":9970:9999   */\n      swap1\n      pop\n        /* \"#utility.yul\":10008:10041   */\n      tag_257\n        /* \"#utility.yul\":10035:10040   */\n      dup2\n        /* \"#utility.yul\":10008:10041   */\n      tag_125\n      jump\t// in\n    tag_257:\n        /* \"#utility.yul\":9908:10047   */\n      swap3\n      swap2\n      pop\n      pop\n      jump\t// out\n        /* \"#utility.yul\":10070:10780   */\n    tag_127:\n        /* \"#utility.yul\":10166:10171   */\n      0x00\n        /* \"#utility.yul\":10191:10272   */\n      tag_259\n        /* \"#utility.yul\":10207:10271   */\n      tag_260\n        /* \"#utility.yul\":10264:10270   */\n      dup5\n        /* \"#utility.yul\":10207:10271   */\n      tag_123\n      jump\t// in\n    tag_260:\n        /* \"#utility.yul\":10191:10272   */\n      tag_118\n      jump\t// in\n    tag_259:\n        /* \"#utility.yul\":10182:10272   */\n      swap1\n      pop\n        /* \"#utility.yul\":10292:10297   */\n      dup1\n        /* \"#utility.yul\":10321:10327   */\n      dup4\n        /* \"#utility.yul\":10314:10319   */\n      dup3\n        /* \"#utility.yul\":10307:10328   */\n      mstore\n        /* \"#utility.yul\":10355:10359   */\n      0x20\n        /* \"#utility.yul\":10348:10353   */\n      dup3\n        /* \"#utility.yul\":10344:10360   */\n      add\n        /* \"#utility.yul\":10337:10360   */\n      swap1\n      pop\n        /* \"#utility.yul\":10408:10412   */\n      0x20\n        /* \"#utility.yul\":10400:10406   */\n      dup5\n        /* \"#utility.yul\":10396:10413   */\n      mul\n        /* \"#utility.yul\":10388:10394   */\n      dup4\n        /* \"#utility.yul\":10384:10414   */\n      add\n        /* \"#utility.yul\":10437:10440   */\n      dup6\n        /* \"#utility.yul\":10429:10435   */\n      dup2\n        /* \"#utility.yul\":10426:10441   */\n      gt\n        /* \"#utility.yul\":10423:10545   */\n      iszero\n      tag_261\n      jumpi\n        /* \"#utility.yul\":10456:10535   */\n      tag_262\n      tag_124\n      jump\t// in\n    tag_262:\n        /* \"#utility.yul\":10423:10545   */\n    tag_261:\n        /* \"#utility.yul\":10571:10577   */\n      dup4\n        /* \"#utility.yul\":10554:10774   */\n    tag_263:\n        /* \"#utility.yul\":10588:10594   */\n      dup2\n        /* \"#utility.yul\":10583:10586   */\n      dup2\n        /* \"#utility.yul\":10580:10595   */\n      lt\n        /* \"#utility.yul\":10554:10774   */\n      iszero\n      tag_265\n      jumpi\n        /* \"#utility.yul\":10663:10666   */\n      dup1\n        /* \"#utility.yul\":10692:10729   */\n      tag_266\n        /* \"#utility.yul\":10725:10728   */\n      dup9\n        /* \"#utility.yul\":10713:10723   */\n      dup3\n        /* \"#utility.yul\":10692:10729   */\n      tag_126\n      jump\t// in\n    tag_266:\n        /* \"#utility.yul\":10687:10690   */\n      dup5\n        /* \"#utility.yul\":10680:10730   */\n      mstore\n        /* \"#utility.yul\":10759:10763   */\n      0x20\n        /* \"#utility.yul\":10754:10757   */\n      dup5\n        /* \"#utility.yul\":10750:10764   */\n      add\n        /* \"#utility.yul\":10743:10764   */\n      swap4\n      pop\n        /* \"#utility.yul\":10630:10774   */\n      pop\n        /* \"#utility.yul\":10614:10618   */\n      0x20\n        /* \"#utility.yul\":10609:10612   */\n      dup2\n        /* \"#utility.yul\":10605:10619   */\n      add\n        /* \"#utility.yul\":10598:10619   */\n      swap1\n      pop\n        /* \"#utility.yul\":10554:10774   */\n      jump(tag_263)\n    tag_265:\n        /* \"#utility.yul\":10558:10579   */\n      pop\n        /* \"#utility.yul\":10172:10780   */\n      pop\n      pop\n        /* \"#utility.yul\":10070:10780   */\n      swap4\n      swap3\n      pop\n      pop\n      pop\n      jump\t// out\n        /* \"#utility.yul\":10803:11173   */\n    tag_128:\n        /* \"#utility.yul\":10874:10879   */\n      0x00\n        /* \"#utility.yul\":10923:10926   */\n      dup3\n        /* \"#utility.yul\":10916:10920   */\n      0x1f\n        /* \"#utility.yul\":10908:10914   */\n      dup4\n        /* \"#utility.yul\":10904:10921   */\n      add\n        /* \"#utility.yul\":10900:10927   */\n      slt\n        /* \"#utility.yul\":10890:11012   */\n      tag_268\n      jumpi\n        /* \"#utility.yul\":10931:11010   */\n      tag_269\n      tag_115\n      jump\t// in\n    tag_269:\n        /* \"#utility.yul\":10890:11012   */\n    tag_268:\n        /* \"#utility.yul\":11048:11054   */\n      dup2\n        /* \"#utility.yul\":11035:11055   */\n      calldataload\n        /* \"#utility.yul\":11073:11167   */\n      tag_270\n        /* \"#utility.yul\":11163:11166   */\n      dup5\n        /* \"#utility.yul\":11155:11161   */\n      dup3\n        /* \"#utility.yul\":11148:11152   */\n      0x20\n        /* \"#utility.yul\":11140:11146   */\n      dup7\n        /* \"#utility.yul\":11136:11153   */\n      add\n        /* \"#utility.yul\":11073:11167   */\n      tag_127\n      jump\t// in\n    tag_270:\n        /* \"#utility.yul\":11064:11167   */\n      swap2\n      pop\n        /* \"#utility.yul\":10880:11173   */\n      pop\n        /* \"#utility.yul\":10803:11173   */\n      swap3\n      swap2\n      pop\n      pop\n      jump\t// out\n        /* \"#utility.yul\":11179:12368   */\n    tag_18:\n        /* \"#utility.yul\":11301:11307   */\n      0x00\n        /* \"#utility.yul\":11309:11315   */\n      dup1\n        /* \"#utility.yul\":11317:11323   */\n      0x00\n        /* \"#utility.yul\":11366:11368   */\n      0x60\n        /* \"#utility.yul\":11354:11363   */\n      dup5\n        /* \"#utility.yul\":11345:11352   */\n      dup7\n        /* \"#utility.yul\":11341:11364   */\n      sub\n        /* \"#utility.yul\":11337:11369   */\n      slt\n        /* \"#utility.yul\":11334:11453   */\n      iszero\n      tag_272\n      jumpi\n        /* \"#utility.yul\":11372:11451   */\n      tag_273\n      tag_88\n      jump\t// in\n    tag_273:\n        /* \"#utility.yul\":11334:11453   */\n    tag_272:\n        /* \"#utility.yul\":11520:11521   */\n      0x00\n        /* \"#utility.yul\":11509:11518   */\n      dup5\n        /* \"#utility.yul\":11505:11522   */\n      add\n        /* \"#utility.yul\":11492:11523   */\n      calldataload\n        /* \"#utility.yul\":11550:11568   */\n      0xffffffffffffffff\n        /* \"#utility.yul\":11542:11548   */\n      dup2\n        /* \"#utility.yul\":11539:11569   */\n      gt\n        /* \"#utility.yul\":11536:11653   */\n      iszero\n      tag_274\n      jumpi\n        /* \"#utility.yul\":11572:11651   */\n      tag_275\n      tag_89\n      jump\t// in\n    tag_275:\n        /* \"#utility.yul\":11536:11653   */\n    tag_274:\n        /* \"#utility.yul\":11677:11740   */\n      tag_276\n        /* \"#utility.yul\":11732:11739   */\n      dup7\n        /* \"#utility.yul\":11723:11729   */\n      dup3\n        /* \"#utility.yul\":11712:11721   */\n      dup8\n        /* \"#utility.yul\":11708:11730   */\n      add\n        /* \"#utility.yul\":11677:11740   */\n      tag_122\n      jump\t// in\n    tag_276:\n        /* \"#utility.yul\":11667:11740   */\n      swap4\n      pop\n        /* \"#utility.yul\":11463:11750   */\n      pop\n        /* \"#utility.yul\":11817:11819   */\n      0x20\n        /* \"#utility.yul\":11806:11815   */\n      dup5\n        /* \"#utility.yul\":11802:11820   */\n      add\n        /* \"#utility.yul\":11789:11821   */\n      calldataload\n        /* \"#utility.yul\":11848:11866   */\n      0xffffffffffffffff\n        /* \"#utility.yul\":11840:11846   */\n      dup2\n        /* \"#utility.yul\":11837:11867   */\n      gt\n        /* \"#utility.yul\":11834:11951   */\n      iszero\n      tag_277\n      jumpi\n        /* \"#utility.yul\":11870:11949   */\n      tag_278\n      tag_89\n      jump\t// in\n    tag_278:\n        /* \"#utility.yul\":11834:11951   */\n    tag_277:\n        /* \"#utility.yul\":11975:12038   */\n      tag_279\n        /* \"#utility.yul\":12030:12037   */\n      dup7\n        /* \"#utility.yul\":12021:12027   */\n      dup3\n        /* \"#utility.yul\":12010:12019   */\n      dup8\n        /* \"#utility.yul\":12006:12028   */\n      add\n        /* \"#utility.yul\":11975:12038   */\n      tag_122\n      jump\t// in\n    tag_279:\n        /* \"#utility.yul\":11965:12038   */\n      swap3\n      pop\n        /* \"#utility.yul\":11760:12048   */\n      pop\n        /* \"#utility.yul\":12115:12117   */\n      0x40\n        /* \"#utility.yul\":12104:12113   */\n      dup5\n        /* \"#utility.yul\":12100:12118   */\n      add\n        /* \"#utility.yul\":12087:12119   */\n      calldataload\n        /* \"#utility.yul\":12146:12164   */\n      0xffffffffffffffff\n        /* \"#utility.yul\":12138:12144   */\n      dup2\n        /* \"#utility.yul\":12135:12165   */\n      gt\n        /* \"#utility.yul\":12132:12249   */\n      iszero\n      tag_280\n      jumpi\n        /* \"#utility.yul\":12168:12247   */\n      tag_281\n      tag_89\n      jump\t// in\n    tag_281:\n        /* \"#utility.yul\":12132:12249   */\n    tag_280:\n        /* \"#utility.yul\":12273:12351   */\n      tag_282\n        /* \"#utility.yul\":12343:12350   */\n      dup7\n        /* \"#utility.yul\":12334:12340   */\n      dup3\n        /* \"#utility.yul\":12323:12332   */\n      dup8\n        /* \"#utility.yul\":12319:12341   */\n      add\n        /* \"#utility.yul\":12273:12351   */\n      tag_128\n      jump\t// in\n    tag_282:\n        /* \"#utility.yul\":12263:12351   */\n      swap2\n      pop\n        /* \"#utility.yul\":12058:12361   */\n      pop\n        /* \"#utility.yul\":11179:12368   */\n      swap3\n      pop\n      swap3\n      pop\n      swap3\n      jump\t// out\n        /* \"#utility.yul\":12374:12554   */\n    tag_23:\n        /* \"#utility.yul\":12422:12499   */\n      0x4e487b7100000000000000000000000000000000000000000000000000000000\n        /* \"#utility.yul\":12419:12420   */\n      0x00\n        /* \"#utility.yul\":12412:12500   */\n      mstore\n        /* \"#utility.yul\":12519:12523   */\n      0x32\n        /* \"#utility.yul\":12516:12517   */\n      0x04\n        /* \"#utility.yul\":12509:12524   */\n      mstore\n        /* \"#utility.yul\":12543:12547   */\n      0x24\n        /* \"#utility.yul\":12540:12541   */\n      0x00\n        /* \"#utility.yul\":12533:12548   */\n      revert\n        /* \"#utility.yul\":12560:12740   */\n    tag_129:\n        /* \"#utility.yul\":12608:12685   */\n      0x4e487b7100000000000000000000000000000000000000000000000000000000\n        /* \"#utility.yul\":12605:12606   */\n      0x00\n        /* \"#utility.yul\":12598:12686   */\n      mstore\n        /* \"#utility.yul\":12705:12709   */\n      0x22\n        /* \"#utility.yul\":12702:12703   */\n      0x04\n        /* \"#utility.yul\":12695:12710   */\n      mstore\n        /* \"#utility.yul\":12729:12733   */\n      0x24\n        /* \"#utility.yul\":12726:12727   */\n      0x00\n        /* \"#utility.yul\":12719:12734   */\n      revert\n        /* \"#utility.yul\":12746:13066   */\n    tag_38:\n        /* \"#utility.yul\":12790:12796   */\n      0x00\n        /* \"#utility.yul\":12827:12828   */\n      0x02\n        /* \"#utility.yul\":12821:12825   */\n      dup3\n        /* \"#utility.yul\":12817:12829   */\n      div\n        /* \"#utility.yul\":12807:12829   */\n      swap1\n      pop\n        /* \"#utility.yul\":12874:12875   */\n      0x01\n        /* \"#utility.yul\":12868:12872   */\n      dup3\n        /* \"#utility.yul\":12864:12876   */\n      and\n        /* \"#utility.yul\":12895:12913   */\n      dup1\n        /* \"#utility.yul\":12885:12966   */\n      tag_286\n      jumpi\n        /* \"#utility.yul\":12951:12955   */\n      0x7f\n        /* \"#utility.yul\":12943:12949   */\n      dup3\n        /* \"#utility.yul\":12939:12956   */\n      and\n        /* \"#utility.yul\":12929:12956   */\n      swap2\n      pop\n        /* \"#utility.yul\":12885:12966   */\n    tag_286:\n        /* \"#utility.yul\":13013:13015   */\n      0x20\n        /* \"#utility.yul\":13005:13011   */\n      dup3\n        /* \"#utility.yul\":13002:13016   */\n      lt\n        /* \"#utility.yul\":12982:13000   */\n      dup2\n        /* \"#utility.yul\":12979:13017   */\n      sub\n        /* \"#utility.yul\":12976:13060   */\n      tag_287\n      jumpi\n        /* \"#utility.yul\":13032:13050   */\n      tag_288\n      tag_129\n      jump\t// in\n    tag_288:\n        /* \"#utility.yul\":12976:13060   */\n    tag_287:\n        /* \"#utility.yul\":12797:13066   */\n      pop\n        /* \"#utility.yul\":12746:13066   */\n      swap2\n      swap1\n      pop\n      jump\t// out\n        /* \"#utility.yul\":13072:13236   */\n    tag_130:\n        /* \"#utility.yul\":13212:13228   */\n      0x456d707479207175657374696f6e000000000000000000000000000000000000\n        /* \"#utility.yul\":13208:13209   */\n      0x00\n        /* \"#utility.yul\":13200:13206   */\n      dup3\n        /* \"#utility.yul\":13196:13210   */\n      add\n        /* \"#utility.yul\":13189:13229   */\n      mstore\n        /* \"#utility.yul\":13072:13236   */\n      pop\n      jump\t// out\n        /* \"#utility.yul\":13242:13608   */\n    tag_131:\n        /* \"#utility.yul\":13384:13387   */\n      0x00\n        /* \"#utility.yul\":13405:13472   */\n      tag_291\n        /* \"#utility.yul\":13469:13471   */\n      0x0e\n        /* \"#utility.yul\":13464:13467   */\n      dup4\n        /* \"#utility.yul\":13405:13472   */\n      tag_96\n      jump\t// in\n    tag_291:\n        /* \"#utility.yul\":13398:13472   */\n      swap2\n      pop\n        /* \"#utility.yul\":13481:13574   */\n      tag_292\n        /* \"#utility.yul\":13570:13573   */\n      dup3\n        /* \"#utility.yul\":13481:13574   */\n      tag_130\n      jump\t// in\n    tag_292:\n        /* \"#utility.yul\":13599:13601   */\n      0x20\n        /* \"#utility.yul\":13594:13597   */\n      dup3\n        /* \"#utility.yul\":13590:13602   */\n      add\n        /* \"#utility.yul\":13583:13602   */\n      swap1\n      pop\n        /* \"#utility.yul\":13242:13608   */\n      swap2\n      swap1\n      pop\n      jump\t// out\n        /* \"#utility.yul\":13614:14033   */\n    tag_56:\n        /* \"#utility.yul\":13780:13784   */\n      0x00\n        /* \"#utility.yul\":13818:13820   */\n      0x20\n        /* \"#utility.yul\":13807:13816   */\n      dup3\n        /* \"#utility.yul\":13803:13821   */\n      add\n        /* \"#utility.yul\":13795:13821   */\n      swap1\n      pop\n        /* \"#utility.yul\":13867:13876   */\n      dup2\n        /* \"#utility.yul\":13861:13865   */\n      dup2\n        /* \"#utility.yul\":13857:13877   */\n      sub\n        /* \"#utility.yul\":13853:13854   */\n      0x00\n        /* \"#utility.yul\":13842:13851   */\n      dup4\n        /* \"#utility.yul\":13838:13855   */\n      add\n        /* \"#utility.yul\":13831:13878   */\n      mstore\n        /* \"#utility.yul\":13895:14026   */\n      tag_294\n        /* \"#utility.yul\":14021:14025   */\n      dup2\n        /* \"#utility.yul\":13895:14026   */\n      tag_131\n      jump\t// in\n    tag_294:\n        /* \"#utility.yul\":13887:14026   */\n      swap1\n      pop\n        /* \"#utility.yul\":13614:14033   */\n      swap2\n      swap1\n      pop\n      jump\t// out\n        /* \"#utility.yul\":14039:14216   */\n    tag_132:\n        /* \"#utility.yul\":14179:14208   */\n      0x4174206c656173742032206f7074696f6e732072657175697265640000000000\n        /* \"#utility.yul\":14175:14176   */\n      0x00\n        /* \"#utility.yul\":14167:14173   */\n      dup3\n        /* \"#utility.yul\":14163:14177   */\n      add\n        /* \"#utility.yul\":14156:14209   */\n      mstore\n        /* \"#utility.yul\":14039:14216   */\n      pop\n      jump\t// out\n        /* \"#utility.yul\":14222:14588   */\n    tag_133:\n        /* \"#utility.yul\":14364:14367   */\n      0x00\n        /* \"#utility.yul\":14385:14452   */\n      tag_297\n        /* \"#utility.yul\":14449:14451   */\n      0x1b\n        /* \"#utility.yul\":14444:14447   */\n      dup4\n        /* \"#utility.yul\":14385:14452   */\n      tag_96\n      jump\t// in\n    tag_297:\n        /* \"#utility.yul\":14378:14452   */\n      swap2\n      pop\n        /* \"#utility.yul\":14461:14554   */\n      tag_298\n        /* \"#utility.yul\":14550:14553   */\n      dup3\n        /* \"#utility.yul\":14461:14554   */\n      tag_132\n      jump\t// in\n    tag_298:\n        /* \"#utility.yul\":14579:14581   */\n      0x20\n        /* \"#utility.yul\":14574:14577   */\n      dup3\n        /* \"#utility.yul\":14570:14582   */\n      add\n        /* \"#utility.yul\":14563:14582   */\n      swap1\n      pop\n        /* \"#utility.yul\":14222:14588   */\n      swap2\n      swap1\n      pop\n      jump\t// out\n        /* \"#utility.yul\":14594:15013   */\n    tag_59:\n        /* \"#utility.yul\":14760:14764   */\n      0x00\n        /* \"#utility.yul\":14798:14800   */\n      0x20\n        /* \"#utility.yul\":14787:14796   */\n      dup3\n        /* \"#utility.yul\":14783:14801   */\n      add\n        /* \"#utility.yul\":14775:14801   */\n      swap1\n      pop\n        /* \"#utility.yul\":14847:14856   */\n      dup2\n        /* \"#utility.yul\":14841:14845   */\n      dup2\n        /* \"#utility.yul\":14837:14857   */\n      sub\n        /* \"#utility.yul\":14833:14834   */\n      0x00\n        /* \"#utility.yul\":14822:14831   */\n      dup4\n        /* \"#utility.yul\":14818:14835   */\n      add\n        /* \"#utility.yul\":14811:14858   */\n      mstore\n        /* \"#utility.yul\":14875:15006   */\n      tag_300\n        /* \"#utility.yul\":15001:15005   */\n      dup2\n        /* \"#utility.yul\":14875:15006   */\n      tag_133\n      jump\t// in\n    tag_300:\n        /* \"#utility.yul\":14867:15006   */\n      swap1\n      pop\n        /* \"#utility.yul\":14594:15013   */\n      swap2\n      swap1\n      pop\n      jump\t// out\n        /* \"#utility.yul\":15019:15160   */\n    tag_134:\n        /* \"#utility.yul\":15068:15072   */\n      0x00\n        /* \"#utility.yul\":15091:15094   */\n      dup2\n        /* \"#utility.yul\":15083:15094   */\n      swap1\n      pop\n        /* \"#utility.yul\":15114:15117   */\n      dup2\n        /* \"#utility.yul\":15111:15112   */\n      0x00\n        /* \"#utility.yul\":15104:15118   */\n      mstore\n        /* \"#utility.yul\":15148:15152   */\n      0x20\n        /* \"#utility.yul\":15145:15146   */\n      0x00\n        /* \"#utility.yul\":15135:15153   */\n      keccak256\n        /* \"#utility.yul\":15127:15153   */\n      swap1\n      pop\n        /* \"#utility.yul\":15019:15160   */\n      swap2\n      swap1\n      pop\n      jump\t// out\n        /* \"#utility.yul\":15166:15259   */\n    tag_135:\n        /* \"#utility.yul\":15203:15209   */\n      0x00\n        /* \"#utility.yul\":15250:15252   */\n      0x20\n        /* \"#utility.yul\":15245:15247   */\n      0x1f\n        /* \"#utility.yul\":15238:15243   */\n      dup4\n        /* \"#utility.yul\":15234:15248   */\n      add\n        /* \"#utility.yul\":15230:15253   */\n      div\n        /* \"#utility.yul\":15220:15253   */\n      swap1\n      pop\n        /* \"#utility.yul\":15166:15259   */\n      swap2\n      swap1\n      pop\n      jump\t// out\n        /* \"#utility.yul\":15265:15372   */\n    tag_136:\n        /* \"#utility.yul\":15309:15317   */\n      0x00\n        /* \"#utility.yul\":15359:15364   */\n      dup3\n        /* \"#utility.yul\":15353:15357   */\n      dup3\n        /* \"#utility.yul\":15349:15365   */\n      shl\n        /* \"#utility.yul\":15328:15365   */\n      swap1\n      pop\n        /* \"#utility.yul\":15265:15372   */\n      swap3\n      swap2\n      pop\n      pop\n      jump\t// out\n        /* \"#utility.yul\":15378:15771   */\n    tag_137:\n        /* \"#utility.yul\":15447:15453   */\n      0x00\n        /* \"#utility.yul\":15497:15498   */\n      0x08\n        /* \"#utility.yul\":15485:15495   */\n      dup4\n        /* \"#utility.yul\":15481:15499   */\n      mul\n        /* \"#utility.yul\":15520:15617   */\n      tag_305\n        /* \"#utility.yul\":15550:15616   */\n      0xffffffffffffffffffffffffffffffffffffffffffffffffffffffffffffffff\n        /* \"#utility.yul\":15539:15548   */\n      dup3\n        /* \"#utility.yul\":15520:15617   */\n      tag_136\n      jump\t// in\n    tag_305:\n        /* \"#utility.yul\":15638:15677   */\n      tag_306\n        /* \"#utility.yul\":15668:15676   */\n      dup7\n        /* \"#utility.yul\":15657:15666   */\n      dup4\n        /* \"#utility.yul\":15638:15677   */\n      tag_136\n      jump\t// in\n    tag_306:\n        /* \"#utility.yul\":15626:15677   */\n      swap6\n      pop\n        /* \"#utility.yul\":15710:15714   */\n      dup1\n        /* \"#utility.yul\":15706:15715   */\n      not\n        /* \"#utility.yul\":15699:15704   */\n      dup5\n        /* \"#utility.yul\":15695:15716   */\n      and\n        /* \"#utility.yul\":15686:15716   */\n      swap4\n      pop\n        /* \"#utility.yul\":15759:15763   */\n      dup1\n        /* \"#utility.yul\":15749:15757   */\n      dup7\n        /* \"#utility.yul\":15745:15764   */\n      and\n        /* \"#utility.yul\":15738:15743   */\n      dup5\n        /* \"#utility.yul\":15735:15765   */\n      or\n        /* \"#utility.yul\":15725:15765   */\n      swap3\n      pop\n        /* \"#utility.yul\":15454:15771   */\n      pop\n      pop\n        /* \"#utility.yul\":15378:15771   */\n      swap4\n      swap3\n      pop\n      pop\n      pop\n      jump\t// out\n        /* \"#utility.yul\":15777:15837   */\n    tag_138:\n        /* \"#utility.yul\":15805:15808   */\n      0x00\n        /* \"#utility.yul\":15826:15831   */\n      dup2\n        /* \"#utility.yul\":15819:15831   */\n      swap1\n      pop\n        /* \"#utility.yul\":15777:15837   */\n      swap2\n      swap1\n      pop\n      jump\t// out\n        /* \"#utility.yul\":15843:15985   */\n    tag_139:\n        /* \"#utility.yul\":15893:15902   */\n      0x00\n        /* \"#utility.yul\":15926:15979   */\n      tag_309\n        /* \"#utility.yul\":15944:15978   */\n      tag_310\n        /* \"#utility.yul\":15953:15977   */\n      tag_311\n        /* \"#utility.yul\":15971:15976   */\n      dup5\n        /* \"#utility.yul\":15953:15977   */\n      tag_93\n      jump\t// in\n    tag_311:\n        /* \"#utility.yul\":15944:15978   */\n      tag_138\n      jump\t// in\n    tag_310:\n        /* \"#utility.yul\":15926:15979   */\n      tag_93\n      jump\t// in\n    tag_309:\n        /* \"#utility.yul\":15913:15979   */\n      swap1\n      pop\n        /* \"#utility.yul\":15843:15985   */\n      swap2\n      swap1\n      pop\n      jump\t// out\n        /* \"#utility.yul\":15991:16066   */\n    tag_140:\n        /* \"#utility.yul\":16034:16037   */\n      0x00\n        /* \"#utility.yul\":16055:16060   */\n      dup2\n        /* \"#utility.yul\":16048:16060   */\n      swap1\n      pop\n        /* \"#utility.yul\":15991:16066   */\n      swap2\n      swap1\n      pop\n      jump\t// out\n        /* \"#utility.yul\":16072:16341   */\n    tag_141:\n        /* \"#utility.yul\":16182:16221   */\n      tag_314\n        /* \"#utility.yul\":16213:16220   */\n      dup4\n        /* \"#utility.yul\":16182:16221   */\n      tag_139\n      jump\t// in\n    tag_314:\n        /* \"#utility.yul\":16243:16334   */\n      tag_315\n        /* \"#utility.yul\":16292:16333   */\n      tag_316\n        /* \"#utility.yul\":16316:16332   */\n      dup3\n        /* \"#utility.yul\":16292:16333   */\n      tag_140\n      jump\t// in\n    tag_316:\n        /* \"#utility.yul\":16284:16290   */\n      dup5\n        /* \"#utility.yul\":16277:16281   */\n      dup5\n        /* \"#utility.yul\":16271:16282   */\n      sload\n        /* \"#utility.yul\":16243:16334   */\n      tag_137\n      jump\t// in\n    tag_315:\n        /* \"#utility.yul\":16237:16241   */\n      dup3\n        /* \"#utility.yul\":16230:16335   */\n      sstore\n        /* \"#utility.yul\":16148:16341   */\n      pop\n        /* \"#utility.yul\":16072:16341   */\n      pop\n      pop\n      pop\n      jump\t// out\n        /* \"#utility.yul\":16347:16420   */\n    tag_142:\n        /* \"#utility.yul\":16392:16395   */\n      0x00\n        /* \"#utility.yul\":16347:16420   */\n      swap1\n      jump\t// out\n        /* \"#utility.yul\":16426:16615   */\n    tag_143:\n        /* \"#utility.yul\":16503:16535   */\n      tag_319\n      tag_142\n      jump\t// in\n    tag_319:\n        /* \"#utility.yul\":16544:16609   */\n      tag_320\n        /* \"#utility.yul\":16602:16608   */\n      dup2\n        /* \"#utility.yul\":16594:16600   */\n      dup5\n        /* \"#utility.yul\":16588:16592   */\n      dup5\n        /* \"#utility.yul\":16544:16609   */\n      tag_141\n      jump\t// in\n    tag_320:\n        /* \"#utility.yul\":16479:16615   */\n      pop\n        /* \"#utility.yul\":16426:16615   */\n      pop\n      pop\n      jump\t// out\n        /* \"#utility.yul\":16621:16807   */\n    tag_144:\n        /* \"#utility.yul\":16681:16801   */\n    tag_322:\n        /* \"#utility.yul\":16698:16701   */\n      dup2\n        /* \"#utility.yul\":16691:16696   */\n      dup2\n        /* \"#utility.yul\":16688:16702   */\n      lt\n        /* \"#utility.yul\":16681:16801   */\n      iszero\n      tag_324\n      jumpi\n        /* \"#utility.yul\":16752:16791   */\n      tag_325\n        /* \"#utility.yul\":16789:16790   */\n      0x00\n        /* \"#utility.yul\":16782:16787   */\n      dup3\n        /* \"#utility.yul\":16752:16791   */\n      tag_143\n      jump\t// in\n    tag_325:\n        /* \"#utility.yul\":16725:16726   */\n      0x01\n        /* \"#utility.yul\":16718:16723   */\n      dup2\n        /* \"#utility.yul\":16714:16727   */\n      add\n        /* \"#utility.yul\":16705:16727   */\n      swap1\n      pop\n        /* \"#utility.yul\":16681:16801   */\n      jump(tag_322)\n    tag_324:\n        /* \"#utility.yul\":16621:16807   */\n      pop\n      pop\n      jump\t// out\n        /* \"#utility.yul\":16813:17356   */\n    tag_145:\n        /* \"#utility.yul\":16914:16916   */\n      0x1f\n        /* \"#utility.yul\":16909:16912   */\n      dup3\n        /* \"#utility.yul\":16906:16917   */\n      gt\n        /* \"#utility.yul\":16903:17349   */\n      iszero\n      tag_327\n      jumpi\n        /* \"#utility.yul\":16948:16986   */\n      tag_328\n        /* \"#utility.yul\":16980:16985   */\n      dup2\n        /* \"#utility.yul\":16948:16986   */\n      tag_134\n      jump\t// in\n    tag_328:\n        /* \"#utility.yul\":17032:17061   */\n      tag_329\n        /* \"#utility.yul\":17050:17060   */\n      dup5\n        /* \"#utility.yul\":17032:17061   */\n      tag_135\n      jump\t// in\n    tag_329:\n        /* \"#utility.yul\":17022:17030   */\n      dup2\n        /* \"#utility.yul\":17018:17062   */\n      add\n        /* \"#utility.yul\":17215:17217   */\n      0x20\n        /* \"#utility.yul\":17203:17213   */\n      dup6\n        /* \"#utility.yul\":17200:17218   */\n      lt\n        /* \"#utility.yul\":17197:17246   */\n      iszero\n      tag_330\n      jumpi\n        /* \"#utility.yul\":17236:17244   */\n      dup2\n        /* \"#utility.yul\":17221:17244   */\n      swap1\n      pop\n        /* \"#utility.yul\":17197:17246   */\n    tag_330:\n        /* \"#utility.yul\":17259:17339   */\n      tag_331\n        /* \"#utility.yul\":17315:17337   */\n      tag_332\n        /* \"#utility.yul\":17333:17336   */\n      dup6\n        /* \"#utility.yul\":17315:17337   */\n      tag_135\n      jump\t// in\n    tag_332:\n        /* \"#utility.yul\":17305:17313   */\n      dup4\n        /* \"#utility.yul\":17301:17338   */\n      add\n        /* \"#utility.yul\":17288:17299   */\n      dup3\n        /* \"#utility.yul\":17259:17339   */\n      tag_144\n      jump\t// in\n    tag_331:\n        /* \"#utility.yul\":16918:17349   */\n      pop\n      pop\n        /* \"#utility.yul\":16903:17349   */\n    tag_327:\n        /* \"#utility.yul\":16813:17356   */\n      pop\n      pop\n      pop\n      jump\t// out\n        /* \"#utility.yul\":17362:17479   */\n    tag_146:\n        /* \"#utility.yul\":17416:17424   */\n      0x00\n        /* \"#utility.yul\":17466:17471   */\n      dup3\n        /* \"#utility.yul\":17460:17464   */\n      dup3\n        /* \"#utility.yul\":17456:17472   */\n      shr\n        /* \"#utility.yul\":17435:17472   */\n      swap1\n      pop\n        /* \"#utility.yul\":17362:17479   */\n      swap3\n      swap2\n      pop\n      pop\n      jump\t// out\n        /* \"#utility.yul\":17485:17654   */\n    tag_147:\n        /* \"#utility.yul\":17529:17535   */\n      0x00\n        /* \"#utility.yul\":17562:17613   */\n      tag_335\n        /* \"#utility.yul\":17610:17611   */\n      0x00\n        /* \"#utility.yul\":17606:17612   */\n      not\n        /* \"#utility.yul\":17598:17603   */\n      dup5\n        /* \"#utility.yul\":17595:17596   */\n      0x08\n        /* \"#utility.yul\":17591:17604   */\n      mul\n        /* \"#utility.yul\":17562:17613   */\n      tag_146\n      jump\t// in\n    tag_335:\n        /* \"#utility.yul\":17558:17614   */\n      not\n        /* \"#utility.yul\":17643:17647   */\n      dup1\n        /* \"#utility.yul\":17637:17641   */\n      dup4\n        /* \"#utility.yul\":17633:17648   */\n      and\n        /* \"#utility.yul\":17623:17648   */\n      swap2\n      pop\n        /* \"#utility.yul\":17536:17654   */\n      pop\n        /* \"#utility.yul\":17485:17654   */\n      swap3\n      swap2\n      pop\n      pop\n      jump\t// out\n        /* \"#utility.yul\":17659:17954   */\n    tag_148:\n        /* \"#utility.yul\":17735:17739   */\n      0x00\n        /* \"#utility.yul\":17881:17910   */\n      tag_337\n        /* \"#utility.yul\":17906:17909   */\n      dup4\n        /* \"#utility.yul\":17900:17904   */\n      dup4\n        /* \"#utility.yul\":17881:17910   */\n      tag_147\n      jump\t// in\n    tag_337:\n        /* \"#utility.yul\":17873:17910   */\n      swap2\n      pop\n        /* \"#utility.yul\":17943:17946   */\n      dup3\n        /* \"#utility.yul\":17940:17941   */\n      0x02\n        /* \"#utility.yul\":17936:17947   */\n      mul\n        /* \"#utility.yul\":17930:17934   */\n      dup3\n        /* \"#utility.yul\":17927:17948   */\n      or\n        /* \"#utility.yul\":17919:17948   */\n      swap1\n      pop\n        /* \"#utility.yul\":17659:17954   */\n      swap3\n      swap2\n      pop\n      pop\n      jump\t// out\n        /* \"#utility.yul\":17959:19354   */\n    tag_66:\n        /* \"#utility.yul\":18076:18113   */\n      tag_339\n        /* \"#utility.yul\":18109:18112   */\n      dup3\n        /* \"#utility.yul\":18076:18113   */\n      tag_95\n      jump\t// in\n    tag_339:\n        /* \"#utility.yul\":18178:18196   */\n      0xffffffffffffffff\n        /* \"#utility.yul\":18170:18176   */\n      dup2\n        /* \"#utility.yul\":18167:18197   */\n      gt\n        /* \"#utility.yul\":18164:18220   */\n      iszero\n      tag_340\n      jumpi\n        /* \"#utility.yul\":18200:18218   */\n      tag_341\n      tag_62\n      jump\t// in\n    tag_341:\n        /* \"#utility.yul\":18164:18220   */\n    tag_340:\n        /* \"#utility.yul\":18244:18282   */\n      tag_342\n        /* \"#utility.yul\":18276:18280   */\n      dup3\n        /* \"#utility.yul\":18270:18281   */\n      sload\n        /* \"#utility.yul\":18244:18282   */\n      tag_38\n      jump\t// in\n    tag_342:\n        /* \"#utility.yul\":18329:18396   */\n      tag_343\n        /* \"#utility.yul\":18389:18395   */\n      dup3\n        /* \"#utility.yul\":18381:18387   */\n      dup3\n        /* \"#utility.yul\":18375:18379   */\n      dup6\n        /* \"#utility.yul\":18329:18396   */\n      tag_145\n      jump\t// in\n    tag_343:\n        /* \"#utility.yul\":18423:18424   */\n      0x00\n        /* \"#utility.yul\":18447:18451   */\n      0x20\n        /* \"#utility.yul\":18434:18451   */\n      swap1\n      pop\n        /* \"#utility.yul\":18479:18481   */\n      0x1f\n        /* \"#utility.yul\":18471:18477   */\n      dup4\n        /* \"#utility.yul\":18468:18482   */\n      gt\n        /* \"#utility.yul\":18496:18497   */\n      0x01\n        /* \"#utility.yul\":18491:19109   */\n      dup2\n      eq\n      tag_345\n      jumpi\n        /* \"#utility.yul\":19153:19154   */\n      0x00\n        /* \"#utility.yul\":19170:19176   */\n      dup5\n        /* \"#utility.yul\":19167:19244   */\n      iszero\n      tag_346\n      jumpi\n        /* \"#utility.yul\":19219:19228   */\n      dup3\n        /* \"#utility.yul\":19214:19217   */\n      dup8\n        /* \"#utility.yul\":19210:19229   */\n      add\n        /* \"#utility.yul\":19204:19230   */\n      mload\n        /* \"#utility.yul\":19195:19230   */\n      swap1\n      pop\n        /* \"#utility.yul\":19167:19244   */\n    tag_346:\n        /* \"#utility.yul\":19270:19337   */\n      tag_347\n        /* \"#utility.yul\":19330:19336   */\n      dup6\n        /* \"#utility.yul\":19323:19328   */\n      dup3\n        /* \"#utility.yul\":19270:19337   */\n      tag_148\n      jump\t// in\n    tag_347:\n        /* \"#utility.yul\":19264:19268   */\n      dup7\n        /* \"#utility.yul\":19257:19338   */\n      sstore\n        /* \"#utility.yul\":19126:19348   */\n      pop\n        /* \"#utility.yul\":18461:19348   */\n      jump(tag_344)\n        /* \"#utility.yul\":18491:19109   */\n    tag_345:\n        /* \"#utility.yul\":18543:18547   */\n      0x1f\n        /* \"#utility.yul\":18539:18548   */\n      not\n        /* \"#utility.yul\":18531:18537   */\n      dup5\n        /* \"#utility.yul\":18527:18549   */\n      and\n        /* \"#utility.yul\":18577:18614   */\n      tag_348\n        /* \"#utility.yul\":18609:18613   */\n      dup7\n        /* \"#utility.yul\":18577:18614   */\n      tag_134\n      jump\t// in\n    tag_348:\n        /* \"#utility.yul\":18636:18637   */\n      0x00\n        /* \"#utility.yul\":18650:18858   */\n    tag_349:\n        /* \"#utility.yul\":18664:18671   */\n      dup3\n        /* \"#utility.yul\":18661:18662   */\n      dup2\n        /* \"#utility.yul\":18658:18672   */\n      lt\n        /* \"#utility.yul\":18650:18858   */\n      iszero\n      tag_351\n      jumpi\n        /* \"#utility.yul\":18743:18752   */\n      dup5\n        /* \"#utility.yul\":18738:18741   */\n      dup10\n        /* \"#utility.yul\":18734:18753   */\n      add\n        /* \"#utility.yul\":18728:18754   */\n      mload\n        /* \"#utility.yul\":18720:18726   */\n      dup3\n        /* \"#utility.yul\":18713:18755   */\n      sstore\n        /* \"#utility.yul\":18794:18795   */\n      0x01\n        /* \"#utility.yul\":18786:18792   */\n      dup3\n        /* \"#utility.yul\":18782:18796   */\n      add\n        /* \"#utility.yul\":18772:18796   */\n      swap2\n      pop\n        /* \"#utility.yul\":18841:18843   */\n      0x20\n        /* \"#utility.yul\":18830:18839   */\n      dup6\n        /* \"#utility.yul\":18826:18844   */\n      add\n        /* \"#utility.yul\":18813:18844   */\n      swap5\n      pop\n        /* \"#utility.yul\":18687:18691   */\n      0x20\n        /* \"#utility.yul\":18684:18685   */\n      dup2\n        /* \"#utility.yul\":18680:18692   */\n      add\n        /* \"#utility.yul\":18675:18692   */\n      swap1\n      pop\n        /* \"#utility.yul\":18650:18858   */\n      jump(tag_349)\n    tag_351:\n        /* \"#utility.yul\":18886:18892   */\n      dup7\n        /* \"#utility.yul\":18877:18884   */\n      dup4\n        /* \"#utility.yul\":18874:18893   */\n      lt\n        /* \"#utility.yul\":18871:19050   */\n      iszero\n      tag_352\n      jumpi\n        /* \"#utility.yul\":18944:18953   */\n      dup5\n        /* \"#utility.yul\":18939:18942   */\n      dup10\n        /* \"#utility.yul\":18935:18954   */\n      add\n        /* \"#utility.yul\":18929:18955   */\n      mload\n        /* \"#utility.yul\":18987:19035   */\n      tag_353\n        /* \"#utility.yul\":19029:19033   */\n      0x1f\n        /* \"#utility.yul\":19021:19027   */\n      dup10\n        /* \"#utility.yul\":19017:19034   */\n      and\n        /* \"#utility.yul\":19006:19015   */\n      dup3\n        /* \"#utility.yul\":18987:19035   */\n      tag_147\n      jump\t// in\n    tag_353:\n        /* \"#utility.yul\":18979:18985   */\n      dup4\n        /* \"#utility.yul\":18972:19036   */\n      sstore\n        /* \"#utility.yul\":18894:19050   */\n      pop\n        /* \"#utility.yul\":18871:19050   */\n    tag_352:\n        /* \"#utility.yul\":19096:19097   */\n      0x01\n        /* \"#utility.yul\":19092:19093   */\n      0x02\n        /* \"#utility.yul\":19084:19090   */\n      dup9\n        /* \"#utility.yul\":19080:19094   */\n      mul\n        /* \"#utility.yul\":19076:19098   */\n      add\n        /* \"#utility.yul\":19070:19074   */\n      dup9\n        /* \"#utility.yul\":19063:19099   */\n      sstore\n        /* \"#utility.yul\":18498:19109   */\n      pop\n      pop\n      pop\n        /* \"#utility.yul\":18461:19348   */\n    tag_344:\n      pop\n        /* \"#utility.yul\":18051:19354   */\n      pop\n      pop\n      pop\n        /* \"#utility.yul\":17959:19354   */\n      pop\n      pop\n      jump\t// out\n\n    auxdata: 0xa26469706673582212202f42d23c7ff85a6ba4e30af572f18fc2afbe4272f734bcb5bf9cae0a0661b50164736f6c63430008100033\n}\n",
				"bytecode": {
					"linkReferences": {},
					"object": "608060405234801561001057600080fd5b506110e4806100206000396000f3fe608060405234801561001057600080fd5b50600436106100415760003560e01c8063157bd75d146100465780633d51e9d91461007a5780637ba9104114610096575b600080fd5b610060600480360381019061005b91906106ee565b6100b2565b60405161007195949392919061094a565b60405180910390f35b610094600480360381019061008f91906109b9565b6103a9565b005b6100b060048036038101906100ab9190610c22565b6103ad565b005b600060608060608060008667ffffffffffffffff16815481106100d8576100d7610cc9565b5b90600052602060002090600502016000015460008767ffffffffffffffff168154811061010857610107610cc9565b5b906000526020600020906005020160010160008867ffffffffffffffff168154811061013757610136610cc9565b5b906000526020600020906005020160020160008967ffffffffffffffff168154811061016657610165610cc9565b5b906000526020600020906005020160030160008a67ffffffffffffffff168154811061019557610194610cc9565b5b90600052602060002090600502016004018380546101b290610d27565b80601f01602080910402602001604051908101604052809291908181526020018280546101de90610d27565b801561022b5780601f106102005761010080835404028352916020019161022b565b820191906000526020600020905b81548152906001019060200180831161020e57829003601f168201915b5050505050935082805461023e90610d27565b80601f016020809104026020016040519081016040528092919081815260200182805461026a90610d27565b80156102b75780601f1061028c576101008083540402835291602001916102b7565b820191906000526020600020905b81548152906001019060200180831161029a57829003601f168201915b505050505092508180548060200260200160405190810160405280929190818152602001828054801561033d57602002820191906000526020600020906000905b82829054906101000a900467ffffffffffffffff1667ffffffffffffffff16815260200190600801906020826007010492830192600103820291508084116102f85790505b505050505091508080548060200260200160405190810160405280929190818152602001828054801561038f57602002820191906000526020600020905b81548152602001906001019080831161037b575b505050505090509450945094509450945091939590929450565b5050565b60008351116103f1576040517f08c379a00000000000000000000000000000000000000000000000000000000081526004016103e890610da4565b60405180910390fd5b6001815111610435576040517f08c379a000000000000000000000000000000000000000000000000000000000815260040161042c90610e10565b60405180910390fd5b60008080549050905060006040518060a00160405280838152602001868152602001858152602001845167ffffffffffffffff81111561047857610477610a03565b5b6040519080825280602002602001820160405280156104a65781602001602082028036833780820191505090505b50815260200184815250905060008190806001815401808255809150506001900390600052602060002090600502016000909190919091506000820151816000015560208201518160010190816104fd9190610fdc565b5060408201518160020190816105139190610fdc565b506060820151816003019080519060200190610530929190610557565b50608082015181600401908051906020019061054d929190610613565b5050505050505050565b828054828255906000526020600020906003016004900481019282156106025791602002820160005b838211156105cc57835183826101000a81548167ffffffffffffffff021916908367ffffffffffffffff1602179055509260200192600801602081600701049283019260010302610580565b80156106005782816101000a81549067ffffffffffffffff02191690556008016020816007010492830192600103026105cc565b505b50905061060f9190610660565b5090565b82805482825590600052602060002090810192821561064f579160200282015b8281111561064e578251825591602001919060010190610633565b5b50905061065c919061067d565b5090565b5b80821115610679576000816000905550600101610661565b5090565b5b8082111561069657600081600090555060010161067e565b5090565b6000604051905090565b600080fd5b600080fd5b600067ffffffffffffffff82169050919050565b6106cb816106ae565b81146106d657600080fd5b50565b6000813590506106e8816106c2565b92915050565b600060208284031215610704576107036106a4565b5b6000610712848285016106d9565b91505092915050565b6000819050919050565b61072e8161071b565b82525050565b600081519050919050565b600082825260208201905092915050565b60005b8381101561076e578082015181840152602081019050610753565b60008484015250505050565b6000601f19601f8301169050919050565b600061079682610734565b6107a0818561073f565b93506107b0818560208601610750565b6107b98161077a565b840191505092915050565b600081519050919050565b600082825260208201905092915050565b6000819050602082019050919050565b6107f9816106ae565b82525050565b600061080b83836107f0565b60208301905092915050565b6000602082019050919050565b600061082f826107c4565b61083981856107cf565b9350610844836107e0565b8060005b8381101561087557815161085c88826107ff565b975061086783610817565b925050600181019050610848565b5085935050505092915050565b600081519050919050565b600082825260208201905092915050565b6000819050602082019050919050565b6000819050919050565b6108c1816108ae565b82525050565b60006108d383836108b8565b60208301905092915050565b6000602082019050919050565b60006108f782610882565b610901818561088d565b935061090c8361089e565b8060005b8381101561093d57815161092488826108c7565b975061092f836108df565b925050600181019050610910565b5085935050505092915050565b600060a08201905061095f6000830188610725565b8181036020830152610971818761078b565b90508181036040830152610985818661078b565b905081810360608301526109998185610824565b905081810360808301526109ad81846108ec565b90509695505050505050565b600080604083850312156109d0576109cf6106a4565b5b60006109de858286016106d9565b92505060206109ef858286016106d9565b9150509250929050565b600080fd5b600080fd5b7f4e487b7100000000000000000000000000000000000000000000000000000000600052604160045260246000fd5b610a3b8261077a565b810181811067ffffffffffffffff82111715610a5a57610a59610a03565b5b80604052505050565b6000610a6d61069a565b9050610a798282610a32565b919050565b600067ffffffffffffffff821115610a9957610a98610a03565b5b610aa28261077a565b9050602081019050919050565b82818337600083830152505050565b6000610ad1610acc84610a7e565b610a63565b905082815260208101848484011115610aed57610aec6109fe565b5b610af8848285610aaf565b509392505050565b600082601f830112610b1557610b146109f9565b5b8135610b25848260208601610abe565b91505092915050565b600067ffffffffffffffff821115610b4957610b48610a03565b5b602082029050602081019050919050565b600080fd5b610b68816108ae565b8114610b7357600080fd5b50565b600081359050610b8581610b5f565b92915050565b6000610b9e610b9984610b2e565b610a63565b90508083825260208201905060208402830185811115610bc157610bc0610b5a565b5b835b81811015610bea5780610bd68882610b76565b845260208401935050602081019050610bc3565b5050509392505050565b600082601f830112610c0957610c086109f9565b5b8135610c19848260208601610b8b565b91505092915050565b600080600060608486031215610c3b57610c3a6106a4565b5b600084013567ffffffffffffffff811115610c5957610c586106a9565b5b610c6586828701610b00565b935050602084013567ffffffffffffffff811115610c8657610c856106a9565b5b610c9286828701610b00565b925050604084013567ffffffffffffffff811115610cb357610cb26106a9565b5b610cbf86828701610bf4565b9150509250925092565b7f4e487b7100000000000000000000000000000000000000000000000000000000600052603260045260246000fd5b7f4e487b7100000000000000000000000000000000000000000000000000000000600052602260045260246000fd5b60006002820490506001821680610d3f57607f821691505b602082108103610d5257610d51610cf8565b5b50919050565b7f456d707479207175657374696f6e000000000000000000000000000000000000600082015250565b6000610d8e600e8361073f565b9150610d9982610d58565b602082019050919050565b60006020820190508181036000830152610dbd81610d81565b9050919050565b7f4174206c656173742032206f7074696f6e732072657175697265640000000000600082015250565b6000610dfa601b8361073f565b9150610e0582610dc4565b602082019050919050565b60006020820190508181036000830152610e2981610ded565b9050919050565b60008190508160005260206000209050919050565b60006020601f8301049050919050565b600082821b905092915050565b600060088302610e927fffffffffffffffffffffffffffffffffffffffffffffffffffffffffffffffff82610e55565b610e9c8683610e55565b95508019841693508086168417925050509392505050565b6000819050919050565b6000610ed9610ed4610ecf8461071b565b610eb4565b61071b565b9050919050565b6000819050919050565b610ef383610ebe565b610f07610eff82610ee0565b848454610e62565b825550505050565b600090565b610f1c610f0f565b610f27818484610eea565b505050565b5b81811015610f4b57610f40600082610f14565b600181019050610f2d565b5050565b601f821115610f9057610f6181610e30565b610f6a84610e45565b81016020851015610f79578190505b610f8d610f8585610e45565b830182610f2c565b50505b505050565b600082821c905092915050565b6000610fb360001984600802610f95565b1980831691505092915050565b6000610fcc8383610fa2565b9150826002028217905092915050565b610fe582610734565b67ffffffffffffffff811115610ffe57610ffd610a03565b5b6110088254610d27565b611013828285610f4f565b600060209050601f8311600181146110465760008415611034578287015190505b61103e8582610fc0565b8655506110a6565b601f19841661105486610e30565b60005b8281101561107c57848901518255600182019150602085019450602081019050611057565b868310156110995784890151611095601f891682610fa2565b8355505b6001600288020188555050505b50505050505056fea26469706673582212202f42d23c7ff85a6ba4e30af572f18fc2afbe4272f734bcb5bf9cae0a0661b50164736f6c63430008100033",
					"opcodes": "PUSH1 0x80 PUSH1 0x40 MSTORE CALLVALUE DUP1 ISZERO PUSH2 0x10 JUMPI PUSH1 0x0 DUP1 REVERT JUMPDEST POP PUSH2 0x10E4 DUP1 PUSH2 0x20 PUSH1 0x0 CODECOPY PUSH1 0x0 RETURN INVALID PUSH1 0x80 PUSH1 0x40 MSTORE CALLVALUE DUP1 ISZERO PUSH2 0x10 JUMPI PUSH1 0x0 DUP1 REVERT JUMPDEST POP PUSH1 0x4 CALLDATASIZE LT PUSH2 0x41 JUMPI PUSH1 0x0 CALLDATALOAD PUSH1 0xE0 SHR DUP1 PUSH4 0x157BD75D EQ PUSH2 0x46 JUMPI DUP1 PUSH4 0x3D51E9D9 EQ PUSH2 0x7A JUMPI DUP1 PUSH4 0x7BA91041 EQ PUSH2 0x96 JUMPI JUMPDEST PUSH1 0x0 DUP1 REVERT JUMPDEST PUSH2 0x60 PUSH1 0x4 DUP1 CALLDATASIZE SUB DUP2 ADD SWAP1 PUSH2 0x5B SWAP2 SWAP1 PUSH2 0x6EE JUMP JUMPDEST PUSH2 0xB2 JUMP JUMPDEST PUSH1 0x40 MLOAD PUSH2 0x71 SWAP6 SWAP5 SWAP4 SWAP3 SWAP2 SWAP1 PUSH2 0x94A JUMP JUMPDEST PUSH1 0x40 MLOAD DUP1 SWAP2 SUB SWAP1 RETURN JUMPDEST PUSH2 0x94 PUSH1 0x4 DUP1 CALLDATASIZE SUB DUP2 ADD SWAP1 PUSH2 0x8F SWAP2 SWAP1 PUSH2 0x9B9 JUMP JUMPDEST PUSH2 0x3A9 JUMP JUMPDEST STOP JUMPDEST PUSH2 0xB0 PUSH1 0x4 DUP1 CALLDATASIZE SUB DUP2 ADD SWAP1 PUSH2 0xAB SWAP2 SWAP1 PUSH2 0xC22 JUMP JUMPDEST PUSH2 0x3AD JUMP JUMPDEST STOP JUMPDEST PUSH1 0x0 PUSH1 0x60 DUP1 PUSH1 0x60 DUP1 PUSH1 0x0 DUP7 PUSH8 0xFFFFFFFFFFFFFFFF AND DUP2 SLOAD DUP2 LT PUSH2 0xD8 JUMPI PUSH2 0xD7 PUSH2 0xCC9 JUMP JUMPDEST JUMPDEST SWAP1 PUSH1 0x0 MSTORE PUSH1 0x20 PUSH1 0x0 KECCAK256 SWAP1 PUSH1 0x5 MUL ADD PUSH1 0x0 ADD SLOAD PUSH1 0x0 DUP8 PUSH8 0xFFFFFFFFFFFFFFFF AND DUP2 SLOAD DUP2 LT PUSH2 0x108 JUMPI PUSH2 0x107 PUSH2 0xCC9 JUMP JUMPDEST JUMPDEST SWAP1 PUSH1 0x0 MSTORE PUSH1 0x20 PUSH1 0x0 KECCAK256 SWAP1 PUSH1 0x5 MUL ADD PUSH1 0x1 ADD PUSH1 0x0 DUP9 PUSH8 0xFFFFFFFFFFFFFFFF AND DUP2 SLOAD DUP2 LT PUSH2 0x137 JUMPI PUSH2 0x136 PUSH2 0xCC9 JUMP JUMPDEST JUMPDEST SWAP1 PUSH1 0x0 MSTORE PUSH1 0x20 PUSH1 0x0 KECCAK256 SWAP1 PUSH1 0x5 MUL ADD PUSH1 0x2 ADD PUSH1 0x0 DUP10 PUSH8 0xFFFFFFFFFFFFFFFF AND DUP2 SLOAD DUP2 LT PUSH2 0x166 JUMPI PUSH2 0x165 PUSH2 0xCC9 JUMP JUMPDEST JUMPDEST SWAP1 PUSH1 0x0 MSTORE PUSH1 0x20 PUSH1 0x0 KECCAK256 SWAP1 PUSH1 0x5 MUL ADD PUSH1 0x3 ADD PUSH1 0x0 DUP11 PUSH8 0xFFFFFFFFFFFFFFFF AND DUP2 SLOAD DUP2 LT PUSH2 0x195 JUMPI PUSH2 0x194 PUSH2 0xCC9 JUMP JUMPDEST JUMPDEST SWAP1 PUSH1 0x0 MSTORE PUSH1 0x20 PUSH1 0x0 KECCAK256 SWAP1 PUSH1 0x5 MUL ADD PUSH1 0x4 ADD DUP4 DUP1 SLOAD PUSH2 0x1B2 SWAP1 PUSH2 0xD27 JUMP JUMPDEST DUP1 PUSH1 0x1F ADD PUSH1 0x20 DUP1 SWAP2 DIV MUL PUSH1 0x20 ADD PUSH1 0x40 MLOAD SWAP1 DUP2 ADD PUSH1 0x40 MSTORE DUP1 SWAP3 SWAP2 SWAP1 DUP2 DUP2 MSTORE PUSH1 0x20 ADD DUP3 DUP1 SLOAD PUSH2 0x1DE SWAP1 PUSH2 0xD27 JUMP JUMPDEST DUP1 ISZERO PUSH2 0x22B JUMPI DUP1 PUSH1 0x1F LT PUSH2 0x200 JUMPI PUSH2 0x100 DUP1 DUP4 SLOAD DIV MUL DUP4 MSTORE SWAP2 PUSH1 0x20 ADD SWAP2 PUSH2 0x22B JUMP JUMPDEST DUP3 ADD SWAP2 SWAP1 PUSH1 0x0 MSTORE PUSH1 0x20 PUSH1 0x0 KECCAK256 SWAP1 JUMPDEST DUP2 SLOAD DUP2 MSTORE SWAP1 PUSH1 0x1 ADD SWAP1 PUSH1 0x20 ADD DUP1 DUP4 GT PUSH2 0x20E JUMPI DUP3 SWAP1 SUB PUSH1 0x1F AND DUP3 ADD SWAP2 JUMPDEST POP POP POP POP POP SWAP4 POP DUP3 DUP1 SLOAD PUSH2 0x23E SWAP1 PUSH2 0xD27 JUMP JUMPDEST DUP1 PUSH1 0x1F ADD PUSH1 0x20 DUP1 SWAP2 DIV MUL PUSH1 0x20 ADD PUSH1 0x40 MLOAD SWAP1 DUP2 ADD PUSH1 0x40 MSTORE DUP1 SWAP3 SWAP2 SWAP1 DUP2 DUP2 MSTORE PUSH1 0x20 ADD DUP3 DUP1 SLOAD PUSH2 0x26A SWAP1 PUSH2 0xD27 JUMP JUMPDEST DUP1 ISZERO PUSH2 0x2B7 JUMPI DUP1 PUSH1 0x1F LT PUSH2 0x28C JUMPI PUSH2 0x100 DUP1 DUP4 SLOAD DIV MUL DUP4 MSTORE SWAP2 PUSH1 0x20 ADD SWAP2 PUSH2 0x2B7 JUMP JUMPDEST DUP3 ADD SWAP2 SWAP1 PUSH1 0x0 MSTORE PUSH1 0x20 PUSH1 0x0 KECCAK256 SWAP1 JUMPDEST DUP2 SLOAD DUP2 MSTORE SWAP1 PUSH1 0x1 ADD SWAP1 PUSH1 0x20 ADD DUP1 DUP4 GT PUSH2 0x29A JUMPI DUP3 SWAP1 SUB PUSH1 0x1F AND DUP3 ADD SWAP2 JUMPDEST POP POP POP POP POP SWAP3 POP DUP2 DUP1 SLOAD DUP1 PUSH1 0x20 MUL PUSH1 0x20 ADD PUSH1 0x40 MLOAD SWAP1 DUP2 ADD PUSH1 0x40 MSTORE DUP1 SWAP3 SWAP2 SWAP1 DUP2 DUP2 MSTORE PUSH1 0x20 ADD DUP3 DUP1 SLOAD DUP1 ISZERO PUSH2 0x33D JUMPI PUSH1 0x20 MUL DUP3 ADD SWAP2 SWAP1 PUSH1 0x0 MSTORE PUSH1 0x20 PUSH1 0x0 KECCAK256 SWAP1 PUSH1 0x0 SWAP1 JUMPDEST DUP3 DUP3 SWAP1 SLOAD SWAP1 PUSH2 0x100 EXP SWAP1 DIV PUSH8 0xFFFFFFFFFFFFFFFF AND PUSH8 0xFFFFFFFFFFFFFFFF AND DUP2 MSTORE PUSH1 0x20 ADD SWAP1 PUSH1 0x8 ADD SWAP1 PUSH1 0x20 DUP3 PUSH1 0x7 ADD DIV SWAP3 DUP4 ADD SWAP3 PUSH1 0x1 SUB DUP3 MUL SWAP2 POP DUP1 DUP5 GT PUSH2 0x2F8 JUMPI SWAP1 POP JUMPDEST POP POP POP POP POP SWAP2 POP DUP1 DUP1 SLOAD DUP1 PUSH1 0x20 MUL PUSH1 0x20 ADD PUSH1 0x40 MLOAD SWAP1 DUP2 ADD PUSH1 0x40 MSTORE DUP1 SWAP3 SWAP2 SWAP1 DUP2 DUP2 MSTORE PUSH1 0x20 ADD DUP3 DUP1 SLOAD DUP1 ISZERO PUSH2 0x38F JUMPI PUSH1 0x20 MUL DUP3 ADD SWAP2 SWAP1 PUSH1 0x0 MSTORE PUSH1 0x20 PUSH1 0x0 KECCAK256 SWAP1 JUMPDEST DUP2 SLOAD DUP2 MSTORE PUSH1 0x20 ADD SWAP1 PUSH1 0x1 ADD SWAP1 DUP1 DUP4 GT PUSH2 0x37B JUMPI JUMPDEST POP POP POP POP POP SWAP1 POP SWAP5 POP SWAP5 POP SWAP5 POP SWAP5 POP SWAP5 POP SWAP2 SWAP4 SWAP6 SWAP1 SWAP3 SWAP5 POP JUMP JUMPDEST POP POP JUMP JUMPDEST PUSH1 0x0 DUP4 MLOAD GT PUSH2 0x3F1 JUMPI PUSH1 0x40 MLOAD PUSH32 0x8C379A000000000000000000000000000000000000000000000000000000000 DUP2 MSTORE PUSH1 0x4 ADD PUSH2 0x3E8 SWAP1 PUSH2 0xDA4 JUMP JUMPDEST PUSH1 0x40 MLOAD DUP1 SWAP2 SUB SWAP1 REVERT JUMPDEST PUSH1 0x1 DUP2 MLOAD GT PUSH2 0x435 JUMPI PUSH1 0x40 MLOAD PUSH32 0x8C379A000000000000000000000000000000000000000000000000000000000 DUP2 MSTORE PUSH1 0x4 ADD PUSH2 0x42C SWAP1 PUSH2 0xE10 JUMP JUMPDEST PUSH1 0x40 MLOAD DUP1 SWAP2 SUB SWAP1 REVERT JUMPDEST PUSH1 0x0 DUP1 DUP1 SLOAD SWAP1 POP SWAP1 POP PUSH1 0x0 PUSH1 0x40 MLOAD DUP1 PUSH1 0xA0 ADD PUSH1 0x40 MSTORE DUP1 DUP4 DUP2 MSTORE PUSH1 0x20 ADD DUP7 DUP2 MSTORE PUSH1 0x20 ADD DUP6 DUP2 MSTORE PUSH1 0x20 ADD DUP5 MLOAD PUSH8 0xFFFFFFFFFFFFFFFF DUP2 GT ISZERO PUSH2 0x478 JUMPI PUSH2 0x477 PUSH2 0xA03 JUMP JUMPDEST JUMPDEST PUSH1 0x40 MLOAD SWAP1 DUP1 DUP3 MSTORE DUP1 PUSH1 0x20 MUL PUSH1 0x20 ADD DUP3 ADD PUSH1 0x40 MSTORE DUP1 ISZERO PUSH2 0x4A6 JUMPI DUP2 PUSH1 0x20 ADD PUSH1 0x20 DUP3 MUL DUP1 CALLDATASIZE DUP4 CALLDATACOPY DUP1 DUP3 ADD SWAP2 POP POP SWAP1 POP JUMPDEST POP DUP2 MSTORE PUSH1 0x20 ADD DUP5 DUP2 MSTORE POP SWAP1 POP PUSH1 0x0 DUP2 SWAP1 DUP1 PUSH1 0x1 DUP2 SLOAD ADD DUP1 DUP3 SSTORE DUP1 SWAP2 POP POP PUSH1 0x1 SWAP1 SUB SWAP1 PUSH1 0x0 MSTORE PUSH1 0x20 PUSH1 0x0 KECCAK256 SWAP1 PUSH1 0x5 MUL ADD PUSH1 0x0 SWAP1 SWAP2 SWAP1 SWAP2 SWAP1 SWAP2 POP PUSH1 0x0 DUP3 ADD MLOAD DUP2 PUSH1 0x0 ADD SSTORE PUSH1 0x20 DUP3 ADD MLOAD DUP2 PUSH1 0x1 ADD SWAP1 DUP2 PUSH2 0x4FD SWAP2 SWAP1 PUSH2 0xFDC JUMP JUMPDEST POP PUSH1 0x40 DUP3 ADD MLOAD DUP2 PUSH1 0x2 ADD SWAP1 DUP2 PUSH2 0x513 SWAP2 SWAP1 PUSH2 0xFDC JUMP JUMPDEST POP PUSH1 0x60 DUP3 ADD MLOAD DUP2 PUSH1 0x3 ADD SWAP1 DUP1 MLOAD SWAP1 PUSH1 0x20 ADD SWAP1 PUSH2 0x530 SWAP3 SWAP2 SWAP1 PUSH2 0x557 JUMP JUMPDEST POP PUSH1 0x80 DUP3 ADD MLOAD DUP2 PUSH1 0x4 ADD SWAP1 DUP1 MLOAD SWAP1 PUSH1 0x20 ADD SWAP1 PUSH2 0x54D SWAP3 SWAP2 SWAP1 PUSH2 0x613 JUMP JUMPDEST POP POP POP POP POP POP POP POP JUMP JUMPDEST DUP3 DUP1 SLOAD DUP3 DUP3 SSTORE SWAP1 PUSH1 0x0 MSTORE PUSH1 0x20 PUSH1 0x0 KECCAK256 SWAP1 PUSH1 0x3 ADD PUSH1 0x4 SWAP1 DIV DUP2 ADD SWAP3 DUP3 ISZERO PUSH2 0x602 JUMPI SWAP2 PUSH1 0x20 MUL DUP3 ADD PUSH1 0x0 JUMPDEST DUP4 DUP3 GT ISZERO PUSH2 0x5CC JUMPI DUP4 MLOAD DUP4 DUP3 PUSH2 0x100 EXP DUP2 SLOAD DUP2 PUSH8 0xFFFFFFFFFFFFFFFF MUL NOT AND SWAP1 DUP4 PUSH8 0xFFFFFFFFFFFFFFFF AND MUL OR SWAP1 SSTORE POP SWAP3 PUSH1 0x20 ADD SWAP3 PUSH1 0x8 ADD PUSH1 0x20 DUP2 PUSH1 0x7 ADD DIV SWAP3 DUP4 ADD SWAP3 PUSH1 0x1 SUB MUL PUSH2 0x580 JUMP JUMPDEST DUP1 ISZERO PUSH2 0x600 JUMPI DUP3 DUP2 PUSH2 0x100 EXP DUP2 SLOAD SWAP1 PUSH8 0xFFFFFFFFFFFFFFFF MUL NOT AND SWAP1 SSTORE PUSH1 0x8 ADD PUSH1 0x20 DUP2 PUSH1 0x7 ADD DIV SWAP3 DUP4 ADD SWAP3 PUSH1 0x1 SUB MUL PUSH2 0x5CC JUMP JUMPDEST POP JUMPDEST POP SWAP1 POP PUSH2 0x60F SWAP2 SWAP1 PUSH2 0x660 JUMP JUMPDEST POP SWAP1 JUMP JUMPDEST DUP3 DUP1 SLOAD DUP3 DUP3 SSTORE SWAP1 PUSH1 0x0 MSTORE PUSH1 0x20 PUSH1 0x0 KECCAK256 SWAP1 DUP2 ADD SWAP3 DUP3 ISZERO PUSH2 0x64F JUMPI SWAP2 PUSH1 0x20 MUL DUP3 ADD JUMPDEST DUP3 DUP2 GT ISZERO PUSH2 0x64E JUMPI DUP3 MLOAD DUP3 SSTORE SWAP2 PUSH1 0x20 ADD SWAP2 SWAP1 PUSH1 0x1 ADD SWAP1 PUSH2 0x633 JUMP JUMPDEST JUMPDEST POP SWAP1 POP PUSH2 0x65C SWAP2 SWAP1 PUSH2 0x67D JUMP JUMPDEST POP SWAP1 JUMP JUMPDEST JUMPDEST DUP1 DUP3 GT ISZERO PUSH2 0x679 JUMPI PUSH1 0x0 DUP2 PUSH1 0x0 SWAP1 SSTORE POP PUSH1 0x1 ADD PUSH2 0x661 JUMP JUMPDEST POP SWAP1 JUMP JUMPDEST JUMPDEST DUP1 DUP3 GT ISZERO PUSH2 0x696 JUMPI PUSH1 0x0 DUP2 PUSH1 0x0 SWAP1 SSTORE POP PUSH1 0x1 ADD PUSH2 0x67E JUMP JUMPDEST POP SWAP1 JUMP JUMPDEST PUSH1 0x0 PUSH1 0x40 MLOAD SWAP1 POP SWAP1 JUMP JUMPDEST PUSH1 0x0 DUP1 REVERT JUMPDEST PUSH1 0x0 DUP1 REVERT JUMPDEST PUSH1 0x0 PUSH8 0xFFFFFFFFFFFFFFFF DUP3 AND SWAP1 POP SWAP2 SWAP1 POP JUMP JUMPDEST PUSH2 0x6CB DUP2 PUSH2 0x6AE JUMP JUMPDEST DUP2 EQ PUSH2 0x6D6 JUMPI PUSH1 0x0 DUP1 REVERT JUMPDEST POP JUMP JUMPDEST PUSH1 0x0 DUP2 CALLDATALOAD SWAP1 POP PUSH2 0x6E8 DUP2 PUSH2 0x6C2 JUMP JUMPDEST SWAP3 SWAP2 POP POP JUMP JUMPDEST PUSH1 0x0 PUSH1 0x20 DUP3 DUP5 SUB SLT ISZERO PUSH2 0x704 JUMPI PUSH2 0x703 PUSH2 0x6A4 JUMP JUMPDEST JUMPDEST PUSH1 0x0 PUSH2 0x712 DUP5 DUP3 DUP6 ADD PUSH2 0x6D9 JUMP JUMPDEST SWAP2 POP POP SWAP3 SWAP2 POP POP JUMP JUMPDEST PUSH1 0x0 DUP2 SWAP1 POP SWAP2 SWAP1 POP JUMP JUMPDEST PUSH2 0x72E DUP2 PUSH2 0x71B JUMP JUMPDEST DUP3 MSTORE POP POP JUMP JUMPDEST PUSH1 0x0 DUP2 MLOAD SWAP1 POP SWAP2 SWAP1 POP JUMP JUMPDEST PUSH1 0x0 DUP3 DUP3 MSTORE PUSH1 0x20 DUP3 ADD SWAP1 POP SWAP3 SWAP2 POP POP JUMP JUMPDEST PUSH1 0x0 JUMPDEST DUP4 DUP2 LT ISZERO PUSH2 0x76E JUMPI DUP1 DUP3 ADD MLOAD DUP2 DUP5 ADD MSTORE PUSH1 0x20 DUP2 ADD SWAP1 POP PUSH2 0x753 JUMP JUMPDEST PUSH1 0x0 DUP5 DUP5 ADD MSTORE POP POP POP POP JUMP JUMPDEST PUSH1 0x0 PUSH1 0x1F NOT PUSH1 0x1F DUP4 ADD AND SWAP1 POP SWAP2 SWAP1 POP JUMP JUMPDEST PUSH1 0x0 PUSH2 0x796 DUP3 PUSH2 0x734 JUMP JUMPDEST PUSH2 0x7A0 DUP2 DUP6 PUSH2 0x73F JUMP JUMPDEST SWAP4 POP PUSH2 0x7B0 DUP2 DUP6 PUSH1 0x20 DUP7 ADD PUSH2 0x750 JUMP JUMPDEST PUSH2 0x7B9 DUP2 PUSH2 0x77A JUMP JUMPDEST DUP5 ADD SWAP2 POP POP SWAP3 SWAP2 POP POP JUMP JUMPDEST PUSH1 0x0 DUP2 MLOAD SWAP1 POP SWAP2 SWAP1 POP JUMP JUMPDEST PUSH1 0x0 DUP3 DUP3 MSTORE PUSH1 0x20 DUP3 ADD SWAP1 POP SWAP3 SWAP2 POP POP JUMP JUMPDEST PUSH1 0x0 DUP2 SWAP1 POP PUSH1 0x20 DUP3 ADD SWAP1 POP SWAP2 SWAP1 POP JUMP JUMPDEST PUSH2 0x7F9 DUP2 PUSH2 0x6AE JUMP JUMPDEST DUP3 MSTORE POP POP JUMP JUMPDEST PUSH1 0x0 PUSH2 0x80B DUP4 DUP4 PUSH2 0x7F0 JUMP JUMPDEST PUSH1 0x20 DUP4 ADD SWAP1 POP SWAP3 SWAP2 POP POP JUMP JUMPDEST PUSH1 0x0 PUSH1 0x20 DUP3 ADD SWAP1 POP SWAP2 SWAP1 POP JUMP JUMPDEST PUSH1 0x0 PUSH2 0x82F DUP3 PUSH2 0x7C4 JUMP JUMPDEST PUSH2 0x839 DUP2 DUP6 PUSH2 0x7CF JUMP JUMPDEST SWAP4 POP PUSH2 0x844 DUP4 PUSH2 0x7E0 JUMP JUMPDEST DUP1 PUSH1 0x0 JUMPDEST DUP4 DUP2 LT ISZERO PUSH2 0x875 JUMPI DUP2 MLOAD PUSH2 0x85C DUP9 DUP3 PUSH2 0x7FF JUMP JUMPDEST SWAP8 POP PUSH2 0x867 DUP4 PUSH2 0x817 JUMP JUMPDEST SWAP3 POP POP PUSH1 0x1 DUP2 ADD SWAP1 POP PUSH2 0x848 JUMP JUMPDEST POP DUP6 SWAP4 POP POP POP POP SWAP3 SWAP2 POP POP JUMP JUMPDEST PUSH1 0x0 DUP2 MLOAD SWAP1 POP SWAP2 SWAP1 POP JUMP JUMPDEST PUSH1 0x0 DUP3 DUP3 MSTORE PUSH1 0x20 DUP3 ADD SWAP1 POP SWAP3 SWAP2 POP POP JUMP JUMPDEST PUSH1 0x0 DUP2 SWAP1 POP PUSH1 0x20 DUP3 ADD SWAP1 POP SWAP2 SWAP1 POP JUMP JUMPDEST PUSH1 0x0 DUP2 SWAP1 POP SWAP2 SWAP1 POP JUMP JUMPDEST PUSH2 0x8C1 DUP2 PUSH2 0x8AE JUMP JUMPDEST DUP3 MSTORE POP POP JUMP JUMPDEST PUSH1 0x0 PUSH2 0x8D3 DUP4 DUP4 PUSH2 0x8B8 JUMP JUMPDEST PUSH1 0x20 DUP4 ADD SWAP1 POP SWAP3 SWAP2 POP POP JUMP JUMPDEST PUSH1 0x0 PUSH1 0x20 DUP3 ADD SWAP1 POP SWAP2 SWAP1 POP JUMP JUMPDEST PUSH1 0x0 PUSH2 0x8F7 DUP3 PUSH2 0x882 JUMP JUMPDEST PUSH2 0x901 DUP2 DUP6 PUSH2 0x88D JUMP JUMPDEST SWAP4 POP PUSH2 0x90C DUP4 PUSH2 0x89E JUMP JUMPDEST DUP1 PUSH1 0x0 JUMPDEST DUP4 DUP2 LT ISZERO PUSH2 0x93D JUMPI DUP2 MLOAD PUSH2 0x924 DUP9 DUP3 PUSH2 0x8C7 JUMP JUMPDEST SWAP8 POP PUSH2 0x92F DUP4 PUSH2 0x8DF JUMP JUMPDEST SWAP3 POP POP PUSH1 0x1 DUP2 ADD SWAP1 POP PUSH2 0x910 JUMP JUMPDEST POP DUP6 SWAP4 POP POP POP POP SWAP3 SWAP2 POP POP JUMP JUMPDEST PUSH1 0x0 PUSH1 0xA0 DUP3 ADD SWAP1 POP PUSH2 0x95F PUSH1 0x0 DUP4 ADD DUP9 PUSH2 0x725 JUMP JUMPDEST DUP2 DUP2 SUB PUSH1 0x20 DUP4 ADD MSTORE PUSH2 0x971 DUP2 DUP8 PUSH2 0x78B JUMP JUMPDEST SWAP1 POP DUP2 DUP2 SUB PUSH1 0x40 DUP4 ADD MSTORE PUSH2 0x985 DUP2 DUP7 PUSH2 0x78B JUMP JUMPDEST SWAP1 POP DUP2 DUP2 SUB PUSH1 0x60 DUP4 ADD MSTORE PUSH2 0x999 DUP2 DUP6 PUSH2 0x824 JUMP JUMPDEST SWAP1 POP DUP2 DUP2 SUB PUSH1 0x80 DUP4 ADD MSTORE PUSH2 0x9AD DUP2 DUP5 PUSH2 0x8EC JUMP JUMPDEST SWAP1 POP SWAP7 SWAP6 POP POP POP POP POP POP JUMP JUMPDEST PUSH1 0x0 DUP1 PUSH1 0x40 DUP4 DUP6 SUB SLT ISZERO PUSH2 0x9D0 JUMPI PUSH2 0x9CF PUSH2 0x6A4 JUMP JUMPDEST JUMPDEST PUSH1 0x0 PUSH2 0x9DE DUP6 DUP3 DUP7 ADD PUSH2 0x6D9 JUMP JUMPDEST SWAP3 POP POP PUSH1 0x20 PUSH2 0x9EF DUP6 DUP3 DUP7 ADD PUSH2 0x6D9 JUMP JUMPDEST SWAP2 POP POP SWAP3 POP SWAP3 SWAP1 POP JUMP JUMPDEST PUSH1 0x0 DUP1 REVERT JUMPDEST PUSH1 0x0 DUP1 REVERT JUMPDEST PUSH32 0x4E487B7100000000000000000000000000000000000000000000000000000000 PUSH1 0x0 MSTORE PUSH1 0x41 PUSH1 0x4 MSTORE PUSH1 0x24 PUSH1 0x0 REVERT JUMPDEST PUSH2 0xA3B DUP3 PUSH2 0x77A JUMP JUMPDEST DUP2 ADD DUP2 DUP2 LT PUSH8 0xFFFFFFFFFFFFFFFF DUP3 GT OR ISZERO PUSH2 0xA5A JUMPI PUSH2 0xA59 PUSH2 0xA03 JUMP JUMPDEST JUMPDEST DUP1 PUSH1 0x40 MSTORE POP POP POP JUMP JUMPDEST PUSH1 0x0 PUSH2 0xA6D PUSH2 0x69A JUMP JUMPDEST SWAP1 POP PUSH2 0xA79 DUP3 DUP3 PUSH2 0xA32 JUMP JUMPDEST SWAP2 SWAP1 POP JUMP JUMPDEST PUSH1 0x0 PUSH8 0xFFFFFFFFFFFFFFFF DUP3 GT ISZERO PUSH2 0xA99 JUMPI PUSH2 0xA98 PUSH2 0xA03 JUMP JUMPDEST JUMPDEST PUSH2 0xAA2 DUP3 PUSH2 0x77A JUMP JUMPDEST SWAP1 POP PUSH1 0x20 DUP2 ADD SWAP1 POP SWAP2 SWAP1 POP JUMP JUMPDEST DUP3 DUP2 DUP4 CALLDATACOPY PUSH1 0x0 DUP4 DUP4 ADD MSTORE POP POP POP JUMP JUMPDEST PUSH1 0x0 PUSH2 0xAD1 PUSH2 0xACC DUP5 PUSH2 0xA7E JUMP JUMPDEST PUSH2 0xA63 JUMP JUMPDEST SWAP1 POP DUP3 DUP2 MSTORE PUSH1 0x20 DUP2 ADD DUP5 DUP5 DUP5 ADD GT ISZERO PUSH2 0xAED JUMPI PUSH2 0xAEC PUSH2 0x9FE JUMP JUMPDEST JUMPDEST PUSH2 0xAF8 DUP5 DUP3 DUP6 PUSH2 0xAAF JUMP JUMPDEST POP SWAP4 SWAP3 POP POP POP JUMP JUMPDEST PUSH1 0x0 DUP3 PUSH1 0x1F DUP4 ADD SLT PUSH2 0xB15 JUMPI PUSH2 0xB14 PUSH2 0x9F9 JUMP JUMPDEST JUMPDEST DUP2 CALLDATALOAD PUSH2 0xB25 DUP5 DUP3 PUSH1 0x20 DUP7 ADD PUSH2 0xABE JUMP JUMPDEST SWAP2 POP POP SWAP3 SWAP2 POP POP JUMP JUMPDEST PUSH1 0x0 PUSH8 0xFFFFFFFFFFFFFFFF DUP3 GT ISZERO PUSH2 0xB49 JUMPI PUSH2 0xB48 PUSH2 0xA03 JUMP JUMPDEST JUMPDEST PUSH1 0x20 DUP3 MUL SWAP1 POP PUSH1 0x20 DUP2 ADD SWAP1 POP SWAP2 SWAP1 POP JUMP JUMPDEST PUSH1 0x0 DUP1 REVERT JUMPDEST PUSH2 0xB68 DUP2 PUSH2 0x8AE JUMP JUMPDEST DUP2 EQ PUSH2 0xB73 JUMPI PUSH1 0x0 DUP1 REVERT JUMPDEST POP JUMP JUMPDEST PUSH1 0x0 DUP2 CALLDATALOAD SWAP1 POP PUSH2 0xB85 DUP2 PUSH2 0xB5F JUMP JUMPDEST SWAP3 SWAP2 POP POP JUMP JUMPDEST PUSH1 0x0 PUSH2 0xB9E PUSH2 0xB99 DUP5 PUSH2 0xB2E JUMP JUMPDEST PUSH2 0xA63 JUMP JUMPDEST SWAP1 POP DUP1 DUP4 DUP3 MSTORE PUSH1 0x20 DUP3 ADD SWAP1 POP PUSH1 0x20 DUP5 MUL DUP4 ADD DUP6 DUP2 GT ISZERO PUSH2 0xBC1 JUMPI PUSH2 0xBC0 PUSH2 0xB5A JUMP JUMPDEST JUMPDEST DUP4 JUMPDEST DUP2 DUP2 LT ISZERO PUSH2 0xBEA JUMPI DUP1 PUSH2 0xBD6 DUP9 DUP3 PUSH2 0xB76 JUMP JUMPDEST DUP5 MSTORE PUSH1 0x20 DUP5 ADD SWAP4 POP POP PUSH1 0x20 DUP2 ADD SWAP1 POP PUSH2 0xBC3 JUMP JUMPDEST POP POP POP SWAP4 SWAP3 POP POP POP JUMP JUMPDEST PUSH1 0x0 DUP3 PUSH1 0x1F DUP4 ADD SLT PUSH2 0xC09 JUMPI PUSH2 0xC08 PUSH2 0x9F9 JUMP JUMPDEST JUMPDEST DUP2 CALLDATALOAD PUSH2 0xC19 DUP5 DUP3 PUSH1 0x20 DUP7 ADD PUSH2 0xB8B JUMP JUMPDEST SWAP2 POP POP SWAP3 SWAP2 POP POP JUMP JUMPDEST PUSH1 0x0 DUP1 PUSH1 0x0 PUSH1 0x60 DUP5 DUP7 SUB SLT ISZERO PUSH2 0xC3B JUMPI PUSH2 0xC3A PUSH2 0x6A4 JUMP JUMPDEST JUMPDEST PUSH1 0x0 DUP5 ADD CALLDATALOAD PUSH8 0xFFFFFFFFFFFFFFFF DUP2 GT ISZERO PUSH2 0xC59 JUMPI PUSH2 0xC58 PUSH2 0x6A9 JUMP JUMPDEST JUMPDEST PUSH2 0xC65 DUP7 DUP3 DUP8 ADD PUSH2 0xB00 JUMP JUMPDEST SWAP4 POP POP PUSH1 0x20 DUP5 ADD CALLDATALOAD PUSH8 0xFFFFFFFFFFFFFFFF DUP2 GT ISZERO PUSH2 0xC86 JUMPI PUSH2 0xC85 PUSH2 0x6A9 JUMP JUMPDEST JUMPDEST PUSH2 0xC92 DUP7 DUP3 DUP8 ADD PUSH2 0xB00 JUMP JUMPDEST SWAP3 POP POP PUSH1 0x40 DUP5 ADD CALLDATALOAD PUSH8 0xFFFFFFFFFFFFFFFF DUP2 GT ISZERO PUSH2 0xCB3 JUMPI PUSH2 0xCB2 PUSH2 0x6A9 JUMP JUMPDEST JUMPDEST PUSH2 0xCBF DUP7 DUP3 DUP8 ADD PUSH2 0xBF4 JUMP JUMPDEST SWAP2 POP POP SWAP3 POP SWAP3 POP SWAP3 JUMP JUMPDEST PUSH32 0x4E487B7100000000000000000000000000000000000000000000000000000000 PUSH1 0x0 MSTORE PUSH1 0x32 PUSH1 0x4 MSTORE PUSH1 0x24 PUSH1 0x0 REVERT JUMPDEST PUSH32 0x4E487B7100000000000000000000000000000000000000000000000000000000 PUSH1 0x0 MSTORE PUSH1 0x22 PUSH1 0x4 MSTORE PUSH1 0x24 PUSH1 0x0 REVERT JUMPDEST PUSH1 0x0 PUSH1 0x2 DUP3 DIV SWAP1 POP PUSH1 0x1 DUP3 AND DUP1 PUSH2 0xD3F JUMPI PUSH1 0x7F DUP3 AND SWAP2 POP JUMPDEST PUSH1 0x20 DUP3 LT DUP2 SUB PUSH2 0xD52 JUMPI PUSH2 0xD51 PUSH2 0xCF8 JUMP JUMPDEST JUMPDEST POP SWAP2 SWAP1 POP JUMP JUMPDEST PUSH32 0x456D707479207175657374696F6E000000000000000000000000000000000000 PUSH1 0x0 DUP3 ADD MSTORE POP JUMP JUMPDEST PUSH1 0x0 PUSH2 0xD8E PUSH1 0xE DUP4 PUSH2 0x73F JUMP JUMPDEST SWAP2 POP PUSH2 0xD99 DUP3 PUSH2 0xD58 JUMP JUMPDEST PUSH1 0x20 DUP3 ADD SWAP1 POP SWAP2 SWAP1 POP JUMP JUMPDEST PUSH1 0x0 PUSH1 0x20 DUP3 ADD SWAP1 POP DUP2 DUP2 SUB PUSH1 0x0 DUP4 ADD MSTORE PUSH2 0xDBD DUP2 PUSH2 0xD81 JUMP JUMPDEST SWAP1 POP SWAP2 SWAP1 POP JUMP JUMPDEST PUSH32 0x4174206C656173742032206F7074696F6E732072657175697265640000000000 PUSH1 0x0 DUP3 ADD MSTORE POP JUMP JUMPDEST PUSH1 0x0 PUSH2 0xDFA PUSH1 0x1B DUP4 PUSH2 0x73F JUMP JUMPDEST SWAP2 POP PUSH2 0xE05 DUP3 PUSH2 0xDC4 JUMP JUMPDEST PUSH1 0x20 DUP3 ADD SWAP1 POP SWAP2 SWAP1 POP JUMP JUMPDEST PUSH1 0x0 PUSH1 0x20 DUP3 ADD SWAP1 POP DUP2 DUP2 SUB PUSH1 0x0 DUP4 ADD MSTORE PUSH2 0xE29 DUP2 PUSH2 0xDED JUMP JUMPDEST SWAP1 POP SWAP2 SWAP1 POP JUMP JUMPDEST PUSH1 0x0 DUP2 SWAP1 POP DUP2 PUSH1 0x0 MSTORE PUSH1 0x20 PUSH1 0x0 KECCAK256 SWAP1 POP SWAP2 SWAP1 POP JUMP JUMPDEST PUSH1 0x0 PUSH1 0x20 PUSH1 0x1F DUP4 ADD DIV SWAP1 POP SWAP2 SWAP1 POP JUMP JUMPDEST PUSH1 0x0 DUP3 DUP3 SHL SWAP1 POP SWAP3 SWAP2 POP POP JUMP JUMPDEST PUSH1 0x0 PUSH1 0x8 DUP4 MUL PUSH2 0xE92 PUSH32 0xFFFFFFFFFFFFFFFFFFFFFFFFFFFFFFFFFFFFFFFFFFFFFFFFFFFFFFFFFFFFFFFF DUP3 PUSH2 0xE55 JUMP JUMPDEST PUSH2 0xE9C DUP7 DUP4 PUSH2 0xE55 JUMP JUMPDEST SWAP6 POP DUP1 NOT DUP5 AND SWAP4 POP DUP1 DUP7 AND DUP5 OR SWAP3 POP POP POP SWAP4 SWAP3 POP POP POP JUMP JUMPDEST PUSH1 0x0 DUP2 SWAP1 POP SWAP2 SWAP1 POP JUMP JUMPDEST PUSH1 0x0 PUSH2 0xED9 PUSH2 0xED4 PUSH2 0xECF DUP5 PUSH2 0x71B JUMP JUMPDEST PUSH2 0xEB4 JUMP JUMPDEST PUSH2 0x71B JUMP JUMPDEST SWAP1 POP SWAP2 SWAP1 POP JUMP JUMPDEST PUSH1 0x0 DUP2 SWAP1 POP SWAP2 SWAP1 POP JUMP JUMPDEST PUSH2 0xEF3 DUP4 PUSH2 0xEBE JUMP JUMPDEST PUSH2 0xF07 PUSH2 0xEFF DUP3 PUSH2 0xEE0 JUMP JUMPDEST DUP5 DUP5 SLOAD PUSH2 0xE62 JUMP JUMPDEST DUP3 SSTORE POP POP POP POP JUMP JUMPDEST PUSH1 0x0 SWAP1 JUMP JUMPDEST PUSH2 0xF1C PUSH2 0xF0F JUMP JUMPDEST PUSH2 0xF27 DUP2 DUP5 DUP5 PUSH2 0xEEA JUMP JUMPDEST POP POP POP JUMP JUMPDEST JUMPDEST DUP2 DUP2 LT ISZERO PUSH2 0xF4B JUMPI PUSH2 0xF40 PUSH1 0x0 DUP3 PUSH2 0xF14 JUMP JUMPDEST PUSH1 0x1 DUP2 ADD SWAP1 POP PUSH2 0xF2D JUMP JUMPDEST POP POP JUMP JUMPDEST PUSH1 0x1F DUP3 GT ISZERO PUSH2 0xF90 JUMPI PUSH2 0xF61 DUP2 PUSH2 0xE30 JUMP JUMPDEST PUSH2 0xF6A DUP5 PUSH2 0xE45 JUMP JUMPDEST DUP2 ADD PUSH1 0x20 DUP6 LT ISZERO PUSH2 0xF79 JUMPI DUP2 SWAP1 POP JUMPDEST PUSH2 0xF8D PUSH2 0xF85 DUP6 PUSH2 0xE45 JUMP JUMPDEST DUP4 ADD DUP3 PUSH2 0xF2C JUMP JUMPDEST POP POP JUMPDEST POP POP POP JUMP JUMPDEST PUSH1 0x0 DUP3 DUP3 SHR SWAP1 POP SWAP3 SWAP2 POP POP JUMP JUMPDEST PUSH1 0x0 PUSH2 0xFB3 PUSH1 0x0 NOT DUP5 PUSH1 0x8 MUL PUSH2 0xF95 JUMP JUMPDEST NOT DUP1 DUP4 AND SWAP2 POP POP SWAP3 SWAP2 POP POP JUMP JUMPDEST PUSH1 0x0 PUSH2 0xFCC DUP4 DUP4 PUSH2 0xFA2 JUMP JUMPDEST SWAP2 POP DUP3 PUSH1 0x2 MUL DUP3 OR SWAP1 POP SWAP3 SWAP2 POP POP JUMP JUMPDEST PUSH2 0xFE5 DUP3 PUSH2 0x734 JUMP JUMPDEST PUSH8 0xFFFFFFFFFFFFFFFF DUP2 GT ISZERO PUSH2 0xFFE JUMPI PUSH2 0xFFD PUSH2 0xA03 JUMP JUMPDEST JUMPDEST PUSH2 0x1008 DUP3 SLOAD PUSH2 0xD27 JUMP JUMPDEST PUSH2 0x1013 DUP3 DUP3 DUP6 PUSH2 0xF4F JUMP JUMPDEST PUSH1 0x0 PUSH1 0x20 SWAP1 POP PUSH1 0x1F DUP4 GT PUSH1 0x1 DUP2 EQ PUSH2 0x1046 JUMPI PUSH1 0x0 DUP5 ISZERO PUSH2 0x1034 JUMPI DUP3 DUP8 ADD MLOAD SWAP1 POP JUMPDEST PUSH2 0x103E DUP6 DUP3 PUSH2 0xFC0 JUMP JUMPDEST DUP7 SSTORE POP PUSH2 0x10A6 JUMP JUMPDEST PUSH1 0x1F NOT DUP5 AND PUSH2 0x1054 DUP7 PUSH2 0xE30 JUMP JUMPDEST PUSH1 0x0 JUMPDEST DUP3 DUP2 LT ISZERO PUSH2 0x107C JUMPI DUP5 DUP10 ADD MLOAD DUP3 SSTORE PUSH1 0x1 DUP3 ADD SWAP2 POP PUSH1 0x20 DUP6 ADD SWAP5 POP PUSH1 0x20 DUP2 ADD SWAP1 POP PUSH2 0x1057 JUMP JUMPDEST DUP7 DUP4 LT ISZERO PUSH2 0x1099 JUMPI DUP5 DUP10 ADD MLOAD PUSH2 0x1095 PUSH1 0x1F DUP10 AND DUP3 PUSH2 0xFA2 JUMP JUMPDEST DUP4 SSTORE POP JUMPDEST PUSH1 0x1 PUSH1 0x2 DUP9 MUL ADD DUP9 SSTORE POP POP POP JUMPDEST POP POP POP POP POP POP JUMP INVALID LOG2 PUSH5 0x6970667358 0x22 SLT KECCAK256 0x2F TIMESTAMP 0xD2 EXTCODECOPY PUSH32 0xF85A6BA4E30AF572F18FC2AFBE4272F734BCB5BF9CAE0A0661B50164736F6C63 NUMBER STOP ADDMOD LT STOP CALLER "
				},
				"gasEstimates": {
					"creation": {
						"codeDepositCost": "864800",
						"executionCost": "903",
						"totalCost": "865703"
					},
					"external": {
						"createPoll(string,string,bytes32[])": "infinite",
						"getPoll(uint64)": "infinite",
						"vote(uint64,uint64)": "infinite"
					}
				},
				"methodIdentifiers": {
					"createPoll(string,string,bytes32[])": "7ba91041",
					"getPoll(uint64)": "157bd75d",
					"vote(uint64,uint64)": "3d51e9d9"
				}
			},
			"storageLayout": {
				"storage": [
					{
						"astId": 28,
						"contract": "poll.sol:PollContract",
						"label": "polls",
						"offset": 0,
						"slot": "0",
						"type": "t_array(t_struct(Poll)14_storage)dyn_storage"
					},
					{
						"astId": 33,
						"contract": "poll.sol:PollContract",
						"label": "voters",
						"offset": 0,
						"slot": "1",
						"type": "t_mapping(t_address,t_struct(Voter)24_storage)"
					}
				],
				"types": {
					"t_address": {
						"encoding": "inplace",
						"label": "address",
						"numberOfBytes": "20"
					},
					"t_array(t_bytes32)dyn_storage": {
						"base": "t_bytes32",
						"encoding": "dynamic_array",
						"label": "bytes32[]",
						"numberOfBytes": "32"
					},
					"t_array(t_struct(Poll)14_storage)dyn_storage": {
						"base": "t_struct(Poll)14_storage",
						"encoding": "dynamic_array",
						"label": "struct PollContract.Poll[]",
						"numberOfBytes": "32"
					},
					"t_array(t_uint256)dyn_storage": {
						"base": "t_uint256",
						"encoding": "dynamic_array",
						"label": "uint256[]",
						"numberOfBytes": "32"
					},
					"t_array(t_uint64)dyn_storage": {
						"base": "t_uint64",
						"encoding": "dynamic_array",
						"label": "uint64[]",
						"numberOfBytes": "32"
					},
					"t_bool": {
						"encoding": "inplace",
						"label": "bool",
						"numberOfBytes": "1"
					},
					"t_bytes32": {
						"encoding": "inplace",
						"label": "bytes32",
						"numberOfBytes": "32"
					},
					"t_mapping(t_address,t_struct(Voter)24_storage)": {
						"encoding": "mapping",
						"key": "t_address",
						"label": "mapping(address => struct PollContract.Voter)",
						"numberOfBytes": "32",
						"value": "t_struct(Voter)24_storage"
					},
					"t_mapping(t_uint256,t_bool)": {
						"encoding": "mapping",
						"key": "t_uint256",
						"label": "mapping(uint256 => bool)",
						"numberOfBytes": "32",
						"value": "t_bool"
					},
					"t_string_storage": {
						"encoding": "bytes",
						"label": "string",
						"numberOfBytes": "32"
					},
					"t_struct(Poll)14_storage": {
						"encoding": "inplace",
						"label": "struct PollContract.Poll",
						"members": [
							{
								"astId": 3,
								"contract": "poll.sol:PollContract",
								"label": "id",
								"offset": 0,
								"slot": "0",
								"type": "t_uint256"
							},
							{
								"astId": 5,
								"contract": "poll.sol:PollContract",
								"label": "question",
								"offset": 0,
								"slot": "1",
								"type": "t_string_storage"
							},
							{
								"astId": 7,
								"contract": "poll.sol:PollContract",
								"label": "thumbnail",
								"offset": 0,
								"slot": "2",
								"type": "t_string_storage"
							},
							{
								"astId": 10,
								"contract": "poll.sol:PollContract",
								"label": "votes",
								"offset": 0,
								"slot": "3",
								"type": "t_array(t_uint64)dyn_storage"
							},
							{
								"astId": 13,
								"contract": "poll.sol:PollContract",
								"label": "options",
								"offset": 0,
								"slot": "4",
								"type": "t_array(t_bytes32)dyn_storage"
							}
						],
						"numberOfBytes": "160"
					},
					"t_struct(Voter)24_storage": {
						"encoding": "inplace",
						"label": "struct PollContract.Voter",
						"members": [
							{
								"astId": 16,
								"contract": "poll.sol:PollContract",
								"label": "id",
								"offset": 0,
								"slot": "0",
								"type": "t_address"
							},
							{
								"astId": 19,
								"contract": "poll.sol:PollContract",
								"label": "votedIds",
								"offset": 0,
								"slot": "1",
								"type": "t_array(t_uint256)dyn_storage"
							},
							{
								"astId": 23,
								"contract": "poll.sol:PollContract",
								"label": "votedMap",
								"offset": 0,
								"slot": "2",
								"type": "t_mapping(t_uint256,t_bool)"
							}
						],
						"numberOfBytes": "96"
					},
					"t_uint256": {
						"encoding": "inplace",
						"label": "uint256",
						"numberOfBytes": "32"
					},
					"t_uint64": {
						"encoding": "inplace",
						"label": "uint64",
						"numberOfBytes": "8"
					}
				}
			},
			"userdoc": {
				"kind": "user",
				"methods": {},
				"version": 1
			}
		}
	}
}