{
	"poll.sol": {
		"PollContract": {
			"abi": [
				{
					"inputs": [
						{
							"internalType": "string",
							"name": "_question",
							"type": "string"
						},
						{
							"internalType": "string",
							"name": "_thumb",
							"type": "string"
						},
						{
							"internalType": "bytes32[]",
							"name": "_options",
							"type": "bytes32[]"
						}
					],
					"name": "createPoll",
					"outputs": [],
					"stateMutability": "nonpayable",
					"type": "function"
				},
				{
					"inputs": [
						{
							"internalType": "uint64",
							"name": "_pollId",
							"type": "uint64"
						}
					],
					"name": "getPoll",
					"outputs": [
						{
							"internalType": "uint256",
							"name": "",
							"type": "uint256"
						},
						{
							"internalType": "string",
							"name": "",
							"type": "string"
						},
						{
							"internalType": "string",
							"name": "",
							"type": "string"
						},
						{
							"internalType": "uint64[]",
							"name": "",
							"type": "uint64[]"
						},
						{
							"internalType": "bytes32[]",
							"name": "",
							"type": "bytes32[]"
						}
					],
					"stateMutability": "view",
					"type": "function"
				}
			],
			"devdoc": {
				"kind": "dev",
				"methods": {},
				"version": 1
			},
			"evm": {
				"assembly": "    /* \"poll.sol\":26:1270  contract PollContract {... */\n  mstore(0x40, 0x80)\n  callvalue\n  dup1\n  iszero\n  tag_1\n  jumpi\n  0x00\n  dup1\n  revert\ntag_1:\n  pop\n  dataSize(sub_0)\n  dup1\n  dataOffset(sub_0)\n  0x00\n  codecopy\n  0x00\n  return\nstop\n\nsub_0: assembly {\n        /* \"poll.sol\":26:1270  contract PollContract {... */\n      mstore(0x40, 0x80)\n      callvalue\n      dup1\n      iszero\n      tag_1\n      jumpi\n      0x00\n      dup1\n      revert\n    tag_1:\n      pop\n      jumpi(tag_2, lt(calldatasize, 0x04))\n      shr(0xe0, calldataload(0x00))\n      dup1\n      0x157bd75d\n      eq\n      tag_3\n      jumpi\n      dup1\n      0x7ba91041\n      eq\n      tag_4\n      jumpi\n    tag_2:\n      0x00\n      dup1\n      revert\n        /* \"poll.sol\":929:1268  function getPoll(uint64 _pollId) external view returns(uint256, string memory, string memory, uint64[] memory, bytes32[] memory) {... */\n    tag_3:\n      tag_5\n      0x04\n      dup1\n      calldatasize\n      sub\n      dup2\n      add\n      swap1\n      tag_6\n      swap2\n      swap1\n      tag_7\n      jump\t// in\n    tag_6:\n      tag_8\n      jump\t// in\n    tag_5:\n      mload(0x40)\n      tag_9\n      swap6\n      swap5\n      swap4\n      swap3\n      swap2\n      swap1\n      tag_10\n      jump\t// in\n    tag_9:\n      mload(0x40)\n      dup1\n      swap2\n      sub\n      swap1\n      return\n        /* \"poll.sol\":393:923  function createPoll(string memory _question, string memory _thumb, bytes32[] memory _options) public  {... */\n    tag_4:\n      tag_11\n      0x04\n      dup1\n      calldatasize\n      sub\n      dup2\n      add\n      swap1\n      tag_12\n      swap2\n      swap1\n      tag_13\n      jump\t// in\n    tag_12:\n      tag_14\n      jump\t// in\n    tag_11:\n      stop\n        /* \"poll.sol\":929:1268  function getPoll(uint64 _pollId) external view returns(uint256, string memory, string memory, uint64[] memory, bytes32[] memory) {... */\n    tag_8:\n        /* \"poll.sol\":984:991  uint256 */\n      0x00\n        /* \"poll.sol\":993:1006  string memory */\n      0x60\n        /* \"poll.sol\":1008:1021  string memory */\n      dup1\n        /* \"poll.sol\":1023:1038  uint64[] memory */\n      0x60\n        /* \"poll.sol\":1040:1056  bytes32[] memory */\n      dup1\n        /* \"poll.sol\":1089:1094  polls */\n      0x00\n        /* \"poll.sol\":1095:1102  _pollId */\n      dup7\n        /* \"poll.sol\":1089:1103  polls[_pollId] */\n      0xffffffffffffffff\n      and\n      dup2\n      sload\n      dup2\n      lt\n      tag_16\n      jumpi\n      tag_17\n      tag_18\n      jump\t// in\n    tag_17:\n    tag_16:\n      swap1\n      0x00\n      mstore\n      keccak256(0x00, 0x20)\n      swap1\n      0x05\n      mul\n      add\n        /* \"poll.sol\":1089:1106  polls[_pollId].id */\n      0x00\n      add\n      sload\n        /* \"poll.sol\":1120:1125  polls */\n      0x00\n        /* \"poll.sol\":1126:1133  _pollId */\n      dup8\n        /* \"poll.sol\":1120:1134  polls[_pollId] */\n      0xffffffffffffffff\n      and\n      dup2\n      sload\n      dup2\n      lt\n      tag_20\n      jumpi\n      tag_21\n      tag_18\n      jump\t// in\n    tag_21:\n    tag_20:\n      swap1\n      0x00\n      mstore\n      keccak256(0x00, 0x20)\n      swap1\n      0x05\n      mul\n      add\n        /* \"poll.sol\":1120:1143  polls[_pollId].question */\n      0x01\n      add\n        /* \"poll.sol\":1157:1162  polls */\n      0x00\n        /* \"poll.sol\":1163:1170  _pollId */\n      dup9\n        /* \"poll.sol\":1157:1171  polls[_pollId] */\n      0xffffffffffffffff\n      and\n      dup2\n      sload\n      dup2\n      lt\n      tag_23\n      jumpi\n      tag_24\n      tag_18\n      jump\t// in\n    tag_24:\n    tag_23:\n      swap1\n      0x00\n      mstore\n      keccak256(0x00, 0x20)\n      swap1\n      0x05\n      mul\n      add\n        /* \"poll.sol\":1157:1181  polls[_pollId].thumbnail */\n      0x02\n      add\n        /* \"poll.sol\":1195:1200  polls */\n      0x00\n        /* \"poll.sol\":1201:1208  _pollId */\n      dup10\n        /* \"poll.sol\":1195:1209  polls[_pollId] */\n      0xffffffffffffffff\n      and\n      dup2\n      sload\n      dup2\n      lt\n      tag_26\n      jumpi\n      tag_27\n      tag_18\n      jump\t// in\n    tag_27:\n    tag_26:\n      swap1\n      0x00\n      mstore\n      keccak256(0x00, 0x20)\n      swap1\n      0x05\n      mul\n      add\n        /* \"poll.sol\":1195:1215  polls[_pollId].votes */\n      0x03\n      add\n        /* \"poll.sol\":1229:1234  polls */\n      0x00\n        /* \"poll.sol\":1235:1242  _pollId */\n      dup11\n        /* \"poll.sol\":1229:1243  polls[_pollId] */\n      0xffffffffffffffff\n      and\n      dup2\n      sload\n      dup2\n      lt\n      tag_29\n      jumpi\n      tag_30\n      tag_18\n      jump\t// in\n    tag_30:\n    tag_29:\n      swap1\n      0x00\n      mstore\n      keccak256(0x00, 0x20)\n      swap1\n      0x05\n      mul\n      add\n        /* \"poll.sol\":1229:1251  polls[_pollId].options */\n      0x04\n      add\n        /* \"poll.sol\":1068:1261  return (... */\n      dup4\n      dup1\n      sload\n      tag_32\n      swap1\n      tag_33\n      jump\t// in\n    tag_32:\n      dup1\n      0x1f\n      add\n      0x20\n      dup1\n      swap2\n      div\n      mul\n      0x20\n      add\n      mload(0x40)\n      swap1\n      dup2\n      add\n      0x40\n      mstore\n      dup1\n      swap3\n      swap2\n      swap1\n      dup2\n      dup2\n      mstore\n      0x20\n      add\n      dup3\n      dup1\n      sload\n      tag_34\n      swap1\n      tag_33\n      jump\t// in\n    tag_34:\n      dup1\n      iszero\n      tag_35\n      jumpi\n      dup1\n      0x1f\n      lt\n      tag_36\n      jumpi\n      0x0100\n      dup1\n      dup4\n      sload\n      div\n      mul\n      dup4\n      mstore\n      swap2\n      0x20\n      add\n      swap2\n      jump(tag_35)\n    tag_36:\n      dup3\n      add\n      swap2\n      swap1\n      0x00\n      mstore\n      keccak256(0x00, 0x20)\n      swap1\n    tag_37:\n      dup2\n      sload\n      dup2\n      mstore\n      swap1\n      0x01\n      add\n      swap1\n      0x20\n      add\n      dup1\n      dup4\n      gt\n      tag_37\n      jumpi\n      dup3\n      swap1\n      sub\n      0x1f\n      and\n      dup3\n      add\n      swap2\n    tag_35:\n      pop\n      pop\n      pop\n      pop\n      pop\n      swap4\n      pop\n      dup3\n      dup1\n      sload\n      tag_38\n      swap1\n      tag_33\n      jump\t// in\n    tag_38:\n      dup1\n      0x1f\n      add\n      0x20\n      dup1\n      swap2\n      div\n      mul\n      0x20\n      add\n      mload(0x40)\n      swap1\n      dup2\n      add\n      0x40\n      mstore\n      dup1\n      swap3\n      swap2\n      swap1\n      dup2\n      dup2\n      mstore\n      0x20\n      add\n      dup3\n      dup1\n      sload\n      tag_39\n      swap1\n      tag_33\n      jump\t// in\n    tag_39:\n      dup1\n      iszero\n      tag_40\n      jumpi\n      dup1\n      0x1f\n      lt\n      tag_41\n      jumpi\n      0x0100\n      dup1\n      dup4\n      sload\n      div\n      mul\n      dup4\n      mstore\n      swap2\n      0x20\n      add\n      swap2\n      jump(tag_40)\n    tag_41:\n      dup3\n      add\n      swap2\n      swap1\n      0x00\n      mstore\n      keccak256(0x00, 0x20)\n      swap1\n    tag_42:\n      dup2\n      sload\n      dup2\n      mstore\n      swap1\n      0x01\n      add\n      swap1\n      0x20\n      add\n      dup1\n      dup4\n      gt\n      tag_42\n      jumpi\n      dup3\n      swap1\n      sub\n      0x1f\n      and\n      dup3\n      add\n      swap2\n    tag_40:\n      pop\n      pop\n      pop\n      pop\n      pop\n      swap3\n      pop\n      dup2\n      dup1\n      sload\n      dup1\n      0x20\n      mul\n      0x20\n      add\n      mload(0x40)\n      swap1\n      dup2\n      add\n      0x40\n      mstore\n      dup1\n      swap3\n      swap2\n      swap1\n      dup2\n      dup2\n      mstore\n      0x20\n      add\n      dup3\n      dup1\n      sload\n      dup1\n      iszero\n      tag_43\n      jumpi\n      0x20\n      mul\n      dup3\n      add\n      swap2\n      swap1\n      0x00\n      mstore\n      keccak256(0x00, 0x20)\n      swap1\n      0x00\n      swap1\n    tag_44:\n      dup3\n      dup3\n      swap1\n      sload\n      swap1\n      0x0100\n      exp\n      swap1\n      div\n      0xffffffffffffffff\n      and\n      0xffffffffffffffff\n      and\n      dup2\n      mstore\n      0x20\n      add\n      swap1\n      0x08\n      add\n      swap1\n      0x20\n      dup3\n      0x07\n      add\n      div\n      swap3\n      dup4\n      add\n      swap3\n      0x01\n      sub\n      dup3\n      mul\n      swap2\n      pop\n      dup1\n      dup5\n      gt\n      tag_44\n      jumpi\n      swap1\n      pop\n    tag_43:\n      pop\n      pop\n      pop\n      pop\n      pop\n      swap2\n      pop\n      dup1\n      dup1\n      sload\n      dup1\n      0x20\n      mul\n      0x20\n      add\n      mload(0x40)\n      swap1\n      dup2\n      add\n      0x40\n      mstore\n      dup1\n      swap3\n      swap2\n      swap1\n      dup2\n      dup2\n      mstore\n      0x20\n      add\n      dup3\n      dup1\n      sload\n      dup1\n      iszero\n      tag_45\n      jumpi\n      0x20\n      mul\n      dup3\n      add\n      swap2\n      swap1\n      0x00\n      mstore\n      keccak256(0x00, 0x20)\n      swap1\n    tag_46:\n      dup2\n      sload\n      dup2\n      mstore\n      0x20\n      add\n      swap1\n      0x01\n      add\n      swap1\n      dup1\n      dup4\n      gt\n      tag_46\n      jumpi\n    tag_45:\n      pop\n      pop\n      pop\n      pop\n      pop\n      swap1\n      pop\n      swap5\n      pop\n      swap5\n      pop\n      swap5\n      pop\n      swap5\n      pop\n      swap5\n      pop\n        /* \"poll.sol\":929:1268  function getPoll(uint64 _pollId) external view returns(uint256, string memory, string memory, uint64[] memory, bytes32[] memory) {... */\n      swap2\n      swap4\n      swap6\n      swap1\n      swap3\n      swap5\n      pop\n      jump\t// out\n        /* \"poll.sol\":393:923  function createPoll(string memory _question, string memory _thumb, bytes32[] memory _options) public  {... */\n    tag_14:\n        /* \"poll.sol\":539:540  0 */\n      0x00\n        /* \"poll.sol\":519:528  _question */\n      dup4\n        /* \"poll.sol\":513:536  bytes(_question).length */\n      mload\n        /* \"poll.sol\":513:540  bytes(_question).length > 0 */\n      gt\n        /* \"poll.sol\":505:559  require(bytes(_question).length > 0, \"Empty question\") */\n      tag_48\n      jumpi\n      mload(0x40)\n      0x08c379a000000000000000000000000000000000000000000000000000000000\n      dup2\n      mstore\n      0x04\n      add\n      tag_49\n      swap1\n      tag_50\n      jump\t// in\n    tag_49:\n      mload(0x40)\n      dup1\n      swap2\n      sub\n      swap1\n      revert\n    tag_48:\n        /* \"poll.sol\":595:596  1 */\n      0x01\n        /* \"poll.sol\":577:585  _options */\n      dup2\n        /* \"poll.sol\":577:592  _options.length */\n      mload\n        /* \"poll.sol\":577:596  _options.length > 1 */\n      gt\n        /* \"poll.sol\":569:628  require(_options.length > 1, \"At least 2 options required\") */\n      tag_51\n      jumpi\n      mload(0x40)\n      0x08c379a000000000000000000000000000000000000000000000000000000000\n      dup2\n      mstore\n      0x04\n      add\n      tag_52\n      swap1\n      tag_53\n      jump\t// in\n    tag_52:\n      mload(0x40)\n      dup1\n      swap2\n      sub\n      swap1\n      revert\n    tag_51:\n        /* \"poll.sol\":639:653  uint256 pollId */\n      0x00\n        /* \"poll.sol\":656:661  polls */\n      dup1\n        /* \"poll.sol\":656:668  polls.length */\n      dup1\n      sload\n      swap1\n      pop\n        /* \"poll.sol\":639:668  uint256 pollId = polls.length */\n      swap1\n      pop\n        /* \"poll.sol\":679:698  Poll memory newPoll */\n      0x00\n        /* \"poll.sol\":701:886  Poll({... */\n      mload(0x40)\n      dup1\n      0xa0\n      add\n      0x40\n      mstore\n      dup1\n        /* \"poll.sol\":724:730  pollId */\n      dup4\n        /* \"poll.sol\":701:886  Poll({... */\n      dup2\n      mstore\n      0x20\n      add\n        /* \"poll.sol\":754:763  _question */\n      dup7\n        /* \"poll.sol\":701:886  Poll({... */\n      dup2\n      mstore\n      0x20\n      add\n        /* \"poll.sol\":788:794  _thumb */\n      dup6\n        /* \"poll.sol\":701:886  Poll({... */\n      dup2\n      mstore\n      0x20\n      add\n        /* \"poll.sol\":859:867  _options */\n      dup5\n        /* \"poll.sol\":859:874  _options.length */\n      mload\n        /* \"poll.sol\":846:875  new uint64[](_options.length) */\n      0xffffffffffffffff\n      dup2\n      gt\n      iszero\n      tag_54\n      jumpi\n      tag_55\n      tag_56\n      jump\t// in\n    tag_55:\n    tag_54:\n      mload(0x40)\n      swap1\n      dup1\n      dup3\n      mstore\n      dup1\n      0x20\n      mul\n      0x20\n      add\n      dup3\n      add\n      0x40\n      mstore\n      dup1\n      iszero\n      tag_57\n      jumpi\n      dup2\n      0x20\n      add\n      0x20\n      dup3\n      mul\n      dup1\n      calldatasize\n      dup4\n      calldatacopy\n      dup1\n      dup3\n      add\n      swap2\n      pop\n      pop\n      swap1\n      pop\n    tag_57:\n      pop\n        /* \"poll.sol\":701:886  Poll({... */\n      dup2\n      mstore\n      0x20\n      add\n        /* \"poll.sol\":817:825  _options */\n      dup5\n        /* \"poll.sol\":701:886  Poll({... */\n      dup2\n      mstore\n      pop\n        /* \"poll.sol\":679:886  Poll memory newPoll = Poll({... */\n      swap1\n      pop\n        /* \"poll.sol\":897:902  polls */\n      0x00\n        /* \"poll.sol\":908:915  newPoll */\n      dup2\n        /* \"poll.sol\":897:916  polls.push(newPoll) */\n      swap1\n      dup1\n      0x01\n      dup2\n      sload\n      add\n      dup1\n      dup3\n      sstore\n      dup1\n      swap2\n      pop\n      pop\n      0x01\n      swap1\n      sub\n      swap1\n      0x00\n      mstore\n      keccak256(0x00, 0x20)\n      swap1\n      0x05\n      mul\n      add\n      0x00\n      swap1\n      swap2\n      swap1\n      swap2\n      swap1\n      swap2\n      pop\n      0x00\n      dup3\n      add\n      mload\n      dup2\n      0x00\n      add\n      sstore\n      0x20\n      dup3\n      add\n      mload\n      dup2\n      0x01\n      add\n      swap1\n      dup2\n      tag_59\n      swap2\n      swap1\n      tag_60\n      jump\t// in\n    tag_59:\n      pop\n      0x40\n      dup3\n      add\n      mload\n      dup2\n      0x02\n      add\n      swap1\n      dup2\n      tag_61\n      swap2\n      swap1\n      tag_60\n      jump\t// in\n    tag_61:\n      pop\n      0x60\n      dup3\n      add\n      mload\n      dup2\n      0x03\n      add\n      swap1\n      dup1\n      mload\n      swap1\n      0x20\n      add\n      swap1\n      tag_62\n      swap3\n      swap2\n      swap1\n      tag_63\n      jump\t// in\n    tag_62:\n      pop\n      0x80\n      dup3\n      add\n      mload\n      dup2\n      0x04\n      add\n      swap1\n      dup1\n      mload\n      swap1\n      0x20\n      add\n      swap1\n      tag_64\n      swap3\n      swap2\n      swap1\n      tag_65\n      jump\t// in\n    tag_64:\n      pop\n      pop\n      pop\n        /* \"poll.sol\":495:923  {... */\n      pop\n      pop\n        /* \"poll.sol\":393:923  function createPoll(string memory _question, string memory _thumb, bytes32[] memory _options) public  {... */\n      pop\n      pop\n      pop\n      jump\t// out\n    tag_63:\n      dup3\n      dup1\n      sload\n      dup3\n      dup3\n      sstore\n      swap1\n      0x00\n      mstore\n      keccak256(0x00, 0x20)\n      swap1\n      0x03\n      add\n      0x04\n      swap1\n      div\n      dup2\n      add\n      swap3\n      dup3\n      iszero\n      tag_66\n      jumpi\n      swap2\n      0x20\n      mul\n      dup3\n      add\n      0x00\n    tag_67:\n      dup4\n      dup3\n      gt\n      iszero\n      tag_68\n      jumpi\n      dup4\n      mload\n      dup4\n      dup3\n      0x0100\n      exp\n      dup2\n      sload\n      dup2\n      0xffffffffffffffff\n      mul\n      not\n      and\n      swap1\n      dup4\n      0xffffffffffffffff\n      and\n      mul\n      or\n      swap1\n      sstore\n      pop\n      swap3\n      0x20\n      add\n      swap3\n      0x08\n      add\n      0x20\n      dup2\n      0x07\n      add\n      div\n      swap3\n      dup4\n      add\n      swap3\n      0x01\n      sub\n      mul\n      jump(tag_67)\n    tag_68:\n      dup1\n      iszero\n      tag_69\n      jumpi\n      dup3\n      dup2\n      0x0100\n      exp\n      dup2\n      sload\n      swap1\n      0xffffffffffffffff\n      mul\n      not\n      and\n      swap1\n      sstore\n      0x08\n      add\n      0x20\n      dup2\n      0x07\n      add\n      div\n      swap3\n      dup4\n      add\n      swap3\n      0x01\n      sub\n      mul\n      jump(tag_68)\n    tag_69:\n      pop\n    tag_66:\n      pop\n      swap1\n      pop\n      tag_70\n      swap2\n      swap1\n      tag_71\n      jump\t// in\n    tag_70:\n      pop\n      swap1\n      jump\t// out\n    tag_65:\n      dup3\n      dup1\n      sload\n      dup3\n      dup3\n      sstore\n      swap1\n      0x00\n      mstore\n      keccak256(0x00, 0x20)\n      swap1\n      dup2\n      add\n      swap3\n      dup3\n      iszero\n      tag_72\n      jumpi\n      swap2\n      0x20\n      mul\n      dup3\n      add\n    tag_73:\n      dup3\n      dup2\n      gt\n      iszero\n      tag_74\n      jumpi\n      dup3\n      mload\n      dup3\n      sstore\n      swap2\n      0x20\n      add\n      swap2\n      swap1\n      0x01\n      add\n      swap1\n      jump(tag_73)\n    tag_74:\n    tag_72:\n      pop\n      swap1\n      pop\n      tag_75\n      swap2\n      swap1\n      tag_76\n      jump\t// in\n    tag_75:\n      pop\n      swap1\n      jump\t// out\n    tag_71:\n    tag_77:\n      dup1\n      dup3\n      gt\n      iszero\n      tag_78\n      jumpi\n      0x00\n      dup2\n      0x00\n      swap1\n      sstore\n      pop\n      0x01\n      add\n      jump(tag_77)\n    tag_78:\n      pop\n      swap1\n      jump\t// out\n    tag_76:\n    tag_79:\n      dup1\n      dup3\n      gt\n      iszero\n      tag_80\n      jumpi\n      0x00\n      dup2\n      0x00\n      swap1\n      sstore\n      pop\n      0x01\n      add\n      jump(tag_79)\n    tag_80:\n      pop\n      swap1\n      jump\t// out\n        /* \"#utility.yul\":7:82   */\n    tag_81:\n        /* \"#utility.yul\":40:46   */\n      0x00\n        /* \"#utility.yul\":73:75   */\n      0x40\n        /* \"#utility.yul\":67:76   */\n      mload\n        /* \"#utility.yul\":57:76   */\n      swap1\n      pop\n        /* \"#utility.yul\":7:82   */\n      swap1\n      jump\t// out\n        /* \"#utility.yul\":88:205   */\n    tag_82:\n        /* \"#utility.yul\":197:198   */\n      0x00\n        /* \"#utility.yul\":194:195   */\n      dup1\n        /* \"#utility.yul\":187:199   */\n      revert\n        /* \"#utility.yul\":211:328   */\n    tag_83:\n        /* \"#utility.yul\":320:321   */\n      0x00\n        /* \"#utility.yul\":317:318   */\n      dup1\n        /* \"#utility.yul\":310:322   */\n      revert\n        /* \"#utility.yul\":334:435   */\n    tag_84:\n        /* \"#utility.yul\":370:377   */\n      0x00\n        /* \"#utility.yul\":410:428   */\n      0xffffffffffffffff\n        /* \"#utility.yul\":403:408   */\n      dup3\n        /* \"#utility.yul\":399:429   */\n      and\n        /* \"#utility.yul\":388:429   */\n      swap1\n      pop\n        /* \"#utility.yul\":334:435   */\n      swap2\n      swap1\n      pop\n      jump\t// out\n        /* \"#utility.yul\":441:561   */\n    tag_85:\n        /* \"#utility.yul\":513:536   */\n      tag_149\n        /* \"#utility.yul\":530:535   */\n      dup2\n        /* \"#utility.yul\":513:536   */\n      tag_84\n      jump\t// in\n    tag_149:\n        /* \"#utility.yul\":506:511   */\n      dup2\n        /* \"#utility.yul\":503:537   */\n      eq\n        /* \"#utility.yul\":493:555   */\n      tag_150\n      jumpi\n        /* \"#utility.yul\":551:552   */\n      0x00\n        /* \"#utility.yul\":548:549   */\n      dup1\n        /* \"#utility.yul\":541:553   */\n      revert\n        /* \"#utility.yul\":493:555   */\n    tag_150:\n        /* \"#utility.yul\":441:561   */\n      pop\n      jump\t// out\n        /* \"#utility.yul\":567:704   */\n    tag_86:\n        /* \"#utility.yul\":612:617   */\n      0x00\n        /* \"#utility.yul\":650:656   */\n      dup2\n        /* \"#utility.yul\":637:657   */\n      calldataload\n        /* \"#utility.yul\":628:657   */\n      swap1\n      pop\n        /* \"#utility.yul\":666:698   */\n      tag_152\n        /* \"#utility.yul\":692:697   */\n      dup2\n        /* \"#utility.yul\":666:698   */\n      tag_85\n      jump\t// in\n    tag_152:\n        /* \"#utility.yul\":567:704   */\n      swap3\n      swap2\n      pop\n      pop\n      jump\t// out\n        /* \"#utility.yul\":710:1037   */\n    tag_7:\n        /* \"#utility.yul\":768:774   */\n      0x00\n        /* \"#utility.yul\":817:819   */\n      0x20\n        /* \"#utility.yul\":805:814   */\n      dup3\n        /* \"#utility.yul\":796:803   */\n      dup5\n        /* \"#utility.yul\":792:815   */\n      sub\n        /* \"#utility.yul\":788:820   */\n      slt\n        /* \"#utility.yul\":785:904   */\n      iszero\n      tag_154\n      jumpi\n        /* \"#utility.yul\":823:902   */\n      tag_155\n      tag_82\n      jump\t// in\n    tag_155:\n        /* \"#utility.yul\":785:904   */\n    tag_154:\n        /* \"#utility.yul\":943:944   */\n      0x00\n        /* \"#utility.yul\":968:1020   */\n      tag_156\n        /* \"#utility.yul\":1012:1019   */\n      dup5\n        /* \"#utility.yul\":1003:1009   */\n      dup3\n        /* \"#utility.yul\":992:1001   */\n      dup6\n        /* \"#utility.yul\":988:1010   */\n      add\n        /* \"#utility.yul\":968:1020   */\n      tag_86\n      jump\t// in\n    tag_156:\n        /* \"#utility.yul\":958:1020   */\n      swap2\n      pop\n        /* \"#utility.yul\":914:1030   */\n      pop\n        /* \"#utility.yul\":710:1037   */\n      swap3\n      swap2\n      pop\n      pop\n      jump\t// out\n        /* \"#utility.yul\":1043:1120   */\n    tag_87:\n        /* \"#utility.yul\":1080:1087   */\n      0x00\n        /* \"#utility.yul\":1109:1114   */\n      dup2\n        /* \"#utility.yul\":1098:1114   */\n      swap1\n      pop\n        /* \"#utility.yul\":1043:1120   */\n      swap2\n      swap1\n      pop\n      jump\t// out\n        /* \"#utility.yul\":1126:1244   */\n    tag_88:\n        /* \"#utility.yul\":1213:1237   */\n      tag_159\n        /* \"#utility.yul\":1231:1236   */\n      dup2\n        /* \"#utility.yul\":1213:1237   */\n      tag_87\n      jump\t// in\n    tag_159:\n        /* \"#utility.yul\":1208:1211   */\n      dup3\n        /* \"#utility.yul\":1201:1238   */\n      mstore\n        /* \"#utility.yul\":1126:1244   */\n      pop\n      pop\n      jump\t// out\n        /* \"#utility.yul\":1250:1349   */\n    tag_89:\n        /* \"#utility.yul\":1302:1308   */\n      0x00\n        /* \"#utility.yul\":1336:1341   */\n      dup2\n        /* \"#utility.yul\":1330:1342   */\n      mload\n        /* \"#utility.yul\":1320:1342   */\n      swap1\n      pop\n        /* \"#utility.yul\":1250:1349   */\n      swap2\n      swap1\n      pop\n      jump\t// out\n        /* \"#utility.yul\":1355:1524   */\n    tag_90:\n        /* \"#utility.yul\":1439:1450   */\n      0x00\n        /* \"#utility.yul\":1473:1479   */\n      dup3\n        /* \"#utility.yul\":1468:1471   */\n      dup3\n        /* \"#utility.yul\":1461:1480   */\n      mstore\n        /* \"#utility.yul\":1513:1517   */\n      0x20\n        /* \"#utility.yul\":1508:1511   */\n      dup3\n        /* \"#utility.yul\":1504:1518   */\n      add\n        /* \"#utility.yul\":1489:1518   */\n      swap1\n      pop\n        /* \"#utility.yul\":1355:1524   */\n      swap3\n      swap2\n      pop\n      pop\n      jump\t// out\n        /* \"#utility.yul\":1530:1776   */\n    tag_91:\n        /* \"#utility.yul\":1611:1612   */\n      0x00\n        /* \"#utility.yul\":1621:1734   */\n    tag_163:\n        /* \"#utility.yul\":1635:1641   */\n      dup4\n        /* \"#utility.yul\":1632:1633   */\n      dup2\n        /* \"#utility.yul\":1629:1642   */\n      lt\n        /* \"#utility.yul\":1621:1734   */\n      iszero\n      tag_165\n      jumpi\n        /* \"#utility.yul\":1720:1721   */\n      dup1\n        /* \"#utility.yul\":1715:1718   */\n      dup3\n        /* \"#utility.yul\":1711:1722   */\n      add\n        /* \"#utility.yul\":1705:1723   */\n      mload\n        /* \"#utility.yul\":1701:1702   */\n      dup2\n        /* \"#utility.yul\":1696:1699   */\n      dup5\n        /* \"#utility.yul\":1692:1703   */\n      add\n        /* \"#utility.yul\":1685:1724   */\n      mstore\n        /* \"#utility.yul\":1657:1659   */\n      0x20\n        /* \"#utility.yul\":1654:1655   */\n      dup2\n        /* \"#utility.yul\":1650:1660   */\n      add\n        /* \"#utility.yul\":1645:1660   */\n      swap1\n      pop\n        /* \"#utility.yul\":1621:1734   */\n      jump(tag_163)\n    tag_165:\n        /* \"#utility.yul\":1768:1769   */\n      0x00\n        /* \"#utility.yul\":1759:1765   */\n      dup5\n        /* \"#utility.yul\":1754:1757   */\n      dup5\n        /* \"#utility.yul\":1750:1766   */\n      add\n        /* \"#utility.yul\":1743:1770   */\n      mstore\n        /* \"#utility.yul\":1592:1776   */\n      pop\n        /* \"#utility.yul\":1530:1776   */\n      pop\n      pop\n      pop\n      jump\t// out\n        /* \"#utility.yul\":1782:1884   */\n    tag_92:\n        /* \"#utility.yul\":1823:1829   */\n      0x00\n        /* \"#utility.yul\":1874:1876   */\n      0x1f\n        /* \"#utility.yul\":1870:1877   */\n      not\n        /* \"#utility.yul\":1865:1867   */\n      0x1f\n        /* \"#utility.yul\":1858:1863   */\n      dup4\n        /* \"#utility.yul\":1854:1868   */\n      add\n        /* \"#utility.yul\":1850:1878   */\n      and\n        /* \"#utility.yul\":1840:1878   */\n      swap1\n      pop\n        /* \"#utility.yul\":1782:1884   */\n      swap2\n      swap1\n      pop\n      jump\t// out\n        /* \"#utility.yul\":1890:2267   */\n    tag_93:\n        /* \"#utility.yul\":1978:1981   */\n      0x00\n        /* \"#utility.yul\":2006:2045   */\n      tag_168\n        /* \"#utility.yul\":2039:2044   */\n      dup3\n        /* \"#utility.yul\":2006:2045   */\n      tag_89\n      jump\t// in\n    tag_168:\n        /* \"#utility.yul\":2061:2132   */\n      tag_169\n        /* \"#utility.yul\":2125:2131   */\n      dup2\n        /* \"#utility.yul\":2120:2123   */\n      dup6\n        /* \"#utility.yul\":2061:2132   */\n      tag_90\n      jump\t// in\n    tag_169:\n        /* \"#utility.yul\":2054:2132   */\n      swap4\n      pop\n        /* \"#utility.yul\":2141:2206   */\n      tag_170\n        /* \"#utility.yul\":2199:2205   */\n      dup2\n        /* \"#utility.yul\":2194:2197   */\n      dup6\n        /* \"#utility.yul\":2187:2191   */\n      0x20\n        /* \"#utility.yul\":2180:2185   */\n      dup7\n        /* \"#utility.yul\":2176:2192   */\n      add\n        /* \"#utility.yul\":2141:2206   */\n      tag_91\n      jump\t// in\n    tag_170:\n        /* \"#utility.yul\":2231:2260   */\n      tag_171\n        /* \"#utility.yul\":2253:2259   */\n      dup2\n        /* \"#utility.yul\":2231:2260   */\n      tag_92\n      jump\t// in\n    tag_171:\n        /* \"#utility.yul\":2226:2229   */\n      dup5\n        /* \"#utility.yul\":2222:2261   */\n      add\n        /* \"#utility.yul\":2215:2261   */\n      swap2\n      pop\n        /* \"#utility.yul\":1982:2267   */\n      pop\n        /* \"#utility.yul\":1890:2267   */\n      swap3\n      swap2\n      pop\n      pop\n      jump\t// out\n        /* \"#utility.yul\":2273:2386   */\n    tag_94:\n        /* \"#utility.yul\":2339:2345   */\n      0x00\n        /* \"#utility.yul\":2373:2378   */\n      dup2\n        /* \"#utility.yul\":2367:2379   */\n      mload\n        /* \"#utility.yul\":2357:2379   */\n      swap1\n      pop\n        /* \"#utility.yul\":2273:2386   */\n      swap2\n      swap1\n      pop\n      jump\t// out\n        /* \"#utility.yul\":2392:2575   */\n    tag_95:\n        /* \"#utility.yul\":2490:2501   */\n      0x00\n        /* \"#utility.yul\":2524:2530   */\n      dup3\n        /* \"#utility.yul\":2519:2522   */\n      dup3\n        /* \"#utility.yul\":2512:2531   */\n      mstore\n        /* \"#utility.yul\":2564:2568   */\n      0x20\n        /* \"#utility.yul\":2559:2562   */\n      dup3\n        /* \"#utility.yul\":2555:2569   */\n      add\n        /* \"#utility.yul\":2540:2569   */\n      swap1\n      pop\n        /* \"#utility.yul\":2392:2575   */\n      swap3\n      swap2\n      pop\n      pop\n      jump\t// out\n        /* \"#utility.yul\":2581:2712   */\n    tag_96:\n        /* \"#utility.yul\":2647:2651   */\n      0x00\n        /* \"#utility.yul\":2670:2673   */\n      dup2\n        /* \"#utility.yul\":2662:2673   */\n      swap1\n      pop\n        /* \"#utility.yul\":2700:2704   */\n      0x20\n        /* \"#utility.yul\":2695:2698   */\n      dup3\n        /* \"#utility.yul\":2691:2705   */\n      add\n        /* \"#utility.yul\":2683:2705   */\n      swap1\n      pop\n        /* \"#utility.yul\":2581:2712   */\n      swap2\n      swap1\n      pop\n      jump\t// out\n        /* \"#utility.yul\":2718:2823   */\n    tag_97:\n        /* \"#utility.yul\":2793:2816   */\n      tag_176\n        /* \"#utility.yul\":2810:2815   */\n      dup2\n        /* \"#utility.yul\":2793:2816   */\n      tag_84\n      jump\t// in\n    tag_176:\n        /* \"#utility.yul\":2788:2791   */\n      dup3\n        /* \"#utility.yul\":2781:2817   */\n      mstore\n        /* \"#utility.yul\":2718:2823   */\n      pop\n      pop\n      jump\t// out\n        /* \"#utility.yul\":2829:3004   */\n    tag_98:\n        /* \"#utility.yul\":2896:2906   */\n      0x00\n        /* \"#utility.yul\":2917:2961   */\n      tag_178\n        /* \"#utility.yul\":2957:2960   */\n      dup4\n        /* \"#utility.yul\":2949:2955   */\n      dup4\n        /* \"#utility.yul\":2917:2961   */\n      tag_97\n      jump\t// in\n    tag_178:\n        /* \"#utility.yul\":2993:2997   */\n      0x20\n        /* \"#utility.yul\":2988:2991   */\n      dup4\n        /* \"#utility.yul\":2984:2998   */\n      add\n        /* \"#utility.yul\":2970:2998   */\n      swap1\n      pop\n        /* \"#utility.yul\":2829:3004   */\n      swap3\n      swap2\n      pop\n      pop\n      jump\t// out\n        /* \"#utility.yul\":3010:3122   */\n    tag_99:\n        /* \"#utility.yul\":3079:3083   */\n      0x00\n        /* \"#utility.yul\":3111:3115   */\n      0x20\n        /* \"#utility.yul\":3106:3109   */\n      dup3\n        /* \"#utility.yul\":3102:3116   */\n      add\n        /* \"#utility.yul\":3094:3116   */\n      swap1\n      pop\n        /* \"#utility.yul\":3010:3122   */\n      swap2\n      swap1\n      pop\n      jump\t// out\n        /* \"#utility.yul\":3156:3880   */\n    tag_100:\n        /* \"#utility.yul\":3273:3276   */\n      0x00\n        /* \"#utility.yul\":3302:3355   */\n      tag_181\n        /* \"#utility.yul\":3349:3354   */\n      dup3\n        /* \"#utility.yul\":3302:3355   */\n      tag_94\n      jump\t// in\n    tag_181:\n        /* \"#utility.yul\":3371:3456   */\n      tag_182\n        /* \"#utility.yul\":3449:3455   */\n      dup2\n        /* \"#utility.yul\":3444:3447   */\n      dup6\n        /* \"#utility.yul\":3371:3456   */\n      tag_95\n      jump\t// in\n    tag_182:\n        /* \"#utility.yul\":3364:3456   */\n      swap4\n      pop\n        /* \"#utility.yul\":3480:3535   */\n      tag_183\n        /* \"#utility.yul\":3529:3534   */\n      dup4\n        /* \"#utility.yul\":3480:3535   */\n      tag_96\n      jump\t// in\n    tag_183:\n        /* \"#utility.yul\":3558:3565   */\n      dup1\n        /* \"#utility.yul\":3589:3590   */\n      0x00\n        /* \"#utility.yul\":3574:3855   */\n    tag_184:\n        /* \"#utility.yul\":3599:3605   */\n      dup4\n        /* \"#utility.yul\":3596:3597   */\n      dup2\n        /* \"#utility.yul\":3593:3606   */\n      lt\n        /* \"#utility.yul\":3574:3855   */\n      iszero\n      tag_186\n      jumpi\n        /* \"#utility.yul\":3675:3681   */\n      dup2\n        /* \"#utility.yul\":3669:3682   */\n      mload\n        /* \"#utility.yul\":3702:3763   */\n      tag_187\n        /* \"#utility.yul\":3759:3762   */\n      dup9\n        /* \"#utility.yul\":3744:3757   */\n      dup3\n        /* \"#utility.yul\":3702:3763   */\n      tag_98\n      jump\t// in\n    tag_187:\n        /* \"#utility.yul\":3695:3763   */\n      swap8\n      pop\n        /* \"#utility.yul\":3786:3845   */\n      tag_188\n        /* \"#utility.yul\":3838:3844   */\n      dup4\n        /* \"#utility.yul\":3786:3845   */\n      tag_99\n      jump\t// in\n    tag_188:\n        /* \"#utility.yul\":3776:3845   */\n      swap3\n      pop\n        /* \"#utility.yul\":3634:3855   */\n      pop\n        /* \"#utility.yul\":3621:3622   */\n      0x01\n        /* \"#utility.yul\":3618:3619   */\n      dup2\n        /* \"#utility.yul\":3614:3623   */\n      add\n        /* \"#utility.yul\":3609:3623   */\n      swap1\n      pop\n        /* \"#utility.yul\":3574:3855   */\n      jump(tag_184)\n    tag_186:\n        /* \"#utility.yul\":3578:3592   */\n      pop\n        /* \"#utility.yul\":3871:3874   */\n      dup6\n        /* \"#utility.yul\":3864:3874   */\n      swap4\n      pop\n        /* \"#utility.yul\":3278:3880   */\n      pop\n      pop\n      pop\n        /* \"#utility.yul\":3156:3880   */\n      swap3\n      swap2\n      pop\n      pop\n      jump\t// out\n        /* \"#utility.yul\":3886:4000   */\n    tag_101:\n        /* \"#utility.yul\":3953:3959   */\n      0x00\n        /* \"#utility.yul\":3987:3992   */\n      dup2\n        /* \"#utility.yul\":3981:3993   */\n      mload\n        /* \"#utility.yul\":3971:3993   */\n      swap1\n      pop\n        /* \"#utility.yul\":3886:4000   */\n      swap2\n      swap1\n      pop\n      jump\t// out\n        /* \"#utility.yul\":4006:4190   */\n    tag_102:\n        /* \"#utility.yul\":4105:4116   */\n      0x00\n        /* \"#utility.yul\":4139:4145   */\n      dup3\n        /* \"#utility.yul\":4134:4137   */\n      dup3\n        /* \"#utility.yul\":4127:4146   */\n      mstore\n        /* \"#utility.yul\":4179:4183   */\n      0x20\n        /* \"#utility.yul\":4174:4177   */\n      dup3\n        /* \"#utility.yul\":4170:4184   */\n      add\n        /* \"#utility.yul\":4155:4184   */\n      swap1\n      pop\n        /* \"#utility.yul\":4006:4190   */\n      swap3\n      swap2\n      pop\n      pop\n      jump\t// out\n        /* \"#utility.yul\":4196:4328   */\n    tag_103:\n        /* \"#utility.yul\":4263:4267   */\n      0x00\n        /* \"#utility.yul\":4286:4289   */\n      dup2\n        /* \"#utility.yul\":4278:4289   */\n      swap1\n      pop\n        /* \"#utility.yul\":4316:4320   */\n      0x20\n        /* \"#utility.yul\":4311:4314   */\n      dup3\n        /* \"#utility.yul\":4307:4321   */\n      add\n        /* \"#utility.yul\":4299:4321   */\n      swap1\n      pop\n        /* \"#utility.yul\":4196:4328   */\n      swap2\n      swap1\n      pop\n      jump\t// out\n        /* \"#utility.yul\":4334:4411   */\n    tag_104:\n        /* \"#utility.yul\":4371:4378   */\n      0x00\n        /* \"#utility.yul\":4400:4405   */\n      dup2\n        /* \"#utility.yul\":4389:4405   */\n      swap1\n      pop\n        /* \"#utility.yul\":4334:4411   */\n      swap2\n      swap1\n      pop\n      jump\t// out\n        /* \"#utility.yul\":4417:4525   */\n    tag_105:\n        /* \"#utility.yul\":4494:4518   */\n      tag_194\n        /* \"#utility.yul\":4512:4517   */\n      dup2\n        /* \"#utility.yul\":4494:4518   */\n      tag_104\n      jump\t// in\n    tag_194:\n        /* \"#utility.yul\":4489:4492   */\n      dup3\n        /* \"#utility.yul\":4482:4519   */\n      mstore\n        /* \"#utility.yul\":4417:4525   */\n      pop\n      pop\n      jump\t// out\n        /* \"#utility.yul\":4531:4710   */\n    tag_106:\n        /* \"#utility.yul\":4600:4610   */\n      0x00\n        /* \"#utility.yul\":4621:4667   */\n      tag_196\n        /* \"#utility.yul\":4663:4666   */\n      dup4\n        /* \"#utility.yul\":4655:4661   */\n      dup4\n        /* \"#utility.yul\":4621:4667   */\n      tag_105\n      jump\t// in\n    tag_196:\n        /* \"#utility.yul\":4699:4703   */\n      0x20\n        /* \"#utility.yul\":4694:4697   */\n      dup4\n        /* \"#utility.yul\":4690:4704   */\n      add\n        /* \"#utility.yul\":4676:4704   */\n      swap1\n      pop\n        /* \"#utility.yul\":4531:4710   */\n      swap3\n      swap2\n      pop\n      pop\n      jump\t// out\n        /* \"#utility.yul\":4716:4829   */\n    tag_107:\n        /* \"#utility.yul\":4786:4790   */\n      0x00\n        /* \"#utility.yul\":4818:4822   */\n      0x20\n        /* \"#utility.yul\":4813:4816   */\n      dup3\n        /* \"#utility.yul\":4809:4823   */\n      add\n        /* \"#utility.yul\":4801:4823   */\n      swap1\n      pop\n        /* \"#utility.yul\":4716:4829   */\n      swap2\n      swap1\n      pop\n      jump\t// out\n        /* \"#utility.yul\":4865:5597   */\n    tag_108:\n        /* \"#utility.yul\":4984:4987   */\n      0x00\n        /* \"#utility.yul\":5013:5067   */\n      tag_199\n        /* \"#utility.yul\":5061:5066   */\n      dup3\n        /* \"#utility.yul\":5013:5067   */\n      tag_101\n      jump\t// in\n    tag_199:\n        /* \"#utility.yul\":5083:5169   */\n      tag_200\n        /* \"#utility.yul\":5162:5168   */\n      dup2\n        /* \"#utility.yul\":5157:5160   */\n      dup6\n        /* \"#utility.yul\":5083:5169   */\n      tag_102\n      jump\t// in\n    tag_200:\n        /* \"#utility.yul\":5076:5169   */\n      swap4\n      pop\n        /* \"#utility.yul\":5193:5249   */\n      tag_201\n        /* \"#utility.yul\":5243:5248   */\n      dup4\n        /* \"#utility.yul\":5193:5249   */\n      tag_103\n      jump\t// in\n    tag_201:\n        /* \"#utility.yul\":5272:5279   */\n      dup1\n        /* \"#utility.yul\":5303:5304   */\n      0x00\n        /* \"#utility.yul\":5288:5572   */\n    tag_202:\n        /* \"#utility.yul\":5313:5319   */\n      dup4\n        /* \"#utility.yul\":5310:5311   */\n      dup2\n        /* \"#utility.yul\":5307:5320   */\n      lt\n        /* \"#utility.yul\":5288:5572   */\n      iszero\n      tag_204\n      jumpi\n        /* \"#utility.yul\":5389:5395   */\n      dup2\n        /* \"#utility.yul\":5383:5396   */\n      mload\n        /* \"#utility.yul\":5416:5479   */\n      tag_205\n        /* \"#utility.yul\":5475:5478   */\n      dup9\n        /* \"#utility.yul\":5460:5473   */\n      dup3\n        /* \"#utility.yul\":5416:5479   */\n      tag_106\n      jump\t// in\n    tag_205:\n        /* \"#utility.yul\":5409:5479   */\n      swap8\n      pop\n        /* \"#utility.yul\":5502:5562   */\n      tag_206\n        /* \"#utility.yul\":5555:5561   */\n      dup4\n        /* \"#utility.yul\":5502:5562   */\n      tag_107\n      jump\t// in\n    tag_206:\n        /* \"#utility.yul\":5492:5562   */\n      swap3\n      pop\n        /* \"#utility.yul\":5348:5572   */\n      pop\n        /* \"#utility.yul\":5335:5336   */\n      0x01\n        /* \"#utility.yul\":5332:5333   */\n      dup2\n        /* \"#utility.yul\":5328:5337   */\n      add\n        /* \"#utility.yul\":5323:5337   */\n      swap1\n      pop\n        /* \"#utility.yul\":5288:5572   */\n      jump(tag_202)\n    tag_204:\n        /* \"#utility.yul\":5292:5306   */\n      pop\n        /* \"#utility.yul\":5588:5591   */\n      dup6\n        /* \"#utility.yul\":5581:5591   */\n      swap4\n      pop\n        /* \"#utility.yul\":4989:5597   */\n      pop\n      pop\n      pop\n        /* \"#utility.yul\":4865:5597   */\n      swap3\n      swap2\n      pop\n      pop\n      jump\t// out\n        /* \"#utility.yul\":5603:6747   */\n    tag_10:\n        /* \"#utility.yul\":5946:5950   */\n      0x00\n        /* \"#utility.yul\":5984:5987   */\n      0xa0\n        /* \"#utility.yul\":5973:5982   */\n      dup3\n        /* \"#utility.yul\":5969:5988   */\n      add\n        /* \"#utility.yul\":5961:5988   */\n      swap1\n      pop\n        /* \"#utility.yul\":5998:6069   */\n      tag_208\n        /* \"#utility.yul\":6066:6067   */\n      0x00\n        /* \"#utility.yul\":6055:6064   */\n      dup4\n        /* \"#utility.yul\":6051:6068   */\n      add\n        /* \"#utility.yul\":6042:6048   */\n      dup9\n        /* \"#utility.yul\":5998:6069   */\n      tag_88\n      jump\t// in\n    tag_208:\n        /* \"#utility.yul\":6116:6125   */\n      dup2\n        /* \"#utility.yul\":6110:6114   */\n      dup2\n        /* \"#utility.yul\":6106:6126   */\n      sub\n        /* \"#utility.yul\":6101:6103   */\n      0x20\n        /* \"#utility.yul\":6090:6099   */\n      dup4\n        /* \"#utility.yul\":6086:6104   */\n      add\n        /* \"#utility.yul\":6079:6127   */\n      mstore\n        /* \"#utility.yul\":6144:6222   */\n      tag_209\n        /* \"#utility.yul\":6217:6221   */\n      dup2\n        /* \"#utility.yul\":6208:6214   */\n      dup8\n        /* \"#utility.yul\":6144:6222   */\n      tag_93\n      jump\t// in\n    tag_209:\n        /* \"#utility.yul\":6136:6222   */\n      swap1\n      pop\n        /* \"#utility.yul\":6269:6278   */\n      dup2\n        /* \"#utility.yul\":6263:6267   */\n      dup2\n        /* \"#utility.yul\":6259:6279   */\n      sub\n        /* \"#utility.yul\":6254:6256   */\n      0x40\n        /* \"#utility.yul\":6243:6252   */\n      dup4\n        /* \"#utility.yul\":6239:6257   */\n      add\n        /* \"#utility.yul\":6232:6280   */\n      mstore\n        /* \"#utility.yul\":6297:6375   */\n      tag_210\n        /* \"#utility.yul\":6370:6374   */\n      dup2\n        /* \"#utility.yul\":6361:6367   */\n      dup7\n        /* \"#utility.yul\":6297:6375   */\n      tag_93\n      jump\t// in\n    tag_210:\n        /* \"#utility.yul\":6289:6375   */\n      swap1\n      pop\n        /* \"#utility.yul\":6422:6431   */\n      dup2\n        /* \"#utility.yul\":6416:6420   */\n      dup2\n        /* \"#utility.yul\":6412:6432   */\n      sub\n        /* \"#utility.yul\":6407:6409   */\n      0x60\n        /* \"#utility.yul\":6396:6405   */\n      dup4\n        /* \"#utility.yul\":6392:6410   */\n      add\n        /* \"#utility.yul\":6385:6433   */\n      mstore\n        /* \"#utility.yul\":6450:6556   */\n      tag_211\n        /* \"#utility.yul\":6551:6555   */\n      dup2\n        /* \"#utility.yul\":6542:6548   */\n      dup6\n        /* \"#utility.yul\":6450:6556   */\n      tag_100\n      jump\t// in\n    tag_211:\n        /* \"#utility.yul\":6442:6556   */\n      swap1\n      pop\n        /* \"#utility.yul\":6604:6613   */\n      dup2\n        /* \"#utility.yul\":6598:6602   */\n      dup2\n        /* \"#utility.yul\":6594:6614   */\n      sub\n        /* \"#utility.yul\":6588:6591   */\n      0x80\n        /* \"#utility.yul\":6577:6586   */\n      dup4\n        /* \"#utility.yul\":6573:6592   */\n      add\n        /* \"#utility.yul\":6566:6615   */\n      mstore\n        /* \"#utility.yul\":6632:6740   */\n      tag_212\n        /* \"#utility.yul\":6735:6739   */\n      dup2\n        /* \"#utility.yul\":6726:6732   */\n      dup5\n        /* \"#utility.yul\":6632:6740   */\n      tag_108\n      jump\t// in\n    tag_212:\n        /* \"#utility.yul\":6624:6740   */\n      swap1\n      pop\n        /* \"#utility.yul\":5603:6747   */\n      swap7\n      swap6\n      pop\n      pop\n      pop\n      pop\n      pop\n      pop\n      jump\t// out\n        /* \"#utility.yul\":6753:6870   */\n    tag_109:\n        /* \"#utility.yul\":6862:6863   */\n      0x00\n        /* \"#utility.yul\":6859:6860   */\n      dup1\n        /* \"#utility.yul\":6852:6864   */\n      revert\n        /* \"#utility.yul\":6876:6993   */\n    tag_110:\n        /* \"#utility.yul\":6985:6986   */\n      0x00\n        /* \"#utility.yul\":6982:6983   */\n      dup1\n        /* \"#utility.yul\":6975:6987   */\n      revert\n        /* \"#utility.yul\":6999:7179   */\n    tag_56:\n        /* \"#utility.yul\":7047:7124   */\n      0x4e487b7100000000000000000000000000000000000000000000000000000000\n        /* \"#utility.yul\":7044:7045   */\n      0x00\n        /* \"#utility.yul\":7037:7125   */\n      mstore\n        /* \"#utility.yul\":7144:7148   */\n      0x41\n        /* \"#utility.yul\":7141:7142   */\n      0x04\n        /* \"#utility.yul\":7134:7149   */\n      mstore\n        /* \"#utility.yul\":7168:7172   */\n      0x24\n        /* \"#utility.yul\":7165:7166   */\n      0x00\n        /* \"#utility.yul\":7158:7173   */\n      revert\n        /* \"#utility.yul\":7185:7466   */\n    tag_111:\n        /* \"#utility.yul\":7268:7295   */\n      tag_217\n        /* \"#utility.yul\":7290:7294   */\n      dup3\n        /* \"#utility.yul\":7268:7295   */\n      tag_92\n      jump\t// in\n    tag_217:\n        /* \"#utility.yul\":7260:7266   */\n      dup2\n        /* \"#utility.yul\":7256:7296   */\n      add\n        /* \"#utility.yul\":7398:7404   */\n      dup2\n        /* \"#utility.yul\":7386:7396   */\n      dup2\n        /* \"#utility.yul\":7383:7405   */\n      lt\n        /* \"#utility.yul\":7362:7380   */\n      0xffffffffffffffff\n        /* \"#utility.yul\":7350:7360   */\n      dup3\n        /* \"#utility.yul\":7347:7381   */\n      gt\n        /* \"#utility.yul\":7344:7406   */\n      or\n        /* \"#utility.yul\":7341:7429   */\n      iszero\n      tag_218\n      jumpi\n        /* \"#utility.yul\":7409:7427   */\n      tag_219\n      tag_56\n      jump\t// in\n    tag_219:\n        /* \"#utility.yul\":7341:7429   */\n    tag_218:\n        /* \"#utility.yul\":7449:7459   */\n      dup1\n        /* \"#utility.yul\":7445:7447   */\n      0x40\n        /* \"#utility.yul\":7438:7460   */\n      mstore\n        /* \"#utility.yul\":7228:7466   */\n      pop\n        /* \"#utility.yul\":7185:7466   */\n      pop\n      pop\n      jump\t// out\n        /* \"#utility.yul\":7472:7601   */\n    tag_112:\n        /* \"#utility.yul\":7506:7512   */\n      0x00\n        /* \"#utility.yul\":7533:7553   */\n      tag_221\n      tag_81\n      jump\t// in\n    tag_221:\n        /* \"#utility.yul\":7523:7553   */\n      swap1\n      pop\n        /* \"#utility.yul\":7562:7595   */\n      tag_222\n        /* \"#utility.yul\":7590:7594   */\n      dup3\n        /* \"#utility.yul\":7582:7588   */\n      dup3\n        /* \"#utility.yul\":7562:7595   */\n      tag_111\n      jump\t// in\n    tag_222:\n        /* \"#utility.yul\":7472:7601   */\n      swap2\n      swap1\n      pop\n      jump\t// out\n        /* \"#utility.yul\":7607:7915   */\n    tag_113:\n        /* \"#utility.yul\":7669:7673   */\n      0x00\n        /* \"#utility.yul\":7759:7777   */\n      0xffffffffffffffff\n        /* \"#utility.yul\":7751:7757   */\n      dup3\n        /* \"#utility.yul\":7748:7778   */\n      gt\n        /* \"#utility.yul\":7745:7801   */\n      iszero\n      tag_224\n      jumpi\n        /* \"#utility.yul\":7781:7799   */\n      tag_225\n      tag_56\n      jump\t// in\n    tag_225:\n        /* \"#utility.yul\":7745:7801   */\n    tag_224:\n        /* \"#utility.yul\":7819:7848   */\n      tag_226\n        /* \"#utility.yul\":7841:7847   */\n      dup3\n        /* \"#utility.yul\":7819:7848   */\n      tag_92\n      jump\t// in\n    tag_226:\n        /* \"#utility.yul\":7811:7848   */\n      swap1\n      pop\n        /* \"#utility.yul\":7903:7907   */\n      0x20\n        /* \"#utility.yul\":7897:7901   */\n      dup2\n        /* \"#utility.yul\":7893:7908   */\n      add\n        /* \"#utility.yul\":7885:7908   */\n      swap1\n      pop\n        /* \"#utility.yul\":7607:7915   */\n      swap2\n      swap1\n      pop\n      jump\t// out\n        /* \"#utility.yul\":7921:8067   */\n    tag_114:\n        /* \"#utility.yul\":8018:8024   */\n      dup3\n        /* \"#utility.yul\":8013:8016   */\n      dup2\n        /* \"#utility.yul\":8008:8011   */\n      dup4\n        /* \"#utility.yul\":7995:8025   */\n      calldatacopy\n        /* \"#utility.yul\":8059:8060   */\n      0x00\n        /* \"#utility.yul\":8050:8056   */\n      dup4\n        /* \"#utility.yul\":8045:8048   */\n      dup4\n        /* \"#utility.yul\":8041:8057   */\n      add\n        /* \"#utility.yul\":8034:8061   */\n      mstore\n        /* \"#utility.yul\":7921:8067   */\n      pop\n      pop\n      pop\n      jump\t// out\n        /* \"#utility.yul\":8073:8498   */\n    tag_115:\n        /* \"#utility.yul\":8151:8156   */\n      0x00\n        /* \"#utility.yul\":8176:8242   */\n      tag_229\n        /* \"#utility.yul\":8192:8241   */\n      tag_230\n        /* \"#utility.yul\":8234:8240   */\n      dup5\n        /* \"#utility.yul\":8192:8241   */\n      tag_113\n      jump\t// in\n    tag_230:\n        /* \"#utility.yul\":8176:8242   */\n      tag_112\n      jump\t// in\n    tag_229:\n        /* \"#utility.yul\":8167:8242   */\n      swap1\n      pop\n        /* \"#utility.yul\":8265:8271   */\n      dup3\n        /* \"#utility.yul\":8258:8263   */\n      dup2\n        /* \"#utility.yul\":8251:8272   */\n      mstore\n        /* \"#utility.yul\":8303:8307   */\n      0x20\n        /* \"#utility.yul\":8296:8301   */\n      dup2\n        /* \"#utility.yul\":8292:8308   */\n      add\n        /* \"#utility.yul\":8341:8344   */\n      dup5\n        /* \"#utility.yul\":8332:8338   */\n      dup5\n        /* \"#utility.yul\":8327:8330   */\n      dup5\n        /* \"#utility.yul\":8323:8339   */\n      add\n        /* \"#utility.yul\":8320:8345   */\n      gt\n        /* \"#utility.yul\":8317:8429   */\n      iszero\n      tag_231\n      jumpi\n        /* \"#utility.yul\":8348:8427   */\n      tag_232\n      tag_110\n      jump\t// in\n    tag_232:\n        /* \"#utility.yul\":8317:8429   */\n    tag_231:\n        /* \"#utility.yul\":8438:8492   */\n      tag_233\n        /* \"#utility.yul\":8485:8491   */\n      dup5\n        /* \"#utility.yul\":8480:8483   */\n      dup3\n        /* \"#utility.yul\":8475:8478   */\n      dup6\n        /* \"#utility.yul\":8438:8492   */\n      tag_114\n      jump\t// in\n    tag_233:\n        /* \"#utility.yul\":8157:8498   */\n      pop\n        /* \"#utility.yul\":8073:8498   */\n      swap4\n      swap3\n      pop\n      pop\n      pop\n      jump\t// out\n        /* \"#utility.yul\":8518:8858   */\n    tag_116:\n        /* \"#utility.yul\":8574:8579   */\n      0x00\n        /* \"#utility.yul\":8623:8626   */\n      dup3\n        /* \"#utility.yul\":8616:8620   */\n      0x1f\n        /* \"#utility.yul\":8608:8614   */\n      dup4\n        /* \"#utility.yul\":8604:8621   */\n      add\n        /* \"#utility.yul\":8600:8627   */\n      slt\n        /* \"#utility.yul\":8590:8712   */\n      tag_235\n      jumpi\n        /* \"#utility.yul\":8631:8710   */\n      tag_236\n      tag_109\n      jump\t// in\n    tag_236:\n        /* \"#utility.yul\":8590:8712   */\n    tag_235:\n        /* \"#utility.yul\":8748:8754   */\n      dup2\n        /* \"#utility.yul\":8735:8755   */\n      calldataload\n        /* \"#utility.yul\":8773:8852   */\n      tag_237\n        /* \"#utility.yul\":8848:8851   */\n      dup5\n        /* \"#utility.yul\":8840:8846   */\n      dup3\n        /* \"#utility.yul\":8833:8837   */\n      0x20\n        /* \"#utility.yul\":8825:8831   */\n      dup7\n        /* \"#utility.yul\":8821:8838   */\n      add\n        /* \"#utility.yul\":8773:8852   */\n      tag_115\n      jump\t// in\n    tag_237:\n        /* \"#utility.yul\":8764:8852   */\n      swap2\n      pop\n        /* \"#utility.yul\":8580:8858   */\n      pop\n        /* \"#utility.yul\":8518:8858   */\n      swap3\n      swap2\n      pop\n      pop\n      jump\t// out\n        /* \"#utility.yul\":8864:9175   */\n    tag_117:\n        /* \"#utility.yul\":8941:8945   */\n      0x00\n        /* \"#utility.yul\":9031:9049   */\n      0xffffffffffffffff\n        /* \"#utility.yul\":9023:9029   */\n      dup3\n        /* \"#utility.yul\":9020:9050   */\n      gt\n        /* \"#utility.yul\":9017:9073   */\n      iszero\n      tag_239\n      jumpi\n        /* \"#utility.yul\":9053:9071   */\n      tag_240\n      tag_56\n      jump\t// in\n    tag_240:\n        /* \"#utility.yul\":9017:9073   */\n    tag_239:\n        /* \"#utility.yul\":9103:9107   */\n      0x20\n        /* \"#utility.yul\":9095:9101   */\n      dup3\n        /* \"#utility.yul\":9091:9108   */\n      mul\n        /* \"#utility.yul\":9083:9108   */\n      swap1\n      pop\n        /* \"#utility.yul\":9163:9167   */\n      0x20\n        /* \"#utility.yul\":9157:9161   */\n      dup2\n        /* \"#utility.yul\":9153:9168   */\n      add\n        /* \"#utility.yul\":9145:9168   */\n      swap1\n      pop\n        /* \"#utility.yul\":8864:9175   */\n      swap2\n      swap1\n      pop\n      jump\t// out\n        /* \"#utility.yul\":9181:9298   */\n    tag_118:\n        /* \"#utility.yul\":9290:9291   */\n      0x00\n        /* \"#utility.yul\":9287:9288   */\n      dup1\n        /* \"#utility.yul\":9280:9292   */\n      revert\n        /* \"#utility.yul\":9304:9426   */\n    tag_119:\n        /* \"#utility.yul\":9377:9401   */\n      tag_243\n        /* \"#utility.yul\":9395:9400   */\n      dup2\n        /* \"#utility.yul\":9377:9401   */\n      tag_104\n      jump\t// in\n    tag_243:\n        /* \"#utility.yul\":9370:9375   */\n      dup2\n        /* \"#utility.yul\":9367:9402   */\n      eq\n        /* \"#utility.yul\":9357:9420   */\n      tag_244\n      jumpi\n        /* \"#utility.yul\":9416:9417   */\n      0x00\n        /* \"#utility.yul\":9413:9414   */\n      dup1\n        /* \"#utility.yul\":9406:9418   */\n      revert\n        /* \"#utility.yul\":9357:9420   */\n    tag_244:\n        /* \"#utility.yul\":9304:9426   */\n      pop\n      jump\t// out\n        /* \"#utility.yul\":9432:9571   */\n    tag_120:\n        /* \"#utility.yul\":9478:9483   */\n      0x00\n        /* \"#utility.yul\":9516:9522   */\n      dup2\n        /* \"#utility.yul\":9503:9523   */\n      calldataload\n        /* \"#utility.yul\":9494:9523   */\n      swap1\n      pop\n        /* \"#utility.yul\":9532:9565   */\n      tag_246\n        /* \"#utility.yul\":9559:9564   */\n      dup2\n        /* \"#utility.yul\":9532:9565   */\n      tag_119\n      jump\t// in\n    tag_246:\n        /* \"#utility.yul\":9432:9571   */\n      swap3\n      swap2\n      pop\n      pop\n      jump\t// out\n        /* \"#utility.yul\":9594:10304   */\n    tag_121:\n        /* \"#utility.yul\":9690:9695   */\n      0x00\n        /* \"#utility.yul\":9715:9796   */\n      tag_248\n        /* \"#utility.yul\":9731:9795   */\n      tag_249\n        /* \"#utility.yul\":9788:9794   */\n      dup5\n        /* \"#utility.yul\":9731:9795   */\n      tag_117\n      jump\t// in\n    tag_249:\n        /* \"#utility.yul\":9715:9796   */\n      tag_112\n      jump\t// in\n    tag_248:\n        /* \"#utility.yul\":9706:9796   */\n      swap1\n      pop\n        /* \"#utility.yul\":9816:9821   */\n      dup1\n        /* \"#utility.yul\":9845:9851   */\n      dup4\n        /* \"#utility.yul\":9838:9843   */\n      dup3\n        /* \"#utility.yul\":9831:9852   */\n      mstore\n        /* \"#utility.yul\":9879:9883   */\n      0x20\n        /* \"#utility.yul\":9872:9877   */\n      dup3\n        /* \"#utility.yul\":9868:9884   */\n      add\n        /* \"#utility.yul\":9861:9884   */\n      swap1\n      pop\n        /* \"#utility.yul\":9932:9936   */\n      0x20\n        /* \"#utility.yul\":9924:9930   */\n      dup5\n        /* \"#utility.yul\":9920:9937   */\n      mul\n        /* \"#utility.yul\":9912:9918   */\n      dup4\n        /* \"#utility.yul\":9908:9938   */\n      add\n        /* \"#utility.yul\":9961:9964   */\n      dup6\n        /* \"#utility.yul\":9953:9959   */\n      dup2\n        /* \"#utility.yul\":9950:9965   */\n      gt\n        /* \"#utility.yul\":9947:10069   */\n      iszero\n      tag_250\n      jumpi\n        /* \"#utility.yul\":9980:10059   */\n      tag_251\n      tag_118\n      jump\t// in\n    tag_251:\n        /* \"#utility.yul\":9947:10069   */\n    tag_250:\n        /* \"#utility.yul\":10095:10101   */\n      dup4\n        /* \"#utility.yul\":10078:10298   */\n    tag_252:\n        /* \"#utility.yul\":10112:10118   */\n      dup2\n        /* \"#utility.yul\":10107:10110   */\n      dup2\n        /* \"#utility.yul\":10104:10119   */\n      lt\n        /* \"#utility.yul\":10078:10298   */\n      iszero\n      tag_254\n      jumpi\n        /* \"#utility.yul\":10187:10190   */\n      dup1\n        /* \"#utility.yul\":10216:10253   */\n      tag_255\n        /* \"#utility.yul\":10249:10252   */\n      dup9\n        /* \"#utility.yul\":10237:10247   */\n      dup3\n        /* \"#utility.yul\":10216:10253   */\n      tag_120\n      jump\t// in\n    tag_255:\n        /* \"#utility.yul\":10211:10214   */\n      dup5\n        /* \"#utility.yul\":10204:10254   */\n      mstore\n        /* \"#utility.yul\":10283:10287   */\n      0x20\n        /* \"#utility.yul\":10278:10281   */\n      dup5\n        /* \"#utility.yul\":10274:10288   */\n      add\n        /* \"#utility.yul\":10267:10288   */\n      swap4\n      pop\n        /* \"#utility.yul\":10154:10298   */\n      pop\n        /* \"#utility.yul\":10138:10142   */\n      0x20\n        /* \"#utility.yul\":10133:10136   */\n      dup2\n        /* \"#utility.yul\":10129:10143   */\n      add\n        /* \"#utility.yul\":10122:10143   */\n      swap1\n      pop\n        /* \"#utility.yul\":10078:10298   */\n      jump(tag_252)\n    tag_254:\n        /* \"#utility.yul\":10082:10103   */\n      pop\n        /* \"#utility.yul\":9696:10304   */\n      pop\n      pop\n        /* \"#utility.yul\":9594:10304   */\n      swap4\n      swap3\n      pop\n      pop\n      pop\n      jump\t// out\n        /* \"#utility.yul\":10327:10697   */\n    tag_122:\n        /* \"#utility.yul\":10398:10403   */\n      0x00\n        /* \"#utility.yul\":10447:10450   */\n      dup3\n        /* \"#utility.yul\":10440:10444   */\n      0x1f\n        /* \"#utility.yul\":10432:10438   */\n      dup4\n        /* \"#utility.yul\":10428:10445   */\n      add\n        /* \"#utility.yul\":10424:10451   */\n      slt\n        /* \"#utility.yul\":10414:10536   */\n      tag_257\n      jumpi\n        /* \"#utility.yul\":10455:10534   */\n      tag_258\n      tag_109\n      jump\t// in\n    tag_258:\n        /* \"#utility.yul\":10414:10536   */\n    tag_257:\n        /* \"#utility.yul\":10572:10578   */\n      dup2\n        /* \"#utility.yul\":10559:10579   */\n      calldataload\n        /* \"#utility.yul\":10597:10691   */\n      tag_259\n        /* \"#utility.yul\":10687:10690   */\n      dup5\n        /* \"#utility.yul\":10679:10685   */\n      dup3\n        /* \"#utility.yul\":10672:10676   */\n      0x20\n        /* \"#utility.yul\":10664:10670   */\n      dup7\n        /* \"#utility.yul\":10660:10677   */\n      add\n        /* \"#utility.yul\":10597:10691   */\n      tag_121\n      jump\t// in\n    tag_259:\n        /* \"#utility.yul\":10588:10691   */\n      swap2\n      pop\n        /* \"#utility.yul\":10404:10697   */\n      pop\n        /* \"#utility.yul\":10327:10697   */\n      swap3\n      swap2\n      pop\n      pop\n      jump\t// out\n        /* \"#utility.yul\":10703:11892   */\n    tag_13:\n        /* \"#utility.yul\":10825:10831   */\n      0x00\n        /* \"#utility.yul\":10833:10839   */\n      dup1\n        /* \"#utility.yul\":10841:10847   */\n      0x00\n        /* \"#utility.yul\":10890:10892   */\n      0x60\n        /* \"#utility.yul\":10878:10887   */\n      dup5\n        /* \"#utility.yul\":10869:10876   */\n      dup7\n        /* \"#utility.yul\":10865:10888   */\n      sub\n        /* \"#utility.yul\":10861:10893   */\n      slt\n        /* \"#utility.yul\":10858:10977   */\n      iszero\n      tag_261\n      jumpi\n        /* \"#utility.yul\":10896:10975   */\n      tag_262\n      tag_82\n      jump\t// in\n    tag_262:\n        /* \"#utility.yul\":10858:10977   */\n    tag_261:\n        /* \"#utility.yul\":11044:11045   */\n      0x00\n        /* \"#utility.yul\":11033:11042   */\n      dup5\n        /* \"#utility.yul\":11029:11046   */\n      add\n        /* \"#utility.yul\":11016:11047   */\n      calldataload\n        /* \"#utility.yul\":11074:11092   */\n      0xffffffffffffffff\n        /* \"#utility.yul\":11066:11072   */\n      dup2\n        /* \"#utility.yul\":11063:11093   */\n      gt\n        /* \"#utility.yul\":11060:11177   */\n      iszero\n      tag_263\n      jumpi\n        /* \"#utility.yul\":11096:11175   */\n      tag_264\n      tag_83\n      jump\t// in\n    tag_264:\n        /* \"#utility.yul\":11060:11177   */\n    tag_263:\n        /* \"#utility.yul\":11201:11264   */\n      tag_265\n        /* \"#utility.yul\":11256:11263   */\n      dup7\n        /* \"#utility.yul\":11247:11253   */\n      dup3\n        /* \"#utility.yul\":11236:11245   */\n      dup8\n        /* \"#utility.yul\":11232:11254   */\n      add\n        /* \"#utility.yul\":11201:11264   */\n      tag_116\n      jump\t// in\n    tag_265:\n        /* \"#utility.yul\":11191:11264   */\n      swap4\n      pop\n        /* \"#utility.yul\":10987:11274   */\n      pop\n        /* \"#utility.yul\":11341:11343   */\n      0x20\n        /* \"#utility.yul\":11330:11339   */\n      dup5\n        /* \"#utility.yul\":11326:11344   */\n      add\n        /* \"#utility.yul\":11313:11345   */\n      calldataload\n        /* \"#utility.yul\":11372:11390   */\n      0xffffffffffffffff\n        /* \"#utility.yul\":11364:11370   */\n      dup2\n        /* \"#utility.yul\":11361:11391   */\n      gt\n        /* \"#utility.yul\":11358:11475   */\n      iszero\n      tag_266\n      jumpi\n        /* \"#utility.yul\":11394:11473   */\n      tag_267\n      tag_83\n      jump\t// in\n    tag_267:\n        /* \"#utility.yul\":11358:11475   */\n    tag_266:\n        /* \"#utility.yul\":11499:11562   */\n      tag_268\n        /* \"#utility.yul\":11554:11561   */\n      dup7\n        /* \"#utility.yul\":11545:11551   */\n      dup3\n        /* \"#utility.yul\":11534:11543   */\n      dup8\n        /* \"#utility.yul\":11530:11552   */\n      add\n        /* \"#utility.yul\":11499:11562   */\n      tag_116\n      jump\t// in\n    tag_268:\n        /* \"#utility.yul\":11489:11562   */\n      swap3\n      pop\n        /* \"#utility.yul\":11284:11572   */\n      pop\n        /* \"#utility.yul\":11639:11641   */\n      0x40\n        /* \"#utility.yul\":11628:11637   */\n      dup5\n        /* \"#utility.yul\":11624:11642   */\n      add\n        /* \"#utility.yul\":11611:11643   */\n      calldataload\n        /* \"#utility.yul\":11670:11688   */\n      0xffffffffffffffff\n        /* \"#utility.yul\":11662:11668   */\n      dup2\n        /* \"#utility.yul\":11659:11689   */\n      gt\n        /* \"#utility.yul\":11656:11773   */\n      iszero\n      tag_269\n      jumpi\n        /* \"#utility.yul\":11692:11771   */\n      tag_270\n      tag_83\n      jump\t// in\n    tag_270:\n        /* \"#utility.yul\":11656:11773   */\n    tag_269:\n        /* \"#utility.yul\":11797:11875   */\n      tag_271\n        /* \"#utility.yul\":11867:11874   */\n      dup7\n        /* \"#utility.yul\":11858:11864   */\n      dup3\n        /* \"#utility.yul\":11847:11856   */\n      dup8\n        /* \"#utility.yul\":11843:11865   */\n      add\n        /* \"#utility.yul\":11797:11875   */\n      tag_122\n      jump\t// in\n    tag_271:\n        /* \"#utility.yul\":11787:11875   */\n      swap2\n      pop\n        /* \"#utility.yul\":11582:11885   */\n      pop\n        /* \"#utility.yul\":10703:11892   */\n      swap3\n      pop\n      swap3\n      pop\n      swap3\n      jump\t// out\n        /* \"#utility.yul\":11898:12078   */\n    tag_18:\n        /* \"#utility.yul\":11946:12023   */\n      0x4e487b7100000000000000000000000000000000000000000000000000000000\n        /* \"#utility.yul\":11943:11944   */\n      0x00\n        /* \"#utility.yul\":11936:12024   */\n      mstore\n        /* \"#utility.yul\":12043:12047   */\n      0x32\n        /* \"#utility.yul\":12040:12041   */\n      0x04\n        /* \"#utility.yul\":12033:12048   */\n      mstore\n        /* \"#utility.yul\":12067:12071   */\n      0x24\n        /* \"#utility.yul\":12064:12065   */\n      0x00\n        /* \"#utility.yul\":12057:12072   */\n      revert\n        /* \"#utility.yul\":12084:12264   */\n    tag_123:\n        /* \"#utility.yul\":12132:12209   */\n      0x4e487b7100000000000000000000000000000000000000000000000000000000\n        /* \"#utility.yul\":12129:12130   */\n      0x00\n        /* \"#utility.yul\":12122:12210   */\n      mstore\n        /* \"#utility.yul\":12229:12233   */\n      0x22\n        /* \"#utility.yul\":12226:12227   */\n      0x04\n        /* \"#utility.yul\":12219:12234   */\n      mstore\n        /* \"#utility.yul\":12253:12257   */\n      0x24\n        /* \"#utility.yul\":12250:12251   */\n      0x00\n        /* \"#utility.yul\":12243:12258   */\n      revert\n        /* \"#utility.yul\":12270:12590   */\n    tag_33:\n        /* \"#utility.yul\":12314:12320   */\n      0x00\n        /* \"#utility.yul\":12351:12352   */\n      0x02\n        /* \"#utility.yul\":12345:12349   */\n      dup3\n        /* \"#utility.yul\":12341:12353   */\n      div\n        /* \"#utility.yul\":12331:12353   */\n      swap1\n      pop\n        /* \"#utility.yul\":12398:12399   */\n      0x01\n        /* \"#utility.yul\":12392:12396   */\n      dup3\n        /* \"#utility.yul\":12388:12400   */\n      and\n        /* \"#utility.yul\":12419:12437   */\n      dup1\n        /* \"#utility.yul\":12409:12490   */\n      tag_275\n      jumpi\n        /* \"#utility.yul\":12475:12479   */\n      0x7f\n        /* \"#utility.yul\":12467:12473   */\n      dup3\n        /* \"#utility.yul\":12463:12480   */\n      and\n        /* \"#utility.yul\":12453:12480   */\n      swap2\n      pop\n        /* \"#utility.yul\":12409:12490   */\n    tag_275:\n        /* \"#utility.yul\":12537:12539   */\n      0x20\n        /* \"#utility.yul\":12529:12535   */\n      dup3\n        /* \"#utility.yul\":12526:12540   */\n      lt\n        /* \"#utility.yul\":12506:12524   */\n      dup2\n        /* \"#utility.yul\":12503:12541   */\n      sub\n        /* \"#utility.yul\":12500:12584   */\n      tag_276\n      jumpi\n        /* \"#utility.yul\":12556:12574   */\n      tag_277\n      tag_123\n      jump\t// in\n    tag_277:\n        /* \"#utility.yul\":12500:12584   */\n    tag_276:\n        /* \"#utility.yul\":12321:12590   */\n      pop\n        /* \"#utility.yul\":12270:12590   */\n      swap2\n      swap1\n      pop\n      jump\t// out\n        /* \"#utility.yul\":12596:12760   */\n    tag_124:\n        /* \"#utility.yul\":12736:12752   */\n      0x456d707479207175657374696f6e000000000000000000000000000000000000\n        /* \"#utility.yul\":12732:12733   */\n      0x00\n        /* \"#utility.yul\":12724:12730   */\n      dup3\n        /* \"#utility.yul\":12720:12734   */\n      add\n        /* \"#utility.yul\":12713:12753   */\n      mstore\n        /* \"#utility.yul\":12596:12760   */\n      pop\n      jump\t// out\n        /* \"#utility.yul\":12766:13132   */\n    tag_125:\n        /* \"#utility.yul\":12908:12911   */\n      0x00\n        /* \"#utility.yul\":12929:12996   */\n      tag_280\n        /* \"#utility.yul\":12993:12995   */\n      0x0e\n        /* \"#utility.yul\":12988:12991   */\n      dup4\n        /* \"#utility.yul\":12929:12996   */\n      tag_90\n      jump\t// in\n    tag_280:\n        /* \"#utility.yul\":12922:12996   */\n      swap2\n      pop\n        /* \"#utility.yul\":13005:13098   */\n      tag_281\n        /* \"#utility.yul\":13094:13097   */\n      dup3\n        /* \"#utility.yul\":13005:13098   */\n      tag_124\n      jump\t// in\n    tag_281:\n        /* \"#utility.yul\":13123:13125   */\n      0x20\n        /* \"#utility.yul\":13118:13121   */\n      dup3\n        /* \"#utility.yul\":13114:13126   */\n      add\n        /* \"#utility.yul\":13107:13126   */\n      swap1\n      pop\n        /* \"#utility.yul\":12766:13132   */\n      swap2\n      swap1\n      pop\n      jump\t// out\n        /* \"#utility.yul\":13138:13557   */\n    tag_50:\n        /* \"#utility.yul\":13304:13308   */\n      0x00\n        /* \"#utility.yul\":13342:13344   */\n      0x20\n        /* \"#utility.yul\":13331:13340   */\n      dup3\n        /* \"#utility.yul\":13327:13345   */\n      add\n        /* \"#utility.yul\":13319:13345   */\n      swap1\n      pop\n        /* \"#utility.yul\":13391:13400   */\n      dup2\n        /* \"#utility.yul\":13385:13389   */\n      dup2\n        /* \"#utility.yul\":13381:13401   */\n      sub\n        /* \"#utility.yul\":13377:13378   */\n      0x00\n        /* \"#utility.yul\":13366:13375   */\n      dup4\n        /* \"#utility.yul\":13362:13379   */\n      add\n        /* \"#utility.yul\":13355:13402   */\n      mstore\n        /* \"#utility.yul\":13419:13550   */\n      tag_283\n        /* \"#utility.yul\":13545:13549   */\n      dup2\n        /* \"#utility.yul\":13419:13550   */\n      tag_125\n      jump\t// in\n    tag_283:\n        /* \"#utility.yul\":13411:13550   */\n      swap1\n      pop\n        /* \"#utility.yul\":13138:13557   */\n      swap2\n      swap1\n      pop\n      jump\t// out\n        /* \"#utility.yul\":13563:13740   */\n    tag_126:\n        /* \"#utility.yul\":13703:13732   */\n      0x4174206c656173742032206f7074696f6e732072657175697265640000000000\n        /* \"#utility.yul\":13699:13700   */\n      0x00\n        /* \"#utility.yul\":13691:13697   */\n      dup3\n        /* \"#utility.yul\":13687:13701   */\n      add\n        /* \"#utility.yul\":13680:13733   */\n      mstore\n        /* \"#utility.yul\":13563:13740   */\n      pop\n      jump\t// out\n        /* \"#utility.yul\":13746:14112   */\n    tag_127:\n        /* \"#utility.yul\":13888:13891   */\n      0x00\n        /* \"#utility.yul\":13909:13976   */\n      tag_286\n        /* \"#utility.yul\":13973:13975   */\n      0x1b\n        /* \"#utility.yul\":13968:13971   */\n      dup4\n        /* \"#utility.yul\":13909:13976   */\n      tag_90\n      jump\t// in\n    tag_286:\n        /* \"#utility.yul\":13902:13976   */\n      swap2\n      pop\n        /* \"#utility.yul\":13985:14078   */\n      tag_287\n        /* \"#utility.yul\":14074:14077   */\n      dup3\n        /* \"#utility.yul\":13985:14078   */\n      tag_126\n      jump\t// in\n    tag_287:\n        /* \"#utility.yul\":14103:14105   */\n      0x20\n        /* \"#utility.yul\":14098:14101   */\n      dup3\n        /* \"#utility.yul\":14094:14106   */\n      add\n        /* \"#utility.yul\":14087:14106   */\n      swap1\n      pop\n        /* \"#utility.yul\":13746:14112   */\n      swap2\n      swap1\n      pop\n      jump\t// out\n        /* \"#utility.yul\":14118:14537   */\n    tag_53:\n        /* \"#utility.yul\":14284:14288   */\n      0x00\n        /* \"#utility.yul\":14322:14324   */\n      0x20\n        /* \"#utility.yul\":14311:14320   */\n      dup3\n        /* \"#utility.yul\":14307:14325   */\n      add\n        /* \"#utility.yul\":14299:14325   */\n      swap1\n      pop\n        /* \"#utility.yul\":14371:14380   */\n      dup2\n        /* \"#utility.yul\":14365:14369   */\n      dup2\n        /* \"#utility.yul\":14361:14381   */\n      sub\n        /* \"#utility.yul\":14357:14358   */\n      0x00\n        /* \"#utility.yul\":14346:14355   */\n      dup4\n        /* \"#utility.yul\":14342:14359   */\n      add\n        /* \"#utility.yul\":14335:14382   */\n      mstore\n        /* \"#utility.yul\":14399:14530   */\n      tag_289\n        /* \"#utility.yul\":14525:14529   */\n      dup2\n        /* \"#utility.yul\":14399:14530   */\n      tag_127\n      jump\t// in\n    tag_289:\n        /* \"#utility.yul\":14391:14530   */\n      swap1\n      pop\n        /* \"#utility.yul\":14118:14537   */\n      swap2\n      swap1\n      pop\n      jump\t// out\n        /* \"#utility.yul\":14543:14684   */\n    tag_128:\n        /* \"#utility.yul\":14592:14596   */\n      0x00\n        /* \"#utility.yul\":14615:14618   */\n      dup2\n        /* \"#utility.yul\":14607:14618   */\n      swap1\n      pop\n        /* \"#utility.yul\":14638:14641   */\n      dup2\n        /* \"#utility.yul\":14635:14636   */\n      0x00\n        /* \"#utility.yul\":14628:14642   */\n      mstore\n        /* \"#utility.yul\":14672:14676   */\n      0x20\n        /* \"#utility.yul\":14669:14670   */\n      0x00\n        /* \"#utility.yul\":14659:14677   */\n      keccak256\n        /* \"#utility.yul\":14651:14677   */\n      swap1\n      pop\n        /* \"#utility.yul\":14543:14684   */\n      swap2\n      swap1\n      pop\n      jump\t// out\n        /* \"#utility.yul\":14690:14783   */\n    tag_129:\n        /* \"#utility.yul\":14727:14733   */\n      0x00\n        /* \"#utility.yul\":14774:14776   */\n      0x20\n        /* \"#utility.yul\":14769:14771   */\n      0x1f\n        /* \"#utility.yul\":14762:14767   */\n      dup4\n        /* \"#utility.yul\":14758:14772   */\n      add\n        /* \"#utility.yul\":14754:14777   */\n      div\n        /* \"#utility.yul\":14744:14777   */\n      swap1\n      pop\n        /* \"#utility.yul\":14690:14783   */\n      swap2\n      swap1\n      pop\n      jump\t// out\n        /* \"#utility.yul\":14789:14896   */\n    tag_130:\n        /* \"#utility.yul\":14833:14841   */\n      0x00\n        /* \"#utility.yul\":14883:14888   */\n      dup3\n        /* \"#utility.yul\":14877:14881   */\n      dup3\n        /* \"#utility.yul\":14873:14889   */\n      shl\n        /* \"#utility.yul\":14852:14889   */\n      swap1\n      pop\n        /* \"#utility.yul\":14789:14896   */\n      swap3\n      swap2\n      pop\n      pop\n      jump\t// out\n        /* \"#utility.yul\":14902:15295   */\n    tag_131:\n        /* \"#utility.yul\":14971:14977   */\n      0x00\n        /* \"#utility.yul\":15021:15022   */\n      0x08\n        /* \"#utility.yul\":15009:15019   */\n      dup4\n        /* \"#utility.yul\":15005:15023   */\n      mul\n        /* \"#utility.yul\":15044:15141   */\n      tag_294\n        /* \"#utility.yul\":15074:15140   */\n      0xffffffffffffffffffffffffffffffffffffffffffffffffffffffffffffffff\n        /* \"#utility.yul\":15063:15072   */\n      dup3\n        /* \"#utility.yul\":15044:15141   */\n      tag_130\n      jump\t// in\n    tag_294:\n        /* \"#utility.yul\":15162:15201   */\n      tag_295\n        /* \"#utility.yul\":15192:15200   */\n      dup7\n        /* \"#utility.yul\":15181:15190   */\n      dup4\n        /* \"#utility.yul\":15162:15201   */\n      tag_130\n      jump\t// in\n    tag_295:\n        /* \"#utility.yul\":15150:15201   */\n      swap6\n      pop\n        /* \"#utility.yul\":15234:15238   */\n      dup1\n        /* \"#utility.yul\":15230:15239   */\n      not\n        /* \"#utility.yul\":15223:15228   */\n      dup5\n        /* \"#utility.yul\":15219:15240   */\n      and\n        /* \"#utility.yul\":15210:15240   */\n      swap4\n      pop\n        /* \"#utility.yul\":15283:15287   */\n      dup1\n        /* \"#utility.yul\":15273:15281   */\n      dup7\n        /* \"#utility.yul\":15269:15288   */\n      and\n        /* \"#utility.yul\":15262:15267   */\n      dup5\n        /* \"#utility.yul\":15259:15289   */\n      or\n        /* \"#utility.yul\":15249:15289   */\n      swap3\n      pop\n        /* \"#utility.yul\":14978:15295   */\n      pop\n      pop\n        /* \"#utility.yul\":14902:15295   */\n      swap4\n      swap3\n      pop\n      pop\n      pop\n      jump\t// out\n        /* \"#utility.yul\":15301:15361   */\n    tag_132:\n        /* \"#utility.yul\":15329:15332   */\n      0x00\n        /* \"#utility.yul\":15350:15355   */\n      dup2\n        /* \"#utility.yul\":15343:15355   */\n      swap1\n      pop\n        /* \"#utility.yul\":15301:15361   */\n      swap2\n      swap1\n      pop\n      jump\t// out\n        /* \"#utility.yul\":15367:15509   */\n    tag_133:\n        /* \"#utility.yul\":15417:15426   */\n      0x00\n        /* \"#utility.yul\":15450:15503   */\n      tag_298\n        /* \"#utility.yul\":15468:15502   */\n      tag_299\n        /* \"#utility.yul\":15477:15501   */\n      tag_300\n        /* \"#utility.yul\":15495:15500   */\n      dup5\n        /* \"#utility.yul\":15477:15501   */\n      tag_87\n      jump\t// in\n    tag_300:\n        /* \"#utility.yul\":15468:15502   */\n      tag_132\n      jump\t// in\n    tag_299:\n        /* \"#utility.yul\":15450:15503   */\n      tag_87\n      jump\t// in\n    tag_298:\n        /* \"#utility.yul\":15437:15503   */\n      swap1\n      pop\n        /* \"#utility.yul\":15367:15509   */\n      swap2\n      swap1\n      pop\n      jump\t// out\n        /* \"#utility.yul\":15515:15590   */\n    tag_134:\n        /* \"#utility.yul\":15558:15561   */\n      0x00\n        /* \"#utility.yul\":15579:15584   */\n      dup2\n        /* \"#utility.yul\":15572:15584   */\n      swap1\n      pop\n        /* \"#utility.yul\":15515:15590   */\n      swap2\n      swap1\n      pop\n      jump\t// out\n        /* \"#utility.yul\":15596:15865   */\n    tag_135:\n        /* \"#utility.yul\":15706:15745   */\n      tag_303\n        /* \"#utility.yul\":15737:15744   */\n      dup4\n        /* \"#utility.yul\":15706:15745   */\n      tag_133\n      jump\t// in\n    tag_303:\n        /* \"#utility.yul\":15767:15858   */\n      tag_304\n        /* \"#utility.yul\":15816:15857   */\n      tag_305\n        /* \"#utility.yul\":15840:15856   */\n      dup3\n        /* \"#utility.yul\":15816:15857   */\n      tag_134\n      jump\t// in\n    tag_305:\n        /* \"#utility.yul\":15808:15814   */\n      dup5\n        /* \"#utility.yul\":15801:15805   */\n      dup5\n        /* \"#utility.yul\":15795:15806   */\n      sload\n        /* \"#utility.yul\":15767:15858   */\n      tag_131\n      jump\t// in\n    tag_304:\n        /* \"#utility.yul\":15761:15765   */\n      dup3\n        /* \"#utility.yul\":15754:15859   */\n      sstore\n        /* \"#utility.yul\":15672:15865   */\n      pop\n        /* \"#utility.yul\":15596:15865   */\n      pop\n      pop\n      pop\n      jump\t// out\n        /* \"#utility.yul\":15871:15944   */\n    tag_136:\n        /* \"#utility.yul\":15916:15919   */\n      0x00\n        /* \"#utility.yul\":15871:15944   */\n      swap1\n      jump\t// out\n        /* \"#utility.yul\":15950:16139   */\n    tag_137:\n        /* \"#utility.yul\":16027:16059   */\n      tag_308\n      tag_136\n      jump\t// in\n    tag_308:\n        /* \"#utility.yul\":16068:16133   */\n      tag_309\n        /* \"#utility.yul\":16126:16132   */\n      dup2\n        /* \"#utility.yul\":16118:16124   */\n      dup5\n        /* \"#utility.yul\":16112:16116   */\n      dup5\n        /* \"#utility.yul\":16068:16133   */\n      tag_135\n      jump\t// in\n    tag_309:\n        /* \"#utility.yul\":16003:16139   */\n      pop\n        /* \"#utility.yul\":15950:16139   */\n      pop\n      pop\n      jump\t// out\n        /* \"#utility.yul\":16145:16331   */\n    tag_138:\n        /* \"#utility.yul\":16205:16325   */\n    tag_311:\n        /* \"#utility.yul\":16222:16225   */\n      dup2\n        /* \"#utility.yul\":16215:16220   */\n      dup2\n        /* \"#utility.yul\":16212:16226   */\n      lt\n        /* \"#utility.yul\":16205:16325   */\n      iszero\n      tag_313\n      jumpi\n        /* \"#utility.yul\":16276:16315   */\n      tag_314\n        /* \"#utility.yul\":16313:16314   */\n      0x00\n        /* \"#utility.yul\":16306:16311   */\n      dup3\n        /* \"#utility.yul\":16276:16315   */\n      tag_137\n      jump\t// in\n    tag_314:\n        /* \"#utility.yul\":16249:16250   */\n      0x01\n        /* \"#utility.yul\":16242:16247   */\n      dup2\n        /* \"#utility.yul\":16238:16251   */\n      add\n        /* \"#utility.yul\":16229:16251   */\n      swap1\n      pop\n        /* \"#utility.yul\":16205:16325   */\n      jump(tag_311)\n    tag_313:\n        /* \"#utility.yul\":16145:16331   */\n      pop\n      pop\n      jump\t// out\n        /* \"#utility.yul\":16337:16880   */\n    tag_139:\n        /* \"#utility.yul\":16438:16440   */\n      0x1f\n        /* \"#utility.yul\":16433:16436   */\n      dup3\n        /* \"#utility.yul\":16430:16441   */\n      gt\n        /* \"#utility.yul\":16427:16873   */\n      iszero\n      tag_316\n      jumpi\n        /* \"#utility.yul\":16472:16510   */\n      tag_317\n        /* \"#utility.yul\":16504:16509   */\n      dup2\n        /* \"#utility.yul\":16472:16510   */\n      tag_128\n      jump\t// in\n    tag_317:\n        /* \"#utility.yul\":16556:16585   */\n      tag_318\n        /* \"#utility.yul\":16574:16584   */\n      dup5\n        /* \"#utility.yul\":16556:16585   */\n      tag_129\n      jump\t// in\n    tag_318:\n        /* \"#utility.yul\":16546:16554   */\n      dup2\n        /* \"#utility.yul\":16542:16586   */\n      add\n        /* \"#utility.yul\":16739:16741   */\n      0x20\n        /* \"#utility.yul\":16727:16737   */\n      dup6\n        /* \"#utility.yul\":16724:16742   */\n      lt\n        /* \"#utility.yul\":16721:16770   */\n      iszero\n      tag_319\n      jumpi\n        /* \"#utility.yul\":16760:16768   */\n      dup2\n        /* \"#utility.yul\":16745:16768   */\n      swap1\n      pop\n        /* \"#utility.yul\":16721:16770   */\n    tag_319:\n        /* \"#utility.yul\":16783:16863   */\n      tag_320\n        /* \"#utility.yul\":16839:16861   */\n      tag_321\n        /* \"#utility.yul\":16857:16860   */\n      dup6\n        /* \"#utility.yul\":16839:16861   */\n      tag_129\n      jump\t// in\n    tag_321:\n        /* \"#utility.yul\":16829:16837   */\n      dup4\n        /* \"#utility.yul\":16825:16862   */\n      add\n        /* \"#utility.yul\":16812:16823   */\n      dup3\n        /* \"#utility.yul\":16783:16863   */\n      tag_138\n      jump\t// in\n    tag_320:\n        /* \"#utility.yul\":16442:16873   */\n      pop\n      pop\n        /* \"#utility.yul\":16427:16873   */\n    tag_316:\n        /* \"#utility.yul\":16337:16880   */\n      pop\n      pop\n      pop\n      jump\t// out\n        /* \"#utility.yul\":16886:17003   */\n    tag_140:\n        /* \"#utility.yul\":16940:16948   */\n      0x00\n        /* \"#utility.yul\":16990:16995   */\n      dup3\n        /* \"#utility.yul\":16984:16988   */\n      dup3\n        /* \"#utility.yul\":16980:16996   */\n      shr\n        /* \"#utility.yul\":16959:16996   */\n      swap1\n      pop\n        /* \"#utility.yul\":16886:17003   */\n      swap3\n      swap2\n      pop\n      pop\n      jump\t// out\n        /* \"#utility.yul\":17009:17178   */\n    tag_141:\n        /* \"#utility.yul\":17053:17059   */\n      0x00\n        /* \"#utility.yul\":17086:17137   */\n      tag_324\n        /* \"#utility.yul\":17134:17135   */\n      0x00\n        /* \"#utility.yul\":17130:17136   */\n      not\n        /* \"#utility.yul\":17122:17127   */\n      dup5\n        /* \"#utility.yul\":17119:17120   */\n      0x08\n        /* \"#utility.yul\":17115:17128   */\n      mul\n        /* \"#utility.yul\":17086:17137   */\n      tag_140\n      jump\t// in\n    tag_324:\n        /* \"#utility.yul\":17082:17138   */\n      not\n        /* \"#utility.yul\":17167:17171   */\n      dup1\n        /* \"#utility.yul\":17161:17165   */\n      dup4\n        /* \"#utility.yul\":17157:17172   */\n      and\n        /* \"#utility.yul\":17147:17172   */\n      swap2\n      pop\n        /* \"#utility.yul\":17060:17178   */\n      pop\n        /* \"#utility.yul\":17009:17178   */\n      swap3\n      swap2\n      pop\n      pop\n      jump\t// out\n        /* \"#utility.yul\":17183:17478   */\n    tag_142:\n        /* \"#utility.yul\":17259:17263   */\n      0x00\n        /* \"#utility.yul\":17405:17434   */\n      tag_326\n        /* \"#utility.yul\":17430:17433   */\n      dup4\n        /* \"#utility.yul\":17424:17428   */\n      dup4\n        /* \"#utility.yul\":17405:17434   */\n      tag_141\n      jump\t// in\n    tag_326:\n        /* \"#utility.yul\":17397:17434   */\n      swap2\n      pop\n        /* \"#utility.yul\":17467:17470   */\n      dup3\n        /* \"#utility.yul\":17464:17465   */\n      0x02\n        /* \"#utility.yul\":17460:17471   */\n      mul\n        /* \"#utility.yul\":17454:17458   */\n      dup3\n        /* \"#utility.yul\":17451:17472   */\n      or\n        /* \"#utility.yul\":17443:17472   */\n      swap1\n      pop\n        /* \"#utility.yul\":17183:17478   */\n      swap3\n      swap2\n      pop\n      pop\n      jump\t// out\n        /* \"#utility.yul\":17483:18878   */\n    tag_60:\n        /* \"#utility.yul\":17600:17637   */\n      tag_328\n        /* \"#utility.yul\":17633:17636   */\n      dup3\n        /* \"#utility.yul\":17600:17637   */\n      tag_89\n      jump\t// in\n    tag_328:\n        /* \"#utility.yul\":17702:17720   */\n      0xffffffffffffffff\n        /* \"#utility.yul\":17694:17700   */\n      dup2\n        /* \"#utility.yul\":17691:17721   */\n      gt\n        /* \"#utility.yul\":17688:17744   */\n      iszero\n      tag_329\n      jumpi\n        /* \"#utility.yul\":17724:17742   */\n      tag_330\n      tag_56\n      jump\t// in\n    tag_330:\n        /* \"#utility.yul\":17688:17744   */\n    tag_329:\n        /* \"#utility.yul\":17768:17806   */\n      tag_331\n        /* \"#utility.yul\":17800:17804   */\n      dup3\n        /* \"#utility.yul\":17794:17805   */\n      sload\n        /* \"#utility.yul\":17768:17806   */\n      tag_33\n      jump\t// in\n    tag_331:\n        /* \"#utility.yul\":17853:17920   */\n      tag_332\n        /* \"#utility.yul\":17913:17919   */\n      dup3\n        /* \"#utility.yul\":17905:17911   */\n      dup3\n        /* \"#utility.yul\":17899:17903   */\n      dup6\n        /* \"#utility.yul\":17853:17920   */\n      tag_139\n      jump\t// in\n    tag_332:\n        /* \"#utility.yul\":17947:17948   */\n      0x00\n        /* \"#utility.yul\":17971:17975   */\n      0x20\n        /* \"#utility.yul\":17958:17975   */\n      swap1\n      pop\n        /* \"#utility.yul\":18003:18005   */\n      0x1f\n        /* \"#utility.yul\":17995:18001   */\n      dup4\n        /* \"#utility.yul\":17992:18006   */\n      gt\n        /* \"#utility.yul\":18020:18021   */\n      0x01\n        /* \"#utility.yul\":18015:18633   */\n      dup2\n      eq\n      tag_334\n      jumpi\n        /* \"#utility.yul\":18677:18678   */\n      0x00\n        /* \"#utility.yul\":18694:18700   */\n      dup5\n        /* \"#utility.yul\":18691:18768   */\n      iszero\n      tag_335\n      jumpi\n        /* \"#utility.yul\":18743:18752   */\n      dup3\n        /* \"#utility.yul\":18738:18741   */\n      dup8\n        /* \"#utility.yul\":18734:18753   */\n      add\n        /* \"#utility.yul\":18728:18754   */\n      mload\n        /* \"#utility.yul\":18719:18754   */\n      swap1\n      pop\n        /* \"#utility.yul\":18691:18768   */\n    tag_335:\n        /* \"#utility.yul\":18794:18861   */\n      tag_336\n        /* \"#utility.yul\":18854:18860   */\n      dup6\n        /* \"#utility.yul\":18847:18852   */\n      dup3\n        /* \"#utility.yul\":18794:18861   */\n      tag_142\n      jump\t// in\n    tag_336:\n        /* \"#utility.yul\":18788:18792   */\n      dup7\n        /* \"#utility.yul\":18781:18862   */\n      sstore\n        /* \"#utility.yul\":18650:18872   */\n      pop\n        /* \"#utility.yul\":17985:18872   */\n      jump(tag_333)\n        /* \"#utility.yul\":18015:18633   */\n    tag_334:\n        /* \"#utility.yul\":18067:18071   */\n      0x1f\n        /* \"#utility.yul\":18063:18072   */\n      not\n        /* \"#utility.yul\":18055:18061   */\n      dup5\n        /* \"#utility.yul\":18051:18073   */\n      and\n        /* \"#utility.yul\":18101:18138   */\n      tag_337\n        /* \"#utility.yul\":18133:18137   */\n      dup7\n        /* \"#utility.yul\":18101:18138   */\n      tag_128\n      jump\t// in\n    tag_337:\n        /* \"#utility.yul\":18160:18161   */\n      0x00\n        /* \"#utility.yul\":18174:18382   */\n    tag_338:\n        /* \"#utility.yul\":18188:18195   */\n      dup3\n        /* \"#utility.yul\":18185:18186   */\n      dup2\n        /* \"#utility.yul\":18182:18196   */\n      lt\n        /* \"#utility.yul\":18174:18382   */\n      iszero\n      tag_340\n      jumpi\n        /* \"#utility.yul\":18267:18276   */\n      dup5\n        /* \"#utility.yul\":18262:18265   */\n      dup10\n        /* \"#utility.yul\":18258:18277   */\n      add\n        /* \"#utility.yul\":18252:18278   */\n      mload\n        /* \"#utility.yul\":18244:18250   */\n      dup3\n        /* \"#utility.yul\":18237:18279   */\n      sstore\n        /* \"#utility.yul\":18318:18319   */\n      0x01\n        /* \"#utility.yul\":18310:18316   */\n      dup3\n        /* \"#utility.yul\":18306:18320   */\n      add\n        /* \"#utility.yul\":18296:18320   */\n      swap2\n      pop\n        /* \"#utility.yul\":18365:18367   */\n      0x20\n        /* \"#utility.yul\":18354:18363   */\n      dup6\n        /* \"#utility.yul\":18350:18368   */\n      add\n        /* \"#utility.yul\":18337:18368   */\n      swap5\n      pop\n        /* \"#utility.yul\":18211:18215   */\n      0x20\n        /* \"#utility.yul\":18208:18209   */\n      dup2\n        /* \"#utility.yul\":18204:18216   */\n      add\n        /* \"#utility.yul\":18199:18216   */\n      swap1\n      pop\n        /* \"#utility.yul\":18174:18382   */\n      jump(tag_338)\n    tag_340:\n        /* \"#utility.yul\":18410:18416   */\n      dup7\n        /* \"#utility.yul\":18401:18408   */\n      dup4\n        /* \"#utility.yul\":18398:18417   */\n      lt\n        /* \"#utility.yul\":18395:18574   */\n      iszero\n      tag_341\n      jumpi\n        /* \"#utility.yul\":18468:18477   */\n      dup5\n        /* \"#utility.yul\":18463:18466   */\n      dup10\n        /* \"#utility.yul\":18459:18478   */\n      add\n        /* \"#utility.yul\":18453:18479   */\n      mload\n        /* \"#utility.yul\":18511:18559   */\n      tag_342\n        /* \"#utility.yul\":18553:18557   */\n      0x1f\n        /* \"#utility.yul\":18545:18551   */\n      dup10\n        /* \"#utility.yul\":18541:18558   */\n      and\n        /* \"#utility.yul\":18530:18539   */\n      dup3\n        /* \"#utility.yul\":18511:18559   */\n      tag_141\n      jump\t// in\n    tag_342:\n        /* \"#utility.yul\":18503:18509   */\n      dup4\n        /* \"#utility.yul\":18496:18560   */\n      sstore\n        /* \"#utility.yul\":18418:18574   */\n      pop\n        /* \"#utility.yul\":18395:18574   */\n    tag_341:\n        /* \"#utility.yul\":18620:18621   */\n      0x01\n        /* \"#utility.yul\":18616:18617   */\n      0x02\n        /* \"#utility.yul\":18608:18614   */\n      dup9\n        /* \"#utility.yul\":18604:18618   */\n      mul\n        /* \"#utility.yul\":18600:18622   */\n      add\n        /* \"#utility.yul\":18594:18598   */\n      dup9\n        /* \"#utility.yul\":18587:18623   */\n      sstore\n        /* \"#utility.yul\":18022:18633   */\n      pop\n      pop\n      pop\n        /* \"#utility.yul\":17985:18872   */\n    tag_333:\n      pop\n        /* \"#utility.yul\":17575:18878   */\n      pop\n      pop\n      pop\n        /* \"#utility.yul\":17483:18878   */\n      pop\n      pop\n      jump\t// out\n\n    auxdata: 0xa2646970667358221220125480e7e21fee088424d5300a18ea62712cefbb59c21c0f68b04577b88da61564736f6c63430008100033\n}\n",
				"bytecode": {
					"linkReferences": {},
					"object": "608060405234801561001057600080fd5b50611079806100206000396000f3fe608060405234801561001057600080fd5b50600436106100365760003560e01c8063157bd75d1461003b5780637ba910411461006f575b600080fd5b610055600480360381019061005091906106c3565b61008b565b60405161006695949392919061091f565b60405180910390f35b61008960048036038101906100849190610bb7565b610382565b005b600060608060608060008667ffffffffffffffff16815481106100b1576100b0610c5e565b5b90600052602060002090600502016000015460008767ffffffffffffffff16815481106100e1576100e0610c5e565b5b906000526020600020906005020160010160008867ffffffffffffffff16815481106101105761010f610c5e565b5b906000526020600020906005020160020160008967ffffffffffffffff168154811061013f5761013e610c5e565b5b906000526020600020906005020160030160008a67ffffffffffffffff168154811061016e5761016d610c5e565b5b906000526020600020906005020160040183805461018b90610cbc565b80601f01602080910402602001604051908101604052809291908181526020018280546101b790610cbc565b80156102045780601f106101d957610100808354040283529160200191610204565b820191906000526020600020905b8154815290600101906020018083116101e757829003601f168201915b5050505050935082805461021790610cbc565b80601f016020809104026020016040519081016040528092919081815260200182805461024390610cbc565b80156102905780601f1061026557610100808354040283529160200191610290565b820191906000526020600020905b81548152906001019060200180831161027357829003601f168201915b505050505092508180548060200260200160405190810160405280929190818152602001828054801561031657602002820191906000526020600020906000905b82829054906101000a900467ffffffffffffffff1667ffffffffffffffff16815260200190600801906020826007010492830192600103820291508084116102d15790505b505050505091508080548060200260200160405190810160405280929190818152602001828054801561036857602002820191906000526020600020905b815481526020019060010190808311610354575b505050505090509450945094509450945091939590929450565b60008351116103c6576040517f08c379a00000000000000000000000000000000000000000000000000000000081526004016103bd90610d39565b60405180910390fd5b600181511161040a576040517f08c379a000000000000000000000000000000000000000000000000000000000815260040161040190610da5565b60405180910390fd5b60008080549050905060006040518060a00160405280838152602001868152602001858152602001845167ffffffffffffffff81111561044d5761044c610998565b5b60405190808252806020026020018201604052801561047b5781602001602082028036833780820191505090505b50815260200184815250905060008190806001815401808255809150506001900390600052602060002090600502016000909190919091506000820151816000015560208201518160010190816104d29190610f71565b5060408201518160020190816104e89190610f71565b50606082015181600301908051906020019061050592919061052c565b5060808201518160040190805190602001906105229291906105e8565b5050505050505050565b828054828255906000526020600020906003016004900481019282156105d75791602002820160005b838211156105a157835183826101000a81548167ffffffffffffffff021916908367ffffffffffffffff1602179055509260200192600801602081600701049283019260010302610555565b80156105d55782816101000a81549067ffffffffffffffff02191690556008016020816007010492830192600103026105a1565b505b5090506105e49190610635565b5090565b828054828255906000526020600020908101928215610624579160200282015b82811115610623578251825591602001919060010190610608565b5b5090506106319190610652565b5090565b5b8082111561064e576000816000905550600101610636565b5090565b5b8082111561066b576000816000905550600101610653565b5090565b6000604051905090565b600080fd5b600080fd5b600067ffffffffffffffff82169050919050565b6106a081610683565b81146106ab57600080fd5b50565b6000813590506106bd81610697565b92915050565b6000602082840312156106d9576106d8610679565b5b60006106e7848285016106ae565b91505092915050565b6000819050919050565b610703816106f0565b82525050565b600081519050919050565b600082825260208201905092915050565b60005b83811015610743578082015181840152602081019050610728565b60008484015250505050565b6000601f19601f8301169050919050565b600061076b82610709565b6107758185610714565b9350610785818560208601610725565b61078e8161074f565b840191505092915050565b600081519050919050565b600082825260208201905092915050565b6000819050602082019050919050565b6107ce81610683565b82525050565b60006107e083836107c5565b60208301905092915050565b6000602082019050919050565b600061080482610799565b61080e81856107a4565b9350610819836107b5565b8060005b8381101561084a57815161083188826107d4565b975061083c836107ec565b92505060018101905061081d565b5085935050505092915050565b600081519050919050565b600082825260208201905092915050565b6000819050602082019050919050565b6000819050919050565b61089681610883565b82525050565b60006108a8838361088d565b60208301905092915050565b6000602082019050919050565b60006108cc82610857565b6108d68185610862565b93506108e183610873565b8060005b838110156109125781516108f9888261089c565b9750610904836108b4565b9250506001810190506108e5565b5085935050505092915050565b600060a08201905061093460008301886106fa565b81810360208301526109468187610760565b9050818103604083015261095a8186610760565b9050818103606083015261096e81856107f9565b9050818103608083015261098281846108c1565b90509695505050505050565b600080fd5b600080fd5b7f4e487b7100000000000000000000000000000000000000000000000000000000600052604160045260246000fd5b6109d08261074f565b810181811067ffffffffffffffff821117156109ef576109ee610998565b5b80604052505050565b6000610a0261066f565b9050610a0e82826109c7565b919050565b600067ffffffffffffffff821115610a2e57610a2d610998565b5b610a378261074f565b9050602081019050919050565b82818337600083830152505050565b6000610a66610a6184610a13565b6109f8565b905082815260208101848484011115610a8257610a81610993565b5b610a8d848285610a44565b509392505050565b600082601f830112610aaa57610aa961098e565b5b8135610aba848260208601610a53565b91505092915050565b600067ffffffffffffffff821115610ade57610add610998565b5b602082029050602081019050919050565b600080fd5b610afd81610883565b8114610b0857600080fd5b50565b600081359050610b1a81610af4565b92915050565b6000610b33610b2e84610ac3565b6109f8565b90508083825260208201905060208402830185811115610b5657610b55610aef565b5b835b81811015610b7f5780610b6b8882610b0b565b845260208401935050602081019050610b58565b5050509392505050565b600082601f830112610b9e57610b9d61098e565b5b8135610bae848260208601610b20565b91505092915050565b600080600060608486031215610bd057610bcf610679565b5b600084013567ffffffffffffffff811115610bee57610bed61067e565b5b610bfa86828701610a95565b935050602084013567ffffffffffffffff811115610c1b57610c1a61067e565b5b610c2786828701610a95565b925050604084013567ffffffffffffffff811115610c4857610c4761067e565b5b610c5486828701610b89565b9150509250925092565b7f4e487b7100000000000000000000000000000000000000000000000000000000600052603260045260246000fd5b7f4e487b7100000000000000000000000000000000000000000000000000000000600052602260045260246000fd5b60006002820490506001821680610cd457607f821691505b602082108103610ce757610ce6610c8d565b5b50919050565b7f456d707479207175657374696f6e000000000000000000000000000000000000600082015250565b6000610d23600e83610714565b9150610d2e82610ced565b602082019050919050565b60006020820190508181036000830152610d5281610d16565b9050919050565b7f4174206c656173742032206f7074696f6e732072657175697265640000000000600082015250565b6000610d8f601b83610714565b9150610d9a82610d59565b602082019050919050565b60006020820190508181036000830152610dbe81610d82565b9050919050565b60008190508160005260206000209050919050565b60006020601f8301049050919050565b600082821b905092915050565b600060088302610e277fffffffffffffffffffffffffffffffffffffffffffffffffffffffffffffffff82610dea565b610e318683610dea565b95508019841693508086168417925050509392505050565b6000819050919050565b6000610e6e610e69610e64846106f0565b610e49565b6106f0565b9050919050565b6000819050919050565b610e8883610e53565b610e9c610e9482610e75565b848454610df7565b825550505050565b600090565b610eb1610ea4565b610ebc818484610e7f565b505050565b5b81811015610ee057610ed5600082610ea9565b600181019050610ec2565b5050565b601f821115610f2557610ef681610dc5565b610eff84610dda565b81016020851015610f0e578190505b610f22610f1a85610dda565b830182610ec1565b50505b505050565b600082821c905092915050565b6000610f4860001984600802610f2a565b1980831691505092915050565b6000610f618383610f37565b9150826002028217905092915050565b610f7a82610709565b67ffffffffffffffff811115610f9357610f92610998565b5b610f9d8254610cbc565b610fa8828285610ee4565b600060209050601f831160018114610fdb5760008415610fc9578287015190505b610fd38582610f55565b86555061103b565b601f198416610fe986610dc5565b60005b8281101561101157848901518255600182019150602085019450602081019050610fec565b8683101561102e578489015161102a601f891682610f37565b8355505b6001600288020188555050505b50505050505056fea2646970667358221220125480e7e21fee088424d5300a18ea62712cefbb59c21c0f68b04577b88da61564736f6c63430008100033",
					"opcodes": "PUSH1 0x80 PUSH1 0x40 MSTORE CALLVALUE DUP1 ISZERO PUSH2 0x10 JUMPI PUSH1 0x0 DUP1 REVERT JUMPDEST POP PUSH2 0x1079 DUP1 PUSH2 0x20 PUSH1 0x0 CODECOPY PUSH1 0x0 RETURN INVALID PUSH1 0x80 PUSH1 0x40 MSTORE CALLVALUE DUP1 ISZERO PUSH2 0x10 JUMPI PUSH1 0x0 DUP1 REVERT JUMPDEST POP PUSH1 0x4 CALLDATASIZE LT PUSH2 0x36 JUMPI PUSH1 0x0 CALLDATALOAD PUSH1 0xE0 SHR DUP1 PUSH4 0x157BD75D EQ PUSH2 0x3B JUMPI DUP1 PUSH4 0x7BA91041 EQ PUSH2 0x6F JUMPI JUMPDEST PUSH1 0x0 DUP1 REVERT JUMPDEST PUSH2 0x55 PUSH1 0x4 DUP1 CALLDATASIZE SUB DUP2 ADD SWAP1 PUSH2 0x50 SWAP2 SWAP1 PUSH2 0x6C3 JUMP JUMPDEST PUSH2 0x8B JUMP JUMPDEST PUSH1 0x40 MLOAD PUSH2 0x66 SWAP6 SWAP5 SWAP4 SWAP3 SWAP2 SWAP1 PUSH2 0x91F JUMP JUMPDEST PUSH1 0x40 MLOAD DUP1 SWAP2 SUB SWAP1 RETURN JUMPDEST PUSH2 0x89 PUSH1 0x4 DUP1 CALLDATASIZE SUB DUP2 ADD SWAP1 PUSH2 0x84 SWAP2 SWAP1 PUSH2 0xBB7 JUMP JUMPDEST PUSH2 0x382 JUMP JUMPDEST STOP JUMPDEST PUSH1 0x0 PUSH1 0x60 DUP1 PUSH1 0x60 DUP1 PUSH1 0x0 DUP7 PUSH8 0xFFFFFFFFFFFFFFFF AND DUP2 SLOAD DUP2 LT PUSH2 0xB1 JUMPI PUSH2 0xB0 PUSH2 0xC5E JUMP JUMPDEST JUMPDEST SWAP1 PUSH1 0x0 MSTORE PUSH1 0x20 PUSH1 0x0 KECCAK256 SWAP1 PUSH1 0x5 MUL ADD PUSH1 0x0 ADD SLOAD PUSH1 0x0 DUP8 PUSH8 0xFFFFFFFFFFFFFFFF AND DUP2 SLOAD DUP2 LT PUSH2 0xE1 JUMPI PUSH2 0xE0 PUSH2 0xC5E JUMP JUMPDEST JUMPDEST SWAP1 PUSH1 0x0 MSTORE PUSH1 0x20 PUSH1 0x0 KECCAK256 SWAP1 PUSH1 0x5 MUL ADD PUSH1 0x1 ADD PUSH1 0x0 DUP9 PUSH8 0xFFFFFFFFFFFFFFFF AND DUP2 SLOAD DUP2 LT PUSH2 0x110 JUMPI PUSH2 0x10F PUSH2 0xC5E JUMP JUMPDEST JUMPDEST SWAP1 PUSH1 0x0 MSTORE PUSH1 0x20 PUSH1 0x0 KECCAK256 SWAP1 PUSH1 0x5 MUL ADD PUSH1 0x2 ADD PUSH1 0x0 DUP10 PUSH8 0xFFFFFFFFFFFFFFFF AND DUP2 SLOAD DUP2 LT PUSH2 0x13F JUMPI PUSH2 0x13E PUSH2 0xC5E JUMP JUMPDEST JUMPDEST SWAP1 PUSH1 0x0 MSTORE PUSH1 0x20 PUSH1 0x0 KECCAK256 SWAP1 PUSH1 0x5 MUL ADD PUSH1 0x3 ADD PUSH1 0x0 DUP11 PUSH8 0xFFFFFFFFFFFFFFFF AND DUP2 SLOAD DUP2 LT PUSH2 0x16E JUMPI PUSH2 0x16D PUSH2 0xC5E JUMP JUMPDEST JUMPDEST SWAP1 PUSH1 0x0 MSTORE PUSH1 0x20 PUSH1 0x0 KECCAK256 SWAP1 PUSH1 0x5 MUL ADD PUSH1 0x4 ADD DUP4 DUP1 SLOAD PUSH2 0x18B SWAP1 PUSH2 0xCBC JUMP JUMPDEST DUP1 PUSH1 0x1F ADD PUSH1 0x20 DUP1 SWAP2 DIV MUL PUSH1 0x20 ADD PUSH1 0x40 MLOAD SWAP1 DUP2 ADD PUSH1 0x40 MSTORE DUP1 SWAP3 SWAP2 SWAP1 DUP2 DUP2 MSTORE PUSH1 0x20 ADD DUP3 DUP1 SLOAD PUSH2 0x1B7 SWAP1 PUSH2 0xCBC JUMP JUMPDEST DUP1 ISZERO PUSH2 0x204 JUMPI DUP1 PUSH1 0x1F LT PUSH2 0x1D9 JUMPI PUSH2 0x100 DUP1 DUP4 SLOAD DIV MUL DUP4 MSTORE SWAP2 PUSH1 0x20 ADD SWAP2 PUSH2 0x204 JUMP JUMPDEST DUP3 ADD SWAP2 SWAP1 PUSH1 0x0 MSTORE PUSH1 0x20 PUSH1 0x0 KECCAK256 SWAP1 JUMPDEST DUP2 SLOAD DUP2 MSTORE SWAP1 PUSH1 0x1 ADD SWAP1 PUSH1 0x20 ADD DUP1 DUP4 GT PUSH2 0x1E7 JUMPI DUP3 SWAP1 SUB PUSH1 0x1F AND DUP3 ADD SWAP2 JUMPDEST POP POP POP POP POP SWAP4 POP DUP3 DUP1 SLOAD PUSH2 0x217 SWAP1 PUSH2 0xCBC JUMP JUMPDEST DUP1 PUSH1 0x1F ADD PUSH1 0x20 DUP1 SWAP2 DIV MUL PUSH1 0x20 ADD PUSH1 0x40 MLOAD SWAP1 DUP2 ADD PUSH1 0x40 MSTORE DUP1 SWAP3 SWAP2 SWAP1 DUP2 DUP2 MSTORE PUSH1 0x20 ADD DUP3 DUP1 SLOAD PUSH2 0x243 SWAP1 PUSH2 0xCBC JUMP JUMPDEST DUP1 ISZERO PUSH2 0x290 JUMPI DUP1 PUSH1 0x1F LT PUSH2 0x265 JUMPI PUSH2 0x100 DUP1 DUP4 SLOAD DIV MUL DUP4 MSTORE SWAP2 PUSH1 0x20 ADD SWAP2 PUSH2 0x290 JUMP JUMPDEST DUP3 ADD SWAP2 SWAP1 PUSH1 0x0 MSTORE PUSH1 0x20 PUSH1 0x0 KECCAK256 SWAP1 JUMPDEST DUP2 SLOAD DUP2 MSTORE SWAP1 PUSH1 0x1 ADD SWAP1 PUSH1 0x20 ADD DUP1 DUP4 GT PUSH2 0x273 JUMPI DUP3 SWAP1 SUB PUSH1 0x1F AND DUP3 ADD SWAP2 JUMPDEST POP POP POP POP POP SWAP3 POP DUP2 DUP1 SLOAD DUP1 PUSH1 0x20 MUL PUSH1 0x20 ADD PUSH1 0x40 MLOAD SWAP1 DUP2 ADD PUSH1 0x40 MSTORE DUP1 SWAP3 SWAP2 SWAP1 DUP2 DUP2 MSTORE PUSH1 0x20 ADD DUP3 DUP1 SLOAD DUP1 ISZERO PUSH2 0x316 JUMPI PUSH1 0x20 MUL DUP3 ADD SWAP2 SWAP1 PUSH1 0x0 MSTORE PUSH1 0x20 PUSH1 0x0 KECCAK256 SWAP1 PUSH1 0x0 SWAP1 JUMPDEST DUP3 DUP3 SWAP1 SLOAD SWAP1 PUSH2 0x100 EXP SWAP1 DIV PUSH8 0xFFFFFFFFFFFFFFFF AND PUSH8 0xFFFFFFFFFFFFFFFF AND DUP2 MSTORE PUSH1 0x20 ADD SWAP1 PUSH1 0x8 ADD SWAP1 PUSH1 0x20 DUP3 PUSH1 0x7 ADD DIV SWAP3 DUP4 ADD SWAP3 PUSH1 0x1 SUB DUP3 MUL SWAP2 POP DUP1 DUP5 GT PUSH2 0x2D1 JUMPI SWAP1 POP JUMPDEST POP POP POP POP POP SWAP2 POP DUP1 DUP1 SLOAD DUP1 PUSH1 0x20 MUL PUSH1 0x20 ADD PUSH1 0x40 MLOAD SWAP1 DUP2 ADD PUSH1 0x40 MSTORE DUP1 SWAP3 SWAP2 SWAP1 DUP2 DUP2 MSTORE PUSH1 0x20 ADD DUP3 DUP1 SLOAD DUP1 ISZERO PUSH2 0x368 JUMPI PUSH1 0x20 MUL DUP3 ADD SWAP2 SWAP1 PUSH1 0x0 MSTORE PUSH1 0x20 PUSH1 0x0 KECCAK256 SWAP1 JUMPDEST DUP2 SLOAD DUP2 MSTORE PUSH1 0x20 ADD SWAP1 PUSH1 0x1 ADD SWAP1 DUP1 DUP4 GT PUSH2 0x354 JUMPI JUMPDEST POP POP POP POP POP SWAP1 POP SWAP5 POP SWAP5 POP SWAP5 POP SWAP5 POP SWAP5 POP SWAP2 SWAP4 SWAP6 SWAP1 SWAP3 SWAP5 POP JUMP JUMPDEST PUSH1 0x0 DUP4 MLOAD GT PUSH2 0x3C6 JUMPI PUSH1 0x40 MLOAD PUSH32 0x8C379A000000000000000000000000000000000000000000000000000000000 DUP2 MSTORE PUSH1 0x4 ADD PUSH2 0x3BD SWAP1 PUSH2 0xD39 JUMP JUMPDEST PUSH1 0x40 MLOAD DUP1 SWAP2 SUB SWAP1 REVERT JUMPDEST PUSH1 0x1 DUP2 MLOAD GT PUSH2 0x40A JUMPI PUSH1 0x40 MLOAD PUSH32 0x8C379A000000000000000000000000000000000000000000000000000000000 DUP2 MSTORE PUSH1 0x4 ADD PUSH2 0x401 SWAP1 PUSH2 0xDA5 JUMP JUMPDEST PUSH1 0x40 MLOAD DUP1 SWAP2 SUB SWAP1 REVERT JUMPDEST PUSH1 0x0 DUP1 DUP1 SLOAD SWAP1 POP SWAP1 POP PUSH1 0x0 PUSH1 0x40 MLOAD DUP1 PUSH1 0xA0 ADD PUSH1 0x40 MSTORE DUP1 DUP4 DUP2 MSTORE PUSH1 0x20 ADD DUP7 DUP2 MSTORE PUSH1 0x20 ADD DUP6 DUP2 MSTORE PUSH1 0x20 ADD DUP5 MLOAD PUSH8 0xFFFFFFFFFFFFFFFF DUP2 GT ISZERO PUSH2 0x44D JUMPI PUSH2 0x44C PUSH2 0x998 JUMP JUMPDEST JUMPDEST PUSH1 0x40 MLOAD SWAP1 DUP1 DUP3 MSTORE DUP1 PUSH1 0x20 MUL PUSH1 0x20 ADD DUP3 ADD PUSH1 0x40 MSTORE DUP1 ISZERO PUSH2 0x47B JUMPI DUP2 PUSH1 0x20 ADD PUSH1 0x20 DUP3 MUL DUP1 CALLDATASIZE DUP4 CALLDATACOPY DUP1 DUP3 ADD SWAP2 POP POP SWAP1 POP JUMPDEST POP DUP2 MSTORE PUSH1 0x20 ADD DUP5 DUP2 MSTORE POP SWAP1 POP PUSH1 0x0 DUP2 SWAP1 DUP1 PUSH1 0x1 DUP2 SLOAD ADD DUP1 DUP3 SSTORE DUP1 SWAP2 POP POP PUSH1 0x1 SWAP1 SUB SWAP1 PUSH1 0x0 MSTORE PUSH1 0x20 PUSH1 0x0 KECCAK256 SWAP1 PUSH1 0x5 MUL ADD PUSH1 0x0 SWAP1 SWAP2 SWAP1 SWAP2 SWAP1 SWAP2 POP PUSH1 0x0 DUP3 ADD MLOAD DUP2 PUSH1 0x0 ADD SSTORE PUSH1 0x20 DUP3 ADD MLOAD DUP2 PUSH1 0x1 ADD SWAP1 DUP2 PUSH2 0x4D2 SWAP2 SWAP1 PUSH2 0xF71 JUMP JUMPDEST POP PUSH1 0x40 DUP3 ADD MLOAD DUP2 PUSH1 0x2 ADD SWAP1 DUP2 PUSH2 0x4E8 SWAP2 SWAP1 PUSH2 0xF71 JUMP JUMPDEST POP PUSH1 0x60 DUP3 ADD MLOAD DUP2 PUSH1 0x3 ADD SWAP1 DUP1 MLOAD SWAP1 PUSH1 0x20 ADD SWAP1 PUSH2 0x505 SWAP3 SWAP2 SWAP1 PUSH2 0x52C JUMP JUMPDEST POP PUSH1 0x80 DUP3 ADD MLOAD DUP2 PUSH1 0x4 ADD SWAP1 DUP1 MLOAD SWAP1 PUSH1 0x20 ADD SWAP1 PUSH2 0x522 SWAP3 SWAP2 SWAP1 PUSH2 0x5E8 JUMP JUMPDEST POP POP POP POP POP POP POP POP JUMP JUMPDEST DUP3 DUP1 SLOAD DUP3 DUP3 SSTORE SWAP1 PUSH1 0x0 MSTORE PUSH1 0x20 PUSH1 0x0 KECCAK256 SWAP1 PUSH1 0x3 ADD PUSH1 0x4 SWAP1 DIV DUP2 ADD SWAP3 DUP3 ISZERO PUSH2 0x5D7 JUMPI SWAP2 PUSH1 0x20 MUL DUP3 ADD PUSH1 0x0 JUMPDEST DUP4 DUP3 GT ISZERO PUSH2 0x5A1 JUMPI DUP4 MLOAD DUP4 DUP3 PUSH2 0x100 EXP DUP2 SLOAD DUP2 PUSH8 0xFFFFFFFFFFFFFFFF MUL NOT AND SWAP1 DUP4 PUSH8 0xFFFFFFFFFFFFFFFF AND MUL OR SWAP1 SSTORE POP SWAP3 PUSH1 0x20 ADD SWAP3 PUSH1 0x8 ADD PUSH1 0x20 DUP2 PUSH1 0x7 ADD DIV SWAP3 DUP4 ADD SWAP3 PUSH1 0x1 SUB MUL PUSH2 0x555 JUMP JUMPDEST DUP1 ISZERO PUSH2 0x5D5 JUMPI DUP3 DUP2 PUSH2 0x100 EXP DUP2 SLOAD SWAP1 PUSH8 0xFFFFFFFFFFFFFFFF MUL NOT AND SWAP1 SSTORE PUSH1 0x8 ADD PUSH1 0x20 DUP2 PUSH1 0x7 ADD DIV SWAP3 DUP4 ADD SWAP3 PUSH1 0x1 SUB MUL PUSH2 0x5A1 JUMP JUMPDEST POP JUMPDEST POP SWAP1 POP PUSH2 0x5E4 SWAP2 SWAP1 PUSH2 0x635 JUMP JUMPDEST POP SWAP1 JUMP JUMPDEST DUP3 DUP1 SLOAD DUP3 DUP3 SSTORE SWAP1 PUSH1 0x0 MSTORE PUSH1 0x20 PUSH1 0x0 KECCAK256 SWAP1 DUP2 ADD SWAP3 DUP3 ISZERO PUSH2 0x624 JUMPI SWAP2 PUSH1 0x20 MUL DUP3 ADD JUMPDEST DUP3 DUP2 GT ISZERO PUSH2 0x623 JUMPI DUP3 MLOAD DUP3 SSTORE SWAP2 PUSH1 0x20 ADD SWAP2 SWAP1 PUSH1 0x1 ADD SWAP1 PUSH2 0x608 JUMP JUMPDEST JUMPDEST POP SWAP1 POP PUSH2 0x631 SWAP2 SWAP1 PUSH2 0x652 JUMP JUMPDEST POP SWAP1 JUMP JUMPDEST JUMPDEST DUP1 DUP3 GT ISZERO PUSH2 0x64E JUMPI PUSH1 0x0 DUP2 PUSH1 0x0 SWAP1 SSTORE POP PUSH1 0x1 ADD PUSH2 0x636 JUMP JUMPDEST POP SWAP1 JUMP JUMPDEST JUMPDEST DUP1 DUP3 GT ISZERO PUSH2 0x66B JUMPI PUSH1 0x0 DUP2 PUSH1 0x0 SWAP1 SSTORE POP PUSH1 0x1 ADD PUSH2 0x653 JUMP JUMPDEST POP SWAP1 JUMP JUMPDEST PUSH1 0x0 PUSH1 0x40 MLOAD SWAP1 POP SWAP1 JUMP JUMPDEST PUSH1 0x0 DUP1 REVERT JUMPDEST PUSH1 0x0 DUP1 REVERT JUMPDEST PUSH1 0x0 PUSH8 0xFFFFFFFFFFFFFFFF DUP3 AND SWAP1 POP SWAP2 SWAP1 POP JUMP JUMPDEST PUSH2 0x6A0 DUP2 PUSH2 0x683 JUMP JUMPDEST DUP2 EQ PUSH2 0x6AB JUMPI PUSH1 0x0 DUP1 REVERT JUMPDEST POP JUMP JUMPDEST PUSH1 0x0 DUP2 CALLDATALOAD SWAP1 POP PUSH2 0x6BD DUP2 PUSH2 0x697 JUMP JUMPDEST SWAP3 SWAP2 POP POP JUMP JUMPDEST PUSH1 0x0 PUSH1 0x20 DUP3 DUP5 SUB SLT ISZERO PUSH2 0x6D9 JUMPI PUSH2 0x6D8 PUSH2 0x679 JUMP JUMPDEST JUMPDEST PUSH1 0x0 PUSH2 0x6E7 DUP5 DUP3 DUP6 ADD PUSH2 0x6AE JUMP JUMPDEST SWAP2 POP POP SWAP3 SWAP2 POP POP JUMP JUMPDEST PUSH1 0x0 DUP2 SWAP1 POP SWAP2 SWAP1 POP JUMP JUMPDEST PUSH2 0x703 DUP2 PUSH2 0x6F0 JUMP JUMPDEST DUP3 MSTORE POP POP JUMP JUMPDEST PUSH1 0x0 DUP2 MLOAD SWAP1 POP SWAP2 SWAP1 POP JUMP JUMPDEST PUSH1 0x0 DUP3 DUP3 MSTORE PUSH1 0x20 DUP3 ADD SWAP1 POP SWAP3 SWAP2 POP POP JUMP JUMPDEST PUSH1 0x0 JUMPDEST DUP4 DUP2 LT ISZERO PUSH2 0x743 JUMPI DUP1 DUP3 ADD MLOAD DUP2 DUP5 ADD MSTORE PUSH1 0x20 DUP2 ADD SWAP1 POP PUSH2 0x728 JUMP JUMPDEST PUSH1 0x0 DUP5 DUP5 ADD MSTORE POP POP POP POP JUMP JUMPDEST PUSH1 0x0 PUSH1 0x1F NOT PUSH1 0x1F DUP4 ADD AND SWAP1 POP SWAP2 SWAP1 POP JUMP JUMPDEST PUSH1 0x0 PUSH2 0x76B DUP3 PUSH2 0x709 JUMP JUMPDEST PUSH2 0x775 DUP2 DUP6 PUSH2 0x714 JUMP JUMPDEST SWAP4 POP PUSH2 0x785 DUP2 DUP6 PUSH1 0x20 DUP7 ADD PUSH2 0x725 JUMP JUMPDEST PUSH2 0x78E DUP2 PUSH2 0x74F JUMP JUMPDEST DUP5 ADD SWAP2 POP POP SWAP3 SWAP2 POP POP JUMP JUMPDEST PUSH1 0x0 DUP2 MLOAD SWAP1 POP SWAP2 SWAP1 POP JUMP JUMPDEST PUSH1 0x0 DUP3 DUP3 MSTORE PUSH1 0x20 DUP3 ADD SWAP1 POP SWAP3 SWAP2 POP POP JUMP JUMPDEST PUSH1 0x0 DUP2 SWAP1 POP PUSH1 0x20 DUP3 ADD SWAP1 POP SWAP2 SWAP1 POP JUMP JUMPDEST PUSH2 0x7CE DUP2 PUSH2 0x683 JUMP JUMPDEST DUP3 MSTORE POP POP JUMP JUMPDEST PUSH1 0x0 PUSH2 0x7E0 DUP4 DUP4 PUSH2 0x7C5 JUMP JUMPDEST PUSH1 0x20 DUP4 ADD SWAP1 POP SWAP3 SWAP2 POP POP JUMP JUMPDEST PUSH1 0x0 PUSH1 0x20 DUP3 ADD SWAP1 POP SWAP2 SWAP1 POP JUMP JUMPDEST PUSH1 0x0 PUSH2 0x804 DUP3 PUSH2 0x799 JUMP JUMPDEST PUSH2 0x80E DUP2 DUP6 PUSH2 0x7A4 JUMP JUMPDEST SWAP4 POP PUSH2 0x819 DUP4 PUSH2 0x7B5 JUMP JUMPDEST DUP1 PUSH1 0x0 JUMPDEST DUP4 DUP2 LT ISZERO PUSH2 0x84A JUMPI DUP2 MLOAD PUSH2 0x831 DUP9 DUP3 PUSH2 0x7D4 JUMP JUMPDEST SWAP8 POP PUSH2 0x83C DUP4 PUSH2 0x7EC JUMP JUMPDEST SWAP3 POP POP PUSH1 0x1 DUP2 ADD SWAP1 POP PUSH2 0x81D JUMP JUMPDEST POP DUP6 SWAP4 POP POP POP POP SWAP3 SWAP2 POP POP JUMP JUMPDEST PUSH1 0x0 DUP2 MLOAD SWAP1 POP SWAP2 SWAP1 POP JUMP JUMPDEST PUSH1 0x0 DUP3 DUP3 MSTORE PUSH1 0x20 DUP3 ADD SWAP1 POP SWAP3 SWAP2 POP POP JUMP JUMPDEST PUSH1 0x0 DUP2 SWAP1 POP PUSH1 0x20 DUP3 ADD SWAP1 POP SWAP2 SWAP1 POP JUMP JUMPDEST PUSH1 0x0 DUP2 SWAP1 POP SWAP2 SWAP1 POP JUMP JUMPDEST PUSH2 0x896 DUP2 PUSH2 0x883 JUMP JUMPDEST DUP3 MSTORE POP POP JUMP JUMPDEST PUSH1 0x0 PUSH2 0x8A8 DUP4 DUP4 PUSH2 0x88D JUMP JUMPDEST PUSH1 0x20 DUP4 ADD SWAP1 POP SWAP3 SWAP2 POP POP JUMP JUMPDEST PUSH1 0x0 PUSH1 0x20 DUP3 ADD SWAP1 POP SWAP2 SWAP1 POP JUMP JUMPDEST PUSH1 0x0 PUSH2 0x8CC DUP3 PUSH2 0x857 JUMP JUMPDEST PUSH2 0x8D6 DUP2 DUP6 PUSH2 0x862 JUMP JUMPDEST SWAP4 POP PUSH2 0x8E1 DUP4 PUSH2 0x873 JUMP JUMPDEST DUP1 PUSH1 0x0 JUMPDEST DUP4 DUP2 LT ISZERO PUSH2 0x912 JUMPI DUP2 MLOAD PUSH2 0x8F9 DUP9 DUP3 PUSH2 0x89C JUMP JUMPDEST SWAP8 POP PUSH2 0x904 DUP4 PUSH2 0x8B4 JUMP JUMPDEST SWAP3 POP POP PUSH1 0x1 DUP2 ADD SWAP1 POP PUSH2 0x8E5 JUMP JUMPDEST POP DUP6 SWAP4 POP POP POP POP SWAP3 SWAP2 POP POP JUMP JUMPDEST PUSH1 0x0 PUSH1 0xA0 DUP3 ADD SWAP1 POP PUSH2 0x934 PUSH1 0x0 DUP4 ADD DUP9 PUSH2 0x6FA JUMP JUMPDEST DUP2 DUP2 SUB PUSH1 0x20 DUP4 ADD MSTORE PUSH2 0x946 DUP2 DUP8 PUSH2 0x760 JUMP JUMPDEST SWAP1 POP DUP2 DUP2 SUB PUSH1 0x40 DUP4 ADD MSTORE PUSH2 0x95A DUP2 DUP7 PUSH2 0x760 JUMP JUMPDEST SWAP1 POP DUP2 DUP2 SUB PUSH1 0x60 DUP4 ADD MSTORE PUSH2 0x96E DUP2 DUP6 PUSH2 0x7F9 JUMP JUMPDEST SWAP1 POP DUP2 DUP2 SUB PUSH1 0x80 DUP4 ADD MSTORE PUSH2 0x982 DUP2 DUP5 PUSH2 0x8C1 JUMP JUMPDEST SWAP1 POP SWAP7 SWAP6 POP POP POP POP POP POP JUMP JUMPDEST PUSH1 0x0 DUP1 REVERT JUMPDEST PUSH1 0x0 DUP1 REVERT JUMPDEST PUSH32 0x4E487B7100000000000000000000000000000000000000000000000000000000 PUSH1 0x0 MSTORE PUSH1 0x41 PUSH1 0x4 MSTORE PUSH1 0x24 PUSH1 0x0 REVERT JUMPDEST PUSH2 0x9D0 DUP3 PUSH2 0x74F JUMP JUMPDEST DUP2 ADD DUP2 DUP2 LT PUSH8 0xFFFFFFFFFFFFFFFF DUP3 GT OR ISZERO PUSH2 0x9EF JUMPI PUSH2 0x9EE PUSH2 0x998 JUMP JUMPDEST JUMPDEST DUP1 PUSH1 0x40 MSTORE POP POP POP JUMP JUMPDEST PUSH1 0x0 PUSH2 0xA02 PUSH2 0x66F JUMP JUMPDEST SWAP1 POP PUSH2 0xA0E DUP3 DUP3 PUSH2 0x9C7 JUMP JUMPDEST SWAP2 SWAP1 POP JUMP JUMPDEST PUSH1 0x0 PUSH8 0xFFFFFFFFFFFFFFFF DUP3 GT ISZERO PUSH2 0xA2E JUMPI PUSH2 0xA2D PUSH2 0x998 JUMP JUMPDEST JUMPDEST PUSH2 0xA37 DUP3 PUSH2 0x74F JUMP JUMPDEST SWAP1 POP PUSH1 0x20 DUP2 ADD SWAP1 POP SWAP2 SWAP1 POP JUMP JUMPDEST DUP3 DUP2 DUP4 CALLDATACOPY PUSH1 0x0 DUP4 DUP4 ADD MSTORE POP POP POP JUMP JUMPDEST PUSH1 0x0 PUSH2 0xA66 PUSH2 0xA61 DUP5 PUSH2 0xA13 JUMP JUMPDEST PUSH2 0x9F8 JUMP JUMPDEST SWAP1 POP DUP3 DUP2 MSTORE PUSH1 0x20 DUP2 ADD DUP5 DUP5 DUP5 ADD GT ISZERO PUSH2 0xA82 JUMPI PUSH2 0xA81 PUSH2 0x993 JUMP JUMPDEST JUMPDEST PUSH2 0xA8D DUP5 DUP3 DUP6 PUSH2 0xA44 JUMP JUMPDEST POP SWAP4 SWAP3 POP POP POP JUMP JUMPDEST PUSH1 0x0 DUP3 PUSH1 0x1F DUP4 ADD SLT PUSH2 0xAAA JUMPI PUSH2 0xAA9 PUSH2 0x98E JUMP JUMPDEST JUMPDEST DUP2 CALLDATALOAD PUSH2 0xABA DUP5 DUP3 PUSH1 0x20 DUP7 ADD PUSH2 0xA53 JUMP JUMPDEST SWAP2 POP POP SWAP3 SWAP2 POP POP JUMP JUMPDEST PUSH1 0x0 PUSH8 0xFFFFFFFFFFFFFFFF DUP3 GT ISZERO PUSH2 0xADE JUMPI PUSH2 0xADD PUSH2 0x998 JUMP JUMPDEST JUMPDEST PUSH1 0x20 DUP3 MUL SWAP1 POP PUSH1 0x20 DUP2 ADD SWAP1 POP SWAP2 SWAP1 POP JUMP JUMPDEST PUSH1 0x0 DUP1 REVERT JUMPDEST PUSH2 0xAFD DUP2 PUSH2 0x883 JUMP JUMPDEST DUP2 EQ PUSH2 0xB08 JUMPI PUSH1 0x0 DUP1 REVERT JUMPDEST POP JUMP JUMPDEST PUSH1 0x0 DUP2 CALLDATALOAD SWAP1 POP PUSH2 0xB1A DUP2 PUSH2 0xAF4 JUMP JUMPDEST SWAP3 SWAP2 POP POP JUMP JUMPDEST PUSH1 0x0 PUSH2 0xB33 PUSH2 0xB2E DUP5 PUSH2 0xAC3 JUMP JUMPDEST PUSH2 0x9F8 JUMP JUMPDEST SWAP1 POP DUP1 DUP4 DUP3 MSTORE PUSH1 0x20 DUP3 ADD SWAP1 POP PUSH1 0x20 DUP5 MUL DUP4 ADD DUP6 DUP2 GT ISZERO PUSH2 0xB56 JUMPI PUSH2 0xB55 PUSH2 0xAEF JUMP JUMPDEST JUMPDEST DUP4 JUMPDEST DUP2 DUP2 LT ISZERO PUSH2 0xB7F JUMPI DUP1 PUSH2 0xB6B DUP9 DUP3 PUSH2 0xB0B JUMP JUMPDEST DUP5 MSTORE PUSH1 0x20 DUP5 ADD SWAP4 POP POP PUSH1 0x20 DUP2 ADD SWAP1 POP PUSH2 0xB58 JUMP JUMPDEST POP POP POP SWAP4 SWAP3 POP POP POP JUMP JUMPDEST PUSH1 0x0 DUP3 PUSH1 0x1F DUP4 ADD SLT PUSH2 0xB9E JUMPI PUSH2 0xB9D PUSH2 0x98E JUMP JUMPDEST JUMPDEST DUP2 CALLDATALOAD PUSH2 0xBAE DUP5 DUP3 PUSH1 0x20 DUP7 ADD PUSH2 0xB20 JUMP JUMPDEST SWAP2 POP POP SWAP3 SWAP2 POP POP JUMP JUMPDEST PUSH1 0x0 DUP1 PUSH1 0x0 PUSH1 0x60 DUP5 DUP7 SUB SLT ISZERO PUSH2 0xBD0 JUMPI PUSH2 0xBCF PUSH2 0x679 JUMP JUMPDEST JUMPDEST PUSH1 0x0 DUP5 ADD CALLDATALOAD PUSH8 0xFFFFFFFFFFFFFFFF DUP2 GT ISZERO PUSH2 0xBEE JUMPI PUSH2 0xBED PUSH2 0x67E JUMP JUMPDEST JUMPDEST PUSH2 0xBFA DUP7 DUP3 DUP8 ADD PUSH2 0xA95 JUMP JUMPDEST SWAP4 POP POP PUSH1 0x20 DUP5 ADD CALLDATALOAD PUSH8 0xFFFFFFFFFFFFFFFF DUP2 GT ISZERO PUSH2 0xC1B JUMPI PUSH2 0xC1A PUSH2 0x67E JUMP JUMPDEST JUMPDEST PUSH2 0xC27 DUP7 DUP3 DUP8 ADD PUSH2 0xA95 JUMP JUMPDEST SWAP3 POP POP PUSH1 0x40 DUP5 ADD CALLDATALOAD PUSH8 0xFFFFFFFFFFFFFFFF DUP2 GT ISZERO PUSH2 0xC48 JUMPI PUSH2 0xC47 PUSH2 0x67E JUMP JUMPDEST JUMPDEST PUSH2 0xC54 DUP7 DUP3 DUP8 ADD PUSH2 0xB89 JUMP JUMPDEST SWAP2 POP POP SWAP3 POP SWAP3 POP SWAP3 JUMP JUMPDEST PUSH32 0x4E487B7100000000000000000000000000000000000000000000000000000000 PUSH1 0x0 MSTORE PUSH1 0x32 PUSH1 0x4 MSTORE PUSH1 0x24 PUSH1 0x0 REVERT JUMPDEST PUSH32 0x4E487B7100000000000000000000000000000000000000000000000000000000 PUSH1 0x0 MSTORE PUSH1 0x22 PUSH1 0x4 MSTORE PUSH1 0x24 PUSH1 0x0 REVERT JUMPDEST PUSH1 0x0 PUSH1 0x2 DUP3 DIV SWAP1 POP PUSH1 0x1 DUP3 AND DUP1 PUSH2 0xCD4 JUMPI PUSH1 0x7F DUP3 AND SWAP2 POP JUMPDEST PUSH1 0x20 DUP3 LT DUP2 SUB PUSH2 0xCE7 JUMPI PUSH2 0xCE6 PUSH2 0xC8D JUMP JUMPDEST JUMPDEST POP SWAP2 SWAP1 POP JUMP JUMPDEST PUSH32 0x456D707479207175657374696F6E000000000000000000000000000000000000 PUSH1 0x0 DUP3 ADD MSTORE POP JUMP JUMPDEST PUSH1 0x0 PUSH2 0xD23 PUSH1 0xE DUP4 PUSH2 0x714 JUMP JUMPDEST SWAP2 POP PUSH2 0xD2E DUP3 PUSH2 0xCED JUMP JUMPDEST PUSH1 0x20 DUP3 ADD SWAP1 POP SWAP2 SWAP1 POP JUMP JUMPDEST PUSH1 0x0 PUSH1 0x20 DUP3 ADD SWAP1 POP DUP2 DUP2 SUB PUSH1 0x0 DUP4 ADD MSTORE PUSH2 0xD52 DUP2 PUSH2 0xD16 JUMP JUMPDEST SWAP1 POP SWAP2 SWAP1 POP JUMP JUMPDEST PUSH32 0x4174206C656173742032206F7074696F6E732072657175697265640000000000 PUSH1 0x0 DUP3 ADD MSTORE POP JUMP JUMPDEST PUSH1 0x0 PUSH2 0xD8F PUSH1 0x1B DUP4 PUSH2 0x714 JUMP JUMPDEST SWAP2 POP PUSH2 0xD9A DUP3 PUSH2 0xD59 JUMP JUMPDEST PUSH1 0x20 DUP3 ADD SWAP1 POP SWAP2 SWAP1 POP JUMP JUMPDEST PUSH1 0x0 PUSH1 0x20 DUP3 ADD SWAP1 POP DUP2 DUP2 SUB PUSH1 0x0 DUP4 ADD MSTORE PUSH2 0xDBE DUP2 PUSH2 0xD82 JUMP JUMPDEST SWAP1 POP SWAP2 SWAP1 POP JUMP JUMPDEST PUSH1 0x0 DUP2 SWAP1 POP DUP2 PUSH1 0x0 MSTORE PUSH1 0x20 PUSH1 0x0 KECCAK256 SWAP1 POP SWAP2 SWAP1 POP JUMP JUMPDEST PUSH1 0x0 PUSH1 0x20 PUSH1 0x1F DUP4 ADD DIV SWAP1 POP SWAP2 SWAP1 POP JUMP JUMPDEST PUSH1 0x0 DUP3 DUP3 SHL SWAP1 POP SWAP3 SWAP2 POP POP JUMP JUMPDEST PUSH1 0x0 PUSH1 0x8 DUP4 MUL PUSH2 0xE27 PUSH32 0xFFFFFFFFFFFFFFFFFFFFFFFFFFFFFFFFFFFFFFFFFFFFFFFFFFFFFFFFFFFFFFFF DUP3 PUSH2 0xDEA JUMP JUMPDEST PUSH2 0xE31 DUP7 DUP4 PUSH2 0xDEA JUMP JUMPDEST SWAP6 POP DUP1 NOT DUP5 AND SWAP4 POP DUP1 DUP7 AND DUP5 OR SWAP3 POP POP POP SWAP4 SWAP3 POP POP POP JUMP JUMPDEST PUSH1 0x0 DUP2 SWAP1 POP SWAP2 SWAP1 POP JUMP JUMPDEST PUSH1 0x0 PUSH2 0xE6E PUSH2 0xE69 PUSH2 0xE64 DUP5 PUSH2 0x6F0 JUMP JUMPDEST PUSH2 0xE49 JUMP JUMPDEST PUSH2 0x6F0 JUMP JUMPDEST SWAP1 POP SWAP2 SWAP1 POP JUMP JUMPDEST PUSH1 0x0 DUP2 SWAP1 POP SWAP2 SWAP1 POP JUMP JUMPDEST PUSH2 0xE88 DUP4 PUSH2 0xE53 JUMP JUMPDEST PUSH2 0xE9C PUSH2 0xE94 DUP3 PUSH2 0xE75 JUMP JUMPDEST DUP5 DUP5 SLOAD PUSH2 0xDF7 JUMP JUMPDEST DUP3 SSTORE POP POP POP POP JUMP JUMPDEST PUSH1 0x0 SWAP1 JUMP JUMPDEST PUSH2 0xEB1 PUSH2 0xEA4 JUMP JUMPDEST PUSH2 0xEBC DUP2 DUP5 DUP5 PUSH2 0xE7F JUMP JUMPDEST POP POP POP JUMP JUMPDEST JUMPDEST DUP2 DUP2 LT ISZERO PUSH2 0xEE0 JUMPI PUSH2 0xED5 PUSH1 0x0 DUP3 PUSH2 0xEA9 JUMP JUMPDEST PUSH1 0x1 DUP2 ADD SWAP1 POP PUSH2 0xEC2 JUMP JUMPDEST POP POP JUMP JUMPDEST PUSH1 0x1F DUP3 GT ISZERO PUSH2 0xF25 JUMPI PUSH2 0xEF6 DUP2 PUSH2 0xDC5 JUMP JUMPDEST PUSH2 0xEFF DUP5 PUSH2 0xDDA JUMP JUMPDEST DUP2 ADD PUSH1 0x20 DUP6 LT ISZERO PUSH2 0xF0E JUMPI DUP2 SWAP1 POP JUMPDEST PUSH2 0xF22 PUSH2 0xF1A DUP6 PUSH2 0xDDA JUMP JUMPDEST DUP4 ADD DUP3 PUSH2 0xEC1 JUMP JUMPDEST POP POP JUMPDEST POP POP POP JUMP JUMPDEST PUSH1 0x0 DUP3 DUP3 SHR SWAP1 POP SWAP3 SWAP2 POP POP JUMP JUMPDEST PUSH1 0x0 PUSH2 0xF48 PUSH1 0x0 NOT DUP5 PUSH1 0x8 MUL PUSH2 0xF2A JUMP JUMPDEST NOT DUP1 DUP4 AND SWAP2 POP POP SWAP3 SWAP2 POP POP JUMP JUMPDEST PUSH1 0x0 PUSH2 0xF61 DUP4 DUP4 PUSH2 0xF37 JUMP JUMPDEST SWAP2 POP DUP3 PUSH1 0x2 MUL DUP3 OR SWAP1 POP SWAP3 SWAP2 POP POP JUMP JUMPDEST PUSH2 0xF7A DUP3 PUSH2 0x709 JUMP JUMPDEST PUSH8 0xFFFFFFFFFFFFFFFF DUP2 GT ISZERO PUSH2 0xF93 JUMPI PUSH2 0xF92 PUSH2 0x998 JUMP JUMPDEST JUMPDEST PUSH2 0xF9D DUP3 SLOAD PUSH2 0xCBC JUMP JUMPDEST PUSH2 0xFA8 DUP3 DUP3 DUP6 PUSH2 0xEE4 JUMP JUMPDEST PUSH1 0x0 PUSH1 0x20 SWAP1 POP PUSH1 0x1F DUP4 GT PUSH1 0x1 DUP2 EQ PUSH2 0xFDB JUMPI PUSH1 0x0 DUP5 ISZERO PUSH2 0xFC9 JUMPI DUP3 DUP8 ADD MLOAD SWAP1 POP JUMPDEST PUSH2 0xFD3 DUP6 DUP3 PUSH2 0xF55 JUMP JUMPDEST DUP7 SSTORE POP PUSH2 0x103B JUMP JUMPDEST PUSH1 0x1F NOT DUP5 AND PUSH2 0xFE9 DUP7 PUSH2 0xDC5 JUMP JUMPDEST PUSH1 0x0 JUMPDEST DUP3 DUP2 LT ISZERO PUSH2 0x1011 JUMPI DUP5 DUP10 ADD MLOAD DUP3 SSTORE PUSH1 0x1 DUP3 ADD SWAP2 POP PUSH1 0x20 DUP6 ADD SWAP5 POP PUSH1 0x20 DUP2 ADD SWAP1 POP PUSH2 0xFEC JUMP JUMPDEST DUP7 DUP4 LT ISZERO PUSH2 0x102E JUMPI DUP5 DUP10 ADD MLOAD PUSH2 0x102A PUSH1 0x1F DUP10 AND DUP3 PUSH2 0xF37 JUMP JUMPDEST DUP4 SSTORE POP JUMPDEST PUSH1 0x1 PUSH1 0x2 DUP9 MUL ADD DUP9 SSTORE POP POP POP JUMPDEST POP POP POP POP POP POP JUMP INVALID LOG2 PUSH5 0x6970667358 0x22 SLT KECCAK256 SLT SLOAD DUP1 0xE7 0xE2 0x1F 0xEE ADDMOD DUP5 0x24 0xD5 ADDRESS EXP XOR 0xEA PUSH3 0x712CEF 0xBB MSIZE 0xC2 SHR 0xF PUSH9 0xB04577B88DA6156473 PUSH16 0x6C634300081000330000000000000000 "
				},
				"gasEstimates": {
					"creation": {
						"codeDepositCost": "843400",
						"executionCost": "877",
						"totalCost": "844277"
					},
					"external": {
						"createPoll(string,string,bytes32[])": "infinite",
						"getPoll(uint64)": "infinite"
					}
				},
				"methodIdentifiers": {
					"createPoll(string,string,bytes32[])": "7ba91041",
					"getPoll(uint64)": "157bd75d"
				}
			},
			"storageLayout": {
				"storage": [
					{
						"astId": 28,
						"contract": "poll.sol:PollContract",
						"label": "polls",
						"offset": 0,
						"slot": "0",
						"type": "t_array(t_struct(Poll)14_storage)dyn_storage"
					},
					{
						"astId": 33,
						"contract": "poll.sol:PollContract",
						"label": "voters",
						"offset": 0,
						"slot": "1",
						"type": "t_mapping(t_address,t_struct(Voter)24_storage)"
					}
				],
				"types": {
					"t_address": {
						"encoding": "inplace",
						"label": "address",
						"numberOfBytes": "20"
					},
					"t_array(t_bytes32)dyn_storage": {
						"base": "t_bytes32",
						"encoding": "dynamic_array",
						"label": "bytes32[]",
						"numberOfBytes": "32"
					},
					"t_array(t_struct(Poll)14_storage)dyn_storage": {
						"base": "t_struct(Poll)14_storage",
						"encoding": "dynamic_array",
						"label": "struct PollContract.Poll[]",
						"numberOfBytes": "32"
					},
					"t_array(t_uint256)dyn_storage": {
						"base": "t_uint256",
						"encoding": "dynamic_array",
						"label": "uint256[]",
						"numberOfBytes": "32"
					},
					"t_array(t_uint64)dyn_storage": {
						"base": "t_uint64",
						"encoding": "dynamic_array",
						"label": "uint64[]",
						"numberOfBytes": "32"
					},
					"t_bool": {
						"encoding": "inplace",
						"label": "bool",
						"numberOfBytes": "1"
					},
					"t_bytes32": {
						"encoding": "inplace",
						"label": "bytes32",
						"numberOfBytes": "32"
					},
					"t_mapping(t_address,t_struct(Voter)24_storage)": {
						"encoding": "mapping",
						"key": "t_address",
						"label": "mapping(address => struct PollContract.Voter)",
						"numberOfBytes": "32",
						"value": "t_struct(Voter)24_storage"
					},
					"t_mapping(t_uint256,t_bool)": {
						"encoding": "mapping",
						"key": "t_uint256",
						"label": "mapping(uint256 => bool)",
						"numberOfBytes": "32",
						"value": "t_bool"
					},
					"t_string_storage": {
						"encoding": "bytes",
						"label": "string",
						"numberOfBytes": "32"
					},
					"t_struct(Poll)14_storage": {
						"encoding": "inplace",
						"label": "struct PollContract.Poll",
						"members": [
							{
								"astId": 3,
								"contract": "poll.sol:PollContract",
								"label": "id",
								"offset": 0,
								"slot": "0",
								"type": "t_uint256"
							},
							{
								"astId": 5,
								"contract": "poll.sol:PollContract",
								"label": "question",
								"offset": 0,
								"slot": "1",
								"type": "t_string_storage"
							},
							{
								"astId": 7,
								"contract": "poll.sol:PollContract",
								"label": "thumbnail",
								"offset": 0,
								"slot": "2",
								"type": "t_string_storage"
							},
							{
								"astId": 10,
								"contract": "poll.sol:PollContract",
								"label": "votes",
								"offset": 0,
								"slot": "3",
								"type": "t_array(t_uint64)dyn_storage"
							},
							{
								"astId": 13,
								"contract": "poll.sol:PollContract",
								"label": "options",
								"offset": 0,
								"slot": "4",
								"type": "t_array(t_bytes32)dyn_storage"
							}
						],
						"numberOfBytes": "160"
					},
					"t_struct(Voter)24_storage": {
						"encoding": "inplace",
						"label": "struct PollContract.Voter",
						"members": [
							{
								"astId": 16,
								"contract": "poll.sol:PollContract",
								"label": "id",
								"offset": 0,
								"slot": "0",
								"type": "t_address"
							},
							{
								"astId": 19,
								"contract": "poll.sol:PollContract",
								"label": "votedIds",
								"offset": 0,
								"slot": "1",
								"type": "t_array(t_uint256)dyn_storage"
							},
							{
								"astId": 23,
								"contract": "poll.sol:PollContract",
								"label": "votedMap",
								"offset": 0,
								"slot": "2",
								"type": "t_mapping(t_uint256,t_bool)"
							}
						],
						"numberOfBytes": "96"
					},
					"t_uint256": {
						"encoding": "inplace",
						"label": "uint256",
						"numberOfBytes": "32"
					},
					"t_uint64": {
						"encoding": "inplace",
						"label": "uint64",
						"numberOfBytes": "8"
					}
				}
			},
			"userdoc": {
				"kind": "user",
				"methods": {},
				"version": 1
			}
		}
	}
}